:020000040800F2
:10800000A87E0020A582000883BD0008F3BC0008FC
:108010007FBD0008858A0008C9F000080000000044
:10802000000000000000000000000000E1810008E6
:108030003D8C0008000000003D82000817CB0008BE
:10804000BF820008BF820008BF820008BF8200080C
:10805000BF820008A5C40008BF820008BF820008D4
:10806000BF820008BF820008BF820008BF820008EC
:10807000BF820008BF820008BF820008BF820008DC
:10808000BF820008BF820008BF820008BF820008CC
:10809000BF820008BF820008BF820008BF820008BC
:1080A000BF820008BF820008BF820008BF820008AC
:1080B000BF820008BF820008BF820008BF8200089C
:1080C000BF820008BF820008BF820008BF8200088C
:1080D000BF820008BF820008BF820008BF8200087C
:1080E000BF820008BF820008BF820008BF8200086C
:1080F000BF820008BF820008BF820008BF8200085C
:10810000BF820008BF820008BF820008BF8200084B
:10811000BF820008BF820008BF82000841CC00086F
:108120002D8C0008BF820008BF820008BF820008B3
:10813000BF820008BF820008BF820008BF8200081B
:10814000BF820008BF820008BF820008BF8200080B
:10815000BF820008BF820008BF820008BF820008FB
:10816000BF820008BF820008BF820008BF820008EB
:10817000BF82000815BE0008BF820008BF82000849
:10818000BF820008BF820008BF820008BF820008CB
:10819000BF820008BF820008BF820008BF820008BB
:1081A000BF820008BF820008BF820008BF820008AB
:1081B000BF820008BF820008BF820008BF8200089B
:1081C000BF820008BF820008DFF810D000F0F0F88E
:1081D000004800479DFC0008AFF30080A87E002007
:1081E0002D4B19680868B0E8F04F80F30988BFF399
:1081F0006F8F4FF0000080F311887047000000007F
:1082000008480068006880F308884FF0000080F399
:10821000148862B661B6BFF34F8FBFF36F8F00DF74
:1082200000BF00BF08ED00E0DFF80C00016841F47A
:1082300070010160704700BF88ED00E0EFF3098036
:10824000BFF36F8F144B1A681EF0100F08BF20ED9C
:10825000108A20E9F04F106009B44FF0500072B658
:1082600080F31188BFF34F8FBFF36F8F62B608F0B2
:10827000CDFC4FF0000080F3118809BC1968086834
:10828000B0E8F04F1EF0100F08BFB0EC108A80F37A
:108290000988BFF36F8F7047A4000020EFF30580BB
:1082A000704700000648804706480047FEE7FEE7A3
:1082B000FEE7FEE7FEE7FEE7FEE7FEE7FEE7FEE796
:1082C0002DCC0008C98100082DE9F05F054600208B
:1082D00092469B4688460646814640241BE0284637
:1082E00041464746224600F053F853465A46C01AC4
:1082F000914110D311461846224600F03AF82D1A43
:1083000067EB01084F4622460120002100F031F8BA
:1083100017EB00094E41201EA4F10104DFDC4846A2
:1083200031462A464346BDE8F09F40EA01039B07D9
:1083300003D009E008C9121F08C0042AFAD203E0DA
:1083400011F8013B00F8013B521EF9D27047D2B23E
:1083500001E000F8012B491EFBD270470022F6E72E
:1083600010B513460A4604461946FFF7F0FF2046AB
:1083700010BD202A04DB203A00FA02F100207047E9
:108380009140C2F1200320FA03F319439040704753
:10839000202A04DB203A21FA02F00021704721FA5A
:1083A00002F3D040C2F120029140084319467047C1
:1083B000064C074D06E0E06840F0010394E8070032
:1083C00098471034AC42F6D3FFF702FF3C22010875
:1083D0005C22010870B58C1810F8015B15F00703DA
:1083E00001D110F8013B2A1106D110F8012B03E04E
:1083F00010F8016B01F8016B5B1EF9D12B0705D456
:108400000023521E0DD401F8013BFAE710F8013B9E
:10841000CB1A921C03E013F8015B01F8015B521EBA
:10842000F9D5A142D8D3002070BD000002461168E2
:10843000B1F1005F04D30348814201D200207047AC
:108440000120FCE700C0042010B504464FF4007280
:108450000449002000F0A6F9242202492046FFF733
:1084600064FF10BD9414002070B5044665682E4664
:1084700002F068FF00F0B8FE00204FF0E021086134
:108480004861886103480460206880F3088800BF61
:10849000B04770BD08ED00E010B58CB00446002078
:1084A000029000BF1D48006840F480501B490860DE
:1084B0000846006800F48050019000BF00BF1848D3
:1084C000039000208DF8100000218DF81110089104
:1084D000099103200B9003A800F0CEFC10B10320FB
:1084E0000CB010BD03A8D4E9012100F08CFC02906F
:1084F0000A482038006840F4805008492039086054
:108500000846006820F4805008602068029988427C
:1085100001D10020E4E70320E2E700003038024008
:108520000030024000B585B0012002900C2004907C
:1085300002200190032003904CF2037000906946E2
:108540000C4800F087FE4FF68070009069460A489C
:1085500000F080FE4FF23F0000906946074800F0AF
:1085600079FE372000906946054800F073FE05B09B
:1085700000BD0000000C0240001002400014024048
:108580000018024008B500BF4748006840F00100ED
:10859000454908600846006800F00100009000BFEF
:1085A00000BF00BF0846006840F0020008600846AF
:1085B000006800F00200009000BF00BF00BF084646
:1085C000006840F0040008600846006800F00400FD
:1085D000009000BF00BF00BF0846006840F00800E0
:1085E00008600846006800F00800009000BF00BF67
:1085F00000BF0846006840F01000086008460068A8
:1086000000F01000009000BF00BF00BF08460068E7
:1086100040F0200008600846006800F0200000904C
:1086200000BF00BF00BF0846006840F0400008607F
:108630000846006800F04000009000BF00BF00BF87
:108640000846006840F0800008600846006800F0B6
:108650008000009000BF00BF00BF0846006840F4E3
:10866000807008600846006800F48070009000BFC9
:1086700000BF00BF0846006840F40070086008466C
:10868000006800F40070009000BF00BF00BF084603
:10869000006840F4806008600846006800F480606C
:1086A000009000BF00BF08BD3038024038B501243B
:1086B00000BF2348006840F00100214908600846D7
:1086C000006800F00100009000BF00BF4FF02040A4
:1086D0001C4908601C48486002201C490861486128
:1086E0000720886001204860042008600120C860DD
:1086F0000020886113498860002112480164082124
:1087000001618904C163002181624163C162016228
:10871000210341620021C1601021416100210163F8
:10872000C1618161816300F013F8084A1146054870
:1087300000F01CFF00B100E00024204638BD00001E
:108740003838024000140020040100A0E413002087
:1087500030B585B004460D46FFF7E4FE01200290D7
:108760000C200490022001900320039043F6F000B7
:1087700000906946084800F06DFD38200090694679
:10878000064800F067FD082000906946044800F0A4
:1087900061FD05B030BD0000000C02400010024039
:1087A0000018024078B505460B46002405F1C0418B
:1087B00000BF344890F84400012801D1022078BD60
:1087C0000120304E86F8440000BF304690F8450046
:1087D000022800D1F3E72B48806810B94FF0C0445D
:1087E0000FE028488068022802D14FF0C84408E012
:1087F00024488068042802D14FF0D04401E04FF0B3
:10880000D84402201F4E86F8450000BFAA20A4F8D5
:10881000AA0A00BF00BF00BFBFF34F8F00BF00BF59
:1088200000BF00BF00BF5520A4F8540500BF00BF23
:1088300000BFBFF34F8F00BF00BF00BF00BF00BF2E
:10884000F020A4F8AA0A00BF00BF00BFBFF34F8FFB
:1088500000BF00BF00BF00BF08880090891C04E073
:10886000088823F8020B891C521E002AF8D1012027
:10887000044E86F8450000BF002086F8440000BF83
:1088800000BF9CE70014002010B5044621460448B0
:1088900000F0A8FE08B1012010BD0020FCE7000098
:1088A0000014002000B585B014216846FFF756FD7E
:1088B0000020029001200090002001900390694662
:1088C000024800F0C7FC05B000BD000000000240F7
:1088D00010B51048104908600120486004210E4876
:1088E00081601021C160172101614FF4A0614161D5
:1088F00000218161C16101F04DFF03F03FFD08B12E
:10890000042010BD03F0FEFC08B10420F9E70020AC
:10891000F7E70000001000A04814002010B590B048
:108920000446382101A8FFF719FD02200B90902082
:1089300001904FF080700A9080130890C00004905E
:1089400000200C904FF48070079000200E900D9046
:10895000099041F2883201A90C4801F0C9FE10B11A
:10896000012010B010BD41F288320FA9074801F074
:10897000C9FF08B10120F4E79DF83D009DF83C10C7
:1089800040EA012020600020EBE7000048140020AE
:1089900010B590B0044603200B90002006904FF0D5
:1089A00080700A90002008909F2001904FF40050A2
:1089B000049000200C904FF48070079000200E90DF
:1089C0000D90099041F2883201A90E4801F090FE05
:1089D00010B1012010B010BD41F288320FA9094832
:1089E00001F090FF08B10120F4E79DF83E009DF8EA
:1089F0003D1040EA01209DF83C1040EA0140206013
:108A00000020E7E74814002010B590B0044600208D
:108A10000F90382101A8FFF7A1FC02200B901F2026
:108A200006904B2001904FF080700A900020089033
:108A30004FF40050049000200C904FF48070079089
:108A400000200E900D90099041F2883201A90C4847
:108A500001F04EFE10B1012010B010BD41F288327D
:108A60000FA9074801F04EFF08B10120F4E79DF877
:108A70003D009DF83C1040EA012020600020EBE71B
:108A80004814002000BFFEE70346042B15D007DC86
:108A90007BB1012B0ED0022B0DD0032B12D10BE09A
:108AA000202B0BD0212B0AD0222B09D0232B09D12C
:108AB00007E008E007E006E005E004E003E002E08C
:108AC00001E000E000BF00BF0020704700207047B9
:108AD00010B500220449054804F076FA0449034819
:108AE00004F06BFA002010BDF00E0020945300201B
:108AF000F00A002070B504460D462046296808F0AB
:108B000091F92146034804F058FA024804F030FA7B
:108B1000002070BD9453002010B503460C46002180
:108B2000084610BD2DE9F04104460D4600260A48CE
:108B3000D0F8BC72D7F8140210B10120BDE8F08162
:108B40002A462146044804F03FFA034804F0C3FAD9
:108B500006463046F2E700009453002070B5034605
:108B60000C4600210BE04800401C34F810004E0079
:108B700034F8166040EA06401E683060491CB1EBCC
:108B8000520FF0D302F0010020B11D68480034F804
:108B9000100028801868006870BDF0B504460B46C8
:108BA000002113E013F8210007068800401C185C20
:108BB00047EA00478800801C185C47EA00208F00C5
:108BC000FF1CDF5D384327683860491CB1EB920F0A
:108BD000E8D302F0030030B302F00300012803D110
:108BE00013F821002768387002F00300022808D12A
:108BF0008800401C185C13F8217040EA072526689D
:108C0000358002F0030003280DD18800401C185C59
:108C100013F8217040EA0725266835808800801CFB
:108C2000185C2768387020680068F0BD10B50249EC
:108C3000886B00F0B9F910BD5013002070477047E1
:108C400070B504461D460023B5F5804F13D154F886
:108C500022300C480340D1E9000640EA06108E6835
:108C600040EA06208E8940EA06408E69304303437D
:108C700044F8223003E06FF0704044F822000020F6
:108C800070BD00000000F0CF10B502460023086858
:108C900052F820301B480340D1E901042043CC683E
:108CA00020430C6920434C6920438C692043CC69E4
:108CB00020430C6A20434C6A20438C6A2043CC6AD0
:108CC00020430C6B20438C6B20434C6B20430343AD
:108CD0008868082801D143F04003086842F8203032
:108CE000086BB0F5801F05D1086818B110680C6BCF
:108CF00020431060086818B110684C6B2043106066
:108D0000002010BD8004C0FF30B503461446002289
:108D1000601C53F8202002F04042D1E9000540EAEF
:108D200005108D6840EA05208D8940EA0545088ACE
:108D3000401E45EA0055087D801E45EA00608D69A9
:108D400028430243601C43F82020186800F4801078
:108D5000B0F5801F07D1586820F47002088A401EC1
:108D600042EA00525A60002030BD000070B50A4847
:108D70000468001D0568001D0668344454B10822CB
:108D80000649204602F0DCFF04220449103128463F
:108D900002F0D6FF70BD000020F4F01F5600002046
:108DA00070B503460C4600201F2100BF0D1EA1F127
:108DB000010106D001F01F060125B5402540002D18
:108DC000F4D08AB1082A0BD0102A05D0182A0CD169
:108DD000072900D301200AE0082900D3012006E07A
:108DE000102900D3012002E001E0012000BF00BFF4
:108DF00040B91D686C611D68AD6825F01805154304
:108E00001E68B56070BD2DE9F04104460E46174658
:108E10004FF00008022060772068806840F0010071
:108E200021688860206A012810D0022815D0032804
:108E30001AD1002504E056F82500216808606D1C51
:108E4000BD42F8D32068D0F800800EE03A463146A3
:108E50002046FFF7A2FE804607E03A46314620460C
:108E6000FFF77CFE804600E000BF00BF0120607776
:108E70004046BDE8F081000010B504460CB9012061
:108E800010BD607F20B900202077204600F036F822
:108E900002206077207948B9174821684861206826
:108EA000806820F018002168886007E02046D4E937
:108EB0000212FFF775FF08B10120E1E7607920B9E0
:108EC0004FF0FF302168086102E0216820690861E5
:108ED0002068806820F0600061690843216888602C
:108EE0002068806820F08000A169084321688860BC
:108EF000012060770020C3E7B71DC104704770B53B
:108F00000446A56D00F0B2FA064694F83500022832
:108F100008D08020606500BF002084F8340000BFC6
:108F2000012070BD2068006820F0160021680860EC
:108F30002068406920F0800021684861206C08B9F1
:108F4000A06C28B12068006820F008002168086043
:108F50002068006820F00100216808600FE000F040
:108F600085FA801B05280AD92020606500BF0020F3
:108F700084F8340000BF032084F83500D1E720686E
:108F8000006800F001000028E9D194F85C103F204F
:108F90008840A86000BF002084F8340000BF012092
:108FA00084F835000020BCE7F8B5044600200090A6
:108FB0008C4800684FF41651B0FBF1F7A56D2E6890
:108FC00094F85C1008208840304098B12068006810
:108FD00000F0040070B12068006820F004002168EF
:108FE000086094F85C1008208840A860606D40F02C
:108FF0000100606594F85C1001208840304068B141
:109000002068406900F0800040B194F85C100120B5
:109010008840A860606D40F00200606594F85C10C4
:1090200004208840304068B12068006800F00200E9
:1090300040B194F85C1004208840A860606D40F056
:109040000400606594F85C1010208840304078B3CC
:109050002068006800F0080050B394F85C101020FD
:109060008840A8602068006800F4802080B12068F3
:10907000006800F4002028B9206CC8B12046216C9B
:10908000884715E0A06C98B12046A16C88470FE096
:109090002068006800F4807028B92068006820F01B
:1090A000080021680860206C10B12046216C8847B8
:1090B00094F85C10202088403040002865D020685B
:1090C000006800F0100000285FD094F85C102020A9
:1090D0008840A86094F83500052828D120680068E9
:1090E00020F01600216808602068406920F08000A8
:1090F00021684861206C08B9A06C28B1206800681C
:1091000020F008002168086094F85C103F20884037
:10911000A86000BF002084F8340000BF012084F85C
:109120003500206D10B12046216D8847F8BD2068BC
:10913000006800F4802080B12068006800F40020FE
:1091400028B9606C10B12046616C88471DE0E06B67
:10915000D8B12046E16B884717E02068006800F42A
:10916000807068B92068006820F0100021680860ED
:1091700000BF002084F8340000BF012084F83500CF
:10918000E06B10B12046E16B8847606D38B3606DCD
:1091900000F00100F0B1052084F835002068006877
:1091A00020F001002168086000BF0098401C00907A
:1091B000B84200D905E02068006800F001000028EE
:1091C000F3D100BF00BF002084F8340000BF0120AD
:1091D00084F83500E06C10B12046E16C884700BF90
:1091E000A4E700008400002010B54FF0FF300E49C6
:1091F000086000200860401E091D0860002008600B
:10920000401E09491039086000200860401E091DF1
:10921000086000200860401E091D086000200860EA
:1092200000F07AF9002010BD2038024070B50446E5
:1092300000F01CF906462546681C10B10448007869
:10924000054400BF00F012F9801BA842FAD370BD9C
:1092500090000020F8B502460B46002100250024AE
:10926000002000BFE4E0012606FA01F51E6806EAC8
:109270000504AC4271D15E68012E08D05E68022EF2
:1092800005D05E68112E02D05E68122E13D1906850
:109290004F000326BE40B0434F00DE68BE4030435F
:1092A0009060506801268E40B0431E79C6F30016C8
:1092B0008E4030435060D0684F000326BE40B0431C
:1092C0004F009E68BE403043D0605E68022E02D0E0
:1092D0005E68122E13D1CF0802F1200656F827003F
:1092E0004E07F70E0F26BE40B0434F07FF0E1E6914
:1092F000BE403043CF0802F1200646F82700106830
:109300004F000326BE40B0431E7906F003064F000F
:10931000BE40304310605E6806F08056B6F1805F54
:10932000A8D100BF444E366846F48046424F3E60A6
:109330003E46366806F48046009600BF00BF3F4EAA
:109340008F0856F827008E07370F0F26BE40B04310
:109350003B4EB24202D100262EE068E0394EB242C6
:1093600001D1012628E0384EB24201D1022623E085
:10937000364EB24201D103261EE0354EB24201D133
:10938000042619E0334EB24201D1052614E0324ED4
:10939000B24201D106260FE0304EB24201D107267B
:1093A0000AE02F4EB24201D1082605E02D4EB2420E
:1093B00001D1092600E00A268F073F0FBE40304347
:1093C0001E4E8F0846F82700274E3068A0435E687F
:1093D00006F48036B6F5803F00D12043224E30603F
:1093E000361D3068A0435E6806F40036B6F5003FCF
:1093F00000D120431C4E361D3060361D3068A0431E
:109400005E6806F48016B6F5801F00D12043164E24
:1094100008363060361D3068A0435E6806F40016DA
:10942000B6F5001F00D120430F4E0C363060491CAA
:109430001029FFF418AFF8BD443802400838014045
:10944000000002400004024000080240000C0240FC
:10945000001002400014024000180240001C0240AC
:109460000020024000240240003C01400148006806
:109470007047000088000020014800687047000025
:1094800020F4F01F014800687047000024F4F01F2A
:10949000014800687047000028F4F01F0348006886
:1094A0000349097808440149086070478800002092
:1094B0009000002010B5032000F07EF9002000F09D
:1094C00005F800F02BF8002010BD000070B5044630
:1094D0000E4800784FF47A71B1FBF0F00C4909683E
:1094E000B1FBF0F5284602F0E5FA08B1012070BDA5
:1094F000102C07D200222146501E00F01FF905480B
:10950000046001E00120F2E70020F0E79000002075
:10951000840000208C0000207047000008B500BFC8
:109520001148006840F080500F4908600846006804
:1095300000F08050009000BF00BF00BF081D006811
:1095400040F48040091D08600846006800F480402F
:10955000009000BF00BF00221146052000F0EEF889
:10956000052000F0DBF808BD4038024070B5044625
:109570000E4615460CB9012070BD94F8450028B977
:10958000002084F84400204600F02AF804F1080185
:109590002068FFF779FB3146A2682068FFF7B4FB2B
:1095A0002946E36AD4E90102FFF74AFBA168206873
:1095B00050F8210040F00100A268216841F8220023
:1095C000606918B900200549086002E001200349DC
:1095D0000860012084F845000020CDE794000020B9
:1095E0007047000010B502460B46002100BF92F8FC
:1095F0004400012801D1022010BD012082F844005E
:1096000000BF92F84500022800D1F5E7906810B934
:109610004FF0C0410DE09068022802D14FF0C841E0
:1096200007E09068042802D14FF0D04101E04FF0EC
:10963000D841022082F8450000BFAA2436480068BD
:10964000012802D101F6AA2001E001F25550048060
:1096500000BF00BF00BFBFF34F8F00BF00BF00BF00
:1096600000BF00BF55242C480068012802D101F238
:10967000545001E001F2AA20048000BF00BF00BFE7
:10968000BFF34F8F00BF00BF00BF00BF00BF9024DB
:1096900021480068012802D101F6AA2001E001F268
:1096A0005550048000BF00BF00BFBFF34F8F00BF05
:1096B00000BF00BF00BF18480068012800D100E0CB
:1096C00000BF0888188014480068012801D1881C50
:1096D00000E0481C008858800F480068012802D12B
:1096E00001F11C0001E001F10E00008898800A4899
:1096F0000068012802D101F11E0001E001F10F0014
:109700000088D880012082F8450000BF002082F840
:10971000440000BF00BF6FE79400002001460846E8
:10972000002809DB00F01F0301229A4043099B0037
:1097300003F1E023C3F8002100BF70472DE9F05F7B
:1097400080460D461646002705F0D0FC07463946F0
:109750002A46334601F00700C0F1070ABAF1040FA8
:1097600002D94FF0040A01E0C0F1070AD14600F126
:10977000040ABAF1070F02D24FF0000A01E0A0F18B
:10978000030AD4464FF0010A0AFA09FAAAF1010ABB
:109790000AEA020A0AFA0CFA4FF0010B0BFA0CFB68
:1097A000ABF1010B0BEA030B4AEA0B0421464046DE
:1097B00005F0A4FCBDE8F09F00BF00F00702064BD7
:1097C00019684FF6FF031940044B0B4343EA02218B
:1097D000014B196000BF70470CED00E00000FA0576
:1097E00001460A680120C1F8FC03002081F8F40357
:1097F000906940F000609061506D024B18435065D5
:10980000002070470300001070B504460D4615B1E6
:10981000012D2CD116E0206A38B103F086F91548E5
:10982000006820F00600134908602068D0F8000E98
:1098300020F001002168C1F8000ED4F8000404F003
:109840002CF914E02068D0F8000E40F001002168E7
:10985000C1F8000ED4F8000404F0BEF9206A28B163
:109860000448006840F006000249086000BF00BFDD
:1098700070BD000010ED00E002461068416200205B
:109880007047F0B5034615461868446A21B944EAA2
:1098900005401E68B06219E01868806A04EB104445
:1098A000002208E0186800F5827050F8220004EBEE
:1098B0001044501CC2B2481E9042F3D844EA0547F7
:1098C000186800F582704E1E40F826700020F0BD2A
:1098D00010B50446D4F8000404F008F810BD70B5C3
:1098E00004460D46C5EBC50304F13C0101EB8301C1
:1098F000CA682946D4F8000403F03CFF70BD70B577
:1099000004460D46C5EBC50304F5FE7101EB83016A
:10991000CA682946D4F8000403F09FFF70BD10B553
:109920000446D4F8000403F0E4FF10BD70B504460B
:109930000E4606F0800080280AD106F00F00C0EB2A
:10994000C00104F13C0000EB81050120687009E0D2
:1099500006F00F00C0EBC00104F5FE7000EB8105BE
:109960000020687006F00F00287000BF94F8BC0358
:10997000012801D1022070BD012084F8BC0300BF82
:109980002946206804F0E4FC00BF002084F8BC03F2
:1099900000BF00BFEFE770B504460E4606F00F00AB
:1099A0006168884201D9012070BD06F080008028DE
:1099B0000AD106F00F00C0EBC00104F13C0000EB3F
:1099C00081050120687009E006F00F00C0EBC001BE
:1099D00004F5FE7000EB8105002068700020A8707F
:1099E00006F00F00287000BF94F8BC03012801D1D5
:1099F0000220D9E7012084F8BC0300BF2946206873
:109A000004F094FF00BF002084F8BC0300BF00BF37
:109A1000CAE7024601F00F00C0EBC00302F5FE707A
:109A200000EB8300806970472DE9F04705460E463C
:109A300090461F464FF0000906F0800080280AD1AA
:109A400006F00F00C0EBC00105F13C0000EB810403
:109A50000120607009E006F00F00C0EBC00105F5C1
:109A6000FE7000EB81040020607006F00F00207093
:109A7000C4F80880E770607808B12078E080022F91
:109A800001D10020207100BF95F8BC03012802D14C
:109A90000220BDE8F087012085F8BC0300BF214605
:109AA000286804F077FB00BF002085F8BC0300BFE6
:109AB0004846EEE72DE9F04104460E461746984623
:109AC00006F00F00C0EBC00104F5FE7000EB81054D
:109AD000EF60C5F814800020A861687006F00F00E0
:109AE00028702069012800D12F6106F00F0028B9E5
:109AF000227C2946206804F0F5FD04E0227C2946FA
:109B0000206804F0A7FF0020BDE8F08170B504468E
:109B10000D4605F00F006168884201D9012070BD33
:109B200005F0800080280AD105F00F00C0EBC001CD
:109B300004F13C0000EB81060120707007E0C5EBEA
:109B4000C50104F5FE7000EB810600207070012055
:109B5000B07005F00F00307000BF94F8BC0301280E
:109B600001D10220DBE7012084F8BC0300BF3146AD
:109B7000206804F022FF05F00F0028B9217C04F5CD
:109B80007172206804F09AFE00BF002084F8BC03C4
:109B900000BF00BFC3E72DE9F04104460E4617465B
:109BA000984606F00F00C0EBC00104F13C0000EB4A
:109BB0008105EF60C5F814800020A861012068705D
:109BC00006F00F0028702069012800D12F6106F0EF
:109BD0000F0028B9227C2946206804F083FD04E0A8
:109BE000227C2946206804F035FF0020BDE8F08182
:109BF0002DE9FE4F044620680290029D206805F082
:109C000014F900287DD1206805F04EF908B9BDE8A7
:109C1000FE8F206805F048F900F00200022805D107
:109C20002068406900F0020021684861206805F062
:109C30003BF900F01000102846D12068806920F020
:109C40001000216888610298D0F8209009F00F0078
:109C5000C0EBC00104F5FE7000EB810BC9F343407B
:109C600002281AD147F6F07009EA000030B3C9F3B0
:109C70000A12DBF80C10029805F01BF9C9F30A115F
:109C8000DBF80C000844CBF80C00C9F30A11DBF830
:109C900018000844CBF8180010E0C9F34340062828
:109CA0000CD1082204F57171029805F002F9C9F38C
:109CB0000A11DBF818000844CBF818002068806906
:109CC00040F0100021688861206805F0EDF800F48C
:109CD0000020B0F5002F52D10026206805F0B4F81E
:109CE000824649E00AF00100E8B3F1B2206805F0CD
:109CF000CEF8804608F0010058B1012105F530602A
:109D000000E043E200EB461081603146204602F05D
:109D1000BBF808F00800082809D1082105F53060D3
:109D200000EB461081603146204602F07BF808F0D7
:109D30001000102805D1102105F5306000EB461009
:109D4000816008F02000202805D1202105F5306031
:109D500000EB4610816008F40050B0F5005F08D1B8
:109D60004FF4005100E004E005F5306000EB4610D0
:109D70008160761C4FEA5A0ABAF1000FB2D120680E
:109D800005F092F800F48020B0F5802F7ED1206895
:109D900005F050F88246002683E00AF00100002812
:109DA0007CD0F1B2206805F059F8804608F0010037
:109DB000F0B306F00F0101208840019040F6340016
:109DC0004159019821EA000040F63401485101212F
:109DD00005F5106000EB461081602069012824D150
:109DE000C6EBC60104F13C0000EB8100C6EBC602E5
:109DF000C16804F13C0000EB820080680144C6EBBE
:109E0000C60204F13C0000EB8200C1606EB9C6EBF3
:109E1000C60104F13C0000EB8100406928B904F55B
:109E200071720121206804F049FDF1B2204600E082
:109E300001E0FFF754FD08F00800082805D10821CB
:109E400005F5106000EB4610816008F01000102846
:109E500005D1102105F5106000EB4610816008F077
:109E60004000402805D1402105F5106000EB461068
:109E7000816008F00200022805D1022105F510607A
:109E800000EB4610816008F0800001E00DE005E085
:109E9000802803D13146204602F0B4F8761C4FEA00
:109EA0005A0ABAF1000F7FF478AF206804F0FCFF83
:109EB00000F00040B0F1004F1CD140F604004059C2
:109EC00020F0010140F60400415194F8F403012808
:109ED00007D1002084F8F40300212046FFF794FC0A
:109EE00002E0204600F07EFA2068406900F0004061
:109EF00021684861206804F0D7FF00F40060B0F5E5
:109F0000006F0ED140F60800405900F0010010B17A
:109F1000204600F0D9FA2068406900F4006021680A
:109F20004861206804F0C0FF00F00060B0F1006FED
:109F300019D12068406900F000602168486194F8F8
:109F4000F40368B9012084F8F4032068406DC0F37D
:109F50008300C4F8F80301212046FFF755FC02E016
:109F6000204600F0B1FA206804F09EFF00F4805013
:109F7000B0F5805F7DD140F60400405920F001012A
:109F800040F6040041511021206804F023FF00270F
:109F90003EE04FF67F3105F5106000EB4710816021
:109FA00005F5106000EB4710006820F4001105F57E
:109FB000106000EB4710016005F5106000EB4710E2
:109FC000006840F0006105F5106000EB471001608B
:109FD0004FF67F3105F5306000EB4710816005F5E5
:109FE000306000EB4710006820F4001105F5306088
:109FF00000EB4710016005F5306000EB471000688A
:10A0000040F0006105F5306000EB471001607F1CF7
:10A010006068B842BDD840F61C00405940F00111BC
:10A0200040F61C004151206B70B1D5F8840840F017
:10A030000B01C5F8841840F64400405940F00B016C
:10A0400040F6440041510FE040F61400405942F2FE
:10A050002B01084340F614014851081F405940F0B5
:10A060000B014FF401604151D5F8000820F4FE6067
:10A0700000E00DE0C5F80008217C04F5717220684D
:10A0800004F01CFC2068406900F48050216848619D
:10A09000206804F009FF00F40050B0F5005F17D10C
:10A0A000206804F0DFF8206804F0ACFEE06001F006
:10A0B00021FA0090227B2068009904F045FF204699
:10A0C00000F078F92068406900F400502168486188
:10A0D000206804F0E9FE00F00800082808D12046B6
:10A0E00000F087F92068406900F0080021684861A5
:10A0F000206804F0D9FE00F48010B0F5801F0AD16A
:10A1000000263146204600F043F82068406900F4FC
:10A11000801021684861206804F0C6FE00F4001039
:10A12000B0F5001F0AD100263146204600F039F86C
:10A130002068406900F4001021684861206804F03C
:10A14000B3FE00F08040B0F1804F08D12046FFF709
:10A15000BFFB2068406900F08040216848612068AA
:10A1600004F0A2FE00F0040004280FD12068D0F80B
:10A17000049009F00400042802D12046FFF7CFFB29
:10A180002068406840EA09002168486000BF3EE559
:10A1900070B504460D462946D4F8000403F01AFCB5
:10A1A00070BD70B504460D462946D4F8000403F08E
:10A1B00014FC70BD70B58AB0044614B901200AB011
:10A1C00070BD266894F8BD0328B9002084F8BC034C
:10A1D000204600F0A9F8032084F8BD03F06B00F4DA
:10A1E000807008B900212161206804F073FA2822E8
:10A1F00004F110016846FEF798F894E80F0004F0A7
:10A2000045F820B1022084F8BD030120D7E70021E2
:10A21000206804F05FFE002531E00121C5EBC50296
:10A2200004F13C0000EB82004170C5EBC50104F174
:10A230003C0000F82150C5EBC50100EB8100C58052
:10A240000021C5EBC50204F13C0000EB8200C170A7
:10A25000C5EBC50204F13C0000EB82008160C5EB58
:10A26000C50204F13C0000EB8200C160C5EBC502F1
:10A2700004F13C0000EB82004161681CC5B26068DB
:10A28000A842CAD800252AE00021C5EBC50204F582
:10A29000FE7000EB82004170C5EBC50104F5FE7055
:10A2A00000F821500021C5EBC50200EB8200C1700F
:10A2B000C5EBC50204F5FE7000EB82008160C5EBC2
:10A2C000C50204F5FE7000EB8200C160C5EBC5025B
:10A2D00004F5FE7000EB82004161681CC5B2606845
:10A2E000A842D1D8282204F110016846FEF71DF8D3
:10A2F00094E80F0004F0F2F820B1022084F8BD03C6
:10A3000001205CE7002084F83800012084F8BD03B8
:10A31000606A012802D12046FFF762FA206804F043
:10A32000CDF800204BE7000010B586B0044614219C
:10A3300001A8FEF713F81C492068884232D100BFFB
:10A340001A48006840F00200184908600846006892
:10A3500000F00200009000BF00BF4FF440400190A9
:10A360000220029000200390032004900C2005900E
:10A3700001A90F48FEF76EFF00BF0C48006840F0CF
:10A3800000500A4908600846006800F0005000903C
:10A3900000BF00BF002205214D20FFF7CFF94D205F
:10A3A000FFF7BCF906B010BD000004403038024091
:10A3B0000004024070B504460125E06808B9002594
:10A3C00006E0E068022801D1012501E0FEF737FC34
:10A3D0002946D4F8000403F07CFBD4F8000403F011
:10A3E0002FFB70BD10B50446D4F8000403F055FBF4
:10A3F00010BD10B50446D4F8000403F059FB10BD9D
:10A4000070B504460D4600BF94F8BC03012801D185
:10A41000022070BD012084F8BC0300BF84F83850CE
:10A420002946206804F071FD00BF002084F8BC03B9
:10A4300000BF00BFEDE710B5044604F57171D4F814
:10A44000000403F05DFB10BD10B5044600BF94F896
:10A45000BC03012801D1022010BD012084F8BC03F7
:10A4600000BF206804F01AF8206804F095FC00BFD3
:10A47000002084F8BC0300BF00BFEDE710B5044620
:10A4800000BF94F8BC03012801D1022010BD0120B7
:10A4900084F8BC0300BF206804F01CF9206804F0B5
:10A4A000C7FD30B100BF002084F8BC0300BF01200D
:10A4B000ECE7206804F002F800BF002084F8BC0339
:10A4C00000BF00BFE2E7000010B50446D4F8000466
:10A4D00003F082FB2068D0F8000E40F001002168F4
:10A4E000C1F8000E206A28B10348006840F0060059
:10A4F0000149086010BD000010ED00E038B50024EF
:10A5000000BF2048006840F080501E49086008469F
:10A51000006800F08050009000BF00BF1A4800683B
:10A5200040F4803018490860FEF7A0FF044607E0B9
:10A53000FEF79CFF001BB0F57A7F01D9032038BDE0
:10A540001148406800F48030B0F5803FF0D10E48EB
:10A55000006840F400300C490860FEF787FF0446AD
:10A5600007E0FEF783FF001BB0F57A7F01D90320D7
:10A57000E5E70548406800F40030B0F5003FF0D151
:10A580000020DCE74038024000700040F8B5044687
:10A590000025FEF76BFF064694F8410000F002002C
:10A5A00000283ED000BF002084F8400000BF206893
:10A5B000006800F0040070B12068006820F004001A
:10A5C00021680860E06BFEF79AFC05461DB1606CDF
:10A5D00040F0040060642068006840F002002168D8
:10A5E0000860A06C3346012202210090204601F051
:10A5F000F7FE05465DB902202168C860A06C3346AD
:10A60000002220210090204601F0EAFE054645B9CF
:10A610002068406920F0406021684861012084F88A
:10A6200041002846F8BD2DE9F84304460E4615467C
:10A630009846FEF71BFF8146B06900B100BFF06984
:10A6400000B100BF306A00B100BF00BF94F8400005
:10A65000012802D10220BDE8F883012084F84000DF
:10A6600000BF94F8410001283AD1002060644220E4
:10A6700084F841004B46002220212046CDF800807E
:10A6800001F0AEFE074657BB2868216888626868FB
:10A6900021684862A8682168C8622068006820F4C0
:10A6A0004000296941F48001084321680860E86896
:10A6B000B0624FF000623146204601F02FFD4B465C
:10A6C000012208212046CDF8008001F089FE0746CE
:10A6D0002FB908202168C860012084F8410000E0FB
:10A6E000022700BF002084F8400000BF3846B2E7D0
:10A6F0002DE9F84304460D461746FEF7B7FE80469F
:10A70000A86900B100BFE86900B100BF286A00B1C4
:10A7100000BF00BF94F84000012802D10220BDE82C
:10A72000F883012084F8400000BF94F8410001281C
:10A7300028D100206064022084F8410043460022B2
:10A7400020212046009701F04BFE0646DEB900228C
:10A750002946204601F0E2FC686A78B943460122A6
:10A7600002212046009701F03BFE06465EB902201A
:10A770002168C860012084F8410004E0012084F8C9
:10A78000410000E0022600BF002084F8400000BF26
:10A790003046C4E7F8B50446FEF768FE06460CB935
:10A7A0000120F8BD206A402800D000BF94F8410085
:10A7B00050B9002084F84000204600F04BF841F2E8
:10A7C0008831204600F014F92068006820F4F85120
:10A7D000A068401E41EA002021680860A06C334652
:10A7E000002220210090204601F0FAFD054635BBED
:10A7F0002179E06840EA0160E1690843216A084381
:10A8000021680968114A1140084321680860208ABC
:10A81000616941EA0040A1690843216849680C4A1E
:10A8200011400843216848602068006840F001003A
:10A830002168086000206064012084F8410000BFA6
:10A84000002084F8400000BF2846AAE72FFFFF0041
:10A85000FEF8E0FF10B586B00446142101A8FDF70C
:10A860007DFD00BF2348006840F0020021490860D8
:10A870000846006800F00200009000BF00BF002002
:10A8800003900220029003200490042001900920EC
:10A89000059001A91848FEF7DDFC0A2005904FF449
:10A8A0008070019001A91548FEF7D4FC0A2005909C
:10A8B0004FF40070019001A91048FEF7CBFC09206D
:10A8C00005900420019001A90D48FEF7C3FC092062
:10A8D00005904020019001A90848FEF7BBFC4020EC
:10A8E00001900A20059001A90348FEF7B3FC06B0C9
:10A8F00010BD00003838024000040240001402403D
:10A90000001002402DE9F84F04460E461746002578
:10A91000FEF7ACFD80462068D0F81890206800F162
:10A92000200A00BF94F84000012802D10220BDE8AF
:10A93000F88F012084F8400000BF94F841000128FE
:10A940004ED100206064002E44D0222084F84100C3
:10A9500020680069401CA06320680069401C606397
:10A9600026632068406920F0406040F080602168E4
:10A9700048612068C0F8189013E043460122062180
:10A980002046009701F02CFD054605B10CE09AF831
:10A990000000216B0870206B401C2063A06B401EE0
:10A9A000A063A06B0028E8D100BF7DB94346012217
:10A9B00002212046009701F013FD054635B902201B
:10A9C0002168C8602046FFF7E1FD0546012084F8B4
:10A9D000410006E0606C40F008006064012500E082
:10A9E000022500BF002084F8400000BF28469EE7F3
:10A9F000816470472DE9F84304460E46174600254A
:10AA0000FEF734FD8046206800F1200900BF94F86D
:10AA10004000012802D10220BDE8F883012084F81B
:10AA2000400000BF94F84100012849D10020606433
:10AA3000002E3FD0122084F8410020680069401C9D
:10AA4000E06220680069401CA0626662206840697C
:10AA500020F040602168486113E043460122042150
:10AA60002046009701F0BCFC054605B10CE0606A89
:10AA7000007889F80000606A401C6062E06A401E4D
:10AA8000E062E06A0028E8D100BF7DB943460122B8
:10AA900002212046009701F0A3FC054635B90220AB
:10AAA0002168C8602046FFF771FD0546012084F843
:10AAB000410006E0606C40F008006064012500E0A1
:10AAC000022500BF002084F8400000BF2846A3E70D
:10AAD0002DE9F8430446002600250027A846A9468C
:10AAE000207800F0010088B100BFFE48006820F423
:10AAF0000000FC49086008460068616B0843F9499A
:10AB0000086000BF606B08B94FF00108206800F4CE
:10AB10000020B0F5002F13D1F2488430006820F4F3
:10AB20004010E16B0843EF4984310860E06BB0F5F9
:10AB3000801F01D14FF00108E06B08B94FF0010907
:10AB4000206800F48010B0F5801F13D1E5488430F0
:10AB5000006820F44000216C0843E2498431086019
:10AB6000206CB0F5800F01D14FF00108206C08B9BE
:10AB70004FF00109206800F08070B0F1807F01D1B2
:10AB80004FF00108207800F02000202870D100BF8D
:10AB9000D4483830006840F08050D24938310860DD
:10ABA0000846006800F08050009000BF00BFCE480B
:10ABB000006840F48070CC490860FEF757FC0646F8
:10ABC00007E0FEF753FC801B642802D90320BDE890
:10ABD000F883C548006800F480700028F1D0C148AF
:10ABE0006830006800F4407585B3208E00F4407032
:10ABF000A8422BD0BB486830006820F44075B948A3
:10AC00006830006840F48030B64968310860084612
:10AC1000006820F48030086008460560006800F095
:10AC2000010098B1FEF722FC064608E0FEF71EFC84
:10AC3000801B41F28831884201D90320C7E7A94827
:10AC400068300068C0F340000028EFD000BF208EBD
:10AC500000F44070B0F5407F0BD1A248006820F4AA
:10AC6000F810A24A216B114008439E49086006E093
:10AC700010E09C48006820F4F8109A490860994850
:10AC800068300068218EC1F30B0108439549683193
:10AC9000086000BF207800F01000102810D100BF1D
:10ACA00090488430006820F080708E4984310860BC
:10ACB00008460068A16B08438A498431086000BFD8
:10ACC000208800F48040B0F5804F09D18548883055
:10ACD000006820F44030616E084382498831086082
:10ACE000208800F40040B0F5004F09D17D4888303D
:10ACF000006820F44020A16E08437A49883108603A
:10AD0000206800F48030B0F5803F09D17548883064
:10AD1000006820F44010E16E0843724988310860F1
:10AD2000206800F40030B0F5003F09D16D4888304C
:10AD3000006820F44000216F08436A4988310860A8
:10AD4000207800F04000402809D16648883000682B
:10AD500020F00300616C0843624988310860207864
:10AD600000F08000802809D15E488830006820F01B
:10AD70000C00A16C08435B4988310860208800F40E
:10AD80008070B0F5807F09D156488830006820F087
:10AD90003000E16C0843534988310860208800F492
:10ADA0000070B0F5007F09D14E488830006820F06F
:10ADB000C000216D08434B4988310860208800F4A9
:10ADC0008060B0F5806F09D146488830006820F473
:10ADD0004070616D0843434988310860208800F461
:10ADE0000060B0F5006F09D13E488830006820F45B
:10ADF0004060A16D08433B4988310860208800F419
:10AE00008050B0F5805F09D136488830006820F462
:10AE10004050E16D0843334988310860208800F4D0
:10AE20000050B0F5005F09D12E488830006820F44A
:10AE30004040216E08432B4988310860206800F4A7
:10AE40008000B0F5800F09D126488830006820F0D6
:10AE50008060A16F0843234988310860206800F4AE
:10AE60000010B0F5001F0FD11E488830006820F098
:10AE70000060E16F08431B4988310860E06FB0F162
:10AE8000006F01D14FF00109207800F00800082878
:10AE900001D14FF00109206800F48020B0F5802F27
:10AEA00009D110488830006820F04070616F084375
:10AEB0000C4988310860206800F40000B0F5000FEC
:10AEC0000AD108488830006820F08050D4F88010FB
:10AED0000843044988310860B8F1010F0BD020689D
:10AEE00006E000000838024000700040FFFCFF0F41
:10AEF000B0F1007F7DD1AD48006820F08060AB49A3
:10AF00000860FEF7B3FA064606E0FEF7AFFA801BCC
:10AF1000642801D903205AE6A4480068C0F3C06041
:10AF20000028F2D1207800F00100B8B1606BA8B918
:10AF30009E4884300068C0F301459C488430006816
:10AF4000C0F303676068800140EA054040EA07619A
:10AF5000207A41EA0070954984310860206800F445
:10AF60000020B0F5002F03D1E06BB0F5801F09D0B1
:10AF7000206800F48010B0F5801F24D1206CB0F55B
:10AF8000800F20D1894884300068C0F3014587488C
:10AF900084300068C0F302776068800140EA0541B0
:10AFA000207B41EA006040EA0770804984310860F4
:10AFB0007E488C30006820F01F00616A491E0843FB
:10AFC0007A498C310860206800F08070B0F1807F91
:10AFD00017D1764884300068C0F303657348843025
:10AFE0000068C0F3027760688101208A41EA00406E
:10AFF00000E031E040EA056040EA07706B498431C7
:10B000000860206800F00070B0F1007F0DD160682A
:10B010008101208A41EA0041207B41EA0061207AD7
:10B0200041EA00706149843108606048006840F07E
:10B0300080605E490860FEF719FA064606E0FEF7F2
:10B0400015FA801B642801D90320C0E55748006821
:10B05000C0F3C0600028F2D0B9F1010F7ED153488F
:10B06000006820F0805051490860FEF7FFF906465D
:10B0700006E0FEF7FBF9801B642801D90320A6E552
:10B080004A480068C0F340700028F2D1206800F4FC
:10B090000020B0F5002F01D1E06B38B1206800F43A
:10B0A0008010B0F5801F22D1206C00BB3F48883053
:10B0B0000068C0F301453D4888300068C0F302775E
:10B0C0006069800140EA0541207E41EA006040EA73
:10B0D0000770364988310860081D006820F4F8516F
:10B0E000A06A401E41EA002030498C310860206887
:10B0F00000F40010B0F5001F19D1E06FB0F1006F3F
:10B1000015D12A4888300068C0F303652748883085
:10B110000068C0F3027760698101208C41EA004039
:10B1200040EA056040EA07702049883108602078CD
:10B1300000F00800082820D11C4888300068C0F3BF
:10B1400003651A4888300068C0F3014760698001D0
:10B1500040EA074040EA0561207F00E024E041EA40
:10B160000070124988310860081D006820F44030E2
:10B17000E16A08430D498C3108600C48006840F0D2
:10B1800080500A490860FEF771F9064606E0FEF7AE
:10B190006DF9801B642801D9032018E50348006875
:10B1A000C0F340700028F2D0002010E500380240C3
:10B1B00070B504460D4600260CB9012070BD5C48F0
:10B1C000006800F00F00A8420ED25948006820F035
:10B1D0000F002843564908600846006800F00F0039
:10B1E000A84201D00120E9E7207800F002000228FF
:10B1F0001DD1207800F00400042805D14D480068D6
:10B2000040F4E0504B490860207800F0080008281E
:10B2100005D14848006840F4604046490860454808
:10B22000006820F0F000A1680843424908602078D7
:10B2300000F0010090B36068012807D13D4808384C
:10B240000068C0F34040A0B90120B7E76068022859
:10B2500007D1384808380068C0F3406048B9012079
:10B26000ACE7344808380068C0F3400008B9012052
:10B27000A4E73048006820F00300616808432D49C6
:10B280000860FEF7F3F8064609E0FEF7EFF8801BCA
:10B2900041F28831884202D903208FE707E0254830
:10B2A000006800F00C006168B0EB810FEDD1204820
:10B2B000006800F00F00A8420ED91D48006820F079
:10B2C0000F0028431A4908600846006800F00F0084
:10B2D000A84201D0012071E7207800F00400042882
:10B2E00007D11448006820F4E050E1680843114990
:10B2F0000860207800F00800082808D10D48006890
:10B3000020F46040216940EAC1000A49086000F069
:10B31000F7F808490968C1F30311074A515CC840AE
:10B320000649086006480068FEF7D0F8002045E7A7
:10B33000003C024008380240701D010884000020D3
:10B340008C00002010B5FEF791F804465F480068B5
:10B3500040F001005D49086006E0FEF787F8001B39
:10B36000022801D9032010BD5848006800F00200EF
:10B370000028F2D05548006840F08000534908602A
:10B38000FEF774F80446002050490831086008E0D0
:10B39000FEF76CF8001B41F28831884201D9032086
:10B3A000E1E74A480830006800F00C000028EFD1BF
:10B3B000FEF75CF804464548006820F450204349F5
:10B3C000086006E0FEF752F8001B642801D903204C
:10B3D000C9E73E48006800F400300028F2D1FEF7CB
:10B3E00045F804463948006820F080703749086005
:10B3F00006E0FEF73BF8001B022801D90320B2E764
:10B400003248006800F000700028F2D1FEF72EF8F4
:10B4100004462E48006820F080602C49086006E051
:10B42000FEF724F8001B642801D903209BE7274876
:10B43000006800F000600028F2D1FEF717F804461B
:10B440002248006820F080502049086006E0FEF79E
:10B450000DF8001B642801D9032084E71B4800680D
:10B4600000F000500028F2D119481849091D086061
:10B4700017481038154984310860091D08601348C1
:10B480000C30006820F4FE4010490C31086008467A
:10B49000006840F47F0008600C487430006820F0B9
:10B4A00001000A49743108600846006840F0807065
:10B4B000086008480849086008480068FEF706F870
:10B4C00008B101204FE700204DE70000003802409E
:10B4D000103000240024F400840000208C000020A0
:10B4E0000348006840F400200149086070470000EC
:10B4F00000380240014800687047000084000020C6
:10B500002DE9F047002400250026A14625480068C3
:10B5100000F00C0020B1042805D008283AD105E03D
:10B52000DFF8849039E0DFF8849036E01D48001F92
:10B53000006800F03F041B48001F006800F4800012
:10B5400078B11A481749091F0968C1F38811A0FB8F
:10B5500001700146224600233846FCF7B5FE054639
:10B560000EE011480F49091F0968C1F38811A0FBBB
:10B5700001700146224600233846FCF7A5FE054629
:10B580000848001F0068C0F30140401C4600B5FB9E
:10B59000F6F902E0DFF8109000BF00BF4846BDE8B2
:10B5A000F0870000083802400024F40000366E01E5
:10B5B000F8B5044600270CB90120F8BD207800F04A
:10B5C0000100002871D0F948006800F00C00042840
:10B5D0000DD0F648006800F00C00082813D1F3489D
:10B5E000001F006800F48000B0F5800F0BD1EF4819
:10B5F00008380068C0F34040002869D0606800281F
:10B6000066D10120D9E700BF6068B0F5803F08D15E
:10B61000E6480838006840F48030E449083908609A
:10B620002EE0606868B9E1480838006820F480308E
:10B63000DE49083908600846006820F48020086068
:10B640001EE06068B0F5A02F0DD1D848083800681A
:10B6500040F48020D549083908600846006840F465
:10B66000803008600CE0D1480838006820F4803051
:10B67000CE49083908600846006820F48020086038
:10B6800000BF606890B1FDF7F1FE054606E0FDF7EA
:10B69000EDFE401B642801D903208EE7C34808381B
:10B6A0000068C0F340400028F1D011E0FDF7DEFE55
:10B6B000054606E0FDF7DAFE401B642801D90320A9
:10B6C0007BE7BA4808380068C0F340400028F1D151
:10B6D000207800F00200022869D1B448006800F028
:10B6E0000C0058B1B148006800F00C0008281CD1CB
:10B6F000AE48001F006800F48000B0B9AB480838BD
:10B700000068C0F3400020B1E068012801D00120AA
:10B7100053E7A6480838006820F0F800216940EA9D
:10B72000C100A2490839086041E0E06828B39F4899
:10B730000838006840F001009C4908390860FDF7AE
:10B7400095FE054606E0FDF791FE401B022801D953
:10B75000032032E7954808380068C0F3400000280D
:10B76000F1D092480838006820F0F800216940EADA
:10B77000C1008E490839086019E08C480838006813
:10B7800020F00100894908390860FDF76FFE054681
:10B7900006E0FDF76BFE401B022801D903200CE7F1
:10B7A000824808380068C0F340000028F1D12078B2
:10B7B00000F00800082836D16069D0B17B486C30B1
:10B7C000006840F0010079496C310860FDF74EFED9
:10B7D000054606E0FDF74AFE401B022801D903207A
:10B7E000EBE672486C300068C0F340000028F1D0EE
:10B7F00019E06E486C30006820F001006B496C3134
:10B800000860FDF733FE054606E0FDF72FFE401BFE
:10B81000022801D90320D0E664486C300068C0F3E8
:10B8200040000028F1D1207800F00400042874D1F1
:10B830005E483830006800F0805080B900BF5B4837
:10B840003830006840F08050584938310860084668
:10B85000006800F08050009000BF00BF01275448EE
:10B86000006800F48070B0B95148006840F48070FE
:10B870004F490860FDF7FAFD054606E0FDF7F6FDC5
:10B88000401B642801D9032097E64948006800F46A
:10B8900080700028F2D000BFA068012808D143487A
:10B8A0006830006840F001004049683108602DE0D0
:10B8B000A06868B93D486830006820F001003B4945
:10B8C000683108600846006820F0040008601DE048
:10B8D000A06805280DD135486830006840F00400A4
:10B8E0003249683108600846006840F0010008608D
:10B8F0000CE02E486830006820F001002B496831C8
:10B9000008600846006820F00400086000BFA068D6
:10B91000A8B1FDF7ABFD054609E02EE0FDF7A6FD59
:10B92000401B41F28831884201D9032045E61F4877
:10B9300068300068C0F340000028EFD013E0FDF746
:10B9400095FD054608E0FDF791FD401B41F2883169
:10B95000884201D9032030E6144868300068C0F3FB
:10B9600040000028EFD1012F07D11048383000687F
:10B9700020F080500D4938310860A069002852D06D
:10B980000A48006800F00C00082865D0A069022869
:10B990004AD106480838006820F080700349083909
:10B9A0000860FDF763FD05460BE000000838024023
:10B9B00000700040FDF75AFD401B022801D903200A
:10B9C000FBE53B480068C0F340600028F2D1E06925
:10B9D00040F00050216A0843616A40EA8111012267
:10B9E000A06AC2EB500041EA00412C20005D41EA10
:10B9F00000602F49091D0860081F006840F0807032
:10BA0000091F0860FDF732FD054606E0FDF72EFD33
:10BA1000401B022801D90320CFE525480068C0F368
:10BA200040600028F2D040E02148006820F080709B
:10BA30001F490860FDF71AFD054606E0FDF716FDF3
:10BA4000401B022801D90320B7E519480068C0F35C
:10BA500040600028F2D128E01548001D0668A06962
:10BA6000012820D006F48001E06981421BD106F054
:10BA70003F01206A814216D147F6C0703040616AAA
:10BA8000B0EB811F0FD106F440310122A06AC2EB56
:10BA90005000B1EB004F06D106F070612C20005D24
:10BAA000B1EB006F01D0012087E5002085E50000A3
:10BAB0000038024070B504462546681EB0F1807F0C
:10BAC00001D301200FE0681E4FF0E02148610F21F3
:10BAD0004FF0FF3003F012FB00204FF0E0218861AF
:10BAE00007200861002070BD70477047704710B58F
:10BAF00004460CB9012010BD94F83D0028B900207F
:10BB000084F83C00204600F00CF8022084F83D0048
:10BB1000211D206801F09CF8012084F83D000020E0
:10BB2000E9E77047704710B5044620680069C0F324
:10BB30004000D8B12068C068C0F34000B0B16FF0D9
:10BB4000020021680861012020772068806900F0E8
:10BB5000030018B12046FFF7E5FF05E0204600F09E
:10BB6000BEF8204600F0BCF800202077206800696D
:10BB7000C0F38000D8B12068C068C0F38000B0B1C5
:10BB80006FF0040021680861022020772068806936
:10BB900000F4407018B12046FFF7C4FF05E02046CE
:10BBA00000F09DF8204600F09BF8002020772068E8
:10BBB0000069C0F3C000D8B12068C068C0F3C000FD
:10BBC000B0B16FF008002168086104202077206878
:10BBD000C06900F0030018B12046FFF7A3FF05E09D
:10BBE000204600F07CF8204600F07AF8002020770C
:10BBF00020680069C0F30010D8B12068C068C0F3A5
:10BC00000010B0B16FF010002168086108202077A3
:10BC10002068C06900F4407018B12046FFF782FF29
:10BC200005E0204600F05BF8204600F059F80020BF
:10BC300020772068006900F0010058B12068C068D2
:10BC400000F0010030B16FF001002168086120466A
:10BC500000F047F820680069C0F3C01058B12068B0
:10BC6000C068C0F3C01030B16FF080002168086177
:10BC70002046FFF73AFF20680069C0F3002058B162
:10BC80002068C068C0F3C01030B16FF480702168C4
:10BC900008612046FFF728FF20680069C0F3801084
:10BCA00058B12068C068C0F3801030B16FF0400018
:10BCB00021680861204600F01BF820680069C0F385
:10BCC000401058B12068C068C0F3401030B16FF028
:10BCD0002000216808612046FFF708FF10BD70476B
:10BCE000704710B5044600BF00F092F800BF10BDC9
:10BCF000704760B514F0040F01D1EFF3088601D04E
:10BD0000EFF30986254600F0CFFB00BE60BD0000C2
:10BD10000A49096801F0010171B1084980390968CF
:10BD200001F0010141B100BF4FF0604109680029F5
:10BD3000FAD04FF06042107070470000800E00E0B3
:10BD400030B50B46002100BF16E00A24B4EB107F8B
:10BD500005D9302404EB107403F8114005E04124A8
:10BD600004EB10740A3C03F81140000100254C005C
:10BD7000641C1D554C1CE1B29142E6DB30BD00BF96
:10BD8000FEE7704700BF012003F0F4FFFBE700006F
:10BD9000012003F099FE08B903F07EFE00BF03F016
:10BDA000BBFE1648007830B10020144908701448D2
:10BDB0000068FCF759FB134800780028EFD000BF5B
:10BDC00000BF00BF00BF00BFBFF34F8F00BF00BF69
:10BDD00000BF0D48006800F4E0600C490843001DF6
:10BDE0000949086000BF00BF00BFBFF34F8F00BF0D
:10BDF00000BF00BF00BF00BFFDE700000000002043
:10BE000004000020010000200CED00E00000FA0515
:10BE10000020704710B50248FDF7EAFE10BD000093
:10BE2000EC0400202DE9F04704460D46266837460D
:10BE3000D6F8408007F5306000EB4510D0F8089048
:10BE4000104880450BD909F40040B0F5004F06D1E9
:10BE50004FF4004107F5306000EB4510816020464B
:10BE6000FEF7E9FA0748804508D92069012805D17D
:10BE700004F571720121206802F020FD0020BDE868
:10BE8000F08700000A30544F2DE9F04705460C4674
:10BE9000D5F800804646D8F8409006F5306000EBB3
:10BEA000441087682869012873D107F00800082822
:10BEB0000FD1524881450BD907F40040B0F5004F2F
:10BEC00006D14FF4004106F5306000EB441081606C
:10BED00091E007F02000202806D1202106F53060EF
:10BEE00000EB4410816086E007F0280000280ED1A6
:10BEF000424881450CD907F40040B0F5004F07D106
:10BF00004FF4004106F5306000EB4410816072E0B0
:10BF1000C4EBC40105F5FE7000EB8100816806F5F5
:10BF2000306000EB44100069C0F31200091AC4EB42
:10BF3000C40205F5FE7000EB82008161C4EBC40110
:10BF400005F5FE7000EB8100C4EBC402C16805F585
:10BF5000FE7000EB820080680144C4EBC40205F56A
:10BF6000FE7000EB8200C1606CB9C4EBC40105F542
:10BF7000FE7000EB8100406928B905F5717201215E
:10BF8000286802F09BFCE1B22846FDF7B8FC32E0DD
:10BF9000FFE71B4881451BD107F40040B0F5004F77
:10BFA00007D14FF4004106F5306000EB441081608A
:10BFB00021E007F02000202805D1202106F530607F
:10BFC00000EB44108160E1B22846FDF798FC12E0D6
:10BFD0006CB9C4EBC40105F5FE7000EB810040694B
:10BFE00028B905F571720021286802F067FCE1B2FA
:10BFF0002846FDF784FC0020BDE8F0870A30544F46
:10C000000A31544F2DE9F84F07460E46D7F80090F5
:10C01000C846C6EBC60107F13C0000EB8104D4E939
:10C020000510884202D90120BDE8F88FD4E9050146
:10C03000451AA068A84200D2A568E81C4FEA900AF9
:10C0400017E0D4E90501451AA068A84200D2A56806
:10C05000E81C4FEA900A387CABB2F2B20090484636
:10C06000E16803F013F8E0682844E060A069284420
:10C07000A06108F5106000EB4610806980B2504561
:10C0800006D3D4E90510884202D260690028D8D1CD
:10C09000D4E9050188420ED806F00F01012000FA0C
:10C0A00001FB40F6340050F8080020EA0B0040F68F
:10C0B000340141F808000020B6E7000010B594B044
:10C0C000044600200B904FF080700F9000200D90E0
:10C0D00005200690002011904FF480700C900020F5
:10C0E00013900E9012900090012003901020029067
:10C0F00001200190002004904FF480000590234619
:10C100006A4606A90448FEF78EFA10B1012014B061
:10C1100010BD0020FBE700004814002010B54B6A5A
:10C1200033B1B2F1406F03D08B6A5B1E04682361A8
:10C130008B69002B76D00B6AE3B38B680468E361EC
:10C14000CB69FBB1D1E90B3423434C6B23434C6ADD
:10C1500023438C8A43EA84430C6923430C6A2343B8
:10C16000CC682343CC6923438C6923430C68234365
:10C17000134304686361B2F1406F02D04B680468F6
:10C18000A361BEE0D1E90B3423434C6B23434C6ADB
:10C1900023438C8A43EA84430C6923430C6A234378
:10C1A000CC6923438C6923430C68234313430468FD
:10C1B0006361A6E0FFE7CB69EBB1D1E90B34234320
:10C1C0004C6B23434C6A23438C8A43EA84430C6AB6
:10C1D0002343CC682343CC6923438C6923430C68F5
:10C1E0002343134304686361B2F1406FC9D04B68C5
:10C1F0000468A36185E0D1E90B3423434C6B2343EE
:10C200004C6A23438C8A43EA84430C6A2343CC69F7
:10C2100023438C6923430C682343134304686361FD
:10C220006FE0FFE70B6AC3B38B680468E361CB6917
:10C23000EBB1D1E90B3423434C6B23434C6A2343CA
:10C240008C8A43EA84430C6923430C6A2343CC68F9
:10C250002343CC6923438C692343134304686361FC
:10C26000B2F1406F4DD04B680468A36149E0D1E959
:10C270000B3423434C6B23434C6A23438C8A43EA9D
:10C2800084430C6923430C6A2343CC6923438C69A0
:10C29000234313430468636133E0FFE7CB69DBB1F9
:10C2A000D1E90B3423434C6B23434C6A23438C8AE0
:10C2B00043EA84430C6A2343CC682343CC69234379
:10C2C0008C692343134304686361B2F1406F18D053
:10C2D0004B680468A36114E04B6A93B1D1E90B3455
:10C2E00023434C6B23434C6A23438C8A43EA8443A5
:10C2F0000C6A2343CC6923438C69234313430468AA
:10C30000636110BD00B58FB030200E9038216846B3
:10C31000FCF724F800F08AF810B101200FB000BD3E
:10C3200001200A904FF040700990002007900B9078
:10C33000C02000908000069000200D900C90089086
:10C3400041F2883269460C48FEF7D2F908B1012063
:10C35000E4E741F288320EA90748FEF74BFB08B12B
:10C360000120DBE741F28830FFF7A8FE08B1012089
:10C37000D4E70020D2E700004814002000B58FB0B9
:10C38000002006900A9066200190002008900C90F2
:10C390004FF48070079000200E9009900D9041F2AC
:10C3A000883201A90D48FEF7A3F910B101200FB0A2
:10C3B00000BD9920019041F2883201A90748FEF79B
:10C3C00097F908B10120F2E741F28830FFF776FED5
:10C3D00008B10120EBE70020E9E700004814002045
:10C3E0002DE9F04104460E4617469846069D12E098
:10C3F000681C80B1FDF73AF8A0EB0800A84200D80D
:10C400004DB9042084F84100606C40F00100606484
:10C410000120BDE8F08120688068304008B101202B
:10C4200000E00020B842E3D10020F2E700B595B06B
:10C4300000200C9010900620079000200E90129083
:10C440004FF480700D90002014900F90139041F2E3
:10C45000883207A91248FEF74BF910B1012015B038
:10C4600000BD012004901020039002200190029052
:10C47000002005904FF480000690012011900006E6
:10C4800010900520079041F2883301AA07A90448BB
:10C49000FEF7C9F808B10120E1E70020DFE700005E
:10C4A000481400207047000030B58DB004460D469A
:10C4B00020680C9060680B90A0680A90E068099072
:10C4C0002069089060690790A0690690E06905906E
:10C4D0007848006804907748001F0068039075480A
:10C4E00008300068029073480C3000680190714871
:10C4F00010300068009070A002F0E8FD75A002F016
:10C50000E5FD78A00C9902F0E1FD7BA00B9902F00B
:10C51000DDFD7EA00A9902F0D9FD81A0099902F003
:10C52000D5FD84A0089902F0D1FD87A0079902F0FB
:10C53000CDFD8AA0069902F0C9FD8DA0059902F0F3
:10C54000C5FD90A002F0C2FD92A0049902F0BEFDCC
:10C5500095A0039902F0BAFD98A0029902F0B6FDE9
:10C560009BA0019902F0B2FD9EA0009902F0AEFDE1
:10C57000A1A002F0ABFD2946A2A002F0A7FDA6A053
:10C5800002F0A4FDACA002F0A1FD049800F08040F0
:10C5900010B1AEA002F09AFD049800F0020010B1B4
:10C5A000B0A002F093FDB8A002F090FD039800F057
:10C5B000800018B1BBA002F089FD02E0C1A002F02A
:10C5C00085FD039800F0200010B1C74802F07EFD01
:10C5D000039800F0100010B1C4A002F077FD03989A
:10C5E00000F0080010B1CDA002F070FD039800F03B
:10C5F000020010B1D54802F069FD039800F0010077
:10C6000010B1D34802F062FDD2A002F05FFD0398A2
:10C6100000F4004018B1D4A002F058FD02E0DAA006
:10C6200002F054FD039800F4005010B1AE4802F03F
:10C630004DFD039800F4805010B1DCA002F046FDDF
:10C64000039800F4006010B1E2A002F03FFD0398EF
:10C6500000F4806010B1E94802F038FD039800F45E
:10C66000007010B1E64802F031FD039800F48070CC
:10C6700010B1E4A002F02AFDE9A002F027FD039822
:10C6800000F0007010B1EC4802F020FD039800F0BB
:10C69000807010B1E9A002F019FD039800F40020A9
:10C6A00010B1F4A002F012FD039800F4802000B154
:10C6B000F4E1F6E12CED00E00A21212148617264E9
:10C6C000204661756C7420646574656374656421CB
:10C6D00021210A000A537461636B206672616D65E3
:10C6E0003A0A00005230203A20202020202020202A
:10C6F0003078253038580A005231203A2020202046
:10C70000202020203078253038580A005232203A34
:10C7100020202020202020203078253038580A0082
:10C720005233203A2020202020202020307825302D
:10C7300038580A005231323A202020202020202070
:10C740003078253038580A004C52203A20202020DA
:10C75000202020203078253038580A005043203AD5
:10C7600020202020202020203078253038580A0032
:10C770005053523A2020202020202020307825308D
:10C7800038580A000A4661756C74207374617475B8
:10C79000733A0A00484653523A2020202020202095
:10C7A0003078253038580A00434653523A2020202A
:10C7B000202020203078253038580A004D4D415235
:10C7C0003A202020202020203078253038580A00B8
:10C7D000424641523A202020202020203078253027
:10C7E00038580A00414653523A2020202020202069
:10C7F0003078253038580A000A4F746865723A0A52
:10C80000000000004558435F52455455524E3A20AF
:10C810003078253038580A000A44657461696C73B1
:10C82000206F6620746865206661756C742073746F
:10C83000617475733A0A000048617264206661751C
:10C840006C74207374617475733A0A00202D20464D
:10C850006F726365642048617264206661756C74F0
:10C860002E0A0000202D20427573206661756C74BD
:10C87000206F6E20766563746F72207461626C65E0
:10C8800020726561642E0A004D656D4D616E6167B1
:10C8900065206661756C74207374617475733A0AEF
:10C8A00000000000202D204D4D415220686F6C6427
:10C8B0007320612076616C696420616464726573C1
:10C8C000732E0A00202D204D4D415220686F6C645C
:10C8D0007320616E20696E76616C696420616464A6
:10C8E000726573732E0A000098200108202D2053D2
:10C8F0007461636B696E672068617320636175732F
:10C90000656420616E206163636573732076696F6F
:10C910006C6174696F6E2E0A00000000202D205596
:10C920006E737461636B696E672068617320636105
:10C930007573656420616E2061636365737320762F
:10C94000696F6C6174696F6E2E0A000054200108D3
:10C9500024210108427573206661756C742073741C
:10C96000617475733A0A0000202D2042464152201E
:10C97000686F6C647320612076616C696420616407
:10C9800064726573732E0A00202D204246415220A6
:10C99000686F6C647320616E20696E76616C696487
:10C9A00020616464726573732E0A0000202D205389
:10C9B0007461636B696E672068617320636175736E
:10C9C0006564206120427573206661756C742E0A5F
:10C9D00000000000202D20556E737461636B696E3A
:10C9E000672068617320636175736564206120420C
:10C9F0007573206661756C742E0A0000D8210108D9
:10CA00006C210108202D20496E737472756374695E
:10CA10006F6E20627573206572726F722E0A00004D
:10CA20005573616765206661756C742073746174F9
:10CA300075733A0A00000000B81F0108202D205429
:10CA400068652070726F636573736F7220686173BD
:10CA5000206D61646520616E20756E616C69676E22
:10CA60006564206D656D6F727920616363657373B2
:10CA70002E0A0000202D20417474656D7074656469
:10CA800020746F20616363657373206120636F702E
:10CA9000726F636573736F722E0A000009A002F053
:10CAA00015FB039800F4003010B1144802F00EFB9F
:10CAB000039800F4003010B1114802F007FB00BEEB
:10CAC0000DB030BD202D20496C6C6567616C206114
:10CAD0007474656D707420746F206C6F6164206F66
:10CAE00066204558435F52455455524E20746F207E
:10CAF0007468652050432E0A0000000008200108D9
:10CB0000DC20010830B501460A461378521C14781F
:10CB100043EA042030BD10B5FCF7C0FC04F0B8FEB9
:10CB2000012801D004F01AFA10BD10B500F002F887
:10CB300010BD000000B5B3B0302127A8FBF70EFCF4
:10CB4000142122A8FBF70AFC842101A8FBF706FCAC
:10CB500000BF3448006840F0805032490860084601
:10CB6000006800F08050009000BF00BF00BF2E485A
:10CB7000006840F440402C4908600846006800F412
:10CB80004040009000BF00BF082127A8C1620C21CF
:10CB90000162C82141624FF48030289002202D901C
:10CBA000022127A881624905C1610120279027A899
:10CBB000FEF7FEFC08B1FCF742F8FDF79FFC08B158
:10CBC000FCF73DF84FF4A05025904FF4805026908C
:10CBD00000202490022023900F202290062122A8DA
:10CBE000FEF7E6FA08B1FCF72AF801200B900221C3
:10CBF00008910791C020069000200C900321099114
:10CC00004FF000602090002021904FF008600190CC
:10CC100001A8FDF75DFF08B1FCF711F8FEF760FC15
:10CC200033B000BD40380240007000400348006847
:10CC300040F47000014908607047000088ED00E092
:10CC400010B50248FEF76FFF10BD000064560020CB
:10CC500010B50268294B98420ED0B0F1804F0BD02E
:10CC6000274B984208D0274B984205D0264B984234
:10CC700002D0264B984203D122F070024B681A432F
:10CC80001E4B984220D0B0F1804F1DD01C4B9842D3
:10CC90001AD01C4B984217D01B4B984214D01B4BF8
:10CCA000984211D01A4B98420ED01A4B98420BD092
:10CCB000194B984208D0194B984205D0184B98420E
:10CCC00002D0184B984203D122F44072CB681A4329
:10CCD00022F080034C6943EA040202608B68C3625D
:10CCE0000B688362054B984202D0084B984201D1F1
:10CCF0000B6903630123436110BD00000000014084
:10CD00000004004000080040000C00400004014006
:10CD1000004001400044014000480140001800402C
:10CD2000001C0040002000402DE9F04104460D4663
:10CD3000D4F8C472D4F8BC0210B90320BDE8F08165
:10CD4000D4F8BC6205EB850104F1140000EB81000E
:10CD5000406808B305EB850104F1140000EB810085
:10CD6000C5EBC502416807F13C0000EB820080681A
:10CD7000B1FBF0F200FB121070B9002105EB850247
:10CD800004F1140000EB8200416000231A4629469A
:10CD9000204600F02BFF0BE00020C6F81402D6F866
:10CDA0000802D4F8C0122A460B6906F504719847A8
:10CDB0000020C3E770B504460E46D4F8BC52D4F840
:10CDC000BC0208B9032070BD3146204600F0A1FD29
:10CDD000C5F80C02D5F80402D4F8C012CA6805F5EB
:10CDE000037190470020EEE770B504460E4600251B
:10CDF0008121204600F0ABFC002121870121204643
:10CE000000F0A5FC0021A4F878118221204600F052
:10CE10009EFC0021A4F84C10A4F84E10D4F8BC02DB
:10CE200050B1D4F8C01248688047D4F8BC0202F070
:10CE300005FF0020C4F8BC02284670BD70B5054649
:10CE4000D5F8BC42D5F8C00278B194F80002FF28AA
:10CE50000BD094F8012294F80002D5F8C0128B6828
:10CE600021469847FF2084F80002002070BD000092
:10CE700001460A200880014870470000FC0000209D
:10CE800001464320088001487047000088010020C7
:10CE900001464320088001487047000044010020FB
:10CEA000014643200880014870470000CC01002063
:10CEB00070B504460E464FF4077002F025FF054694
:10CEC00025B90020C4F8BC02022070BDC4F8BC52D1
:10CED000207CA0B94FF4007302228121204600F08B
:10CEE0007FFD012121874B020222204600F078FDC0
:10CEF0000121A4F878111021A4F84E1012E040236B
:10CF000002228121204600F06BFD01212187402370
:10CF10000222204600F064FD0121A4F878111021BE
:10CF2000A4F84E10082303228221204600F058FD69
:10CF30000121A4F84C10D4F8C012086880470020E2
:10CF4000C5F81402C5F81802207C40B94FF40073EC
:10CF500001212046D5F8042200F05AFD06E04023C6
:10CF600001212046D5F8042200F052FD0020ACE754
:10CF700070B50446D4F8BC52D4F8BC0208B90320FA
:10CF800070BD207C40B94FF4007301212046D5F8D4
:10CF9000042200F03DFD06E0402301212046D5F8A3
:10CFA000042200F035FD0020EAE7024609B903201B
:10CFB0007047C2F8C0120020FAE70246D2F8BC322D
:10CFC000C3F804120020704710B50346D3F8BC42E2
:10CFD000C4F80812C4F81022002010BD2DE9FC414D
:10CFE00005460C46D5F8BC62002001900090002751
:10CFF000207800F0600040B3202862D1E088E0B1E2
:10D00000207800F0800060B1E2886078D5F8C01226
:10D010008B6831469847E2883146284600F0EBF8A5
:10D0200012E0607886F80002A07986F80102E288B2
:10D030003146284600F0BEF806E06078D5F8C01208
:10D0400000228B682146984741E0607830B1012882
:10D050002ED00A2812D00B282BD11FE095F89C0265
:10D06000032805D102226946284600F0C4F804E0EE
:10D070002146284600F092F8032720E095F89C020C
:10D08000032805D1012201A9284600F0B4F804E0E4
:10D090002146284600F082F8032710E095F89C020C
:10D0A000032804D02146284600F078F8032706E03C
:10D0B00005E02146284600F071F8032700BF00BFB5
:10D0C00005E02146284600F069F8032700BF00BFAD
:10D0D0003846BDE8FC8170B50546D5F8BC4201264E
:10D0E000D5F8BC0208B9032070BDD4F8140270B999
:10D0F0000120C4F81402D4F81012E96281212846F4
:10D10000D4F81032D4F8082200F070FD0026304622
:10D11000EAE770B504460D46D4F8B80228B1D4F851
:10D12000B8022946426820469047002070BD70B57D
:10D1300004460D4694F89C02012804D0022803D02E
:10D1400003280CD101E000BF00BF6888012805D189
:10D150000020C4F8A402204600F05EF804E029464E
:10D16000204600F01BF800BF00BF70BD70B506463A
:10D170000C4615462B4622460021304600F048FC5E
:10D18000002070BD70B506460C4615462B4622465B
:10D190000021304600F02AFD002070BD70B5044625
:10D1A0000D468021204600F0E6FC0021204600F0DC
:10D1B000E2FC70BD70B504460E4615460320C4F867
:10D1C00094024FF4AC700551001D05512B463246B8
:10D1D0000021204600F01CFC002070BD10B5044664
:10D1E0000520C4F8940200231A461946204600F090
:10D1F0000FFC002010BD70B504460E4615460220F7
:10D20000C4F89402A561E5612B4632460021204610
:10D2100000F0ECFC002070BD10B504460420C4F8FA
:10D22000940200231A461946204600F0DFFC002035
:10D2300010BD70B504460D46E888012804D0294683
:10D240002046FFF7ABFF1EE094F89C02012804D0B3
:10D25000022803D0032810D109E000BF0020A060FD
:10D26000012204F108012046FFF7C5FF0AE0012270
:10D27000211D2046FFF7BFFF04E029462046FFF7A7
:10D280008DFF00BF00BF70BDF8B504460E460020FC
:10D2900000900027002570880012062874D006DC54
:10D2A00001281BD0022821D003286ED132E00728A4
:10D2B0006CD00F28F9D1D4F8B402C06938B1207C01
:10D2C000D4F8B412CA6969469047074605E031466A
:10D2D0002046FFF763FF681CC5B2D8E0207CD4F875
:10D2E000B4120A68694690470746D0E0207C40B9EE
:10D2F000D4F8B802816A68468847074602207870E9
:10D3000007E0D4F8B802C16A684688470746022099
:10D310007870BCE0B07806287AD2DFE800F0031617
:10D32000293F5265D4F8B402406838B1207CD4F863
:10D33000B4124A6869469047074605E031462046E0
:10D34000FFF72CFF681CC5B276E0D4F8B402806801
:10D3500038B1207CD4F8B4128A68694690470746F1
:10D3600005E031462046FFF719FF681CC5B263E0AF
:10D37000D4F8B402C06850B1207CD4F8B412CA68A2
:10D3800069469047074608E058E079E066E0314694
:10D390002046FFF703FF681CC5B24DE0D4F8B40285
:10D3A000006938B1207CD4F8B4120A696946904704
:10D3B000074605E031462046FFF7F0FE681CC5B27F
:10D3C0003AE0D4F8B402406938B1207CD4F8B41201
:10D3D0004A6969469047074605E031462046FFF70F
:10D3E000DDFE681CC5B227E0D4F8B402806940B104
:10D3F000207CD4F8B4128A6969469047074606E053
:10D4000006E031462046FFF7C9FE681CC5B213E0AE
:10D41000D4F8B802806B40B1B178D4F8B8026A464B
:10D42000836B20469847074605E031462046FFF7C4
:10D43000B5FE681CC5B200BF00BF28E0207C30B933
:10D44000D4F8B802416B68468847074605E0314684
:10D450002046FFF7A3FE681CC5B218E0207C40B947
:10D46000D4F8B802016B68468847074607207870F1
:10D4700005E031462046FFF791FE681CC5B206E084
:10D4800031462046FFF78AFE681CC5B200BF00BFC8
:10D4900005B1F8BDF088C0B1BDF8000080B1F088DA
:10D4A000BDF80010884202DDBDF8000000E0F08801
:10D4B0000090BDF8002039462046FFF79CFE07E0AB
:10D4C00031462046FFF76AFE02E02046FFF7A4FE41
:10D4D00000BFDEE7014600200A4602E0431CD8B246
:10D4E000521C1378002BF9D1704770B504460D46D5
:10D4F00094F89C02012804D0022803D003281AD1F2
:10D5000001E000BF00BFE888022804D02946204679
:10D51000FFF744FE14E00120E060D4F8A40218B143
:10D52000E06840F00200E060022204F10C012046B5
:10D53000FFF761FE04E029462046FFF72FFE00BFFB
:10D5400000BF70BD2DE9F04107460D46904600240E
:10D550000FB9BDE8F0813E463046FFF7BBFF022120
:10D5600001EB4000A8F8000098F800002855601C66
:10D57000C4B203202855601CC4B208E03078285596
:10D58000761C601CC4B200202855601CC4B23078E0
:10D590000028F3D100BFDCE70146002031B10129AA
:10D5A00006D0022906D0032908D105E0002007E0B3
:10D5B000032005E0012003E0032001E0032000BF79
:10D5C00000BF704770B505460C462DB92246064986
:10D5D00006A0FFF7B7FF04E02246034903A0FFF7C8
:10D5E000B1FF014870BD0000F00800204344432013
:10D5F000436F6E666967000002461220088001488A
:10D60000704700003000002070B505460C462DB96B
:10D610002246064906A0FFF795FF04E0224603498B
:10D6200003A0FFF78FFF014870BD0000F008002045
:10D6300043444320496E746572666163650000006F
:10D640000246042008800148704700005000002076
:10D6500070B505460C462246024903A0FFF772FF4B
:10D66000004870BDF008002053544D6963726F6527
:10D670006C656374726F6E696373000070B5054604
:10D680000C462DB92246064906A0FFF75BFF04E0D1
:10D690002246034903A0FFF755FF014870BD000073
:10D6A000F008002053544D3332205669727475616E
:10D6B0006C20436F6D506F727400000070B50546AA
:10D6C0000C461A202080FBF751FB014870BD00007A
:10D6D0005400002002460C200880014870470000DA
:10D6E000440000202DE9F04104460D46164614B9C9
:10D6F0000320BDE8F081D4F8B80210B10020C4F8CE
:10D70000B802D4F8CC0210B10020C4F8CC020DB19C
:10D71000C4F8B452012084F89C022670204600F020
:10D7200001F907463846E4E72DE9F04104460D4685
:10D73000002600272946D4F8C402FCF72CF9064637
:10D740003046FFF729FF07463846BDE8F0812DE94E
:10D75000F04104460D46002600272946D4F8C402AD
:10D76000FCF7E4F806463046FFF716FF0746384652
:10D77000BDE8F0812DE9F04104460F469046002FA8
:10D7800054D104F11405D4F89402022843D1D5E908
:10D79000020188420FD9D5E90201401AA86041462A
:10D7A0002046AA68FFF7EEFC00231A4619462046D9
:10D7B00000F02EF92FE0D5E90210884217D1E96870
:10D7C0006868884213D36868D4F8981288420ED2E9
:10D7D000002211462046FFF7D5FC0020C4F898022D
:10D7E00000231A461946204600F012F913E0D4F837
:10D7F000B802C06840B194F89C02032804D1D4F860
:10D80000B802C168204688478021204600F0B3F95D
:10D810002046FFF7E3FC94F8A00201281BD1204624
:10D8200000F02AFA002084F8A00214E0D4F8B8022C
:10D83000406970B194F89C0203280AD1D4F8B80268
:10D840003946426920469047064626B13046BDE833
:10D85000F0810320FBE70020F9E72DE9F0410546C0
:10D860000F4690465FBB05F5AA74D5F894020328CD
:10D870003AD1D4E90201884210D9D4E90201401A10
:10D88000A060D4E90201884201D2A06800E0E0680B
:10D89000024641462846FFF769FC25E0D5F8B80264
:10D8A000006940B195F89C02032804D1D5F8B8026C
:10D8B0000169284688472846FFF7AEFC14E0D5F8F2
:10D8C000B802806970B195F89C0203280AD1D5F896
:10D8D000B8023946826928469047064626B1304646
:10D8E000BDE8F0810320FBE70020F9E701460020B6
:10D8F000704710B50446012084F89C02D4F8B802A1
:10D9000028B12179D4F8B802426820469047002017
:10D9100010BD70B504460D462946D4F8C402FCF784
:10D9200078F870BD10B50446207801282FD1194829
:10D93000C0F80044C4F8C40217481649086008201B
:10D94000486002211348C160012101610221816107
:10D950000021C16101624162012181620021C16235
:10D9600001634163FCF726FC08B1FBF768F94FF44B
:10D9700000710848FBF780FF802200210548FBF773
:10D9800080FF4FF4BA7201210248FBF77AFF0020B2
:10D9900010BD0000EC0400200000044010B5024659
:10D9A000D2F8C43201F08000802809D101F07F0054
:10D9B000C0EBC00403F13C0000EB8400807810BD94
:10D9C00001F07F00C0EBC00403F5FE7000EB8400A3
:10D9D0008078F4E702460020704702460020704736
:10D9E0002DE9F04704460F4615461E464FF0000845
:10D9F000C1462B4632463946D4F8C402FCF714F827
:10DA000080464046FFF7C8FD81464846BDE8F0879E
:10DA10002DE9F04704460D4616461F464FF0000814
:10DA2000C1463B4632462946D4F8C402FCF742F8C8
:10DA300080464046FFF7B0FD81464846BDE8F08786
:10DA400010B50446012084F89C020020C4F894021A
:10DA50006060C4F8A402D4F8BC0228B12179D4F8DB
:10DA6000B8024268204690474023002211462046D3
:10DA7000FFF7B6FF01214FF4B27001534021001FA0
:10DA800001514023002280212046FFF7A9FF0121F8
:10DA9000A18440212162002010BD014691F89C0222
:10DAA000042803D191F89D0281F89C020020704760
:10DAB00010B5044694F89C02032808D1D4F8B802A3
:10DAC000C06920B1D4F8B802C16920468847002057
:10DAD00010BD02461174002070472DE9F041044644
