:020000040800F2
:1000000070500020A1020008FF1D0008D71600084C
:10001000FD1D000809050008F11E00080000000091
:10002000000000000000000000000000DD010008EA
:100030000B05000800000000390200080B1E000834
:10004000BB020008BB020008BB020008BB0200089C
:10005000BB020008011E0008BB020008BB0200082A
:10006000BB020008BB020008BB020008BB0200087C
:10007000BB020008BB020008BB020008BB0200086C
:10008000BB020008BB020008BB020008BB0200085C
:10009000BB020008BB020008BB020008BB0200084C
:1000A000BB020008BB020008BB020008BB0200083C
:1000B000BB020008BB020008BB020008BB0200082C
:1000C000BB020008BB020008BB020008BB0200081C
:1000D000BB020008BB020008BB020008BB0200080C
:1000E000BB020008BB020008BB020008BB020008FC
:1000F000BB020008BB020008BB020008BB020008EC
:10010000BB020008BB020008BB020008BB020008DB
:10011000BB020008BB020008BB020008BB020008CB
:10012000BB020008BB020008BB020008BB020008BB
:10013000BB020008BB020008BB020008BB020008AB
:10014000BB020008BB020008BB020008BB0200089B
:10015000BB020008BB020008BB020008BB0200088B
:10016000BB020008BB020008BB020008BB0200087B
:10017000BB020008BB020008BB020008BB0200086B
:10018000BB020008BB020008BB020008BB0200085B
:10019000BB020008BB020008BB020008BB0200084B
:1001A000BB020008BB020008BB020008BB0200083B
:1001B000BB020008BB020008BB020008BB0200082B
:1001C000BB020008BB020008DFF80CD000F0EEF81C
:1001D00000480047351F0008705000202D4B19685B
:1001E0000868B0E8F04F80F30988BFF36F8F4FF0D5
:1001F000000080F311887047000000000848006884
:10020000006880F308884FF0000080F3148862B61D
:1002100061B6BFF34F8FBFF36F8F00DF00BF00BF2A
:1002200008ED00E0DFF80C00016841F470010160A6
:10023000704700BF88ED00E0EFF30980BFF36F8FD8
:10024000144B1A681EF0100F08BF20ED108A20E929
:10025000F04F106009B44FF0500072B680F311886F
:10026000BFF34F8FBFF36F8F62B602F043FA4FF0C8
:10027000000080F3118809BC19680868B0E8F04FE5
:100280001EF0100F08BFB0EC108A80F30988BFF38E
:100290006F8F704714000020EFF305807047000057
:1002A0000648804706480047FEE7FEE7FEE7FEE710
:1002B000FEE7FEE7FEE7FEE7FEE7FEE7D51E0008E5
:1002C000C90100082DE9F05F0546002092469B46D3
:1002D00088460646814640241BE02846414647465C
:1002E000224600F053F853465A46C01A914110D3A3
:1002F00011461846224600F03AF82D1A67EB01081D
:100300004F4622460120002100F031F817EB00098A
:100310004E41201EA4F10104DFDC484631462A4646
:100320004346BDE8F09F40EA01039B0703D009E084
:1003300008C9121F08C0042AFAD203E011F8013BD1
:1003400000F8013B521EF9D27047D2B201E000F82A
:10035000012B491EFBD270470022F6E710B5134669
:100360000A4604461946FFF7F0FF204610BD202A32
:1003700004DB203A00FA02F1002070479140C2F1FC
:10038000200320FA03F3194390407047202A04DB2E
:10039000203A21FA02F00021704721FA02F3D040FE
:1003A000C2F120029140084319467047064C074DA0
:1003B00006E0E06840F0010394E807009847103435
:1003C000AC42F6D3FFF704FFE42A0008042B000830
:1003D0004A496FF0706210B5D1F8043323F440330A
:1003E000C1F80433D1F8043344682343C1F804331B
:1003F00001684B6823F480734B60016803694C68A3
:1004000044EA03234B6001684B6823F040734B6060
:10041000016884684B6823434B6001688B6823F450
:1004200000638B600168C4688B6823438B60816ABA
:10043000D14201688A6822F070628A6001680DD03A
:10044000836A8A681A438A6001688A6822F0405287
:100450008A600168C36A8A681A4302E08A6822F0E7
:1004600040528A6001688A6822F002028A6001684C
:1004700082698B6843EA42028A6090F82010002962
:10048000016811D01E4A4B6843F400634B60016859
:100490004B6823F460434B600168446A4B6802EB8D
:1004A000443213434B6003E04A6822F400624A601E
:1004B0000168144BCA6A22F47002CA620168848B14
:1004C000CA6A03EB04531A43CA6201688A6822F4B9
:1004D00000728A60016890F830208B6843EA4222FB
:1004E0008A6001688A6822F480628A6001684069D3
:1004F0008A6842EA8020886010BD00000020014028
:1005000000E0FFFF0000F0FFFEE77047F8B50025B0
:10051000009590F83C20012A1DD0012280F83C2053
:10052000604C0723D6070A68092A22D9B24220D094
:1005300007680A3A02EB420CFA6803FA0CF39A4392
:10054000FA600A68A24208D102680B7AD76847EAC3
:100550000363D36022E00220F8BD07680A3A8B6883
:1005600002EB4202D7F80CC0934043EA0C03FB6055
:1005700014E0076802EB4202D7F810C093402CEA5F
:10058000030CC7F810C003680F788A68D3F810C04E
:1005900007EB4707BA4042EA0C021A614A681F2378
:1005A000072A16D20768521E02EB820C7A6B03FAF6
:1005B0000CF39A437A6302680F790B887F1ED2F896
:1005C00034C09BB207EB8707BB4043EA0C0353637D
:1005D0002DE007680D2A15D2D21F02EB820C3A6B70
:1005E00003FA0CF39A433A6302680F790B88FF1FF2
:1005F000D2F830C09BB207EB8707BB4043EA0C033D
:10060000136314E00D3A02EB820CFA6A03FA0CF35E
:100610009A43FA6202680F790B880D3FD2F82CC01A
:100620009BB207EB8707BB4043EA0C03D3621E4A29
:100630000368934208D10B68B34205D1D2F8043362
:1006400023F44003C2F804330368934208D10B68D3
:10065000122B05D1D2F8043343F48003C2F80433DB
:10066000036893421AD10B68A34201D0112B15D114
:10067000D2F8043343F40003C2F804330968A142FA
:100680000CD10A490A4A0968B1FBF2F101EB810178
:10069000490000E0491E00910029FBD180F83C5040
:1006A0000020F8BD120000100020014010000020C2
:1006B00040420F0070B504004FF0000503D0206CDD
:1006C000002610B107E0012070BD204600F01CF8A4
:1006D000666484F83C60206CC00610D4206C20F462
:1006E000885040F0020020642046FFF771FE6664E7
:1006F000206C20F0020040F00100206400E00125A1
:1007000084F83C60284670BDF0B587B004461421DB
:100710006846FFF721FE174A002326680825164F72
:10072000143A144903241548BE4207D10E6846F412
:1007300080760E60096801F4807109E0104FBE42B6
:1007400015D10E6846F480660E60096801F4806178
:100750000591116841F0010111601168009501F0E7
:1007600001010591CDE90143694600F083F807B026
:10077000F0BD00004438024000200140000002406B
:1007800000220140F0B50126044600201E2301E0AE
:100790005B1E05D303F01F0706FA07F50D42F7D0DD
:1007A00072B1082A0AD0102A05D0182A01D1072BC5
:1007B00006D30120F0BD082BFBD201E0102BF8D2AC
:1007C0002368596121688B6823F0180313438B60F9
:1007D000F0BD000010B5040010D0607F20B90020EB
:1007E0002077204600F032F821790220607739B175
:1007F000D4E902122046FFF7C5FF48B1012010BD21
:100800002168114848612068816821F018018160E1
:100810006079A0B1216820690861012220686369BC
:10082000816821F06001194381602068A3698168B3
:1008300021F08001194381606277002010BD21689A
:100840004FF0FF30E8E70000B71DC10408B50068AD
:100850000649884208D10648016841F48051016088
:10086000006800F48050009008BD00000030024095
:10087000303802402DE9F84F00224FF001094FF0C7
:10088000030A4FF00F0E00BF0B6809FA02F4234071
:10089000A34270D14D68012D05D0022D03D0112D3A
:1008A00001D0122D11D185685700CE680AFA07FCD5
:1008B00025EA0C05BE402E43866045680E79A543A7
:1008C000C6F3001696402E434660C56856008F68F2
:1008D0000AFA06F4A543B7402F43C7604D68022DBE
:1008E00001D0122D12D1D5080F694FEA427C00EBDE
:1008F0008505AB462D6A4FEADC6C0EFA0CF807FA58
:100900000CF725EA08052F43CBF820700D7907680E
:1009100005F00305A743B5403D4305604C68E4007E
:1009200074D53D4C256845F480452560246822F047
:100930000307960704F480440094384C360F27448C
:10094000D7F80848DFF8D8C00EFA06F5604524EA63
:10095000050401D100252EE0324DA84201D1012528
:1009600029E0314DA84201D1022524E02F4DA842B3
:1009700002D103251FE049E02D4DA84201D10425F5
:1009800019E02C4DA84201D1052514E02A4DA842BA
:1009900001D106250FE0294DA84201D107250AE023
:1009A000274DA84201D1082505E0264DA84201D1D6
:1009B000092500E00A25B540234E2543C7F808580D
:1009C0004D683468ED0324EA030400D51C431E4D32
:1009D00034602D1D4E682C68B60324EA030400D54C
:1009E0001C43194E2C6008364D683468ED0224EA29
:1009F000030400D51C43144D34600C354E682C683C
:100A0000B60224EA030400D51C432C60521C102AB1
:100A1000FFF43AAFBDE8F88F44380240003001409F
:100A2000000002400004024000080240000C0240A6
:100A3000001002400014024000180240001C024056
:100A40000020024000240240003C01400AB18161C4
:100A500070470904FBE70000014880687047000008
:100A600004000020024881680278114481607047C8
:100A700004000020032010B500F076F8002000F0FC
:100A800005F800F023F8002010BD000070B50D4DF2
:100A900004464FF47A700C4A29781268B0FBF1F0E2
:100AA000B2FBF0F000F004FE48B9102C07D200228F
:100AB0002146501E00F038F800206C6070BD012007
:100AC00070BD000004000020100000200E4808B592
:100AD000016841F080510160006800F08050009092
:100AE0000948001D016841F480410160006800224E
:100AF000114600F480400090052000F015F8BDE894
:100B00000840052000F002B840380240002809DB08
:100B1000410900F01F028900012001F1E02190400D
:100B2000C1F80001704700000E4BF0B41B680D4681
:100B3000C3F30223C3F10706042E00D90426191DAE
:100B4000072901D2002300E0DB1E012404FA06F18C
:100B50009C40491E2940641E994014402143F0BC2A
:100B600001F0C7B90CED00E0064900F0070210B52E
:100B70004FF6FF040868044B204040EA0220184367
:100B8000086010BD0CED00E00000FA051848F8B54B
:100B9000016841F0805101600068164C00F08050FF
:100BA0000090206840F480302060FFF755FF4FF43C
:100BB0007A76054605E000BFFFF74EFF401BB042C6
:100BC0000FD86068C003F7D5206840F4003020607B
:100BD000FFF742FF054606E0FFF73EFF401BB0422D
:100BE00001D90320F8BD60688003F5D50020F8BD69
:100BF00040380240007000400248016841F48071B2
:100C000001607047007000402DE9F84F04460078FD
:100C1000DFF824944FF000063746C0070ED0D9F80D
:100C2000001021F40001C9F80010D9F80010626B1F
:100C30001143C9F80010606B00B90126FE4D206811
:100C4000843500030ED5E16B286820F4401008437A
:100C50002860E06BB0F5801F01D010B102E00126E2
:100C600000E0012720684FF4800BC0020CD5216CF6
:100C7000286820F4400008432860206C584501D1C2
:100C8000012601E000B901272068C10100D5012635
:100C9000800666D5E8483830016841F0805101602F
:100CA0000068DFF898A300F080500090DAF8001098
:100CB00041F48071CAF80010FFF7CEFE804605E0CF
:100CC000FFF7CAFEA0EB080064287DD8DAF8000020
:100CD000C005F5D5DFF8608308F16808D8F8000092
:100CE00010F440702AD0218E01F44071814225D049
:100CF000D8F80010D8F8002021F4407142F4803276
:100D0000C8F80020D8F8002022F48032C8F800206B
:100D1000C8F80010D8F80000C0070FD0FFF79CFEFD
:100D2000824607E0FFF798FEA0EB0A0141F2883007
:100D30008142CAD8D8F800008007F3D5206BC0F3F1
:100D4000012103297ED0D9F8001021F4F811C9F847
:100D50000010228ED8F80010C2F30B021143C8F81D
:100D600000102078C00607D5286820F08070286021
:100D70002868A16B084328602188AF48883049045F
:100D800005D5626E016821F440311143016021886C
:100D9000090405D5A26E016821F4402111430160C8
:100DA0002168C90305D5E26E016821F440111143A1
:100DB00001602168890305D5226F016821F4400193
:100DC00011430160217800E018E1490605D5626C05
:100DD000016821F00301114301602178090605D55E
:100DE000A26C016821F00C01114301602188C90542
:100DF00005D5E26C016821F03001114301602188C2
:100E0000890505D5226D016821F0C00111430160FB
:100E10002188490505D5626D016821F440711143AF
:100E200001602188090505D5A26D016821F44061A2
:100E3000114301602188C90407D5E26D016821F4DE
:100E4000405100E041E0114301602188890405D54B
:100E5000226E016821F4404111430160216849027A
:100E600005D5A26F016821F08061114301602168FE
:100E70004FF0006A890209D5E26F016821F0006134
:100E800011430160E16F514500D1012721680A0734
:100E900000D50127490305D5626F016821F0407133
:100EA000114301602168090206D5D4F88020016849
:100EB00021F0805111430160DFF88491012E0ED0A2
:100EC0002068B0F1007F0AD08FE05E4AD9F8003088
:100ED000104023F4F8120243C9F8002039E7D9F88A
:100EE00000004E4620F08060C9F80000FFF7B4FD16
:100EF000804605E0FFF7B0FDA0EB080064287DD830
:100F000030680001F6D421784B487C30C90712D0F4
:100F1000616B81B9237A62680168D0F800C09201E0
:100F2000C1F3014142EA0142CCF3036142EA0161AB
:100F300041EA0371016021680A0303D5E26BB2F54F
:100F4000801F04D0C9021AD5216C594517D1636896
:100F5000016894F80CC002689B01C1F3014143EAA7
:100F60000141C2F3027241EA0C6141EA027101607F
:100F70002968626A21F01F01521E1143296021680D
:100F8000C90110D5238A62680168D0F800C09201B7
:100F9000C1F3036142EA034242EA0162CCF3027107
:100FA00042EA01710160216889010CD56168228AD9
:100FB000237B94F808C0890141EA024141EA0361B8
:100FC00041EA0C7101603168B04641F080613160E6
:100FD000FFF742FD064604E0FFF73EFD801B642854
:100FE0000CD8D8F800000001F6D56FB3D9F800008E
:100FF0004E4620F08050C9F8000000E079E0FFF78D
:101000002BFD074605E000BFFFF726FDC01B642847
:101010006FD83068C0438000F6D50748216880301B
:101020000A0301D5E26B1AB1C90225D5216C19BB9F
:1010300063690168277E08E00838024000700040BC
:1010400000380240FFFCFF0F5AE00268C1F3014183
:101050009B0143EA0143C2F3027143EA076242EA99
:101060000171016029686FF0FF03A26A21F4F85151
:1010700003EB0222114329602168890212D5E16F36
:1010800051450FD1238C6269016807689201C1F351
:10109000036142EA034242EA0162C7F3027142EA93
:1010A000017101602178090716D561690268D0F8DD
:1010B00000C08B01277FC2F30362CCF3014143EAF6
:1010C000014141EA026141EA077101602868E16A71
:1010D00020F4403008432860306840F08050306091
:1010E000FFF7BAFC044607E0FFF7B6FC001B6428D4
:1010F00002D90320BDE8F88F3068C0438000F3D4E4
:101100000020F7E72DE9F04705000F4663D0444E75
:10111000306800F00F00B84209D2306820F00F00AC
:1011200038433060306800F00F00B84253D128686F
:101130003C4C810712D5400703D5206840F4E050AD
:1011400020602878000703D5206840F460402060C4
:10115000A968206820F0F000084320602878C007C4
:101160002AD0304968680839012810D00968022857
:1011700010D0890700292EDA216821F003010143EC
:101180002160FFF769FC804641F288390DE009686B
:101190008903EFE78901EDE7FFF75EFCA0EB0801AB
:1011A000494502D90320BDE8F0876868216801F04D
:1011B0000C01B1EB800FEFD1306800F00F00B842A6
:1011C0000BD9306820F00F0038433060306800F0F1
:1011D0000F00B84201D00120E5E72878400705D587
:1011E000E968206820F4E050084320602878000770
:1011F00006D52869216821F4604141EAC0002060D9
:1012000000F018F82168084AC1F30311515CC84086
:101210000649086006480068FFF738FC0020C2E76E
:10122000003C024008380240C82A00081000002094
:1012300008000020154910B51548096811F00C0286
:1012400013D01449042A0FD0082A0ED10F4C241FA2
:101250002268236802F03F025B0207D52068C0F3D2
:101260008810A0FB010106E0084610BD2168C1F30B
:101270008811A1FB00010023FFF724F82168C1F3C6
:101280000141491C4900B0FBF1F010BD0838024093
:101290000024F40000366E01F0B50D461F49204CC5
:1012A000002887B016464FF000004FF002020F688A
:1012B0004FF0030319D047F004070F60096801F0ED
:1012C0000401059111020091CDE90120CDE903301F
:1012D00014486946FFF7CEFA206845EAC60120F0B7
:1012E00078400843206007B0F0BD47F001070F6069
:1012F000096801F0010105914FF480710091CDE979
:101300000120CDE9033008486946FFF7B3FA2068A9
:10131000354320F0EC602843E4E700003038024019
:101320000838024000080240000002402DE9F84F52
:1013300004004FF000076ED02078DFF868A3AAF110
:101340000408C007A8F104054CD0DAF80010504694
:10135000C1F38101012908D00068C0F3810002288F
:101360000AD1D8F80000400206D52868800339D594
:1013700060680028DFD035E06068B0F5803F0BD0B2
:1013800010B1B0F5A02F11D0286820F4803028606B
:10139000286820F4802002E0286840F4803028602B
:1013A000606890B1FFF758FB06460AE0286840F4F1
:1013B00080202860F0E700BFFFF74EFB801B642809
:1013C00072D828688003F7D50CE0FFF745FB064686
:1013D00005E000BFFFF740FB801B6428F0D82868B9
:1013E0008003F7D42078800742D5DAF80010504601
:1013F00011F00C0F08D00068C0F3810002280BD157
:10140000D8F80000400207D42868800718D5E068A3
:10141000012800D114E041E1E0680028286817D0D5
:1014200040F001002860FFF717FB064605E000BF0B
:10143000FFF712FB801B0228C2D828688007F7D567
:101440002069296821F0F80141EAC00028600FE016
:1014500020F001002860FFF7FFFA064605E000BF14
:10146000FFF7FAFA801B02281ED828688007F7D4F5
:101470002078000729D58B4861696C3000298146A6
:10148000016812D041F001010160FFF7E5FA06465C
:1014900005E000BFFFF7E0FA801B022804D8D9F866
:1014A00000008007F6D510E089E021F0010101601D
:1014B000FFF7D2FA064604E0FFF7CEFA801B0228B7
:1014C0007DD8D9F800008007F6D4207840076BD586
:1014D000DFF8D09109F13809D9F80000C0000BD429
:1014E000D9F8001041F08051C9F80010D9F8000077
:1014F000012700F0805000906B480168C90512D4A4
:101500000168834641F480710160FFF7A5FA064641
:1015100005E000BFFFF7A0FA801B64284FD8DBF876
:101520000000C005F6D55F4EA068683601280AD0D5
:1015300008B1052811D0306820F001003060306813
:1015400020F0040002E0306840F001003060A06844
:10155000A0B1FFF781FA83460CE0306840F0040048
:101560003060F0E7FFF778FAA0EB0B0141F288302A
:10157000814266D830688007F4D50EE0FFF76CFA38
:10158000834607E0FFF768FAA0EB0B0141F28830D1
:10159000814256D830688007F4D42FB1D9F80010B2
:1015A00021F08051C9F80010A069C8B3DAF8001022
:1015B000C1F3810102294BD00228286800E040E0F5
:1015C00020F08070286003D0FFF746FA04463BE025
:1015D000FFF742FA064604E0FFF73EFA801B0228B6
:1015E0002FD828688001F7D4D4E90962D4E907012B
:1015F0002E4B570894F82C20084303EB074343EA8B
:101600008611084340EA026040F00050C8F800002C
:10161000286840F080702860FFF71EFA044606E054
:101620003EE000BFFFF718FA001B022809D828681F
:101630008001F7D534E000BFFFF70EFA001B022847
:1016400002D90320BDE8F88F28688001F4D427E090
:101650000128D8F8000021D0E16900F480028A4214
:101660001CD1216A00F03F028A4217D1626A47F614
:10167000C0710140B1EB821F10D1A16A4FF0FF325F
:1016800000F4403302EB5101B3EB014F06D194F863
:101690002C1000F07060B0EB016F01D00120D1E799
:1016A0000020CFE708380240007000400000FFFF34
:1016B000401EB0F1807F10B501D3012010BD4FF066
:1016C000E02460610F21601700F013FC0020A0618E
:1016D0000721216110BDFEE77FB513480024114B9F
:1016E0004FF40032009401250194029403940360A6
:1016F000C0E90124046184610C4980F82040C0E9FC
:101700000A14C561C46080F830404561FEF7D2FF1D
:1017100003206946CDE9000503480294FEF7F6FE72
:101720007FBD000000200140740000200100000F78
:101730007FB513480024114B4FF40032009401256B
:101740000194029403940360C0E90124046184615C
:101750000C4980F82040C0E90A14C561C46080F8D3
:1017600030404561FEF7A6FF03206946CDE900053C
:1017700003480294FEF7CAFE7FBD0000002201402C
:10178000BC0000200100000F2DE9F04F87B01421AC
:101790006846FEF7E1FDFE48016841F01001016076
:1017A000016801F010010591016841F040010160FC
:1017B000016801F040010591016841F002010160FA
:1017C000016801F002010591016841F00801016022
:1017D000016801F008010591016841F00401016010
:1017E000016801F004010591016841F00101016007
:1017F000016801F001010591016841F40071016087
:10180000016801F400710591016841F48071016083
:10181000016801F480710591016841F48061016003
:10182000016801F480610591016841F020010160C7
:10183000016801F020010591016841F0800101601B
:10184000006800224FF4004100F080000590D1486C
:10185000FFF7FCF8D04800224FF48C51FFF7F6F860
:10186000CE48002242F20801FFF7F0F8CC480022EF
:101870000321FFF7EBF8CB4800228021FFF7E6F8C1
:10188000C94800224421FFF7E1F8C84800224FF47C
:101890008061FFF7DBF8C64800224FF40461FFF7D0
:1018A000D5F8C44800220221FFF7D0F802264FF6EF
:1018B000BB7002AA4FF00C0800246946CDE900066F
:1018C0000325BD4882E83001FEF7D4FF09204FF020
:1018D0000409CDF800906946CDE90350B648CDE93A
:1018E0000164FEF7C7FF4FF4E0400294CDE9000623
:1018F00008206946CDE90350AA48FEF7BBFF01273F
:101900006946E80100901220CDE90107A948CDE918
:101910000359FEF7AFFF30200294CDE90006052001
:101920006946CDE90350A348FEF7A4FF02AA4FF68B
:10193000F370CDE90006A148694682E83001FEF760
:1019400099FF4FF4E850694602AACDE90006934892
:1019500082E83001FEF78EFFB0030090CDE90174FC
:101960008C4869460394FEF785FF40200294CDE938
:1019700000060D206946CDE903508F48FEF77AFF37
:10198000092069464FF4007ACDF800A0CDE9035054
:101990008848CDE90164FEF76DFF40200294CDE94F
:1019A00000060A206946CDE903508248FEF762FF2F
:1019B00002AA48F23F10CDE900067A48694682E85B
:1019C0003001FEF757FFB0024FF00B0B02AA694639
:1019D000CDE90006734882E83008FEF74BFF4FF26E
:1019E000BB500294CDE900060E206946CDE90350B4
:1019F0006D48FEF73FFF4FF4F0500294CDE900062A
:101A000007206946CDE903506248FEF733FF4FF4E3
:101A10008C500090CDE901745F4869460394FEF74D
:101A200029FF70200294CDE900060D206946CDE91A
:101A300003505948FEF71EFFFC200294CDE9000632
:101A40000E206946CDE903505548FEF713FF70029A
:101A50000294CDE900060D206946CDE903505148B6
:101A6000FEF708FF08200294CDE90006052069462C
:101A7000CDE903505148FEF7FDFE0520CDF800806A
:101A80006946CDE903504448CDE90164FEF7F2FE12
:101A900042F208000090CDE9017440486946039481
:101AA000FEF7E8FE02AA4FF63F00CDE900063F48E8
:101AB000694682E83001FEF7DDFE4EF203400294F3
:101AC000CDE900060E206946CDE903503248FEF705
:101AD000D1FE3B486946CDF800A0CDE9010431486C
:101AE000FEF7C8FE02AA3548694682E83001CDE912
:101AF0000096FEF7BFFE4FF422400294CDE90006A7
:101B00000E206946CDE903502948FEF7B3FE0920AF
:101B1000CDF800A06946CDE903501F48CDE9016426
:101B2000FEF7A8FE4FF4A8400294CDE900060D2070
:101B30006946CDE903501E48FEF79CFEB002694697
:101B4000CDE9000414480294FEF794FE009569461E
:101B5000CDE9017412480394FEF78CFECDF800A085
:101B60006946CDE901640D4803940494FEF782FEB2
:101B7000F001009012206946CDE901070548CDE942
:101B80000359FEF777FE4FF42060CDE9000419E019
:101B900030380240000002400020024000080240AD
:101BA00000280240001802400024024000140240B5
:101BB000001C02400004024000100240000C0240E1
:101BC00000001110864869460294FEF753FE082073
:101BD0004FF0800ACDF800A06946CDE90350814856
:101BE000CDE90164FEF746FE3020009012206946E0
:101BF000CDE901077C48CDE90359FEF73BFE4020C3
:101C00000294CDE900060D206946CDE903507548E0
:101C1000FEF730FECDF800806946CDE903587248E2
:101C2000CDE90164FEF726FECDF800A06946CDE9B6
:101C300001746E480394FEF71DFE40200294CDE926
:101C400000060E206946CDE903506848FEF712FEF3
:101C5000CDF800A06946CDE901646548CDE90345AA
:101C6000FEF708FE40200294CDE9000609206946EF
:101C7000CDE903505E48FEF7FDFD44200090CDE91C
:101C80000174574869460394FEF7F4FD280369463A
:101C900002AACDE90006574882E83008FEF7EAFDBF
:101CA00070020090CDE90174514869460394FEF733
:101CB000E1FD28020294CDE900060A206946CDE93B
:101CC00003504B48FEF7D6FD02AA4648694682E813
:101CD0003001CDE90076FEF7CDFD3220694602AA3B
:101CE000CDE900063F4882E83008FEF7C3FD3D48D5
:101CF0006946CDE900940294FEF7BCFD0920CDF8B9
:101D000000906946CDE903503A48CDE90164FEF7F9
:101D1000B1FD8620694602AACDE90006364882E870
:101D20003008FEF7A7FD50200294CDE900060D20F3
:101D30006946CDE903503048FEF79CFD2A486946C4
:101D4000CDE900A40294FEF795FD4FF404600090E5
:101D5000CDE90174244869460394FEF78BFD052004
:101D600002942021CDE90016CDE9035022486946AE
:101D7000FEF780FDA8020294CDE90006072069461F
:101D8000CDE903501B48FEF775FD12206946F201AC
:101D9000CDF81090CDE90275CDE900201248FEF78C
:101DA00069FD00966946CDE9017412480394FEF777
:101DB00061FD00976946CDE901640E48CDE9034510
:101DC000FEF758FDA9030B4802AACDE900166946A3
:101DD00082E83001FEF74EFD07B0BDE8F08F00004D
:101DE0000024024000080240001C0240001802408B
:101DF000001402400004024000000240FEE7704769
:101E00007047012000F0CBF8FBE710B5FEF72AFE83
:101E100000F074FD012803D0BDE8104000F0FABCCA
:101E200010BD000070B5B4B0302121A8FEF794FABF
:101E300014212DA8FEF790FA84216846FEF78CFA4B
:101E4000FEF7DAFE2148016841F080510160006828
:101E500000F0805032901E48016841F4404101601A
:101E600000680224012500F440403290E0030C2277
:101E70008101D8230826CDE9274129A9CDE92150A0
:101E800021A881E85C00FFF751FAFEF77FFE2FAE34
:101E90000021E3024FF4A05286E80E000F20CDE9A6
:101EA0002D0407212DA8FFF72DF9200604943221D7
:101EB0008DE81300684609950394FEF7A5FE6206B7
:101EC00001201101FFF7E8F934B070BD403802403D
:101ED0000070004005484FF000610368034A43F476
:101EE00070030360803A11607047000088ED00E0E5
:101EF000FEE7090700284FEA116104DB00F1E0204A
:101F000080F80014704700F00F0000F1E02080F826
:101F1000141D704702E008C8121F08C1002AFAD138
:101F200070477047002001E001C1121F002AFBD159
:101F30007047000088B0FEF79DFDFFF773FFFFF7C5
:101F400023FCFFF7F5FBFFF7C7FB0E4800210C4B06
:101F50000122036001714171416102628161FEF7FA
:101F600039FC09491C226846FEF7DDF90021684664
:101F700000F021F80549086000F018F8FEE70000BD
:101F80000030024004010020AC2A000800000020BC
:101F9000842801464FF0000000D0C81C704710B5DF
:101FA00000B9012000F03EFB002010BD10B500F08C
:101FB00061FB002010BD7FB50D4641690446B0F9B4
:101FC000080081B1A16971B1FFF7E2FFD4E9051200
:101FD0002B468DE807002269D4E9001000F05FFC71
:101FE000039004B070BDFFF7D3FF03A92B46CDE9E2
:101FF0000001228AD4E9001092B200F023FC0128EB
:1020000001D00020EDE70398EBE700002DE9F04157
:10201000184C0F46054666692068001D00F032FA2C
:1020200038B922680121A06992F82C209140884398
:10203000A061681C07D137B12168BDE8F0410E48A6
:10204000091D00F065BA20683544B5424560216835
:1020500005D2A068091DBDE8F04100F041BA6068F2
:10206000091D00F03DFA206B854200D22563BDE8D2
:10207000F081000014000020580400202DE9F041F8
:10208000054600F051FA2E4C2E4F2069401C20616D
:10209000206810B1E06940B32DE025602069012877
:1020A00029D1002606EB860007EB800000F00AFA33
:1020B000761C072EF6D323488C3000F003FA214813
:1020C000A03000F0FFF91F48B43000F0FBF91D48C4
:1020D000C83000F0F7F91B48DC3000F0F3F919487C
:1020E0008C3060601430A06005E0E86A2168C96A3D
:1020F000814200D825600120E16A491CE162E96A59
:10210000A26988401043A06101EB8100291D07EB03
:10211000800000F0FDF900F02BFAE06900280CD0F7
:102120002068E96AC06A884207D207494FF08050A8
:102130000860BFF34F8FBFF36F8FBDE8F0810000E1
:10214000140000207C03002004ED00E010B50446DC
:1021500090F8510068B101280ED0022811D050200B
:1021600072B680F31188BFF34F8FBFF36F8F62B6E3
:10217000FEE7206B00F012FA2046BDE8104000F0A8
:102180000DBA10BD11484FF4705110B5420706D07A
:102190000E49C01D20F00700411AC1F570510C4CCA
:1021A000002301440839A4F1100221F00701C4E919
:1021B00000030C1A11604B600B60C0E900149460BE
:1021C0004FF000415460D16010BD00006C0400204D
:1021D00060000020144E4FF08058144CDFF85090EF
:1021E000A6F1C80712E000BF00F09EF9F068C568CC
:1021F000281D00F047F92069401E2061E068401E5C
:10220000E06000F0B5F92846FFF7A0FFE06800287D
:10221000EAD138680128F9D9C9F80080BFF34F8F97
:10222000BFF36F8FF2E70000440400201400002089
:1022300004ED00E02DE9F0479A4681466FF0030374
:10224000DDE9098403EB8202089E206B104420F034
:102250000707780709D0502072B680F31188BFF3C2
:102260004F8FBFF36F8F62B6FEE74FF0000561B18D
:10227000002023180A5C83F834200A5C12B1401C49
:102280001028F6D384F8435001E084F83450072E28
:1022900000D30626E662201DC4E9116500F01DF991
:1022A00004F1180000F019F9E564C6F10700A06117
:1022B00084F850505246246149463846646200F022
:1022C000C9F8B8F1000F206001D0C8F80040BDE89F
:1022D000F087000030B5114900E011460A688242DB
:1022E000FBD34B685C18844203D1446808462344FE
:1022F0004B6043681D18954209D1084C103C246876
:10230000A24209D052681A4442600A681268026008
:10231000814200D0086030BD0460F9E76000002011
:1023200006484168096829B14168C968C9684968AF
:10233000016370474FF0FF31FAE7000014000020FE
:102340000A484068401C4FF0500072B680F3118874
:1023500005D0BFF34F8FBFF36F8F62B6FEE7BFF3B9
:102360004F8FBFF36F8F62B6FEE70000680000205A
:102370002DE9F0410027044600F0B4F9344E3068EE
:1023800008B9FFF7FFFEF06804424FD1E4B3083408
:10239000600710D004F00700C0F108000444600793
:1023A00009D0502072B680F31188BFF34F8FBFF36E
:1023B0006F8F62B6FEE73CB37068844236D824481B
:1023C000103001460D6801E028460D466968A142BB
:1023D00002D229680029F7D131688D4226D00768DA
:1023E0002968016008376868011B102911D928196C
:1023F00042070AD0502072B680F31188BFF34F8F86
:10240000BFF36F8F62B6FEE710E041606C60FFF7CC
:1024100061FF69687068401A7060B268904200D2CB
:10242000B0600020F2681143C5E9000100F0DAFA5B
:10243000780709D0502072B680F31188BFF34F8F10
:10244000BFF36F8F62B6FEE73846BDE8F08100004B
:102450005000002070B5041F094E231F4FF08075F7
:1024600021F0010125601C1F1960A0F120010B1F44
:10247000266044380A606FF002051D6070BD0000E0
:1024800041230008D0E9013201699A60D0E90123B3
:102490005A604A68824201D182684A600022026121
:1024A0000868401E086008687047000010B5044CBA
:1024B0008023046004F154000860136010BD000024
:1024C000280100204FF0FF3300F108010022C0E98D
:1024D00001130260C1600161704700210161704712
:1024E00030B50B685A1C02D000F1080202E0026904
:1024F00004E02246546825689D42FAD953684B602F
:1025000099608A60516008610168491C016030BDB2
:1025100042684A6093688B60936859609160086173
:102520000168491C01607047502072B680F3118821
:10253000BFF34F8FBFF36F8F0B4962B64868401CE3
:10254000486001280ED10948006810F0FF0F09D03B
:10255000502072B680F31188BFF34F8FBFF36F8F97
:1025600062B6FEE7704700006800002004ED00E05E
:102570000949486828B1401E486001D180F311889C
:102580007047502072B680F31188BFF34F8FBFF3AE
:102590006F8F62B6FEE700006800002070B500286B
:1025A0002BD0164DA0F108046068E968084209D1F3
:1025B000502072B680F31188BFF34F8FBFF36F8F37
:1025C00062B6FEE722684AB1502072B680F31188E5
:1025D000BFF34F8FBFF36F8F62B6FEE78843606033
:1025E00000F080F860686968084468602046FFF77A
:1025F00071FEBDE8704000F0F5B970BD50000020DC
:102600004FF0E020002101614FF47A7281610723CD
:1026100003490968B1FBF2F1491E4161036170474A
:1026200010000020020010B516D01048806B48B191
:10263000502072B680F31188BFF34F8FBFF36F8FB6
:1026400062B6FEE700F04EF800211046FFF7DEFC10
:1026500000F0C8F9002807D105494FF08050086004
:10266000BFF34F8FBFF36F8F10BD00001400002029
:1026700004ED00E010B586B0002405AA04A9039477
:1026800003A80494FFF712FFDDE90301009400237F
:10269000CDE9011011480FA1059A00F000F9104989
:1026A0000028486313D0502072B680F31188BFF31E
:1026B0004F8FBFF36F8F62B601224FF0FF30086378
:1026C000CA614C6106B0BDE8104000F043B806B0E6
:1026D00010BD000049444C4500000000D521000811
:1026E000140000200248816B491C81637047000080
:1026F000140000201548816B11B10121416270471F
:102700000021416212498269B2FA82F2C2F11F02CB
:1027100002EB820251F822306BB101EB820101F130
:1027200008034A6852684A609A4201D152684A6076
:10273000D16801607047502072B680F31188BFF3F2
:102740004F8FBFF36F8F62B6FEE7000014000020CA
:102750007C0300202B49FF201CB50A7801920870E9
:1027600008788DF800009DF800209DF8000002F028
:10277000F002824209D0502072B680F31188BFF374
:102780004F8FBFF36F8F62B6FEE79DF800200720E2
:102790001D4C02F050022270A06005E09DF8002060
:1027A00052008DF80020401E9DF800201206F5D43E
:1027B0000328A06009D0502072B680F31188BFF3BF
:1027C0004F8FBFF36F8F62B6FEE74FF44070A0608B
:1027D000019808700D48016841F4700101600168BA
:1027E00041F070410160FFF70BFF00206060FDF7D2
:1027F00019FD0748016841F040410160FDF7FEFC0A
:1028000000201CBD00E400E06800002020ED00E096
:1028100034EF00E0502010B572B680F31188BFF39A
:102820004F8FBFF36F8F62B600F076F818B104498E
:102830004FF080500860002080F3118810BD000028
:1028400004ED00E02DE9FF5F994616468A4683466F
:102850009000DDE90E87FFF78BFD05001CD05420AA
:10286000FFF786FD040014D00020256384F8510092
:102870004B46CDE90087CDE90240324651465846E5
:10288000FFF7D8FC2046FFF7F9FB012004B0BDE8B4
:10289000F09F2846FFF782FE4FF0FF30F6E7F0B5D5
:1028A00085B0DDE90B740A9DA7B1ECB1542627630E
:1028B000022684F85160002703970DF1100C009553
:1028C000CDE901C4FFF7B6FC2046FFF7D7FB04981B
:1028D00005B0F0BD502072B680F31188BFF34F8F62
:1028E000BFF36F8F62B6FEE7502072B680F3118897
:1028F000BFF34F8FBFF36F8F62B6FEE70548C16924
:1029000019B1806B18B10020704701207047022078
:1029100070470000140000202DE9F0412F4CA06BFF
:10292000002740B1206A401C2062606A00B1012784
:102930003846BDE8F0816669761C666115D160682D
:10294000006848B1502072B680F31188BFF34F8FF2
:10295000BFF36F8F62B6FEE76068A1686160A06038
:10296000A06A401CA062FFF7DBFCDFF87480206BDC
:10297000864209D36068006880B16068C068C56835
:10298000686886420DD220632068C06A00EB80012F
:1029900058F821000128C8D90127C6E74FF0FF30B9
:1029A000F1E7281DFFF76EFDA86A18B105F11800C0
:1029B000FFF768FDE86A0121A26981401143A16126
:1029C00000EB800108EB8100291DFFF7A1FD2068C5
:1029D000E96AC06A8142CDD30127CBE71400002009
:1029E0007C0300202DE9F0472D4DA86B00242646DE
:1029F00038B1FFF799FDA86B401EA863A86B50B1D2
:102A000049E0502072B680F31188BFF34F8FBFF3B7
:102A10006F8F62B6FEE7234F01202969D9B3A7F172
:102A2000B40980463868E8B1F868C46804F1180051
:102A3000FFF728FD201DFFF725FDE16AAA6908FAC6
:102A400001F01043A86101EB810109EB8100211D18
:102A5000FFF75EFD2968E06AC96A8842E2D3C5F8DB
:102A60002480DFE70CB1FFF75BFC2C6A44B14746DA
:102A7000FFF752FF00B16F62641EF9D10020286297
:102A8000686A40B1084901264FF080500860BFF3E2
:102A90004F8FBFF36F8FFFF76BFD3046BDE8F087B8
:102AA000140000203004002004ED00E0D82A0008C3
:102AB000031E00080000000000000000800000006D
:102AC0000000000000000000000000000000000006
:102AD000010203040607080964656661756C745495
:102AE00061736B00042B00080000002074000000DC
:102AF000141F0008782B000874000020FC4F000011
:102B0000241F000800000000010000001000000069
:102B1000000000000024F40000000000000000009D
:102B200000000000000000000000000000000000A5
:102B30000000000000000000000000000000000095
:102B40000000000000000000000000000000000085
:102B50000000000000000000000000000000000075
:102B60000000000000000000000000000000000065
:082B7000AAAAAAAA00000000B5
:04000005080001C925
:00000001FF
