:020000040800F2
:10800000D0290020DD81000875A8000875A70008A8
:1080100071A800080D830008F5CD000800000000DD
:1080200000000000000000000000000021AB00087C
:10803000DD870008000000001FAB000835AB00081A
:10804000F7810008F7810008F7810008F781000830
:10805000F7810008F7810008F7810008F781000820
:10806000F7810008F7810008F7810008F781000810
:10807000F7810008F7810008F7810008F781000800
:10808000F7810008F7810008F7810008F7810008F0
:10809000F7810008F7810008F7810008F7810008E0
:1080A000F7810008F7810008F7810008F7810008D0
:1080B000F7810008F7810008F7810008F7810008C0
:1080C000F7810008F7810008F7810008F7810008B0
:1080D000F7810008F7810008F7810008F7810008A0
:1080E000F7810008F7810008F7810008F781000890
:1080F000F7810008F7810008F7810008F781000880
:10810000F7810008F7810008F7810008F78100086F
:10811000F7810008F7810008F7810008F78100085F
:10812000F7810008F7810008F7810008F78100084F
:10813000F7810008F7810008F7810008F78100083F
:10814000F7810008F7810008F7810008F78100082F
:10815000F7810008F7810008F7810008F78100081F
:10816000F7810008F7810008F7810008F78100080F
:10817000F781000879A80008F7810008F781000856
:10818000F7810008F7810008F7810008F7810008EF
:10819000F7810008F7810008F7810008F7810008DF
:1081A000F7810008F7810008F7810008F7810008CF
:1081B000F7810008F7810008F7810008F7810008BF
:1081C000F7810008F7810008DFF80CD000F08CF888
:1081D00000480047A1CE0008D0290020064880476B
:1081E00006480047FEE7FEE7FEE7FEE7FEE7FEE79C
:1081F000FEE7FEE7FEE7FEE729AC0008C9810008BC
:108200002DE9F05F0546002092469B4688460646CB
:10821000814640241BE0284641464746224600F05E
:1082200053F853465A46C01A914110D31146184686
:10823000224600F03AF82D1A67EB01084F46224615
:108240000120002100F031F817EB00094E41201EFB
:10825000A4F10104DFDC484631462A464346BDE826
:10826000F09F40EA01039B0703D009E008C9121FF1
:1082700008C0042AFAD203E011F8013B00F8013BE0
:10828000521EF9D27047D2B201E000F8012B491E0C
:10829000FBD270470022F6E710B513460A460446A3
:1082A0001946FFF7F0FF204610BD202A04DB203AD4
:1082B00000FA02F1002070479140C2F1200320FA39
:1082C00003F3194390407047202A04DB203A21FA37
:1082D00002F00021704721FA02F3D040C2F12002DF
:1082E0009140084319467047064C074D06E0E06888
:1082F00040F0010394E8070098471034AC42F6D3ED
:10830000FFF766FF98CF0008B8CF000800BFFEE770
:108310000146D1F8BC0290F81824022A0FD090F838
:108320001824032A0BD090F81824052A07D090F8B7
:108330001824062A03D090F81824092A19D10222F9
:1083400080F81824002280F81024002340F2114203
:108350001354521C1354521C135490F81834521CCA
:1083600013540023521C13540022C0F80024C0F8F8
:10837000042470470146D1F8BC0290F818240A2A58
:1083800015D1022280F81824002280F8102400233E
:1083900040F211421354521C1354521C135490F8BF
:1083A0001834521C13540023521C135414E00A2294
:1083B00080F818240E2280F81024002340F2114285
:1083C0001354521C1354521C135490F81834521C5A
:1083D00013540023521C13547047000070B5054617
:1083E0000E46D5F8BC4294F8180402280FD094F831
:1083F000180403280BD094F81804052807D094F823
:108400001804062803D094F81804092819D102206A
:1084100084F81804002084F81004002140F2114070
:108420000155401C0155401C015594F81814401C7E
:1084300001550021401C01550020C4F80004C4F877
:1084400004040848407D00F0100030B1284603F0D5
:10845000C6FD284603F016FC02E0708800F0DAF949
:1084600070BD0000C800002070B506460D46D6F865
:10847000BC42E88808B394F81804022803D094F8A2
:108480001804052814D16888C4F80004E888C4F8E2
:108490000404032084F8180494F8181440F21440DB
:1084A000015521463046D4F8042402F01CFC23E098
:1084B0002946304602F00BFC1EE094F8180405280B
:1084C00003D094F81804022812D1012084F819046A
:1084D000062084F81804002140F211400155401C88
:1084E0000155401C015594F81814401C015503E037
:1084F0002946304602F0EBFB70BD70B50446D4F857
:10850000BC52012205F58361204602F00DFC70BDCE
:1085100070B50546D5F8BC42D5F8C06294F8180489
:10852000032802D0062865D137E0D4F8040420B32C
:10853000042084F81804002140F211400155401C29
:108540000155401C015594F81814401C0155D4F8ED
:10855000000450B92078412807D1D4F8080404F564
:1085600082620021B369984716E0D4F8080404F544
:1085700082620121B36998470EE0052084F818044F
:10858000002140F211400155401C0155401C01558D
:1085900094F81814401C01552DE094F81904012892
:1085A00010D1072084F81804012140F21140015530
:1085B0000021401C0155401C015594F81814401C22
:1085C000015516E094F8190498B90F48007D00F0A1
:1085D000040070B1022084F81804002140F2114018
:1085E0000155401C0155401C015594F81814401CBD
:1085F000015500E000BF00BF062204F58261284655
:1086000002F092FB70BD0000C800002070B5054666
:10861000D5F8BC42002084F819042248007D00F0FF
:10862000040078B1062084F81804002140F21140BB
:108630000155401C0155401C015594F81814401C6C
:10864000015570BD082084F81804002140F2114043
:108650000155401C0155401C015594F81814401C4C
:108660000155284603F0BBFC00BF00BF00BF00BFA0
:1086700000BFBFF34F8F00BF00BF00BF0A480068B4
:1086800000F4E06009490843001D0749086000BF85
:1086900000BF00BFBFF34F8F00BF00BF00BF00BFD0
:1086A00000BFFDE7C80000200CED00E00000FA0567
:1086B0002DE9F04706460D46D6F8BC42D6F8C082F2
:1086C000E888002879D094F81804022803D094F898
:1086D0001804092866D16888C4F80004E888C4F83A
:1086E0000404D4F8000400BBD4F80404032801D91E
:1086F000022000E0092084F81804002140F2114013
:108700000155401C0155401C015594F81814401C9B
:10871000015500202070212060704120A0700322AC
:108720002146304602F000FB56E0D4F80004012850
:1087300024D9092084F81804002140F21140015581
:10874000401C0155401C015594F81814401C01555B
:10875000D4F80004801ED4F8081401EB8027D4F864
:10876000042421463846D8F81430984781464946B3
:108770003046D4F8042402F0D7FA2DE00F2084F814
:108780001804002140F211400155401C0155401CC5
:10879000015594F81814401C01552946304602F042
:1087A00096FA19E00020C4F80404C4F8000429462D
:1087B000304602F08CFA0FE0FFE7022084F818043C
:1087C000002140F211400155401C0155401C01554B
:1087D00094F81814401C0155BDE8F08770477047A5
:1087E00070B50A480468001D0568001D0668344419
:1087F00054B108220649204601F0BEFF0422044974
:108800001031284601F0B8FF70BD000020F4F01FC1
:108810004600002070B5044600F01CF906462546C7
:10882000681C10B104480078054400BF00F012F93C
:10883000801BA842FAD370BD84000020F8B5024620
:108840000B46002100250024002000BFE4E00126A3
:1088500006FA01F51E6806EA0504AC4271D15E68AD
:10886000012E08D05E68022E05D05E68112E02D05F
:108870005E68122E13D190684F000326BE40B043AD
:108880004F00DE68BE4030439060506801268E4045
:10889000B0431E79C6F300168E4030435060D06856
:1088A0004F000326BE40B0434F009E68BE40304399
:1088B000D0605E68022E02D05E68122E13D1CF08FF
:1088C00002F1200656F827004E07F70E0F26BE408D
:1088D000B0434F07FF0E1E69BE403043CF0802F180
:1088E000200646F8270010684F000326BE40B0431C
:1088F0001E7906F003064F00BE40304310605E68EC
:1089000006F08056B6F1805FA8D100BF444E3668AD
:1089100046F48046424F3E603E46366806F4804646
:10892000009600BF00BF3F4E8F0856F827008E0705
:10893000370F0F26BE40B0433B4EB24202D1002655
:108940002EE068E0394EB24201D1012628E0384ECF
:10895000B24201D1022623E0364EB24201D10326B3
:108960001EE0354EB24201D1042619E0334EB24228
:1089700001D1052614E0324EB24201D106260FE0A5
:10898000304EB24201D107260AE02F4EB24201D149
:10899000082605E02D4EB24201D1092600E00A2644
:1089A0008F073F0FBE4030431E4E8F0846F827000A
:1089B000274E3068A0435E6806F48036B6F5803FE7
:1089C00000D12043224E3060361D3068A0435E68DF
:1089D00006F40036B6F5003F00D120431C4E361D8C
:1089E0003060361D3068A0435E6806F48016B6F528
:1089F000801F00D12043164E08363060361D306887
:108A0000A0435E6806F40016B6F5001F00D12043AF
:108A10000F4E0C363060491C1029FFF418AFF8BD1A
:108A2000443802400838014000000240000402407F
:108A300000080240000C02400010024000140240F6
:108A400000180240001C02400020024000240240A6
:108A5000003C014001480068704700007C00002095
:108A600003480068034909780844014908607047D1
:108A70007C0000208400002010B5032000F09CF84A
:108A8000002000F005F800F029F8002010BD0000DB
:108A900070B504460E4800784FF47A71B1FBF0F0DF
:108AA0000C490968B1FBF0F5284601F049FE08B110
:108AB000012070BD102C07D200222146501E00F06C
:108AC0003DF80548046001E00120F2E70020F0E7EE
:108AD00084000020880000208000002008B500BF2E
:108AE0000D48006840F080500B4908600846006857
:108AF00000F08050009000BF00BF00BF081D00685C
:108B000040F48040091D08600846006800F4804079
:108B1000009000BF00BF08BD403802400146084633
:108B2000002809DB00F01F0301229A4043099B0043
:108B300003F1E023C3F8002100BF70472DE9F05F87
:108B400080460D461646002704F056F9074639467A
:108B50002A46334601F00700C0F1070ABAF1040FB4
:108B600002D94FF0040A01E0C0F1070AD14600F132
:108B7000040ABAF1070F02D24FF0000A01E0A0F197
:108B8000030AD4464FF0010A0AFA09FAAAF1010AC7
:108B90000AEA020A0AFA0CFA4FF0010B0BFA0CFB74
:108BA000ABF1010B0BEA030B4AEA0B0421464046EA
:108BB00004F02AF9BDE8F09F00BF00F00702064B61
:108BC00019684FF6FF031940044B0B4343EA022197
:108BD000014B196000BF70470CED00E00000FA0582
:108BE00001460A680120C1F8FC03002081F8F40363
:108BF000906940F000609061506D024B18435065E1
:108C0000002070470300001070B504460D4615B1F2
:108C1000012D2CD116E0206A38B101F08FFF1548E4
:108C2000006820F00600134908602068D0F8000EA4
:108C300020F001002168C1F8000ED4F8000402F011
:108C400068FE14E02068D0F8000E40F001002168B2
:108C5000C1F8000ED4F8000402F0FAFE206A28B130
:108C60000448006840F006000249086000BF00BFE9
:108C700070BD000010ED00E0024610684162002067
:108C80007047F0B5034615461868446A21B944EAAE
:108C900005401E68B06219E01868806A04EB104451
:108CA000002208E0186800F5827050F8220004EBFA
:108CB0001044501CC2B2481E9042F3D844EA054703
:108CC000186800F582704E1E40F826700020F0BD36
:108CD00010B50446D4F8000402F04DFD10BD70B587
:108CE00004460D46C5EBC50304F13C0101EB8301CD
:108CF000CA682946D4F8000402F081FC70BD70B542
:108D000004460D46C5EBC50304F5FE7101EB830176
:108D1000CA682946D4F8000402F0E4FC70BD10B51E
:108D20000446D4F8000402F029FD10BD70B50446D5
:108D30000E4606F00F006168884201D9012070BD1F
:108D400006F0800080280AD106F00F00C0EBC001B9
:108D500004F13C0000EB81050120687009E006F099
:108D60000F00C0EBC00104F5FE7000EB8105002090
:108D700068700020A87006F00F00287000BF94F8FB
:108D8000BC03012801D10220D9E7012084F8BC03EB
:108D900000BF2946206803F05FFC00BF002084F874
:108DA000BC0300BF00BFCAE72DE9F04705460E46E9
:108DB00090461F464FF0000906F0800080280AD137
:108DC00006F00F00C0EBC00105F13C0000EB810490
:108DD0000120607009E006F00F00C0EBC00105F54E
:108DE000FE7000EB81040020607006F00F00207020
:108DF000C4F80880E770607808B12078E080022F1E
:108E000001D10020207100BF95F8BC03012802D1D8
:108E10000220BDE8F087012085F8BC0300BF214691
:108E2000286803F0F3F800BF002085F8BC0300BFFA
:108E30004846EEE72DE9F04104460E4617469846AF
:108E400006F00F00C0EBC00104F5FE7000EB8105D9
:108E5000EF60C5F814800020A861687006F00F006C
:108E600028702069012800D12F6106F00F0028B971
:108E7000227C2946206803F0CBFA04E0227C2946B4
:108E8000206803F07DFC0020BDE8F08170B5044649
:108E90000D4605F00F006168884201D9012070BDC0
:108EA00005F0800080280AD105F00F00C0EBC0015A
:108EB00004F13C0000EB81060120707007E0C5EB77
:108EC000C50104F5FE7000EB8106002070700120E2
:108ED000B07005F00F00307000BF94F8BC0301289B
:108EE00001D10220DBE7012084F8BC0300BF31463A
:108EF000206803F0F8FB05F00F0028B9217C04F589
:108F00007172206803F070FB00BF002084F8BC037E
:108F100000BF00BFC3E72DE9F04104460E461746E7
:108F2000984606F00F00C0EBC00104F13C0000EBD6
:108F30008105EF60C5F814800020A86101206870E9
:108F400006F00F0028702069012800D12F6106F07B
:108F50000F0028B9227C2946206803F059FA04E062
:108F6000227C2946206803F00BFC0020BDE8F0813C
:108F70002DE9FE4F044620680290029D206803F010
:108F8000EAFD00287DD1206803F024FE08B9BDE881
:108F9000FE8F206803F01EFE00F00200022805D1BB
:108FA0002068406900F0020021684861206803F0F1
:108FB00011FE00F01000102846D12068806920F0D2
:108FC0001000216888610298D0F8209009F00F0005
:108FD000C0EBC00104F5FE7000EB810BC9F3434008
:108FE00002281AD147F6F07009EA000030B3C9F33D
:108FF0000A12DBF80C10029803F0F1FDC9F30A1114
:10900000DBF80C000844CBF80C00C9F30A11DBF8BC
:1090100018000844CBF8180010E0C9F343400628B4
:109020000CD1082204F57171029803F0D8FDC9F340
:109030000A11DBF818000844CBF818002068806992
:1090400040F0100021688861206803F0C3FD00F43F
:109050000020B0F5002F52D10026206803F08AFDD1
:10906000824649E00AF00100E8B3F1B2206803F05B
:10907000A4FD804608F0010058B1012105F53060DB
:1090800000E043E200EB461081603146204601F0EB
:109090002DFC08F00800082809D1082105F53060EA
:1090A00000EB461081603146204601F0EDFB08F0F0
:1090B0001000102805D1102105F5306000EB461096
:1090C000816008F02000202805D1202105F53060BE
:1090D00000EB4610816008F40050B0F5005F08D145
:1090E0004FF4005100E004E005F5306000EB46105D
:1090F0008160761C4FEA5A0ABAF1000FB2D120689B
:1091000003F068FD00F48020B0F5802F7ED1206848
:1091100003F026FD8246002683E00AF001000028C5
:109120007CD0F1B2206803F02FFD804608F00100EA
:10913000F0B306F00F0101208840019040F63400A2
:109140004159019821EA000040F6340148510121BB
:1091500005F5106000EB461081602069012824D1DC
:10916000C6EBC60104F13C0000EB8100C6EBC60271
:10917000C16804F13C0000EB820080680144C6EB4A
:10918000C60204F13C0000EB8200C1606EB9C6EB80
:10919000C60104F13C0000EB8100406928B904F5E8
:1091A00071720121206803F01FFAF1B2204600E03D
:1091B00001E0FFF794FD08F00800082805D1082118
:1091C00005F5106000EB4610816008F010001028D3
:1091D00005D1102105F5106000EB4610816008F004
:1091E0004000402805D1402105F5106000EB4610F5
:1091F000816008F00200022805D1022105F5106007
:1092000000EB4610816008F0800001E00DE005E011
:10921000802803D13146204601F026FC761C4FEA17
:109220005A0ABAF1000F7FF478AF206803F0D2FC3D
:1092300000F00040B0F1004F1CD140F6040040594E
:1092400020F0010140F60400415194F8F403012894
:1092500007D1002084F8F40300212046FFF7D4FC56
:1092600002E0204600F07EFA2068406900F00040ED
:1092700021684861206803F0ADFC00F40060B0F59F
:10928000006F0ED140F60800405900F0010010B107
:10929000204600F0D9FA2068406900F40060216897
:1092A0004861206803F096FC00F00060B0F1006FA8
:1092B00019D12068406900F000602168486194F885
:1092C000F40368B9012084F8F4032068406DC0F30A
:1092D0008300C4F8F80301212046FFF795FC02E063
:1092E000204600F0B1FA206803F074FC00F48050CE
:1092F000B0F5805F7DD140F60400405920F00101B7
:1093000040F6040041511021206803F0F9FB0027CA
:109310003EE04FF67F3105F5106000EB47108160AD
:1093200005F5106000EB4710006820F4001105F50A
:10933000106000EB4710016005F5106000EB47106E
:10934000006840F0006105F5106000EB4710016017
:109350004FF67F3105F5306000EB4710816005F571
:10936000306000EB4710006820F4001105F5306014
:1093700000EB4710016005F5306000EB4710006816
:1093800040F0006105F5306000EB471001607F1C84
:109390006068B842BDD840F61C00405940F0011149
:1093A00040F61C004151206B70B1D5F8840840F0A4
:1093B0000B01C5F8841840F64400405940F00B01F9
:1093C00040F6440041510FE040F61400405942F28B
:1093D0002B01084340F614014851081F405940F042
:1093E0000B014FF401604151D5F8000820F4FE60F4
:1093F00000E00DE0C5F80008217C04F571722068DA
:1094000003F0F2F82068406900F480502168486158
:10941000206803F0DFFB00F40050B0F5005F17D1C7
:10942000206802F05BFE206803F082FBE06000F041
:10943000A7FE0090227B2068009903F01BFC2046C9
:1094400000F078F92068406900F400502168486114
:10945000206803F0BFFB00F00800082808D1204670
:1094600000F087F92068406900F008002168486131
:10947000206803F0AFFB00F48010B0F5801F0AD124
:1094800000263146204600F043F82068406900F489
:10949000801021684861206803F09CFB00F40010F4
:1094A000B0F5001F0AD100263146204600F039F8F9
:1094B0002068406900F4001021684861206803F0CA
:1094C00089FB00F08040B0F1804F08D12046FFF7C3
:1094D000FFFB2068406900F08040216848612068F7
:1094E00003F078FB00F0040004280FD12068D0F8C6
:1094F000049009F00400042802D12046FFF70FFC75
:109500002068406840EA09002168486000BF3EE5E5
:1095100070B504460D462946D4F8000402F096F9C9
:1095200070BD70B504460D462946D4F8000402F01B
:1095300090F970BD70B58AB0044614B901200AB024
:1095400070BD266894F8BD0328B9002084F8BC03D8
:10955000204600F0A9F8032084F8BD03F06B00F466
:10956000807008B900212161206802F049FF28229B
:1095700004F110016846FEF774FE94E80F0002F053
:10958000C1FD20B1022084F8BD030120D7E70021EE
:10959000206803F035FB002531E00121C5EBC50251
:1095A00004F13C0000EB82004170C5EBC50104F101
:1095B0003C0000F82150C5EBC50100EB8100C580DF
:1095C0000021C5EBC50204F13C0000EB8200C17034
:1095D000C5EBC50204F13C0000EB82008160C5EBE5
:1095E000C50204F13C0000EB8200C160C5EBC5027E
:1095F00004F13C0000EB82004161681CC5B2606868
:10960000A842CAD800252AE00021C5EBC50204F50E
:10961000FE7000EB82004170C5EBC50104F5FE70E1
:1096200000F821500021C5EBC50200EB8200C1709B
:10963000C5EBC50204F5FE7000EB82008160C5EB4E
:10964000C50204F5FE7000EB8200C160C5EBC502E7
:1096500004F5FE7000EB82004161681CC5B26068D1
:10966000A842D1D8282204F110016846FEF7F9FD7E
:1096700094E80F0002F0C8FD20B1022084F8BD0379
:1096800001205CE7002084F83800012084F8BD0345
:10969000606A012802D12046FFF7A2FA206802F092
:1096A000A3FD00204BE7000010B586B0044614214E
:1096B00001A8FEF7EFFD1C492068884232D100BFA7
:1096C0001A48006840F0020018490860084600681F
:1096D00000F00200009000BF00BF4FF44040019036
:1096E0000220029000200390032004900C2005909B
:1096F00001A90F48FFF7A2F800BF0C48006840F02E
:1097000000500A4908600846006800F000500090C8
:1097100000BF00BF002211464D20FFF70FFA4D2079
:10972000FFF7FCF906B010BD0000044030380240DD
:109730000004024070B504460125E06808B9002520
:1097400006E0E068022801D1012501E0FFF747F8B3
:109750002946D4F8000402F0F8F8D4F8000402F026
:10976000ABF870BD10B50446D4F8000402F0D1F88F
:1097700010BD10B50446D4F8000402F0D5F810BDB1
:1097800070B504460D4600BF94F8BC03012801D112
:10979000022070BD012084F8BC0300BF84F838505B
:1097A0002946206803F047FA00BF002084F8BC0374
:1097B00000BF00BFEDE710B5044604F57171D4F8A1
:1097C000000402F0D9F810BD10B5044600BF94F8AB
:1097D000BC03012801D1022010BD012084F8BC0384
:1097E00000BF206802F0F0FC206803F06BF900BFB6
:1097F000002084F8BC0300BF00BFEDE710B50446AD
:1098000000BF94F8BC03012801D1022010BD012043
:1098100084F8BC0300BF206802F0F2FD206803F06A
:109820009DFA30B100BF002084F8BC0300BF0120C6
:10983000ECE7206802F0D8FC00BF002084F8BC03ED
:1098400000BF00BFE2E7000010B50446D4F80004F2
:1098500002F0FEF82068D0F8000E40F00100216808
:10986000C1F8000E206A28B10348006840F00600E5
:109870000149086010BD000010ED00E038B500247B
:1098800000BF2048006840F080501E49086008462C
:10989000006800F08050009000BF00BF1A480068C8
:1098A00040F4803018490860FFF7D4F8044607E018
:1098B000FFF7D0F8001BB0F57A7F01D9032038BD3F
:1098C0001148406800F48030B0F5803FF0D10E4878
:1098D000006840F400300C490860FFF7BBF804460C
:1098E00007E0FFF7B7F8001BB0F57A7F01D9032036
:1098F000E5E70548406800F40030B0F5003FF0D1DE
:109900000020DCE740380240007000402DE9F843B9
:109910000446002600250027A846A946207800F026
:10992000010088B100BFFE48006820F40000FC4937
:10993000086008460068616B0843F949086000BF89
:10994000606B08B94FF00108206800F40020B0F502
:10995000002F13D1F2488430006820F44010E16BEE
:109960000843EF4984310860E06BB0F5801F01D1F6
:109970004FF00108E06B08B94FF00109206800F4CE
:109980008010B0F5801F13D1E5488430006820F4C2
:109990004000216C0843E24984310860206CB0F536
:1099A000800F01D14FF00108206C08B94FF0010978
:1099B000206800F08070B0F1807F01D14FF0010885
:1099C000207800F02000202870D100BFD448383023
:1099D000006840F08050D24938310860084600687D
:1099E00000F08050009000BF00BFCE48006840F4F7
:1099F0008070CC490860FFF72DF8064607E0FFF7B6
:109A000029F8801B642802D90320BDE8F883C548E3
:109A1000006800F480700028F1D0C1486830006808
:109A200000F4407585B3208E00F44070A8422BD01E
:109A3000BB486830006820F44075B9486830006859
:109A400040F48030B649683108600846006820F468
:109A50008030086008460560006800F0010098B199
:109A6000FEF7F8FF064608E0FEF7F4FF801B41F220
:109A70008831884201D90320C7E7A94868300068C7
:109A8000C0F340000028EFD000BF208E00F44070EB
:109A9000B0F5407F0BD1A248006820F4F810A24A2C
:109AA000216B114008439E49086006E010E09C4885
:109AB000006820F4F8109A490860994868300068F6
:109AC000218EC1F30B01084395496831086000BF3E
:109AD000207800F01000102810D100BF904884308A
:109AE000006820F080708E49843108600846006864
:109AF000A16B08438A498431086000BF208800F4C4
:109B00008040B0F5804F09D185488830006820F446
:109B10004030616E0843824988310860208800F433
:109B20000040B0F5004F09D17D488830006820F42E
:109B30004020A16E08437A4988310860206800F40B
:109B40008030B0F5803F09D175488830006820F436
:109B50004010E16E0843724988310860206800F4C3
:109B60000030B0F5003F09D16D488830006820F41E
:109B70004000216F08436A4988310860207800F06E
:109B80004000402809D166488830006820F0030072
:109B9000616C0843624988310860207800F08000D9
:109BA000802809D15E488830006820F00C00A16C44
:109BB00008435B4988310860208800F48070B0F564
:109BC000807F09D156488830006820F03000E16C71
:109BD0000843534988310860208800F40070B0F5CC
:109BE000007F09D14E488830006820F0C000216D08
:109BF00008434B4988310860208800F48060B0F544
:109C0000806F09D146488830006820F44070616D4B
:109C10000843434988310860208800F40060B0F5AB
:109C2000006F09D13E488830006820F44060A16D83
:109C300008433B4988310860208800F48050B0F523
:109C4000805F09D136488830006820F44050E16DCB
:109C50000843334988310860208800F40050B0F58B
:109C6000005F09D12E488830006820F44040216E02
:109C700008432B4988310860206800F48000B0F563
:109C8000800F09D126488830006820F08060A16FDD
:109C90000843234988310860206800F40010B0F5BB
:109CA000001F0FD11E488830006820F00060E16F6F
:109CB00008431B4988310860E06FB0F1006F01D1A3
:109CC0004FF00109207800F00800082801D14FF07A
:109CD0000109206800F48020B0F5802F09D11048D8
:109CE0008830006820F04070616F08430C4988316B
:109CF0000860206800F40000B0F5000F0AD10848A1
:109D00008830006820F08050D4F88010084304495F
:109D100088310860B8F1010F0BD0206806E0000020
:109D20000838024000700040FFFCFF0FB0F1007FD8
:109D30007DD1AD48006820F08060AB490860FEF737
:109D400089FE064606E0FEF785FE801B642801D9E1
:109D500003205AE6A4480068C0F3C0600028F2D18E
:109D6000207800F00100B8B1606BA8B99E4884303B
:109D70000068C0F301459C4884300068C0F3036765
:109D80006068800140EA054040EA0761207A41EAC4
:109D90000070954984310860206800F40020B0F517
:109DA000002F03D1E06BB0F5801F09D0206800F4CC
:109DB0008010B0F5801F24D1206CB0F5800F20D129
:109DC000894884300068C0F30145874884300068C2
:109DD000C0F302776068800140EA0541207B41EAD8
:109DE000006040EA07708049843108607E488C300A
:109DF000006820F01F00616A491E08437A498C31CF
:109E00000860206800F08070B0F1807F17D176483C
:109E100084300068C0F30365734884300068C0F381
:109E2000027760688101208A41EA004000E031E069
:109E300040EA056040EA07706B4984310860206899
:109E400000F00070B0F1007F0DD160688101208AC0
:109E500041EA0041207B41EA0061207A41EA00703A
:109E60006149843108606048006840F080605E4964
:109E70000860FEF7EFFD064606E0FEF7EBFD801BEF
:109E8000642801D90320C0E557480068C0F3C060CA
:109E90000028F2D0B9F1010F7ED15348006820F0BC
:109EA000805051490860FEF7D5FD064606E0FEF7F2
:109EB000D1FD801B642801D90320A6E54A4800682B
:109EC000C0F340700028F2D1206800F40020B0F503
:109ED000002F01D1E06B38B1206800F48010B0F59C
:109EE000801F22D1206C00BB3F4888300068C0F33F
:109EF00001453D4888300068C0F302776069800101
:109F000040EA0541207E41EA006040EA0770364998
:109F100088310860081D006820F4F851A06A401ECE
:109F200041EA002030498C310860206800F40010BC
:109F3000B0F5001F19D1E06FB0F1006F15D12A48BC
:109F400088300068C0F30365274888300068C0F394
:109F5000027760698101208C41EA004040EA056097
:109F600040EA0770204988310860207800F0080036
:109F7000082820D11C4888300068C0F303651A48BF
:109F800088300068C0F301476069800140EA0740FB
:109F900040EA0561207F00E024E041EA00701249B8
:109FA00088310860081D006820F44030E16A0843E9
:109FB0000D498C3108600C48006840F080500A4917
:109FC0000860FEF747FD064606E0FEF743FD801BEE
:109FD000642801D9032018E503480068C0F34070E5
:109FE0000028F2D0002010E50038024070B5044689
:109FF0000D4600260CB9012070BD5C48006800F0D9
:10A000000F00A8420ED25948006820F00F002843E4
:10A01000564908600846006800F00F00A84201D0C9
:10A020000120E9E7207800F0020002281DD1207805
:10A0300000F00400042805D14D48006840F4E050C9
:10A040004B490860207800F00800082805D14848EE
:10A05000006840F46040464908604548006820F0C8
:10A06000F000A168084342490860207800F0010030
:10A0700090B36068012807D13D4808380068C0F3F4
:10A080004040A0B90120B7E76068022807D13848EE
:10A0900008380068C0F3406048B90120ACE7344894
:10A0A00008380068C0F3400008B90120A4E7304830
:10A0B000006820F00300616808432D490860FEF73E
:10A0C000C9FC064609E0FEF7C5FC801B41F2883159
:10A0D000884202D903208FE707E02548006800F096
:10A0E0000C006168B0EB810FEDD12048006800F0F2
:10A0F0000F00A8420ED91D48006820F00F00284329
:10A100001A4908600846006800F00F00A84201D014
:10A11000012071E7207800F00400042807D11448DA
:10A12000006820F4E050E168084311490860207895
:10A1300000F00800082808D10D48006820F46040AD
:10A14000216940EAC1000A49086000F01FF8084987
:10A150000968C1F30311074A515CC8400649086009
:10A1600006480068FEF794FC002045E7003C0240EA
:10A170000838024020CF000888000020800000201E
:10A180000148006870470000880000202DE9F04772
:10A19000002400250026A1462548006800F00C0098
:10A1A00020B1042805D008283AD105E0DFF88490D2
:10A1B00039E0DFF8849036E01D48001F006800F0A9
:10A1C0003F041B48001F006800F4800078B11A4863
:10A1D0001749091F0968C1F38811A0FB01700146E6
:10A1E000224600233846FEF70BF805460EE01148DC
:10A1F0000F49091F0968C1F38811A0FB01700146CE
:10A20000224600233846FDF7FBFF05460848001F9D
:10A210000068C0F30140401C4600B5FBF6F902E0BF
:10A22000DFF8109000BF00BF4846BDE8F08700008F
:10A23000083802400024F40000366E01F8B50446E8
:10A2400000270CB90120F8BD207800F0010000289B
:10A2500071D0F948006800F00C0004280DD0F648D1
:10A26000006800F00C00082813D1F348001F0068B4
:10A2700000F48000B0F5800F0BD1EF48083800687B
:10A28000C0F34040002869D06068002866D10120F2
:10A29000D9E700BF6068B0F5803F08D1E6480838CC
:10A2A000006840F48030E449083908602EE06068B6
:10A2B00068B9E1480838006820F48030DE49083980
:10A2C00008600846006820F4802008601EE060688E
:10A2D000B0F5A02F0DD1D8480838006840F4802090
:10A2E000D549083908600846006840F480300860A5
:10A2F0000CE0D1480838006820F48030CE49083995
:10A3000008600846006820F48020086000BF60688C
:10A3100090B1FEF79FFB054606E0FEF79BFB401B56
:10A32000642801D903208EE7C34808380068C0F3C9
:10A3300040400028F1D011E0FEF78CFB054606E016
:10A34000FEF788FB401B642801D903207BE7BA484D
:10A3500008380068C0F340400028F1D1207800F0B0
:10A360000200022869D1B448006800F00C0058B11E
:10A37000B148006800F00C0008281CD1AE48001F4E
:10A38000006800F48000B0B9AB4808380068C0F33A
:10A39000400020B1E068012801D0012053E7A64821
:10A3A0000838006820F0F800216940EAC100A2499D
:10A3B0000839086041E0E06828B39F480838006821
:10A3C00040F001009C4908390860FEF743FB054650
:10A3D00006E0FEF73FFB401B022801D9032032E7CD
:10A3E000954808380068C0F340000028F1D0924832
:10A3F0000838006820F0F800216940EAC1008E4961
:10A400000839086019E08C480838006820F001001D
:10A41000894908390860FEF71DFB054606E0FEF78E
:10A4200019FB401B022801D903200CE78248083899
:10A430000068C0F340000028F1D1207800F0080047
:10A44000082836D16069D0B17B486C30006840F094
:10A45000010079496C310860FEF7FCFA054606E018
:10A46000FEF7F8FA401B022801D90320EBE67248F8
:10A470006C300068C0F340000028F1D019E06E484D
:10A480006C30006820F001006B496C310860FEF709
:10A49000E1FA054606E0FEF7DDFA401B022801D985
:10A4A0000320D0E664486C300068C0F34000002808
:10A4B000F1D1207800F00400042874D15E483830CF
:10A4C000006800F0805080B900BF5B4838300068F9
:10A4D00040F080505849383108600846006800F064
:10A4E0008050009000BF00BF01275448006800F46E
:10A4F0008070B0B95148006840F480704F490860DE
:10A50000FEF7A8FA054606E0FEF7A4FA401B642809
:10A5100001D9032097E64948006800F480700028BC
:10A52000F2D000BFA068012808D143486830006815
:10A5300040F001004049683108602DE0A06868B92A
:10A540003D486830006820F001003B4968310860F0
:10A550000846006820F0040008601DE0A068052897
:10A560000DD135486830006840F004003249683148
:10A5700008600846006840F0010008600CE02E48C2
:10A580006830006820F001002B49683108600846F7
:10A59000006820F00400086000BFA068A8B1FEF7C2
:10A5A00059FA054609E02EE0FEF754FA401B41F245
:10A5B0008831884201D9032045E61F486830006889
:10A5C000C0F340000028EFD013E0FEF743FA054641
:10A5D00008E0FEF73FFA401B41F28831884201D97A
:10A5E000032030E6144868300068C0F340000028BB
:10A5F000EFD1012F07D110483830006820F080508B
:10A600000D4938310860A069002852D00A48006816
:10A6100000F00C00082865D0A06902284AD106483D
:10A620000838006820F08070034908390860FEF798
:10A6300011FA05460BE000000838024000700040A7
:10A64000FEF708FA401B022801D90320FBE53B482E
:10A650000068C0F340600028F2D1E06940F000508B
:10A66000216A0843616A40EA81110122A06AC2EBB3
:10A67000500041EA00412C20005D41EA00602F4972
:10A68000091D0860081F006840F08070091F0860FD
:10A69000FEF7E0F9054606E0FEF7DCF9401B02286C
:10A6A00001D90320CFE525480068C0F340600028A9
:10A6B000F2D040E02148006820F080701F49086017
:10A6C000FEF7C8F9054606E0FEF7C4F9401B02286C
:10A6D00001D90320B7E519480068C0F3406000289D
:10A6E000F2D128E01548001D0668A069012820D095
:10A6F00006F48001E06981421BD106F03F01206A27
:10A70000814216D147F6C0703040616AB0EB811FBC
:10A710000FD106F440310122A06AC2EB5000B1EB28
:10A72000004F06D106F070612C20005DB1EB006F88
:10A7300001D0012087E5002085E5000000380240B7
:10A7400070B504462546681EB0F1807F01D3012014
:10A750000FE0681E4FF0E02148610F214FF0FF30FD
:10A7600002F052FB00204FF0E021886107200861D1
:10A77000002070BD00BFFEE730B50B46002100BFD2
:10A7800016E00A24B4EB107F05D9302404EB1074D2
:10A7900003F8114005E0412404EB10740A3C03F86F
:10A7A0001140000100254C00641C1D554C1CE1B2F9
:10A7B0009142E6DB30BD0020704701460020704723
:10A7C000034619B1012900D101E000BF00BF00BF5D
:10A7D0000020704700207047034600207047034662
:10A7E0000020704708B500BF0D48006840F08000A9
:10A7F0000B4908600846006800F08000009000BF28
:10A8000000BF00BF0846006840F00200086008462C
:10A81000006800F00200009000BF00BF08BD00000B
:10A820003038024010B501220D490E4800F0B2FE4A
:10A8300008B1FDF7D4FF0C490A4801F046F908B108
:10A84000FDF7CDFF0949074800F098FB08B1FDF777
:10A85000C6FF044801F016FA08B1FDF7C0FF10BDAD
:10A8600000000020F8000020900000206000002080
:10A8700000BFFEE77047000010B50248FEF778FB06
:10A8800010BD0000C80300202DE9F04704460D4626
:10A8900026683746D6F8408007F5306000EB451053
:10A8A000D0F80890104880450BD909F40040B0F565
:10A8B000004F06D14FF4004107F5306000EB451022
:10A8C00081602046FEF777FF0748804508D9206958
:10A8D000012805D104F571720121206801F084FE80
:10A8E0000020BDE8F08700000A30544F2DE9F04702
:10A8F00005460C46D5F800804646D8F8409006F547
:10A90000306000EB441087682869012873D107F094
:10A91000080008280FD1524881450BD907F40040A0
:10A92000B0F5004F06D14FF4004106F5306000EB62
:10A930004410816091E007F02000202806D12021FA
:10A9400006F5306000EB4410816086E007F02800D7
:10A9500000280ED1424881450CD907F40040B0F5DB
:10A96000004F07D14FF4004106F5306000EB441072
:10A97000816072E0C4EBC40105F5FE7000EB81005C
:10A98000816806F5306000EB44100069C0F31200E6
:10A99000091AC4EBC40205F5FE7000EB8200816168
:10A9A000C4EBC40105F5FE7000EB8100C4EBC402EA
:10A9B000C16805F5FE7000EB820080680144C4EBBD
:10A9C000C40205F5FE7000EB8200C1606CB9C4EBF7
:10A9D000C40105F5FE7000EB8100406928B905F55A
:10A9E00071720121286801F0FFFDE1B22846FEF7EF
:10A9F00086F932E0FFE71B4881451BD107F4004090
:10AA0000B0F5004F07D14FF4004106F5306000EB80
:10AA10004410816021E007F02000202805D120218A
:10AA200006F5306000EB44108160E1B22846FEF785
:10AA300066F912E06CB9C4EBC40105F5FE7000EBD9
:10AA40008100406928B905F571720021286801F07C
:10AA5000CBFDE1B22846FEF752F90020BDE8F087B1
:10AA60000A30544F0A31544F2DE9F84F07460E462D
:10AA7000D7F80090C846C6EBC60107F13C0000EBD2
:10AA80008104D4E90510884202D90120BDE8F88F7D
:10AA9000D4E90501451AA068A84200D2A568E81CBF
:10AAA0004FEA900A17E0D4E90501451AA068A842C8
:10AAB00000D2A568E81C4FEA900A387CABB2F2B22B
:10AAC00000904846E16802F077F9E0682844E060C9
:10AAD000A0692844A06108F5106000EB4610806969
:10AAE00080B2504506D3D4E90510884202D260698D
:10AAF0000028D8D1D4E9050188420ED806F00F010C
:10AB0000012000FA01FB40F6340050F8080020EA6A
:10AB10000B0040F6340141F808000020B6E770470A
:10AB2000704730B501460A461378521C147843EA40
:10AB3000042030BD10B5FDF793FF10BD00B5B3B0D4
:10AB4000302127A8FDF7A6FB142122A8FDF7A2FBC0
:10AB5000842101A8FDF79EFB00BF3148006840F04A
:10AB600080502F4908600846006800F0805000902F
:10AB700000BF00BF00BF2B48006840F44040294997
:10AB800008600846006800F44040009000BF00BF25
:10AB9000012027900004289002202D90410527A82D
:10ABA000C1610C210162C821416202218162082138
:10ABB000C162FFF743FB08B1FDF711FEFEF75EFE31
:10ABC00008B1FDF70CFE0F202290022023900020F8
:10ABD00024904FF4A05025904FF4805026900621E9
:10ABE00022A8FFF703FA08B1FDF7F9FD4FF40010B2
:10ABF0000190C0200690022108910791032109913C
:10AC000001200B9000200C904FF00060209001A8D4
:10AC1000FEF77CFE08B1FDF7E2FD33B000BD000099
:10AC200040380240007000400548006840F4700061
:10AC3000034908604FF0006001498039086070479F
:10AC400088ED00E070B504460D46D4F8B80228B18E
:10AC5000D4F8B8022946426820469047002070BDCB
:10AC600070B504460D4694F89C02012804D00228D1
:10AC700003D003280CD101E000BF00BF6888012881
:10AC800005D10020C4F8A402204600F05EF804E0DC
:10AC90002946204600F01BF800BF00BF70BD70B50C
:10ACA00006460C4615462B4622460021304600F04B
:10ACB000EBFD002070BD70B506460C4615462B46D0
:10ACC00022460021304600F0CDFE002070BD70B558
:10ACD00004460D468021204600F089FE00212046D2
:10ACE00000F085FE70BD70B504460E461546032083
:10ACF000C4F894024FF4AC700551001D05512B4669
:10AD000032460021204600F0BFFD002070BD10B586
:10AD100004460520C4F8940200231A46194620462A
:10AD200000F0B2FD002010BD70B504460E46154679
:10AD30000220C4F89402A561E5612B463246002149
:10AD4000204600F08FFE002070BD10B504460420A0
:10AD5000C4F8940200231A461946204600F082FEE9
:10AD6000002010BD70B504460E46D4F8BC0208B9E8
:10AD7000022070BDD4F8BC520020C5F80004C5F80C
:10AD80000404022085F81804002085F8100402212C
:10AD900040F214404155D4F8C01288688047D4F876
:10ADA000BC0202F055F80020C4F8BC0200BFE0E786
:10ADB0000146002070472DE9FC410546D5F8BC420C
:10ADC000D5F8C07294F8180404287ED1D4F8000491
:10ADD000002856D1D4F80404012800D165E0D4F845
:10ADE000040405283ED12078212818D16078C4F8C1
:10ADF0000804A178D4F8080400EB0120C4F8080482
:10AE0000E178D4F8080400EB0140C4F80804217983
:10AE1000D4F8080400EB0160C4F8080445E0207889
:10AE2000412842D16078C4F80804A178D4F8080415
:10AE300000EB0120C4F80804E178D4F8080400EB22
:10AE40000140C4F808042179D4F8080400EB01603B
:10AE5000C4F80804D4F80804F968884728B3032024
:10AE6000BDE8FC810020C4F80404C4F800048DF897
:10AE700000000120ADF8060069462846FFF727FFCD
:10AE800013E0D4F8000401280FD9D4F80004801E80
:10AE9000D4F8081401EB8026D4F804243146204667
:10AEA0003B69984708B10320DAE70020C4F804049E
:10AEB000C4F80004032084F81804002140F2114073
:10AEC0000155401C0155401C00E005E0015594F877
:10AED0001814401C015506E094F81804072802D104
:10AEE0002846FDF793FB0020BAE7000001461B202F
:10AEF0000880014870470000C800002001460A2071
:10AF00000880014870470000E400002070B5054645
:10AF10000E4640F21C4001F0CDFF044624B900204B
:10AF2000C5F8BC02022070BDC5F8BC42002004F583
:10AF30008064E0604FF00060A060002020606060EE
:10AF400060760220207600202074A4F58064002121
:10AF500040F211400155401C0155401C0155022191
:10AF6000401C01550021401C0155D5F8C01248680D
:10AF7000804708B10320D6E70020D4E7024609B98C
:10AF800003207047C2F8C0120020FAE701460020F3
:10AF9000704700002DE9F84305460C46D5F8BC6221
:10AFA0000027B846B94600200090207800F06000E5
:10AFB00088B3202872D16078072824D2DFE800F017
:10AFC0001E04090E12161A0021462846FDF74CFAF7
:10AFD0001FE021462846FDF76BFB1AE02846FDF7E7
:10AFE00097FA16E02846FDF7C5F912E02846FDF766
:10AFF00084FA0EE02846FDF78BF90AE02146284640
:10B00000FDF7ECF905E021462846FFF760FE03272F
:10B0100000BF00BF68E0FFE76078062819D003DCB6
:10B0200038B1012852D150E00A2826D00B284DD142
:10B0300035E095F89C02032805D10222694628468E
:10B04000FFF772FE04E021462846FFF740FE032783
:10B0500042E060882121B1EB202F08D1DFF89080F9
:10B06000E088092801D9092000E0E08881464A46A5
:10B0700041462846FFF758FE2EE095F89C0203282B
:10B0800006D101222846D6F80C14FFF74DFE04E045
:10B0900021462846FFF71BFE03271DE01EE0A0788F
:10B0A00068B995F89C02032803D1A078C6F80C046F
:10B0B0000AE021462846FFF70AFE032704E021465E
:10B0C0002846FFF704FE032706E005E02146284650
:10B0D000FFF7FDFD032700BF00BF05E0214628461E
:10B0E000FFF7F5FD032700BF00BF3846BDE8F88332
:10B0F000DA00002070B504460D46E888012804D027
:10B1000029462046FFF7E3FD1EE094F89C02012843
:10B1100004D0022803D0032810D109E000BF00208A
:10B12000A060012204F108012046FFF7FDFD0AE0BE
:10B130000122211D2046FFF7F7FD04E029462046A5
:10B14000FFF7C5FD00BF00BF70BDF8B504460E4651
:10B15000002000900027002570880012062874D077
:10B1600006DC01281BD0022821D003286ED132E052
:10B1700007286CD00F28F9D1D4F8B402C06938B1CF
:10B18000207CD4F8B412CA6969469047074605E0A6
:10B1900031462046FFF79BFD681CC5B2CBE0207C02
:10B1A000D4F8B4120A68694690470746C3E0207C89
:10B1B00040B9D4F8B802816A684688470746022039
:10B1C000787007E0D4F8B802C16A68468847074635
:10B1D00002207870AFE0B07806287AD2DFE800F07D
:10B1E0000316293F5265D4F8B402406838B1207C78
:10B1F000D4F8B4124A6869469047074605E03146DC
:10B200002046FFF764FD681CC5B269E0D4F8B402BB
:10B21000806838B1207CD4F8B4128A6869469047B7
:10B22000074605E031462046FFF751FD681CC5B2D0
:10B2300056E0D4F8B402C06850B1207CD4F8B412FF
:10B24000CA6869469047074608E04BE06CE059E061
:10B2500031462046FFF73BFD681CC5B240E0D4F8FC
:10B26000B402006938B1207CD4F8B4120A69694686
:10B270009047074605E031462046FFF728FD681C49
:10B28000C5B22DE0D4F8B402406938B1207CD4F8BE
:10B29000B4124A6969469047074605E031462046A0
:10B2A000FFF715FD681CC5B21AE0D4F8B402806936
:10B2B00040B1207CD4F8B4128A69694690470746A9
:10B2C00006E006E031462046FFF701FD681CC5B2E6
:10B2D00006E031462046FFF7FAFC681CC5B200BF05
:10B2E00000BF28E0207C30B9D4F8B802416B684632
:10B2F0008847074605E031462046FFF7E8FC681C12
:10B30000C5B218E0207C40B9D4F8B802016B684699
:10B31000884707460720787005E031462046FFF74A
:10B32000D6FC681CC5B206E031462046FFF7CFFCCC
:10B33000681CC5B200BF00BF05B1F8BDF088C0B140
:10B34000BDF8000080B1F088BDF80010884202DD31
:10B35000BDF8000000E0F0880090BDF800203946FC
:10B360002046FFF7E1FC07E031462046FFF7AFFC3F
:10B3700002E02046FFF7E9FC00BFDEE701460020BF
:10B380000A4602E0431CD8B2521C1378002BF9D1B4
:10B39000704770B504460D4694F89C02012804D00D
:10B3A000022803D003281AD101E000BF00BFE888BB
:10B3B000022804D029462046FFF789FC14E001202A
:10B3C000E060D4F8A40218B1E06840F00200E06048
:10B3D000022204F10C012046FFF7A6FC04E02946F6
:10B3E0002046FFF774FC00BF00BF70BD2DE9F0419F
:10B3F00007460D46904600240FB9BDE8F0813E4651
:10B400003046FFF7BBFF022101EB4000A8F8000027
:10B4100098F800002855601CC4B203202855601C11
:10B42000C4B208E030782855761C601CC4B20020F5
:10B430002855601CC4B230780028F3D100BFDCE787
:10B440000146002031B1012906D0022906D0032986
:10B4500008D105E0002007E0032005E0012003E01B
:10B46000032001E0032000BF00BF704770B5054610
:10B470000C462DB92246064906A0FFF7B7FF04E0A7
:10B480002246034903A0FFF7B1FF014870BD000049
:10B49000CC07002044465520436F6E666967000064
:10B4A000024612200880014870470000200000205A
:10B4B00070B505460C462DB92246064906A0FFF791
:10B4C00095FF04E02246034903A0FFF78FFF0148E0
:10B4D00070BD0000CC07002044465520496E7465BD
:10B4E000726661636500000002460420088001481E
:10B4F000704700004000002070B505460C4622460B
:10B50000024903A0FFF772FF004870BDCC0700207E
:10B5100053544D6963726F656C656374726F6E69C5
:10B520006373000070B505460C462DB922460649E6
:10B5300006A0FFF75BFF04E02246034903A0FFF7E4
:10B5400055FF014870BD0000CC07002053544D3317
:10B550003220446F776E4C6F6164204669726D775C
:10B5600061726520557064617465000070B50546B0
:10B570000C461A202080FDF733F9014870BD000009
:10B580004400002002460C2008800148704700005B
:10B59000340000202DE9F04104460D46164614B94A
:10B5A0000320BDE8F081D4F8B80210B10020C4F83F
:10B5B000B802D4F8CC0210B10020C4F8CC020DB10E
:10B5C000C4F8B452012084F89C022670204600F092
:10B5D000E5F807463846E4E72DE9F04104460D4614
:10B5E000002600272946D4F8C402FDF79FFB064633
:10B5F0003046FFF725FF07463846BDE8F0812DE9C4
:10B60000F04104460F469046002F54D104F1140532
:10B61000D4F89402022843D1D5E9020188420FD917
:10B62000D5E90201401AA86041462046AA68FFF702
:10B6300042FB00231A461946204600F025F92FE068
:10B64000D5E90210884217D1E9686868884213D3A7
:10B650006868D4F8981288420ED20022114620461B
:10B66000FFF729FB0020C4F8980200231A46194668
:10B67000204600F009F913E0D4F8B802C06840B1E0
:10B6800094F89C02032804D1D4F8B802C16820467B
:10B6900088478021204600F0AAF92046FFF737FBB3
:10B6A00094F8A00201281BD1204600F021FA0020C6
:10B6B00084F8A00214E0D4F8B802406970B194F89C
:10B6C0009C0203280AD1D4F8B802394642692046C0
:10B6D0009047064626B13046BDE8F0810320FBE7DF
:10B6E0000020F9E72DE9F04105460F4690465FBB83
:10B6F00005F5AA74D5F8940203283AD1D4E90201D9
:10B70000884210D9D4E90201401AA060D4E90201AC
:10B71000884201D2A06800E0E0680246414628461F
:10B72000FFF7BDFA25E0D5F8B802006940B195F8F9
:10B730009C02032804D1D5F8B8020169284688473D
:10B740002846FFF702FB14E0D5F8B802806970B113
:10B7500095F89C0203280AD1D5F8B80239468269C7
:10B7600028469047064626B13046BDE8F0810320C2
:10B77000FBE70020F9E701460020704710B50446BA
:10B78000012084F89C02D4F8B80228B12179D4F8B9
:10B79000B802426820469047002010BD10B504460C
:10B7A000207801282FD11948C0F80044C4F8C402F9
:10B7B0001748164908600820486002211348C160F4
:10B7C00000210161022181610021C16101624162A8
:10B7D000012181620021C16201634163FDF7AAFE7C
:10B7E00008B1FCF7FCFF4FF400710848FDF744FA7C
:10B7F000802200210548FDF744FA4FF4BA72012176
:10B800000248FDF73EFA002010BD0000C8030020EA
:10B810000000044010B50246D2F8C43201F08000A6
:10B82000802809D101F07F00C0EBC00403F13C0087
:10B8300000EB8400807810BD01F07F00C0EBC004F5
:10B8400003F5FE7000EB84008078F4E702460020E8
:10B8500070470246002070472DE9F04704460F4626
:10B8600015461E464FF00008C1462B463246394663
:10B87000D4F8C402FDF798FA80464046FFF7E0FD91
:10B8800081464846BDE8F0872DE9F04704460D465D
:10B8900016461F464FF00008C1463B463246294631
:10B8A000D4F8C402FDF7C6FA80464046FFF7C8FD4B
:10B8B00081464846BDE8F08710B50446012084F86B
:10B8C0009C020020C4F894026060C4F8A402D4F87A
:10B8D000BC0228B12179D4F8B802426820469047CA
:10B8E0004023002211462046FFF7B6FF01214FF406
:10B8F000B27001534021001F0151402300228021DA
:10B900002046FFF7A9FF0121A184402121620020E8
:10B9100010BD014691F89C02042803D191F89D02C4
:10B9200081F89C020020704710B5044694F89C02F0
:10B93000032808D1D4F8B802C06920B1D4F8B802FD
:10B94000C16920468847002010BD024611740020BE
:10B9500070472DE9F04104460D4600260027294690
:10B96000D4F8C402FDF70CFF06463046FFF768FD29
:10B9700007463846BDE8F08170B504460D462946B5
:10B9800004F2AA2000F086F80120C4F894024FF4D3
:10B990002C70005BC4F8980294F8AA0200F01F0013
:10B9A00020B1012809D0022815D10DE004F2AA2106
:10B9B000204600F06DF9064616E004F2AA21204662
:10B9C00000F0CEFA06460FE004F2AA21204600F06D
:10B9D000B2F9064608E094F8AA0200F08001204679
:10B9E00000F005F8064600BF00BF304670BD2DE9E7
:10B9F000F04104460D46002600272946D4F8C4022B
:10BA0000FDF744FA06463046FFF71AFD074638466A
:10BA1000BDE8F08170B5044600250026D4F8C402C4
:10BA2000FDF7D2FE05462846FFF70AFD06463046DA
:10BA300070BD70B5044600250026D4F8C402FDF799
:10BA4000DDFE05462846FFF7FBFC0646304670BD86
:10BA5000014691F89C0281F89D02042081F89C0225
:10BA6000002070472DE9F04704460D4616461F4654
:10BA70004FF00008C1463B4632462946D4F8C4027E
:10BA8000FDF749FA80464046FFF7DAFC8146484612
:10BA9000BDE8F08770B505460E463446207828701C
:10BAA000641C20786870641C2046FFF73AF86880B0
:10BAB000641C641C2046FFF734F8A880641C641CD6
:10BAC0002046FFF72EF8E88070BD38B504460D46D5
:10BAD000002000900DB9032038BDC4F8B852D4F846
:10BAE000B802816A68468847C4F8CC020020F3E7B0
:10BAF00001460020704770B504460D46A88810BB6B
:10BB0000E88800BB688880281DD2A87800F07F06EE
:10BB100094F89C02032804D129462046FFF7D7F861
:10BB200015E084F89E6231462046FFF712FF20465A
:10BB3000FFF70BF91EB1022084F89C0207E00120F8
:10BB400084F89C0203E029462046FFF7C0F870BD48
:10BB500070B504460D460326D4F8B80230B1D4F8C7
:10BB6000B80229460268204690470646304670BD16
:10BB700070B504460E460025B0783B49087008466B
:10BB80000078012805D931462046FFF7A0F80320A8
:10BB900070BD94F89C02022802D0032856D11CE004
:10BBA00031480078A8B13048007860602E480178AC
:10BBB0002046FFF7CDFF054625B131462046FFF769
:10BBC00086F809E02046FFF7C0F8032084F89C02BD
:10BBD00002E02046FFF7B9F843E02348007870B947
:10BBE000022084F89C022048007860601E4801789A
:10BBF0002046FFF727F82046FFF7A7F825E01A4967
:10BC00000978606888421DD021792046FFF71AF82C
:10BC1000154800786060144801782046FFF798FFC7
:10BC200005465DB131462046FFF751F8217920469F
:10BC3000FFF708F8022084F89C0206E02046FFF790
:10BC400084F802E02046FFF780F80AE031462046FB
:10BC5000FFF73DF8044801782046FEF7F3FF03257F
:10BC600000BF00BF284693E78C00002070B5054652
:10BC70000C466088012804D1C5F8A4022846FFF7C5
:10BC800064F870BD10B504462046FFF7C3FE10BD32
:10BC900070B505460C460026207800F0600068B1BB
:10BCA000202802D040283ED100E000BFD5F8B802DD
:10BCB0002146826828469047064639E060780A287F
:10BCC0002AD2DFE800F01A24291F290A0529150FB6
:10BCD00021462846FFF739FA23E021462846FFF798
:10BCE0000AFF1EE021462846FFF742FF064618E0FD
:10BCF00021462846FFF7FEF913E021462846FFF7C4
:10BD000048FB0EE021462846FFF7B0FF09E0214638
:10BD10002846FEF7A5FF04E021462846FEF7D7FF98
:10BD200000BF00BF04E021462846FEF7D0FF00BF59
:10BD300000BF304670BD2DE9F04105460E464FF07C
:10BD400000083479307800F0600068B1202802D013
:10BD5000402870D100E000BFD5F8B80231468268B3
:10BD6000284690478046F7E07078002864D0012884
:10BD70002FD003286FD195F89C02022802D0032807
:10BD800020D110E054B1802C08D021462846FFF77E
:10BD90002EFE80212846FFF72AFE03E03146284682
:10BDA000FEF795FF13E0708840B93CB1802C05D0B8
:10BDB000F08818B921462846FFF719FE2846FEF7F5
:10BDC000C4FF04E031462846FEF781FF00BF00BFF4
:10BDD000BBE095F89C02022802D0032824D110E091
:10BDE00054B1802C08D021462846FFF700FE802160
:10BDF0002846FFF7FCFD03E031462846FEF767FFC3
:10BE000017E0708878B904F07F0018B12146284601
:10BE1000FFF7E2FB2846FEF798FFD5F8B802314657
:10BE200082682846904704E031462846FEF74FFFD7
:10BE300000BF00BF89E08AE095F89C02022802D08A
:10BE4000032876D126E03CB1802C05D03146284627
:10BE5000FEF73DFF72E073E004F08000802808D117
:10BE600004F07F0000EB800105F1140000EB81007D
:10BE700007E004F07F0000EB800105F5AA7000EBFD
:10BE80008100074600203860022239462846FEF726
:10BE90004BFF53E004F0800080280ED104F00F0027
:10BEA00000EB800105F1140000EB8100008A98B9D5
:10BEB00031462846FEF70BFF40E004F00F0000EB90
:10BEC000800105F5AA7000EB8100008A20B9314697
:10BED0002846FEF7FCFE31E004F08000802808D1FF
:10BEE00004F07F0000EB800105F1140000EB8100FD
:10BEF00007E004F07F0000EB800105F5AA7000EB7D
:10BF0000810007460CB1802C02D10020386009E086
:10BF100021462846FFF77EFC10B10120386001E081
:10BF200000203860022239462846FEF7FDFE05E073
:10BF3000FFE731462846FEF7CAFE00BF00BF04E017
:10BF400031462846FEF7C3FE00BF00BF04E031467D
:10BF50002846FEF7BCFE00BF00BF4046BDE8F081AA
:10BF600070B505460C460026207800F0600030B120
:10BF7000202802D040282AD100E000BF00BF95F859
:10BF80009C02012804D0022803D0032818D101E024
:10BF900000BF00BF207901280DD8D5F8B80221468E
:10BFA0008268284690470646E08840B93EB9284650
:10BFB000FEF7CBFE03E021462846FEF788FE04E0AC
:10BFC00021462846FEF783FE00BF00BF04E021465D
:10BFD0002846FEF77CFE00BF00BF304670BD70B53E
:10BFE0000446D4F8B80228B12179D4F8B8024268DE
:10BFF00020469047D4F8CC0210B10020C4F8CC02FF
:10C000002046FFF716FD0546284670BD70B504466C
:10C010000B4622461978587801282CD140F61C008E
:10C0200080581D7805F00F060125B540ADB22843B4
:10C0300040F61C05A85002F5106000EB41100068A6
:10C0400000F40040F0BB1889C0F30A00DD7840EA34
:10C05000854040EA815040F0805040F4004002F5B5
:10C06000106505EB41152D68284302F5106505EBB9
:10C07000411528602DE040F61C0080581D7805F021
:10C080000F060125B540144E06EA0545284340F643
:10C090001C05A85002F5306000EB4110006800F468
:10C0A000004078B91889C0F30A00DD7840EA85407D
:10C0B00040F0805040F4004002F5306505EB41153A
:10C0C0002D6800E005E0284302F5306505EB4115D9
:10C0D0002860002070BD00000000FFFF01460A46F6
:10C0E0004FF410608058C30ADB024FF41060835095
:10C0F00040F60400805840F4807340F604008350FA
:10C10000002070470FB470B504460A98012817D173
:10C11000A06B20F48030A063E06817490840E0601D
:10C12000E06820F44010E0601198012803D1E06835
:10C1300040F48010E060204600F020F805460BE057
:10C14000E06840F04000E060204600F017F8054647
:10C15000A06B40F48030A0630898012807D1A06844
:10C1600040F00600A060A06840F02000A0602846D3
:10C1700070BC5DF814FB0000BFFFBDFF014600224C
:10C1800000BF501C02460F4B984201D90320704754
:10C19000086900F000400028F3D00022086940F050
:10C1A0000100086100BF501C0246064B984201D9AD
:10C1B0000320ECE7086900F001000028F3D100BF7C
:10C1C000E5E70000400D030070B50446254640F643
:10C1D0000400405920F0020140F6040041510320C0
:10C1E000FCF718FB002070BD70B50446254640F6EC
:10C1F0000400405940F0020140F604004151032080
:10C20000FCF708FB002070BD0FB4F0B50646002710
:10C210003546002405E0002106F5827040F8241020
:10C22000641C0F2CF7D31098A0B940F604004059B5
:10C2300040F0020140F604004151B06B20F40010C0
:10C24000B063306840F040003060306840F08000FB
:10C25000306003E0B06B40F40010B0630020C5F81C
:10C26000000ED5F80008C5F800080B9801280BD17E
:10C27000089820B90021304600F0F2FC17E00121B7
:10C28000304600F0EDFC12E00B9803280BD1089823
:10C2900020B90021304600F0E3FC08E001213046DF
:10C2A00000F0DEFC03E00321304600F0D9FC102151
:10C2B000304600F025FC00B10127304600F00AFCB2
:10C2C00000B1012700214FF401604151001D41518F
:10C2D00040F61C00415100242EE005F5106000EBF3
:10C2E0004410006800F00040B0F1004F10D13CB99C
:10C2F0004FF0006105F5106000EB441001600DE0A7
:10C300004FF0904105F5106000EB4410016005E02E
:10C31000002105F5106000EB44100160002105F5D7
:10C32000106000EB441001614FF67F3105F510609D
:10C3300000EB44108160641C0698A042CDD8002414
:10C340002EE005F5306000EB4410006800F000407E
:10C35000B0F1004F10D13CB94FF0006105F53060ED
:10C3600000EB441001600DE04FF0904105F53060A6
:10C3700000EB4410016005E0002105F5306000EBA2
:10C3800044100160002105F5306000EB44100161AC
:10C390004FF67F3105F5306000EB44108160641C7E
:10C3A0000698A042CDD84FF40160405920F4807126
:10C3B0004FF4016041510020B0616FF08040706126
:10C3C000099818B9B06940F01000B061B0690A4925
:10C3D0000843B0610C9818B1B06940F00800B06132
:10C3E0001098012803D1B06904490843B061384668
:10C3F000F0BC5DF814FB000000383C8004000040F5
:10C400000146886820F00100886000207047000025
:10C41000F0B505460B4614462A4619785878012887
:10C4200075D1586920BB02F5106000EB411000691E
:10C430006C4E304002F5106606EB4116306102F595
:10C44000106000EB4110006940F4002602F5106016
:10C4500000EB4110066102F5106000EB411000692D
:10C46000C60CF60402F5106000EB4110066137E0DF
:10C4700002F5106000EB41100069C60CF60402F5ED
:10C48000106000EB4110066102F5106000EB4110F6
:10C490000069544E304002F5106606EB41163061DB
:10C4A0009E685869B04201D99868586102F51060D9
:10C4B00000EB4110006940F4002602F5106000EB2B
:10C4C0004110066102F5106000EB411000695E69E1
:10C4D000C6F31206304302F5106606EB41163061D2
:10C4E000012C15D1186928B102F5106000EB41103C
:10C4F0001E69466102F5106000EB4110006840F0D3
:10C50000044602F5106000EB4110066068E01BE095
:10C5100002F5106000EB4110006840F0044602F59F
:10C52000106000EB411006605869002858D040F6B2
:10C53000340080581E7806F00F070126BE403043B5
:10C5400040F63406B0504BE002F5306000EB41108D
:10C550000069C60CF60402F5306000EB411006617C
:10C5600002F5306000EB411000691E4E304002F5CC
:10C57000306606EB41163061586908B19868586119
:10C5800002F5306000EB4110006940F4002602F52E
:10C59000306000EB4110066102F5306000EB4110A5
:10C5A00000699E68C6F31206304302F5306606EB5A
:10C5B00041163061012C07D1D86828B102F53060EE
:10C5C00000EB4110DE68466102F5306000EB41107F
:10C5D000006840F0044602F5306000EB4110066050
:10C5E0000020F0BDFFFF07E070B503460C4619467A
:10C5F0001D6C1848854209D94FF43060405800F04E
:10C600000040B0F1004F01D1002070BD0026C1F8FC
:10C61000106BD1F8100B40F40026C1F8106BD1F864
:10C62000100B40F01806C1F8106BD1F8100B40F059
:10C63000C046C1F8106B012C09D1C1F8142B4FF47E
:10C640003060405840F080264FF430604650002063
:10C65000DBE700000A30544F30B504460B46224653
:10C660001978587801281ED102F5106000EB4110AE
:10C67000006820F4001502F5106000EB4110056021
:10C68000D878032802D0D87802282AD102F5106081
:10C6900000EB4110006840F0805502F5106000EB9F
:10C6A000411005601DE002F5306000EB41100068AC
:10C6B00020F4001502F5306000EB41100560D878D9
:10C6C000032802D0D87802280BD102F5306000EBA5
:10C6D0004110006840F0805502F5306000EB4110D9
:10C6E0000560002030BD30B504460B46224619785F
:10C6F0005878012821D102F5106000EB4110006844
:10C7000000F0004060B959B102F5106000EB411033
:10C71000006820F0804502F5106000EB41100560D4
:10C7200002F5106000EB4110006840F4001502F5BE
:10C73000106000EB4110056020E002F5306000EB76
:10C740004110006800F0004060B959B102F5306056
:10C7500000EB4110006820F0804502F5306000EBEE
:10C760004110056002F5306000EB4110006840F4B4
:10C77000001502F5306000EB41100560002030BD6F
:10C780002DE9F84381460E4617464D4634787078B9
:10C7900001287DD1706920BB05F5106000EB4410C5
:10C7A0000069C749084005F5106101EB44110861B3
:10C7B00005F5106000EB4410006940F4002105F518
:10C7C000106000EB4410016105F5106000EB4410AF
:10C7D0000069C10CC90405F5106000EB441001614B
:10C7E00055E005F5106000EB44100069C10CC90468
:10C7F00005F5106000EB4410016105F5106000EBD9
:10C8000044100069AE49084005F5106101EB441180
:10C810000861B16870690844401EB0FBF1F0A84996
:10C82000C94301EAC04005F5106101EB44110969F3
:10C83000084305F5106101EB4411086105F510602E
:10C8400000EB441000697169C1F31201084305F55A
:10C85000106101EB44110861F078012817D105F54A
:10C86000106000EB4410006920F0C04105F5106035
:10C8700000EB4410016105F5106000EB4410006905
:10C8800040F0005105F5106000EB4410016100E03C
:10C890007FE0012F36D1306928B105F5106000EB3B
:10C8A000441031694161F07801281ED140F608003A
:10C8B000405900F4807060B905F5106000EB441039
:10C8C000006840F0005105F5106000EB4410016075
:10C8D0000BE005F5106000EB4410006840F080515B
:10C8E00005F5106000EB4410016005F5106000EBE9
:10C8F0004410006840F0044105F5106000EB44105E
:10C900000160DAE005F5106000EB4410006840F0CB
:10C91000044105F5106000EB44100160F078012837
:10C920000FD070690028ECD040F6340040593178BF
:10C9300001F00F0201219140084340F634014851B3
:10C94000BBE040F60800405900F4807060B905F57E
:10C95000106000EB4410006840F0005105F51060D5
:10C9600000EB441001600BE005F5106000EB441093
:10C97000006840F0805105F5106000EB4410016044
:10C980000097B08A83B232784846F16800F014FA12
:10C9900093E005F5306000EB44100069C10CC90458
:10C9A00005F5306000EB4410016105F5306000EBE7
:10C9B000441000694249084005F5306101EB44111B
:10C9C00008617069D0B905F5306000EB441000696A
:10C9D000B168C1F31201084305F5306101EB441160
:10C9E000086105F5306000EB4410006940F4002157
:10C9F00005F5306000EB4410016126E0B168706914
:10CA00000844401EB0FBF1F01FFA80F805F53060D5
:10CA100000EB441000692A49C94301EAC8410843B0
:10CA200005F5306101EB4411086105F5306000EB5C
:10CA300044100069B16801FB08F1C1F31201084319
:10CA400005F5306101EB44110861012F07D1F06851
:10CA500028B105F5306000EB4410F1684161F078D1
:10CA600001281ED140F60800405900F4807060B9DA
:10CA700005F5306000EB4410006840F0005105F50A
:10CA8000306000EB441001600BE005F5306000EB16
:10CA90004410006840F0805105F5306000EB441010
:10CAA000016005F5306000EB4410006840F004417F
:10CAB00005F5306000EB441001600020BDE8F8830C
:10CAC000FFFF07E00146886840F001008860002011
:10CAD00070470000014600221020086100BF501C72
:10CAE0000246064B984201D903207047086900F0BE
:10CAF00010001028F3D00020F7E70000400D0300DD
:10CB000010B502460023202040EA8110106100BFCA
:10CB1000581C0346054CA04201D9032010BD1069E2
:10CB200000F020002028F3D00020F7E7400D03009C
:10CB300010B501460B4640F60804E45804F006021E
:10CB40000AB9002006E0022A01D0062A01D10220FB
:10CB500000E00F2010BD0146486900F00100704759
:10CB600001460B4640F61800C258001DC05802404E
:10CB700090B2704701460B4640F61800C258001D9F
:10CB8000C0580240100C704770B5024613464FF46F
:10CB90000166F45840F63406F55801F00F0625FA00
:10CBA00006F606F0010644EAC61403F5106606EB25
:10CBB0004116B66806EA040070BD10B50246134679
:10CBC00003F5306404EB4114A06840F61404E45803
:10CBD000204010BD014648698A6910407047F0B591
:10CBE00003461E460846D71CBD08002405E04FF446
:10CBF0008057BF590760001D641CAC42F7D3F0BDDD
:10CC000070B504460D46E06820F0C040E060012D9C
:10CC100004D1E06840F00050E06007E025B9E0682A
:10CC200040F08040E06001E0012070BD3220FBF761
:10CC3000F1FD0020F9E710B502460B461146D1F888
:10CC4000000820F4FE60C1F80008D1F800084FF495
:10CC5000FE6404EA03142043C1F80008002010BD5C
:10CC600002461346D3F800080843C3F80008002022
:10CC70007047000030B503461446022C49D12D48B8
:10CC8000814204D32C48814201D20F2245E02A4838
:10CC9000814204D32948814201D20E223DE0274837
:10CCA000814204D32648814201D20D2235E0244836
:10CCB000814204D32348814201D20C222DE0214835
:10CCC000814204D32048814201D20B2225E01E4834
:10CCD000814204D31D48814201D20A221DE01B4833
:10CCE000814204D31A48814201D2092215E0184832
:10CCF000814204D31748814201D208220DE0154831
:10CD0000814204D31448814201D2072205E0062261
:10CD100003E00CB9092200E00922D86820F4705021
:10CD2000D860D8684FF4705505EA82252843D8604A
:10CD3000002030BDC0ACD800C0E1E4000024F40005
:10CD400080730601A0491A01002D310140A44C0155
:10CD500000366E0120ABA6010048E801F0B5074699
:10CD60003D4600240CE04FF67F3105F5106000EBE6
:10CD70004410816005F5306000EB44108160641C54
:10CD80000F2CF0D300214FF401604151001D41519F
:10CD900040F61C0041513846FFF79CFE06460EB196
:10CDA0003046F0BD10213846FFF7AAFE06460EB108
:10CDB0003046F6E73046F4E72DE9F04304460D46E9
:10CDC000DDF81CC0A0462E46BCF1000F0FD1D81CC8
:10CDD0008708002109E008F5805000EB0230D6F802
:10CDE0000090C0F80090361D491CB942F3D30020D2
:10CDF000BDE8F08300BFFEE702480068C0F30220F0
:10CE0000704700000CED00E010B5002804DB0A07B5
:10CE1000130E054A135406E00A07140E034A00F0E5
:10CE20000F031B1FD45410BD00E400E018ED00E018
:10CE300002E008C8121F08C1002AFAD170477047E3
:10CE4000002001E001C1121F002AFBD17047000041
:10CE500010B5002821D0114B0022001F196803E0F3
:10CE6000814203D80A4649680029F9D152B11368B2
:10CE7000841A9C4204D1006818441060104602E0F5
:10CE8000506000E0186039B102680B1A934203D178
:10CE90000B681A4402604968416010BDF000002030
:10CEA000FBF7EAFDFDF74AFEFDF79CFCFDF7BAFC37
:10CEB00000BFFEE7F0B50B30154D20F00701002450
:10CEC000144A0FE003688B420BD38B4205D95E1ADC
:10CED00043184768C3E9006700E04368136002C075
:10CEE00004E0021D10680028ECD12046002802D181
:10CEF000286808B10020F0BD064A07481060074ABC
:10CF0000121A22F00702C0E9002401202860D7E7A6
:10CF1000F4000020F0000020D4090020D0190020E7
:10CF200000000000000000000102030406070809D9
:10CF3000000000000102030440496E7465726E61D6
:10CF40006C20466C6173682020202F307830383098
:10CF500030303030302F30332A3031364B612C3086
:10CF6000312A3031364B672C30312A3036344B671A
:10CF70002C30372A3132384B672C30342A30313656
:10CF80004B672C30312A3036344B672C30372A31FE
:10CF900032384B6700000000B8CF000800000020C6
:10CFA000F800000030CE0008B0D00008F8000020E3
:10CFB000D828000040CE0008A1B40008E9B4000859
:10CFC000F9B4000825B500086DB500086DB4000877
:10CFD000B1B4000885B5000812010102000000404C
:10CFE000830411DF0002010203010000050F0C00A1
:10CFF0000107100202000000040309041A030000E4
:10D000000000000000000000000000000000000020
:10D01000000000000000000038CF0008D5A700087D
:10D02000B7A70008BBA70008DFA70008D9A700081A
:10D03000C1A700080000000010000000010000006F
:10D040000024F400000000000DAF000865AD0008EA
:10D0500095AF0008B7AD0008B1AD000800000000B2
:10D06000000000008DAF000800000000000000007C
:10D07000EDAE0008EDAE0008EDAE0008FDAE000814
:10D0800009021B00010102C0320904000000FE0178
:10D09000020609210BFF0000041A01000A06000223
:10D0A000000000400100000000000000000000003F
:04000005080081C9A5
:00000001FF
