:0200000460009A
:10000000287C0020E1010060573100600B2900606E
:1000100055310060D1040060BD390060000000006F
:100020000000000000000000000000005D310060E2
:10003000D30400600000000059310060F901006045
:10004000FB010060FB010060FB010060FB01006040
:10005000FB0100605B310060FB010060FB010060A0
:10006000FB010060FB010060FB010060FB01006020
:10007000FB010060FB010060FB010060FB01006010
:10008000FB010060FB010060FB010060FB01006000
:10009000FB010060FB010060FB01006035060060B1
:1000A000FB010060FB010060FB010060FB010060E0
:1000B000FB010060FB010060FB010060FB010060D0
:1000C000FB010060FB010060FB010060FB010060C0
:1000D000FB01006099390060FB010060A5390060F8
:1000E000FB010060FB010060FB010060FB010060A0
:1000F000FB010060FB010060FB010060FB01006090
:10010000FB010060FB010060FB010060FB0100607F
:10011000FB010060FB010060FB010060FB0100606F
:10012000FB010060FB010060FB010060FB0100605F
:10013000FB010060FB010060FB010060FB0100604F
:10014000FB010060FB010060FB010060FB0100603F
:10015000FB010060FB010060FB010060B139006041
:10016000FB010060FB010060FB010060FB0100601F
:10017000FB010060FB010060FB010060FB0100600F
:10018000FB010060FB010060FB010060FB010060FF
:10019000FB010060FB010060FB010060FB010060EF
:1001A000FB010060FB010060FB010060FB010060DF
:1001B000FB010060FB010060FB010060FB010060CF
:1001C000FB010060FB010060DFF810D000F0D2F806
:1001D00000480047CF760060AFF30080287C002005
:1001E0000648804706480047FEE7FEE7FEE7FEE7D1
:1001F000FEE7FEE7FEE7FEE7FEE7FEE70D32006002
:10020000C90100602DE9F05F0546002092469B463B
:1002100088460646814640241BE02846414647461C
:10022000224600F097F853465A46C01A914110D31F
:1002300011461846224600F07EF82D1A67EB010899
:100240004F4622460120002100F075F817EB000907
:100250004E41201EA4F10104DFDC484631462A4607
:100260004346BDE8F09F00000649074A086850432E
:1002700043F23902104408604008704701490860A1
:1002800070470000D40000206D4EC64110B5431ADF
:10029000934209D28318881803E010F8011D03F86F
:1002A000011D521EF9D210BD40EA01039B0703D085
:1002B00009E008C9121F08C0042AFAD203E011F8A5
:1002C000013B00F8013B521EF9D210BDD2B201E051
:1002D00000F8012B491EFBD270470022F6E710B54B
:1002E00013460A4604461946FFF7F0FF204610BDA4
:1002F00030B504460020034600E05B1C934203D265
:10030000E05CCD5C401BF8D030BD30B50B460146FB
:1003100000202022012409E021FA02F59D4205D3A4
:1003200003FA02F5491B04FA02F52844151EA2F14E
:100330000102F1DC30BD202A04DB203A00FA02F190
:10034000002070479140C2F1200320FA03F31943C3
:1003500090407047202A04DB203A21FA02F0002165
:10036000704721FA02F3D040C2F1200291400843C5
:1003700019467047064C074D06E0E06840F001035F
:1003800094E8070098471034AC42F6D3FFF720FFFB
:10039000FCEC00601CED00604A496FF0706210B523
:1003A000D1F8043323F44033C1F80433D1F80433D3
:1003B00044682343C1F8043301684B6823F4807315
:1003C0004B60016803694C6844EA03234B60016891
:1003D0004B6823F040734B60016884684B6823438B
:1003E0004B6001688B6823F400638B600168C4680C
:1003F0008B6823438B60816AD14201688A6822F04E
:1004000070628A6001680DD0836A8A681A438A60C4
:1004100001688A6822F040528A600168C36A8A686B
:100420001A4302E08A6822F040528A6001688A68B2
:1004300022F002028A60016882698B6843EA420204
:100440008A6090F820100029016811D01E4A4B687C
:1004500043F400634B6001684B6823F460434B60D6
:100460000168446A4B6802EB443213434B6003E07B
:100470004A6822F400624A600168144BCA6A22F496
:100480007002CA620168848BCA6A03EB04531A4380
:10049000CA6201688A6822F400728A60016890F872
:1004A00030208B6843EA42228A6001688A6822F41D
:1004B00080628A60016840698A6842EA80208860B8
:1004C00010BD00000020014000E0FFFF0000F0FF31
:1004D000FEE7704738B50446006800F58050816932
:1004E00041F480118161206800F58050806900909E
:1004F000012000F0D3FA2068009900F58050816156
:1005000038BD00002DE9F041044621B14FF40061EF
:10051000C800C4E90201E0690025002862D028462D
:100520002368D4E9021C3D4F40261A6841EA0C01B9
:1005300001433A4041F40070104318602068076896
:10054000012000F0ABFA2068076020684660206850
:100550004668012000F0A2FA20684FF6417246601A
:10056000206885602068C56021688869104040F077
:100570008000886120688669012000F08FFA206879
:1005800086612068C5612068C569012000F086FA8F
:100590002068234B2349C561206800F5805082699B
:1005A0001A4011438161206800F58050856901205F
:1005B00000F074FA20681C4900F5805085612068BD
:1005C00000F580500160206800F58050056801202A
:1005D00000F064FA206800F580500560A0690128E9
:1005E00003D009E04FF480609AE720680F4A00F5D5
:1005F0008050C1691143C16160690D4982880A64F4
:100600008278C47845780378120443EA046042EAA9
:10061000052210434864BDE8F08100000F8120FFEF
:10062000233FDEF8040020028020C10240000100C8
:10063000008002404FF4007000F074BDF8B5002552
:10064000009590F83C20012A1DD0012280F83C2022
:10065000604C0723D6070A68092A22D9B24220D063
:1006600007680A3A02EB420CFA6803FA0CF39A4361
:10067000FA600A68A24208D102680B7AD76847EA92
:100680000363D36022E00220F8BD07680A3A8B6852
:1006900002EB4202D7F80CC0934043EA0C03FB6024
:1006A00014E0076802EB4202D7F810C093402CEA2E
:1006B000030CC7F810C003680F788A68D3F810C01D
:1006C00007EB4707BA4042EA0C021A614A681F2347
:1006D000072A16D20768521E02EB820C7A6B03FAC5
:1006E0000CF39A437A6302680F790B887F1ED2F865
:1006F00034C09BB207EB8707BB4043EA0C0353634C
:100700002DE007680D2A15D2D21F02EB820C3A6B3E
:1007100003FA0CF39A433A6302680F790B88FF1FC0
:10072000D2F830C09BB207EB8707BB4043EA0C030B
:10073000136314E00D3A02EB820CFA6A03FA0CF32D
:100740009A43FA6202680F790B880D3FD2F82CC0E9
:100750009BB207EB8707BB4043EA0C03D3621E4AF8
:100760000368934208D10B68B34205D1D2F8043331
:1007700023F44003C2F804330368934208D10B68A2
:10078000122B05D1D2F8043343F48003C2F80433AA
:10079000036893421AD10B68A34201D0112B15D1E3
:1007A000D2F8043343F40003C2F804330968A142C9
:1007B0000CD10A490A4A0968B1FBF2F101EB810147
:1007C000490000E0491E00910029FBD180F83C500F
:1007D0000020F8BD12000010002001401800002089
:1007E00040420F0070B504004FF0000503D0206CAC
:1007F000002610B107E0012070BD204600F01CF873
:10080000666484F83C60206CC00610D4206C20F430
:10081000885040F0020020642046FFF7BDFD66646A
:10082000206C20F0020040F00100206400E001256F
:1008300084F83C60284670BDF0B587B004461421AA
:100840006846FFF74AFD174A002326680825164F19
:10085000143A144903241548BE4207D10E6846F4E1
:1008600080760E60096801F4807109E0104FBE4285
:1008700015D10E6846F480660E60096801F4806147
:100880000591116841F0010111601168009501F0B6
:1008900001010591CDE90143694600F04FFC07B025
:1008A000F0BD00004438024000200140000002403A
:1008B000002201402DE9F041040003D094F83500F6
:1008C00018B105E00120BDE8F081204600F044F8B1
:1008D000A16902204FF0000E84F8350009B1C4F878
:1008E00024E020681B4A016811400160D4E90452E9
:1008F000E168D4E9010C29431043A269084354F884
:10090000201B40EA0C001043B4E8E8100A681843C2
:1009100028433043384340EA0C001043086054F841
:10092000300C343C102808D1A17FA08B2368E27FD3
:1009300061F31F4040EA0260986120680121C268AB
:1009400042F01E02C260C4F84CE084F8351000206A
:10095000B9E7000007F0E0FF2DE9F04186B004465A
:1009600014216846FFF7B9FC3B492068884270D1E2
:100970003A48016841F001010160006800F001009F
:1009800005903648001F016841F0100101600168C0
:1009900001F010010591016841F480710160016866
:1009A00001F480710591016841F040010160016826
:1009B00001F040010591016841F08001016001688A
:1009C00001F080010591016841F0040101600168B6
:1009D00001F004010591016841F001010160006826
:1009E0000D2701AA4FF0400800F00100CDF800806B
:1009F000022469460025CDE904700326184882E8E0
:100A0000700000F09BFB702069468DE8F1001548EE
:100A100000F094FB600269468DE8F100124800F096
:100A20008DFB4FF4A84069468DE8F1000F4800F0B7
:100A300085FB01AACDF800800D48694682E8F000E8
:100A400000F07CFB502069468DE8F100094800F079
:100A500075FB06B0BDE8F081000005503438024057
:100A6000001002400020024000180240001C02401A
:100A7000000802400000024090F83510022903D01F
:100A80008021416501207047052180F835100068FC
:100A9000016821F0010101600020704770B5044633
:100AA00000F03EFC0546601C02D004480078044477
:100AB00000F036FC401BA042FAD370BD0C000020B1
:100AC0002DE9F04390F845400025012C0DD04FF062
:100AD000010980F84590022644F2F45780F84460FA
:100AE0005E1E4FF0004C816217E00220BDE8F083EB
:100AF000C5EBC51801EB451408EB480802EB880864
:100B0000C4F800C0B542C4E9017804D204F1200859
:100B1000C4F80C8000E0E1606D1C9D42E8D30368DE
:100B2000002403F58053D96080F8449080F8454054
:100B30002046DBE72DE9F04390F84540914600223E
:100B4000012C09D0C1620126022480F845605D1E97
:100B500080F84440E70422E00220BDE8F08300BFB3
:100B6000C2EBC21404EB440801EB421409EB880CFD
:100B70002760C4F808C0D0F81CC0BCF1000F05D134
:100B8000D4F800C04CF4400CC4F800C0AA4204D20F
:100B900004F1200CC4F80CC000E0E160521C9A4241
:100BA000DED30268002302F58052116180F84460B0
:100BB00080F845301846D0E72DE9FC474FF0000695
:100BC0000400B146009603D094F8440018B107E041
:100BD0000120BDE8FC87204684F8456000F0E4F879
:100BE0006748016841F480410160006800F480407A
:100BF00001906448016821F4000101600168226AE3
:100C000011430160206800F58050016841F0010146
:100C1000016000F085FB4FF4FA77054609E000BF5C
:100C200000F07EFB401BB84203D9032084F8440047
:100C300068E0206800F580500068C007F0D12068A7
:100C4000006920F01C0501F08FF84F4A4F4902441B
:100C50008A4202D245F0080516E04D494D4A01444A
:100C6000914202D245F00C050EE04B4A4B4902443A
:100C70008A4209D34A4A4B491044884202D245F07D
:100C8000040501E045F010052068056100214FF4DE
:100C90000042204600F008FA4FF00105B0BBFF20EB
:100CA000FFF7FCFE606890B300F03AFB804641F22B
:100CB000883701216A46204600F0E8F800F030FB52
:100CC000A0EB0800B84217D800984007F1D50021E2
:100CD00020464FF4805200F0E7F9B8B900F020FB4D
:100CE00080466A460121204600F0D0F800F018FB4B
:100CF000A0EB0800B8420BD901212046FFF702FC07
:100D000084F84450032084F8456062E724E018E04A
:100D100000988006E5D51F216A46204600F0B6F807
:100D2000D0B90098C10603D54FF40061E16000E03E
:100D3000E660400701D5A66019E04FF48040A0604E
:100D400015E0D4E90210C00840EA510082B2204602
:100D5000002100F0A9F930B101212046FFF7D2FBB4
:100D600084F8445034E740F6FF70FFF797FE494699
:100D70002046FFF7C7FB84F84450002029E7000015
:100D8000443802400438014000D3CEFEC0E1E40004
:100D900040F1E9FD40787D0100796CFC005A620267
:100DA000001F0AFA80F0FA02F0B587B00446142159
:100DB0006846FFF792FA2F492068884258D12E489A
:100DC000016841F000710160016801F00071059156
:100DD000016841F080610160016801F08061059166
:100DE000016841F000610160016801F00061059156
:100DF000016841F040010160016801F04001059186
:100E0000016841F002010160016801F002010591F1
:100E1000016841F004010160016801F004010591DD
:100E2000016841F001010160006802240025694663
:100E300000F00100059003260B27A0028DE8F100C9
:100E40000E4800F07BF9300369468DE8F1000C484C
:100E500000F074F9322069468DE8F100094800F08D
:100E60006DF9862069468DE8F100074800F066F9C3
:100E700007B0F0BD00800240303802400018024048
:100E80000004024000080240000002402DE9F04743
:100E9000044690F84400914682281DD082224FF6E5
:100EA000FF7084F844204FF4F863226803EA81114C
:100EB000258A136900EAC52003F01C031843014387
:100EC00021F0020040F00105156100F029FA012728
:100ED00006464FF4803811E00220BDE8F08700BFDD
:100EE00000F01EFA801B404506D3002084F84470B1
:100EF00084F845000320F0E720680569E807EFD192
:100F00002068406981B2C9F8001084F8447000205C
:100F1000E3E7F8B5044690F84500012839D00125EB
:100F200084F84550022084F84400206800260168B7
:100F300041F0080101602068006800902846FFF732
:100F4000ADFD2168009808602068016841F0040147
:100F500001602068006800900120FFF79FFD216874
:100F6000009808602046FFF7B5FA206800F5805029
:100F7000816941F400518161206800F580508169E8
:100F800041F00201816184F84450002084F84560FA
:100F9000F8BD0220F8BDF0B590F845200023012AE5
:100FA00013D0012680F84560022280F844204FF0DB
:100FB000000561B1C76A3A68002A0BDA122180F88D
:100FC000441080F845500120F0BD0220F0BD80F8AB
:100FD0004460F6E740F2F454A1420BD9B1FBF4F2BD
:100FE00004FB121CB1FBF4F2BCF1000F00D0521C48
:100FF000012A45D13A68C1F30C0142F040523A60EF
:10100000C26A5160C16A0A6842F000420A60C16A5D
:10101000C968C16236E0D7F800C02CF0405CC7F860
:1010200000C033B9C76AD7F800C04CF0805CC7F87D
:1010300000C0D0F82CC0571EBB42CCF8044014D1DD
:10104000C76AC2F1010ED7F800C0CEEBCE1E4CF03D
:10105000005CC7F800C00EEB4E0ED0F82CC001EBC0
:101060008E07C7F30C07CCF80470C76AD7F800C026
:101070004CF0004CC7F800C0C76A5B1CFF68C76231
:101080009342C8D3016801F580514A69520705D5DA
:1010900004224A61016801F580514D6080F8446086
:1010A00080F845500020F0BD2DE9F041044690F84D
:1010B000440042281ED042204FF6FF7384F84400BB
:1010C00096B220684FF4F867258A07EA8111026911
:1010D000466103EAC520236802F01C021043014365
:1010E00041F003051D6100F01BF9012706464FF48E
:1010F000803811E00220BDE8F08100BF00F010F957
:10110000801B404506D3002084F8447084F84500D5
:101110000320F0E720680569E807EFD184F8447000
:10112000E9E77047044910B50A68024202D0086036
:10113000FFF7F7FF10BD0000143C01402DE9F84F08
:1011400000224FF001094FF0030A4FF00F0E00BFCD
:101150000B6809FA02F42340A34270D14D68012DB7
:1011600005D0022D03D0112D01D0122D11D185688B
:101170005700CE680AFA07FC25EA0C05BE402E434C
:10118000866045680E79A543C6F3001696402E4347
:101190004660C56856008F680AFA06F4A543B74052
:1011A0002F43C7604D68022D01D0122D12D1D508F2
:1011B0000F694FEA427C00EB8505AB462D6A4FEA8A
:1011C000DC6C0EFA0CF807FA0CF725EA08052F4339
:1011D000CBF820700D79076805F00305A743B540EB
:1011E0003D4305604C68E40074D53D4C256845F4EA
:1011F00080452560246822F00307960704F48044A4
:101200000094384C360F2744D7F80848DFF8D8C088
:101210000EFA06F5604524EA050401D100252EE00A
:10122000324DA84201D1012529E0314DA84201D11A
:10123000022524E02F4DA84202D103251FE049E0FA
:101240002D4DA84201D1042519E02C4DA84201D111
:10125000052514E02A4DA84201D106250FE0294DAD
:10126000A84201D107250AE0274DA84201D108254F
:1012700005E0264DA84201D1092500E00A25B54028
:10128000234E2543C7F808584D683468ED0324EA17
:10129000030400D51C431E4D34602D1D4E682C6880
:1012A000B60324EA030400D51C43194E2C6008360B
:1012B0004D683468ED0224EA030400D51C43144D44
:1012C00034600C354E682C68B60224EA030400D55D
:1012D0001C432C60521C102AFFF43AAFBDE8F88F73
:1012E0004438024000300140000002400004024047
:1012F00000080240000C02400010024000140240AE
:1013000000180240001C024000200240002402405D
:10131000003C01400AB1816170470904FBE700000D
:1013200001488068704700000C00002030B590F83C
:101330004120202A24D190F84020012A20D00123E6
:1013400080F84030242280F84120202300240268C5
:10135000156825F0010515600268156825F48055AB
:101360001560026815680D43156001680A6842F04F
:1013700001020A6080F8413080F84040002030BD12
:10138000022030BD30B590F84120202A22D190F8BB
:101390004020012A1ED0012380F84030242280F80A
:1013A0004120202400250268136823F00103136004
:1013B0000268136823F4706343EA01211160016835
:1013C0000A6842F001020A6080F8414080F840500B
:1013D000002030BD022030BD70B5040004D094F868
:1013E0004100002510B106E0012070BD204684F8C0
:1013F000405000F04DF8242084F841002068016836
:1014000021F001010160D4E9001020F07060086152
:101410002068816821F400418160E068216801282A
:10142000A06806D040F404408860E068022803D039
:1014300006E040F40040F7E721684FF400604860A0
:1014400020212068114A4368134343602068C26822
:1014500022F40042C26054F8106B0DCC104340EAF5
:101460000320F06054F81C3CD4E9000210431860DB
:1014700054F81C0D026842F001020260656484F8B1
:101480004110256384F84250002070BD00800002A6
:101490002DE9F04786B0044614216846FEF71DFF8B
:1014A00022681225394C0126394B0327374804217D
:1014B00010349A4218D1026842F0020202600068B9
:1014C00000F002000590F801CDE903718DE861009C
:1014D00030486946FFF732FE206840F40010206073
:1014E000206800F400101CE02B4BDFF8B0A09A42FB
:1014F0001BD1026842F080020260006800F08000A8
:1015000005903020CDE903718DE8610069465046B1
:10151000FFF714FE206840F480002060206800F48B
:101520008000059006B0BDE8F0871D4B9A42F9D1C6
:10153000026842F001020260026802F001020592B4
:10154000026842F08002026000684FF4807901AACC
:10155000884600F08000CDF800906946CDE904800F
:1015600082E8E0000F48FFF7E9FD01AACDF80090FE
:101570006946504682E8E001FFF7E0FD206840F44C
:1015800000002060206800F40000CAE73038024004
:10159000005400400004024000580040001C02407B
:1015A000005C004000000240032010B500F076F817
:1015B000002000F005F800F023F8002010BD000026
:1015C00070B50D4D04464FF47A700C4A29781268B4
:1015D000B0FBF1F0B2FBF0F000F0E0FD48B9102CE8
:1015E00007D200222146501E00F038F800206C601F
:1015F00070BD012070BD00000C000020180000200C
:101600000E4808B5016841F080510160006800F0A3
:10161000805000900948001D016841F4804101603C
:1016200000680022114600F480400090052000F080
:1016300015F8BDE80840052000F002B84038024027
:10164000002809DB410900F01F028900012001F197
:10165000E0219040C1F80001704700000E4BF0B44B
:101660001B680D46C3F30223C3F10706042E00D9FD
:101670000426191D072901D2002300E0DB1E0124E6
:1016800004FA06F19C40491E2940641E994014400A
:101690002143F0BC02F0A4B90CED00E0064900F0D3
:1016A000070210B54FF6FF040868044B204040EADB
:1016B00002201843086010BD0CED00E00000FA05A0
:1016C0001848F8B5016841F0805101600068164C77
:1016D00000F080500090206840F480302060FFF7D8
:1016E0001FFE4FF47A76054605E000BFFFF718FEAF
:1016F000401BB0420FD86068C003F7D5206840F4A3
:1017000000302060FFF70CFE054606E0FFF708FEFC
:10171000401BB04201D90320F8BD60688003F5D5B5
:101720000020F8BD403802400070004002480168C7
:1017300041F4807101607047007000402DE9F84F5E
:1017400004460078DFF824944FF000063746C007BF
:101750000ED0D9F8001021F40001C9F80010D9F812
:101760000010626B1143C9F80010606B00B90126CC
:10177000FE4D2068843500030ED5E16B286820F407
:10178000401008432860E06BB0F5801F01D010B115
:1017900002E0012600E0012720684FF4800BC00220
:1017A0000CD5216C286820F4400008432860206C88
:1017B000584501D1012601E000B901272068C10187
:1017C00000D50126800666D5E8483830016841F02A
:1017D000805101600068DFF898A300F0805000900D
:1017E000DAF8001041F48071CAF80010FFF798FD94
:1017F000804605E0FFF794FDA0EB080064287DD843
:10180000DAF80000C005F5D5DFF8608308F1680854
:10181000D8F8000010F440702AD0218E01F44071F5
:10182000814225D0D8F80010D8F8002021F440716A
:1018300042F48032C8F80020D8F8002022F4803228
:10184000C8F80020C8F80010D8F80000C0070FD072
:10185000FFF766FD824607E0FFF762FDA0EB0A0195
:1018600041F288308142CAD8D8F800008007F3D509
:10187000206BC0F3012103297ED0D9F8001021F498
:10188000F811C9F80010228ED8F80010C2F30B022C
:101890001143C8F800102078C00607D5286820F04A
:1018A000807028602868A16B084328602188AF48B1
:1018B0008830490405D5626E016821F44031114336
:1018C00001602188090405D5A26E016821F4402138
:1018D000114301602168C90305D5E26E016821F456
:1018E0004011114301602168890305D5226F016809
:1018F00021F4400111430160217800E018E149061C
:1019000005D5626C016821F0030111430160217863
:10191000090605D5A26C016821F00C011143016094
:101920002188C90505D5E26C016821F03001114319
:1019300001602188890505D5226D016821F0C0016B
:10194000114301602188490505D5626D016821F4C4
:101950004071114301602188090505D5A26D016818
:1019600021F44061114301602188C90407D5E26D6B
:10197000016821F4405100E041E0114301602188F9
:10198000890405D5226E016821F4404111430160AC
:101990002168490205D5A26F016821F080611143D9
:1019A000016021684FF0006A890209D5E26F016881
:1019B00021F0006111430160E16F514500D1012721
:1019C00021680A0700D50127490305D5626F016820
:1019D00021F04071114301602168090206D5D4F855
:1019E0008020016821F0805111430160DFF884916B
:1019F000012E0ED02068B0F1007F0AD08FE05E4A41
:101A0000D9F80030104023F4F8120243C9F800203E
:101A100039E7D9F800004E4620F08060C9F8000090
:101A2000FFF77EFC804605E0FFF77AFCA0EB08009C
:101A300064287DD830680001F6D421784B487C308A
:101A4000C90712D0616B81B9237A62680168D0F846
:101A500000C09201C1F3014142EA0142CCF30361AB
:101A600042EA016141EA0371016021680A0303D57A
:101A7000E26BB2F5801F04D0C9021AD5216C59451A
:101A800017D16368016894F80CC002689B01C1F328
:101A9000014143EA0141C2F3027241EA0C6141EAA9
:101AA000027101602968626A21F01F01521E114310
:101AB00029602168C90110D5238A62680168D0F8BD
:101AC00000C09201C1F3036142EA034242EA0162AB
:101AD000CCF3027142EA01710160216889010CD5E1
:101AE0006168228A237B94F808C0890141EA024197
:101AF00041EA036141EA0C7101603168B04641F08E
:101B000080613160FFF70CFC064604E0FFF708FC3B
:101B1000801B64280CD8D8F800000001F6D56FB3FC
:101B2000D9F800004E4620F08050C9F8000000E0CF
:101B300079E0FFF7F5FB074605E000BFFFF7F0FB94
:101B4000C01B64286FD83068C0438000F6D50748B2
:101B5000216880300A0301D5E26B1AB1C90225D58C
:101B6000216C19BB63690168277E08E008380240D0
:101B70000070004000380240FFFCFF0F5AE002688E
:101B8000C1F301419B0143EA0143C2F3027143EAFD
:101B9000076242EA0171016029686FF0FF03A26ADF
:101BA00021F4F85103EB02221143296021688902D4
:101BB00012D5E16F51450FD1238C62690168076826
:101BC0009201C1F3036142EA034242EA0162C7F3B0
:101BD000027142EA017101602178090716D5616935
:101BE0000268D0F800C08B01277FC2F30362CCF3F8
:101BF000014143EA014141EA026141EA07710160A2
:101C00002868E16A20F4403008432860306840F0DA
:101C100080503060FFF784FB044607E0FFF780FB4D
:101C2000001B642802D90320BDE8F88F3068C04348
:101C30008000F3D40020F7E72DE9F04705000F46B8
:101C400063D0444E306800F00F00B84209D23068CB
:101C500020F00F0038433060306800F00F00B842C9
:101C600053D128683C4C810712D5400703D5206822
:101C700040F4E05020602878000703D5206840F445
:101C800060402060A968206820F0F00008432060D0
:101C90002878C0072AD0304968680839012810D050
:101CA0000968022810D0890700292EDA216821F05E
:101CB000030101432160FFF733FB804641F288397D
:101CC0000DE009688903EFE78901EDE7FFF728FBDD
:101CD000A0EB0801494502D90320BDE8F0876868F8
:101CE000216801F00C01B1EB800FEFD1306800F0FA
:101CF0000F00B8420BD9306820F00F003843306035
:101D0000306800F00F00B84201D00120E5E72878E4
:101D1000400705D5E968206820F4E05008432060BA
:101D20002878000706D52869216821F4604141EA36
:101D3000C000206000F03EF82168084AC1F303119A
:101D4000515CC8400649086006480068FFF738FC47
:101D50000020C2E7003C0240083802406CEA006004
:101D600018000020100000200148006870470000A3
:101D7000180000200449054809680068044AC1F3B6
:101D80008221515CC840704708380240180000208A
:101D90007CEA00600449054809680068044AC1F308
:101DA0004231515CC840704708380240180000209A
:101DB0007CEA0060154910B51548096811F00C025D
:101DC00013D01449042A0FD0082A0ED10F4C241F17
:101DD0002268236802F03F025B0207D52068C0F347
:101DE0008810A0FB010106E0084610BD2168C1F380
:101DF0008811A1FB00010023FEF704FA2168C1F35A
:101E00000141491C4900B0FBF1F010BD0838024007
:101E10000024F40000366E012DE9F84F04004FF065
:101E200000076ED02078DFF868A3AAF10408C00785
:101E3000A8F104054CD0DAF800105046C1F3810136
:101E4000012908D00068C0F3810002280AD1D8F81F
:101E50000000400206D52868800339D56068002854
:101E6000DFD035E06068B0F5803F0BD010B1B0F541
:101E7000A02F11D0286820F480302860286820F432
:101E8000802002E0286840F480302860606890B1CB
:101E9000FFF746FA06460AE0286840F480202860EA
:101EA000F0E700BFFFF73CFA801B642872D828686F
:101EB0008003F7D50CE0FFF733FA064605E000BFD4
:101EC000FFF72EFA801B6428F0D828688003F7D427
:101ED0002078800742D5DAF80010504611F00C0F38
:101EE00008D00068C0F3810002280BD1D8F80000A8
:101EF000400207D42868800718D5E068012800D17F
:101F000014E041E1E0680028286817D040F00100A3
:101F10002860FFF705FA064605E000BFFFF700FA64
:101F2000801B0228C2D828688007F7D52069296855
:101F300021F0F80141EAC00028600FE020F0010024
:101F40002860FFF7EDF9064605E000BFFFF7E8F966
:101F5000801B02281ED828688007F7D42078000745
:101F600029D58B4861696C3000298146016812D0FF
:101F700041F001010160FFF7D3F9064605E000BF1B
:101F8000FFF7CEF9801B022804D8D9F8000080079B
:101F9000F6D510E089E021F001010160FFF7C0F9FA
:101FA000064604E0FFF7BCF9801B02287DD8D9F86B
:101FB00000008007F6D4207840076BD5DFF8D09179
:101FC00009F13809D9F80000C0000BD4D9F8001085
:101FD00041F08051C9F80010D9F80000012700F045
:101FE000805000906B480168C90512D4016883468F
:101FF00041F480710160FFF793F9064605E000BFE8
:10200000FFF78EF9801B64284FD8DBF80000C0056D
:10201000F6D55F4EA068683601280AD008B10528B9
:1020200011D0306820F001003060306820F00400EA
:1020300002E0306840F001003060A068A0B1FFF716
:102040006FF983460CE0306840F004003060F0E740
:10205000FFF766F9A0EB0B0141F28830814266D8A8
:1020600030688007F4D50EE0FFF75AF9834607E0A1
:10207000FFF756F9A0EB0B0141F28830814256D8A8
:1020800030688007F4D42FB1D9F8001021F08051C6
:10209000C9F80010A069C8B3DAF80010C1F38101D3
:1020A00002294BD00228286800E040E020F0807030
:1020B000286003D0FFF734F904463BE0FFF730F91E
:1020C000064604E0FFF72CF9801B02282FD8286869
:1020D0008001F7D4D4E90962D4E907012E4B5708EF
:1020E00094F82C20084303EB074343EA8611084386
:1020F00040EA026040F00050C8F80000286840F054
:1021000080702860FFF70CF9044606E03EE000BF4F
:10211000FFF706F9001B022809D828688001F7D5C7
:1021200034E000BFFFF7FCF8001B022802D90320AF
:10213000BDE8F88F28688001F4D427E00128D8F89A
:10214000000021D0E16900F480028A421CD1216A9A
:1021500000F03F028A4217D1626A47F6C07101401F
:10216000B1EB821F10D1A16A4FF0FF3200F440336F
:1021700002EB5101B3EB014F06D194F82C1000F0A3
:102180007060B0EB016F01D00120D1E70020CFE7F4
:1021900008380240007000400000FFFF401EB0F110
:1021A000807F10B501D3012010BD4FF0E0246061A5
:1021B0000F21601701F014FC0020A06107212161AC
:1021C00010BD00002DE9F04390F83C20012A42D0D8
:1021D000012280F83C2051F80C4BDFF880804FF052
:1021E000000991E8680051E9022723F44073B1F82F
:1021F0000CC03B43CF6923F480631343026823F48C
:102200000063234323F4805343EA050323F400537C
:1022100043EA060323F4804343EA07030C3923F41B
:102220007023424543EA0C4302D00D4CA2420CD12C
:102230008D8C23F47006D1E9073446EA055121F06C
:102240008071194321F000732343536480F83C905C
:102250000020BDE8F0830220FBE700000000014001
:1022600000040140F0B590F83C20012A3BD01F4EFD
:10227000012480F83C40022280F83D2002681C4D79
:102280005368B242D2F808C001D0AA4203D14F68C5
:1022900023F470033B430F6823F070031F43576020
:1022A0000268B24213D0B2F1804F10D0114B9A4263
:1022B0000DD0114B9A420AD0104B9A4207D0AA4235
:1022C00005D00F4B9A4202D00E4B9A4204D1896836
:1022D0002CF0800319439160002180F83D4080F884
:1022E0003C100846F0BD0220F0BD00000000014097
:1022F000000401400004004000080040000C0040C1
:10230000004001400018004010B5040003D094F8CC
:102310003D0010B107E0012010BD002084F83C0012
:10232000204600F00DF8022084F83D002068211DB1
:1023300000F07AFF012084F83D00002010BD00006D
:1023400008B500680649884208D10648016841F48A
:1023500080210160006800F48020009008BD00002A
:10236000004801404438024030B587B0044614218B
:102370006846FDF7B2FF24680022184D0223164973
:102380000320AC4210D10C6844F002040C600968D0
:10239000CDE9022001F00201059101210490CDE96F
:1023A00000130F48694612E00E4DAC4211D10C6883
:1023B00044F020040C60096801F02001059180219F
:1023C0000091CDE90132CDE9032007486946FEF7C7
:1023D000B5FE07B030BD00003038024000040140B7
:1023E00000040240004801400014024070B5044659
:1023F00090F83C0001280ED0012584F83C500220C2
:1024000084F83D000C2A19D007DC5AB1042A0DD0FB
:10241000082A1ED10EE0022070BD102A12D0142A04
:1024200017D113E0206800F065FF12E0206800F08B
:102430009BFF0EE0206800F0D3FF0AE0206801F067
:102440000BF806E0206801F033F802E0206801F0A4
:102450005BF8002084F83D5084F83C0070BD10B556
:10246000040003D094F83D0010B107E0012010BD36
:10247000002084F83C00204600F00CF8022084F88C
:102480003D002068211D00F0CFFE012084F83D00B2
:10249000002010BD08B500680649884208D10648EA
:1024A000016841F002010160006800F00200009044
:1024B00008BD0000000401404438024070B50446E5
:1024C00090F83C000D4601280ED0012684F83C60AF
:1024D000022084F83D000C2A45D007DC5AB1042ABA
:1024E0001BD0082A78D12CE0022070BD102A4ED0D3
:1024F000142A71D15DE0206800F0FCFE206881693B
:1025000041F0080181612068816921F00401816145
:1025100020682A698169114311E0206800F024FFD6
:102520002068816941F4006181612068816921F43A
:102530008061816120682969826942EA01218161A3
:102540004AE0206800F04CFF2068C16941F00801B2
:10255000C1612068C16921F00401C16120682A6954
:10256000C169114311E0206800F076FF2068C1695D
:1025700041F40061C1612068C16921F48061C161D9
:1025800020682969C26942EA0121C16124E020680A
:1025900000F08EFF2068416D41F008014165206820
:1025A000416D21F00401416520682A69416D1143A4
:1025B00011E0206800F0A8FF2068416D41F400613F
:1025C00041652068416D21F4806141652068296979
:1025D000426D42EA01214165002084F83D6084F8A3
:1025E0003C0070BD10B5040003D094F83D0010B15C
:1025F00007E0012010BD002084F83C00204600F0D8
:102600000CF8022084F83D002068211D00F00CFE2B
:10261000012084F83D00002010BD70477047000085
:102620002DE9F04102680446002540F60F06D06906
:1026300011689368304205D183067BD58B0679D526
:10264000216E7CE003F0010601F49077374371D0EE
:10265000C70707D0CF0505D501271762E26F42F003
:102660000102E267820708D5DA0706D0276802224E
:102670003A62E26F42F00402E267420708D5DA07E5
:1026800006D0236804221A62E26F42F00202E26777
:1026900002070AD501F02002324306D0236808223F
:1026A0001A62E26F42F00802E267020509D54A01A8
:1026B00007D523684FF400621A62E26F42F02002ED
:1026C000E267E26F002A2ED0800605D5880603D582
:1026D000216E09B1204688472168E06F8968490664
:1026E00002D410F0280F20D0204600F0C5FF20684B
:1026F0008168490614D5816821F040018160E06E4F
:1027000070B118490165E06EFEF7B6F900280AD0ED
:10271000E06E016D00E02046BDE8F041084709E0A9
:102720002046FFF77BFFBDE8F0812046FFF776FFEC
:10273000E567F8E7030605D50B0603D5616E0029AA
:10274000E9D1F0E74006EED54806ECD51368202124
:10275000204623F0400313606167656600F0D4F8FB
:10276000E1E700006536006010B5040002D0606F3C
:1027700010B107E0012010BD002084F87000204651
:1027800000F026F8242060672068016821F001012C
:102790000160204600F080FF0128ECD0606A10B193
:1027A000204600F0DDFE2068416821F49041416040
:1027B0002068816821F02A0181602068016841F069
:1027C000010101602046BDE8104000F02DBF00006F
:1027D000F0B587B0064614216846FDF77EFD4249F4
:1027E000002532680224414F14393F48032607234D
:1027F000BA421FD1026842F010020260006800F085
:1028000010000590086840F00100086008686946FB
:10281000049300F0010005904FF4F0508DE8710032
:102820003348FEF78BFC002225201146FEF716FFE9
:10283000252023E02F4FBA4224D12B48001F0268E5
:1028400042F480220260006800F48020059008684D
:1028500040F00200086008686946049300F0020036
:1028600005904FF440608DE871002348FEF766FC48
:10287000002227201146FEF7F1FE2720FEF7E0FE9A
:1028800007B0F0BD1D4B9A42FAD1026842F0200217
:102890000260006800F020000590086840F04000E9
:1028A0000860086800F040000590086840F00400E7
:1028B000086008680827694600F0040005904FF496
:1028C000E0408DE8F1000E48FEF738FC80206946B4
:1028D0008DE8F1000B48FEF731FC0022472011463D
:1028E000FEF7BCFE4720C9E7443802400010014013
:1028F0000000024000480040000402400014014073
:1029000000180240000802407047FEE77FB51348F8
:102910000024114B4FF400320094012501940294DD
:1029200003940360C0E90124046184610C4980F8C8
:102930002040C0E90A14C561C46080F83040456198
:10294000FDF750FF03206946CDE9000503480294D6
:10295000FDF774FE7FBD000000200140DC00002078
:102960000100000F7FB513480024114B4FF40032D3
:10297000009401250194029403940360C0E90124AA
:10298000046184610C4980F82040C0E90A14C561E3
:10299000C46080F830404561FDF724FF032069469C
:1029A000CDE9000503480294FDF748FE7FBD000015
:1029B00000220140240100200100000F09480021ED
:1029C000074AC0E900218160C16001614161816104
:1029D000016241628162C1620163FDF76BBF000069
:1029E000000005506C0100202DE9F04F87B0142144
:1029F0006846FDF772FCFE48016841F01001016075
:102A0000016801F010010591016841F04001016089
:102A1000016801F040010591016841F00201016087
:102A2000016801F002010591016841F008010160AF
:102A3000016801F008010591016841F0040101609D
:102A4000016801F004010591016841F00101016094
:102A5000016801F001010591016841F40071016014
:102A6000016801F400710591016841F48071016011
:102A7000016801F480710591016841F48061016091
:102A8000016801F480610591016841F02001016055
:102A9000016801F020010591016841F080010160A9
:102AA000006800224FF4004100F080000590D148FA
:102AB000FEF730FCD04800224FF48C51FEF72AFC80
:102AC000CE48002242F20801FEF724FCCC48002246
:102AD0000321FEF71FFCCB4800228021FEF71AFCE1
:102AE000C94800224421FEF715FCC84800224FF4D3
:102AF0008061FEF70FFCC64800224FF40461FEF728
:102B000009FCC44800220221FEF704FC02254FF60E
:102B1000BB7002AA69460024CDE900050326BE4821
:102B20000C2782E8D000FEF709FB09204FF0040AC9
:102B3000CDF800A06946CDE90360B748CDE901545E
:102B4000FEF7FCFA30204FF0050B02AA6946CDE9EA
:102B50000005B04882E85008FEF7F0FA02AA4FF6E6
:102B6000F370CDE90005AD48694682E8D000FEF774
:102B7000E5FA4FF4E850694602AACDE900059F48FE
:102B800082E8D000FEF7DAFAA80300900120694637
:102B9000CDE9010497480394FEF7D0FA092069466D
:102BA0004FF40079CDF80090CDE903609948CDE964
:102BB0000154FEF7C3FA40200294CDE900050A2033
:102BC0006946CDE903609348FEF7B8FA02AA48F2D5
:102BD0003F10CDE900058B48694682E8D000FEF73A
:102BE000ADFA02AA4FF2BB50CDE900054FF00E0836
:102BF000854882E850016946FEF7A0FA4FF48C50F0
:102C0000009001206946CDE901047B480394FEF75A
:102C100095FAFC20694602AACDE90005784882E8C9
:102C20005001FEF78BFA0820694602AACDE900059B
:102C30007A4882E85008FEF781FA02AA6E4869468F
:102C400082E85008CDE90075FEF778FA42F20800F4
:102C5000009001206946CDE9010468480394FEF71D
:102C60006DFA02AA4FF63F00CDE9000567486946B4
:102C700082E8D000FEF762FA02AA4EF20340CDE9E4
:102C800000055D48694682E85001FEF757FA64483E
:102C90006946CDF80090CDE901045A48FEF74EFA96
:102CA00002AA5E48694682E8D000CDE900A5FEF799
:102CB00045FA4FF42240694602AACDE9000554487E
:102CC00082E85001FEF73AFA0920CDF800906946F3
:102CD000CDE903604848CDE90154FEF72FFAA80278
:102CE0006946CDE9000444480294FEF727FA012022
:102CF0000096CDE90104424869460394FEF71EFAA6
:102D0000CDF800906946CDE901543C480394049401
:102D1000FEF714FA4FF420606946CDE900043A4802
:102D20000294FEF70BFA02AA3948CDE9007569460C
:102D300082E8D000FEF702FA802000900120694668
:102D4000CDE901042F480394FEF7F8F940206946C5
:102D500002AACDE900052B4882E85001FEF7EEF902
:102D600040200294CDE9000509206946CDE90360C1
:102D70002648FEF7E3F94420009001206946CDE99A
:102D8000010421480394FEF7D9F96802009001205C
:102D90006946CDE901041D480394FEF7CFF93002DE
:102DA0000294CDE900050A206946CDE90360174881
:102DB000FEF7C4F90120694602AACDE900050F48D3
:102DC00082E8D000FEF7BAF90C486946CDE900A4C4
:102DD0000294FEF7B3F90920CDF800A06946CDE9C9
:102DE00003600C48CDE90154FEF7A8F9802019E0F2
:102DF000303802400000024000200240000802403B
:102E00000028024000180240002402400014024042
:102E1000001C02400004024000100240000C02406E
:102E200000001110CDE900041B4869460294FEF72A
:102E300085F901204FF404610091CDE901041648A1
:102E400069460394FEF77AF92021144802AACDE9D5
:102E50000015694682E85008FEF770F901200095D8
:102E6000CDE901040E4869460394FEF767F9B00303
:102E7000694602AACDE90005094882E8D000FEF7BC
:102E80005DF9002217201146FEF7E8FB1720FEF738
:102E9000D7FB07B0BDE8F08F001C024000000240E5
:102EA000000402400E48002110B50C4C01230D4ACD
:102EB0000460C0E90121C0E9033141618161C16160
:102EC0000162FEF789FA06480021FEF72FFABDE8F5
:102ED000104003480021FEF755BA0000005400409E
:102EE000BC010020FFEAC0000E48002110B50C4CC8
:102EF00001230D4A0460C0E90121C0E903314161A9
:102F00008161C1610162FEF767FA06480021FEF7A0
:102F10000DFABDE8104003480021FEF733BA000067
:102F20000058004008020020FFEAC0000E480021BF
:102F300010B50C4C01230D4A0460C0E90121C0E921
:102F4000033141618161C1610162FEF745FA0648C2
:102F50000021FEF7EBF9BDE8104003480021FEF721
:102F600011BA0000005C004054020020FFEAC000DB
:102F70000EB504F09DFB134B0020104A1049186059
:102F80001B1D18601B1D18608DE807001A1F0E48D6
:102F9000111F04F075FF0C4805F08EF90A4890F8EF
:102FA0002D004007084802D505F0E0F901E005F0E2
:102FB00089F9BDE80E40044802F006B9416000609E
:102FC000DD61006000000020A004002010B588B082
:102FD0001C216846FDF781F9114800244FF4875100
:102FE0000E4AC0E90024C0E9024104618461FFF790
:102FF0008BF90B48FFF7F6FA602040F66F010222CA
:1030000004948DE80700064800226946FFF756FA47
:103010000348FFF7A9F908B010BD000000480140BF
:10302000E002002010B596B000241C210BA81294D9
:1030300013941494FDF751F92C216846FDF74DF9CE
:103040001D484FF487511B4B40F66F02C0E9003416
:10305000C0E90241C0E904428461FFF700FA164862
:1030600012A9129413941494FFF7FCF808200B94FF
:103070000C9404220BA9CDE90D400F480F94109435
:103080001194FFF7B3F94FF4005000940194010339
:103090000294CDE9044003940694CDE90741064823
:1030A000694609940A94FFF78DF80348FFF75CF925
:1030B00016B010BD00040140A00200200B48002102
:1030C00030B4094D4FF4E1340C220560C0E90141F0
:1030D00000F11004C160930184E80E00C161016237
:1030E000416230BCFFF740BB0010014020030020CC
:1030F0000A48002130B4084C0C224FF4E13304603C
:10310000C0E90131C160C0E904128161C16101629D
:10311000416230BCFFF728BB00480040A0030020FC
:103120000B48002130B4094D4FF4E1340C22056006
:10313000C0E9014100F11004C160930184E80E0070
:10314000C1610162416230BCFFF70EBB0014014057
:1031500020040020FEE7704770477047704700006A
:1031600070B5B4B0302121A8FDF7B7F814212DA80F
:10317000FDF7B3F884216846FDF7AFF8FEF7D6FAFD
:103180001F48016841F080510160006800F08050E4
:1031900032901C48016841F44041016000680225FA
:1031A0000C2300F4404032900120C8248205010421
:1031B0000826CDE92752CDE9210129A921A881E8D6
:1031C0007800FEF729FEFEF77BFAEA024FF4A051E1
:1031D00000242F94CDE930120F20CDE92D050621D2
:1031E0002DA8FEF729FD11940748169419941394FD
:1031F0001A941B9400906846FEF7A0FA34B070BD94
:10320000403802400070004040C9010005484FF0BE
:1032100000610368034A43F470030360803A11605D
:103220007047000088ED00E0F0B5274B4FF0804E6E
:10323000264D02689842264E264F274C09D07045ED
:1032400007D0A84205D0B04203D0B84201D0A04276
:1032500005D1D1F804C022F070024CEA0202984273
:103260001BD0704519D0A84217D0B04215D0B84233
:1032700013D0A04211D0194DA8420ED0184DA8422B
:103280000BD0184DA84208D0174DA84205D0174DB5
:10329000A84202D0164DA84203D1CD6822F4407254
:1032A0002A434D6922F080022A43026098428A68CC
:1032B000C2620A68826201D0A04201D10969016339
:1032C00001214161F0BD0000000001400004004008
:1032D00000080040000C0040000401400040014094
:1032E000004401400048014000180040001C00401C
:1032F00000200040F0B5026ADFF860C0184F22F0ED
:103300000102DFF860E00262066A4268836926F023
:1033100002060D68B8428C6803EA0C0323F003032D
:1033200044EA060445EA030501D0704505D1CB689F
:1033300024F00804234323F00404B84201D070456C
:1033400005D122F44076D1E9053233431A43426075
:103350008561496841630462F0BD00008FFFFEFF94
:103360000000014000040140F0B5026A194E1A4CF9
:1033700022F01002DFF864E00262056A43688269A5
:1033800025F02005D1F808C0A0420F6802EA060225
:1033900022F4407245EA0C1542EA072201D070453A
:1033A00006D1CE6825F0800545EA061525F04005D2
:1033B000A04201D0704507D1D1E9054623F440630E
:1033C00043EA840343EA8603436082614968816378
:1033D0000562F0BDFF8FFFFE0000014000040140C8
:1033E000F0B5026A194F1A4E22F48072DFF864E0D9
:1033F0000262056A4368C26925F40075D1F808C005
:10340000B0420C6802EA070222F0030245EA0C25EA
:1034100044EA020401D0704506D1CF6825F4006269
:1034200042EA072222F48065B04201D0704507D1FC
:1034300023F44052D1E9053642EA031242EA061368
:103440004360C4614968C1630562F0BD8FFFFEFF40
:103450000000014000040140F0B5026A124B114F18
:1034600022F4805298420262046A4268C36924F4DA
:1034700000548E680D6803EA070323F4407344EA9E
:10348000063443EA052302D0084DA84204D14D6911
:1034900022F4804242EA85124260C36149680164B5
:1034A0000462F0BDFF8FFFFE0000014000040140F8
:1034B000F0B5026ADFF844C022F480320262056A85
:1034C0004268446D25F400350E8960450C4F0B6849
:1034D00004EA070445EA064543EA040302D0094C1E
:1034E000A04204D14C6922F4803242EA04224260B4
:1034F0004365496881650562F0BD00000000014038
:103500008FFFFEFF00040140F0B5026ADFF844C0FF
:1035100022F480120262046A4268436D24F40014AB
:103520000E8960450C4F0D6803EA070344EA065410
:1035300043EA052302D0094DA84204D14D6922F483
:10354000802242EA8522426043654968C16504627F
:10355000F0BD000000000140FF8FFFFE00040140AD
:1035600090F82410C90706D00168836A4A6822F4DB
:1035700000321A434A6090F82410890706D5016882
:10358000C36A4A6822F480321A434A6090F82410D1
:10359000490706D50168036B4A6822F480221A4362
:1035A0004A6090F82410090706D50168436B4A6801
:1035B00022F400421A434A6090F82410C90606D546
:1035C0000168836B8A6822F480521A438A6090F8FB
:1035D0002410890606D50168C36B8A6822F400525C
:1035E0001A438A6090F82410490611D50168036CCB
:1035F0004A6822F480121A434A60016CB1F5801FB8
:1036000006D10168436C4A6822F4C0021A434A603A
:1036100090F82410090606D50168826C486820F4E9
:10362000002010434860704738B500250446C56740
:10363000FDF776FE03462068006800070BD56FF0A3
:103640007E400090002220464FF4001100F052F915
:1036500008B1032038BD2020606784F87050A0674F
:10366000002038BD10B5806B0021A0F85A10A0F8DA
:103670005210FEF7D3FF10BD10B5016820220023C1
:103680000C6824F490740C6001688C6824F00104C8
:103690008C608267036610BD2DE9F04104468068A6
:1036A000DFF820C2884F2368D4E90452E169284337
:1036B0001E6800250A438549104306EA0C060643A6
:1036C0001E604FF400422068E668436823F44053CC
:1036D000334343602368A669206AD3F808C03043A7
:1036E0002CF4306606439E602068B8420AD1086810
:1036F00010F0030052D001287BD002287AD0032892
:103700006ED186E0724B98420AD1086810F00C0026
:1037100079D004287BD0082877D00C2860D178E0B5
:103720006C4B98420AD1086810F030006BD010281A
:103730006DD0202869D0302852D16AE0664B98427B
:103740000AD1086810F0C0005DD040285FD0802802
:103750005BD0C02844D15CE0604B98420DD1086832
:1037600010F440704FD0B0F5807F50D0B0F5007F9E
:103770004BD0B0F5407F33D14BE0594B98420FD13D
:10378000086810F4406009D0B0F5806F3FD0B0F504
:10379000006F3AD0B0F5406F22D13AE0012120E02D
:1037A000504B98420DD1086810F440502BD0B0F522
:1037B000805F2CD0B0F5005F27D0B0F5405F0FD10F
:1037C00027E0494B98420BD1086810F440401AD0CA
:1037D000B0F5804F1BD0904217D0B0F5404F18D0B5
:1037E0001021E0694FF6EF7690423AD1092961D273
:1037F00002E00CE009E006E0DFE801F00D10255CD6
:10380000285C5C5C2B000021EBE70221E9E7042146
:10381000E7E70821E5E7FEF7ADFA01E0FEF7BAFABF
:103820006168400000EB5100B0FBF1F080B2A0F104
:103830001001B1423ED84FF6F0732168C0F3420246
:103840001840104326E02949606805E0FEF7B2FA07
:10385000E6E760684FF4803101EB5001B1FBF0F016
:10386000E4E7092926D2DFE801F0050817251C2521
:1038700025251F00FEF77EFA01E0FEF78BFA61684E
:1038800000EB5100B0FBF1F080B2A0F11001B142A9
:1038900010D82168C8600EE06068154901EB50013E
:1038A00005E0FEF787FAEAE7606802EB5001B1FB3A
:1038B000F0F0E9E701250020206660662846BDE8B3
:1038C000F0810000F369FFEF0010014090380240E2
:1038D0000044004000480040004C004000500040C0
:1038E0000014014000780040007C00400048E801DE
:1038F0000024F4002DE9F0479A4617460E46044688
:10390000089D4FF000094FF0200839E0681C37D0BF
:10391000FDF706FDA0EB0A00A84222D80DB32068EF
:10392000016849072CD5C069C043000528D4236825
:103930004FF40061196221680B6823F4D0730B60A7
:1039400021688B6823F001038B60C4F87480C4F88D
:103950007880C4F87C8000BF032084F87090BDE8B4
:10396000F08721680B6823F4D0730B6021688B68A3
:1039700023F001038B60C4F87480C4F87880EBE70F
:103980002068C06936EA000004D00020B842BDD0EB
:103990000020E4E70120F9E70148FEF741BE0000FE
:1039A000200300200148FEF73BBE0000A0030020DA
:1039B0000148FEF735BE000020040020FEE70000AD
:1039C0000FB4054B10B503A9044A029800F028F87B
:1039D00010BC5DF814FB000065620060D800002098
:1039E000090700284FEA116104DB00F1E02080F8AC
:1039F0000014704700F00F0000F1E02080F8141D63
:103A0000704702E008C8121F08C1002AFAD17047A7
:103A10007047002001E001C1121F002AFBD170474E
:103A20002DE9FF4F8BB09A460F460546002606E06B
:103A300025280BD052460D9990476D1C761C28788E
:103A40000028F5D10FB03046BDE8F08F0024A04625
:103A50000122604900E0044315F8013F203B02FACF
:103A600003F00842F7D128782E2817D115F8010F56
:103A700044F004042A280ED06FF02F022878A0F119
:103A8000300109290AD808EB880102EB410100EB5B
:103A900001086D1CF2E757F8048B6D1C2878692823
:103AA0003ED006DC0028CDD063280BD0642804D19A
:103AB00036E0732810D075284BD052460D999047A8
:103AC000761C85E017F8040B8DF8000000208DF8B7
:103AD0000100E946012003E057F8049B4FF0FF3056
:103AE00061074FF0000401D40AE0641C44450DDA7C
:103AF0008442FADB19F804100029F6D106E0641CB0
:103B00008442FCDB19F804100029F8D1264404E0B3
:103B100019F8010B52460D999047641EF8D257E0F0
:103B200001CF4FF00A0B002802DA40422D2102E0BB
:103B3000210504D52B218DF82410012103E0E10794
:103B400005D02021F7E70DF1200908910CE00021B4
:103B5000F9E701CF4FF00A0BF9E75946FCF7D5FB1F
:103B600001F1300209F8012D0028F6D1ADEB090072
:103B700000F1200B600701D44FF00108D84502DDA9
:103B8000A8EB0B0000E000208046002406E009A816
:103B90005246005D0D999047641C761C089884423B
:103BA000F5DB04E0302052460D999047761CB8F1C1
:103BB0000001A8F10108F5DC05E019F8010B5246F7
:103BC0000D999047761CBBF10001ABF1010BF4DCC1
:103BD0006D1C34E70928010058B1026A002A0FD091
:103BE0005379082B0CD10968D269914208D100F0B1
:103BF000C1BA04A340F28B3210A114A0FFF7E0BEBB
:103C0000704700002E2E2F4D6964646C65776172D9
:103C100065732F54686972645F50617274792F4CB8
:103C20007749502F7372632F636F72652F697076B7
:103C3000342F646863702E63000000006E65746941
:103C40006620213D204E554C4C00000041737365A9
:103C50007274696F6E2022257322206661696C651B
:103C600064206174206C696E6520256420696E2073
:103C700025730A002DE9FC41050018D02C6ADCB13F
:103C8000A16A00233C274FF00102481C4FF6FF7049
:103C90004FF48036638219D01E31B1FBF7F1B14287
:103CA00000D301460904090CA1820ED00EE02DA319
:103CB00040F2154239A103E02AA340F217423EA187
:103CC00043A0FFF77DFEBDE8FC81A282E16AB1F16D
:103CD000FF3F0CD01E31B1FBF7F1B14200D30146DA
:103CE0000904090C618100D162816189E181216B44
:103CF000B1F1FF3F0CD01E31B1FBF7F1B14200D35F
:103D000001460904090CA18100D1A281A189218267
:103D10006289A1898A4201D301B16381E17909B144
:103D2000206A08E0217F7F2901D8FF2003E0C02915
:103D300001D36FF07F400090606A019028B9E0697C
:103D40000099084040F0807001900A21204601F05F
:103D500033FA01AB6A4604F11C01284604F07CFAF0
:103D6000B1E700002E2E2F4D6964646C6577617297
:103D700065732F54686972645F50617274792F4C57
:103D80007749502F7372632F636F72652F69707656
:103D9000342F646863702E630000000064686370F1
:103DA0005F62696E643A206E6574696620213D2009
:103DB0004E554C4C00000000646863705F62696E91
:103DC000643A206468637020213D204E554C4C00BD
:103DD000417373657274696F6E20222573222066A9
:103DE00061696C6564206174206C696E652025646E
:103DF00020696E2025730A0070B5046A0821054603
:103E0000204601F0D9F90022284604F11C0101F0F6
:103E100095FEA079FF2801D2401CA0714FF4FA70E2
:103E200040F2E731B1FBF0F0208170BD294870B558
:103E300004684CE0206AA0B3417991B3818A69B1EA
:103E4000418A828A491C89B24182914206D1204628
:103E500000F0E8FF204601F0B7F937E0018A19B118
:103E60004A1E0282012906D0C189D1B14A1EC281EF
:103E7000012917D02AE0256A20466979012905D051
:103E80000A2903D0052901D004291FD100F04EFED4
:103E9000A88A698A401A022818DB00EBD070400813
:103EA000288213E0256A20466979012903D00A296E
:103EB00001D005290AD101F013F8A889698A401AAE
:103EC000022803DB00EBD0704008E8812468002C56
:103ED000B0D170BD500000202DE9F0470700994691
:103EE00016460D461BD0002D1ED04FF49A74362076
:103EF00021464FF4207204F0EDFAB0F100081BD017
:103F0000B8F80A00A246504506D232A340F27172B8
:103F10003EA14EA0FFF754FD032E12D10EE02DA3BB
:103F200040F2697253A103E02AA340F26A7259A1D8
:103F300046A0FFF745FD0020BDE8F087687903281B
:103F400008D1A8795B4C08B1606802E0FCF78CF9F5
:103F5000606028605146D8F804402046FCF7BDF95F
:103F600001202070607097F82C00A070286803F082
:103F70009BFB082E60600AD0042E08D0072E06D0C6
:103F8000032E06D16879052801D0042801D178686C
:103F9000E06000203A182318411C92F8262088B2CD
:103FA00006281A77F6D3444804F1F001C4F8EC006F
:103FB000012335220C46002000F062FA32462146E9
:103FC00000F0AAFAB9F1000F01D0A9F800004046AC
:103FD000B2E700002E2E2F4D6964646C6577617224
:103FE00065732F54686972645F50617274792F4CE5
:103FF0007749502F7372632F636F72652F697076E4
:10400000342F646863702E6300000000646863707E
:104010005F6372656174655F6D73673A206368659D
:10402000636B2074686174206669727374207062B7
:1040300075662063616E20686F6C6420737472759E
:10404000637420646863705F6D73670041737365A8
:104050007274696F6E2022257322206661696C6517
:1040600064206174206C696E6520256420696E206F
:1040700025730A00646863705F6372656174655FCD
:104080006D73673A206E6574696620213D204E5538
:104090004C4C0000646863705F6372656174655FB7
:1040A0006D73673A206468637020213D204E554C43
:1040B0004C000000B40000206382536310B50B4C29
:1040C0002078002805D1FF2209A317A11FA0FFF720
:1040D00077FC2078401E10F0FF00207004D1A0680B
:1040E0000AF0A8FA0020A06010BD0000B400002073
:1040F0002E2E2F4D6964646C6577617265732F5441
:10410000686972645F50617274792F4C7749502FDF
:104110007372632F636F72652F697076342F6468D2
:1041200063702E6300000000646863705F706362F8
:104130005F726566636F756E7428293A20726566D2
:10414000636F756E74206572726F72004173736570
:104150007274696F6E2022257322206661696C6516
:1041600064206174206C696E6520256420696E206E
:1041700025730A00FEB5046A0C210646204601F0AC
:104180001BF80422214602AB3046FFF7A5FE0500CE
:1041900028D069680423BDF808003222F0310F46A8
:1041A00000F06EF9ADF80800E06903F07DFA024610
:1041B000BDF80800394600F00DFA2A463946ADF838
:1041C000080000F0D7FA0F4843230F4A2946CDE9EB
:1041D00000600E4880680AF025FB0646284604F079
:1041E0007BFD01E04FF0FF36A079FF2801D2401C93
:1041F000A0714FF4FA7142F60310B0FBF1F0208188
:104200003046FEBD9CEB0060A0EB0060B4000020D7
:104210002DE9FE4F046A0021074689462046E161E8
:10422000062100F0C9FF0122214602AB3846FFF704
:1042300053FE06003CD071680223BDF80800392205
:10424000F0318A46554600F01BF9ADF808002946C2
:10425000BA8C00F02BFA032329463722ADF8080068
:1042600000F00EF9DFF884800025ADF8080000BFEB
:1042700018F805205146BDF8080000F04DF96D1CF6
:10428000ADF80800EDB2032DF2D380B232465146AC
:1042900000F070FA16484323164A3146CDE9007003
:1042A0001248401E80680AF0BDFA304604F014FD42
:1042B000A079FF2801D2401CA071C0B2062802D20A
:1042C0000121814000E03C214FF6FF7001EB4102EB
:1042D000C2EBC1124FF4FA7100EAC20000F2F3100F
:1042E000B0FBF1F020814846BDE8FE8FB50000200C
:1042F0009CEB0060A0EB00600B4870B500250468E3
:104300000EE0206A58B10189012903D9A1F1010108
:10431000018104E003D10581204600F0F7FF246805
:10432000002CEED170BD00005000002070B5046A72
:104330000022164D164E22626262E87808B1F068DB
:10434000A062287908B1306901E0A06A4008E06203
:10435000687908B1706903E0A06AC0EBC000C008CA
:1043600020630869E061A87930B1B06903F09CF975
:1043700020620121E17100E0E271E879002803D0B8
:10438000F06903F091F9606270BD0000C000002088
:10439000186B002010B5154C207800281ED1A0689D
:1043A000002805D0E52212A31FA129A0FFF708FBD2
:1043B0000AF0EEF8A060B0B1417A442241F0200149
:1043C00041722D4909F026FE2B494322A06809F0CD
:1043D000BFFE2A490022A0680AF0E8F82078401CB5
:1043E0002070002010BD4FF0FF3010BDB400002041
:1043F0002E2E2F4D6964646C6577617265732F543E
:10440000686972645F50617274792F4C7749502FDC
:104410007372632F636F72652F697076342F6468CF
:1044200063702E6300000000646863705F696E63F0
:104430005F7063625F726566636F756E7428293A98
:10444000206D656D6F7279206C65616B00000000F6
:10445000417373657274696F6E2022257322206622
:1044600061696C6564206174206C696E65202564E7
:1044700020696E2025730A009CEB0060054D0060EA
:104480002DE9F0411D46044628441746801C0E467F
:10449000442806D9154907A315A040F29A52FFF700
:1044A0008FFA601C80B23755411C355488B2BDE884
:1044B000F08100002E2E2F4D6964646C6577617267
:1044C00065732F54686972645F50617274792F4C00
:1044D0007749502F7372632F636F72652F697076FF
:1044E000342F646863702E630000000074EC006079
:1044F000417373657274696F6E2022257322206682
:1045000061696C6564206174206C696E6520256446
:1045100020696E2025730A0070B5442815460E46A2
:10452000044606D305A340F2A65212A11FA0FFF72E
:1045300047FA601C80B2355570BD00002E2E2F4DFD
:104540006964646C6577617265732F54686972641D
:104550005F50617274792F4C7749502F7372632FBB
:10456000636F72652F697076342F646863702E6391
:1045700000000000646863705F6F7074696F6E5F45
:10458000627974653A206F7074696F6E735F6F75CE
:10459000745F6C656E203C20444843505F4F50541C
:1045A000494F4E535F4C454E000000004173736508
:1045B0007274696F6E2022257322206661696C65B2
:1045C00064206174206C696E6520256420696E200A
:1045D00025730A0070B505461446001D0E46442892
:1045E00006D90BA340F2B75217A126A0FFF7E8F9AE
:1045F000681C80B2210E220C7155431C325498B2B3
:10460000210A421C315490B2411C345488B270BD0E
:104610002E2E2F4D6964646C6577617265732F541B
:10462000686972645F50617274792F4C7749502FBA
:104630007372632F636F72652F697076342F6468AD
:1046400063702E6300000000646863705F6F7074B5
:10465000696F6E5F6C6F6E673A206F7074696F6E12
:10466000735F6F75745F6C656E202B2034203C3D4A
:1046700020444843505F4F5054494F4E535F4C4580
:104680004E000000417373657274696F6E202225BD
:104690007322206661696C6564206174206C696EA8
:1046A0006520256420696E2025730A0070B50446D4
:1046B0001546801C0E46442806D907A340F2AE5288
:1046C00013A122A0FFF77CF9601C80B2290A3155A2
:1046D000411C355488B270BD2E2E2F4D6964646C18
:1046E0006577617265732F54686972645F50617297
:1046F00074792F4C7749502F7372632F636F7265F3
:104700002F697076342F646863702E630000000098
:10471000646863705F6F7074696F6E5F73686F72E7
:10472000743A206F7074696F6E735F6F75745F6C2D
:10473000656E202B2032203C3D20444843505F4F83
:104740005054494F4E535F4C454E000041737365C2
:104750007274696F6E2022257322206661696C6510
:1047600064206174206C696E6520256420696E2068
:1047700025730A0030B4FF23441C0B540023A0B25D
:10478000442802D2441C0B54F9E7F03081B21046A1
:1047900030BC04F063BB00002DE9F04FA34985B0A5
:1047A000824600200490C8600861BAF80A002C28EC
:1047B00019D3BAF8080001F10C074FF0F00956467A
:1047C00007E000BFA9EB01023668411A1FFA82F91F
:1047D00088B246B171894A464945F3D97168144691
:1047E000CDE90201FEE06FF0010005B0BDE8F08FF9
:1047F000A11C4FF0FF3589B20191A142F3D3738917
:10480000621C934203D903992144497803E031683B
:1048100009B1496809783428884634D007DC98B152
:10482000012814D003281AD0332808D122E03528D3
:1048300050D0362857D03A285DD03B2863D04FF06F
:104840000008002867D02DE000218846F9E70429F8
:1048500003D077A340F22E6211E00625F1E7042988
:104860004FF0040804D272A340F233627EA1B2E09A
:104870000725E6E7042904D06DA340F241627FA139
:10488000A9E00325DDE7012903D069A340F24F62C7
:1048900025E0B9F1F00F04D065A340F251627AA18E
:1048A00099E000256018801CB0F5803F9BD284B24F
:1048B000B8F1000F7AD000200090082D06D35CA339
:1048C0004FF4CF6276A17BA0FFF77AF8785D0028DD
:1048D00023D06BE0012904D055A340F255627FA19B
:1048E00079E00125ADE7042903D051A340F25962D4
:1048F000C5E70225A5E7042903D04DA340F25D6278
:10490000BDE704259DE7042903D049A340F2616275
:10491000B5E7052595E794B248E0B8F1040F4046A5
:1049200000D30420019B834602466946304604F0CA
:1049300045F958457FF457AFB8F1040F1ED95FEA27
:10494000887004D03AA340F2816267A143E001205D
:104950007855009802F0A8FE694B02460198A8F12C
:10496000040101F0FF08001D43F82520019980B2E1
:104970008842FFF438AF6D1C01909EE7B8F1040F38
:1049800007D0B8F1010F08D029A34FF4D2625DA17E
:1049900021E0009802F088FE01E09DF80000009000
:1049A000012078555648009940F825107089A0429A
:1049B00017D80299221A94B2081A80B2029084423F
:1049C000BFF411AF366816B1706803900AE018A3FF
:1049D00040F29D6250A137A0FEF7F2FF6FF0050094
:1049E00003E73EB10298844204D20398005DFF2899
:1049F0007FF4FEAE387848B1414800210068397034
:104A000001280ED0022804D0032808D004980028DA
:104A1000E6D000204FF02C0904906C20CFE6012056
:104A20000490EC204FF06C09C9E60000B4000020AF
:104A30002E2E2F4D6964646C6577617265732F54F7
:104A4000686972645F50617274792F4C7749502F96
:104A50007372632F636F72652F697076342F646889
:104A600063702E63000000006C656E203E3D206484
:104A700065636F64655F6C656E0000006C656E2039
:104A80003D3D2034000000006F7665726C6F6164FC
:104A900020696E2066696C652F736E616D6500001C
:104AA000636865636B206465636F64655F696478E0
:104AB00000000000417373657274696F6E202225D7
:104AC0007322206661696C6564206174206C696E74
:104AD0006520256420696E2025730A006C656E20B0
:104AE0003D3D2031000000006465636F64655F6CCC
:104AF000656E2025252034203D3D2030000000003B
:104B0000186B0020696E76616C6964206465636F60
:104B100064655F6C656E00006E6578742070627508
:104B20006620776173206E756C6C00002DE9FC4780
:104B3000046A04210746204600F03EFB032221467A
:104B400001AB3846FFF7C8F906003BD07168022375
:104B5000BDF804003922F03189464D46FFF790FC3C
:104B6000ADF804002946BA8CFFF7A0FD03232946BF
:104B70003722ADF80400FFF783FCDFF880800025C2
:104B8000ADF804004946BDF8040018F80520FFF709
:104B9000C3FC6D1CADF80400EDB2032DF2D380B25E
:104BA00032464946FFF7E6FD144843230097314655
:104BB000401E134A806809F095FD0546304604F012
:104BC0008BF801E04FF0FF35A079FF2801D2401C9F
:104BD000A071C0B20A2804D24FF47A7110FB01F020
:104BE00001E042F2107080B24FF4FA7100F2F3105B
:104BF000B0FBF1F020812846BDE8FC87B50000201D
:104C0000A0EB00602DE9FC47046A0321074620461B
:104C100000F0D2FA0322214601AB3846FFF75CF9D7
:104C200006004FD071680223BDF804003922F0312C
:104C300089464D46FFF724FC4FF410722946ADF823
:104C40000400FFF733FD042329463222ADF80400A7
:104C5000FFF716FCADF80400E06902F025FD0246FE
:104C6000BDF804002946FFF7B5FC03232946372287
:104C7000ADF80400FFF704FCDFF880800025ADF8F4
:104C8000040000BF18F805204946BDF80400FFF7EE
:104C900043FC6D1CADF80400EDB2032DF2D380B2DD
:104CA00032464946FFF766FD1448432300973146D4
:104CB000401E134A806809F015FD0546304604F091
:104CC0000BF801E04FF0FF35A079FF2801D2401C1E
:104CD000A071C0B20A2804D24FF47A7110FB01F01F
:104CE00001E042F2107080B24FF4FA7100F2F3105A
:104CF000B0FBF1F020812846BDE8FC87B50000201C
:104D0000A0EB006043482DE9F04144681646516825
:104D1000256A002D79D02879002876D070892C2832
:104D200073D30878022870D194F82C20002008E072
:104D300023180F1893F826303F7FBB4265D1401CE3
:104D4000C0B2824201D90628F2D3486802F0ACFC16
:104D50002968884259D129463046FFF71DFD08BB16
:104D60002D4A5078F0B12D4977680879052804D08C
:104D7000062821D0022836D047E06879012806D0DD
:104D8000032814D0042812D0052810D03DE039465D
:104D90002046FFF7CBFA94F82D00000703D52046F4
:104DA000FFF72AF831E02046FEF764FF2DE0394690
:104DB0002046FFF7BBFAF6E76879032805D00128FB
:104DC00003D0042801D005281FD1206A0C2100F04F
:104DD000F3F9134B20461A46114603F03DFA2046DC
:104DE000FFF716FA11E0687906280ED1907825466B
:104DF000246A50B100202081886802F055FCA0612F
:104E00003869E061284600F0D7F83046BDE8F04147
:104E100003F062BFBC350020C0000020186B0020EA
:104E20009CEB00602DE9FE43046A0746002C51D03C
:104E3000607900284ED0A069002502903846A5610F
:104E4000E561256265622563E562A562A5826582EA
:104E50002582E58100F04CFA60B30722214601ABC0
:104E60003846FFF739F8060024D071680423BDF8EE
:104E700004003622F0318846FFF702FBADF804004B
:104E8000029802F011FC0246BDF804004146FFF70B
:104E9000A1FB32464146ADF80400FFF76BFC0E481B
:104EA0004323009702AA3146806809F01BFC304674
:104EB00003F012FF094B38461A46114603F0CCF9AD
:104EC0000021204600F078F92079002802D0FFF771
:104ED000F5F82571BDE8FE83B40000209CEB00606E
:104EE0002DE9FC47046A05210746204600F064F9D5
:104EF0000322214601AB3846FEF7EEFF06003CD008
:104F000071680223BDF804003922F03189464D460C
:104F1000FFF7B6FAADF804002946BA8CFFF7C6FBD6
:104F2000032329463722ADF80400FFF7A9FADFF87A
:104F300084800025ADF804004946BDF8040018F847
:104F40000520FFF7E9FA6D1CADF80400EDB2032D62
:104F5000F2D380B232464946FFF70CFC1548432392
:104F6000009704F11802401E3146806809F0BAFB30
:104F70000546304603F0B0FE01E04FF0FF35A07962
:104F8000FF2801D2401CA071C0B20A2804D24FF4FD
:104F9000FA6110FB01F001E044F6206080B24FF4AA
:104FA000FA7100F2F310B0FBF1F020812846BDE861
:104FB000FC870000B50000202DE9FE43070073D0F8
:104FC0003C6A002C7CD00121204600F0F5F8032239
:104FD000214602AB3846FEF77FFF06007AD07168A3
:104FE0000223BDF808003922F03189464D46FFF70B
:104FF00047FAADF808002946BA8CFFF757FB04239F
:1050000029463222ADF80800FFF73AFAADF8080059
:10501000E06902F049FB0246BDF808002946FFF7A7
:10502000D9FA042329463622ADF80800FFF728FAFA
:10503000ADF80800A06902F037FB0246BDF8080091
:105040002946FFF7C7FA032329463722ADF808009F
:10505000FFF716FADFF8BC800025ADF8080000BFA6
:1050600018F805204946BDF80800FFF755FA6D1CF1
:10507000ADF80800EDB2032DF2D380B232464946B6
:10508000FFF778FB24484323244A3146CDE90070DA
:105090002048401E806809F0C5FB0546304603F0F5
:1050A0001BFE19E000E00BE01DA340F277122AA1DD
:1050B00030A0FEF785FC6FF00F00BDE8FE8309E02D
:1050C00017A340F2791235A12AA0FEF779FC6FF000
:1050D0000500F2E74FF0FF35A079FF2801D2401C10
:1050E000A071C0B2062802D20121814000E03C211B
:1050F0004FF6FF7001EB4102C2EBC1124FF4FA719F
:1051000000EAC20000F2F310B0FBF1F02081284663
:10511000D3E70000B50000209CEB0060A0EB00602E
:105120002E2E2F4D6964646C6577617265732F5400
:10513000686972645F50617274792F4C7749502F9F
:105140007372632F636F72652F697076342F646892
:1051500063702E6300000000646863705F73656CA9
:105160006563743A206E6574696620213D204E5552
:105170004C4C0000417373657274696F6E20222578
:105180007322206661696C6564206174206C696EAD
:105190006520256420696E2025730A0064686370A9
:1051A0005F73656C6563743A206468637020213DA9
:1051B000204E554C4C00000042798A4203D0417188
:1051C000002282710281704770B505006FF00F04F4
:1051D0001AD095F82D00C0071BD0A88C4FF0FF36D1
:1051E0002C6AB0F5107F0DD3002C1BD0207908B1AC
:1051F000FEF764FF34212046FBF76FF8FFF7CAF88B
:10520000002816D0304670BD14A340F2E72221A139
:1052100003E012A34FF43A7222A12BA0FEF7D0FBB9
:10522000204670BD342002F05DFB0400EAD02C6201
:10523000E0E70120207195F82D00400705D40221F8
:105240002046FFF7B9FF002070BD2846FEF7E0FFBB
:105250000028F9D02846FFF7E5FDD3E72E2E2F4D85
:105260006964646C6577617265732F5468697264F0
:105270005F50617274792F4C7749502F7372632F8E
:10528000636F72652F697076342F646863702E6364
:10529000000000006E6574696620213D204E554C6B
:1052A0004C0000006E65746966206973206E6F742F
:1052B0002075702C206F6C64207374796C6520707D
:1052C0006F72743F00000000417373657274696F00
:1052D0006E2022257322206661696C6564206174EA
:1052E000206C696E6520256420696E2025730A0094
:1052F00040B1006A30B140790A2805D0052803D0B2
:10530000042801D0002070470120704710B5026AC0
:10531000044651790C290BD0062909D001290BD05C
:10532000082918D0032926D19079022820461ED3B7
:10533000BDE81040FEF76CBF90790528204603D8E1
:10534000BDE81040FFF738BEFFF76CFD2046BDE812
:105350001040FFF739BF90790128204603D8BDE8F7
:105360001040FEF749BDBDE81040FEF783BCBDE824
:105370001040FFF747BC10BD70B50C4605468807C6
:1053800006D006A34FF4B67210A118A0FEF718FBC2
:10539000A86800682060A868046070BD2E2E2F4D9C
:1053A0006964646C6577617265732F5468697264AF
:1053B0005F50617274792F4C7749502F7372632F4D
:1053C000636F72652F6D656D702E63006D656D7016
:1053D0005F667265653A206D656D2070726F7065ED
:1053E000726C7920616C69676E65640041737365E6
:1053F0007274696F6E2022257322206661696C6564
:1054000064206174206C696E6520256420696E20BB
:1054100025730A0010B580680468002C0CD0216840
:10542000A207016006D005A34FF48C720FA118A04B
:10543000FEF7C6FA204610BD002010BD2E2E2F4DBF
:105440006964646C6577617265732F54686972640E
:105450005F50617274792F4C7749502F7372632FAC
:10546000636F72652F6D656D702E63006D656D7075
:105470005F6D616C6C6F633A206D656D702070724A
:105480006F7065726C7920616C69676E656400008D
:10549000417373657274696F6E20222573222066D2
:1054A00061696C6564206174206C696E6520256497
:1054B00020696E2025730A0070B5094D0024064648
:1054C00004EB440005EBC000017D29B18068B042C7
:1054D00002D1204600F034F9641C0A2CF0DB70BDC8
:1054E000386B00202DE9F74F84B04FF00A0B0024F1
:1054F0000646DA465F46D94602940194009404EBCE
:10550000440050490A2F039001EBC00898F814504A
:105510001DD0002D2AD0012D08D0022D06D24AA37D
:1055200040F2231256A166A0FEF74AFA9EB13168F6
:10553000D8F8040081420ED1069820B1D8F808109E
:105540000698814207D1204607B0BDE8F08F002DB4
:10555000E1D127460AE0012D16D0022D06D3B8F876
:1055600012000099884201D3A2460090641C24B224
:105570000A2CC4DB059881074FF0FF30E4D40A2FD2
:1055800016D018DA3C463EE02E49039851F8300018
:105590000028B8F8120005D002998842E6D3A14647
:1055A0000290E3E701998842E0D3A3460190DDE74A
:1055B0000599C907C8D0BAF10A0F51460EDA0C4650
:1055C000204801EB440150F8310080B11EA340F2A5
:1055D0006D1245A13AA0FEF7F3F908E0BBF10A0FFE
:1055E000594603DBB9F10A0F4946ADDA0C460A2CDD
:1055F00006DB15A340F27F1241A131A0FEF7E0F9CE
:10560000204600F09DF80A2C06DB0FA340F283121F
:105610003BA12BA0FEF7D4F90A4804EB440100EBB0
:10562000C105287D30B108A34FF4C27239A124A06E
:10563000FEF7C6F90EB13068686000210698A860D0
:10564000698280E7386B00202E2E2F4D6964646CD0
:105650006577617265732F54686972645F50617217
:1056600074792F4C7749502F7372632F636F726573
:105670002F697076342F6574686172702E63000034
:105680007374617465203D3D204554484152505F1C
:1056900053544154455F50454E44494E47207C7C0D
:1056A000207374617465203E3D204554484152503A
:1056B0005F53544154455F535441424C45000000F0
:1056C000417373657274696F6E20222573222066A0
:1056D00061696C6564206174206C696E6520256465
:1056E00020696E2025730A006172705F7461626CBC
:1056F000655B695D2E71203D3D204E554C4C000090
:1057000069203C204152505F5441424C455F53490F
:105710005A4500006172705F7461626C655B695D1F
:105720002E7374617465203D3D20455448415250AC
:105730005F53544154455F454D505459000000009B
:1057400070B5074C00EB4005002654F8350018B141
:1057500003F0C2FA44F8356004EBC500067570BD6D
:10576000386B00202DE9F0430D00074685B009D0C5
:105770007C684FF480782088404542D12079062803
:105780003FD109E021A340F28A222EA131A0FEF7E9
:1057900017F905B0BDE8F0836079042831D160883D
:1057A00008282ED1D4F80E0004906868A16920B1B1
:1057B000814202D10126334601E000260223284619
:1057C00004F1080204A9914600F0ACFBE0884045D2
:1057D00003D0B0F5007F14D10FE096B10222284625
:1057E00004AB291DCDE90232CDE9001905F12603EC
:1057F0004A46194600F096FA03E004A92846FEF747
:10580000EBF9384603F068FAC3E700002E2E2F4D5F
:105810006964646C6577617265732F54686972643A
:105820005F50617274792F4C7749502F7372632FD8
:10583000636F72652F697076342F6574686172705A
:105840002E6300006E6574696620213D204E554C24
:105850004C000000417373657274696F6E202225DD
:105860007322206661696C6564206174206C696EC6
:105870006520256420696E2025730A00FEB50400AA
:1058800015460E4606D143A340F21E324FA153A047
:10589000FEF796F836B93FA340F21F3259A14FA048
:1058A000FEF78EF835B93BA34FF4487258A14BA0D0
:1058B000FEF786F82868214600F064FE08B1584BD0
:1058C0003EE02868C0F303110E2924D0D4E9012159
:1058D0000A400140914208D080B2A0F57E41A9392A
:1058E00003D0E068B0B304F10C054E4B4E481A7873
:1058F00002EB420100EBC1010F7D022F2ED38F6816
:10590000A7422BD12F6849688F4227D131462046C4
:1059100000F08CF8FEBD01228DF8042000208DF8E7
:1059200005005E218DF80610687801AB00F07F005D
:105930008DF80700A8788DF80800E8788DF8090040
:105940004FF4006004F1260231460090204600F03A
:10595000C9FBFEBDFFE76FF00300FAE75FF000024E
:1059600002EB420100EBC1010F7D022F08D38F68CB
:10597000A74205D12F6849688F4201D11A70C5E747
:10598000521CD2B20A2AEBD332462946204600F0F6
:10599000D5F8DEE72E2E2F4D6964646C6577617251
:1059A00065732F54686972645F50617274792F4C0B
:1059B0007749502F7372632F636F72652F6970760A
:1059C000342F6574686172702E6300006E657469AF
:1059D0006620213D204E554C4C00000041737365FC
:1059E0007274696F6E2022257322206661696C656E
:1059F00064206174206C696E6520256420696E20C6
:105A000025730A007120213D204E554C4C000000AA
:105A100069706164647220213D204E554C4C000039
:105A200084EA0060C8000020386B00202DE9F843AC
:105A30001546884606461C4802EB450100EBC104AA
:105A4000207D022806D219A340F2EE2225A131A022
:105A5000FDF7B6FF144A05EB4501207D02EBC105B9
:105A60000C35022813D1608A0327B0F58E7F04D944
:105A7000211D304600F010FA07E0B0F5877F06D30D
:105A8000211D2A46304600F00DFA00B927754FF463
:105A9000006006F126022B4641460090304600F099
:105AA00021FBBDE8F8830000386B00202E2E2F4D1F
:105AB0006964646C6577617265732F546869726498
:105AC0005F50617274792F4C7749502F7372632F36
:105AD000636F72652F697076342F657468617270B8
