:020000040800F2
:10000000E85E0020E1010008B9310008692B000812
:10001000B5310008890C00085D36000800000000BA
:100020000000000000000000000000001532000881
:10003000730D000800000000BB31000817320008F3
:10004000FB010008FB010008FB010008FB010008A0
:10005000FB010008BD310008FB010008FB0100089E
:10006000FB010008FB010008FB010008FB01000880
:10007000FB010008FB010008FB010008FB01000870
:10008000FB010008FB010008FB010008FB01000860
:10009000FB010008FB010008FB010008FB01000850
:1000A000FB010008FB010008FB010008FB01000840
:1000B000FB010008FB010008FB010008FB01000830
:1000C000FB010008FB010008FB010008FB01000820
:1000D000FB010008FB010008FB010008FB01000810
:1000E000FB010008FB010008FB010008FB01000800
:1000F000FB010008FB010008FB010008FB010008F0
:10010000FB010008FB010008FB010008FB010008DF
:10011000FB010008FB010008FB010008FB010008CF
:10012000FB010008FB010008FB010008FB010008BF
:10013000FB010008FB010008FB010008FB010008AF
:10014000FB010008FB010008FB010008FB0100089F
:10015000FB010008FB010008FB010008FB0100088F
:10016000FB010008FB010008FB010008FB0100087F
:10017000FB010008FB010008FB010008FB0100086F
:10018000FB010008FB010008FB010008FB0100085F
:10019000FB010008FB010008FB010008FB0100084F
:1001A000952F0008852F0008FB010008FB010008BF
:1001B000FB010008FB010008FB010008FB0100082F
:1001C000FB010008FB010008DFF810D000F0A4F8E4
:1001D00000480047A5390008AFF30080E85E002022
:1001E0000648804706480047FEE7FEE7FEE7FEE7D1
:1001F000FEE7FEE7FEE7FEE7FEE7FEE7D93200088E
:10020000C90100082DE9F05F0546002092469B4693
:1002100088460646814640241BE02846414647461C
:10022000224600F069F853465A46C01A914110D34D
:1002300011461846224600F050F82D1A67EB0108C7
:100240004F4622460120002100F047F817EB000935
:100250004E41201EA4F10104DFDC484631462A4607
:100260004346BDE8F09F40EA01039B0703D009E045
:1002700008C9121F08C0042AFAD203E011F8013B92
:1002800000F8013B521EF9D27047D2B201E000F8EB
:10029000012B491EFBD270470022F6E710B513462A
:1002A0000A4604461946FFF7F0FF204610BD30B558
:1002B0000B46014600202022012409E021FA02F524
:1002C0009D4205D303FA02F5491B04FA02F52844BE
:1002D000151EA2F10102F1DC30BD202A04DB203A18
:1002E00000FA02F1002070479140C2F1200320FA89
:1002F00003F3194390407047202A04DB203A21FA87
:1003000002F00021704721FA02F3D040C2F120022E
:100310009140084319467047064C074D06E0E068D7
:1003200040F0010394E8070098471034AC42F6D33C
:10033000FFF74EFF6C7700088C77000800B585B09A
:10034000012002900C2004900220019003200390D1
:100350004CF20370009069460C4800F0B9FF4FF66C
:100360008070009069460A4800F0B2FF4FF23F00EB
:1003700000906946074800F0ABFF372000906946BF
:10038000054800F0A5FF05B000BD0000000C0240CC
:1003900000100240001402400018024008B500BFDF
:1003A0004748006840F00100454908600846006879
:1003B00000F00100009000BF00BF00BF08460068C9
:1003C00040F0020008600846006800F0020000905B
:1003D00000BF00BF00BF0846006840F0040008608E
:1003E0000846006800F00400009000BF00BF00BF96
:1003F0000846006840F0080008600846006800F001
:100400000800009000BF00BF00BF0846006840F031
:10041000100008600846006800F01000009000BF5F
:1004200000BF00BF0846006840F020000860084692
:10043000006800F02000009000BF00BF00BF084629
:10044000006840F0400008600846006800F0400086
:10045000009000BF00BF00BF0846006840F0800069
:1004600008600846006800F08000009000BF00BFF0
:1004700000BF0846006840F48070086008460068C5
:1004800000F48070009000BF00BF00BF0846006805
:1004900040F4007008600846006800F400700090A6
:1004A00000BF00BF00BF0846006840F480600860DD
:1004B0000846006800F48060009000BF00BF08BDDF
:1004C000303802407CB5044600F0DEF9054600F005
:1004D000CBF906460020CDE900040848006800EB8F
:1004E000800202EBC002064800EB82002B46324637
:1004F000416A0248006802F001FD7CBD4000002016
:10050000D44D002010B5A2B00446C02006900521AD
:1005100008910820019040030C9001A801F03EFAD8
:1005200022B010BD2DE9F04106460F461446A4F155
:1005300020001449096801EB4101134B03EB8101D1
:100540008968C98848430F49096801EB410103EBF9
:10055000810189688988CD1DE91705EB5171C910A2
:10056000084B1B6803EB4303DFF81CC00CEB830351
:100570009B681B6800FB01323946304600F0FAFBED
:10058000BDE8F08140000020444D002010B500215E
:10059000044802F0A5FA00224FF48071024800F0EE
:1005A000A3FF10BD5C4D00200020024010B509489B
:1005B0000068806940F001000649096888610021EF
:1005C000054802F05BFA01221102044800F08CFF9A
:1005D00010BD00009C4D00205C4D0020002002401A
:1005E0002DE9FF5F04461546984601264FF00009A5
:1005F00000274FF0000AAB4600E07F1C1BF8011BF0
:100600000029FAD100F030F93D49096801EB4101B8
:100610003C4A02EB810189688988B0FBF1FAB8F1A4
:10062000010F06D0B8F1020F15D0B8F1030F22D197
:100630000FE0AAEB07003249096801EB4101314A9A
:1006400002EB810189688988484304EB500086B237
:1006500013E0264611E0AAEB07012948006800EBE9
:100660004000284A02EB800080688088624201FBDB
:10067000002086B201E0264600BF00BF012E02DB4B
:10068000B6F5004F00DB012614E02A7830460199C8
:10069000FFF748FF1A48006800EB4000194901EBDA
:1006A000800080688088304486B26D1C09F10100AA
:1006B0001FFA80F900F0D8F81149096801EB4101EF
:1006C000104A02EB81018968898809FB110080B218
:1006D0000B49096801EB410102EB810189688988B6
:1006E000884201D3012000E00020297809B10121CE
:1006F00000E0002108400028C7D1BDE8FF9F0000AE
:1007000040000020444D002070B504460D4600F026
:100710009DF8C088604386B203232A4631460020F4
:10072000FFF75EFF70BD000030B503460C4617486A
:10073000006800EB800101EBC001154800EB81006F
:100740000069022810D100F08FF804FB003041004E
:100750000E48006800EB800505EBC0050C4800EB77
:100760008500406A42520FE000F07EF804FB003042
:1007700081000648006800EB800505EBC0050448D1
:1007800000EB8500406A425030BD00004000002070
:10079000D44D00202DE9FC4704460D4617469846E7
:1007A00000BF2749096801EB4101264A52F82100A0
:1007B00000F08AF92248006800EB800101EBC001DB
:1007C000214800EB81000069022811D100F04CF8AB
:1007D00000FB05411A48006800EB800202EBC002F2
:1007E000194800EB8200406A022202FB010610E079
:1007F00000F03AF800FB05411148006800EB800268
:1008000002EBC002104800EB8200406A042202FBA7
:10081000010600F029F8A0EB07090948006800EB81
:100820004000084951F8200043463A463146CDE998
:1008300000900348006802F061FBBDE8FC870000FF
:1008400040000020444D0020D44D002004480068A2
:1008500000EB4000034901EB800080687047000016
:1008600040000020444D00200548006800EB800156
:1008700001EBC001034800EB8100806A7047000073
:1008800040000020D44D00200548006800EB8001A6
:1008900001EBC001034800EB8100C06A7047000013
:1008A00040000020D44D002010B502F06BF91E4826
:1008B0001E49086000211D484161022181612E21ED
:1008C000C1611921016240F24E31416240F2F911D9
:1008D000816240F20F2101634FF48461C162FFF72E
:1008E00011FE0021114880F8341080F8351080F88E
:1008F00036104FF4487101664FF4F07141660020E4
:100900000A494860002109488160C160016100F026
:1009100065FE10B9054800F053F8044800F0DCFE0D
:1009200000F0DEF8002010BD006801409C4D002062
:1009300030B58DB004460D4600200090FFF794FFBF
:10094000019000200290FFF79FFF03900020049089
:100950000995FF200590002006908DF830000021B9
:100960008DF831108DF832104FF4C06007900720D9
:100970000890FFF779FF0A90FFF786FF0B90224659
:1009800069460C4800F0FAFD4FF0FF3004EB4401DB
:10099000094A02EB81014860084804EB440102EB7C
:1009A000810188604FF07F4004EB440142F8210050
:1009B0000DB030BD9C4D0020444D00202000002093
:1009C00010B586B0044600BF2848006840F080603B
:1009D000264908600846006800F08060009000BF6B
:1009E00000BF00BF21481438006840F400001F49D0
:1009F000143908600846006800F40000009000BF49
:100A000000BF002003900E200590022002900320DA
:100A100004904020019001A9154800F059FC4FF4C2
:100A20002240019001A9134800F052FC4EF203400D
:100A3000019001A9104800F04BFC4FF2BB5001900F
:100A400001A90E4800F044FCFC20019001A90C48CB
:100A500000F03EFC012002900002019001A906482E
:100A600000F036FCFFF792FD06B010BD443802409E
:100A700000180240001C02400020024000240240F6
:100A80000028024001490860704700004000002033
:100A90000449096801EB4101034A02EB8101486006
:100AA0007047000040000020444D002004490968C0
:100AB00001EB4101034A02EB8101886070470000AD
:100AC00040000020444D00200349096801EB41012A
:100AD000024A42F82100704740000020444D0020A7
:100AE00010B501241A481B49086002201A494861C0
:100AF00088610620C86004208860022008600861C0
:100B000007204860E1021348016200201149486053
:100B10001021104801610901816109014162002130
:100B200081620821C1600121816040214161002171
:100B3000C16100F067F80849064801F043FE00B1C2
:100B400000E0002440F6182000F008F8204610BD10
:100B5000400100A0844E0020B84E002038B5044665
:100B600000200090012025490860102048600120E5
:100B700088600020C8604FF6FF72214801F057FEE0
:100B8000012000F091FB02201C4908601020486001
:100B9000012088600020C8604FF6FF72184801F0FD
:100BA00046FE032015490860102048600820886030
:100BB0000020C8604FF6FF72114801F038FE4FF474
:100BC0000870009004200D49086010204860012042
:100BD00088600098C8604FF6FF72094801F027FE50
:100BE0002146074801F00FFE05480068406940F6BD
:100BF0001821084302490968486138BDD44E0020D5
:100C0000844E002010B586B0044600BF1948006825
:100C100040F00100174908600846006800F0010034
:100C2000009000BF00BFFFF789FB012003900C205C
:100C3000059002200290032004900120019001A958
:100C40000D4800F045FB4FF40060019001A90B48EE
:100C500000F03EFB4FF40140019001A9084800F06C
:100C600037FB0C20019001A9064800F031FB06B0CB
:100C700010BD000038380240000802400014024055
:100C800000180240001C024000BFFEE72DE9F047BB
:100C90000C4617469C46DDF82080D0F80090D9F825
:100CA000449009F0404948EA0C4A49EA0A09D0F858
:100CB00000A0CAF84490D0F80090C9F83C70D0F871
:100CC0000490B9F5403F4ED104F07F4604F47F0113
:100CD00004F47F42E3B2D0F80890B9F1000F06D1D6
:100CE00042EA010949EA060949EA030536E0D0F873
:100CF0000890B9F1010F04D142EA010949EA03055C
:100D00002CE0D0F80890B9F1020F09D1C90C920A71
:100D1000DB084FEA421949EAC12949EA03051DE007
:100D2000D0F80890B9F1030F0CD1F60FC90CD20A14
:100D3000DB084FEA421949EA812949EAC63949EAFA
:100D400003050BE0360F090D120B1B094FEA0219C0
:100D500049EA012949EA063949EA0305D0F8009031
:100D6000C9F8385003E0D0F80090C9F80C40BDE84D
:100D7000F08770472DE9FC4F0746894692464FF0B1
:100D8000000800263A48006800EB4000394901EBB2
:100D900080008068B0F806B03548006800EB40007D
:100DA00001EB800080688588E81DC11700EB517158
:100DB000C910C5EBC101C9B2019100BF54E0E81DE3
:100DC000C11700EB5171C91001FB08A4C11700EB5A
:100DD0005171C910012904D0022905D0032909D174
:100DE00009E0207800900FE06078217840EA012047
:100DF000009009E000BF20780004617840EA0120FB
:100E0000A1780843009000BF00BF002624E0A91B82
:100E100001980844401E012101FA00F000990840A1
:100E200060B11349096801EB4101124B53F82120CD
:100E3000B91988B24946FFF777FC0CE00C490968FC
:100E400001EB41010B4B03EB81014A68B91988B2F0
:100E50004946FFF769FC761CAE42D8D309F1010080
:100E60001FFA80F908F10108D845A8D3BDE8FC8F26
:100E700040000020444D0020704700BFFEE730B521
:100E80000246002300240868012816D013686FF377
:100E90000E03D1E901052843CD6828430D69284395
:100EA0004D6928438D692843CD6928430D6A28433D
:100EB0004D6A28430343136019E0136823F4F84391
:100EC000D1E9070528434D6A2843034354686FF36B
:100ED0000E04D1E901052843CD6828430D69284354
:100EE0004D6928438D6928430443136054600020F2
:100EF00030BD0246506940EA410050610020704711
:100F000018B5034600200090D1E9000420438C6806
:100F1000641E40EA4410CC6840EA442000900098E7
:100F20001861002018BD000070B503461546002268
:100F30000024012D1FD09A6802F070420868401EFC
:100F40004E68761E40EA06168868401E46EA00266D
:100F5000C868401E46EA0036088A401E46EA004637
:100F6000888A401E46EA0056087E401E46EA006017
:100F700002439A6022E09A6811480240C868401E05
:100F80000603888A401E46EA00500243DC6804F0EB
:100F900070440868401E4E68761E40EA061688684F
:100FA000401E46EA0026088A401E46EA0046087EA1
:100FB000401E46EA006004439A60DC60002070BD79
:100FC000FF0F0FFF70B502460C465068B0F5403F6A
:100FD00002D0506800B100BF00BF92F8380001286D
:100FE00001D1022070BD012082F8380000BF02202C
:100FF00082F8390002F1180000EB04110E894868EC
:1010000040EA0643214D48680A2802D0486809286A
:1010100004D1C86800F07F40034302E0087B43EA44
:101020000063A4B91068406AA84318431668706248
:1010300008681668B06148680A2802D0486809281C
:1010400019D1C86820F07F401668B06213E01068BC
:10105000C069A84318431668F061086816683061D3
:1010600048680A2802D04868092804D1C86820F0D6
:101070007F4016683062012082F8390000BF0020EE
:1010800082F8380000BF00BFACE700000F0003FF8C
:1010900010B504460CB9012010BD94F8390028B9E8
:1010A000002084F83800204600F022F8022084F85E
:1010B00039002068006820F44030616808432168E6
:1010C00008602068406B20F00700A1680843216891
:1010D00048632068006C6FF30D00E16808432168E5
:1010E00008640020E063012084F839000020D3E781
:1010F0007047F8B504460D4600200090206800684F
:1011000000F00100002843D000F0F4F9064639E071
:10111000206840680090009800F02100E0B100983D
:1011200000F0200018B1E06B40F00200E06300988E
:1011300000F0010018B1E06B40F00100E0632120F5
:1011400021688860042084F8390000BF002084F8FA
:10115000380000BF0120F8BD681C98B100F0CAF942
:10116000801BA84200D86DB9E06B40F02000E0631E
:10117000032084F8390000BF002084F8380000BF45
:101180000320E8E72068406800F002000028BFD094
:101190002068C06900F020072068406A00F0200045
:1011A0000743002F4BD000F0A5F9064641E0206828
:1011B00040680090009800F0290020B3009800F0EB
:1011C000080018B1E06B40F00400E063009800F004
:1011D000200018B1E06B40F00200E063009800F0DE
:1011E000010018B1E06B40F00100E06329202168A4
:1011F0008860042084F8390000BF002084F838009B
:1012000000BF0120A7E7681C98B100F073F9801BAC
:10121000A84200D86DB9E06B40F02000E0630320E5
:1012200084F8390000BF002084F8380000BF032094
:1012300091E72068406800F010000028B7D0122025
:1012400021688860012084F8390000BF002084F8FC
:10125000380000BF00BF7EE72DE9F84304460D4685
:1012600016461F46DDF8208000BF94F8380001289C
:1012700002D10220BDE8F883012084F8380000BFC5
:10128000022084F839003B46324629462046CDF8F4
:101290000080FFF7FBFC2068006840F00100216837
:1012A00008600020E6E7000070B5044600F022F96F
:1012B00006462546681C10B104480078054400BF66
:1012C00000F018F9801BA842FAD370BD500000202E
:1012D000F8B502460B46002100250024002000BF7F
:1012E000E4E0012606FA01F51E6806EA0504AC42B0
:1012F00071D15E68012E08D05E68022E05D05E684E
:10130000112E02D05E68122E13D190684F00032672
:10131000BE40B0434F00DE68BE403043906050682E
:1013200001268E40B0431E79C6F300168E4030432E
:101330005060D0684F000326BE40B0434F009E6807
:10134000BE403043D0605E68022E02D05E68122E2E
:1013500013D1CF0802F1200656F827004E07F70EEA
:101360000F26BE40B0434F07FF0E1E69BE403043FC
:10137000CF0802F1200646F8270010684F00032628
:10138000BE40B0431E7906F003064F00BE40304316
:1013900010605E6806F08056B6F1805FA8D100BF8D
:1013A000444E366846F48046424F3E603E463668BC
:1013B00006F48046009600BF00BF3F4E8F0856F8E7
:1013C00027008E07370F0F26BE40B0433B4EB24278
:1013D00002D100262EE068E0394EB24201D101264A
:1013E00028E0384EB24201D1022623E0364EB24206
:1013F00001D103261EE0354EB24201D1042619E088
:10140000334EB24201D1052614E0324EB24201D130
:1014100006260FE0304EB24201D107260AE02F4ED9
:10142000B24201D1082605E02D4EB24201D1092673
:1014300000E00A268F073F0FBE4030431E4E8F0844
:1014400046F82700274E3068A0435E6806F48036D1
:10145000B6F5803F00D12043224E3060361D306803
:10146000A0435E6806F40036B6F5003F00D1204385
:101470001C4E361D3060361D3068A0435E6806F491
:101480008016B6F5801F00D12043164E0836306016
:10149000361D3068A0435E6806F40016B6F5001FDE
:1014A00000D120430F4E0C363060491C1029FFF448
:1014B00018AFF8BD4438024008380140000002402F
:1014C0000004024000080240000C024000100240EC
:1014D0000014024000180240001C0240002002409C
:1014E00000240240003C01400AB1816101E00B048C
:1014F0008361704701480068704700004800002081
:1015000003480068034909780844014908607047A6
:10151000480000205000002010B5032000F0E2F940
:10152000002000F005F800F067F9002010BD000071
:1015300070B504460E4800784FF47A71B1FBF0F0B4
:101540000C490968B1FBF0F5284601F08DF908B1A6
:10155000012070BD102C07D200222146501E00F041
:1015600083F90548046001E00120F2E70020F0E77C
:1015700050000020440000204C00002070B50446BC
:101580000E46154600BF94F8A000012801D10220A4
:1015900070BD012084F8A00000BF022084F8A100E3
:1015A00005EB850101EBC50204F1380101EB820076
:1015B00034223146FEF757FE2A463146204601F0D6
:1015C000F1FC01202168486284F8A10000BF0020DE
:1015D00084F8A00000BF00BFDAE77047014691F829
:1015E000A100704770B504462068856B2068466B83
:1015F00005F00400E0B106F00400C8B12068406BBB
:1016000020F004002168486304202168C863D4F8EE
:10161000A40040F00100C4F8A400042084F8A10054
:1016200000BF002084F8A00000BF2046FFF7D5FFD0
:1016300005F00200E0B106F00200C8B12068406B7E
:1016400020F002002168486302202168C863D4F8B2
:10165000A40040F00200C4F8A400042084F8A10013
:1016600000BF002084F8A00000BF2046FFF7B5FFB0
:1016700005F00100A8B106F0010090B12068406BB0
:1016800020F001002168486301202168C86384F8C4
:10169000A10000BF002084F8A00000BF204600F099
:1016A000A7F805F00800B0B106F0080098B120686E
:1016B000406B20F008002168486308202168C86357
:1016C000012084F8A10000BF002084F8A00000BF22
:1016D000204600F08FF870BD70B504460CB90120AB
:1016E00070BD94F8A10028B9002084F8A00020461D
:1016F00000F07FF8022084F8A1002068806920F0C3
:10170000704021688861D4E901010843E168084319
:101710002169084321688969084321688861206834
:1017200080683249084021688860A08A05042068E2
:101730008068A16929430843216888602068C068DF
:101740002A4908402168C860A08B05042068C06849
:10175000216A294308432168C86020680069234939
:10176000084021680861A08C050420680069A16A0E
:101770002943084321680861206840691B490840E3
:1017800021684861A08D050420684069216B2943C8
:1017900008432168486194F83500050294F8360042
:1017A00006042068C06A00F07F402168C86246EAEB
:1017B000050094F8341008432168C96A0843216879
:1017C000C8622068406B40F00600216848632068CA
:1017D000806940F00100216888610020C4F8A400FD
:1017E000012084F8A10000207AE7000000F800F052
:1017F000704770477047000008B500BF1148006887
:1018000040F080500F4908600846006800F08050A2
:10181000009000BF00BF00BF081D006840F480407A
:10182000091D08600846006800F48040009000BF71
:1018300000BF00221146052000F016F8052000F038
:1018400003F808BD4038024001460846002809DB7D
:1018500000F01F0301229A4043099B0003F1E0239B
:10186000C3F8002100BF70472DE9F05F80460D46A8
:101870001646002701F004FF074639462A4633463C
:1018800001F00700C0F1070ABAF1040F02D94FF0C6
:10189000040A01E0C0F1070AD14600F1040ABAF1D6
:1018A000070F02D24FF0000A01E0A0F1030AD4466C
:1018B0004FF0010A0AFA09FAAAF1010A0AEA020A31
:1018C0000AFA0CFA4FF0010B0BFA0CFBABF1010B0F
:1018D0000BEA030B4AEA0B042146404601F0D8FE0E
:1018E000BDE8F09F00BF00F00702064B19684FF6F5
:1018F000FF031940044B0B4343EA0221014B1960DB
:1019000000BF70470CED00E00000FA0538B5002478
:1019100000BF2048006840F080501E49086008461B
:10192000006800F08050009000BF00BF1A480068B7
:1019300040F4803018490860FFF7DCFD044607E0FA
:10194000FFF7D8FD001BB0F57A7F01D9032038BD21
:101950001148406800F48030B0F5803FF0D10E4867
:10196000006840F400300C490860FFF7C3FD0446EE
:1019700007E0FFF7BFFD001BB0F57A7F01D9032018
:10198000E5E70548406800F40030B0F5003FF0D1CD
:101990000020DCE740380240007000402DE9F843A9
:1019A0000446002600250027A846A946207800F016
:1019B000010088B100BFFE48006820F40000FC4927
:1019C000086008460068616B0843F949086000BF79
:1019D000606B08B94FF00108206800F40020B0F5F2
:1019E000002F13D1F2488430006820F44010E16BDE
:1019F0000843EF4984310860E06BB0F5801F01D1E6
:101A00004FF00108E06B08B94FF00109206800F4BD
:101A10008010B0F5801F13D1E5488430006820F4B1
:101A20004000216C0843E24984310860206CB0F525
:101A3000800F01D14FF00108206C08B94FF0010967
:101A4000206800F08070B0F1807F01D14FF0010874
:101A5000207800F02000202870D100BFD448383012
:101A6000006840F08050D24938310860084600686C
:101A700000F08050009000BF00BFCE48006840F4E6
:101A80008070CC490860FFF735FD064607E0FFF798
:101A900031FD801B642802D90320BDE8F883C548C6
:101AA000006800F480700028F1D0C14868300068F8
:101AB00000F4407585B3208E00F44070A8422BD00E
:101AC000BB486830006820F44075B9486830006849
:101AD00040F48030B649683108600846006820F458
:101AE0008030086008460560006800F0010098B189
:101AF000FFF700FD064608E0FFF7FCFC801B41F203
:101B00008831884201D90320C7E7A94868300068B6
:101B1000C0F340000028EFD000BF208E00F44070DA
:101B2000B0F5407F0BD1A248006820F4F810A24A1B
:101B3000216B114008439E49086006E010E09C4874
:101B4000006820F4F8109A490860994868300068E5
:101B5000218EC1F30B01084395496831086000BF2D
:101B6000207800F01000102810D100BF9048843079
:101B7000006820F080708E49843108600846006853
:101B8000A16B08438A498431086000BF208800F4B3
:101B90008040B0F5804F09D185488830006820F436
:101BA0004030616E0843824988310860208800F423
:101BB0000040B0F5004F09D17D488830006820F41E
:101BC0004020A16E08437A4988310860206800F4FB
:101BD0008030B0F5803F09D175488830006820F426
:101BE0004010E16E0843724988310860206800F4B3
:101BF0000030B0F5003F09D16D488830006820F40E
:101C00004000216F08436A4988310860207800F05D
:101C10004000402809D166488830006820F0030061
:101C2000616C0843624988310860207800F08000C8
:101C3000802809D15E488830006820F00C00A16C33
:101C400008435B4988310860208800F48070B0F553
:101C5000807F09D156488830006820F03000E16C60
:101C60000843534988310860208800F40070B0F5BB
:101C7000007F09D14E488830006820F0C000216DF7
:101C800008434B4988310860208800F48060B0F533
:101C9000806F09D146488830006820F44070616D3B
:101CA0000843434988310860208800F40060B0F59B
:101CB000006F09D13E488830006820F44060A16D73
:101CC00008433B4988310860208800F48050B0F513
:101CD000805F09D136488830006820F44050E16DBB
:101CE0000843334988310860208800F40050B0F57B
:101CF000005F09D12E488830006820F44040216EF2
:101D000008432B4988310860206800F48000B0F552
:101D1000800F09D126488830006820F08060A16FCC
:101D20000843234988310860206800F40010B0F5AA
:101D3000001F0FD11E488830006820F00060E16F5E
:101D400008431B4988310860E06FB0F1006F01D192
:101D50004FF00109207800F00800082801D14FF069
:101D60000109206800F48020B0F5802F09D11048C7
:101D70008830006820F04070616F08430C4988315A
:101D80000860206800F40000B0F5000F0AD1084890
:101D90008830006820F08050D4F88010084304494F
:101DA00088310860B8F1010F0BD0206806E0000010
:101DB0000838024000700040FFFCFF0FB0F1007FC8
:101DC0007DD1AD48006820F08060AB490860FFF726
:101DD00091FB064606E0FFF78DFB801B642801D9C6
:101DE00003205AE6A4480068C0F3C0600028F2D17E
:101DF000207800F00100B8B1606BA8B99E4884302B
:101E00000068C0F301459C4884300068C0F3036754
:101E10006068800140EA054040EA0761207A41EAB3
:101E20000070954984310860206800F40020B0F506
:101E3000002F03D1E06BB0F5801F09D0206800F4BB
:101E40008010B0F5801F24D1206CB0F5800F20D118
:101E5000894884300068C0F30145874884300068B1
:101E6000C0F302776068800140EA0541207B41EAC7
:101E7000006040EA07708049843108607E488C30F9
:101E8000006820F01F00616A491E08437A498C31BE
:101E90000860206800F08070B0F1807F17D176482C
:101EA00084300068C0F30365734884300068C0F371
:101EB000027760688101208A41EA004000E031E059
:101EC00040EA056040EA07706B4984310860206889
:101ED00000F00070B0F1007F0DD160688101208AB0
:101EE00041EA0041207B41EA0061207A41EA00702A
:101EF0006149843108606048006840F080605E4954
:101F00000860FFF7F7FA064606E0FFF7F3FA801BD2
:101F1000642801D90320C0E557480068C0F3C060B9
:101F20000028F2D0B9F1010F7ED15348006820F0AB
:101F3000805051490860FFF7DDFA064606E0FFF7DA
:101F4000D9FA801B642801D90320A6E54A48006815
:101F5000C0F340700028F2D1206800F40020B0F5F2
:101F6000002F01D1E06B38B1206800F48010B0F58B
:101F7000801F22D1206C00BB3F4888300068C0F32E
:101F800001453D4888300068C0F3027760698001F0
:101F900040EA0541207E41EA006040EA0770364988
:101FA00088310860081D006820F4F851A06A401EBE
:101FB00041EA002030498C310860206800F40010AC
:101FC000B0F5001F19D1E06FB0F1006F15D12A48AC
:101FD00088300068C0F30365274888300068C0F384
:101FE000027760698101208C41EA004040EA056087
:101FF00040EA0770204988310860207800F0080026
:10200000082820D11C4888300068C0F303651A48AE
:1020100088300068C0F301476069800140EA0740EA
:1020200040EA0561207F00E024E041EA00701249A7
:1020300088310860081D006820F44030E16A0843D8
:102040000D498C3108600C48006840F080500A4906
:102050000860FFF74FFA064606E0FFF74BFA801BD1
:10206000642801D9032018E503480068C0F34070D4
:102070000028F2D0002010E50038024070B5044678
:102080000D4600260CB9012070BD5C48006800F0C8
:102090000F00A8420ED25948006820F00F002843D4
:1020A000564908600846006800F00F00A84201D0B9
:1020B0000120E9E7207800F0020002281DD12078F5
:1020C00000F00400042805D14D48006840F4E050B9
:1020D0004B490860207800F00800082805D14848DE
:1020E000006840F46040464908604548006820F0B8
:1020F000F000A168084342490860207800F0010020
:1021000090B36068012807D13D4808380068C0F3E3
:102110004040A0B90120B7E76068022807D13848DD
:1021200008380068C0F3406048B90120ACE7344883
:1021300008380068C0F3400008B90120A4E730481F
:10214000006820F00300616808432D490860FFF72C
:10215000D1F9064609E0FFF7CDF9801B41F288313D
:10216000884202D903208FE707E02548006800F085
:102170000C006168B0EB810FEDD12048006800F0E1
:102180000F00A8420ED91D48006820F00F00284318
:102190001A4908600846006800F00F00A84201D004
:1021A000012071E7207800F00400042807D11448CA
:1021B000006820F4E050E168084311490860207885
:1021C00000F00800082808D10D48006820F460409D
:1021D000216940EAC1000A49086000F019F808497D
:1021E0000968C1F30311074A515CC84006490860F9
:1021F00006480068FFF79CF9002045E7003C0240D4
:102200000838024054770008440000204C000020A9
:102210002DE9F047002400250026A1462548006846
:1022200000F00C0020B1042805D008283AD105E0C0
:10223000DFF8849039E0DFF8849036E01D48001F15
:10224000006800F03F041B48001F006800F4800095
:1022500078B11A481749091F0968C1F38811A0FB12
:1022600001700146224600233846FDF7CBFF0546A4
:102270000EE011480F49091F0968C1F38811A0FB3E
:1022800001700146224600233846FDF7BBFF054694
:102290000848001F0068C0F30140401C4600B5FB21
:1022A000F6F902E0DFF8109000BF00BF4846BDE835
:1022B000F0870000083802400024F40000366E0168
:1022C000F8B5044600270CB90120F8BD207800F0CD
:1022D0000100002871D0F948006800F00C000428C3
:1022E0000DD0F648006800F00C00082813D1F34820
:1022F000001F006800F48000B0F5800F0BD1EF489C
:1023000008380068C0F34040002869D060680028A1
:1023100066D10120D9E700BF6068B0F5803F08D1E1
:10232000E6480838006840F48030E449083908601D
:102330002EE0606868B9E1480838006820F4803011
:10234000DE49083908600846006820F480200860EB
:102350001EE06068B0F5A02F0DD1D848083800689D
:1023600040F48020D549083908600846006840F4E8
:10237000803008600CE0D1480838006820F48030D4
:10238000CE49083908600846006820F480200860BB
:1023900000BF606890B1FFF7ADF8054606E0FFF7B3
:1023A000A9F8401B642801D903208EE7C3480838E8
:1023B0000068C0F340400028F1D011E0FFF79AF820
:1023C000054606E0FFF796F8401B642801D9032074
:1023D0007BE7BA4808380068C0F340400028F1D1D4
:1023E000207800F00200022869D1B448006800F0AB
:1023F0000C0058B1B148006800F00C0008281CD14E
:10240000AE48001F006800F48000B0B9AB4808383F
:102410000068C0F3400020B1E068012801D001202D
:1024200053E7A6480838006820F0F800216940EA20
:10243000C100A2490839086041E0E06828B39F481C
:102440000838006840F001009C4908390860FFF72F
:1024500051F8054606E0FFF74DF8401B022801D968
:10246000032032E7954808380068C0F34000002890
:10247000F1D092480838006820F0F800216940EA5D
:10248000C1008E490839086019E08C480838006896
:1024900020F00100894908390860FFF72BF805464C
:1024A00006E0FFF727F8401B022801D903200CE7BC
:1024B000824808380068C0F340000028F1D1207835
:1024C00000F00800082836D16069D0B17B486C3034
:1024D000006840F0010079496C310860FFF70AF8A4
:1024E000054606E0FFF706F8401B022801D9032045
:1024F000EBE672486C300068C0F340000028F1D071
:1025000019E06E486C30006820F001006B496C31B6
:102510000860FEF7EFFF054606E0FEF7EBFF401B05
:10252000022801D90320D0E664486C300068C0F36B
:1025300040000028F1D1207800F00400042874D174
:102540005E483830006800F0805080B900BF5B48BA
:102550003830006840F080505849383108600846EB
:10256000006800F08050009000BF00BF0127544871
:10257000006800F48070B0B95148006840F4807081
:102580004F490860FEF7B6FF054606E0FEF7B2FFCA
:10259000401B642801D9032097E64948006800F4ED
:1025A00080700028F2D000BFA068012808D14348FD
:1025B0006830006840F001004049683108602DE053
:1025C000A06868B93D486830006820F001003B49C8
:1025D000683108600846006820F0040008601DE0CB
:1025E000A06805280DD135486830006840F0040027
:1025F0003249683108600846006840F00100086010
:102600000CE02E486830006820F001002B4968314A
:1026100008600846006820F00400086000BFA06859
:10262000A8B1FEF767FF054609E02EE0FEF762FF5E
:10263000401B41F28831884201D9032045E61F48FA
:1026400068300068C0F340000028EFD013E0FEF7C8
:1026500051FF054608E0FEF74DFF401B41F288316F
:10266000884201D9032030E6144868300068C0F37E
:1026700040000028EFD1012F07D110483830006802
:1026800020F080500D4938310860A069002852D0F0
:102690000A48006800F00C00082865D0A0690228EC
:1026A0004AD106480838006820F08070034908398C
:1026B0000860FEF71FFF05460BE0000008380240E7
:1026C00000700040FEF716FF401B022801D90320CE
:1026D000FBE53B480068C0F340600028F2D1E069A8
:1026E00040F00050216A0843616A40EA81110122EA
:1026F000A06AC2EB500041EA00412C20005D41EA93
:1027000000602F49091D0860081F006840F08070B4
:10271000091F0860FEF7EEFE054606E0FEF7EAFE3A
:10272000401B022801D90320CFE525480068C0F3EB
:1027300040600028F2D040E02148006820F080701E
:102740001F490860FEF7D6FE054606E0FEF7D2FEFA
:10275000401B022801D90320B7E519480068C0F3DF
:1027600040600028F2D128E01548001D0668A069E5
:10277000012820D006F48001E06981421BD106F0D7
:102780003F01206A814216D147F6C0703040616A2D
:10279000B0EB811F0FD106F440310122A06AC2EBD9
:1027A0005000B1EB004F06D106F070612C20005DA7
:1027B000B1EB006F01D0012087E5002085E5000026
:1027C0000038024070B504460D460CB9012070BDBA
:1027D00094F82C0028B9002084F82D00204600F041
:1027E00011F8022084F82C00211D2068FEF747FB19
:1027F0002946D4E90002FEF797FB012084F82C005B
:102800000020E4E7704770B504460D4694F82C00AC
:10281000022800D170BD022084F82C0029462068CF
:10282000FEF767FB012084F82C000020F2E770B56A
:1028300004460D46164694F82C00022800D170BDBF
:10284000022084F82C00324629462068FEF758FB07
:102850002868022803D1052084F82C0002E001201A
:1028600084F82C000020EAE770B504462546681E6F
:10287000B0F1807F01D301200FE0681E4FF0E0210E
:1028800048610F214FF0FF3000F002FF00204FF0B1
:10289000E021886107200861002070BD10B5044662
:1028A0000CB9012010BD94F83D0028B9002084F82F
:1028B0003C00204600F00CF8022084F83D00211D69
:1028C000206800F017FD012084F83D000020E9E7B2
:1028D000704770B504460D46164600BF94F83C009C
:1028E000012801D1022070BD012084F83C0000BF06
:1028F000022084F83D000C2E51D005DC4EB1042E90
:102900001ED0082E7AD133E0102E60D0142EF9D1CB
:1029100075E02946206800F06BFD2068806940F072
:102920000800216888612068806920F0040021681F
:10293000886120688069296908432168886177E097
:102940002946206800F08EFD2068806940F4006010
:10295000216888612068806920F48060216888612E
:1029600020688069296940EA0120216888615FE068
:102970002946206800F0B6FD2068C06940F00800D4
:102980002168C8612068C06920F004002168C8611E
:102990002068C069296908432168C86148E0294660
:1029A000206800F0DDFD2068C06940F40060216807
:1029B000C8612068C06920F480602168C86120680F
:1029C000C069296940EA01202168C86130E02946D0
:1029D000206800F0F1FD2068406D40F0080021689B
:1029E00048652068406D20F0040021684865206833
:1029F000406D296908432168486519E017E02946B8
:102A0000206800F001FE2068406D40F400602168FD
:102A100048652068406D20F4806021684865206822
:102A2000406D296940EA01202168486500E000BF47
:102A300000BF012084F83D0000BF002084F83C0066
:102A400000BF00BF4FE710B504460CB9012010BD10
:102A500094F83D0028B9002084F83C00204600F09E
:102A60000CF8022084F83D00211D206800F042FC93
:102A7000012084F83D000020E9E7704770B5044666
:102A80000E4601223146206800F0A0FC1149206862
:102A9000884203D010492068884201D1012000E01B
:102AA000002028B12068406C40F400402168486450
:102AB00020688068094900EA0105062D08D0B5F5AF
:102AC000803F05D02068006840F001002168086060
:102AD000002070BD0000014000040140070001001B
:102AE00030B504460D4600222946206800F06EFCF1
:102AF0001B492068884203D01A492068884201D1C6
:102B0000012000E0002090B100BF2068006A41F27F
:102B10001111084050B92068006A8910084028B98E
:102B20002068406C20F400402168486400BF00BF6A
:102B30002068006A41F21111084050B92068006A0B
:102B40008910084028B92068006820F00100216839
:102B5000086000BF012084F83D00002030BD000067
:102B600000000140000401400AE014F0040F00D10D
:102B700000BF00D000BF00BF00F022FB00BE00BFBE
:102B8000F3E7000000B58DB01C2106A8FDF784FB1B
:102B9000142101A8FDF780FB00BF2448006840F421
:102BA0008020224908600846006800F480200090D8
:102BB00000BF00BF802001900020039003200590FB
:102BC000022002900020049001A91948FEF780FB22
:102BD0000020184948604FF487511648C1601648D4
:102BE0001449086000211348816001618161FFF789
:102BF00055FE08B1FEF741F90E48FFF724FF08B172
:102C0000FEF73BF940F66F00079060200690022027
:102C1000089000200A90002206A90648FFF759FEF6
:102C200008B1FEF72AF90DB000BD0000443802409B
:102C3000001402405C4D00200048014000200D4976
:102C400008800D4908800D490880401E0C49086025
:102C500000200C4908800C49088001200B490870AD
:102C600000200B4908800B4908700B4908700B497C
:102C7000087070470C0000200A00002008000020A7
:102C800004000020100000200E000020150000208D
:102C9000000000201400002013000020120000207B
:102CA00010B5FFF7CBFF4FF07F40FDF70BFC10BDD9
:102CB00010B53E48007868BB3D4800883D49088013
:102CC0003D4800883D490880394800883A490988CC
:102CD00088420BDD3648008837490988401A2E287B
:102CE00004DC002036490870012010BD01202F4966
:102CF00008702F4800883049098888420ADD314829
:102D0000007838B92A480088401E294908800120E7
:102D10002C49087025480078012845D128490870B9
:102D20002348008824490988884211DD204800880A
:102D300021490988401A2E2804DA00202049087009
:102D40000120D2E71A480088401E1949088021E076
:102D5000174800881849098888421BDC16480088F3
:102D6000C0F192001249098808442E2804DA002094
:102D7000134908700120B8E70D480088401E0C492F
:102D80000880084600884FF6FF71884202D19020E3
:102D9000074908800C480088401C0B49088000F057
:102DA0004BF800200649087000209EE71400002020
:102DB0000C000020100000200A0000200E0000205F
:102DC00012000020130000200000002070B504460F
:102DD0001748FDF76BFE4FF07F40FDF775FEFDF7DE
:102DE00043FD85B21248C08800EB400083B22A46FA
:102DF00000210846FDF7CEFC4FF0FF30FDF764FEE2
:102E00004FF07F40FDF744FE0948C1880123224668
:102E10000020FDF7E5FB4FF07F40FDF739FE4FF056
:102E2000FF30FDF751FE0348FDF740FE70BD000086
:102E300030000020380000202DE9F0410024002659
:102E4000002700252A4800882D2820DA28480088F5
:102E50002849098888421ADB25490988214401EB61
:102E60004111254A02EB8101D1F88000FDF72CFECB
:102E70001F4A1288224402EB42121F4B03EB8201CD
:102E80001B4A1288121D90B2FDF73EFC2DE0184837
:102E9000008818490988884204DA15480088923069
:102EA00086B201E012480688A6F12D0087B2002400
:102EB00019E0E019922190FBF1F201FB120085B2BA
:102EC00005EB45110C4A02EB8101D1F88000FDF7BA
:102ED000FBFD05EB4510084A02EB8001201DFDF7C4
:102EE00013FC601CC4B22E2CE3DBBDE8F0810000B3
:102EF0000C0000200A000020FC0100202DE9F8430E
:102F000004460D4616461F46DDE908984FF440304A
:102F1000184948601848006800EB800101EBC001C7
:102F2000164800EB81000069022803D102211148F4
:102F3000816002E000210F4881600E48C0F80C90CB
:102F40000F480C4908600846FEF7A2F880B92146F0
:102F50000848FEF737F858B933462A46414605482F
:102F60000097FEF779F918B90A210248FEF7C1F86F
:102F7000BDE8F883444E002040000020D44D0020DE
:102F800000B0024010B50248FEF72CFB10BD000057
:102F9000E000002010B50248FEF724FB10BD000041
:102FA000E0000020F0B58E880768FF68C7F30B4784
:102FB0003E44330406688436802707FB0266766841
:102FC00006F47047066884364FF0800C0CFB0266EE
:102FD00077600E680768FF68C7F30B473E44761CAE
:102FE0001E43076884370CFB02777E608E89076872
:102FF000FF68C7F30A073E44330406688436802717
:1030000007FB0266B66806F47047066884360CFB58
:103010000266B7608E680768FF68C7F30A073E4418
:10302000761C46EA0307066884360CFB0266B76026
:1030300006688436802707FB0266366926F0070794
:10304000066884360CFB026637610F6906688436B1
:103050000CFB026637613126765C33023226765CE1
:1030600034040E7E350606688436802707FB026628
:10307000B6690027066884360CFB0266B76191F8D2
:1030800030601E43264346EA0507066884360CFB7B
:103090000266B76106688436802707FB0266766998
:1030A00026F0FF07066884360CFB026677614F69DD
:1030B000066884360CFB02667761066884368027D2
:1030C00007FB0266F66940F20777BE43076884375C
:1030D0000CFB0277FE61D1E9077637430668843638
:1030E0000CFB0266F76106688436802707FB0266E0
:1030F000B66A0027066884360CFB0266B7624F6A20
:10310000066884360CFB0266B7620E690EB90423AA
:1031100013E00E69012E01D103230EE00E69042E87
:1031200008D00E69022E05D00E69032E02D00E695A
:10313000072E01D1022300E0012306688436802790
:1031400007FB0266F66A06F0E027066884364FF051
:10315000800C0CFB0266F762D1E90076F61B5E4339
:10316000F61C0F8D5F4346EA0747066884360CFB62
:103170000266F76206688436802707FB0266366BB4
:10318000F70AFF02066884360CFB02663763CF6AD3
:10319000066884360CFB0266376306688436D701FE
:1031A000F65946F00107066884364FEAC21C46F815
:1031B0000C70F0BD00BFFEE770477047704700001D
:1031C0008DB002680C9242680B9282680A92C268C3
:1031D0000992026908924269079282690692C2695D
:1031E00005920B4A12680492094A121F1268039250
:1031F000074A083212680292054A0C32126801929C
:10320000034A10321268009200BE0DB070470000F1
:103210002CED00E0704710B5FEF772F910BD00000C
:1032200000B593B0302107A8FDF736F8142102A8A5
:10323000FDF732F800BF2648006840F0805024496E
:1032400008600846006800F08050019000BF00BF91
:1032500000BF2048006840F440401E49086008460E
:10326000006800F44040019000BF00BF08210F91AA
:1032700001200A9000210E910220079010200B904F
:1032800008211291C821109102200D900221119164
:1032900007A8FFF715F808B1FDF7EEFDFEF736FBBE
:1032A00008B1FDF7E9FD4FF4A05005904FF48050B0
:1032B000069000200490022003900F200290062127
:1032C00002A8FEF7DBFE08B1FDF7D6FD13B000BD86
:1032D00040380240007000400548006840F470002B
:1032E000034908604FF00060014980390860704769
:1032F00088ED00E010B50268294B98420ED0B0F17D
:10330000804F0BD0274B984208D0274B984205D0CE
:10331000264B984202D0264B984203D122F07002ED
:103320004B681A431E4B984220D0B0F1804F1DD0FD
:103330001C4B98421AD01C4B984217D01B4B9842FA
:1033400014D01B4B984211D01A4B98420ED01A4BF6
:1033500098420BD0194B984208D0194B984205D08F
:10336000184B984202D0184B984203D122F4407275
:10337000CB681A4322F080034C6943EA04020260DE
:103380008B68C3620B688362054B984202D0084B7E
:10339000984201D10B6903630123436110BD000012
:1033A000000001400004004000080040000C004004
:1033B0000004014000400140004401400048014039
:1033C00000180040001C00400020004030B501F013
:1033D0001F05012404FA05F3046A9C430462046A8D
:1033E00001F01F0502FA05F52C43046230BD000010
:1033F00030B5056A25F001050562026A43688469F3
:10340000154D2C4024F003040D682C4322F00202D9
:103410008D682A43114DA84200D103E0104DA84207
:1034200006D100BF22F00802CD682A4322F0040230
:103430000A4DA84202D00A4DA84207D123F4807356
:1034400023F400734D692B438D692B4343608461E2
:103450004D684563026230BD8FFFFEFF00000140F2
:103460000004014030B5056A25F010050562026AC6
:1034700043688469184D2C4024F440740D6844EA74
:10348000052422F020028D6842EA0512134DA8425D
:1034900000D103E0124DA84207D100BF22F0800204
:1034A000CD6842EA051222F040020C4DA84202D03B
:1034B0000B4DA84209D123F4806323F400634D69C6
:1034C00043EA85038D6943EA8503436084614D685F
:1034D0008563026230BD0000FF8FFFFE00000140E7
:1034E0000004014030B5056A25F480750562026A62
:1034F0004368C469174D2C4024F003040D682C4325
:1035000022F400728D6842EA0522134DA84200D1D0
:1035100003E0124DA84207D100BF22F40062CD683B
:1035200042EA052222F480620B4DA84202D00B4DE4
:10353000A84209D123F4805323F400534D6943EA90
:1035400005138D6943EA05134360C4614D68C56383
:10355000026230BD8FFFFEFF000001400004014009
:1035600030B5056A25F480550562036A4468C2696E
:103570000E4D2A4022F440720D6842EA052223F4DF
:1035800000538D6843EA0533094DA84202D0094D26
:10359000A84204D124F480444D6944EA851444606F
:1035A000C2614D680564036230BD0000FF8FFFFEFD
:1035B000000001400004014030B5056A25F4803563
:1035C0000562026A4368446D0C4D2C400D682C4323
:1035D00022F400320D8942EA0542094DA84202D088
:1035E000084DA84204D123F480334D6943EA0523F2
:1035F000436044654D688565026230BD8FFFFEFF04
:10360000000001400004014030B5056A25F4801532
:103610000562026A4368446D0D4D2C400D6844EA12
:10362000052422F400120D8942EA0552094DA842F0
:1036300002D0094DA84204D123F480234D6943EA06
:103640008523436044654D68C565026230BD000056
:10365000FF8FFFFE000001400004014000BFFEE7B5
:103660000FB4054B10B503A9044A029800F034F8D2
:1036700010BC5DF814FB00002D3800085400002039
:1036800002480068C0F30220704700000CED00E023
:1036900010B5002804DB0A07130E054A135406E090
:1036A0000A07140E034A00F00F031B1FD45410BD69
:1036B00000E400E018ED00E002E008C8121F08C1B5
:1036C000002AFAD170477047002001E001C1121FA3
:1036D000002AFBD1704700002DE9FF4F89B09B46BF
:1036E0000446002506E025280BD05A460B99904742
:1036F000641C6D1C20780028F5D10DB02846BDE86B
:10370000F08F0027B8460122474900E0074314F82C
:10371000013F203B02FA03F00842F7D120782E281F
:1037200019D114F8010F47F004072A280ED06FF0C2
:103730002F022078A0F1300109290CD808EB88016C
:1037400002EB410100EB0108641CF2E70A98641CDB
:1037500050F8048B0A9020780028CED0642808D036
:10376000692806D075281ED05A460B9990476D1CC3
:1037700058E00A994FF00A0901C90A91002802DAB3
:1037800040422D2102E0390504D52B218DF820106F
:10379000012103E0F90704D02021F7E78A4608AEAB
:1037A0000DE00021FAE70A994FF00A0901C90A91D0
:1037B000F7E74946FCF77BFD303106F8011D00288C
:1037C000F7D1ADEB060000F12009780701D44FF0E6
:1037D0000108C84502DDA8EB090000E00020804692
:1037E000002706E008A85A46C05D0B9990476D1C5B
:1037F0007F1C5745F6DB04E030205A460B99904772
:103800006D1CB8F10001A8F10108F5DC05E016F81F
:10381000010B5A460B9990476D1CB9F10001A9F1B3
:103820000109F4DC641C65E7092801002DE9F04179
:1038300004460F46FDF70AF806464E480078002871
:103840002DD14D48007801280ED14C4800884C49B4
:1038500008804C4800884C49088000204649087080
:103860004A4908704A490880FCF7FEFFB188B0FB5E
:10387000F1F048490988884212D90A2C10D04048F2
:10388000008800EB4010444A02EB80024148038864
:103890000088401CDFF8FCC0ACF80000D45465E0A0
:1038A0003948008836490988884211DB3B4800784E
:1038B00058B935480088401C3349088008460088BC
:1038C000922805D10020088002E0002033490870CA
:1038D0003048058811E020222948008800EB40107C
:1038E0002D4901EB80032B4801880088401CDFF83C
:1038F000A4C0ACF800005A546D1CFCF7B5FFB188A9
:10390000B0FBF1F0A842E6D8254800681C490988B8
:1039100001EB4111204A02EB8101C1F88000002037
:103920001C490880FFF788FA15480088401C144994
:10393000088008460088922806D1002008800120CF
:1039400011490880154908700A2C0FD00C480088CE
:1039500000EB4010104A02EB80030E4802880088FA
:10396000401CDFF830C0ACF800009C542046BDE895
:10397000F081000012000020140000201000002040
:103980000C0000200E0000200A0000201300002080
:103990000000002008000020FC010020150000208D
:1039A00004000020FDF7B8FDFFF73AFCFCF7F6FC39
:1039B000FCF77AFF4FF040410020FCF7B9FFFCF71D
:1039C000F5FD0020FDF75EF84FF0FF20FCF77AFDD3
:1039D000FFF766F914A0FFF7F9F9002400BF19E01A
:1039E00000BF4FF0FF301549086015A0FFF738FE03
:1039F00000BF00BF18481149086018A0FFF730FE4B
:103A0000214618A0FFF72CFE4FF0FF300B4908604D
:103A100000BF641C322CE3D305E0FFF749F94FF4F3
:103A20007A70FDF741FCF8E753544637536F4D2049
:103A30004C5444432054657374000000040000207B
:103A4000436F6D62696E6564206C6F672074657387
:103A5000742E2E2E200000000000FFFF4552524F12
:103A6000523A20004572726F72204C6F67204C6989
:103A70006E652025640A00000000000000000000C0
:103A800020202020002000005050000000000000F6
:103A90002850F850F850A00020306030106020000E
:103AA00020201860101000000038206050780000BE
:103AB00020202000000000001020202020201000E6
:103AC00040202020202040002070205000000000D6
:103AD000002020F82020000000000000102020001E
:103AE0000000007000000000000000000020000046
:103AF00010202020404080002050505050200000D6
:103B00006020202020F8000020502020407000007D
:103B10002050102010600000103050781038000045
:103B20007040601050200000304060505060000035
:103B30007050102020200000205020505020000005
:103B400030505030106000000000200000200000C5
:103B50000000100010200000001020C02010000005
:103B6000007000700000000000402018204000009D
:103B700020501020002000003048485848403800AD
:103B80006020507088D80000F048704848F000006D
:103B90007050404040300000F048484848F0000075
:103BA000F848604048F80000F848604040E00000F5
:103BB0007040405850300000E848784848E800001D
:103BC000702020202070000038101050502000007D
:103BD000D850607050D80000E040404048F80000E5
:103BE000D8D8D8A888D80000D868685858E8000005
:103BF0003048484848300000F048487040E0000035
:103C00003048484848301800F048487048E80000FC
:103C10007050201050700000F8A820202070000084
:103C2000D848484848300000D888485050300000F4
:103C3000D888A8A8A8500000D850202050D800004C
:103C4000D888502020700000784810204878000064
:103C500030202020202030008040402020201000F4
:103C60006020202020206000202050000000000064
:103C700000000000000000F820100000000000001C
:103C80000000301070780000C040704848F000001C
:103C900000007040407000001808384848380000A4
:103CA0000000707040300000102070202070000074
:103CB0000000384848380830C040704848E80000E4
:103CC0002000602020700000200070101010107084
:103CD000C040587050D800006020202020700000A4
:103CE0000000D0A8A8A800000000F04848C80000C4
:103CF00000003048483000000000F048487040E0C4
:103D0000000038484838081800007820207000006B
:103D100000003020106000000040F04048300000FB
:103D20000000D848483800000000C8483030000083
:103D30000000D8A8A850000000004830304800001B
:103D40000000D850502020600000785028780000F3
:103D50001020206020201000202020202020200083
:103D600040202030202040000000002850000000AB
:103D70000000000000000000000000000000000043
:103D80000000000000000000000000000000000033
:103D90000000000000000000000000000000000023
:103DA0000000000000000000000000000000000013
:103DB0000000000000000000000000000000038080
:103DC0000003800003800003800003800003800064
:103DD0000380000380000380000100000100000058
:103DE00000000000000380000380000000000000CD
:103DF00000000000000000000000000000000000C3
:103E00000000000000000000000E70000E70000EA8
:103E100070000420000420000420000420000000A2
:103E20000000000000000000000000000000000092
:103E30000000000000000000000000000000000082
:103E4000000000000000000000000000000006600C
:103E5000000660000660000660000660003FF80093
:103E60003FF8000660000CC0003FF8003FF8000C6F
:103E7000C0000CC0000CC0000CC0000CC000000052
:103E80000000000000000000000000000000000032
:103E900000000001800001800007B0000FF0001852
:103EA00070001870001C00000F800007E00000F098
:103EB000001830001C30001C70001FE0001BC00008
:103EC00001800001800001800001800000000000EE
:103ED000000000000000000000000000000007805B
:103EE000000FC0001CE0001860001860001CE0001B
:103EF0000FF80007E0001FF0000738000618000662
:103F0000180007380003F00001E000000000000086
:103F100000000000000000000000000000000000A1
:103F200000000000000000000000000003F0000797
:103F3000F0000C60000C00000C0000060000070000
:103F4000000F9C001DFC0018F0001870000FFC0012
:103F500007DC00000000000000000000000000007E
:103F60000000000000000000000000000000000051
:103F700000038000038000038000010000010000B6
:103F8000010000010000000000000000000000002F
:103F90000000000000000000000000000000000021
:103FA0000000000000000000000000000000000011
:103FB0000000000000000018000038000070000041
:103FC000F00000E00000E00001C00001C00001C0FE
:103FD0000001C00001C00001C00000E00000E000DE
:103FE00000700000700000380000180000000000A1
:103FF00000000000000000000000000000001800A9
:10400000001C00000E00000E00000700000700006A
:10401000038000038000038000038000038000030E
:1040200080000700000700000F00000E00001C00C9
:104030000018000000000000000000000000000068
:104040000000000000000180000180000180001DD0
:10405000B8001FF80007E00003C00003C0000660BE
:1040600000066000000000000000000000000000EA
:104070000000000000000000000000000000000040
:104080000000000000000000000000000000000030
:10409000000000000180000180000180000180001C
:1040A0000180003FFC003FFC000180000180000116
:1040B000800001800001800000000000000000007E
:1040C00000000000000000000000000000000000F0
:1040D00000000000000000000000000000000000E0
:1040E00000000000000000000000000000000000D0
:1040F0000000000000000000000000E00000C00020
:1041000001C00001800001800003000003000000E6
:10411000000000000000000000000000000000009F
:10412000000000000000000000000000000000008F
:104130000000001FF8001FF8000000000000000051
:10414000000000000000000000000000000000006F
:10415000000000000000000000000000000000005F
:10416000000000000000000000000000000000004F
:10417000000000000000000000000000000000003F
:104180000000000000000000000003C00003C000A9
:1041900003C000000000000000000000000000005C
:1041A00000000000000000000018000018000038A7
:1041B0000000300000700000600000600000C000DF
:1041C00000C0000180000180000300000300000621
:1041D00000000600000E00000C00001C000018008B
:1041E00000180000000000000000000000000000B7
:1041F00000000000000003C00007E0000C30000CCD
:10420000300018180018180018180018180018188E
:10421000001818001818000C30000C300007E000DF
:1042200003C00000000000000000000000000000CB
:1042300000000000000000000000000000000080FE
:10424000000780001F80001D8000018000018000A9
:1042500001800001800001800001800001800001D8
:1042600080000180001FF8001FF80000000000001F
:10427000000000000000000000000000000000003E
:1042800000000000000007C0001FF00038300030C0
:10429000180030180000180000300000600001C055
:1042A000000380000600000C00001800003FF8002A
:1042B0003FF80000000000000000000000000000C7
:1042C000000000000000000000000000000003C02B
:1042D000000FE0000C7000003000003000006000B3
:1042E00003C00003E0000070000018000018000088
:1042F00018001838001FF0000FC000000000000078
:1043000000000000000000000000000000000000AD
:1043100000000000000000E00001E00001E00003F8
:1043200060000660000660000C60000C6000186011
:10433000003060003FF8003FF80000600003F80024
:1043400003F8000000000000000000000000000072
:1043500000000000000000000000000000001FF04E
:10436000001FF0001800001800001800001BC0001B
:104370001FF0001C3000001800001800001800009A
:1043800018003030003FF0000FC0000000000000B7
:10439000000000000000000000000000000000001D
:1043A00000000000000000F80003F8000700000E05
:1043B00000000C00001800001BC0001FF0001C30A3
:1043C000001818001818001818000C38000FF0001A
:1043D00003E00000000000000000000000000000FA
:1043E00000000000000000000000000000001FF8B6
:1043F000001FF800181800183800003000003000C6
:1044000000700000600000600000E00000C00000DC
:10441000C00001C000018000018000000000000019
:10442000000000000000000000000000000000008C
:1044300000000000000007E0000FF0001C3800182A
:1044400018001818000C300007E00007E0000C30DE
:10445000001818001818001818001C38000FF00079
:1044600007E0000000000000000000000000000065
:10447000000000000000000000000000000007C075
:10448000000FF0001C300018180018180018180051
:104490000C38000FF80003D80000180000300000AE
:1044A000700000E0001FC0001F00000000000000BE
:1044B00000000000000000000000000000000000FC
:1044C00000000000000000000000000000000000EC
:1044D000000003C00003C00003C000000000000093
:1044E0000000000000000000000003C00003C00046
:1044F00003C00000000000000000000000000000F9
:1045000000000000000000000000000000000000AB
:104510000000000000000000000000F00000F000BB
:1045200000F000000000000000000000000000009B
:10453000E00001C0000180000180000300000200D3
:10454000000000000000000000000000000000006B
:10455000000000000000000000000000001C00003F
:104560003C0000F00003C0000F00003C0000F00021
:10457000003C00000F000003C00000F000003C0001
:10458000001C00000000000000000000000000000F
:10459000000000000000000000000000000000001B
:1045A000000000000000000000000000007FFC0090
:1045B0007FFC000000000000007FFC007FFC00008A
:1045C00000000000000000000000000000000000EB
:1045D00000000000000000000000000000000000DB
:1045E00000000000000000000000000070000078E3
:1045F00000001E000007800001E000007800001E9F
:104600000000780001E0000780001E000078000034
:10461000700000000000000000000000000000002A
:10462000000000000000000000000000000000008A
:104630000007C0000FE000187000183000183000AC
:1046400000700000E00003C00003800003000000D1
:10465000000000000007000007000000000000004C
:10466000000000000000000000000000000000004A
:1046700000000000000003E00007F0000E38000C0E
:10468000180018780018F80019D80019980019981F
:104690000019980018F8001878001800000C0000A5
:1046A0000E180007F80003E0000000000000000002
:1046B00000000000000000000000000000000000FA
:1046C000001F80001FC00001C000036000036000E5
:1046D0000630000630000C30000FF8001FF80018FC
:1046E0000C00300C00FC7F00FC7F0000000000008C
:1046F00000000000000000000000000000000000BA
:104700000000000000000000007FE0007FF00018C3
:1047100038001818001818001838001FF0001FF88B
:1047200000181C00180C00180C00180C007FF80072
:104730007FF000000000000000000000000000000A
:104740000000000000000000000000000000000069
:104750000003EC000FFC001C1C00180C00300C00C7
:104760003000003000003000003000003000001841
:104770000C001C1C000FF80003F0000000000000FB
:104780000000000000000000000000000000000029
:104790000000000000000000007FC0007FF0001853
:1047A0003800181800180C00180C00180C00180C11
:1047B00000180C00180C001818001838007FF000C2
:1047C0007FE000000000000000000000000000008A
:1047D00000000000000000000000000000000000D9
:1047E000007FF8007FF800181800181800199800CA
:1047F0001980001F80001F80001980001998001880
:1048000018001818007FF8007FF800000000000072
:104810000000000000000000000000000000000098
:104820000000000000000000003FFC003FFC000C06
:104830000C000C0C000CCC000CC0000FC0000FC012
:10484000000CC0000CC0000C00000C00003FC000B9
:104850003FC0000000000000000000000000000059
:104860000000000000000000000000000000000048
:104870000003EC000FFC001C1C00180C00300C00A6
:1048800030000030000030FE0030FE00300C0038F8
:104890000C001C1C000FFC0003F0000000000000D6
:1048A0000000000000000000000000000000000008
:1048B0000000000000000000007E7E007E7E0018E8
:1048C00018001818001818001818001FF8001FF812
:1048D000001818001818001818001818007E7E001C
:1048E0007E7E0000000000000000000000000000CC
:1048F00000000000000000000000000000000000B8
:10490000001FF8001FF800018000018000018000F6
:104910000180000180000180000180000180000111
:1049200080000180001FF8001FF800000000000058
:104930000000000000000000000000000000000077
:1049400000000000000000000007FE0007FE00005D
:104950003000003000003000003000003000303007
:10496000003030003030003030003060003FE00078
:104970000F800000000000000000000000000000A8
:104980000000000000000000000000000000000027
:10499000007F3E007F3E0018300018600018C00005
:1049A0001980001B80001FC0001CE0001870001858
:1049B00030001838007F1F007F1F0000000000003B
:1049C00000000000000000000000000000000000E7
:1049D0000000000000000000007F80007F80000CCD
:1049E00000000C00000C00000C00000C00000C008B
:1049F000000C0C000C0C000C0C000C0C007FFC00DC
:104A00007FFC00000000000000000000000000002B
:104A10000000000000000000000000000000000096
:104A200000F00F00F81F00381C003C3C003C3C002C
:104A3000366C00366C0033CC0033CC00318C003047
:104A40000C00300C00FE7F00FE7F00000000000024
:104A50000000000000000000000000000000000056
:104A600000000000000000000078FE0078FE001C3E
:104A700018001E18001F18001B18001B980019D8DA
:104A80000018D80018F8001878001838007F1800AF
:104A90007F1800000000000000000000000000007F
:104AA0000000000000000000000000000000000006
:104AB0000003C0000FF0001C3800181800381C005C
:104AC000300C00300C00300C00300C00381C00188A
:104AD00018001C38000FF00003C0000000000000A8
:104AE00000000000000000000000000000000000C6
:104AF0000000000000000000003FF0003FF8000C44
:104B00001C000C0C000C0C000C0C000C18000FF816
:104B1000000FE0000C00000C00000C00003FC00083
:104B20003FC0000000000000000000000000000086
:104B30000000000000000000000000000000000075
:104B40000003C0000FF0001C3800181800381C00CB
:104B5000300C00300C00300C00300C00381C0018F9
:104B600018001C38000FF00007C00007CC000FFC35
:104B7000000C3800000000000000000000000000F1
:104B80000000000000000000007FE0007FF000183F
:104B900038001818001818001838001FF0001FC03F
:104BA0000018E0001870001830001838007F1E0050
:104BB0007F0E000000000000000000000000000068
:104BC00000000000000000000000000000000000E5
:104BD0000007D8000FF8001C38001818001818003B
:104BE0001E00000FC00003F0000078001818001825
:104BF00018001C38001FF0001BE00000000000003F
:104C000000000000000000000000000000000000A4
:104C10000000000000000000003FFC003FFC0031ED
:104C20008C00318C00318C00318C000180000180BF
:104C3000000180000180000180000180000FF00071
:104C40000FF0000000000000000000000000000065
:104C50000000000000000000000000000000000054
:104C6000007E7E007E7E00181800181800181800BC
:104C7000181800181800181800181800181800182C
:104C800018000C30000FF00003C00000000000000E
:104C90000000000000000000000000000000000014
:104CA0000000000000000000007F7F007F7F0018F0
:104CB0000C000C18000C18000C1800063000063010
:104CC0000003600003600003600001C00001C00039
:104CD0000080000000000000000000000000000054
:104CE00000000000000000000000000000000000C4
:104CF00000FE3F80FE3F8030060030060030860018
:104D000019CC0019CC001B6C001B6C001E7C000E23
:104D100038000E38000C18000C18000000000000CD
:104D20000000000000000000000000000000000083
:104D30000000000000000000007E7E007E7E001863
:104D400018000C300006600003C0000180000180E4
:104D50000003C0000660000C30001818007E7E00C2
:104D60007E7E000000000000000000000000000047
:104D70000000000000000000000000000000000033
:104D8000007C7E007C7E001818000C30000660005D
:104D900006600003C0000180000180000180000166
:104DA00080000180000FF0000FF000000000000004
:104DB00000000000000000000000000000000000F3
:104DC0000000000000000000001FF8001FF800189D
:104DD000180018300018600018C00001800003009F
:104DE000000618000C18001818003018003FF800D2
:104DF0003FF800000000000000000000000000007C
:104E0000000000000000000000000000000001F0B1
:104E10000001F0000180000180000180000180009D
:104E200001800001800001800001800001800001FC
:104E3000800001800001800001800001800001F0FD
:104E40000001F00000000000000000000000000071
:104E50001800001800001C00000C00000E000006E6
:104E60000000060000030000030000018000018034
:104E70000000C00000C00000600000600000700082
:104E8000003000003800001800001800000000008A
:104E900000000000000000000000000000000F8083
:104EA000000F80000180000180000180000180006F
:104EB000018000018000018000018000018000016C
:104EC00080000180000180000180000180000F80CF
:104ED000000F800000000000000000000000000043
:104EE00000000000800001C00003E0000770000621
:104EF00030000C1800180C00100400000000000026
:104F000000000000000000000000000000000000A1
:104F10000000000000000000000000000000000091
:104F20000000000000000000000000000000000081
:104F30000000000000000000000000000000000071
:104F40000000000000000000000000000000000061
:104F50000000000000000000000000000000000051
:104F600000000000000000000000FFFF00FFFF0045
:104F700000000003000003800000E000006000006B
:104F80000000000000000000000000000000000021
:104F90000000000000000000000000000000000011
:104FA0000000000000000000000000000000000001
:104FB00000000000000000000000000000000000F1
:104FC000000000000000000000000FC0001FE00013
:104FD00000300000300007F0001FF00038300030D3
:104FE00030003070001FFC000FBC0000000000000B
:104FF00000000000000000000000000000000000B1
:105000000000000000007800007800001800001880
:1050100000001BE0001FF8001C1800180C00180C02
:1050200000180C00180C00180C001C18007FF80069
:105030007BE0000000000000000000000000000015
:105040000000000000000000000000000000000060
:105050000000000000000000000003EC000FFC0056
:105060001C1C00380C00300C0030000030000038F0
:105070000C001C1C000FF80003F0000000000000F2
:105080000000000000000000000000000000000020
:105090000000000000000078000078000018000008
:1050A000180007D8001FF800183800301800301812
:1050B000003018003018003018001838001FFE00AB
:1050C00007DE0000000000000000000000000000FB
:1050D00000000000000000000000000000000000D0
:1050E0000000000000000000000007E0001FF800C2
:1050F000181800300C003FFC003FFC00300000306E
:105100000000180C001FFC0007F000000000000069
:10511000000000000000000000000000000000008F
:1051200000000000000001FC0003FC000600000677
:1051300000003FF8003FF8000600000600000600EF
:10514000000600000600000600000600003FF00018
:105150003FF0000000000000000000000000000020
:10516000000000000000000000000000000000003F
:105170000000000000000000000007DE001FFE002D
:10518000183800301800301800301800301800307F
:1051900018001838001FF80007D800001800001881
:1051A000000038000FF0000FC000000000000000F9
:1051B00000000000000078000078000018000018CF
:1051C00000001BE0001FF0001C3800181800181821
:1051D000001818001818001818001818007E7E0013
:1051E0007E7E0000000000000000000000000000C3
:1051F000000000000000000000000000000001802E
:10520000000180000000000000001F80001F8000DF
:105210000180000180000180000180000180000108
:1052200080000180003FFC003FFC00000000000007
:10523000000000000000000000000000000000006E
:1052400000000000000000C00000C00000000000DE
:1052500000001FF0001FF0000030000030000030A0
:10526000000030000030000030000030000030004E
:105270000030000030000030000070001FE0001F10
:1052800080000000000000000000000000003C0062
:10529000003C00000C00000C00000CF8000CF800B2
:1052A0000CC0000D80000F80000F00000F80000D6B
:1052B000C0000CE0003C7C003C7C000000000000D2
:1052C00000000000000000000000000000000000DE
:1052D0000000000000001F80001F8000018000010E
:1052E00080000180000180000180000180000180B9
:1052F000000180000180000180000180003FFC006F
:105300003FFC000000000000000000000000000062
:10531000000000000000000000000000000000008D
:1053200000000000000000000000F77800FFFC0013
:1053300039CC00318C00318C00318C00318C003143
:105340008C00318C00FDEF00FDEF0000000000003C
:10535000000000000000000000000000000000004D
:10536000000000000000000000000000000000003D
:1053700000007BE0007FF0001C38001818001818AF
:10538000001818001818001818001818007E7E0061
:105390007E7E000000000000000000000000000011
:1053A00000000000000000000000000000000000FD
:1053B0000000000000000000000003C0000FF0002B
:1053C0001C3800381C00300C00300C00300C003849
:1053D0001C001C38000FF00003C00000000000009B
:1053E00000000000000000000000000000000000BD
:1053F00000000000000000000000000000000000AD
:1054000000007BE0007FF8001C1800180C00180C4E
:1054100000180C00180C00180C001C18001FF800D5
:105420001BE0001800001800001800007F00007F3B
:10543000000000000000000000000000000000006C
:105440000000000000000000000007DE001FFE005A
:1054500018380030180030180030180030180030AC
:1054600018001838001FF80007D8000018000018AE
:105470000000180000FE0000FE0000000000000018
:10548000000000000000000000000000000000001C
:1054900000003E78003EFC0007CC0007000006003C
:1054A000000600000600000600000600003FF000B5
:1054B0003FF00000000000000000000000000000BD
:1054C00000000000000000000000000000000000DC
:1054D0000000000000000000000007F8000FF800C6
:1054E0001818001818001F80000FF00000F80018AE
:1054F00018001838001FF0001FE000000000000036
:10550000000000000000000000000000000000009B
:105510000000000000000C00000C00000C00000C5B
:1055200000003FF0003FF0000C00000C00000C00F9
:10553000000C00000C00000C00000C1C0007FC001C
:1055400003F0000000000000000000000000000068
:10555000000000000000000000000000000000004B
:10556000000000000000000000007878007878005B
:105570001818001818001818001818001818001823
:1055800018001838000FFE0007DE000000000000C1
:10559000000000000000000000000000000000000B
:1055A00000000000000000000000000000000000FB
:1055B00000007C3E007C3E001818001818000C30DB
:1055C000000C300006600006600007E00003C00029
:1055D00003C0000000000000000000000000000008
:1055E00000000000000000000000000000000000BB
:1055F00000000000000000000000783C00783C0043
:105600003118003398003398001AB0001EF0001EC5
:10561000F0001C60000C60000C6000000000000046
:10562000000000000000000000000000000000007A
:10563000000000000000000000000000000000006A
:1056400000003E7C003E7C000C300006600003C081
:105650000001800003C0000660000C30003E7C00AA
:105660003E7C000000000000000000000000000080
:10567000000000000000000000000000000000002A
:10568000000000000000000000007E1F007E1F00E0
:10569000180C000C18000C1800063000063000032F
:1056A000600003E00001C00000C000018000018034
:1056B000000300003FC0003FC000000000000000E9
:1056C00000000000000000000000000000000000DA
:1056D00000001FF8001FF80018300018600000C01C
:1056E000000180000300000618000C18001FF800DD
:1056F0001FF8000000000000000000000000000093
:10570000000000000000000000000000000000E0B9
:105710000001E000018000018000018000018000A4
:105720000180000180000380000700000380000169
:10573000800001800001800001800001800001E004
:105740000000E00000000000000000000000000079
:1057500000000000000001800001800001800001C5
:105760008000018000018000018000018000018034
:1057700000018000018000018000018000018000A4
:105780000180000180000180000180000000000015
:105790000000000000000000000000000000070002
:1057A000000780000180000180000180000180006E
:1057B00001800001800001C00000E00001C0000184
:1057C00080000180000180000180000180000780CE
:1057D00000070000000000000000000000000000C2
:1057E00000000000000000000000000000000000B9
:1057F00000000000000000000E00001F18003BB871
:105800000031F00000E00000000000000000000097
:105810000000000000000000000000000000000088
:105820000000000000000000000000000000000078
:105830000000000000000000000000000000000068
:105840000000000000000000000000000000000058
:105850000000070007000700070007000700070017
:105860000200020000000000070007000000000026
:105870000000000000000000000000001CE01CE030
:105880001CE0084008400840000000000000000044
:105890000000000000000000000000000000000008
:1058A0000CC00CC00CC00CC00CC03FF03FF00CC0D2
:1058B0000CC03FF03FF00CC00CC00CC00CC00CC0C2
:1058C00000000000000000000300030007E00FE0FC
:1058D000186018001F000FC000E0186018601FC09B
:1058E0001F80030003000300000000000000000010
:1058F00000001C002200220022001C6001E00F803A
:105900003C0031C002200220022001C00000000043
:10591000000000000000000000000000000003E0A4
:105920000FE00C000C0006000F301FF019E018C04B
:105930001FF007B0000000000000000000000000A1
:1059400000000000038003800380010001000100CB
:105950000000000000000000000000000000000047
:105960000000000000000000000000C000C0018036
:105970000180018003000300030003000300030013
:1059800001800180018000C000C000000000000014
:1059900000000C000C0006000600060003000300D7
:1059A00003000300030003000600060006000C00CD
:1059B0000C000000000000000000030003000300D2
:1059C0001B601FE0078007800FC00CC000000000B4
:1059D00000000000000000000000000000000000C7
:1059E00000000000000003000300030003003FF07C
:1059F0003FF003000300030003000000000000006C
:105A00000000000000000000000000000000000096
:105A10000000000000000000000000000000038003
:105A20000300030006000600040000000000000060
:105A300000000000000000000000000000003FE047
:105A40003FE0000000000000000000000000000037
:105A50000000000000000000000000000000000046
:105A600000000000000000000000000000000380B3
:105A70000380038000000000000000000000000020
:105A80000060006000C000C000C001800180030011
:105A90000300060006000C000C000C0018001800A3
:105AA000000000000000000000000F801FC018C0B0
:105AB000306030603060306030603060306018C01E
:105AC0001FC00F8000000000000000000000000068
:105AD000000003001F001F00030003000300030079
