:020000040800F2
:1000000068350220E101000825620008B1560008A9
:1000100021620008DF1C0008B78000080000000013
:10002000000000000000000000000000F17B00085C
:10003000F31E00080000000009660008F37B0008BA
:10004000FB010008FB010008FB010008FB010008A0
:10005000FB0100080B660008FB010008FB0100081B
:10006000FB010008FB010008FB010008FB01000880
:10007000FB010008FB010008FB010008FB01000870
:10008000FB010008FB010008FB010008FB01000860
:10009000FB010008FB010008FB010008FB01000850
:1000A000FB010008FB010008FB010008FB01000840
:1000B000FB010008FB010008FB010008FB01000830
:1000C000FB010008FB010008FB010008FB01000820
:1000D000FB010008FB010008FB010008FB01000810
:1000E000FB010008FB010008FB010008FB01000800
:1000F000FB010008FB010008FB010008FB010008F0
:10010000FB01000835660008FB010008FB01000840
:10011000FB010008FB010008FB010008FB010008CF
:10012000E51D0008FB010008FB010008F51D0008A3
:10013000FB010008FB010008FB010008FB010008AF
:10014000FB010008FB010008FB010008FB0100089F
:10015000FB010008051E0008FB010008FB01000868
:10016000FB010008FB010008FB010008FB0100087F
:10017000FB010008FB010008FB010008FB0100086F
:10018000FB010008FB010008FB010008FB0100085F
:10019000FB010008FB010008FB010008FB0100084F
:1001A000FB010008FB010008FB010008FB0100083F
:1001B000FB010008FB010008FB010008FB0100082F
:1001C000FB010008FB010008DFF810D000F0A4F8E4
:1001D0000048004799840008AFF30080683502208A
:1001E0000648804706480047FEE7FEE7FEE7FEE7D1
:1001F000FEE7FEE7FEE7FEE7FEE7FEE7E97C000834
:10020000C90100082DE9F05F0546002092469B4693
:1002100088460646814640241BE02846414647461C
:10022000224600F069F853465A46C01A914110D34D
:1002300011461846224600F050F82D1A67EB0108C7
:100240004F4622460120002100F047F817EB000935
:100250004E41201EA4F10104DFDC484631462A4607
:100260004346BDE8F09F40EA01039B0703D009E045
:1002700008C9121F08C0042AFAD203E011F8013B92
:1002800000F8013B521EF9D27047D2B201E000F8EB
:10029000012B491EFBD270470022F6E710B513462A
:1002A0000A4604461946FFF7F0FF204610BD30B558
:1002B0000B46014600202022012409E021FA02F524
:1002C0009D4205D303FA02F5491B04FA02F52844BE
:1002D000151EA2F10102F1DC30BD202A04DB203A18
:1002E00000FA02F1002070479140C2F1200320FA89
:1002F00003F3194390407047202A04DB203A21FA87
:1003000002F00021704721FA02F3D040C2F120022E
:100310009140084319467047064C074D06E0E068D7
:1003200040F0010394E8070098471034AC42F6D33C
:10033000FFF74EFF08F4000828F4000830B58C18C9
:1003400010F8012B12F00F0301D110F8013B120934
:1003500006D110F8012B03E010F8015B01F8015BF6
:100360005B1EF9D101E001F8013B521EFBD1A14215
:10037000E6D3002030BD000000B585B0012002901A
:100380000C20049002200190032003904CF2037093
:10039000009069460C4802F04DFC4FF680700090CA
:1003A00069460A4802F046FC4FF23F000090694659
:1003B000074802F03FFC372000906946054802F0EC
:1003C00039FC05B000BD0000000C024000100240E6
:1003D000001402400018024008B500BF47480068FA
:1003E00040F00100454908600846006800F001003F
:1003F000009000BF00BF00BF0846006840F0020048
:1004000008600846006800F00200009000BF00BFCE
:1004100000BF0846006840F0040008600846006815
:1004200000F00400009000BF00BF00BF0846006855
:1004300040F0080008600846006800F008000090DE
:1004400000BF00BF00BF0846006840F01000086011
:100450000846006800F01000009000BF00BF00BF19
:100460000846006840F0200008600846006800F078
:100470002000009000BF00BF00BF0846006840F0A9
:10048000400008600846006800F04000009000BF8F
:1004900000BF00BF0846006840F0800008600846C2
:1004A000006800F08000009000BF00BF00BF084659
:1004B000006840F4807008600846006800F48070AE
:1004C000009000BF00BF00BF0846006840F4007005
:1004D00008600846006800F40070009000BF00BF8C
:1004E00000BF0846006840F4806008600846006865
:1004F00000F48060009000BF00BF08BD30380240AB
:100500007CB5044600F02CFF054600F019FF0646B6
:100510000020CDE900040848006800EB800202EBEF
:10052000C002064800EB82002B463246416A024870
:10053000006805F0D1FC7CBDAC010120A8D80120E9
:1005400070B504461F48006800EB40001E4951F892
:1005500020501C48006800EB400001EB8000406820
:100560001849096801EB4101174A42F8210000F0DF
:10057000E7FE86B21348006800EB4000124A02EB27
:1005800080008068C3880F48006800EB400002EBE1
:1005900080008068C088604381B23246002000F04D
:1005A00065FE0848006800EB4000074941F820500C
:1005B0000449096801EB4101034A52F8210000F0A7
:1005C000EFFF70BDAC01012018D8012010B5A2B01A
:1005D0000446C020069005210891082001904003A0
:1005E0000C9001A803F040F922B010BD2DE9F041B4
:1005F00006460F461446A4F120001449096801EB91
:100600004101134B03EB81018968C98848430F49B5
:10061000096801EB410103EB810189688988CD1DDF
:10062000E91705EB5171C910084B1B6803EB430335
:10063000DFF81CC00CEB83039B681B6800FB0132D6
:100640003946304601F01AFDBDE8F081AC010120C9
:1006500018D8012010B50021044804F0E5FF00225D
:100660004FF48071024802F0F9FB10BD30D8012030
:100670000020024010B509480068806940F0010080
:100680000649096888610021054804F09BFF0122A2
:100690001102044802F0E2FB10BD000070D80120F6
:1006A00030D80120002002402DE9FF5F04461546A6
:1006B000984601264FF0000900274FF0000AAB468C
:1006C00000E07F1C1BF8011B0029FAD100F038FE66
:1006D0003D49096801EB41013C4A02EB810189680F
:1006E0008988B0FBF1FAB8F1010F06D0B8F1020F1A
:1006F00015D0B8F1030F22D10FE0AAEB0700324961
:10070000096801EB4101314A02EB8101896889885E
:10071000484304EB500086B213E0264611E0AAEBF2
:1007200007012948006800EB4000284A02EB8000DE
:1007300080688088624201FB002086B201E0264684
:1007400000BF00BF012E02DBB6F5004F00DB012623
:1007500014E02A7830460199FFF748FF1A480068EC
:1007600000EB4000194901EB80008068808830442C
:1007700086B26D1C09F101001FFA80F900F0E0FD5E
:100780001149096801EB4101104A02EB81018968B6
:10079000898809FB110080B20B49096801EB41010E
:1007A00002EB810189688988884201D3012000E039
:1007B0000020297809B1012100E00021084000282B
:1007C000C7D1BDE8FF9F0000AC01012018D801206F
:1007D00070B504460D4600F0A5FDC088604386B2A2
:1007E00003232A4631460020FFF75EFF70BD00005C
:1007F0002DE9F84F80468946144600BF00BF00BF70
:1008000000BF00200090A07AE17A00EB0120217B5C
:1008100000EB0140617B00EB0166A07CE17C00EB1A
:100820000120217D00EB0140617D00EB0167A07D8F
:10083000E17D00EB0120217E00EB0140617E00EBB9
:10084000016A207F617F00EB012500F079FD00FB4C
:1008500009801B49096801EB810202EBC1021949B9
:1008600001EB8201496A01EB800B0420B0EBD50F4C
:1008700002D10020009007E00220B0EBD50F01D19B
:10088000009001E001200090AAF101007843E908FE
:1008900000FB0160044400260DE03A46594620461C
:1008A000009B05F0E7FA00F04BFD0BEB800BE8082E
:1008B00007FB1044761C5645EFD3BDE8F88F0000C7
:1008C000AC010120A8D801202DE9F04306460F46CF
:1008D00090460320A0EB4809002445467EE0424BA9
:1008E0001B6803EB4303DFF804C15CF823207B1B88
:1008F00099B2331998B200F017FA3B4B1B6803EB1F
:100900004303DFF8E8C05CF823207B1B99B2331B5C
:1009100098B200F009FA344B1B6803EB4303DFF88D
:10092000CCC05CF823203B1B99B2731998B200F03D
:10093000FBF92D4B1B6803EB4303DFF8B0C05CF8F9
:1009400023203B1B99B2731B98B200F0EDF9264BA4
:100950001B6803EB4303DFF894C05CF823207B198A
:1009600099B2331998B200F0DFF91F4B1B6803EB03
:100970004303DFF878C05CF823207B1999B2331B5E
:1009800098B200F0D1F9184B1B6803EB4303DFF872
:100990005CC05CF823203B1999B2731998B200F03F
:1009A000C3F9114B1B6803EB4303DFF840C05CF84D
:1009B00023203B1999B2731B98B200F0B5F9B9F135
:1009C000000F04DA062000EB8400814405E0601B80
:1009D0000A2101EB800081446D1E641CAC427FF64D
:1009E0007EAFBDE8F0830000AC01012018D80120E3
:1009F0002DE9F84F06460F46904699460024C9F166
:100A000000054FEA4800C0F1020ADFED4E1AB0EED1
:100A1000610ADFED4C1AF0EE610ADFED4A1AB0EE22
:100A2000611A01EE908AF8EEE11AF0EE610A01EE29
:100A3000909AF8EEE11AB0EE611AC1EE201AB0EE0B
:100A4000610A00BF01EE904AF8EEE11A81EE802AB9
:100A5000FCEEC21A11EE900A301A80B200903A48A9
:100A6000006800EB4000394B53F82020781981B220
:100A7000009800F059F901EE904AF8EEE11A81EE83
:100A8000802AFCEEC21A11EE900A304480B2009027
:100A90002D48006800EB40002C4B53F820207819BB
:100AA00081B2009800F040F901EE904AF8EEE11AA8
:100AB00081EE802AFCEEC21A11EE900A304480B218
:100AC00000902148006800EB4000204B53F82020A4
:100AD000781B81B2009800F027F901EE904AF8EEF9
:100AE000E11A81EE802AFCEEC21A11EE900A301A49
:100AF00080B200901448006800EB4000134B53F89C
:100B00002020781B81B2009800F00EF9D346A3454F
:100B10000BDC601C0446012101EB40008244E542ED
:100B200003D1AB4501DC4FF0000BAB4505DD681C84
:100B30000546012101EB40008244002D82DDBDE825
:100B4000F88F000000000000AC01012018D801203F
:100B50002DE9FC4104460D46174600BF20480068B9
:100B600000EB800101EBC0011E4800EB8100006931
:100B7000022811D100F0E4FB00FB05411848006891
:100B800000EB800202EBC002164800EB8200406AD4
:100B9000022202FB010610E000F0D2FB00FB05413F
:100BA0000F48006800EB800202EBC0020D4800EB2A
:100BB0008200406A042202FB01060948006800EB3B
:100BC0004000094951F82000002101233A46CDE9AF
:100BD000001031460248006805F07EF9BDE8FC814E
:100BE000AC010120A8D8012018D801202DE9F04F30
:100BF00089B005460E4691469A460027B846BB4640
:100C0000002008900790069005900490002403901F
:100C1000029001900090A9EB0500002802DDA9EBED
:100C2000050001E0A5EB090007B2AAEB06000028C9
:100C300002DDAAEB060001E0A6EB0A000FFA80F83D
:100C40000FFA85FB30B20890A94503DB012007901D
:100C5000069003E04FF0FF3007900690B24503DBAB
:100C600001200590049003E04FF0FF3005900490C0
:100C700047450DDB0020079004903C46384607EBC3
:100C8000D071491009B20391CDF8088001970CE0AA
:100C90000020069005904446404608EBD07149106C
:100CA00009B203910297CDF80480002000902FE054
:100CB0001B4B1B6803EB4303DFF868C05CF8232081
:100CC000089B99B21FFA8BF000F02EF8DDE90210B4
:100CD000084400B203900398A0420CDB0398001B69
:100CE00000B20390079858440FFA80FB05990898C2
:100CF000084400B20890069858440FFA80FB049903
:100D00000898084400B208900098401C00B2009077
:100D1000DDE900018842CBDD09B0BDE8F08F0000BD
:100D2000AC01012018D8012030B503460C46174805
:100D3000006800EB800101EBC001154800EB810069
:100D40000069022810D100F0FBFA04FB00304100DA
:100D50000E48006800EB800505EBC0050C4800EB71
:100D60008500406A42520FE000F0EAFA04FB0030CE
:100D700081000648006800EB800505EBC0050448CB
:100D800000EB8500406A425030BD0000AC010120FC
:100D9000A8D80120F0B504460D4600260027022DF4
:100DA00000DAF0BD04EB850C3CF802CC1FFA8CF3A2
:100DB00004EB850C3CF804CC1FFA8CF2B4F802C0AA
:100DC0001FFA8CF1B4F800C01FFA8CF0FFF70EFF89
:100DD00010E0B4F90060B4F90270241DB4F802C048
:100DE0001FFA8CF3B4F800C01FFA8CF2B9B2B0B29B
:100DF000FFF7FCFE681E80B2051EEAD100BFD0E7F7
:100E00002DE9F04105460E4617461C463A46314646
:100E10002846FFF79DFE301981B23A462846FFF773
:100E200097FE22463146284600F008F8E91988B2B4
:100E30002246314600F002F8BDE8F0812DE9FC4180
:100E400004460D46174600BF2248006800EB8001AB
:100E500001EBC001204800EB81000069022811D19C
:100E600000F06EFA00FB05411A48006800EB8002B2
:100E700002EBC002184800EB8200406A022202FB2B
:100E8000010610E000F05CFA00FB05411148006823
:100E900000EB800202EBC0020F4800EB8200406AC8
:100EA000042202FB010600F04BFAA0F101080948F8
:100EB000006800EB4000094951F820003B46012240
:100EC0003146CDE900800348006805F005F8BDE82B
:100ED000FC810000AC010120A8D8012018D8012015
:100EE0002DE9F04706460F4690460320A0EB48093F
:100EF000002445462649096801EB4101254A52F87C
:100F0000210000F04DFB30E07DB16B041A0C3B1961
:100F100099B2731B98B2FFF71BFE6B041A0C3B1BB4
:100F200099B2731B98B2FFF713FE7CB163041A0CDD
:100F30007B1B99B2331B98B2FFF70AFE63041A0CAD
:100F40007B1999B2331B98B2FFF702FEB9F1000F7B
:100F500004DA062000EB8400814405E0601B0A21CE
:100F600001EB800081446D1E641CAC42CCD9084961
:100F7000096801EB4101074A52F8210000F010FB1B
:100F8000424639463046FFF79FFCBDE8F087000037
:100F9000AC01012018D801202DE9F04F2DED048B74
:100FA00083B081468A4616461F4600247D42700063
:100FB000C0F102089FED400AB0EE408A9FED3E0A64
:100FC000F0EE408A9FED3C0AB0EE409A00EE106AC7
:100FD000B8EEC00AF0EE408A00EE107AB8EEC00A11
:100FE000B0EE409A89EE280AB0EE408A00BF00EECB
:100FF000104AB8EEC00AC0EE080ABCEEE00A10EED5
:10100000100A4000401C80B200EE104AB8EEC00A40
:10101000C0EE080ABCEEE00A029010EE100AA9EB3E
:10102000000080B201900AEB050081B2DDE9010207
:10103000FFF78EFD00EE104AB8EEC00AC0EE080AB7
:10104000BCEEE00A10EE100A4000401C80B200EE38
:10105000104AB8EEC00AC0EE080ABCEEE00A0290E0
:1010600010EE100AA9EB000080B20190AAEB050077
:1010700081B2DDE90102FFF76BFDC346A3450BDC3E
:10108000601C0446012101EB40008044E54203D18D
:10109000AB4501DC4FF0000BAB4505DD681C054698
:1010A000012101EB40008044002DA0DD03B0BDEC28
:1010B000048BBDE8F08F0000000000002DE9F04F28
:1010C0008BB00446894600200A900990002500262E
:1010D0000027804608900790824683460690059038
:1010E000049003900290208880B20490059060885C
:1010F00080B2029003900120069023E0069834F914
:1011000020A00598824502DA1FFA8AF0059004981B
:10111000824502DD1FFA8AF00490069804EB8000F5
:10112000B0F902B00398834502DA1FFA8BF00390FE
:101130000298834502DD1FFA8BF002900698401C4E
:1011400000B2069006984845D8DBB9F1020F02DAE2
:101150000BB0BDE8F08FDDE90421881800EBD071F9
:1011600049100FB2DDE90212881800EBD071491066
:101170000FFA81F8B4F900000890B4F90200079062
:101180003BE0B4F900000A90B4F902000990241D74
:10119000B4F90050B4F902601FFA88F0B1B2CDE999
:1011A0000010DDF824C01FFA8CF3BAB2A9B2DDF842
:1011B00028C01FFA8CF001F01FF9B0B21FFA88F1B5
:1011C000CDE90010DDF824C01FFA8CF3AAB2B9B241
:1011D000DDF828C01FFA8CF001F00EF9099880B2F2
:1011E000B1B21FFA88F3CDE90010DDF828C01FFA6C
:1011F0008CF2A9B2B8B201F0FFF8A9F1010080B2F7
:10120000B0F10009BDD11FFA88F0B1B2CDE90010EC
:10121000DDF81CC01FFA8CF3BAB2A9B2DDF820C009
:101220001FFA8CF001F0E8F8B0B21FFA88F1CDE9AE
:101230000010DDF81CC01FFA8CF3AAB2B9B2DDF8B9
:1012400020C01FFA8CF001F0D7F8079880B2B1B235
:101250001FFA88F3CDE90010DDF820C01FFA8CF2E8
:10126000A9B2B8B201F0C8F800BF71E72DE9FC4798
:1012700004460D461746984600BF2749096801EB0A
:101280004101264A52F8210000F08AF922480068FC
:1012900000EB800101EBC001214800EB81000069F7
:1012A000022811D100F04CF800FB05411A480068F3
:1012B00000EB800202EBC002194800EB8200406A9A
:1012C000022202FB010610E000F03AF800FB0541A3
:1012D0001148006800EB800202EBC002104800EBEE
:1012E0008200406A042202FB010600F029F8A0EB0C
:1012F00007090948006800EB4000084951F8200040
:1013000043463A463146CDE900900348006804F070
:10131000E3FDBDE8FC870000AC01012018D80120E6
:10132000A8D801200448006800EB4000034901EB05
:101330008000806870470000AC01012018D80120AF
:101340000548006800EB800101EBC001034800EB99
:101350008100806A70470000AC010120A8D80120FC
:101360000548006800EB800101EBC001034800EB79
:101370008100C06A70470000AC010120A8D801209C
:1013800010B504F097F91E481E49086000211D4859
:101390004161022181612E21C1611921016240F266
:1013A0004E31416240F2F911816240F20F21016336
:1013B0004FF48461C162FFF709F90021114880F8F8
:1013C000341080F8351080F836104FF448710166FB
:1013D0004FF4F071416600200A4948600021094835
:1013E0008160C160016101F0B2FD10B9054800F0F3
:1013F00053F8044801F0B0FD00F016FA002010BDCB
:101400000068014070D8012030B58DB004460D460B
:1014100000200090FFF794FF019000200290FFF75A
:101420009FFF0390022004900995FF200590002063
:1014300006908DF8300000218DF831108DF83210B3
:101440004FF4C060079007200890FFF779FF0A90DB
:10145000FFF786FF0B90224669460C4801F048FDD5
:101460004FF0FF3004EB4401094A02EB8101486070
:10147000084804EB440102EB810188604FF07F4093
:1014800004EB440142F821000DB030BD70D80120BA
:1014900018D801208C01012010B586B0044600BF89
:1014A0002848006840F080602649086008460068C7
:1014B00000F08060009000BF00BF00BF21481438DA
:1014C000006840F400001F491439086008460068AD
:1014D00000F40000009000BF00BF002003900E2029
:1014E000059002200290032004904020019001A961
:1014F000154801F09FFB4FF42240019001A91348C9
:1015000001F098FB4EF20340019001A9104801F050
:1015100091FB4FF2BB50019001A90E4801F08AFBEC
:10152000FC20019001A90C4801F084FB01200290ED
:101530000002019001A9064801F07CFBFFF78AF840
:1015400006B010BD4438024000180240001C0240A2
:1015500000200240002402400028024001490860A7
:1015600070470000AC0101200449096801EB41010A
:10157000034A02EB8101486070470000AC01012082
:1015800018D801200449096801EB4101034A02EB24
:101590008101886070470000AC01012018D801204B
:1015A0000349096801EB4101024A42F821007047F2
:1015B000AC01012018D8012010B504464FF0C042FC
:1015C0002146074801F07EFD4FF420024FF0C04154
:1015D000034801F023FE08B1012010BD0020FCE704
:1015E00074D9012038B5012400BF2348006840F0B9
:1015F0000100214908600846006800F001000090E1
:1016000000BF00BF4FF020401C4908601C484860E4
:1016100002201C4908614861072088600120486059
:10162000042008600120C860002088611349886098
:10163000002112480164082101618904C16300216D
:1016400081624163C1620162210341620021C16084
:101650001021416100210163C1618161816300F05A
:1016600013F8084A1146054801F01AFE00B100E0DF
:101670000024204638BD00003838024074D90120CB
:10168000040100A058D9012030B585B004460D46AC
:10169000FEF772FE012002900C20049002200190BF
:1016A0000320039043F6F00000906946084801F0DB
:1016B000C1FA382000906946064801F0BBFA0820BC
:1016C00000906946044801F0B5FA05B030BD00004D
:1016D000000C0240001002400018024070B50446A1
:1016E0000D46164604F1C04133462A46034801F030
:1016F000B1FE08B1012070BD0020FCE774D90120C3
:1017000010B504462146044801F022FF08B101202B
:1017100010BD0020FCE7000074D9012010B5194865
:1017200001F0B2FF0024174890F84500022800D1CC
:1017300010BD1448806810B94FF0C0440FE0114844
:101740008068022802D14FF0C84408E00D48806844
:10175000042802D14FF0D04401E04FF0D84400BF3C
:10176000F020208000BF00BF00BFBFF34F8F00BF3D
:1017700000BF00BF00BF0120024981F8450000BF43
:10178000D6E7000074D901202DE9F04104460D464A
:101790001646374613E004F1C0412A460A4801F0D4
:1017A000D7FD4FF488424FF0C041074801F036FDA5
:1017B00010B10120BDE8F0817F1EAD1CA41C002FDC
:1017C000E9D10020F6E7000074D9012010B501210D
:1017D000094801F03BFB01280BD1642001F016FA07
:1017E0000121054801F032FB012800D110BD002085
:1017F000FCE70020FAE700000000024000B585B0D9
:1018000014216846FEF748FD002002900120009058
:101810000020019003906946024801F00BFA05B0E0
:1018200000BD00000000024010B501241A481B4909
:10183000086002201A49486188610620C8600420B7
:10184000886002200860086107204860E1021348B0
:10185000016200201149486010211048016109010E
:10186000816109014162002181620821C160012179
:101870008160402141610021C16100F067F80849A1
:10188000064802F005FF00B100E0002440F61820F1
:1018900000F008F8204610BD400100A0BCD901208E
:1018A000F0D9012038B504460020009001202549D8
:1018B000086010204860012088600020C8604FF652
:1018C000FF72214802F041FF012001F09FF9022040
:1018D0001C49086010204860012088600020C86012
:1018E0004FF6FF72184802F030FF032015490860D8
:1018F00010204860082088600020C8604FF6FF7202
:10190000114802F022FF4FF40870009004200D49A6
:10191000086010204860012088600098C8604FF679
:10192000FF72094802F011FF2146074802F0D1FE7C
:1019300005480068406940F61821084302490968D3
:10194000486138BD0CDA0120BCD9012010B586B041
:10195000044600BF1948006840F0010017490860BC
:101960000846006800F00100009000BF00BFFEF7CD
:1019700003FD012003900C2005900220029003201B
:1019800004900120019001A90D4801F053F94FF492
:101990000060019001A90B4801F04CF94FF401409F
:1019A000019001A9084801F045F90C20019001A916
:1019B000064801F03FF906B010BD0000383802407B
:1019C000000802400014024000180240001C0240BF
:1019D00070B504460D46164633462A46214604484D
:1019E00002F08BFE08B1012070BD0020FCE7000072
:1019F000BCD9012070B504460D46164633462A462A
:101A00002146044802F0BEFE08B1012070BD00204E
:101A1000FCE70000BCD901207047000030B585B05C
:101A200004460D4601200290802000900020019085
:101A3000032003906946024801F0FCF805B030BD70
:101A4000001C024070B504460D462A462146044853
:101A500002F01CFF08B1012070BD0020FCE700006F
:101A6000D4D6012010B504462146024803F07CF884
:101A700010BD0000D4D6012010B5044803F087F84B
:101A8000042801D0012010BD0020FCE7D4D601209D
:101A900010B500241548164908600021144801615A
:101AA0008161002012494860002111488160C160B5
:101AB0004161FFF7B3FF00F01DF8012801D00220BB
:101AC00010BD00210A4800F025F8094803F074F918
:101AD00000B1012444B94FF40061054802F082FED0
:101AE00008B1012400E000242046E9E7002C014071
:101AF000D4D6012008B5012000908021044801F0CF
:101B0000A5F9012801D1002000909DF8000008BD32
:101B1000001C024030B5B7B004460D4600BF4D482A
:101B2000006840F400604B4908600846006800F413
:101B30000060019000BF00BF00BF46481438006835
:101B400040F480004349143908600846006800F4F6
:101B50008000019000BF00BF01200490022003908C
:101B60000C200690032005904FF4F850029002A933
:101B7000394801F05FF80420029002A9374801F0CB
:101B800059F800220E21312001F0C9FD312001F069
:101B9000B6FD33481F9020211FA8C1614901016192
:101BA0004903C162891001630021C1604FF00060E8
:101BB000209004211FA841620903816189104161BD
:101BC000002181604FF4403101620321816200BF36
:101BD00020642D9400BF00F04CFE1FA800F0A0FF71
:101BE0004FF0006008904021099100210A914114B2
:101BF0000B91C1130C9141130D9120210E914FF4C3
:101C000040310F9104211091032111910111129182
:101C10008111139112484830079000BF07A8E06374
:101C2000159400BF00F025FE07A800F079FF002200
:101C30000F213B2001F073FD3B2001F060FD0022ED
:101C40000F21452001F06BFD452001F058FD37B014
:101C500030BD00004438024000080240000C024041
:101C600058640240F8B504460D4616461F463346F2
:101C70002A4621460448009703F002F908B10120E2
:101C8000F8BD0020FCE70000D4D60120704700001A
:101C9000F8B504460D4616461F4633462A462146E9
:101CA0000448009703F056FA08B10120F8BD00205F
:101CB000FCE70000D4D60120704710B5034607E0CA
:101CC00018880C88A04201D0012010BD9B1C891CE3
:101CD000101EA2F10104A2B2F2D100BFF5E700BFCD
:101CE000FEE710B5FFF772FD30B100BFFFF76EFDE4
:101CF0000028FBD1012010BD0020FCE72DE9F047B2
:101D00000C4617469C46DDF82080D0F80090D9F8A4
:101D1000449009F0404948EA0C4A49EA0A09D0F8D7
:101D200000A0CAF84490D0F80090C9F83C70D0F8F0
:101D30000490B9F5403F4ED104F07F4604F47F0192
:101D400004F47F42E3B2D0F80890B9F1000F06D155
:101D500042EA010949EA060949EA030536E0D0F8F2
:101D60000890B9F1010F04D142EA010949EA0305DB
:101D70002CE0D0F80890B9F1020F09D1C90C920AF1
:101D8000DB084FEA421949EAC12949EA03051DE087
:101D9000D0F80890B9F1030F0CD1F60FC90CD20A94
:101DA000DB084FEA421949EA812949EAC63949EA7A
:101DB00003050BE0360F090D120B1B094FEA021940
:101DC00049EA012949EA063949EA0305D0F80090B1
:101DD000C9F8385003E0D0F80090C9F80C40BDE8CD
:101DE000F087000010B50249886B00F079FD10BD46
:101DF0008CD6012010B50249086C00F071FD10BDB1
:101E0000D4D6012010B50249C86B00F069FD10BDA1
:101E1000D4D601200146087810381823B0FBF3F21D
:101E20000848805CC865032A05D908686FF3090073
:101E3000001D886503E008686FF309008865886DF8
:101E40007047000000F40008014600208A6A8B6990
:101E5000CBB932B1012A0DD0022A03D0032A10D106
:101E60000EE000BFCB6A03F08073B3F1807F00D136
:101E7000012007E0CB6AB3F1C07F00D1012001E06F
:101E800000E000BF34E08B69B3F5005F1AD132B1D6
:101E9000012A07D0022A03D0032A11D10AE000BF89
:101EA00001200EE0CB6A03F08073B3F1807F00D194
:101EB000012006E0CB6AB3F1C07F00D1012000E031
:101EC00000BF15E032B1012A05D0022A04D0032A4E
:101ED0000CD103E000BF00BF012008E0CB6A03F093
:101EE0008073B3F1807F00D1012000E000BF00BF0C
:101EF0007047704730B58DB0FEF7BCFB0120FFF78F
:101F00002DFB3848FFF73EFB4FF0FF30FFF72CFB6F
:101F10004FF0FF30FEF7F4FA3348FFF741FB01239F
:101F200032A20A210020FEF7BFFB012333A22321A6
:101F30000020FEF7B9FB364A2821322003F016FCB8
:101F40003448FFF71FFBFFF70BFA143884B2012364
:101F500031A221460020FEF7A7FB3948FFF712FB0C
:101F600021487F30FFF71CFBFFF7EAF984B2FFF747
:101F7000F7F9962101EB500085B23C232246294611
:101F80000020FFF773F94FF0FF30FFF709FB164809
:101F90007F30FFF7E9FAFFF7E3F9BE2101EB5000CC
:101FA00084B2012327A221460020FEF77DFB2E48A4
:101FB0000078C0EB00102D4901EB8000021D2CA120
:101FC000684606F08BF8FFF7CBF9A02101EB500033
:101FD00084B201236A4621460020FEF765FB0DB05E
:101FE00030BD00008C010120800000FF53544D33B0
:101FF000323735364720425350000000447269762C
:10200000657273206578616D706C65730000000007
:1020100010850008A4010120436F70797269676818
:1020200074202863292053544D6963726F656C6571
:102030006374726F6E696373203230313600000052
:102040009C01012050726573732054616D7065723C
:1020500020707573682D627574746F6E20746F20B4
:102060007374617274203A0000000120080001209E
:102070002573206578616D706C6500002DE9FC4F5B
:102080000746894692464FF0000800263A48006805
:1020900000EB4000394901EB80008068B0F806B0E1
:1020A0003548006800EB400001EB800080688588BF
:1020B000E81DC11700EB5171C910C5EBC101C9B2D0
:1020C000019100BF54E0E81DC11700EB5171C91028
:1020D00001FB08A4C11700EB5171C910012904D0FC
:1020E000022905D0032909D109E0207800900FE0EA
:1020F0006078217840EA0120009009E000BF207854
:102100000004617840EA0120A1780843009000BFF4
:1021100000BF002624E0A91B01980844401E0121AD
:1021200001FA00F00099084060B11349096801EB19
:102130004101124B53F82120B91988B24946FEF7E4
:10214000F3FD0CE00C49096801EB41010B4B03EB7B
:1021500081014A68B91988B24946FEF7E5FD761C47
:10216000AE42D8D309F101001FFA80F908F1010845
:10217000D845A8D3BDE8FC8FAC01012018D80120B8
:1021800000BE704700BFFEE770B504461D46002341
:10219000B5F5804F13D154F822300C480340D1E9F3
:1021A000000640EA06108E6840EA06208E8940EA62
:1021B00006408E693043034344F8223003E06FF059
:1021C000704044F82200002070BD00000000F0CFF5
:1021D00010B502460023086852F820301B4803401F
:1021E000D1E901042043CC6820430C6920434C69A9
:1021F00020438C692043CC6920430C6A20434C6AFD
:1022000020438C6A2043CC6A20430C6B20438C6BA8
:1022100020434C6B204303438868082801D143F0D6
:102220004003086842F82030086BB0F5801F05D1E4
:10223000086818B110680C6B20431060086818B16A
:1022400010684C6B20431060002010BD8004C0FF5C
:1022500030B5034614460022601C53F8202002F0DB
:102260004042D1E9000540EA05108D6840EA0520AA
:102270008D8940EA0545088A401E45EA0055087DDB
:10228000801E45EA00608D6928430243601C43F8C4
:102290002020186800F48010B0F5801F07D158681E
:1022A00020F47002088A401E42EA00525A60002060
:1022B00030BD30B50246002300240868012816D03E
:1022C00013686FF30E03D1E901052843CD68284355
:1022D0000D6928434D6928438D692843CD692843FA
:1022E0000D6A28434D6A28430343136019E01368BD
:1022F00023F4F843D1E9070528434D6A28430343F3
:1023000054686FF30E04D1E901052843CD682843D2
:102310000D6928434D6928438D69284304431360A0
:102320005460002030BD0246506940EA41005061CF
:102330000020704718B5034600200090D1E9000442
:1023400020438C68641E40EA4410CC6840EA442074
:10235000009000981861002018BD000070B5034679
:10236000154600220024012D1FD09A6802F0704209
:102370000868401E4E68761E40EA06168868401EB1
:1023800046EA0026C868401E46EA0036088A401E13
:1023900046EA0046888A401E46EA0056087E401EED
:1023A00046EA006002439A6022E09A6811480240BF
:1023B000C868401E0603888A401E46EA0050024351
:1023C000DC6804F070440868401E4E68761E40EADF
:1023D00006168868401E46EA0026088A401E46EA1D
:1023E0000046087E401E46EA006004439A60DC60B6
:1023F000002070BDFF0F0FFF2DE9FF4F89B005468C
:1024000089461E46DDF858A00027B846BB46002086
:102410000890079006900590049000240390029085
:1024200001900090A9EB0500002802DDA9EB050052
:1024300001E0A5EB090007B2AAEB0600002802DDC7
:10244000AAEB060001E0A6EB0A000FFA80F80FFAEB
:1024500085FB30B20890A94503DB01200790069068
:1024600003E04FF0FF3007900690B24503DB0120F8
:102470000590049003E04FF0FF300590049047452D
:102480000DDB0020079004903C46384607EBD071E6
:10249000491009B20391CDF8088001970CE00020A3
:1024A000069005904446404608EBD071491009B2A9
:1024B00003910297CDF804800020009029E0089A4B
:1024C00091B21FFA8BF0179B0B9AFEF78FFBDDE999
:1024D0000210084400B203900398A0420CDB03985A
:1024E000001B00B20390079858440FFA80FB05992F
:1024F0000898084400B20890069858440FFA80FBE8
:1025000004990898084400B208900098401C00B252
:102510000090DDE900018842D1DD0DB0BDE8F08F0B
:1025200010B50346002000BF03E0841823F81040D4
:10253000401C8842F9D310BD10B50346002000BFEF
:1025400003E0841843F82040401C8842F9D310BDB2
:1025500010B50346002000BF03E0841843F8204074
:10256000401C8842F9D310BD70B502460C46506835
:10257000B0F5403F02D0506800B100BF00BF92F8F4
:102580003800012801D1022070BD012082F83800F6
:1025900000BF022082F8390002F1180000EB04119C
:1025A0000E89486840EA0643214D48680A2802D04F
:1025B0004868092804D1C86800F07F40034302E05E
:1025C000087B43EA0063A4B91068406AA843184333
:1025D0001668706208681668B06148680A2802D0F8
:1025E0004868092819D1C86820F07F401668B06291
:1025F00013E01068C069A84318431668F0610868C2
:102600001668306148680A2802D04868092804D151
:10261000C86820F07F4016683062012082F83900D7
:1026200000BF002082F8380000BF00BFACE7000008
:102630000F0003FF10B504460CB9012010BD94F83B
:10264000390028B9002084F83800204600F022F82C
:10265000022084F839002068006820F44030616866
:102660000843216808602068406B20F00700A168DB
:102670000843216848632068006C6FF30D00E1682F
:102680000843216808640020E063012084F83900D1
:102690000020D3E77047F8B504460D4600200090AF
:1026A0002068006800F00100002843D000F0DCFB47
:1026B000064639E0206840680090009800F021004C
:1026C000E0B1009800F0200018B1E06B40F002008B
:1026D000E063009800F0010018B1E06B40F00100E9
:1026E000E063212021688860042084F8390000BF5D
:1026F000002084F8380000BF0120F8BD681C98B1A4
:1027000000F0B2FB801BA84200D86DB9E06B40F02E
:102710002000E063032084F8390000BF002084F823
:10272000380000BF0320E8E72068406800F002009E
:102730000028BFD02068C06900F020072068406AE8
:1027400000F020000743002F4BD000F08DFB064621
:1027500041E0206840680090009800F0290020B314
:10276000009800F0080018B1E06B40F00400E0634E
:10277000009800F0200018B1E06B40F00200E06328
:10278000009800F0010018B1E06B40F00100E06338
:10279000292021688860042084F8390000BF0020C7
:1027A00084F8380000BF0120A7E7681C98B100F04A
:1027B0005BFB801BA84200D86DB9E06B40F02000A5
:1027C000E063032084F8390000BF002084F838005B
:1027D00000BF032091E72068406800F01000002847
:1027E000B7D0122021688860012084F8390000BF2A
:1027F000002084F8380000BF00BF7EE72DE9F843D1
:1028000004460D4616461F46DDF8208000BF94F8AA
:102810003800012802D10220BDE8F883012084F8A5
:10282000380000BF022084F839003B463246294672
:102830002046CDF80080FFF761FA2068006840F07C
:102840000100216808600020E6E7014691F83500A4
:10285000022803D08020486501207047052081F8B8
:1028600035000868006820F001000A681060002048
:10287000F3E770B504460CB9012070BD94F835003B
:10288000022800D1F9E72068006820F001002168E3
:10289000086000202168086021684860216888601D
:1028A0002168C860216808612120216848612046AC
:1028B000FFF7B0FA054694F85C103F208840A86006
:1028C0000020E06320646064A064E06420656065CB
:1028D00084F8350000BF84F8340000BF00BFCCE7A7
:1028E000F8B50446002000908C4800684FF416515B
:1028F000B0FBF1F7A56D2E6894F85C1008208840B5
:10290000304098B12068006800F0040070B1206881
:10291000006820F004002168086094F85C1008202A
:102920008840A860606D40F00100606594F85C101C
:1029300001208840304068B12068406900F0800084
:1029400040B194F85C1001208840A860606D40F0B0
:102950000200606594F85C1004208840304068B143
:102960002068006800F0020040B194F85C10042078
:102970008840A860606D40F00400606594F85C10C9
:1029800010208840304078B32068006800F00800CC
:1029900050B394F85C1010208840A860206800684C
:1029A00000F4802080B12068006800F4002028B97D
:1029B000206CC8B12046216C884715E0A06C98B106
:1029C0002046A16C88470FE02068006800F4807002
:1029D00028B92068006820F0080021680860206C91
:1029E00010B12046216C884794F85C102020884064
:1029F0003040002865D02068006800F010000028F2
:102A00005FD094F85C1020208840A86094F83500CE
:102A1000052828D12068006820F016002168086089
:102A20002068406920F0800021684861206C08B966
:102A3000A06C28B12068006820F0080021680860B8
:102A400094F85C103F208840A86000BF002084F804
:102A5000340000BF012084F83500206D10B12046FD
:102A6000216D8847F8BD2068006800F4802080B19F
:102A70002068006800F4002028B9606C10B120467E
:102A8000616C88471DE0E06BD8B12046E16B884758
:102A900017E02068006800F4807068B9206800685A
:102AA00020F010002168086000BF002084F8340086
:102AB00000BF012084F83500E06B10B12046E16BC7
:102AC0008847606D38B3606D00F00100F0B10520FB
:102AD00084F835002068006820F001002168086053
:102AE00000BF0098401C0090B84200D905E0206863
:102AF000006800F001000028F3D100BF00BF0020F3
:102B000084F8340000BF012084F83500E06C10B177
:102B10002046E16C884700BFA4E70000B001012017
:102B20002DE9F0410446002500F09EF9074614B94E
:102B30000120BDE8F081606A00B100BF00BF002045
:102B400084F8340000BF022084F835002068006853
:102B500020F00100216808600AE000F085F9C01B40
:102B6000052805D920206065032084F83500E0E7BA
:102B70002068006800F001000028EED12068056898
:102B800021480540D4E901010843E168084321696F
:102B9000084361690843A1690843E1690843216A60
:102BA00008430543606A042803D1D4E90B010843B4
:102BB0000543206805602068456925F00705606ABF
:102BC0000543606A04280DD1A06A0543E06A48B154
:102BD0002046FFF739F928B140206065012084F8CC
:102BE0003500A6E7206845612046FFF713F9064641
:102BF00094F85C103F208840B060002060650120A0
:102C000084F83500002094E73F8010F070B504464A
:102C100000F02AF906462546681C10B104480078E1
:102C2000054400BF00F020F9801BA842FAD370BD14
:102C3000BC010120F8B502460B4600210025002406
:102C4000002000BFE4E0012606FA01F51E6806EA4E
:102C50000504AC4271D15E68012E08D05E68022E78
:102C600005D05E68112E02D05E68122E13D19068D6
:102C70004F000326BE40B0434F00DE68BE403043E5
:102C80009060506801268E40B0431E79C6F300164E
:102C90008E4030435060D0684F000326BE40B043A2
:102CA0004F009E68BE403043D0605E68022E02D066
:102CB0005E68122E13D1CF0802F1200656F82700C5
:102CC0004E07F70E0F26BE40B0434F07FF0E1E699A
:102CD000BE403043CF0802F1200646F827001068B6
:102CE0004F000326BE40B0431E7906F003064F0096
:102CF000BE40304310605E6806F08056B6F1805FDB
:102D0000A8D100BF444E366846F48046424F3E602C
:102D10003E46366806F48046009600BF00BF3F4E30
:102D20008F0856F827008E07370F0F26BE40B04396
:102D30003B4EB24202D100262EE068E0394EB2424C
:102D400001D1012628E0384EB24201D1022623E00B
:102D5000364EB24201D103261EE0354EB24201D1B9
:102D6000042619E0334EB24201D1052614E0324E5A
:102D7000B24201D106260FE0304EB24201D1072601
:102D80000AE02F4EB24201D1082605E02D4EB24294
:102D900001D1092600E00A268F073F0FBE403043CD
:102DA0001E4E8F0846F82700274E3068A0435E6805
:102DB00006F48036B6F5803F00D12043224E3060C5
:102DC000361D3068A0435E6806F40036B6F5003F55
:102DD00000D120431C4E361D3060361D3068A043A4
:102DE0005E6806F48016B6F5801F00D12043164EAB
:102DF00008363060361D3068A0435E6806F4001661
:102E0000B6F5001F00D120430F4E0C363060491C30
:102E10001029FFF418AFF8BD4438024008380140CB
:102E2000000002400004024000080240000C024082
:102E3000001002400014024000180240001C024032
:102E40000020024000240240003C01400246136979
:102E50000B400BB1012000E0002070470AB18161F6
:102E600001E00B048361704701480068704700006F
:102E7000B401012003480068034909780844014966
:102E800008607047B4010120BC01012010B5032087
:102E900000F084FC002000F005F800F0EBF80020C2
:102EA00010BD000070B504460E4800784FF47A71EA
:102EB000B1FBF0F00C490968B1FBF0F5284602F0CF
:102EC00072FA08B1012070BD102C07D200222146F1
:102ED000501E00F024FC0548046001E00120F2E7E8
:102EE0000020F0E7BC010120B0010120B801012061
:102EF00070B504460E46154600BF94F8A0000128A0
:102F000001D1022070BD012084F8A00000BF022082
:102F100084F8A10005EB850101EBC50204F138013D
:102F200001EB820034223146FDF79DF92A463146F5
:102F3000204603F015F801202168486284F8A100BA
:102F400000BF002084F8A00000BF00BFDAE7014600
:102F500091F8A1007047000070B504460CB901203B
:102F600070BD94F8A10028B9002084F8A000204684
:102F700000F07EF8022084F8A1002068806920F02B
:102F8000704021688861D4E901010843E168084381
:102F9000216908432168896908432168886120689C
:102FA00080683249084021688860A08A050420684A
:102FB0008068A16929430843216888602068C06847
:102FC0002A4908402168C860A08B05042068C068B1
:102FD000216A294308432168C860206800692349A1
:102FE000084021680861A08C050420680069A16A76
:102FF0002943084321680861206840691B4908404B
:1030000021684861A08D050420684069216B29432F
:1030100008432168486194F83500050294F83600A9
:1030200006042068C06A00F07F402168C86246EA52
:10303000050094F8341008432168C96A08432168E0
:10304000C8622068406B40F0060021684863206831
:10305000806940F00100216888610020C4F8A40064
:10306000012084F8A10000207AE7000000F800F0B9
:103070007047000008B500BF1148006840F080505C
:103080000F4908600846006800F08050009000BFBB
:1030900000BF00BF081D006840F48040091D0860A3
:1030A0000846006800F48040009000BF00BF002286
:1030B0001146052000F033FB052000F020FB08BD81
:1030C0004038024030B503460C46002100BF93F85B
:1030D0004400012801D1022030BD012083F84400C2
:1030E00000BF93F84500022800D1F5E7986810B9B1
:1030F0004FF0C0410DE09868022802D14FF0C8415E
:1031000007E09868042802D14FF0D04101E04FF069
:10311000D841022083F8450000BFAA253E48006838
:10312000012802D101F6AA2001E001F255500580E4
:1031300000BF00BF00BFBFF34F8F00BF00BF00BF85
:1031400000BF00BF552534480068012802D101F2B4
:10315000545001E001F2AA20058000BF00BF00BF6B
:10316000BFF34F8F00BF00BF00BF00BF00BF80256F
:1031700029480068012802D101F6AA2001E001F2E5
:103180005550058000BF00BF00BFBFF34F8F00BF89
:1031900000BF00BF00BF00BFAA251F48006801286C
:1031A00002D101F6AA2001E001F25550058000BFCE
:1031B00000BF00BFBFF34F8F00BF00BF00BF00BF05
:1031C00000BF552514480068012802D101F254506F
:1031D00001E001F2AA20058000BF00BF00BFBFF3DD
:1031E0004F8F00BF00BF00BF00BF00BF3020A05204
:1031F00000BF00BF00BFBFF34F8F00BF00BF00BFC5
:1032000000BF012083F8450000BF002083F8440080
:1032100000BF00BF60E70000C00101202DE9F047BA
:1032200081460C46154601270026B046B24629467F
:10323000484600F071F8FFF717FE82462BE0681C45
:1032400038B12DB1FFF710FEA0EB0A00A84200D95B
:1032500003272688B4F8008006F0400008F04001FB
:10326000884202D10020BDE8F08706F02000202827
:1032700000D101272688B4F8008006F0400008F04D
:103280004001884201D10020EDE706F0200020280F
:1032900001D10220E7E70FB1032FD0D13846E2E792
:1032A00070B504460E4615460CB9012070BD94F861
:1032B000450028B9002084F84400204600F02AF890
:1032C00004F108012068FEF783FF3146A2682068F8
:1032D000FEF7BEFF2946E36AD4E90102FEF754FF78
:1032E000A168206850F8210040F00100A268216820
:1032F00041F82200606918B900200549086002E021
:10330000012003490860012084F845000020CDE732
:10331000C00101207047000070B506460D462C46DE
:1033200000E0641E40210948FFF790FD08B1002C21
:10333000F7D12C4600E0641E40210448FFF786FDCB
:10334000012801D0002CF6D170BD0000000C024015
:1033500030B503460C46002100BF93F84400012815
:1033600001D1022030BD012083F8440000BF93F852
:103370004500022800D1F5E7986810B94FF0C04128
:103380000DE09868022802D14FF0C84107E0986824
:10339000042802D14FF0D04101E04FF0D841022083
:1033A00083F8450000BFAA2529480068012802D1FA
:1033B00001F6AA2001E001F25550058000BF00BFD0
:1033C00000BFBFF34F8F00BF00BF00BF00BF00BFF3
:1033D00055251F480068012802D101F2545001E030
:1033E00001F2AA20058000BF00BF00BFBFF34F8FCE
:1033F00000BF00BF00BF00BF00BFA0251448006889
:10340000012802D101F6AA2001E001F25550058001
:1034100000BF00BF00BFBFF34F8F00BF00BF00BFA2
:1034200000BF00BF1088208000BF00BF00BFBFF3F7
:103430004F8F00BF00BF00BF00BF012083F84500D1
:1034400000BF002083F8440000BF00BF8AE70000EF
:10345000C001012070B504460D46002100BF94F85C
:103460004400012801D1022070BD012084F84400ED
:1034700000BF94F84500022800D1F5E7A06810B914
:103480004FF0C0410DE0A068022802D14FF0C841C2
:1034900007E0A068042802D14FF0D04101E04FF0CE
:1034A000D841022084F8450000BFAA2627480068BA
:1034B000012802D101F6AA2001E001F25550068050
:1034C00000BF00BF00BFBFF34F8F00BF00BF00BFF2
:1034D00000BF00BF55261D480068012802D101F237
:1034E000545001E001F2AA20068000BF00BF00BFD7
:1034F000BFF34F8F00BF00BF00BF00BF00BFF0266B
:1035000012480068012802D101F6AA2001E001F268
:103510005550068000BF00BF00BFBFF34F8F00BFF4
:1035200000BF00BF00BF04E0288822F8020BAD1CDA
:103530005B1E002BF8D1012084F8450000BF00205D
:1035400084F8440000BF00BF8EE70000C0010120E6
:1035500010B502460B46002100BF92F84400012836
:1035600001D1022010BD012082F8440000BF92F872
:103570004500022800D1F5E7906810B94FF0C0412E
:103580000DE09068022802D14FF0C84107E0906832
:10359000042802D14FF0D04101E04FF0D841022081
:1035A00082F8450000BFAA2436480068012802D1ED
:1035B00001F6AA2001E001F25550048000BF00BFCF
:1035C00000BFBFF34F8F00BF00BF00BF00BF00BFF1
:1035D00055242C480068012802D101F2545001E022
:1035E00001F2AA20048000BF00BF00BFBFF34F8FCD
:1035F00000BF00BF00BF00BF00BF9024214800688B
:10360000012802D101F6AA2001E001F25550048000
:1036100000BF00BF00BFBFF34F8F00BF00BF00BFA0
:1036200000BF18480068012800D100E000BF0888EA
:10363000188014480068012801D1881C00E0481C4B
:10364000008858800F480068012802D101F11C0051
:1036500001E001F10E00008898800A480068012806
:1036600002D101F11E0001E001F10F000088D880B5
:10367000012082F8450000BF002082F8440000BF0E
:1036800000BF6FE7C00101200146002200BF91F892
:103690004400012801D102207047012081F8440034
:1036A00000BF91F84500022800D1F5E7886810B9FD
:1036B0004FF0C0420DE08868022802D14FF0C842A6
:1036C00007E08868042802D14FF0D04201E04FF0B3
:1036D000D84200BFF020108000BF00BF00BFBFF382
:1036E0004F8F00BF00BF00BF00BF012081F8450021
:1036F00000BF002081F8440000BF00BFCCE70146B6
:103700000846002809DB00F01F0301229A40430904
:103710009B0003F1E023C3F8002100BF70472DE9AF
:10372000F05F80460D461646002704F0EBFC074686
:1037300039462A46334601F00700C0F1070ABAF1BC
:10374000040F02D94FF0040A01E0C0F1070AD14684
:1037500000F1040ABAF1070F02D24FF0000A01E0AB
:10376000A0F1030AD4464FF0010A0AFA09FAAAF1B5
:10377000010A0AEA020A0AFA0CFA4FF0010B0BFAE4
:103780000CFBABF1010B0BEA030B4AEA0B042146DD
:10379000404604F0BFFCBDE8F09F000000BF00F011
:1037A0000702064B19684FF6FF031940044B0B4301
:1037B00043EA0221014B196000BF70470CED00E0A5
:1037C0000000FA0538B5002400BF2048006840F02A
:1037D00080501E4908600846006800F08050009044
:1037E00000BF00BF1A48006840F4803018490860E4
:1037F000FFF73AFB044607E0FFF736FB001BB0F586
:103800007A7F01D9032038BD1148406800F4803028
:10381000B0F5803FF0D10E48006840F400300C490C
:103820000860FFF721FB044607E0FFF71DFB001BC4
:10383000B0F57A7F01D90320E5E70548406800F438
:103840000030B0F5003FF0D10020DCE74038024006
:10385000007000400348006840F48070014908602F
:1038600070470000007000402DE9F8430446002630
:1038700000250027A846A946207800F0010088B15D
:1038800000BFFE48006820F40000FC4908600846BC
:103890000068616B0843F949086000BF606B08B9B4
:1038A0004FF00108206800F40020B0F5002F13D17C
:1038B000F2488430006820F44010E16B0843EF497F
:1038C00084310860E06BB0F5801F01D14FF0010832
:1038D000E06B08B94FF00109206800F48010B0F5E2
:1038E000801F13D1E5488430006820F44000216C2B
:1038F0000843E24984310860206CB0F5800F01D1A3
:103900004FF00108206C08B94FF00109206800F061
:103910008070B0F1807F01D14FF00108207800F075
:103920002000202870D100BFD4483830006840F013
:103930008050D249383108600846006800F0805055
:10394000009000BF00BFCE48006840F48070CC49B2
:103950000860FFF789FA064607E0FFF785FA801B43
:10396000642802D90320BDE8F883C548006800F444
:1039700080700028F1D0C1486830006800F44075BC
:1039800085B3208E00F44070A8422BD0BB4868302D
:10399000006820F44075B9486830006840F4803011
:1039A000B649683108600846006820F48030086035
:1039B00008460560006800F0010098B1FFF754FA6E
:1039C000064608E0FFF750FA801B41F28831884232
:1039D00001D90320C7E7A94868300068C0F3400058
:1039E0000028EFD000BF208E00F44070B0F5407F7B
:1039F0000BD1A248006820F4F810A24A216B1140B4
:103A000008439E49086006E010E09C48006820F4E6
:103A1000F8109A490860994868300068218EC1F30F
:103A20000B01084395496831086000BF207800F019
:103A30001000102810D100BF90488430006820F09A
:103A400080708E498431086008460068A16B084385
:103A50008A498431086000BF208800F48040B0F5B6
:103A6000804F09D185488830006820F44030616E6D
:103A70000843824988310860208800F40040B0F58E
:103A8000004F09D17D488830006820F44020A16EA5
:103A900008437A4988310860206800F48030B0F526
:103AA000803F09D175488830006820F44010E16EED
:103AB0000843724988310860206800F40030B0F58E
:103AC000003F09D16D488830006820F44000216F24
:103AD00008436A4988310860207800F04000402897
:103AE00009D166488830006820F00300616C084303
:103AF000624988310860207800F08000802809D170
:103B00005E488830006820F00C00A16C08435B49D7
:103B100088310860208800F48070B0F5807F09D17A
:103B200056488830006820F03000E16C0843534963
:103B300088310860208800F40070B0F5007F09D15A
:103B40004E488830006820F0C000216D08434B4982
:103B500088310860208800F48060B0F5806F09D15A
:103B600046488830006820F44070616D084343493E
:103B700088310860208800F40060B0F5006F09D13A
:103B80003E488830006820F44060A16D08433B49FE
:103B900088310860208800F48050B0F5805F09D13A
:103BA00036488830006820F44050E16D08433349BE
:103BB00088310860208800F40050B0F5005F09D11A
:103BC0002E488830006820F44040216E08432B497D
:103BD00088310860206800F48000B0F5800F09D1BA
:103BE00026488830006820F08060A16F0843234990
:103BF00088310860206800F40010B0F5001F0FD174
:103C00001E488830006820F00060E16F08431B49BF
:103C100088310860E06FB0F1006F01D14FF0010909
:103C2000207800F00800082801D14FF00109206831
:103C300000F48020B0F5802F09D11048883000684A
:103C400020F04070616F08430C498831086020689B
:103C500000F40000B0F5000F0AD108488830006871
:103C600020F08050D4F8801008430449883108605F
:103C7000B8F1010F0BD0206806E0000008380240C0
:103C800000700040FFFCFF0FB0F1007F7DD1AD4818
:103C9000006820F08060AB490860FFF7E5F8064651
:103CA00006E0FFF7E1F8801B642801D903205AE6FB
:103CB000A4480068C0F3C0600028F2D1207800F06A
:103CC0000100B8B1606BA8B99E4884300068C0F3A9
:103CD00001459C4884300068C0F303676068800138
:103CE00040EA054040EA0761207A41EA00709549C0
:103CF00084310860206800F40020B0F5002F03D163
:103D0000E06BB0F5801F09D0206800F48010B0F59A
:103D1000801F24D1206CB0F5800F20D189488430D9
:103D20000068C0F30145874884300068C0F302771B
:103D30006068800140EA0541207B41EA006040EA7A
:103D400007708049843108607E488C30006820F01C
:103D50001F00616A491E08437A498C310860206857
:103D600000F08070B0F1807F17D176488430006811
:103D7000C0F30365734884300068C0F3027760685D
:103D80008101208A41EA004000E031E040EA05601C
:103D900040EA07706B4984310860206800F00070C9
:103DA000B0F1007F0DD160688101208A41EA0041B5
:103DB000207B41EA0061207A41EA00706149843148
:103DC00008606048006840F080605E490860FFF766
:103DD0004BF8064606E0FFF747F8801B642801D938
:103DE0000320C0E557480068C0F3C0600028F2D047
:103DF000B9F1010F7ED15348006820F0805051493D
:103E00000860FFF731F8064606E0FFF72DF8801B43
:103E1000642801D90320A6E54A480068C0F3407031
:103E20000028F2D1206800F40020B0F5002F01D165
:103E3000E06B38B1206800F48010B0F5801F22D10B
:103E4000206C00BB3F4888300068C0F301453D4806
:103E500088300068C0F302776069800140EA05415C
:103E6000207E41EA006040EA0770364988310860E8
:103E7000081D006820F4F851A06A401E41EA0020A5
:103E800030498C310860206800F40010B0F5001F44
:103E900019D1E06FB0F1006F15D12A488830006861
:103EA000C0F30365274888300068C0F30277606973
:103EB0008101208C41EA004040EA056040EA077039
:103EC000204988310860207800F00800082820D1B7
:103ED0001C4888300068C0F303651A4888300068C1
:103EE000C0F301476069800140EA074040EA05618C
:103EF000207F00E024E041EA007012498831086028
:103F0000081D006820F44030E16A08430D498C31F7
:103F100008600C48006840F080500A490860FEF7CD
:103F2000A3FF064606E0FEF79FFF801B642801D929
:103F3000032018E503480068C0F340700028F2D061
:103F4000002010E50038024070B504460D460026FA
:103F50000CB9012070BD5C48006800F00F00A84259
:103F60000ED25948006820F00F00284356490860D7
:103F70000846006800F00F00A84201D00120E9E7E0
:103F8000207800F0020002281DD1207800F0040003
:103F9000042805D14D48006840F4E0504B490860C2
:103FA000207800F00800082805D14848006840F44F
:103FB0006040464908604548006820F0F000A1686C
:103FC000084342490860207800F0010090B360681F
:103FD000012807D13D4808380068C0F34040A0B927
:103FE0000120B7E76068022807D138480838006820
:103FF000C0F3406048B90120ACE734480838006895
:10400000C0F3400008B90120A4E73048006820F060
:104010000300616808432D490860FEF725FF064646
:1040200009E0FEF721FF801B41F28831884202D966
:1040300003208FE707E02548006800F00C00616866
:10404000B0EB810FEDD12048006800F00F00A842CE
:104050000ED91D48006820F00F0028431A49086057
:104060000846006800F00F00A84201D0012071E767
:10407000207800F00400042807D11448006820F4D8
:10408000E050E168084311490860207800F008001A
:10409000082808D10D48006820F46040216940EAF2
:1040A000C1000A49086000F019F808490968C1F31D
:1040B0000311074A515CC840064908600648006879
:1040C000FEF7F0FE002045E7003C024008380240C1
:1040D000E8F30008B0010120B80101202DE9F04704
:1040E000002400250026A1462548006800F00C00A9
:1040F00020B1042805D008283AD105E0DFF88490E3
:1041000039E0DFF8849036E01D48001F006800F0B9
:104110003F041B48001F006800F4800078B11A4873
:104120001749091F0968C1F38811A0FB01700146F6
:10413000224600233846FCF765F805460EE0114894
:104140000F49091F0968C1F38811A0FB01700146DE
:10415000224600233846FCF755F805460848001F5C
:104160000068C0F30140401C4600B5FBF6F902E0D0
:10417000DFF8109000BF00BF4846BDE8F0870000A0
:10418000083802400024F40000366E01F8B50446F9
:1041900000270CB90120F8BD207800F001000028AC
:1041A00071D0F948006800F00C0004280DD0F648E2
:1041B000006800F00C00082813D1F348001F0068C5
:1041C00000F48000B0F5800F0BD1EF48083800688C
:1041D000C0F34040002869D06068002866D1012003
:1041E000D9E700BF6068B0F5803F08D1E6480838DD
:1041F000006840F48030E449083908602EE06068C7
:1042000068B9E1480838006820F48030DE49083990
:1042100008600846006820F4802008601EE060689E
:10422000B0F5A02F0DD1D8480838006840F48020A0
:10423000D549083908600846006840F480300860B5
:104240000CE0D1480838006820F48030CE490839A5
:1042500008600846006820F48020086000BF60689D
:1042600090B1FEF701FE054606E0FEF7FDFD401B9E
:10427000642801D903208EE7C34808380068C0F3DA
:1042800040400028F1D011E0FEF7EEFD054606E0C3
:10429000FEF7EAFD401B642801D903207BE7BA48FA
:1042A00008380068C0F340400028F1D1207800F0C1
:1042B0000200022869D1B448006800F00C0058B12F
:1042C000B148006800F00C0008281CD1AE48001F5F
:1042D000006800F48000B0B9AB4808380068C0F34B
:1042E000400020B1E068012801D0012053E7A64832
:1042F0000838006820F0F800216940EAC100A249AE
:104300000839086041E0E06828B39F480838006831
:1043100040F001009C4908390860FEF7A5FD0546FC
:1043200006E0FEF7A1FD401B022801D9032032E779
:10433000954808380068C0F340000028F1D0924842
:104340000838006820F0F800216940EAC1008E4971
:104350000839086019E08C480838006820F001002E
:10436000894908390860FEF77FFD054606E0FEF73B
:104370007BFD401B022801D903200CE78248083846
:104380000068C0F340000028F1D1207800F0080058
:10439000082836D16069D0B17B486C30006840F0A5
:1043A000010079496C310860FEF75EFD054606E0C4
:1043B000FEF75AFD401B022801D90320EBE67248A4
:1043C0006C300068C0F340000028F1D019E06E485E
:1043D0006C30006820F001006B496C310860FEF71A
:1043E00043FD054606E0FEF73FFD401B022801D9CC
:1043F0000320D0E664486C300068C0F34000002819
:10440000F1D1207800F00400042874D15E483830DF
:10441000006800F0805080B900BF5B483830006809
:1044200040F080505849383108600846006800F074
:104430008050009000BF00BF01275448006800F47E
:104440008070B0B95148006840F480704F490860EE
:10445000FEF70AFD054606E0FEF706FD401B642850
:1044600001D9032097E64948006800F480700028CD
:10447000F2D000BFA068012808D143486830006826
:1044800040F001004049683108602DE0A06868B93B
:104490003D486830006820F001003B496831086001
:1044A0000846006820F0040008601DE0A0680528A8
:1044B0000DD135486830006840F004003249683159
:1044C00008600846006840F0010008600CE02E48D3
:1044D0006830006820F001002B4968310860084608
:1044E000006820F00400086000BFA068A8B1FEF7D3
:1044F000BBFC054609E02EE0FEF7B6FC401B41F28E
:104500008831884201D9032045E61F486830006899
:10451000C0F340000028EFD013E0FEF7A5FC0546ED
:1045200008E0FEF7A1FC401B41F28831884201D926
:10453000032030E6144868300068C0F340000028CB
:10454000EFD1012F07D110483830006820F080509B
:104550000D4938310860A069002852D00A48006827
:1045600000F00C00082865D0A06902284AD106484E
:104570000838006820F08070034908390860FEF7A9
:1045800073FC05460BE00000083802400070004054
:10459000FEF76AFC401B022801D90320FBE53B48DB
:1045A0000068C0F340600028F2D1E06940F000509C
:1045B000216A0843616A40EA81110122A06AC2EBC4
:1045C000500041EA00412C20005D41EA00602F4983
:1045D000091D0860081F006840F08070091F08600E
:1045E000FEF742FC054606E0FEF73EFC401B0228B3
:1045F00001D90320CFE525480068C0F340600028BA
:10460000F2D040E02148006820F080701F49086027
:10461000FEF72AFC054606E0FEF726FC401B0228B2
:1046200001D90320B7E519480068C0F340600028AD
:10463000F2D128E01548001D0668A069012820D0A5
:1046400006F48001E06981421BD106F03F01206A37
:10465000814216D147F6C0703040616AB0EB811FCD
:104660000FD106F440310122A06AC2EB5000B1EB39
:10467000004F06D106F070612C20005DB1EB006F99
:1046800001D0012087E5002085E5000000380240C8
:1046900070B504460D460CB9012070BD94F82C008D
:1046A00028B9002084F82D00204600F011F80220DF
:1046B00084F82C00211D2068FDF7FBFD2946D4E974
:1046C0000002FDF74BFE012084F82C000020E4E7F7
:1046D000704770B504460D4694F82C00022800D1AE
:1046E00070BD022084F82C0029462068FDF71BFECF
:1046F000012084F82C000020F2E730B504460D4676
:1047000000BF94F82D00012801D1022030BD012006
:1047100084F82D0000BF94F82C00022800D1F5E7A2
:1047200094F82C00052801D10120EFE704E0286867
:104730001060121D2D1D5B1E002BF8D100BF002044
:1047400084F82D0000BF00BFE0E770B504460D46B9
:10475000164694F82C00022800D170BD022084F87F
:104760002C00324629462068FDF7E4FD286802281F
:1047700003D1052084F82C0002E0012084F82C00ED
:104780000020EAE770B504460D462E46002100BF22
:1047900094F82D00012801D1022070BD012084F879
:1047A0002D0000BF94F82C10022901D10220F4E75B
:1047B000052901D0042901D10120EEE704E01068A9
:1047C0003060121D361D5B1E002BF8D100BF00208B
:1047D00084F82D0000BF00BFDFE710B50446FDF7E9
:1047E0001BF910BD70B58AB004460D46032084F84D
:1047F0003400606C032820D0B5F5805F04D1A06B35
:1048000040F08050A0631CE0B5F5006F07D1204652
:1048100002F0DEFF0646A06B3043A06311E03DB915
:10482000204602F0A1FF0646A06B3043A06308E0DB
:10483000A06B40F00060A06303E0A06B40F08050EC
:10484000A063A06B38B1104821688863012084F808
:1048500034000AB070BD60680490A0680590E068FC
:104860000690079560690890A069099007A807C895
:104870008DE80700206804A90EC902F016FB01208C
:1048800084F834000020E4E7FF0540002DE9F047FC
:1048900004468846914647464E4694F8340001281F
:1048A00077D10020A063BE4206D2A06B40F000602A
:1048B000A0630120BDE8F087E06DB04205D2A06B97
:1048C00040F00070A0630120F4E7032084F8340076
:1048D0004C20005D00F0200050B92F48216888630B
:1048E000A06B40F08060A063012084F83400E1E711
:1048F0000021206802F0D3FA00F00070B0F1007FD0
:104900000AD1254821688863A06B40F40060A06349
:10491000012084F83400CDE7606C012801D07F02CB
:104920007602606C03281FD03946206801F09CFF96
:1049300005464DB1184821688863A06B2843A063E1
:10494000012084F83400B5E73146206801F070FF9B
:1049500005464DB1104821688863A06B2843A063C9
:10496000012084F83400A5E7206801F0DDFE05464B
:1049700055B1094821688863A06B2843A0630120D2
:1049800084F8340096E704E0012084F83400002025
:1049900090E702208EE70000FF054000704700000E
:1049A00010B50246506E800F0870506EC0F38360E1
:1049B0004870506EC0F301608870506E000CC87073
:1049C000B2F86400000A087192F864004871906EB1
:1049D000000DC880906EC0F3034008726820805AB2
:1049E000C0F3C03048726820805AC0F380308872AB
:1049F0006820805AC0F34030C8726820805AC0F3E3
:104A00000030087300204873506C002836D16820AD
:104A1000805A8005030DD06E43EA90700861D06E15
:104A2000C0F3C2600875D06EC0F302604875D06EE6
:104A3000C0F342508875D06EC0F38240C875D06E06
:104A4000C0F3C23008760869401C50650B7E506D7B
:104A500003F007039B1C01249C4060435065087AC7
:104A600000F00F03012098409065D2E915035B0A1E
:104A70005843D0654FF40073136621E0506C012851
:104A800013D16820805C8006830AD06E43EA104010
:104A900008610869401C83025365536DD3654FF468
:104AA00000739365936D13660AE02E48136898634C
:104AB000906B40F080509063012082F8340010BD6C
:104AC0006C20805AC0F3803001F8190F6C20805A96
:104AD000C0F3C61048706C20805C00F07F008870C6
:104AE000106FC00FC870106FC0F341700871106F65
:104AF000C0F382604871106FC0F383508871106FEB
:104B0000C0F34050C87100200872106FC0F300401D
:104B100048727020805AC0F3C03088727020805A6A
:104B2000C0F38030C8727020805AC0F340300873E0
:104B30007020805AC0F3003048737020805AC0F350
:104B4000812088737020805AC0F30120C8737020C0
:104B5000805CC0F3460008740120487419390020B5
:104B6000ADE70000FF0540000246506C0860906C05
:104B70004860D06C8860106DC860506D0861906DA1
:104B80004861D06D8861106EC86100207047F8B52B
:104B90000446002000906946204602F02EFD05469E
:104BA00015B1A06B2843A0630098C0F3432630469C
:104BB000F8BD000070B50446256B2068406BC0F35B
:104BC000C03030B105F0080018B1204602F0F0FC0A
:104BD000EDE02068406BC0F30020002862D04FF465
:104BE0008070216888632068C06B4CF23A1188435A
:104BF0002168C8632068C06A20F001002168C8628B
:104C000005F0080038B305F0020010B905F02000E7
:104C100050B1206801F0E8FE06462EB1A06B30438B
:104C2000A0632046FFF7BAFE40F23A50216888633D
:104C3000012084F834000020206305F0010010B941
:104C400005F0020018B1204600F07AFAAFE02046E5
:104C500000F07BFAABE005F080000028B8D005F04A
:104C6000200050B1206801F0BFFE06462EB1A06BB7
:104C70003043A0632046FFF791FE05F001000028B5
:104C8000A6D105F002000028A2D12068C06A20F059
:104C900008002168C862012084F83400204600F032
:104CA00054FA84E02068406BC0F3803030B105F0E6
:104CB000080018B1204602F0BFFD78E02068406B84
:104CC00000F03A0008B1012000E0002000286ED07A
:104CD0002068406BC0F3400018B1A06B40F00200A8
:104CE000A0632068406BC0F3C00018B1A06B40F017
:104CF0000800A0632068406BC0F3401018B1A06B9F
:104D000040F02000A0632068406BC0F3001018B191
:104D1000A06B40F01000A06340F23A502168886315
:104D20002068C06B20F49D702168C863206801F082
:104D30005BFEA16B0843A06305F0080040B10120B1
:104D400084F83400002020632046FFF727FE2EE081
:104D500005F0800000B305F0100010B905F0200048
:104D600050B11348E16B0865E06BFDF76EFD98B13B
:104D7000E06B02F077FA1AE005F0010010B905F0D7
:104D8000020050B10B48216C0865206CFDF75DFDF9
:104D900010B1206C02F042FA09E00020A06301206B
:104DA00084F83400002020632046FFF716FD70BD14
:104DB000657200081D72000810B504460CB9012088
:104DC00010BD94F8340020B900202077204600F070
:104DD00055F8032084F83400204600F00BF808B1A1
:104DE0000120EDE70020A0632063012084F8340057
:104DF0000020E5E770B58AB00446002004900590D5
:104E00000690079008907620099007A807C88DE8BB
:104E10000700206804A90EC902F047F8064616B13B
:104E200001200AB070BD2068406820F480702168BD
:104E30004860206802F053F82068406840F48070B1
:104E400021684860204602F04DFB05463DB1012037
:104E500084F83400A06B2843A0630120E1E72046DA
:104E600002F0BEFA05463DB1012084F83400A06B83
:104E70002843A0630120D4E70020D2E77047000058
:104E80002DE9FF4F89B004468B469946DDF858A0BE
:104E9000FDF7EAFF02900B9800905D46BBF1000F12
:104EA00007D1A06B40F00060A06301200DB0BDE809
:104EB000F08F94F8340001287ED10020A063009880
:104EC00000EB0901E06D814205D9A06B40F0007054
:104ED000A0630120EAE7032084F834000020216861
:104EE000C862606C012802D00098400200904FF424
:104EF0000071206801F0E0FB8046B8F1000F0AD095
:104F00008E4821688863A06B40EA0800A0630120F6
:104F100084F83400CAE74FF0FF3003904FEA49208D
:104F20000490902005900220069000200790012018
:104F3000089003A9206801F0ADFDB9F1010F07D970
:104F4000022020632068009901F03AFC804606E0C8
:104F5000012020632068009901F04EFC8046B8F1E2
:104F6000000F0DD0754821688863A06B40EA0800E7
:104F7000A063012084F8340000202063012095E71D
:104F8000049E3AE02068406B00F40040F0B1EEB1BE
:104F90000020019017E0206801F0AAFF07462F705B
:104FA0006D1C761E380A28706D1C761E380C287011
:104FB0006D1C761E380E00E0B9E028706D1C761E60
:104FC0000198401C019001980828E4D3FDF74CFF9C
:104FD0000299401A504502D2BAF1000F0DD157483C
:104FE00021688863A06B40F00040A063012084F832
:104FF000340000202063032058E72068406B00F451
:1050000095700028BED02068406B00F48070D0B14D
:10501000B9F1010F17D9606C032814D0206801F092
:10502000E3FC8046B8F1000F0DD044482168886346
:10503000A06B40EA0800A063012084F8340000203F
:105040002063012032E72068406B00F0080068B15F
:105050003A4821688863A06B40F00800A0630120F3
:1050600084F834000020206301201FE72068406B93
:1050700000F0020068B1314821688863A06B40F0FD
:105080000200A063012084F8340000202063012086
:105090000CE72068406B00F0200068B127482168C9
:1050A0008863A06B40F02000A063012084F83400E6
:1050B000002020630120F9E629E0206801F018FFB4
:1050C00007462F706D1C761E380A28706D1C761EE0
:1050D000380C28706D1C761E380E28706D1C761EDC
:1050E000FDF7C2FE0299401A504502D2BAF1000FF4
:1050F0000DD1124821688863A06B40F00040A06386
:10510000012084F83400002020630120CEE62068CE
:10511000406B00F4001008B1002ECED140F23A509E
:1051200021688863012084F834000020BEE6A06B6B
:1051300040F00050A0630120B8E60000FF054000E9
:1051400010B50446FCF7A2FD10BD10B50446FCF7EF
:10515000B3FD10BD2DE9F04F89B004468946934652
:105160009846FDF781FE0290DA464E46B9F1000FEF
:1051700007D1A06B40F00060A063012009B0BDE83A
:10518000F08F94F8340001287ED10020A0630AEB50
:105190000801E06D814205D9A06B40F00070A0636A
:1051A0000120EBE7032084F8340000202168C86266
:1051B000606C012801D04FEA4A2A4FF40071206840
:1051C00001F07AFA05464DB1754821688863A06BF5
:1051D0002843A063012084F83400CFE74FF0FF306C
:1051E00003904FEA482004909020059000200690FC
:1051F00007900120089003A9206801F04BFCB8F14A
:10520000010F07D9202020635146206801F00AFCD5
:10521000054606E0102020635146206801F01EFC80
:10522000054665B15E4821688863A06B2843A0638A
:10523000012084F834000020206301209EE7049FB1
:1052400043E02068406B00F4804040B33FB300204F
:10525000019021E030780090761C7F1E3078009914
:1052600041EA00200090761C7F1E3078009941EAC8
:1052700000400090761C7F1E3078009941EA006063
:105280000090761C7F1E00E084E06946206801F0F3
:1052900047FE0198401C019001980828DAD3FDF7D9
:1052A000E3FD0299411A1298814201D2129860B925
:1052B0003B4821688863A06B2843A063012084F8E1
:1052C000340000202063032058E72068406B00F47E
:1052D0008D700028B5D02068406B00F48070B8B1A4
:1052E000B8F1010F14D9606C032811D0206801F0C7
:1052F0007BFB054665B12A4821688863A06B28437B
:10530000A063012084F8340000202063012035E7E9
:105310002068406B00F0080068B12148216888636C
:10532000A06B40F00800A063012084F83400002046
:105330002063012022E72068406B00F0020068B182
:10534000174821688863A06B40F00200A063012029
:1053500084F834000020206301200FE72068406BB0
:1053600000F0100068B10E4821688863A06B40F01F
:105370001000A063012084F8340000202063012085
:10538000FCE640F23A5021688863012084F834003A
:105390000020F3E6A06B40F00050A0630120EDE692
:1053A000FF054000704770B504462546681EB0F101
:1053B000807F01D301200FE0681E4FF0E02148619B
:1053C0000F214FF0FF3002F0A5FE00204FF0E0214A
:1053D000886107200861002070BD10B5FFF7E2FF6B
:1053E00010BD10B504460CB9012010BD94F83D0065
:1053F00028B9002084F83C00204600F00CF8022078
:1054000084F83D00211D206802F0A0FC012084F8F2
:105410003D000020E9E7704770B504460D4616468A
:1054200000BF94F83C00012801D1022070BD01208A
:1054300084F83C0000BF022084F83D000C2E51D0BF
:1054400005DC4EB1042E1ED0082E7AD133E0102E8A
:1054500060D0142EF9D175E02946206802F0F4FCE2
:105460002068806940F008002168886120688069B0
:1054700020F0040021688861206880692969084358
:105480002168886177E02946206802F017FD2068CE
:10549000806940F40060216888612068806920F498
:1054A00080602168886120688069296940EA01205C
:1054B000216888615FE02946206802F03FFD20688E
:1054C000C06940F008002168C8612068C06920F008
:1054D00004002168C8612068C069296908432168FF
:1054E000C86148E02946206802F066FD2068C0696E
:1054F00040F400602168C8612068C06920F48060C1
:105500002168C8612068C069296940EA01202168D2
:10551000C86130E02946206802F07AFD2068406DBD
:1055200040F00800216848652068406D20F00400C4
:10553000216848652068406D2969084321684865ED
:1055400019E017E02946206802F08AFD2068406DC6
:1055500040F40060216848652068406D20F4806058
:10556000216848652068406D296940EA012021686A
:10557000486500E000BF00BF012084F83D0000BF87
:10558000002084F83C0000BF00BF4FE710B5044680
:105590000CB9012010BD94F83D0028B9002084F812
:1055A0003C00204600F00CF8022084F83D00211D4C
:1055B000206802F0CBFB012084F83D000020E9E7E1
:1055C0007047000070B504460E460122314620683F
:1055D00002F028FC11492068884203D01049206855
:1055E000884201D1012000E0002028B12068406CF1
:1055F00040F400402168486420688068094900EA56
:105600000105062D08D0B5F5803F05D0206800685B
:1056100040F0010021680860002070BD00000140DA
:10562000000401400700010030B504460D46002289
:105630002946206802F0F6FB1B492068884203D007
:105640001A492068884201D1012000E0002090B171
:1056500000BF2068006A41F21111084050B920686B
:10566000006A8910084028B92068406C20F4004086
:105670002168486400BF00BF2068006A41F2111130
:10568000084050B92068006A8910084028B920688D
:10569000006820F001002168086000BF012084F844
:1056A0003D00002030BD000000000140000401402A
:1056B00000BFFEE700B58DB01C2106A8FAF7ECFD8F
:1056C000142101A8FAF7E8FD00BF2448006840F45F
:1056D0008020224908600846006800F4802000907D
:1056E00000BF00BF802001900020039003200590A0
:1056F000022002900020049001A91948FDF79AFAAF
:105700000020184948604FF487511648C160164878
:105710001449086000211348816001618161FFF72D
:1057200060FE08B1FCF72EFD0E48FFF72FFF08B111
:10573000FCF728FD40F66F000790602006900220DD
:10574000089000200A90002206A90648FFF764FE90
:1057500008B1FCF717FD0DB000BD00004438024051
:105760000014024030D80120004801402DE9F747DD
:105770008DB004460D464FF000082F2688274FF0C5
:1057800002094FF0000A0094A01901900295E8194F
:105790000390022004900FA80990FF20059000209C
:1057A00006908DF8300000218DF831108DF8321000
:1057B0004FF480600790052008900A960B9700220E
:1057C00069460448FDF794FB08B1FCF7D9FC10B01A
:1057D000BDE8F08770D8012010B5002400BF04E0B8
:1057E000201DFAF7ADFE601CC4B22E2CF8DB00F0D1
:1057F00001F810BD00200D4908800D4908800D49B1
:105800000880401E0C49086000200C4908800C49A3
:10581000088001200B49087000200B4908800B49C3
:1058200008700B4908700B4908707047D0010120BF
:10583000CE010120CC010120C8010120D4010120AA
:10584000D2010120D9010120C4010120D801012089
:10585000D7010120D601012010B5FFF7CBFF4FF093
:105860007F40FAF74DFE10BD70B504461C48FBF7AB
:1058700089FE4FF07F40FBF793FEFBF761FD85B299
:10588000FBF76EFD1649C988401A001F86B21448FE
:10589000C088001D83B22A4631460020FBF7E6FC93
:1058A0004FF0FF30FBF77CFE4FF07F40FBF75CFED4
:1058B000FBF756FD0A49C988401A85B201232246E2
:1058C00029460020FAF7F0FE4FF07F40FBF74CFE30
:1058D0004FF0FF30FBF764FE0148FBF753FE70BD4D
:1058E000A401012070B504461748FBF74BFE4FF0AA
:1058F0007F40FBF755FEFBF723FD85B21248C088B9
:1059000000EB400083B22A4600210846FBF7AEFCBC
:105910004FF0FF30FBF744FE4FF07F40FBF724FED3
:105920000948C188012322460020FAF7BDFE4FF046
:105930007F40FBF719FE4FF0FF30FBF731FE0348C5
:10594000FBF720FE70BD00009C010120A401012096
:105950002DE9F04100240026002700252A48008870
:105960002D2820DA284800882849098888421ADB2F
:1059700025490988214401EB4111254A02EB8101A7
:10598000D1F88000FBF70CFE1F4A1288224402EB7C
:1059900042121F4B03EB82011B4A1288121D90B268
:1059A000FAF716FF2DE01848008818490988884240
:1059B00004DA15480088923086B201E01248068861
:1059C000A6F12D0087B2002419E0E019922190FB86
:1059D000F1F201FB120085B205EB45110C4A02EB16
:1059E0008101D1F88000FBF7DBFD05EB4510084A8B
:1059F00002EB8001201DFAF7EBFE601CC4B22E2CD6
:105A0000E3DBBDE8F0810000D0010120CE010120E0
:105A10001CDA012070B54FF0FF30FAF771FD28480D
:105A2000FBF7BEFDFBF78CFC84B25023224600211D
:105A30000846FBF71BFC4FF0FF30FBF7B1FD204899
:105A4000FBF792FD1F48FBF79DFD01231EA20021DD
:105A50000846FAF729FE1D48FBF794FD01231CA216
:105A60001E210020FAF720FE012322A22D21002072
:105A7000FAF71AFE01232BA23C210020FAF714FEAC
:105A80000F48FBF78DFDFBF76BFC643884B2FBF726
:105A900057FC143885B223462A465A210A20FBF7C0
:105AA000AFF9FBF75DFC663884B2FBF749FC1638AA
:105AB00085B223462A465B210B20FBF7A1F970BD76
:105AC000FF0000FF8C0101204C434400A401012091
:105AD00054686973206578616D706C652073686FB8
