:0200000490402A
:1000000078B80020A10240904D354090372C4090A8
:1000100049354090250640904D3740900000000043
:10002000000000000000000000000000DD01409022
:100030002906409000000000390240906135409050
:10004000BB024090BB024090BB024090BB0240907C
:10005000BB0240904F354090BB024090BB024090A5
:10006000BB024090BB024090BB024090BB0240905C
:10007000BB024090BB024090BB024090BB0240904C
:10008000BB024090BB024090BB024090BB0240903C
:10009000BB024090BB024090BB024090BB0240902C
:1000A000BB02409065364090BB024090BB0240903E
:1000B000BB024090BB024090BB024090BB0240900C
:1000C000BB024090BB024090BB024090BB024090FC
:1000D000BB024090BB024090BB024090BB024090EC
:1000E000BB024090BB024090BB024090BB024090DC
:1000F000BB024090BB024090BB024090BB024090CC
:10010000BB024090BB024090BB024090BB024090BB
:10011000BB024090BB024090BB024090BB024090AB
:10012000BB024090BB024090BB024090BB0240909B
:10013000BB02409091064090BB024090BB024090B1
:10014000BB024090BB024090BB024090BB0240907B
:10015000BB024090BB024090BB024090BB0240906B
:10016000BB024090BB024090BB024090BB0240905B
:10017000BB024090BB024090BB024090BB0240904B
:10018000BB024090BB024090BB024090BB0240903B
:10019000BB024090BB024090BB024090BB0240902B
:1001A000BB024090BB024090BB024090BB0240901B
:1001B000BB024090BB024090BB024090BB0240900B
:1001C000BB024090BB024090DFF80CD000F042F937
:1001D00000480047717B409078B800202D4B19688B
:1001E0000868B0E8F04F80F30988BFF36F8F4FF0D5
:1001F000000080F311887047000000000848006884
:10020000006880F308884FF0000080F3148862B61D
:1002100061B6BFF34F8FBFF36F8F00DF00BF00BF2A
:1002200008ED00E0DFF80C00016841F470010160A6
:10023000704700BF88ED00E0EFF30980BFF36F8FD8
:10024000144B1A681EF0100F08BF20ED108A20E929
:10025000F04F106009B44FF0500072B680F311886F
:10026000BFF34F8FBFF36F8F62B614F07FFB4FF079
:10027000000080F3118809BC19680868B0E8F04FE5
:100280001EF0100F08BFB0EC108A80F30988BFF38E
:100290006F8F704700010020EFF30580704700006A
:1002A0000648804706480047FEE7FEE7FEE7FEE710
:1002B000FEE7FEE7FEE7FEE7FEE7FEE74936409091
:1002C000C90140902DE9F05F0546002092469B460B
:1002D00088460646814640241BE02846414647465C
:1002E000224600F0A6F853465A46C01A914110D350
:1002F00011461846224600F08DF82D1A67EB0108CA
:100300004F4622460120002100F084F817EB000937
:100310004E41201EA4F10104DFDC484631462A4646
:100320004346BDE8F09F00000649074A086850436D
:1003300043F23902104408604008704701490860E0
:1003400070470000600100206D4EC64110B5431A91
:10035000934209D28318881803E010F8011D03F8AE
:10036000011D521EF9D210BD40EA01039B0703D0C4
:1003700009E008C9121F08C0042AFAD203E011F8E4
:10038000013B00F8013B521EF9D210BDD2B201E090
:1003900000F8012B491EFBD270470022F6E710B58A
:1003A00013460A4604461946FFF7F0FF204610BDE3
:1003B00030B504460020034600E05B1C934203D2A4
:1003C000E05CCD5C401BF8D030BD30B50546002068
:1003D000034600E05B1C934205D2EC5CC85C201A2B
:1003E00001D1002CF6D130BD30B50B4601460020BE
:1003F0002022012409E021FA02F59D4205D303FAE7
:1004000002F5491B04FA02F52844151EA2F1010267
:10041000F1DC30BD202A04DB203A00FA02F1002092
:1004200070479140C2F1200320FA03F31943904032
:100430007047202A04DB203A21FA02F0002170479D
:1004400021FA02F3D040C2F120029140084319463C
:1004500070470000064C074D06E0E06840F00103DD
:1004600094E8070098471034AC42F6D3FFF7B0FE8B
:10047000BC5D4190DC5D419030B58C1810F8012BCB
:1004800012F00F0301D110F8013B120906D110F848
:10049000012B03E010F8015B01F8015B5B1EF9D151
:1004A00001E001F8013B521EFBD1A142E6D300203E
:1004B00030BD00005849096821F44031574AC2F85C
:1004C00004131146D1F8041342681143524A1160D3
:1004D0000168496821F480710268516001684A68C6
:1004E000016942EA0121026851600168496821F00E
:1004F000407102685160016849688268114302686E
:1005000051600168896821F40061026891600168A6
:100510008968C268114302689160414A816A9142C8
:1005200018D00168896821F07061026891600168E3
:100530008968826A1143026891600168896821F0C4
:1005400040510268916001688968C26A114302687B
:1005500091600BE00168896821F070610268916028
:100560000168896821F040510268916001688968DA
:1005700021F002010268916001688A68816942EA9B
:100580004101026891602021095CA1B101684968BC
:1005900041F40061026851600168496821F46041DA
:1005A0000268516001684A68416A491E42EA413165
:1005B0000268516005E00168496821F40061026841
:1005C00051600168C96A21F470010268D162016852
:1005D000CA6A818B491E42EA01510268D1620168F0
:1005E000896821F400710268916001688A6890F856
:1005F000301042EA4121026891600168896821F463
:1006000080610268916001688A68416942EA8121DB
:1006100002689160704700000423014000200140FF
:100620000100000F00BFFEE77047016801F580512F
:10063000896941F00202016801F580518A617047C1
:10064000016801F58051896941F40052016801F5A2
:1006500080518A61704738B50446002000902068B8
:1006600000F58050806940F48011206800F58050CA
:100670008161206800F5805080690090012000F0C1
:10068000FDFA0099206800F58050816138BD0000B6
:1006900010B5024800F0ECFB10BD0000C83200208D
:1006A00030B503461479557944EA0520084C0C44CA
:1006B0002064D4782406957844EA0544557844EAC1
:1006C0000524157844EA0500014C0C44606430BDF3
:1006D0000080024070B5AEB004460E46002526B13B
:1006E0004FF40061E160C900A160002011901290F8
:1006F0001390149015901690E06918B94FF480602B
:10070000179001E0002017904FF40070189000201F
:1007100019901A901B901C901D9040201E90002054
:100720001F90209021902290239024902590269035
:10073000802027900020289029902A902B902C90A0
:100740002D902068056871480540DDE911010843D6
:100750001399084314990843A1680843159908435D
:1007600016990843E1680843179908431899084304
:10077000199908431A9908431B99084305432068AF
:10078000056020680568012000F078FA206805609F
:10079000DDE91C0108431E9908431F99084320996D
:1007A0000843219908432299084323990843216863
:1007B000486020684568012000F060FA20684560C4
:1007C00024982168886025982168C8602068856918
:1007D0004FF641700540DDE9261040EA01402899B6
:1007E0000843299908432A9908432B99084305434C
:1007F0002068856120688569012000F03FFA206843
:100800008561DDE92C0108432168C8612068C5695C
:10081000012000F033FA2068C561002001904FF0FC
:1008200000700290002003904FF40010049000200C
:10083000059006900790089004200990C0050A9042
:1008400040120B9080010C9040120D9080200E9071
:1008500000200F901090206800F5805085692C488A
:100860000540DDE901010843039908430499084361
:1008700005990843069908430799084308990843CE
:10088000099908430543206800F580508561206878
:1008900000F580508569012000F0F0F9206800F52E
:1008A00080508561DDE90A0108430C9908430D99E0
:1008B00008430E9908430F9940EA810010990843B4
:1008C00040F40001206800F580500160206800F5C8
:1008D00080500568012000F0D1F9206800F58050B3
:1008E0000560A069012809D1206800F58050C06921
:1008F00008490843216801F58051C861002120465C
:100900006269FFF7CDFE2EB070BD00000F8120FFA1
:10091000233FDEF84000010038B504460020009077
:100920002068006840F004002168086020680068C2
:100930000090012000F0A2F900982168086038BDFD
:1009400038B50446002000902068006840F0080098
:1009500021680860206800680090012000F08EF98E
:1009600000982168086038BD18B502460020009044
:1009700000BF92F83C00012801D1022018BD0120DF
:1009800082F83C0000BF0868092826D90868B0F141
:10099000004F22D01068C0680B780A3B03EB430479
:1009A0000723A34098431368D860604B08689842B7
:1009B00007D11068C0680B7A40EA03601368D860FA
:1009C0001FE00B780A3B03EB4303886898401368E9
:1009D000DB6818431368D86013E0106800690B786F
:1009E00003EB43040723A3409843136818610B7873
:1009F00003EB43038868984013681B691843136826
:100A000018614868072817D21068406B0B795B1E85
:100A100003EB83041F23A34098431368586308889B
:100A200080B20B795B1E03EB8303984013685B6B0A
:100A300018431368586331E048680D2817D21068CE
:100A4000006B0B79DB1F03EB83041F23A340984348
:100A500013681863088880B20B79DB1F03EB8303EC
:100A6000984013681B6B18431368186316E01068EE
:100A7000C06A0B790D3B03EB83041F23A34098430B
:100A80001368D862088880B20B790D3B03EB8303AF
:100A900098401368DB6A18431368D862244B1068C7
:100AA000984209D10868B0F1004F05D1214800688B
:100AB00020F44000C3F804031D4B1068984208D18D
:100AC0000868122805D11B48006840F48000C3F86C
:100AD0000403174B1068984220D1144B08689842C1
:100AE00002D00868112819D11248006840F40000AB
:100AF000104B18600D4B086898420FD10E480068E3
:100B00000E4BB0FBF3F000EB80004000009002E0E1
:100B10000098401E009000980028F9D100BF0020E6
:100B200082F83C0000BF00BF28E700001200001060
:100B300000200140042301402000002040420F001B
:100B400070B5044600250CB9012070BD1549A06A96
:100B5000884200D000BF206C30B9204600F024F855
:100B60000020606484F83C00206C00F0100088B91C
:100B7000206C20F4885040F0020020642046FFF7EB
:100B800099FC00206064206C20F0020040F001001D
:100B9000206400E0012500BF002084F83C0000BF75
:100BA0002846D2E70100000F10B586B00446142194
:100BB00001A8FFF7F2FB2D492068884228D100BF29
:100BC0002B48006840F48070294908600846006896
:100BD00000F48070009000BF00BF00BF24481438AC
:100BE000006840F001002249143908600846006896
:100BF00000F00100009000BF00BF0820019003201A
:100C000002900020039001A91A4800F0F1FC2BE0AB
:100C100019492068884227D100BF1548006840F470
:100C20008060134908600846006800F48060009006
:100C300000BF00BF00BF0E481438006840F001003C
:100C40000B49143908600846006800F00100009064
:100C500000BF00BF082001900320029000200390F5
:100C600001A9044800F0C4FC06B010BD00200140FA
:100C700044380240000002400022014070B50446A2
:100C800000F0C8FD06462546681C10B104480078EF
:100C9000054400BF00F0BEFD801BA842FAD370BD22
:100CA0002C00002070B504460D461646002200BFF9
:100CB00094F84500012801D1022070BD012084F87C
:100CC000450000BF022084F84400A56200221FE016
:100CD00005EB42114FF00040086044F2F4504860C8
:100CE000C2EBC21000EB400006EB80008860A069F8
:100CF000012803D1486820F000404860581E904207
:100D000004D905EB42102030C86000E0CD60521CD1
:100D10009A42DDD3206800F58050C560012084F838
:100D2000440000BF002084F8450000BF00BFC4E7B6
:100D300070B504460D461646002200BF94F84500E3
:100D4000012801D1022070BD012084F8450000BFB8
:100D5000022084F84400E56200221BE005EB42110A
:100D60004FF480100860C2EBC21000EB400006EBAD
:100D700080008860E06918B9086840F440000860A5
:100D8000581E904204D905EB42102030C86000E0A4
:100D9000CD60521C9A42E1D3206800F58050056175
:100DA000012084F8440000BF002084F8450000BF03
:100DB00000BFC8E770470146002200BF91F8450018
:100DC000012801D102207047012081F8450000BFB1
:100DD000022081F844003AE0521C886A006800F45E
:100DE0004070B0F5007F07D1886A086301238B63E8
:100DF000886AC06888622AE0886A006800F44070E7
:100E000030B9886B401C8863886AC06888621EE0BD
:100E10008B6A4B63886B401C8863886B012801D107
:100E2000886A0863886A0068C0F30D40001FC863C1
:100E3000086B83680B64886AC0688862012081F847
:100E4000440000BF002081F8450000BFBBE7886A6E
:100E5000006800F0004008B9042ABDD3012081F8E1
:100E6000440000BF002081F8450000BF0120AAE730
:100E700010B50446206800F58050406900F040003D
:100E800040280FD1204600F097FA4021206800F555
:100E900080504161012084F8440000BF002084F8A4
:100EA000450016E0206800F58050406900F0010020
:100EB00078B1204600F052FB0121206800F58050F7
:100EC0004161012084F8440000BF002084F84500FF
:100ED00000BF4FF48031206800F5805041612068E8
:100EE00000F58050406900F40040B0F5004F10D18B
:100EF0002046FFF75FFF4FF40041206800F5805067
:100F00004161012084F8440000BF002084F84500BE
:100F100000BF10BD2DE9FC410446002500200190D2
:100F20009C4E0027804614B90120BDE8FC8194F84E
:100F3000440028B9002084F84500204600F038F924
:100F400000BF9548006840F4804093490860084617
:100F5000006800F48040009000BF00BF8F48006828
:100F600020F400008D49086008460068216A0843A3
:100F70008A490860206800F58050006840F001014F
:100F8000206800F58050016000F044FC07460FE047
:100F900000F040FCC01BB0F5FA7F09D9032084F8AB
:100FA000440000BF002084F8450000BF0320BCE7D8
:100FB000206800F58050006800F001000028E7D1AB
:100FC0002068056925F01C0501F0C4F9064674483F
:100FD000864205D37348864202D245F008051AE0DE
:100FE0007048864205D36B48864202D245F00C0514
:100FF00011E06848864203D36B48864200D20AE07B
:101000006948864205D36948864202D245F0040504
:1010100001E045F01005206805614FF40042002111
:10102000204600F09CFA48B14FF0010841462046A6
:10103000FFF750FB012084F8440076E7FF20FFF71C
:101040001DFE6068002871D000F0E4FB074600BF79
:1010500001AA0121204600F065F900F0DBFBC01B6E
:1010600041F2883188420FD94FF0010841462046AD
:10107000FFF730FB012084F8440000BF002084F813
:10108000450000BF032050E7019800F00400042849
:10109000DED182020021204600F061FA48B14FF013
:1010A000010841462046FFF715FB012084F8440063
:1010B0003BE700F0AFFB074600BF01AA0121204635
:1010C00000F030F900F0A6FBC01B41F288318842E5
:1010D0000FD94FF0010841462046FFF7FBFA0120E7
:1010E00084F8440000BF002084F8450000BF0320BE
:1010F0001BE7019800F020002028DED101AA1F2163
:10110000204600F00FF948B14FF001084146204653
:10111000FFF7E0FA012084F8440006E7019800F0A8
:10112000100020B14FF40061E16002E00DE0002109
:10113000E160019800F00400042802D10021A160C0
:101140001EE04FF48041A1601AE0E068C0F3CF00D8
:10115000A168C1F34F0140EA01020021204600F0DE
:10116000FEF948B14FF0010841462046FFF7B2FAB8
:10117000012084F84400D8E640F6FF70FFF77EFDBA
:1011800041462046FFF7A6FA012084F844000020DB
:10119000CBE6000000879303443802400438014046
:1011A000002D3101C00E160200E1F50580D1F008D6
:1011B00010B586B00446142101A8FFF7EEF8534994
:1011C000206888427ED100BF00BF5148006840F0CF
:1011D00000704F4908600846006800F000700090F9
:1011E00000BF00BF00BF0846006840F08060086094
:1011F0000846006800F08060009000BF00BF00BF9C
:101200000846006840F0006008600846006800F08A
:101210000060009000BF00BF00BF00BF084600682C
:1012200040F0400008600846006800F04000009070
:1012300000BF00BF00BF0846006840F00200086021
:101240000846006800F00200009000BF00BF00BF29
:101250000846006840F0040008600846006800F096
:101260000400009000BF00BF00BF0846006840F0C7
:10127000010008600846006800F00100009000BF0F
:1012800000BFC814019002200290002003900320A8
:1012900004900B20059001A91E4800F0A9F94FF415
:1012A00040500190022002900020039003200490FF
:1012B0000B20059001A9184800F09AF932200190FE
:1012C000022000E020E00290002003900320049020
:1012D0000B20059001A9114800F08AF986200190A1
:1012E0000220029000200390032004900B20059020
:1012F00001A90B4800F07CF9002205213D2000F0F7
:1013000029FB3D2000F016FB06B010BD0080024016
:101310003038024000180240000402400008024039
:10132000000002402DE9F04104460E461746002514
:10133000A84694F84400822802D10220BDE8F0813A
:10134000822084F844002068056905F01C05208A85
:101350004FF4784101EAC0200543481100EA8610A5
:10136000054325F0020545F001052068056100F000
:1013700051FA804612E000F04DFAA0EB0800B0F5FB
:10138000803F09D3012084F8440000BF002084F886
:10139000450000BF0320D1E72068056905F0010082
:1013A0000028E8D12068406980B23860012084F8C4
:1013B00044000020C2E7000010B50446024800685F
:1013C00008F03CFE10BD00001C00002010B50446D3
:1013D00000BF94F84500012801D1022010BD012072
:1013E00084F8450000BF022084F844002046FFF73F
:1013F000A7FA2046FFF790FA2046FFF72CF920467F
:10140000FFF71EF92046FFF710F9012084F8440089
:1014100000BF002084F8450000BF00BFDEE770B5C4
:10142000024600230025002400BF92F84500012851
:1014300001D1022070BD012082F8450000BF0220CA
:1014400082F8440049B9012082F8440000BF00201E
:1014500082F8450000BF0120ECE7D06A006800F088
:10146000004048B1122082F8440000BF002082F8FA
:10147000450000BF0120DDE740F2F450814208D969
:10148000B1FBF0F3B1FBF0F600FB161010B15B1CE2
:1014900000E00123012B13D1D06A006840F04050D6
:1014A000D66A3060C1F30C00D66A7060D06A0068FA
:1014B00040F00040D66A3060D06AC068D06232E046
:1014C00000242EE0D06A006820F04050D66A3060D8
:1014D0002CB9D06A006840F08050D66A306040F283
:1014E000F450D66A7060581EA04210D1D06A0068CD
:1014F00040F00050D66A3060581EC0EBC01000EBC0
:101500004000A1EB8005C5F30C00D66A7060D06A7C
:10151000006840F00040D66A3060D06AC068D0628F
:10152000641C9C42CED3106800F58050406900F0E6
:10153000040048B10426106800F58050466100267A
:10154000106800F580504660012082F8440000BF1A
:10155000002082F8450000BF00BF6BE770472DE90F
:10156000F04104460E4617460025A84694F844006C
:10157000422802D10220BDE8F081422084F84400D4
:101580002068056905F01C05208A4FF4784101EABE
:10159000C0200543481100EA8610054345F00205C6
:1015A00045F00105B8B2216848612068056100F086
:1015B00031F9804612E000F02DF9A0EB0800B0F5FB
:1015C000803F09D3012084F8440000BF002084F844
:1015D000450000BF0320CEE72068056905F0010043
:1015E0000028E8D1012084F844000020C3E700006F
:1015F000F8B502460B46002100250024002000BF5C
:10160000E4E0012606FA01F51E6806EA0504AC428C
:1016100071D15E68012E08D05E68022E05D05E682A
:10162000112E02D05E68122E13D190684F0003264F
:10163000BE40B0434F00DE68BE403043906050680B
:1016400001268E40B0431E79C6F300168E4030430B
:101650005060D0684F000326BE40B0434F009E68E4
:10166000BE403043D0605E68022E02D05E68122E0B
:1016700013D1CF0802F1200656F827004E07F70EC7
:101680000F26BE40B0434F07FF0E1E69BE403043D9
:10169000CF0802F1200646F8270010684F00032605
:1016A000BE40B0431E7906F003064F00BE403043F3
:1016B00010605E6806F08056B6F1805FA8D100BF6A
:1016C000444E366846F48046424F3E603E46366899
:1016D00006F48046009600BF00BF3F4E8F0856F8C4
:1016E00027008E07370F0F26BE40B0433B4EB24255
:1016F00002D100262EE068E0394EB24201D1012627
:1017000028E0384EB24201D1022623E0364EB242E2
:1017100001D103261EE0354EB24201D1042619E064
:10172000334EB24201D1052614E0324EB24201D10D
:1017300006260FE0304EB24201D107260AE02F4EB6
:10174000B24201D1082605E02D4EB24201D1092650
:1017500000E00A268F073F0FBE4030431E4E8F0821
:1017600046F82700274E3068A0435E6806F48036AE
:10177000B6F5803F00D12043224E3060361D3068E0
:10178000A0435E6806F40036B6F5003F00D1204362
:101790001C4E361D3060361D3068A0435E6806F46E
:1017A0008016B6F5801F00D12043164E08363060F3
:1017B000361D3068A0435E6806F40016B6F5001FBB
:1017C00000D120430F4E0C363060491C1029FFF425
:1017D00018AFF8BD4438024008380140000002400C
:1017E0000004024000080240000C024000100240C9
:1017F0000014024000180240001C02400020024079
:1018000000240240003C01400AB1816101E00B0468
:101810008361704701480068704700002400002081
:101820000348006803490978084401490860704783
:10183000240000202C00002010B5032000F0C8F880
:10184000002000F005F800F047F8002010BD00006F
:1018500070B588B0044600250026002221461920D4
:1018600000F078F8192000F065F800BF164800680D
:1018700040F00100144908600846006800F00100CB
:10188000019000BF00BF02A903A800F041FD00F0D5
:1018900067FD45000D48B5FBF0F0461E0C480D49AC
:1018A000086040F2E7310B48C160466000210161E9
:1018B000816001F09EF820B9064801F0B5F808B043
:1018C00070BD0120FBE700004438024040420F0099
:1018D000000001401033002008B500BF1448006824
:1018E00040F08050124908600846006800F08050BF
:1018F000009000BF00BF00BF081D006840F480409A
:10190000091D08600846006800F48040009000BF90
:1019100000BF00220F21901E00F01CF800220521BC
:10192000084600F017F8052000F004F808BD000094
:101930004038024001460846002809DB00F01F033A
:1019400001229A4043099B0003F1E023C3F80021E0
:1019500000BF70472DE9F05F80460D461646002710
:1019600001F006FF074639462A46334601F00700D4
:10197000C0F1070ABAF1040F02D94FF0040A01E0DE
:10198000C0F1070AD14600F1040ABAF1070F02D2EA
:101990004FF0000A01E0A0F1030AD4464FF0010A1B
:1019A0000AFA09FAAAF1010A0AEA020A0AFA0CFA80
:1019B0004FF0010B0BFA0CFBABF1010B0BEA030B25
:1019C0004AEA0B042146404601F0DAFEBDE8F09FEA
:1019D00000BF00F00702064B19684FF6FF031940DD
:1019E000044B0B4343EA0221014B196000BF7047CF
:1019F0000CED00E00000FA0538B5002400BF2048D7
:101A0000006840F080501E4908600846006800F0F9
:101A10008050009000BF00BF1A48006840F480303A
:101A200018490860FFF7F6FE044607E0FFF7F2FEEC
:101A3000001BB0F57A7F01D9032038BD11484068FA
:101A400000F48030B0F5803FF0D10E48006840F4DB
:101A500000300C490860FFF7DDFE044607E0FFF7A1
:101A6000D9FE001BB0F57A7F01D90320E5E70548D0
:101A7000406800F40030B0F5003FF0D10020DCE712
:101A800040380240007000400348006840F4807015
:101A90000149086070470000007000402DE9F843DC
:101AA0000446002600250027A846A946207800F015
:101AB000010088B100BFFE48006820F40000FC4926
:101AC000086008460068616B0843F949086000BF78
:101AD000606B08B94FF00108206800F40020B0F5F1
:101AE000002F13D1F2488430006820F44010E16BDD
:101AF0000843EF4984310860E06BB0F5801F01D1E5
:101B00004FF00108E06B08B94FF00109206800F4BC
:101B10008010B0F5801F13D1E5488430006820F4B0
:101B20004000216C0843E24984310860206CB0F524
:101B3000800F01D14FF00108206C08B94FF0010966
:101B4000206800F08070B0F1807F01D14FF0010873
:101B5000207800F02000202870D100BFD448383011
:101B6000006840F08050D24938310860084600686B
:101B700000F08050009000BF00BFCE48006840F4E5
:101B80008070CC490860FFF745FE064607E0FFF786
:101B900041FE801B642802D90320BDE8F883C548B4
:101BA000006800F480700028F1D0C14868300068F7
:101BB00000F4407585B3208E00F44070A8422BD00D
:101BC000BB486830006820F44075B9486830006848
:101BD00040F48030B649683108600846006820F457
:101BE0008030086008460560006800F0010098B188
:101BF000FFF710FE064608E0FFF70CFE801B41F2DF
:101C00008831884201D90320C7E7A94868300068B5
:101C1000C0F340000028EFD000BF208E00F44070D9
:101C2000B0F5407F0BD1A248006820F4F810A24A1A
:101C3000216B114008439E49086006E010E09C4873
:101C4000006820F4F8109A490860994868300068E4
:101C5000218EC1F30B01084395496831086000BF2C
:101C6000207800F01000102810D100BF9048843078
:101C7000006820F080708E49843108600846006852
:101C8000A16B08438A498431086000BF208800F4B2
:101C90008040B0F5804F09D185488830006820F435
:101CA0004030616E0843824988310860208800F422
:101CB0000040B0F5004F09D17D488830006820F41D
:101CC0004020A16E08437A4988310860206800F4FA
:101CD0008030B0F5803F09D175488830006820F425
:101CE0004010E16E0843724988310860206800F4B2
:101CF0000030B0F5003F09D16D488830006820F40D
:101D00004000216F08436A4988310860207800F05C
:101D10004000402809D166488830006820F0030060
:101D2000616C0843624988310860207800F08000C7
:101D3000802809D15E488830006820F00C00A16C32
:101D400008435B4988310860208800F48070B0F552
:101D5000807F09D156488830006820F03000E16C5F
:101D60000843534988310860208800F40070B0F5BA
:101D7000007F09D14E488830006820F0C000216DF6
:101D800008434B4988310860208800F48060B0F532
:101D9000806F09D146488830006820F44070616D3A
:101DA0000843434988310860208800F40060B0F59A
:101DB000006F09D13E488830006820F44060A16D72
:101DC00008433B4988310860208800F48050B0F512
:101DD000805F09D136488830006820F44050E16DBA
:101DE0000843334988310860208800F40050B0F57A
:101DF000005F09D12E488830006820F44040216EF1
:101E000008432B4988310860206800F48000B0F551
:101E1000800F09D126488830006820F08060A16FCB
:101E20000843234988310860206800F40010B0F5A9
:101E3000001F0FD11E488830006820F00060E16F5D
:101E400008431B4988310860E06FB0F1006F01D191
:101E50004FF00109207800F00800082801D14FF068
:101E60000109206800F48020B0F5802F09D11048C6
:101E70008830006820F04070616F08430C49883159
:101E80000860206800F40000B0F5000F0AD108488F
:101E90008830006820F08050D4F88010084304494E
:101EA00088310860B8F1010F0BD0206806E000000F
:101EB0000838024000700040FFFCFF0FB0F1007FC7
:101EC0007DD1AD48006820F08060AB490860FFF725
:101ED000A1FC064606E0FFF79DFC801B642801D9A3
:101EE00003205AE6A4480068C0F3C0600028F2D17D
:101EF000207800F00100B8B1606BA8B99E4884302A
:101F00000068C0F301459C4884300068C0F3036753
:101F10006068800140EA054040EA0761207A41EAB2
:101F20000070954984310860206800F40020B0F505
:101F3000002F03D1E06BB0F5801F09D0206800F4BA
:101F40008010B0F5801F24D1206CB0F5800F20D117
:101F5000894884300068C0F30145874884300068B0
:101F6000C0F302776068800140EA0541207B41EAC6
:101F7000006040EA07708049843108607E488C30F8
:101F8000006820F01F00616A491E08437A498C31BD
:101F90000860206800F08070B0F1807F17D176482B
:101FA00084300068C0F30365734884300068C0F370
:101FB000027760688101208A41EA004000E031E058
:101FC00040EA056040EA07706B4984310860206888
:101FD00000F00070B0F1007F0DD160688101208AAF
:101FE00041EA0041207B41EA0061207A41EA007029
:101FF0006149843108606048006840F080605E4953
:102000000860FFF707FC064606E0FFF703FC801BAD
:10201000642801D90320C0E557480068C0F3C060B8
:102020000028F2D0B9F1010F7ED15348006820F0AA
:10203000805051490860FFF7EDFB064606E0FFF7C8
:10204000E9FB801B642801D90320A6E54A48006803
:10205000C0F340700028F2D1206800F40020B0F5F1
:10206000002F01D1E06B38B1206800F48010B0F58A
:10207000801F22D1206C00BB3F4888300068C0F32D
:1020800001453D4888300068C0F3027760698001EF
:1020900040EA0541207E41EA006040EA0770364987
:1020A00088310860081D006820F4F851A06A401EBD
:1020B00041EA002030498C310860206800F40010AB
:1020C000B0F5001F19D1E06FB0F1006F15D12A48AB
:1020D00088300068C0F30365274888300068C0F383
:1020E000027760698101208C41EA004040EA056086
:1020F00040EA0770204988310860207800F0080025
:10210000082820D11C4888300068C0F303651A48AD
:1021100088300068C0F301476069800140EA0740E9
:1021200040EA0561207F00E024E041EA00701249A6
:1021300088310860081D006820F44030E16A0843D7
:102140000D498C3108600C48006840F080500A4905
:102150000860FFF75FFB064606E0FFF75BFB801BAE
:10216000642801D9032018E503480068C0F34070D3
:102170000028F2D0002010E50038024070B5044677
:102180000D4600260CB9012070BD5C48006800F0C7
:102190000F00A8420ED25948006820F00F002843D3
:1021A000564908600846006800F00F00A84201D0B8
:1021B0000120E9E7207800F0020002281DD12078F4
:1021C00000F00400042805D14D48006840F4E050B8
:1021D0004B490860207800F00800082805D14848DD
:1021E000006840F46040464908604548006820F0B7
:1021F000F000A168084342490860207800F001001F
:1022000090B36068012807D13D4808380068C0F3E2
:102210004040A0B90120B7E76068022807D13848DC
:1022200008380068C0F3406048B90120ACE7344882
:1022300008380068C0F3400008B90120A4E730481E
:10224000006820F00300616808432D490860FFF72B
:10225000E1FA064609E0FFF7DDFA801B41F288311A
:10226000884202D903208FE707E02548006800F084
:102270000C006168B0EB810FEDD12048006800F0E0
:102280000F00A8420ED91D48006820F00F00284317
:102290001A4908600846006800F00F00A84201D003
:1022A000012071E7207800F00400042807D11448C9
:1022B000006820F4E050E168084311490860207884
:1022C00000F00800082808D10D48006820F460409C
:1022D000216940EAC1000A49086000F051F8084944
:1022E0000968C1F30311074A515CC84006490860F8
:1022F00006480068FFF7ACFA002045E7003C0240C2
:1023000008380240D85A41902000002028000020C0
:102310000F2202600D4A126802F0030242600B4A6B
:10232000126802F0F0028260084A126802F4E05279
:10233000C260064A126802F46042D2080261044A8E
:10234000126802F00F020A6070470000083802406D
:10235000003C024001480068704700002000002057
:1023600000B5FFF7F7FF04490968C1F34231034A9A
:10237000515CC84000BD000008380240E85A419056
:102380002DE9F047002400250026A14625480068D5
:1023900000F00C0020B1042805D008283AD105E04F
:1023A000DFF8849039E0DFF8849036E01D48001FA4
:1023B000006800F03F041B48001F006800F4800024
:1023C00078B11A481749091F0968C1F38811A0FBA1
:1023D00001700146224600233846FDF773FF05468B
:1023E0000EE011480F49091F0968C1F38811A0FBCD
:1023F00001700146224600233846FDF763FF05467B
:102400000848001F0068C0F30140401C4600B5FBAF
:10241000F6F902E0DFF8109000BF00BF4846BDE8C3
:10242000F0870000083802400024F40000366E01F6
:1024300070B586B006460C46154636BB00BF274829
:10244000006840F00100254908600846006800F077
:102450000100009000BF00BF88150190022002908B
:102460000320049000200390059001A91C48FFF769
:10247000BFF81A482838006820F0EC6044EA0501EB
:10248000084316492839086025E000BF1348006852
:1024900040F00400114908600846006800F004009C
:1024A000009000BF00BF4815019002200290032059
:1024B000049000200390059001A90A48FFF798F8BE
:1024C00006482838006820F0784044EAC5010843EF
:1024D00002492839086006B070BD0000303802405B
:1024E0000000024000080240F8B5044600270CB97D
:1024F0000120F8BD207800F00100002871D0F948D3
:10250000006800F00C0004280DD0F648006800F0C8
:102510000C00082813D1F348001F006800F4800065
:10252000B0F5800F0BD1EF4808380068C0F3404089
:10253000002869D06068002866D10120D9E700BF73
:102540006068B0F5803F08D1E6480838006840F47C
:102550008030E449083908602EE0606868B9E148D5
:102560000838006820F48030DE49083908600846E1
:10257000006820F4802008601EE06068B0F5A02F9D
:102580000DD1D8480838006840F48020D549083972
:1025900008600846006840F4803008600CE0D148CC
:1025A0000838006820F48030CE49083908600846B1
:1025B000006820F48020086000BF606890B1FFF7D9
:1025C00029F9054606E0FFF725F9401B642801D9E3
:1025D00003208EE7C34808380068C0F34040002855
:1025E000F1D011E0FFF716F9054606E0FFF712F902
:1025F000401B642801D903207BE7BA4808380068EB
:10260000C0F340400028F1D1207800F002000228F9
:1026100069D1B448006800F00C0058B1B1480068B6
:1026200000F00C0008281CD1AE48001F006800F420
:102630008000B0B9AB4808380068C0F3400020B152
:10264000E068012801D0012053E7A6480838006857
:1026500020F0F800216940EAC100A2490839086069
:1026600041E0E06828B39F480838006840F0010066
:102670009C4908390860FFF7CDF8054606E0FFF7EA
:10268000C9F8401B022801D9032032E795480838D1
:102690000068C0F340000028F1D092480838006874
:1026A00020F0F800216940EAC1008E49083908602D
:1026B00019E08C480838006820F001008949083981
:1026C0000860FFF7A7F8054606E0FFF7A3F8401BF0
:1026D000022801D903200CE7824808380068C0F3BB
:1026E00040000028F1D1207800F00800082836D1F9
:1026F0006069D0B17B486C30006840F001007949D6
:102700006C310860FFF786F8054606E0FFF782F8AF
:10271000401B022801D90320EBE672486C300068A8
:10272000C0F340000028F1D019E06E486C3000681A
:1027300020F001006B496C310860FFF76BF805462B
:1027400006E0FFF767F8401B022801D90320D0E616
:1027500064486C300068C0F340000028F1D1207854
:1027600000F00400042874D15E483830006800F09E
:10277000805080B900BF5B483830006840F080501E
:102780005849383108600846006800F080500090D1
:1027900000BF00BF01275448006800F48070B0B942
:1027A0005148006840F480704F490860FFF732F8E4
:1027B000054606E0FFF72EF8401B642801D90320E8
:1027C00097E64948006800F480700028F2D000BF06
:1027D000A068012808D143486830006840F0010033
:1027E0004049683108602DE0A06868B93D4868300C
:1027F000006820F001003B49683108600846006825
:1028000020F0040008601DE0A06805280DD13548BF
:102810006830006840F004003249683108600846BA
:10282000006840F0010008600CE02E486830006845
:1028300020F001002B49683108600846006820F04C
:102840000400086000BFA068A8B1FEF7E3FF0546DA
:1028500009E02EE0FEF7DEFF401B41F2883188429E
:1028600001D9032045E61F4868300068C0F34000E6
:102870000028EFD013E0FEF7CDFF054608E0FEF795
:10288000C9FF401B41F28831884201D9032030E65C
:10289000144868300068C0F340000028EFD1012FD1
:1028A00007D110483830006820F080500D49383189
:1028B0000860A069002852D00A48006800F00C00A7
:1028C000082865D0A06902284AD10648083800685F
:1028D00020F08070034908390860FEF79BFF054629
:1028E0000BE000000838024000700040FEF792FF45
:1028F000401B022801D90320FBE53B480068C0F3D8
:1029000040600028F2D1E06940F00050216A08439D
:10291000616A40EA81110122A06AC2EB500041EADB
:1029200000412C20005D41EA00602F49091D08602C
:10293000081F006840F08070091F0860FEF76AFFFA
:10294000054606E0FEF766FF401B022801D903207A
:10295000CFE525480068C0F340600028F2D040E091
:102960002148006820F080701F490860FEF752FF80
:10297000054606E0FEF74EFF401B022801D9032062
:10298000B7E519480068C0F340600028F2D128E09C
:102990001548001D0668A069012820D006F48001B2
:1029A000E06981421BD106F03F01206A814216D1C5
:1029B00047F6C0703040616AB0EB811F0FD106F45A
:1029C00040310122A06AC2EB5000B1EB004F06D1AA
:1029D00006F070612C20005DB1EB006F01D001208A
:1029E00087E5002085E50000003802407047704709
:1029F000704710B504460CB9012010BD94F83D0095
:102A000028B9002084F83C00204600F00CF8022091
:102A100084F83D00211D206800F02CFE012084F880
:102A20003D000020E9E7704701460868C06840F0B3
:102A300001000B68D86008688068084B00EA030250
:102A4000062A08D0B2F5803F05D00868006840F03B
:102A500001000B68186000207047000007000100AB
:102A6000704710B5044620680069C0F34000D8B133
:102A70002068C068C0F34000B0B16FF00200216868
:102A80000861012020772068806900F0030018B1F8
:102A90002046FFF7E5FF05E0204600F0BEF820469F
:102AA00000F0BCF80020207720680069C0F38000A7
:102AB000D8B12068C068C0F38000B0B16FF00400E6
:102AC00021680861022020772068806900F4407046
:102AD00018B12046FFF7C4FF05E0204600F09DF83E
:102AE000204600F09BF80020207720680069C0F3A2
:102AF000C000D8B12068C068C0F3C000B0B16FF0AA
:102B0000080021680861042020772068C06900F06F
:102B1000030018B12046FFF7A3FF05E0204600F0B0
:102B20007CF8204600F07AF80020207720680069C1
:102B3000C0F30010D8B12068C068C0F30010B0B175
:102B40006FF0100021680861082020772068C069B4
:102B500000F4407018B12046FFF782FF05E02046E0
:102B600000F05BF8204600F059F80020207720683C
:102B7000006900F0010058B12068C06800F0010051
:102B800030B16FF0010021680861204600F048F87C
:102B900020680069C0F3C01058B12068C068C0F355
:102BA000C01030B16FF08000216808612046FFF747
:102BB0001EFF20680069C0F3002058B12068C0687B
:102BC000C0F3C01030B16FF48070216808612046F6
:102BD000FFF70CFF20680069C0F3801058B120682F
:102BE000C068C0F3801030B16FF040002168086108
:102BF000204600F01FF820680069C0F3401058B16B
:102C00002068C068C0F3401030B16FF02000216828
:102C100008612046FFF7ECFE10BD704770470000CA
:102C200000680349884201D1FEF7FABD70470000F1
:102C300000000140704700BFFEE700007FB5134869
:102C40000024114B4FF400320094012501940294AA
:102C500003940360C0E90124046184610C4980F895
:102C60002040C0E90A14C561C46080F83040456165
:102C7000FDF766FF03206946CDE90005034802948D
:102C8000FDF772FE7FBD000000200140980100208A
:102C90000100000F7FB513480024114B4FF40032A0
:102CA000009401250194029403940360C0E9012477
:102CB000046184610C4980F82040C0E90A14C561B0
:102CC000C46080F830404561FDF73AFF0320694653
:102CD000CDE9000503480294FDF746FE7FBD0000E4
:102CE00000220140E00100200100000F2DE9F04F1B
:102CF00087B014216846FDF750FBFE48016841F09B
:102D000010010160016801F010010591016841F0B6
:102D100040010160016801F040010591016841F046
:102D200002010160016801F002010591016841F0B2
:102D300008010160016801F008010591016841F096
:102D400004010160016801F004010591016841F08E
:102D500001010160016801F001010591016841F480
:102D600000710160016801F400710591016841F48E
:102D700080710160016801F480710591016841F47E
:102D800080610160016801F480610591016841F092
:102D900020010160016801F020010591016841F006
:102DA00080010160006800224FF4004100F08000C3
:102DB0000590D148FEF728FDD04800224FF48C51F1
:102DC000FEF722FDCE48002242F20801FEF71CFD6C
:102DD000CC4800220321FEF717FDCB4800228021BA
:102DE000FEF712FDC94800224421FEF70DFDC84838
:102DF00000224FF48061FEF707FDC64800224FF421
:102E00000461FEF701FDC44800220221FEF7FCFC2C
:102E100002264FF6BB7002AA4FF00C080024694648
:102E2000CDE900060325BD4882E83001FEF7E0FB4E
:102E300009204FF00409CDF800906946CDE9035010
:102E4000B648CDE90164FEF7D3FB4FF4E0400294AD
:102E5000CDE9000608206946CDE90350AA48FEF7EF
:102E6000C7FB4FF0120BAC48E901CDF810900127D9
:102E7000CDE9001BCDE902756946FEF7B9FB0520D7
:102E800002943021CDE90016CDE90350A2486946ED
:102E9000FEF7AEFB02AA4FF6F370CDE90006A0489C
:102EA000694682E83001FEF7A3FB4FF4E85069461B
:102EB00002AACDE90006924882E83001FEF798FBAD
:102EC000B0030090CDE901748B4869460394FEF786
:102ED0008FFB40200294CDE900060D206946CDE924
:102EE00003508E48FEF784FB092069464FF4007AB0
:102EF000CDF800A0CDE903508748CDE90164FEF785
:102F000077FB40200294CDE900060A206946CDE90E
:102F100003508148FEF76CFB02AA48F23F10CDE94E
:102F200000067948694682E83001FEF761FB4FF2FE
:102F3000BB500294CDE900060E206946CDE903504E
:102F40007248FEF755FB4FF4F0500294CDE90006AD
:102F500007206946CDE903506748FEF749FB4FF467
:102F60008C500090CDE90174644869460394FEF7E3
:102F70003FFB70200294CDE900060D206946CDE9A3
:102F800003505E48FEF734FBFC200294CDE90006B6
:102F90000E206946CDE903505A48FEF729FB70021E
:102FA0000294CDE900060D206946CDE9035056484C
:102FB000FEF71EFB08200294CDE9000605206946B5
:102FC000CDE903505648FEF713FB0520CDF80080ED
:102FD0006946CDE903504948CDE90164FEF708FB95
:102FE00042F208000090CDE9017445486946039417
:102FF000FEF7FEFA02AA4FF63F00CDE9000644486C
:10300000694682E83001FEF7F3FA4EF2034002947B
:10301000CDE900060E206946CDE903503748FEF79A
:10302000E7FA40486946CDF800A0CDE901043648EA
:10303000FEF7DEFA02AA3A48694682E83001CDE995
:103040000096FEF7D5FA4FF422400294CDE900062F
:103050000E206946CDE903502E48FEF7C9FA092033
:10306000CDF800A06946CDE903502448CDE90164BC
:10307000FEF7BEFA4FF4A8400294CDE900060D20F9
:103080006946CDE903502348FEF7B2FAB00269461B
:10309000CDE9000419480294FEF7AAFA00956946A2
:1030A000CDE9017417480394FEF7A2FACDF800A009
:1030B0006946CDE90164124803940494FEF798FA36
:1030C000F0016946CDE9000B0B48CDE90275CDF85A
:1030D0001090FEF78DFA4FF420606946CDE90004A8
:1030E0000A480294FEF784FA08204FF0800A6946E5
:1030F0001AE0000030380240000002400020024088
:10310000000802400028024000180240002402404B
:1031100000140240001C0240000402400010024063
:10312000000C024000001110CDF800A0CDE90350C2
:103130007048CDE90164FEF75BFA30206946CDE9BD
:10314000000B6D48CDE90275CDF81090FEF750FAEE
:1031500040200294CDE900060D206946CDE90350D8
:103160006448FEF745FACDF800806946CDE903587A
:103170006148CDE90164FEF73BFACDF800A069464D
:10318000CDE901745D480394FEF732FA40200294C1
:10319000CDE900060E206946CDE903505748FEF7F9
:1031A00027FACDF800A06946CDE901645448CDE97D
:1031B0000345FEF71DFA40200294CDE900060920E0
:1031C0006946CDE903504E48FEF712FA44200090BC
:1031D000CDE901744B4869460394FEF709FA700281
:1031E0000090CDE90174464869460394FEF700FA61
:1031F00028020294CDE900060A206946CDE9035071
:103200003F48FEF7F5F902AA3A48694682E83001DC
:10321000CDE90076FEF7ECF936486946CDE9009431
:103220000294FEF7E5F90920CDF800906946CDE952
:1032300003503548CDE90164FEF7DAF950200294D5
:10324000CDE900060D206946CDE903502F48FEF771
:10325000CFF929486946CDE900A40294FEF7C8F9E0
:103260004FF404600090CDE901742348694603944B
:10327000FEF7BEF9052002942021CDE90016CDE924
:10328000035022486946FEF7B3F9A8020294CDE93B
:10329000000607206946CDE903501B48FEF7A8F950
:1032A000F2011548CDE9002BCDE902756946CDF84C
:1032B0001090FEF79DF900966946CDE90174124819
:1032C0000394FEF795F900976946CDE901640E482D
:1032D000CDE90345FEF78CF9A9030B4802AACDE915
:1032E0000016694682E83001FEF782F907B0BDE8B2
:1032F000F08F000000080240001C0240001802404D
:103300000014024000240240000402400000024079
:103310000EB5C02083490870A8204870012088702D
:103320003220C870FF2080490870487088700020E3
:10333000C870C0207D490870A8204870012088709E
:10334000C8700021084610F039FA76480078000667
:103350007449497840EA01407249897840EA01207D
:103360007049C978084302066E48007800066D4926
:10337000497840EA01406B49897840EA012069496F
:10338000C978084300F47F4042EA0022654800788B
:1033900000066449497840EA01416248807841EA80
:1033A00000206049C978084300F47F0042EA1022F7
:1033B0005C48007801065B48407841EA0041594882
:1033C000807841EA00205749C978084342EA1060F2
:1033D000574908605448007800065349497840EA44
:1033E00001405149897840EA01204F49C978084392
:1033F00002064D48007800064B49497840EA0140F2
:103400004949897840EA01204749C978084300F4CE
:103410007F4042EA00224448007800064249497849
:1034200040EA01414048807841EA00203E49C9789D
:10343000084300F47F0042EA10223B48007801066E
:103440003948407841EA00413748807841EA002015
:103450003549C978084342EA106036490860334864
:10346000007800063149497840EA01402F498978BF
:1034700040EA01202D49C978084302062B4800780C
:1034800000062A49497840EA01402849897840EAFB
:1034900001202649C978084300F47F4042EA00220F
:1034A0002248007800062149497840EA01411F4836
:1034B000807841EA00201D49C978084300F47F0064
:1034C00042EA10221948007801061848407841EA7B
:1034D00000411648807841EA00201449C978084321
:1034E00042EA106014490860144815490022124B42
:1034F000CDE9002102900F4A0D49124806F022F949
:10350000104806F08FFB0F4890F82900C0F38000A8
:1035100018B10C4806F0F2FB02E00A4806F088FBFE
:103520000EBD00000C000020100000201400002040
:10353000000000200400002008000020B539419060
:10354000554F40906801002000BFFEE7704770476C
:10355000FFF7DEFE01F06EFD012006F02FFCFBE719
:1035600010B500BF502072B680F31188BFF34F8FA3
:10357000BFF36F8F62B600BF11F0D4FF18B14FF0E8
:1035800080500449086000BF002080F3118800BF0C
:1035900010BD000004ED00E070B5B4B0302121A8EA
:1035A000FCF7FBFE14212DA8FCF7F7FE84216846EA
:1035B000FCF7F3FEFEF768FA2148016841F08051FC
:1035C0000160006800F0805032901E48016841F4AC
:1035D0004041016000680224012500F4404032901F
:1035E000E0030C228101C8230826CDE9274129A93F
:1035F000CDE9215021A881E85C00FEF775FFFEF7B8
:10360000FBF92FAE0021E3024FF4A05286E80E0032
:103610000F20CDE92D0406212DA8FEF7AFFD2006D1
:10362000049432218DE81300684609950394FEF74F
:1036300035FA620601201101FEF7FAFE34B070BDC2
:1036400040380240007000400548006840F47000B7
:10365000034908604FF000600149803908607047F5
:1036600088ED00E010B50248FFF7FBF910BD00003F
:103670001033002010B50268294B98420ED0B0F1EB
:10368000804F0BD0274B984208D0274B984205D04B
:10369000264B984202D0264B984203D122F070026A
:1036A0004B681A431E4B984220D0B0F1804F1DD07A
:1036B0001C4B98421AD01C4B984217D01B4B984277
:1036C00014D01B4B984211D01A4B98420ED01A4B73
:1036D00098420BD0194B984208D0194B984205D00C
:1036E000184B984202D0184B984203D122F44072F2
:1036F000CB681A4322F080034C6943EA040202605B
:103700008B68C3620B688362054B984202D0084BFA
:10371000984201D10B6903630123436110BD00008E
:10372000000001400004004000080040000C004080
:1037300000040140004001400044014000480140B5
:1037400000180040001C00400020004000BFFEE7C1
:103750000FB4054B10B503A9044A029800F034F8E1
:1037600010BC5DF814FB0000215040906401002063
:1037700002480068C0F30220704700000CED00E032
:1037800010B5002804DB0A07130E054A135406E09F
:103790000A07140E034A00F00F031B1FD45410BD78
:1037A00000E400E018ED00E002E008C8121F08C1C4
:1037B000002AFAD170477047002001E001C1121FB2
:1037C000002AFBD1704700002DE9FF4F8BB09A46CD
:1037D0000F460546002606E025280BD052460D99D7
:1037E00090476D1C761C28780028F5D10FB0304624
:1037F000BDE8F08F0024A0460122604900E00443A8
:1038000015F8013F203B02FA03F00842F7D128786F
:103810002E2817D115F8010F44F004042A280ED0E1
:103820006FF02F022878A0F1300109290AD808EB9F
:10383000880102EB410100EB01086D1CF2E757F82B
:10384000048B6D1C287869283ED006DC0028CDD07A
:1038500063280BD0642804D136E0732810D0752873
:103860004BD052460D999047761C85E017F8040B13
:103870008DF8000000208DF80100E946012003E0EA
:1038800057F8049B4FF0FF3061074FF0000401D45C
:103890000AE0641C44450DDA8442FADB19F804108E
:1038A0000029F6D106E0641C8442FCDB19F8041000
:1038B0000029F8D1264404E019F8010B52460D996D
:1038C0009047641EF8D257E001CF4FF00A0B002852
:1038D00002DA40422D2102E0210504D52B218DF88A
:1038E0002410012103E0E10705D02021F7E70DF1C5
:1038F000200908910CE00021F9E701CF4FF00A0BF5
:10390000F9E75946FCF770FD01F1300209F8012D85
:103910000028F6D1ADEB090000F1200B600701D4BF
:103920004FF00108D84502DDA8EB0B0000E00020B5
:103930008046002406E009A85246005D0D99904794
:10394000641C761C08988442F5DB04E03020524663
:103950000D999047761CB8F10001A8F10108F5DC3B
:1039600005E019F8010B52460D999047761CBBF102
:103970000001ABF1010BF4DC6D1C34E709280100F8
:103980002DE9F04706460F46904634461CB96FF0C5
:103990000500BDE8F08704F1140008F085FC10B9BB
:1039A0006FF00500F5E7A7B96FF00C0004F026F8FA
:1039B0008146494604F1140008F067FC30B9606A9A
:1039C00020B1002211462046636A98476FF0050037
:1039D000DFE700BFB8F1000F08D000BF2EA340F210
:1039E0002A223AA143A0FFF7B3FE00BF00BF207810
:1039F000616A04F053FF0546A5B96FF00C0003F0AF
:103A0000FDFF8146494604F1140008F03EFC30B940
:103A1000606A20B1002211462046636A98474FF041
:103A2000FF30B6E76F60284608F036FB294604F100
:103A3000140008F02AFC30B3D5F804900021484661
:103A400008F0D2FF002148460DF0CCFB002148468B
:103A50000EF0D4F90022114648460CF0DBF80021A4
:103A6000484609F003FD0020686005F1100008F0E9
:103A7000E9FB05F1100008F005FC284605F0F4F814
:103A80004FF0FF3085E7606A20B1002211462046E2
:103A9000636A984700207CE72E2E2F4D6964646C82
:103AA0006577617265732F54686972645F506172E3
:103AB00074792F4C7749502F7372632F6170692F7F
:103AC0006170695F6D73672E6300000065787065D3
:103AD0006374206E6577706362203D3D204E554CC7
:103AE0004C206F7220657272203D3D204552525F1E
:103AF0004F4B0000417373657274696F6E2022250D
:103B00007322206661696C6564206174206C696E43
:103B10006520256420696E2025730A002DE9F04197
:103B200004460D4600BF05F00300002808D000BF82
:103B30000BA34FF4B67216A11DA0FFF709FE00BF3C
:103B400000BF2E4608F012FB0746A06800683060F0
:103B5000A0680660384608F035FBBDE8F08100003B
:103B60002E2E2F4D6964646C6577617265732F54D6
:103B7000686972645F50617274792F4C7749502F75
:103B80007372632F636F72652F6D656D702E6300A6
:103B90006D656D705F667265653A206D656D20704C
:103BA000726F7065726C7920616C69676E65640014
:103BB000417373657274696F6E20222573222066CB
:103BC00061696C6564206174206C696E6520256490
:103BD00020696E2025730A0070B5054608F0C6FA04
:103BE0000646A8680468002C16D02068A9680860FA
:103BF00000BF04F00300002808D000BF09A34FF461
:103C00008C7214A11CA0FFF7A3FD00BF00BF3046BB
:103C100008F0D8FA204670BD304608F0D3FA0020EC
:103C2000F9E700002E2E2F4D6964646C6577617290
:103C300065732F54686972645F50617274792F4C98
:103C40007749502F7372632F636F72652F6D656DA7
:103C5000702E63006D656D705F6D616C6C6F633AA3
:103C6000206D656D702070726F7065726C79206167
:103C70006C69676E65640000417373657274696F87
:103C80006E2022257322206661696C656420617450
:103C9000206C696E6520256420696E2025730A00FA
:103CA0002DE9F05F07460E463C4600BF44B900BF11
:103CB0004BA34FF4DC7257A15AA0FFF749FD00BF98
:103CC00000BF08F053FA8346002060602672207F10
:103CD00040F001002077657800206070584608F0B9
:103CE00071FA606A20B1002204212046636A984775
:103CF000606A20B1002211462046636A9847606AD4
:103D000020B1002202212046636A9847304603F022
:103D100075FE824604F1100008F0C6FA20B1514643
:103D200004F1100008F0B1FA04F1140008F0BCFA34
:103D300020B1514604F1140008F0A7FA012D03D078
:103D4000042D01D0032D3CD1207FC0F3800900BF9A
:103D500000BF207F00F0FB00207700BF00BFB9F15B
:103D6000000F2DD100BF206A40B900BF1CA34FF443
:103D7000F37236A12BA0FFF7EBFC00BF00BF042DB0
:103D800003D10020216A087101E0206A0671206ACF
:103D9000006800F10C0800BF404608F0D2FA40B9B4
:103DA00000BF0FA340F2EF122FA11EA0FFF7D0FC1F
:103DB00000BF00BF00202062404608F0BCFA00BFF0
:103DC0000CE000BF206A40B100BF05A340F2F7122B
:103DD0002CA114A0FFF7BCFC00BF00BFBDE8F09F02
:103DE0002E2E2F4D6964646C6577617265732F5454
:103DF000686972645F50617274792F4C7749502FF3
:103E00007372632F6170692F6170695F6D73672EC4
:103E100063000000636F6E6E20213D204E554C4CB8
:103E200000000000417373657274696F6E20222573
:103E30007322206661696C6564206174206C696E10
:103E40006520256420696E2025730A00636F6E6EFD
:103E50002D3E63757272656E745F6D736720213DD0
:103E6000204E554C4C000000696E61766C696420F0
:103E70006F705F636F6D706C657465645F73656DA3
:103E800000000000636F6E6E2D3E63757272656E8A
:103E9000745F6D7367203D3D204E554C4C00000013
:103EA00070B50546002411E004EB4400094901EB1C
:103EB000C000067D4EB104EB440001EBC0008068F9
:103EC000A84202D1204600F087F9641C0A2CEBDBE3
:103ED00070BD0000586A00202DE9FF5F0646894644
:103EE00017464FF00A0AD346D04600240A20039012
:103EF000002002900190009000BF73E004EB4400AA
:103F0000764901EBC000057DB8F10A0F02D10DB969
:103F1000A04665E0002D63D000BF012D0AD0022D20
:103F200008DA00BF6EA340F223127BA18AA0FFF73C
:103F30000FFC00BF00BFAEB104EB4401674A02EBC7
:103F4000C1013068496888420CD13FB104EB44009C
:103F5000114601EBC0008068B84203D1204604B08E
:103F6000BDE8F09F012D28D104EB44005B4951F8D6
:103F7000300080B104EB440001EBC000418A02989C
:103F800081422DDB039404EB4400544901EBC00053
:103F9000408A029024E004EB4400504901EBC00049
:103FA000418A019881421BDBA24604EB44004B4945
:103FB00001EBC000408A019012E0022D10DB04EBFF
:103FC0004400464901EBC000418A0098814207DB6A
:103FD000A34604EB4400414901EBC000408A009035
:103FE000601C04B20A2C89DB09F0020028B9B8F180
:103FF0000A0F05D109F0010010B94FF0FF30AEE70C
:10400000B8F10A0F01DA444631E0BBF10A0F11DAC8
:104010005C4600BF04EB4400304951F8300040B129
:1040200000BF2FA340F26D1255A14BA0FFF790FBEC
:1040300000BF0CE0BAF10A0F01DA544607E003981A
:104040000A2801DA039C02E04FF0FF3087E700BF47
:104050000A2C08DB00BF22A340F27F124EA13EA033
:10406000FFF776FB00BF00BF204600F0B5F800BFA9
:104070000A2C08DB00BF1AA340F2831246A136A027
:10408000FFF766FB00BF00BF00BF04EB440013490D
:1040900001EBC000007D40B100BF11A34FF4C2721C
:1040A00042A12DA0FFF754FB00BF00BF36B104EBC7
:1040B00044010A4A02EBC10130684860002004EB69
:1040C0004401064A02EBC101488204EB4400114658
:1040D00001EBC0008760204641E70000586A0020DD
:1040E0002E2E2F4D6964646C6577617265732F5451
:1040F000686972645F50617274792F4C7749502FF0
:104100007372632F636F72652F697076342F6574D5
:10411000686172702E6300007374617465203D3DA8
:10412000204554484152505F53544154455F5045D7
:104130004E44494E47207C7C207374617465203E58
:104140003D204554484152505F53544154455F53BC
:104150005441424C45000000417373657274696FAD
:104160006E2022257322206661696C65642061746B
:10417000206C696E6520256420696E2025730A0015
:104180006172705F7461626C655B695D2E71203D68
:104190003D204E554C4C000069203C204152505F60
:1041A0005441424C455F53495A4500006172705F6B
:1041B0007461626C655B695D2E7374617465203D2A
:1041C0003D204554484152505F53544154455F454A
:1041D0004D5054590000000010B5044604EB440053
:1041E0000C4951F8300060B104EB4401094A52F81F
:1041F000310006F0ABFC002004EB4401054A42F814
:104200003100002004EB4401024A02EBC1010875B1
:1042100010BD0000586A0020F0B587B007460D4673
:1042200000BF002D0AD100BF2EA340F28A223BA17D
:104230003EA0FFF78DFA00BF07B0F0BD00BF7C685D
:104240002088B0F5807F08D12079062805D16079D3
:10425000042802D16088082803D0384606F076FC8E
:10426000EAE7D4F80E000690A0690590686808B9DE
:10427000002607E005986968884201D1012000E026
:10428000002006460EB1012000E00220034604F1A2
:10429000080206A9284600F0CBFCE088B0F5807F34
:1042A00003D0B0F5007F15D113E086B1022206AB32
:1042B00004F10800291DCDE90232CDE9001005F115
:1042C000220302461E31284600F05CFB00E000BFDE
:1042D00001E000E000BF00BF384606F037FC00BF39
:1042E000AAE700002E2E2F4D6964646C6577617219
:1042F00065732F54686972645F50617274792F4CD2
:104300007749502F7372632F636F72652F697076D0
:10431000342F6574686172702E6300006E65746975
:104320006620213D204E554C4C00000041737365C2
:104330007274696F6E2022257322206661696C6534
:1043400064206174206C696E6520256420696E208C
:1043500025730A002DE9FE4304460F461546A9467B
:1043600000BF002C08D100BF5DA340F21E326AA13D
:104370006DA0FFF7EDF900BF00BF00BF47B900BF58
:1043800057A340F21F3272A167A0FFF7E1F900BF07
:1043900000BF00BF002D08D100BF51A34FF44872E9
:1043A0006EA161A0FFF7D4F900BF00BF21462868C5
:1043B00001F0CBF810B1DFF8B48186E0287800F086
:1043C000F000E02816D101208DF8040000208DF8BF
:1043D00005005E208DF80600687800F07F008DF8FB
:1043E0000700A8788DF80800E8788DF809000DF12D
:1043F000040869E02868A1680840D4E90112114066
:1044000088420ED0288880B24FF6A961884208D031
:10441000E06810B104F10C0903E06FF00300BDE89F
:10442000FE835348007800EB4000524901EBC00086
:10443000007D02281BDB4E48007800EB400001EBBA
:10444000C0008068A04212D14949097801EB4101BE
:10445000484A02EBC101D9F800004968884206D1F8
:10446000434802783946204600F086F8D7E7002610
:1044700022E006EB46003F4901EBC000007D022828
:1044800018DB06EB460001EBC0008068A04211D1AA
:1044900006EB4601374A02EBC101D9F80000496832
:1044A000884207D13248067032463946204600F02D
:1044B00063F8B4E7701CC6B20A2EDADB3A46494606
:1044C000204600F00DF9AAE700BF4FF40060434614
:1044D00004F1220239460090204600F0B9FC9EE724
:1044E0002E2E2F4D6964646C6577617265732F544D
:1044F000686972645F50617274792F4C7749502FEC
:104500007372632F636F72652F697076342F6574D1
:10451000686172702E6300006E6574696620213DCB
:10452000204E554C4C000000417373657274696FE6
:104530006E2022257322206661696C656420617497
:10454000206C696E6520256420696E2025730A0041
:104550007120213D204E554C4C0000006970616473
:10456000647220213D204E554C4C0000F05A419081
:10457000EC000020586A0020F8B505460E461446A7
:1045800000BF04EB4400314901EBC000007D02286C
:1045900008DA00BF2EA340F2EE223BA146A0FFF7AF
:1045A000D7F800BF00BF04EB4400284901EBC0006E
:1045B000007D022839D104EB440001EBC000408AA1
:1045C000B0F58E7F11DD04EB44000A4602EBC0001B
:1045D000011D284600F09CFA38BB032004EB44017F
:1045E0001A4A02EBC10108751FE004EB44001749A9
:1045F00001EBC000408AB0F5877F16DB04EB440076
:104600000B4603EBC00000F10C0204EB440003EB8B
:10461000C000011D284600F087FA30B9032004EBE2
:1046200044010A4A02EBC10108754FF40060009092
:1046300004EB4400054901EBC00000F10C0305F157
:1046400022023146284600F003FCF8BD586A0020DB
:104650002E2E2F4D6964646C6577617265732F54DB
:10466000686972645F50617274792F4C7749502F7A
:104670007372632F636F72652F697076342F657460
:10468000686172702E6300006172705F7461626CA9
:10469000655B6172705F6964785D2E7374617465C7
:1046A000203E3D204554484152505F5354415445AB
:1046B0005F535441424C4500417373657274696F96
:1046C0006E2022257322206661696C656420617406
:1046D000206C696E6520256420696E2025730A00B0
:1046E0002DE9FE4F81460F46164609F1220A4FF08A
:1046F000FF300290002001904946386800F025FF05
:1047000038B9387800F0F000E02802D00FB13868EE
:1047100018B96FF00F00BDE8FE8F4A4601213846F8
:10472000FFF7DAFB8046B8F1000F02DA4FFA88F0A3
:10473000F1E700BFB8F17F0F08D300BF5FA340F2DD
:10474000C1326CA16FA0FFF703F800BF00BF08F0F3
:10475000FF0404EB4400754901EBC000007D70B913
:104760000120019004EB4401704A02EBC10108757D
:1047700004EB4400114601EBC000C0F8089000BFF4
:1047800004EB4400694901EBC000007D01280FD013
:1047900004EB440001EBC000007D022808DA00BFF2
:1047A00046A340F2CD3262A156A0FEF7D1FF00BF72
:1047B00000BF019800B93EB93946484600F0A8F953
:1047C00002900EB90298A6E700BF46B900BF3BA30E
:1047D00040F2E13260A14BA0FEF7BAFF00BF00BF7C
:1047E00004EB4400514901EBC000007D022811DBBD
:1047F0005C4804704FF40060009004EB440001EB4F
:10480000C00000F10C0352463146484600F020FB40
:10481000029050E004EB4400444901EBC000007DED
:10482000012848D14FF0000B354618E000BF6889D9
:10483000298988420AD1286840B100BF1FA340F2ED
:10484000F13249A12FA0FEF783FF00BF00BF287BF4
:1048500000F0400010B14FF0010B02E02D68002D78
:10486000E4D100BFBBF1000F07D032464FF42071F6
:104870000E2005F05FFF054603E03546284606F0AA
:104880005BFBA5B104EB4400284951F8300030B17E
:1048900004EB4401254A52F8310006F057F904EBC5
:1048A0004400224941F830500020029002E04FF0CD
:1048B000FF30029000BF02982DE700002E2E2F4DF2
:1048C0006964646C6577617265732F54686972649A
:1048D0005F50617274792F4C7749502F7372632F38
:1048E000636F72652F697076342F657468617270BA
:1048F0002E63000074797065206F766572666C6F48
:1049000077000000417373657274696F6E20222511
:104910007322206661696C6564206174206C696E25
:104920006520256420696E2025730A00586A0020DE
:104930006172705F7461626C655B695D2E73746136
:104940007465203D3D2050454E44494E47206F72CE
:1049500020535441424C45007120213D204E554C7E
:104960004C000000EC0000206E6F207061636B65EE
:10497000742071756575657320616C6C6F77656403
:10498000210000002DE9FC5F06460F46904699463F
:10499000DDE90CAB0020019000BF002E08D100BF64
:1049A00031A340F257423EA141A0FEF7D1FE00BF25
:1049B00000BF4FF420721C210E2005F031FC05468B
:1049C0001DB94FF0FF30BDE8FC9F00BF68891C286F
:1049D00008DA00BF24A340F262423FA134A0FEF7F0
:1049E000B7FE00BF00BF6C680F9802F0B2F8E0801D
:1049F00000BF96F82800062808D000BF1AA340F28E
:104A0000694242492AA0FEF7A3FE00BF00BFD9F8C1
:104A10000000A060B9F80400A081DBF80000C4F831
:104A20001200BBF80400E082DAF80000C4F80E00BF
:104A30000E980068A0614FF480702080082060808C
:104A4000062020710420607140F6060043463A4675
:104A500029460090304600F0FBF9284606F076F82B
:104A600000250198AFE700002E2E2F4D6964646C7D
:104A70006577617265732F54686972645F50617203
:104A800074792F4C7749502F7372632F636F72655F
:104A90002F697076342F6574686172702E63000020
:104AA0006E6574696620213D204E554C4C00000017
:104AB000417373657274696F6E20222573222066BC
:104AC00061696C6564206174206C696E6520256481
:104AD00020696E2025730A00636865636B20746823
:104AE00061742066697273742070627566206361F8
:104AF0006E20686F6C6420737472756374206574C3
:104B0000686172705F68647200000000785D4190B7
:104B100070B504460D46034A2946204600F004F8C5
:104B200070BD0000F05A41907FB504460D46164610
:104B30000121074A201D04F122038DE8250003917D
:104B4000324619462046FFF71DFF04B070BD000035
:104B5000F65A419070B5002464E004EB44003349F8
:104B600001EBC000057D002D5BD004EB440001EBA0
:104B7000C000408A401C04EB44012C4A02EBC101F6
:104B8000488204EB4400114601EBC000408AB0F5B6
:104B9000967F0DDA04EB440001EBC000007D012894
:104BA0000AD104EB440001EBC000408A052803DB76
:104BB0002046FFF711FB34E004EB44001B4901EBF6
:104BC000C000007D032807D1042004EB4401174AEC
:104BD00002EBC101087524E004EB4400134901EB2A
:104BE000C000007D042807D1022004EB44010F4AD5
:104BF00002EBC101087514E004EB44000B4901EB22
:104C0000C000007D01280CD104EB44020B4603EBED
:104C1000C202111D04EB440203EBC2029068FFF7CD
:104C200077FF641C0A2C98DB70BD0000586A0020D6
:104C30002DE9F84305460E461746984600BF95F8FD
:104C40002800062808D000BF2EA340F2A9123BA1DD
:104C500043A0FEF77DFD00BF00BF5EB1306848B1E4
:104C60002946306800F071FC20B9307800F0F0007F
:104C7000E02803D16FF00F00BDE8F8832A464146D3
:104C80003046FFF729F90446002C01DA60B2F3E759
:104C9000022004EB44013C4A02EBC101087504EB1D
:104CA0004400114601EBC000856004EB440001EBB9
:104CB000C0003968C160B9880182002004EB44015A
:104CC00002EBC101488204EB4400114651F8300068
:104CD000B0B104EB440051F83090002004EB4401E3
:104CE00042F831004FF400603B4605F1220249468C
:104CF0000090284600F0ACF8484605F027FF00BFBA
:104D00000020B9E72E2E2F4D6964646C65776172BF
:104D100065732F54686972645F50617274792F4CA7
:104D20007749502F7372632F636F72652F697076A6
:104D3000342F6574686172702E6300006E6574694B
:104D4000662D3E6877616464725F6C656E203D3DE0
:104D5000204554485F4857414444525F4C454E00FB
:104D6000417373657274696F6E2022257322206609
:104D700061696C6564206174206C696E65202564CE
:104D800020696E2025730A00586A00202DE9F04141
:104D900004460E464FF00E0860890E2800DC4FE0F6
:104DA000E07B18B996F82C00401CE0736568AF8969
:104DB000287800F00100B0B12878012809D168787E
:104DC00088B9A8785E280ED1607B40F0100060732F
:104DD00009E006221D492846FBF7EAFA18B9607B6C
:104DE00040F008006073082F03D0B7F5C16F22D1DF
:104DF00010E096F8290000F0080000B920E04146D4
:104E0000204606F0EDF800B11AE03146204600F0E9
:104E100029FD11E096F8290000F0080000B90FE024
:104E20004146204606F0DCF800B109E03146204654
:104E3000FFF7F2F900E003E000BF0020BDE8F081D9
:104E4000204605F083FE0020F8E70000F05A41906C
:104E50002DE9F04705460E4617469846DDF82090A6
:104E6000484601F076FE82460E21304605F05AF99A
:104E700000B122E07468A4F80CA0D8F8000020600B
:104E8000B8F80400A0803868C4F80600B8886081CB
:104E900000BF95F82800062808D000BF08A34FF4EB
:104EA000997215A121A0FEF753FC00BF00BF314647
:104EB0002846AA699047BDE8F0876FF00100FAE73D
:104EC0002E2E2F4D6964646C6577617265732F5463
:104ED000686972645F50617274792F4C7749502F02
:104EE0007372632F6E657469662F65746865726E80
:104EF00065742E63000000006E657469662D3E685F
:104F000077616464725F6C656E206D757374206286
:104F100065203620666F722065746865726E6574F0
:104F20005F6F7574707574210000000041737365C4
:104F30007274696F6E2022257322206661696C6528
:104F400064206174206C696E6520256420696E2080
:104F500025730A0010B5044600BF44B900BF0CA376
:104F600040F22D220FA113A0FEF7F2FB00BF00BFFD
:104F7000732084F82A0074212B20015517486061A2
:104F80001748A061204601F019FC002010BD000068
:104F90002E2E2F5372632F65746865726E65746967
:104FA000662E63006E6574696620213D204E554C67
:104FB0004C000000417373657274696F6E20222586
:104FC0007322206661696C6564206174206C696E6F
:104FD0006520256420696E2025730A0055434090A2
:104FE000016A40900646354600BF4FF0FF310B483E
:104FF000006805F04BF80028F7D100BF284601F003
:105000007DFC04463CB1294620462A69904710B1F0
:10501000204605F09BFD002CF0D1E6E71C000020A7
:1050200038B504468DF8000069460320ABBE204623
:1050300038BD000008B50420030200220249009098
:1050400002A007F085F908BD5550409048545450CF
:1050500000000000F8B5074600221146102003F0BA
:1050600023FF0646C6B150220021304603F0BAFCA9
:1050700004468CB9FF21304603F0B8FE0BE06946C8
:10508000304603F055FB05462DB9009800F006F8B0
:10509000009803F073FDF2E7F8BD00007FB5044609
:1050A00003A9204603F0EEFF0546002D4AD1204615
:1050B00003F0C8FD002845D101AA02A9039803F016
:1050C0008FFABDF8040005283CDB052221A10298D7
:1050D000FBF77BF9002835D103462C221F490090AD
:1050E000204604F02BFA0020034663221C4900905E
:1050F000204604F023FA0020034638221949009084
:10510000204604F01BFA002003463922164900907D
:10511000204604F013FA092214A10298FBF755F96E
:1051200028B9012202211448FCF76EFB0AE009228B
:1051300012A10298FBF749F920B9002202210E487A
:10514000FCF762FB204603F0B1FC039803F0E0FAA1
:105150007FBD0000474554202F000000D4594190E6
:10516000015A4190655A41909E5A419047455420BA
:105170002F6C656431000000002002404745542038
:105180002F6C65643200000070B505460C4622465F
:105190000321284600F03AF970BD00002DE9FF5FB9
:1051A00005468A46654880680390039800780007A2
:1051B000860E142E00DAB7E06889042800D2B3E026
:1051C0006868047814B1082C70D100E0A6E0DFF81C
:1051D0006C9109F114095948007D00F0F000E028B5
:1051E00000D1A5E0554A1168506900F0AEF900B150
:1051F0009EE02889082800D296E006F10E01284694
:1052000004F090FF002840D0288930441FFA80FB2A
:105210002889584500DD8BE04FF4207259460E2056
:1052200004F0FEFF074607B982E0798906F108001D
:10523000814203D2384605F089FC79E0324678682D
:105240000399FBF783F83146384605F0C9FE00287C
:105250000DD000BF00BF3AA3B62247A154A0FEF76D
:1052600077FA00BF00BF384605F070FC60E02946C1
:10527000384605F0B7FA18B1384605F067FC57E034
:10528000284605F063FC3D4611E006F10E01284674
:1052900005F0A6FE58B100BF00BF29A3C7224EA14A
:1052A00043A0FEF755FA00BF00BF41E024E0D5F867
:1052B00004803146284604F035FFE0B96F68D9F81C
:1052C0000000F8601D4800693861002088F800007F
:1052D000A8F80200FF203872002078810120002108
:1052E000FF230A46CDE9010A00914946284600F00D
:1052F000A1FB834600BF11E0032C0ED00B2C0CD079
:105300000C2C0AD0042C08D0052C06D00D2C04D06F
:105310000E2C02D0112C00D000BF00BF00BF2846C9
:1053200005F014FCBDE8FF9F284605F00FFCF9E7E7
:10533000284605F00BFC00BFF4E7000050330020C6
:105340002E2E2F4D6964646C6577617265732F54DE
:10535000686972645F50617274792F4C7749502F7D
:105360007372632F636F72652F697076342F696370
:105370006D702E630000000069636D705F696E7070
:1053800075743A206D6F76696E6720722D3E70617C
:10539000796C6F616420746F2069636D702068653B
:1053A00061646572206661696C65640A00000000D2
:1053B000417373657274696F6E20222573222066B3
:1053C00061696C6564206174206C696E6520256478
:1053D00020696E2025730A0069636D705F696E70C5
:1053E00075743A20726573746F72696E67206F729C
:1053F0006967696E616C20702D3E7061796C6F61B8
:1054000064206661696C65640A0000002DE9FF474D
:105410000746884691464FF420722421222004F04A
:10542000FFFE05460DB9BDE8FF8700BF6889242847
:1054300008D200BF19A34FF4B47226A130A0FEF722
:1054400087F900BF00BFD7F804A06C6884F800801B
:1054500084F801900020A080E08079686A6802F1F9
:1054600008001C22FAF772FFDAF80C00039003A878
:1054700000F048FD06465EB100206080012000215A
:10548000FF2303AACDE901060091284600F0D2FAD5
:10549000284605F05BFB00BFC5E700002E2E2F4D10
:1054A0006964646C6577617265732F5468697264AE
:1054B0005F50617274792F4C7749502F7372632F4C
:1054C000636F72652F697076342F69636D702E6318
:1054D00000000000636865636B2074686174206677
:1054E0006972737420706275662063616E20686FE4
:1054F0006C642069636D70206D657373616765000E
:10550000417373657274696F6E2022257322206661
:1055100061696C6564206174206C696E6520256426
:1055200020696E2025730A0070B505460C46224698
:105530000B212846FFF76AFF70BD00BFEFF305801F
:1055400008B1012070470020FCE718B50246009220
:10555000D04300B10AB9012018BD91F8290000F02C
:10556000020008B90020F7E74868904201D1002006
:10557000F2E700988B681840D1E901342340984243
:1055800008D1886822EA00008C68E343984201D180
:105590000120E1E70020DFE72DE9F74F8CB004465A
:1055A0000F464FF00008398CA1F11400C11700EB31
:1055B0005171C1F3CF0A1420059060680990DDF89D
:1055C000249099F8000000F00F001421B1EB800F37
:1055D00004D06FF005000FB0BDE8F08F00BF608908
:1055E00014280BDA00BF72A34FF43F727FA186A08C
:1055F000FEF7AEF800BF6FF00500ECE700BFB9F8AA
:10560000060001F0A6FA04900498C0F30C0007907D
:10561000049800F400500390208914381FFA80FB8E
:10562000BDE04FF6FF7000EACA00584501DD58465C
:1056300003E04FF6FF7000EACA0008904FF42072B2
:1056400014210E2004F0ECFD054605B9ADE000BFC5
:105650006889142808DA00BF55A34FF4497274A171
:1056600069A0FEF775F800BF00BF142268680999A9
:10567000FAF76CFED5F8049008980A9054E0618916
:105680000598081A80B2029000BF6189059881428E
:1056900008DA00BF46A340F22D326DA15AA0FEF7F2
:1056A00057F800BF00BF02990A98884201DA0A98A9
:1056B00000E002988046B8F1000F03D10020059069
:1056C000246831E000F068FC06461EB9284605F063
:1056D0003DFA6AE061680598084433464122414634
:1056E000CDE90008002004F049FF0B900B9830B979
:1056F000304600F057FC284605F028FA55E02046D1
:1057000005F01AFC74615648306128460B9904F084
:105710005FFF0A98A0EB080080B20A900A9810B1C7
:1057200000200590246800BF0A980028A7D105989A
:10573000404480B20590388C1438584501DB012074
:1057400000E0002006900798C0F30C000490069833
:1057500008B1039818B1049840F4005004900498DC
:1057600001F0F7F9A9F806000899143188B201F0A0
:10577000F0F9A9F802000020A9F80A007B6929467F
:1057800038460E9A9847284605F0E0F90898ABEBA2
:1057900000001FFA80FB0798504480B20790BBF1CD
:1057A000000F7FF43EAF002015E74FF0FF3012E707
:1057B0002E2E2F4D6964646C6577617265732F546A
:1057C000686972645F50617274792F4C7749502F09
:1057D0007372632F636F72652F697076342F6970EF
:1057E000345F667261672E63000000006970345F89
:1057F0006672616728293A207062756620746F6F3F
:105800002073686F72740000417373657274696FFE
:105810006E2022257322206661696C6564206174A4
:10582000206C696E6520256420696E2025730A004E
:1058300074686973206E6565647320612070627599
:105840006620696E206F6E65207069656365210052
:10585000702D3E6C656E203E3D20706F66660000C8
:10586000F56640902DE9F04707460E467D6828789A
:105870000421B1EB201F05D0384605F067F9002060
:10588000BDE8F087287800074FEA9068688801F043
:1058900060F981463989494503DD4946384605F0B6
:1058A00097FA7889404505DB3889484502DBB8F12D
:1058B000140F04DA384605F049F90020E0E72869BA
:1058C0004D494861E86808610846007D00F0F00035
:1058D000E0280AD196F8290000F0010018B170689C
:1058E00008B134461CE000241AE0304600F088F885
:1058F00008B1344614E000243F48007D7F280FD0D3
:105900003E48046809E0B44200D105E0204600F0BA
:1059100077F800B103E000BF2468002CF3D100BF8A
:10592000354908693146FFF710FE28B93248007C36
:1059300000F0F000E02804D1384605F007F9002017
:105940009EE724B9384605F001F9002098E7E88879
:105950004FF63F71084038B1384600F055F9074618
:105960000FB900208CE77D6823480460466085609D
:1059700028780007800E204988814146384605F086
:105980002FFB687A01280DD0062806D011280ED1E9
:10599000314638460EF054FA22E03146384607F0D8
:1059A000A3FF1DE031463846FFF7F8FB18E0124927
:1059B00048692146FFF7C9FD70B90F48007D00F026
:1059C000F000E02808D00FFA88F1384605F0B5F964
:1059D00002213846FFF7D8FB384605F0B7F800BF7C
:1059E00000BF002004490860486088608881086121
:1059F000486100BF44E700005033002084000020CD
:105A000010B5044694F8290000F0010070B16068F8
:105A100060B1074840696168884205D00449486917
:105A20002146FFF792FD08B1012010BD0020FCE7E0
:105A3000503300202DE9FE4F07460C461546984688
:105A4000DDE90C9A0E9EA34625B10CB1206808B979
:105A500006F1040B43462A4659463846CDE9009ADA
:105A6000029600F003F8BDE8FE8F00002DE9F84F24
:105A700005460F4690469A46DDF828B00C9E00BFBA
:105A8000A87B012808D000BF37A34FF4557243A16B
:105A900045A0FDF75DFE00BF00BFB8F1000F46D086
:105AA0004FF014091421284604F03CFB18B16FF0A4
:105AB0000100BDE8F88F6C6800BF6889142808D21F
:105AC00000BF29A34FF4627241A137A0FDF740FE49
:105AD00000BF00BF84F808A00B986072D8F80000DF
