:020000040800F2
:1000000040470020DD01000859310008B1300008E8
:10001000553100080F0700082567000800000000A0
:100020000000000000000000000000000143000884
:10003000AB080008000000000334000899430008E2
:10004000F7010008F7010008F7010008F7010008B0
:10005000F701000805340008F7010008F70100085F
:10006000F7010008F7010008F7010008F701000890
:10007000F7010008F7010008F7010008F701000880
:10008000F7010008F7010008F7010008F701000870
:10009000F7010008F7010008F7010008F701000860
:1000A000F7010008F7010008F7010008F701000850
:1000B000F7010008F7010008F7010008F701000840
:1000C000F7010008F7010008F7010008F701000830
:1000D000F7010008F7010008F7010008F701000820
:1000E000F7010008F7010008F7010008F701000810
:1000F000F7010008F7010008F7010008F701000800
:10010000F70100085D340008F7010008F701000856
:10011000F7010008F7010008F7010008F7010008DF
:100120009D070008F7010008F7010008AD07000867
:10013000F7010008F7010008F7010008F7010008BF
:10014000F7010008F7010008F7010008F7010008AF
:10015000F7010008BD070008F7010008F7010008D3
:10016000F7010008F7010008F7010008F70100088F
:10017000F70100085D310008F7010008F7010008E9
:10018000F7010008F7010008F7010008F70100086F
:10019000F7010008F7010008F7010008F70100085F
:1001A000F7010008F7010008F7010008F70100084F
:1001B000F7010008F7010008F7010008F70100083F
:1001C000F7010008F7010008DFF80CD000F08CF808
:1001D00000480047F97B0008404700200648804758
:1001E00006480047FEE7FEE7FEE7FEE7FEE7FEE71C
:1001F000FEE7FEE7FEE7FEE761440008C9010008EC
:100200002DE9F05F0546002092469B46884606464B
:10021000814640241BE0284641464746224600F0DE
:1002200053F853465A46C01A914110D31146184606
:10023000224600F03AF82D1A67EB01084F46224695
:100240000120002100F031F817EB00094E41201E7B
:10025000A4F10104DFDC484631462A464346BDE8A6
:10026000F09F40EA01039B0703D009E008C9121F71
:1002700008C0042AFAD203E011F8013B00F8013B60
:10028000521EF9D27047D2B201E000F8012B491E8C
:10029000FBD270470022F6E710B513460A46044623
:1002A0001946FFF7F0FF204610BD202A04DB203A54
:1002B00000FA02F1002070479140C2F1200320FAB9
:1002C00003F3194390407047202A04DB203A21FAB7
:1002D00002F00021704721FA02F3D040C2F120025F
:1002E0009140084319467047064C074D06E0E06808
:1002F00040F0010394E8070098471034AC42F6D36D
:10030000FFF766FF7C8500089C85000870B58C1897
:1003100010F8015B15F0070301D110F8013B2A1119
:1003200006D110F8012B03E010F8016B01F8016B06
:100330005B1EF9D12B0705D40023521E0DD401F802
:10034000013BFAE710F8013BCB1A921C03E013F8CB
:10035000015B01F8015B521EF9D5A142D8D3002000
:1003600070BD000008B500BF4748006840F00100BC
:10037000454908600846006800F00100009000BF91
:1003800000BF00BF0846006840F002000860084651
:10039000006800F00200009000BF00BF00BF0846E8
:1003A000006840F0040008600846006800F004009F
:1003B000009000BF00BF00BF0846006840F0080082
:1003C00008600846006800F00800009000BF00BF09
:1003D00000BF0846006840F010000860084600684A
:1003E00000F01000009000BF00BF00BF084600688A
:1003F00040F0200008600846006800F020000090EF
:1004000000BF00BF00BF0846006840F04000086021
:100410000846006800F04000009000BF00BF00BF29
:100420000846006840F0800008600846006800F058
:100430008000009000BF00BF00BF0846006840F485
:10044000807008600846006800F48070009000BF6B
:1004500000BF00BF0846006840F40070086008460E
:10046000006800F40070009000BF00BF00BF0846A5
:10047000006840F4806008600846006800F480600E
:10048000009000BF00BF08BD303802407047000038
:1004900030B585B004460D460120029080200090C2
:1004A00000200190032003906946024800F042FCBE
:1004B00005B030BD001C024010B50446214602487C
:1004C00002F0BEF910BD0000181E002010B504484F
:1004D00002F0C9F9042801D0012010BD0020FCE77A
:1004E000181E002010B50024154816490860002188
:1004F00014480161816100201249486000211148BF
:100500008160C1604161FFF7C3FF00F01DF8012861
:1005100001D0022010BD00210A4800F025F809484A
:1005200002F0B6FA00B1012444B94FF40061054865
:1005300002F04CF808B1012400E000242046E9E76D
:10054000002C0140181E002008B5012000908021D9
:10055000044800F0FBFC012801D1002000909DF828
:10056000000008BD001C024030B5B7B004460D467F
:1005700000BF4D48006840F400604B4908600846E1
:10058000006800F40060019000BF00BF00BF464853
:100590001438006840F48000434914390860084664
:1005A000006800F48000019000BF00BF01200490AB
:1005B000022003900C200690032005904FF4F85081
:1005C000029002A9394800F0B5FB0420029002A96C
:1005D000374800F0AFFB00220E21312000F03AFD39
:1005E000312000F027FD33481F9020211FA8C16152
:1005F000490101614903C162891001630021C160A1
:100600004FF00060209004211FA84162090381611E
:1006100089104161002181604FF440310162032162
:10062000816200BF20642D9400BF00F0A1F91FA8D3
:1006300000F0F6FA4FF00060089040210991002187
:100640000A9141140B91C1130C9141130D9120217A
:100650000E914FF440310F9104211091032111911B
:10066000011112918111139112484830079000BF77
:1006700007A8E063159400BF00F07AF907A800F01E
:10068000CFFA00220F213B2000F0E4FC3B2000F0D9
:10069000D1FC00220F21452000F0DCFC452000F0B9
:1006A000C9FC37B030BD00004438024000080240A9
:1006B000000C024058640240F8B504460D46164648
:1006C0001F4633462A4621460448009702F044FA62
:1006D00008B10120F8BD0020FCE70000181E002032
:1006E00070470000F8B504460D4616461F463346CF
:1006F0002A4621460448009702F098FB08B10120E1
:10070000F8BD0020FCE70000181E0020704700BF65
:10071000FEE70346042B15D007DC7BB1012B0ED07E
:10072000022B0DD0032B12D10BE0202B0BD0212B51
:100730000AD0222B09D0232B09D107E008E007E0DB
:1007400006E005E004E003E002E001E000E000BFB5
:1007500000BF0020704700207047000010B5002245
:100760000449054803F0DAFF0449034803F0CFFFCA
:10077000002010BD2415002050040020240D00206E
:1007800070B504460D462146034803F0C0FF0248F9
:1007900003F098FF002070BD5004002010B50249FE
:1007A000886B00F01DF910BD841D002010B50249B2
:1007B000086C00F015F910BD181E002010B5024994
:1007C000C86B00F00DF910BD181E00200146087816
:1007D00010381823B0FBF3F20848805CC865032A80
:1007E00005D908686FF30900001D886503E00868F3
:1007F0006FF309008865886D704700000681000866
:10080000014600208A6A8B69CBB932B1012A0DD02A
:10081000022A03D0032A10D10EE000BFCB6A03F0F6
:100820008073B3F1807F00D1012007E0CB6AB3F180
:10083000C07F00D1012001E000E000BF34E08B69FF
:10084000B3F5005F1AD132B1012A07D0022A03D0D2
:10085000032A11D10AE000BF01200EE0CB6A03F0A9
:100860008073B3F1807F00D1012006E0CB6AB3F141
:10087000C07F00D1012000E000BF15E032B1012AA5
:1008800005D0022A04D0032A0CD103E000BF00BF28
:10089000012008E0CB6A03F08073B3F1807F00D1C0
:1008A000012000E000BF00BF70477047704730B5BF
:1008B00004460D4600222946204600F001F830BDCE
:1008C000F0B50346012500241148407A01281CDABE
:1008D00000200F4E767A0E4FB8553846467A001DE6
:1008E00040F82630001F467A083082553E46707A1E
:1008F000461C7E72044604F1300008703A204870AD
:100900002F2088700020C87000252846F0BD000008
:100910003027002070B50A480468001D0568001DD6
:100920000668344454B108220649204602F0CDFB43
:10093000042204491031284602F0C7FB70BD0000B4
:1009400020F4F01F5A000020014691F835000228DB
:1009500003D08020486501207047052081F83500CC
:100960000868006820F001000A6810600020F3E7C2
:1009700070B504460CB9012070BD94F8350002280A
:1009800000D1F9E72068006820F0010021680860C4
:10099000002021680860216848602168886021681B
:1009A000C860216808612120216848612046FFF75E
:1009B0000DFF054694F85C103F208840A860002099
:1009C000E06320646064A064E0642065606584F88E
:1009D000350000BF84F8340000BF00BFCCE7000042
:1009E000F8B50446002000908C4800684FF416517A
:1009F000B0FBF1F7A56D2E6894F85C1008208840D4
:100A0000304098B12068006800F0040070B12068A0
:100A1000006820F004002168086094F85C10082049
:100A20008840A860606D40F00100606594F85C103B
:100A300001208840304068B12068406900F08000A3
:100A400040B194F85C1001208840A860606D40F0CF
:100A50000200606594F85C1004208840304068B162
:100A60002068006800F0020040B194F85C10042097
:100A70008840A860606D40F00400606594F85C10E8
:100A800010208840304078B32068006800F00800EB
:100A900050B394F85C1010208840A860206800686B
:100AA00000F4802080B12068006800F4002028B99C
:100AB000206CC8B12046216C884715E0A06C98B125
:100AC0002046A16C88470FE02068006800F4807021
:100AD00028B92068006820F0080021680860206CB0
:100AE00010B12046216C884794F85C102020884083
:100AF0003040002865D02068006800F01000002811
:100B00005FD094F85C1020208840A86094F83500ED
:100B1000052828D12068006820F0160021680860A8
:100B20002068406920F0800021684861206C08B985
:100B3000A06C28B12068006820F0080021680860D7
:100B400094F85C103F208840A86000BF002084F823
:100B5000340000BF012084F83500206D10B120461C
:100B6000216D8847F8BD2068006800F4802080B1BE
:100B70002068006800F4002028B9606C10B120469D
:100B8000616C88471DE0E06BD8B12046E16B884777
:100B900017E02068006800F4807068B92068006879
:100BA00020F010002168086000BF002084F83400A5
:100BB00000BF012084F83500E06B10B12046E16BE6
:100BC0008847606D38B3606D00F00100F0B105201A
:100BD00084F835002068006820F001002168086072
:100BE00000BF0098401C0090B84200D905E0206882
:100BF000006800F001000028F3D100BF00BF002012
:100C000084F8340000BF012084F83500E06C10B196
:100C10002046E16C884700BFA4E700008800002060
:100C20002DE9F0410446002500F098F9074614B973
:100C30000120BDE8F081606A00B100BF00BF002064
:100C400084F8340000BF022084F835002068006872
:100C500020F00100216808600AE000F07FF9C01B65
:100C6000052805D920206065032084F83500E0E7D9
:100C70002068006800F001000028EED120680568B7
:100C800021480540D4E901010843E168084321698E
:100C9000084361690843A1690843E1690843216A7F
:100CA00008430543606A042803D1D4E90B010843D3
:100CB0000543206805602068456925F00705606ADE
:100CC0000543606A04280DD1A06A0543E06A48B173
:100CD0002046FFF795FD28B140206065012084F88B
:100CE0003500A6E7206845612046FFF76FFD064600
:100CF00094F85C103F208840B060002060650120BF
:100D000084F83500002094E73F8010F070B5044669
:100D100000F024F906462546681C10B10448007806
:100D2000054400BF00F01AF9801BA842FAD370BD39
:100D300094000020F8B502460B460021002500244F
:100D4000002000BFE4E0012606FA01F51E6806EA6D
:100D50000504AC4271D15E68012E08D05E68022E97
:100D600005D05E68112E02D05E68122E13D19068F5
:100D70004F000326BE40B0434F00DE68BE40304304
:100D80009060506801268E40B0431E79C6F300166D
:100D90008E4030435060D0684F000326BE40B043C1
:100DA0004F009E68BE403043D0605E68022E02D085
:100DB0005E68122E13D1CF0802F1200656F82700E4
:100DC0004E07F70E0F26BE40B0434F07FF0E1E69B9
:100DD000BE403043CF0802F1200646F827001068D5
:100DE0004F000326BE40B0431E7906F003064F00B5
:100DF000BE40304310605E6806F08056B6F1805FFA
:100E0000A8D100BF444E366846F48046424F3E604B
:100E10003E46366806F48046009600BF00BF3F4E4F
:100E20008F0856F827008E07370F0F26BE40B043B5
:100E30003B4EB24202D100262EE068E0394EB2426B
:100E400001D1012628E0384EB24201D1022623E02A
:100E5000364EB24201D103261EE0354EB24201D1D8
:100E6000042619E0334EB24201D1052614E0324E79
:100E7000B24201D106260FE0304EB24201D1072620
:100E80000AE02F4EB24201D1082605E02D4EB242B3
:100E900001D1092600E00A268F073F0FBE403043EC
:100EA0001E4E8F0846F82700274E3068A0435E6824
:100EB00006F48036B6F5803F00D12043224E3060E4
:100EC000361D3068A0435E6806F40036B6F5003F74
:100ED00000D120431C4E361D3060361D3068A043C3
:100EE0005E6806F48016B6F5801F00D12043164ECA
:100EF00008363060361D3068A0435E6806F4001680
:100F0000B6F5001F00D120430F4E0C363060491C4F
:100F10001029FFF418AFF8BD4438024008380140EA
:100F2000000002400004024000080240000C0240A1
:100F3000001002400014024000180240001C024051
:100F40000020024000240240003C01400246136998
:100F50000B400BB1012000E0002070470148006801
:100F6000704700008C00002003480068034909789E
:100F700008440149086070478C000020940000205C
:100F800010B5032000F0A4F8002000F005F800F0F0
:100F900029F8002010BD000070B504460E48007806
:100FA0004FF47A71B1FBF0F00C490968B1FBF0F530
:100FB000284602F063F808B1012070BD102C07D25A
:100FC00000222146501E00F045F80548046001E06B
:100FD0000120F2E70020F0E79400002088000020C4
:100FE0009000002008B500BF1148006840F0805014
:100FF0000F4908600846006800F08050009000BF6C
:1010000000BF00BF081D006840F48040091D086053
:101010000846006800F48040009000BF00BF002236
:101020001146052000F016F8052000F003F808BD71
:101030004038024001460846002809DB00F01F0343
:1010400001229A4043099B0003F1E023C3F80021E9
:1010500000BF70472DE9F05F80460D461646002719
:1010600005F076FB074639462A46334601F007006D
:10107000C0F1070ABAF1040F02D94FF0040A01E0E7
:10108000C0F1070AD14600F1040ABAF1070F02D2F3
:101090004FF0000A01E0A0F1030AD4464FF0010A24
:1010A0000AFA09FAAAF1010A0AEA020A0AFA0CFA89
:1010B0004FF0010B0BFA0CFBABF1010B0BEA030B2E
:1010C0004AEA0B042146404605F04AFBBDE8F09F82
:1010D00000BF00F00702064B19684FF6FF031940E6
:1010E000044B0B4343EA0221014B196000BF7047D8
:1010F0000CED00E00000FA0501460A680120C1F885
:10110000FC03002081F8F403906940F000609061D6
:10111000506D024B184350650020704703000010CB
:1011200070B504460D4615B1012D2CD116E0206A8C
:1011300038B103F035F91548006820F0060013496E
:1011400008602068D0F8000E20F001002168C1F886
:10115000000ED4F8000404F020F814E02068D0F861
:10116000000E40F001002168C1F8000ED4F8000420
:1011700004F0A3F8206A28B10448006840F0060093
:101180000249086000BF00BF70BD000010ED00E024
:1011900002461068416200207047F0B503461546CC
:1011A0001868446A21B944EA05401E68B06219E033
:1011B0001868806A04EB1044002208E0186800F503
:1011C000827050F8220004EB1044501CC2B2481E3A
:1011D0009042F3D844EA0547186800F582704E1E25
:1011E00040F826700020F0BD10B50446D4F8000485
:1011F00003F0FCFE10BD70B504460D46C5EBC503FB
:1012000004F13C0101EB8301CA682946D4F80004CB
:1012100003F030FE70BD70B504460D46C5EBC50346
:1012200004F5FE7101EB8301CA682946D4F8000475
:1012300003F093FE70BD10B50446D4F8000403F02B
:10124000D8FE10BD70B504460E4606F0800080281A
:101250000AD106F00F00C0EBC00104F13C0000EB26
:1012600081050120687009E006F00F00C0EBC001A5
:1012700004F5FE7000EB81050020687006F00F0099
:10128000287000BF94F8BC03012801D1022070BD72
:10129000012084F8BC0300BF2946206804F0B4FB99
:1012A00000BF002084F8BC0300BF00BFEFE770B5AB
:1012B00004460E4606F00F006168884201D90120FD
:1012C00070BD06F0800080280AD106F00F00C0EB48
:1012D000C00104F13C0000EB81050120687009E0C9
:1012E00006F00F00C0EBC00104F5FE7000EB8105B5
:1012F000002068700020A87006F00F00287000BF62
:1013000094F8BC03012801D10220D9E7012084F818
:10131000BC0300BF2946206804F064FE00BF002023
:1013200084F8BC0300BF00BFCAE7024601F00F000B
:10133000C0EBC00302F5FE7000EB830080697047CC
:101340002DE9F04705460E4690461F464FF000092E
:1013500006F0800080280AD106F00F00C0EBC00123
:1013600005F13C0000EB81040120607009E006F00B
:101370000F00C0EBC00105F5FE7000EB81040020FA
:10138000607006F00F002070C4F80880E770607885
:1013900008B12078E080022F01D10020207100BF29
:1013A00095F8BC03012802D10220BDE8F087012096
:1013B00085F8BC0300BF2146286804F047FA00BF47
:1013C000002085F8BC0300BF4846EEE72DE9F04158
:1013D00004460E461746984606F00F00C0EBC001C3
:1013E00004F5FE7000EB8105EF60C5F81480002065
:1013F000A861687006F00F0028702069012800D1EC
:101400002F6106F00F0028B9227C2946206804F0DD
:10141000C5FC04E0227C2946206804F077FE002009
:10142000BDE8F08170B504460D4605F00F00616817
:10143000884201D9012070BD05F0800080280AD1C2
:1014400005F00F00C0EBC00104F13C0000EB810689
:101450000120707007E0C5EBC50104F5FE7000EBDC
:101460008106002070700120B07005F00F00307010
:1014700000BF94F8BC03012801D10220DBE7012062
:1014800084F8BC0300BF3146206804F0F2FD05F08B
:101490000F0028B9217C04F57172206804F06AFD00
:1014A00000BF002084F8BC0300BF00BFC3E72DE9E4
:1014B000F04104460E461746984606F00F00C0EB72
:1014C000C00104F13C0000EB8105EF60C5F8148019
:1014D0000020A8610120687006F00F0028702069C4
:1014E000012800D12F6106F00F0028B9227C29467F
:1014F000206804F053FC04E0227C2946206804F0B4
:1015000005FE0020BDE8F0812DE9FE4F044620686D
:101510000290029D206804F0E4FF00287DD120683D
:1015200005F01EF808B9BDE8FE8F206805F018F830
:1015300000F00200022805D12068406900F0020096
:1015400021684861206805F00BF800F010001028B1
:1015500046D12068806920F01000216888610298D7
:10156000D0F8209009F00F00C0EBC00104F5FE7028
:1015700000EB810BC9F3434002281AD147F6F07003
:1015800009EA000030B3C9F30A12DBF80C10029824
:1015900004F0EBFFC9F30A11DBF80C000844CBF8A8
:1015A0000C00C9F30A11DBF818000844CBF8180046
:1015B00010E0C9F3434006280CD1082204F57171EC
:1015C000029804F0D2FFC9F30A11DBF818000844AE
:1015D000CBF818002068806940F01000216888610D
:1015E000206804F0BDFF00F40020B0F5002F52D1B8
:1015F0000026206804F084FF824649E00AF00100DA
:10160000E8B3F1B2206804F09EFF804608F00100C4
:1016100058B1012105F5306000E043E200EB4610CF
:1016200081603146204601F0D3FD08F0080008280B
:1016300009D1082105F5306000EB46108160314684
:10164000204601F093FD08F01000102805D110216C
:1016500005F5306000EB4610816008F0200020287E
:1016600005D1202105F5306000EB4610816008F4BB
:101670000050B0F5005F08D14FF4005100E004E0E5
:1016800005F5306000EB46108160761C4FEA5A0A7F
:10169000BAF1000FB2D1206804F062FF00F480209C
:1016A000B0F5802F7ED1206804F020FF824600260E
:1016B00083E00AF0010000287CD0F1B2206804F039
:1016C00029FF804608F00100F0B306F00F01012069
:1016D0008840019040F634004159019821EA000009
:1016E00040F634014851012105F5106000EB461029
:1016F00081602069012824D1C6EBC60104F13C00B9
:1017000000EB8100C6EBC602C16804F13C0000EBAF
:10171000820080680144C6EBC60204F13C0000EB85
:101720008200C1606EB9C6EBC60104F13C0000EB5B
:101730008100406928B904F571720121206804F024
:1017400019FCF1B2204600E001E0FFF754FD08F07B
:101750000800082805D1082105F5106000EB4610A7
:10176000816008F01000102805D1102105F51060E7
:1017700000EB4610816008F04000402805D1402170
:1017800005F5106000EB4610816008F002000228A9
:1017900005D1022105F5106000EB4610816008F0CC
:1017A000800001E00DE005E0802803D131462046AD
:1017B00001F0CCFD761C4FEA5A0ABAF1000F7FF413
:1017C00078AF206804F0CCFE00F00040B0F1004F8C
:1017D0001CD140F60400405920F0010140F60400FD
:1017E000415194F8F403012807D1002084F8F40350
:1017F00000212046FFF794FC02E0204600F07EFA2C
:101800002068406900F0004021684861206804F0C9
:10181000A7FE00F40060B0F5006F0ED140F608009E
:10182000405900F0010010B1204600F0B3FA2068E2
:10183000406900F4006021684861206804F090FE6F
:1018400000F00060B0F1006F19D12068406900F02D
:1018500000602168486194F8F40368B9012084F8B5
:10186000F4032068406DC0F38300C4F8F80301213D
:101870002046FFF755FC02E0204600F08BFA206876
:1018800004F06EFE00F48050B0F5805F7DD140F62C
:101890000400405920F0010140F60400415110219C
:1018A000206804F0F3FD00273EE04FF67F3105F598
:1018B000106000EB4710816005F5106000EB4710E9
:1018C000006820F4001105F5106000EB471001607E
:1018D00005F5106000EB4710006840F0006105F569
:1018E000106000EB471001604FF67F3105F5306066
:1018F00000EB4710816005F5306000EB4710006891
:1019000020F4001105F5306000EB4710016005F58B
:10191000306000EB4710006840F0006105F5306072
:1019200000EB471001607F1C6068B842BDD840F6EC
:101930001C00405940F0011140F61C004151206B41
:1019400070B1D5F8840840F00B01C5F8841840F652
:101950004400405940F00B0140F6440041510FE073
:1019600040F61400405942F22B01084340F614019E
:101970004851081F405940F00B014FF4016041519C
:10198000D5F8000820F4FE6000E00DE0C5F800087E
:10199000217C04F57172206804F0ECFA206840693B
:1019A00000F4805021684861206804F0D9FD00F4FB
:1019B0000050B0F5005F17D1206803F0AFFF20683A
:1019C00004F07CFDE06000F01BFB0090227B2068AF
:1019D000009904F015FE204600F078F9206840696F
:1019E00000F4005021684861206804F0B9FD00F05F
:1019F0000800082808D1204600F087F920684069CF
:101A000000F0080021684861206804F0A9FD00F496
:101A10008010B0F5801F0AD100263146204600F024
:101A200043F82068406900F480102168486120680C
:101A300004F096FD00F40010B0F5001F0AD1002656
:101A40003146204600F039F82068406900F4001063
:101A500021684861206804F083FD00F08040B0F107
:101A6000804F08D12046FFF7BFFB2068406900F097
:101A7000804021684861206804F072FD00F0040095
:101A800004280FD12068D0F8049009F0040004283D
:101A900002D12046FFF7CFFB2068406840EA0900EA
:101AA0002168486000BF3EE570B504460D462946F2
:101AB000D4F8000403F00EFB70BD70B504460D466B
:101AC0002946D4F8000403F008FB70BD70B58AB055
:101AD000044614B901200AB070BD266894F8BD030D
:101AE00028B9002084F8BC03204600F0A9F80320A0
:101AF00084F8BD03F06B00F4807008B90021216107
:101B0000206804F043F9282204F110016846FEF72A
:101B1000A8FB94E80F0003F015FF20B1022084F821
:101B2000BD030120D7E70021206804F02FFD002528
:101B300031E00121C5EBC50204F13C0000EB82005D
:101B40004170C5EBC50104F13C0000F82150C5EB24
:101B5000C50100EB8100C5800021C5EBC50204F181
:101B60003C0000EB8200C170C5EBC50204F13C00F3
:101B700000EB82008160C5EBC50204F13C0000EB84
:101B80008200C160C5EBC50204F13C0000EB82009D
:101B90004161681CC5B26068A842CAD800252AE025
:101BA0000021C5EBC50204F5FE7000EB8200417018
:101BB000C5EBC50104F5FE7000F821500021C5EB0E
:101BC000C50200EB8200C170C5EBC50204F5FE70D2
:101BD00000EB82008160C5EBC50204F5FE7000EBEE
:101BE0008200C160C5EBC50204F5FE7000EB820007
:101BF0004161681CC5B26068A842D1D8282204F1AE
:101C000010016846FEF72DFB94E80F0003F0C2FFB9
:101C100020B1022084F8BD0301205CE7002084F895
:101C20003800012084F8BD03606A012802D12046F3
:101C3000FFF762FA206803F09DFF00204BE70000E9
:101C400010B586B00446142101A8FEF723FB1C49F9
:101C50002068884232D100BF1A48006840F0020074
:101C6000184908600846006800F00200009000BFB4
:101C700000BF4FF4404001900220029000200390EA
:101C8000032004900C20059001A90F48FFF752F89B
:101C900000BF0C48006840F000500A490860084640
:101CA000006800F00050009000BF00BF0022114605
:101CB0004D20FFF7CFF94D20FFF7BCF906B010BD5E
:101CC00000000440303802400004024070B5044671
:101CD0000125E06808B9002506E0E068022801D186
:101CE000012501E0FEF7E2FD2946D4F8000403F0E7
:101CF00070FAD4F8000403F023FA70BD10B504465E
:101D0000D4F8000403F049FA10BD10B50446D4F825
:101D1000000403F04DFA10BD70B504460D4600BF37
:101D200094F8BC03012801D1022070BD012084F881
:101D3000BC0300BF84F838502946206804F041FCF9
:101D400000BF002084F8BC0300BF00BFEDE710B562
:101D5000044604F57171D4F8000403F051FA10BD83
:101D600010B5044600BF94F8BC03012801D102203D
:101D700010BD012084F8BC0300BF206803F0EAFE18
:101D8000206804F065FB00BF002084F8BC0300BF9E
:101D900000BFEDE710B50446D4F8000403F08DFA57
:101DA0002068D0F8000E40F001002168C1F8000E54
:101DB000206A28B10348006840F006000149086025
:101DC00010BD000010ED00E038B5002400BF204831
:101DD000006840F080501E4908600846006800F026
:101DE0008050009000BF00BF1A48006840F4803067
:101DF00018490860FFF7B2F8044607E0FFF7AEF8AD
:101E0000001BB0F57A7F01D9032038BD1148406826
:101E100000F48030B0F5803FF0D10E48006840F407
:101E200000300C490860FFF799F8044607E0FFF717
:101E300095F8001BB0F57A7F01D90320E5E7054846
:101E4000406800F40030B0F5003FF0D10020DCE73E
:101E500040380240007000400348006840F4807041
:101E600001490860704700000070004070B50446EA
:101E70000D4600260CB9012070BD5C48006800F0DA
:101E80000F00A8420ED25948006820F00F002843E6
:101E9000564908600846006800F00F00A84201D0CB
:101EA0000120E9E7207800F0020002281DD1207807
:101EB00000F00400042805D14D48006840F4E050CB
:101EC0004B490860207800F00800082805D14848F0
:101ED000006840F46040464908604548006820F0CA
:101EE000F000A168084342490860207800F0010032
:101EF00090B36068012807D13D4808380068C0F3F6
:101F00004040A0B90120B7E76068022807D13848EF
:101F100008380068C0F3406048B90120ACE7344895
:101F200008380068C0F3400008B90120A4E7304831
:101F3000006820F00300616808432D490860FFF73E
:101F40000DF8064609E0FFF709F8801B41F28831D9
:101F5000884202D903208FE707E02548006800F097
:101F60000C006168B0EB810FEDD12048006800F0F3
:101F70000F00A8420ED91D48006820F00F0028432A
:101F80001A4908600846006800F00F00A84201D016
:101F9000012071E7207800F00400042807D11448DC
:101FA000006820F4E050E168084311490860207897
:101FB00000F00800082808D10D48006820F46040AF
:101FC000216940EAC1000A49086000F01FF8084989
:101FD0000968C1F30311074A515CC840064908600B
:101FE00006480068FEF7D8FF002045E7003C0240A5
:101FF00008380240EE800008880000209000002091
:102000000148006870470000880000202DE9F04773
:10201000002400250026A1462548006800F00C0099
:1020200020B1042805D008283AD105E0DFF88490D3
:1020300039E0DFF8849036E01D48001F006800F0AA
:102040003F041B48001F006800F4800078B11A4864
:102050001749091F0968C1F38811A0FB01700146E7
:10206000224600233846FEF7CBF805460EE011481D
:102070000F49091F0968C1F38811A0FB01700146CF
:10208000224600233846FEF7BBF805460848001FE5
:102090000068C0F30140401C4600B5FBF6F902E0C1
:1020A000DFF8109000BF00BF4846BDE8F087000091
:1020B000083802400024F40000366E01F8B50446EA
:1020C00000270CB90120F8BD207800F0010000289D
:1020D00071D0F948006800F00C0004280DD0F648D3
:1020E000006800F00C00082813D1F348001F0068B6
:1020F00000F48000B0F5800F0BD1EF48083800687D
:10210000C0F34040002869D06068002866D10120F3
:10211000D9E700BF6068B0F5803F08D1E6480838CD
:10212000006840F48030E449083908602EE06068B7
:1021300068B9E1480838006820F48030DE49083981
:1021400008600846006820F4802008601EE060688F
:10215000B0F5A02F0DD1D8480838006840F4802091
:10216000D549083908600846006840F480300860A6
:102170000CE0D1480838006820F48030CE49083996
:1021800008600846006820F48020086000BF60688E
:1021900090B1FEF7E3FE054606E0FEF7DFFE401BCA
:1021A000642801D903208EE7C34808380068C0F3CB
:1021B00040400028F1D011E0FEF7D0FE054606E0D1
:1021C000FEF7CCFE401B642801D903207BE7BA4808
:1021D00008380068C0F340400028F1D1207800F0B2
:1021E0000200022869D1B448006800F00C0058B120
:1021F000B148006800F00C0008281CD1AE48001F50
:10220000006800F48000B0B9AB4808380068C0F33B
:10221000400020B1E068012801D0012053E7A64822
:102220000838006820F0F800216940EAC100A2499E
:102230000839086041E0E06828B39F480838006822
:1022400040F001009C4908390860FEF787FE05460A
:1022500006E0FEF783FE401B022801D9032032E787
:10226000954808380068C0F340000028F1D0924833
:102270000838006820F0F800216940EAC1008E4962
:102280000839086019E08C480838006820F001001F
:10229000894908390860FEF761FE054606E0FEF749
:1022A0005DFE401B022801D903200CE78248083854
:1022B0000068C0F340000028F1D1207800F0080049
:1022C000082836D16069D0B17B486C30006840F096
:1022D000010079496C310860FEF740FE054606E0D2
:1022E000FEF73CFE401B022801D90320EBE67248B2
:1022F0006C300068C0F340000028F1D019E06E484F
:102300006C30006820F001006B496C310860FEF70A
:1023100025FE054606E0FEF721FE401B022801D9F6
:102320000320D0E664486C300068C0F34000002809
:10233000F1D1207800F00400042874D15E483830D0
:10234000006800F0805080B900BF5B4838300068FA
:1023500040F080505849383108600846006800F065
:102360008050009000BF00BF01275448006800F46F
:102370008070B0B95148006840F480704F490860DF
:10238000FEF7ECFD054606E0FEF7E8FD401B64287D
:1023900001D9032097E64948006800F480700028BE
:1023A000F2D000BFA068012808D143486830006817
:1023B00040F001004049683108602DE0A06868B92C
:1023C0003D486830006820F001003B4968310860F2
:1023D0000846006820F0040008601DE0A068052899
:1023E0000DD135486830006840F00400324968314A
:1023F00008600846006840F0010008600CE02E48C4
:102400006830006820F001002B49683108600846F8
:10241000006820F00400086000BFA068A8B1FEF7C3
:102420009DFD054609E02EE0FEF798FD401B41F2B8
:102430008831884201D9032045E61F48683000688A
:10244000C0F340000028EFD013E0FEF787FD0546FB
:1024500008E0FEF783FD401B41F28831884201D934
:10246000032030E6144868300068C0F340000028BC
:10247000EFD1012F07D110483830006820F080508C
:102480000D4938310860A069002852D00A48006818
:1024900000F00C00082865D0A06902284AD106483F
:1024A0000838006820F08070034908390860FEF79A
:1024B00055FD05460BE00000083802400070004062
:1024C000FEF74CFD401B022801D90320FBE53B48E9
:1024D0000068C0F340600028F2D1E06940F000508D
:1024E000216A0843616A40EA81110122A06AC2EBB5
:1024F000500041EA00412C20005D41EA00602F4974
:10250000091D0860081F006840F08070091F0860FE
:10251000FEF724FD054606E0FEF720FD401B0228DD
:1025200001D90320CFE525480068C0F340600028AA
:10253000F2D040E02148006820F080701F49086018
:10254000FEF70CFD054606E0FEF708FD401B0228DD
:1025500001D90320B7E519480068C0F3406000289E
:10256000F2D128E01548001D0668A069012820D096
:1025700006F48001E06981421BD106F03F01206A28
:10258000814216D147F6C0703040616AB0EB811FBE
:102590000FD106F440310122A06AC2EB5000B1EB2A
:1025A000004F06D106F070612C20005DB1EB006F8A
:1025B00001D0012087E5002085E5000000380240B9
:1025C00010B50446FDF762FF10BD000070B58AB07B
:1025D00004460D46032084F83400606C032820D0A4
:1025E000B5F5805F04D1A06B40F08050A0631CE083
:1025F000B5F5006F07D1204601F0A7FD0646A06B98
:102600003043A06311E03DB9204601F06AFD064663
:10261000A06B3043A06308E0A06B40F00060A063B3
:1026200003E0A06B40F08050A063A06B38B110486D
:1026300021688863012084F834000AB070BD6068A6
:102640000490A0680590E06806900795606908907E
:10265000A069099007A807C88DE80700206804A9A9
:102660000EC901F0E2FA012084F834000020E4E70A
:10267000FF0540007047000010B50246506E800F05
:102680000870506EC0F383604870506EC0F30160F4
:102690008870506E000CC870B2F86400000A0871AF
:1026A00092F864004871906E000DC880906EC0F37F
:1026B000034008726820805AC0F3C0304872682016
:1026C000805AC0F3803088726820805AC0F340304E
:1026D000C8726820805AC0F3003008730020487325
:1026E000506C002836D16820805A8005030DD06ECA
:1026F00043EA90700861D06EC0F3C2600875D06E76
:10270000C0F302604875D06EC0F342508875D06E39
:10271000C0F38240C875D06EC0F3C2300876086935
:10272000401C50650B7E506D03F007039B1C012479
:102730009C4060435065087A00F00F0301209840E8
:102740009065D2E915035B0A5843D0654FF40073D6
:10275000136621E0506C012813D16820805C80064C
:10276000830AD06E43EA104008610869401C830266
:102770005365536DD3654FF400739365936D136682
:102780000AE02E4813689863906B40F08050906385
:10279000012082F8340010BD6C20805AC0F38030D4
:1027A00001F8190F6C20805AC0F3C61048706C20D5
:1027B000805C00F07F008870106FC00FC870106FD1
:1027C000C0F341700871106FC0F382604871106FE0
:1027D000C0F383508871106FC0F34050C87100205F
:1027E0000872106FC0F3004048727020805AC0F326
:1027F000C03088727020805AC0F38030C872702058
:10280000805AC0F3403008737020805AC0F3003003
:1028100048737020805AC0F3812088737020805ADA
:10282000C0F30120C8737020805CC0F346000874B8
:102830000120487419390020ADE70000FF05400071
:102840000246506C0860906C4860D06C8860106DD7
:10285000C860506D0861906D4861D06D8861106EE0
:10286000C86100207047F8B5044600200090694612
:10287000204601F01EFC054615B1A06B2843A0635D
:102880000098C0F343263046F8BD000070B50446FA
:10289000256B2068406BC0F3C03030B105F00800F4
:1028A00018B1204601F0E0FBEDE02068406BC0F37A
:1028B0000020002862D04FF480702168886320686F
:1028C000C06B4CF23A1188432168C8632068C06A23
:1028D00020F001002168C86205F0080038B305F057
:1028E000020010B905F0200050B1206800F03CFF54
:1028F00006462EB1A06B3043A0632046FFF7BAFE18
:1029000040F23A5021688863012084F834000020A6
:10291000206305F0010010B905F0020018B120464F
:1029200000F07AFAAFE0204600F07BFAABE005F069
:1029300080000028B8D005F0200050B1206800F0D9
:1029400013FF06462EB1A06B3043A0632046FFF76D
:1029500091FE05F001000028A6D105F00200002834
:10296000A2D12068C06A20F008002168C862012056
:1029700084F83400204600F054FA84E02068406B6C
:10298000C0F3803030B105F0080018B1204601F0E6
:1029900010FC78E02068406B00F03A0008B101209C
:1029A00000E0002000286ED02068406BC0F340009B
:1029B00018B1A06B40F00200A0632068406BC0F328
:1029C000C00018B1A06B40F00800A0632068406B05
:1029D000C0F3401018B1A06B40F02000A063206845
:1029E000406BC0F3001018B1A06B40F01000A06362
:1029F00040F23A50216888632068C06B20F49D70D3
:102A00002168C863206800F0AFFEA16B0843A06393
:102A100005F0080040B1012084F834000020206354
:102A20002046FFF727FE2EE005F0800000B305F0FA
:102A3000100010B905F0200050B11348E16B086593
:102A4000E06BFDF781FF98B1E06B01F067F91AE0E8
:102A500005F0010010B905F0020050B10B48216CDF
:102A60000865206CFDF770FF10B1206C01F032F9A1
:102A700009E00020A063012084F8340000202063D6
:102A80002046FFF79DFD70BD1D3D0008D53C0008A8
:102A900010B504460CB9012010BD94F8340020B9DB
:102AA00000202077204600F055F8032084F83400F9
:102AB000204600F00BF808B10120EDE70020A063EC
:102AC0002063012084F834000020E5E770B58AB067
:102AD0000446002004900590069007900890762008
:102AE000099007A807C88DE80700206804A90EC947
:102AF00001F09BF8064616B101200AB070BD2068AF
:102B0000406820F4807021684860206801F0A7F8D0
:102B10002068406840F4807021684860204601F0D9
:102B20003DFA05463DB1012084F83400A06B2843EE
:102B3000A0630120E1E7204601F0AEF905463DB172
:102B4000012084F83400A06B2843A0630120D4E75F
:102B50000020D2E7704700002DE9FF4F89B00446FE
:102B60008B469946DDF858A0FEF7F8F902900B98CD
:102B700000905D46BBF1000F07D1A06B40F00060F4
:102B8000A06301200DB0BDE8F08F94F83400012857
:102B90007ED10020A063009800EB0901E06D814226
:102BA00005D9A06B40F00070A0630120EAE7032084
:102BB00084F8340000202168C862606C012802D0CB
:102BC0000098400200904FF40071206800F088FCEB
:102BD0008046B8F1000F0AD08E4821688863A06B48
:102BE00040EA0800A063012084F83400CAE74FF0EF
:102BF000FF3003904FEA4920049090200590022076
:102C00000690002007900120089003A9206800F09A
:102C100001FEB9F1010F07D9022020632068009955
:102C200000F0C6FC804606E0012020632068009981
:102C300000F0DAFC8046B8F1000F0DD0754821682D
:102C40008863A06B40EA0800A063012084F8340088
:102C500000202063012095E7049E3AE02068406B45
:102C600000F40040F0B1EEB10020019017E02068C0
:102C700000F0FEFF07462F706D1C761E380A287084
:102C80006D1C761E380C28706D1C761E380E00E008
:102C9000B9E028706D1C761E0198401C01900198C7
:102CA0000828E4D3FEF75AF90299401A504502D297
:102CB000BAF1000F0DD1574821688863A06B40F02E
:102CC0000040A063012084F834000020206303202A
:102CD00058E72068406B00F495700028BED020684B
:102CE000406B00F48070D0B1B9F1010F17D9606C5E
:102CF000032814D0206800F037FD8046B8F1000F9B
:102D00000DD0444821688863A06B40EA0800A063A6
:102D1000012084F8340000202063012032E720687D
:102D2000406B00F0080068B13A4821688863A06BE6
:102D300040F00800A063012084F8340000202063E4
:102D400001201FE72068406B00F0020068B13148A5
:102D500021688863A06B40F00200A063012084F822
:102D600034000020206301200CE72068406B00F055
:102D7000200068B1274821688863A06B40F02000DC
:102D8000A063012084F83400002020630120F9E6CC
:102D900029E0206800F06CFF07462F706D1C761E3E
:102DA000380A28706D1C761E380C28706D1C761E33
:102DB000380E28706D1C761EFEF7D0F80299401A66
:102DC000504502D2BAF1000F0DD112482168886334
:102DD000A06B40F00040A063012084F83400002084
:102DE00020630120CEE62068406B00F4001008B19B
:102DF000002ECED140F23A5021688863012084F839
:102E000034000020BEE6A06B40F00050A06301201B
:102E1000B8E60000FF05400010B50446FDF760FC71
:102E200010BD10B50446FDF771FC10BD2DE9F04F43
:102E300089B00446894693469846FEF78FF802907B
:102E4000DA464E46B9F1000F07D1A06B40F00060A2
:102E5000A063012009B0BDE8F08F94F83400012888
:102E60007ED10020A0630AEB0801E06D814205D904
:102E7000A06B40F00070A0630120EBE7032084F812
:102E8000340000202168C862606C012801D04FEA3C
:102E90004A2A4FF40071206800F022FB05464DB12C
:102EA000754821688863A06B2843A063012084F8DB
:102EB0003400CFE74FF0FF3003904FEA48200490F2
:102EC000902005900020069007900120089003A90B
:102ED000206800F09FFCB8F1010F07D92020206383
:102EE0005146206800F05EFC054606E01020206395
:102EF0005146206800F072FC054665B15E482168C5
:102F00008863A06B2843A063012084F8340000206C
:102F1000206301209EE7049F43E02068406B00F49B
:102F2000804040B33FB30020019021E03078009012
:102F3000761C7F1E3078009941EA00200090761CB4
:102F40007F1E3078009941EA00400090761C7F1E79
:102F50003078009941EA00600090761C7F1E00E006
:102F600084E06946206800F09BFE0198401C0190B7
:102F700001980828DAD3FDF7F1FF0299411A129857
:102F8000814201D2129860B93B4821688863A06BE6
:102F90002843A063012084F834000020206303202C
:102FA00058E72068406B00F48D700028B5D0206889
:102FB000406B00F48070B8B1B8F1010F14D9606CA7
:102FC000032811D0206800F0CFFB054665B12A48E0
:102FD00021688863A06B2843A063012084F8340033
:102FE00000202063012035E72068406B00F00800D6
:102FF00068B1214821688863A06B40F00800A06395
:10300000012084F8340000202063012022E720689A
:10301000406B00F0020068B1174821688863A06B1C
:1030200040F00200A063012084F8340000202063F7
:1030300001200FE72068406B00F0100068B10E48D7
:1030400021688863A06B40F01000A063012084F821
:103050003400002020630120FCE640F23A50216851
:103060008863012084F834000020F3E6A06B40F070
:103070000050A0630120EDE6FF05400070B5044656
:103080002546681EB0F1807F01D301200FE0681E45
:103090004FF0E02148610F214FF0FF3003F060FB5B
:1030A00000204FF0E021886107200861002070BDFA
:1030B0000AE014F0040F00D100BF00D000BF00BF31
:1030C00000F0A2F900BE00BFF3E730B50B460021C7
:1030D00000BF16E00A24B4EB107F05D9302404EBBE
:1030E000107403F8114005E0412404EB10740A3C0D
:1030F00003F81140000100254C00641C1D554C1CB8
:10310000E1B29142E6DB30BD10B501220D490E4817
:1031100001F068FE08B1FDF7C9FB0C490A4802F04E
:1031200009F908B1FDF7C2FB0949074801F0E7FAC0
:1031300008B1FDF7BBFB044802F0DAF908B1FDF76E
:10314000B5FB10BD1400002050040020AC0000208E
:103150007400002000BFFEE77047000010B5024871
:10316000FEF7D2F910BD0000200700202DE9F0473E
:1031700004460D4626683746D6F8408007F530608D
:1031800000EB4510D0F80890104880450BD909F4A1
:103190000040B0F5004F06D14FF4004107F5306014
:1031A00000EB451081602046FEF7D1FD07488045C1
:1031B00008D92069012805D104F571720121206820
:1031C00002F0D8FE0020BDE8F08700000A30544F1E
:1031D0002DE9F04705460C46D5F800804646D8F85C
:1031E000409006F5306000EB44108768286901289C
:1031F00073D107F0080008280FD1524881450BD938
:1032000007F40040B0F5004F06D14FF4004106F539
:10321000306000EB4410816091E007F0200020282E
:1032200006D1202106F5306000EB4410816086E075
:1032300007F0280000280ED1424881450CD907F438
:103240000040B0F5004F07D14FF4004106F5306063
:1032500000EB4410816072E0C4EBC40105F5FE7020
:1032600000EB8100816806F5306000EB44100069D6
:10327000C0F31200091AC4EBC40205F5FE7000EB9E
:1032800082008161C4EBC40105F5FE7000EB810092
:10329000C4EBC402C16805F5FE7000EB82008068D3
:1032A0000144C4EBC40205F5FE7000EB8200C1606E
:1032B0006CB9C4EBC40105F5FE7000EB81004069F8
:1032C00028B905F571720121286802F053FEE1B2B8
:1032D0002846FDF7A0FF32E0FFE71B4881451BD1E0
:1032E00007F40040B0F5004F07D14FF4004106F558
:1032F000306000EB4410816021E007F020002028BE
:1033000005D1202106F5306000EB44108160E1B268
:103310002846FDF780FF12E06CB9C4EBC40105F547
:10332000FE7000EB8100406928B905F5717200213B
:10333000286802F01FFEE1B22846FDF76CFF00206E
:10334000BDE8F0870A30544F0A31544F2DE9F84F49
:1033500007460E46D7F80090C846C6EBC60107F1EF
:103360003C0000EB8104D4E90510884202D9012019
:10337000BDE8F88FD4E90501451AA068A84200D23B
:10338000A568E81C4FEA900A17E0D4E90501451A40
:10339000A068A84200D2A568E81C4FEA900A387CD1
:1033A000ABB2F2B200904846E16803F09DF9E068E4
:1033B0002844E060A0692844A06108F5106000EB93
:1033C0004610806980B2504506D3D4E90510884282
:1033D00002D260690028D8D1D4E9050188420ED80C
:1033E00006F00F01012000FA01FB40F6340050F80E
:1033F000080020EA0B0040F6340141F808000020E4
:10340000B6E7704700BE70478DB002680C92426804
:103410000B9282680A92C268099202690892426914
:10342000079282690692C26905920B4A1268049259
:10343000094A121F12680392074A08321268029260
:10344000054A0C3212680192034A10321268009247
:1034500000BE0DB0704700002CED00E010B5024832
:10346000FFF714FA10BD0000181E002070B586B0DA
:1034700005460C460194372002904020039000201E
:1034800004904FF48060059001A9284600F0F4FBF9
:1034900041F288323721284600F0F2F906463046DC
:1034A00006B070BD70B586B005460C460B4820438B
:1034B00001902920029040200390002004904FF4B6
:1034C0008060059001A9284600F0D6FB284600F050
:1034D000DFFA0646304606B070BD000000001080DE
:1034E00070B586B005460C4601941020029040202D
:1034F0000390002004904FF48060059001A92846B5
:1035000000F0BAFB41F288321021284600F0B8F9E9
:103510000646304606B070BD70B586B005460C460E
:1035200001940620029040200390002004904FF464
:103530008060059001A9284600F09EFB41F2883288
:103540000621284600F09CF90646304606B070BDBC
:1035500030B585B0044600200090019002900390A1
:103560004FF4806004906946204600F085FB2046B9
:1035700000F066F90546284605B030BD30B585B087
:1035800004464FF4D570009008200190402002902E
:10359000002003904FF4806004906946204600F0BC
:1035A0006BFB204600F0FCFA0546284605B030BD0E
:1035B00070B586B005460C4601941220029040205A
:1035C0000390002004904FF48060059001A92846E4
:1035D00000F052FB41F288321221284600F050F9E7
:1035E0000646304606B070BD70B586B005460C463E
:1035F00001941120029040200390002004904FF489
:103600008060059001A9284600F036FB41F288321F
:103610001121284600F034F90646304606B070BD48
:10362000F0B585B0064614461D460094072001906B
:1036300040200290002003904FF48060049069467F
:10364000304600F019FB41F288320721304600F085
:1036500017F90746384605B0F0BD30B585B00446C9
:103660000020009002200190C020029000200390D2
:103670004FF4806004906946204600F0FDFA204631
:1036800000F0D4F90546284605B030BD70B586B0C7
:1036900005460C46019409200290C02003900020AA
:1036A00004904FF48060059001A9284600F0E4FAE8
:1036B000284600F0BBF90646304606B070BD30B56E
:1036C00085B00446002000903320019040200290F5
:1036D000002003904FF4806004906946204600F07B
:1036E000CBFA41F288323321204600F0C9F8054672
:1036F000284605B030BD70B586B005460C4601942D
:103700000D20029040200390002004904FF4806030
:10371000059001A9284600F0AFFA41F288320D2148
:10372000284600F0ADF80646304606B070BD70B5CC
:1037300086B005460C4600200190032002904020F0
:103740000390002004904FF48060059001A9284662
:1037500000F092FA22460321284600F0C5F90646F9
:10376000304606B070BD000030B585B0044600207C
:1037700000900C20019040200290002003904FF414
:10378000806004906946204600F076FA044A0C21D5
:10379000204600F075F80546284605B030BD00000B
:1037A00000E1F50570B586B005460C460194192078
:1037B000029040200390002004904FF48060059018
:1037C00001A9284600F058FA41F28832192128460A
:1037D00000F056F80646304606B070BD70B586B0AB
:1037E00005460C46019418200290402003900020CA
:1037F00004904FF48060059001A9284600F03CFA3F
:1038000041F288321821284600F03AF80646304640
:1038100006B070BD10B502460023086850624868C3
:103820009062D1E9020420430C6920434C69204393
:103830000343D06A20F0F7001843D062002010BD87
:1038400001460E480068C0084FF47A73B0FBF3F0ED
:1038500041F2883300FB03F200BF101EA2F1010207
:1038600002D14FF000407047486B00F08000002804
:10387000F3D0C52088630020F5E700008800002011
:103880002DE9F04305460F46904666480068C0089B
:103890004FF47A71B0FBF1F000FB08F900BFB9F109
:1038A0000000A9F1010903D14FF00040BDE8F08309
:1038B0006E6B06F045000028F1D006F40060002889
:1038C000EDD1686B00F0040010B10420A863EDE7AF
:1038D000686B00F0010010B10120A863E6E7C52085
:1038E000A863284600F092F9B84201D00120DDE734
:1038F0000021284600F093F904464B48204008B9BF
:103900000020D3E704F00040B0F1004F02D14FF0A7
:103910000070CBE704F08040B0F1804F01D140202F
:10392000C4E704F00050B0F1005F01D18020BDE792
:1039300004F08050B0F1805F02D14FF48070B5E7A1
:1039400004F00060B0F1006F02D14FF40070ADE7F9
:1039500004F08060B0F1806F02D14FF48060A5E781
:1039600004F08070B0F1807F02D14FF400609DE7D9
:1039700004F40000B0F5000F02D14FF4805095E739
:1039800004F48000B0F5800F02D14FF400508DE7B1
:1039900004F40010B0F5001F02D14FF4804085E719
:1039A00004F48010B0F5801F02D14FF400407DE791
:1039B00004F48020B0F5802F02D14FF4003075E779
:1039C00004F40030B0F5003F02D14FF480206DE7E1
:1039D00004F48030B0F5803F02D14FF4002065E759
:1039E00004F40040B0F5004F02D14FF480105DE7C1
:1039F00004F48040B0F5804F02D14FF4001055E739
:103A000004F40050B0F5005F02D14FF480004DE7A0
:103A100004F00800082801D1000547E74FF4803082
:103A200044E700008800002008E0FFFD10B50146D3
:103A300016480068C0084FF47A74B0FBF4F041F205
:103A4000883400FB04F300BF181EA3F1010302D168
:103A50004FF0004010BD4A6B02F045000028F3D043
:103A600002F400600028EFD1486B00F0040010B1B0
:103A700004208863EEE7486B00F0010010B10120DC
:103A80008863E7E7C52088630020E3E7880000201B
:103A900010B5014613480068C0084FF47A74B0FBB3
:103AA000F4F041F2883400FB04F300BF181EA3F1C8
:103AB000010302D14FF0004010BD4A6B02F04500F7
:103AC0000028F3D002F400600028EFD1486B00F02A
:103AD000040010B104208863EEE7C520886300204D
:103AE000EAE70000880000202DE9F04304460F4675
:103AF00090462A480068C0084FF47A71B0FBF1F094
:103B000041F2883100FB01F900BFB9F10000A9F1D1
:103B1000010903D14FF00040BDE8F083666B06F069
:103B200045000028F1D006F400600028EDD1606B5C
:103B300000F0040010B10420A063EDE7606B00F01A
:103B4000010010B10120A063E6E7204600F05EF816
:103B5000B84201D00120DFE7C520A0630021204644
:103B600000F05DF8054605F4604020B9280CA8F87F
:103B700000000020D0E705F48040B0F5804F02D16E
:103B80004FF40050C8E705F40040B0F5004F02D1F3
:103B90004FF48050C0E74FF48030BDE7880000202C
:103BA00010B5014618480068C0084FF47A74B0FB9D
:103BB000F4F041F2883400FB04F300BF181EA3F1B7
:103BC000010302D14FF0004010BD4A6B02F04500E6
:103BD0000028F3D002F400600028EFD1486B00F019
:103BE000040010B104208863EEE7486B00F0010088
:103BF00010B101208863E7E7486B00F0400008B18E
:103C0000402088630020DFE7880000200146086923
:103C1000C0B270470146086800F0030070470246D2
:103C200002F114004318186870470FB410B5044629
:103C30000021DDE903021043059A1043069A104360
:103C4000079A1043089A10430143606847F6FF62E1
:103C5000904308436060002010BC5DF814FB10B571
:103C60000446032020600220FDF750F8002010BD1C
:103C70000146D1F88000704710B50246002308685D
:103C80009060D1E901042043CC6820430C692043B3
:103C90000343D0686FF30B001843D060002010BDC1
:103CA00002460868C2F880000020704710B504463C
:103CB000012007490870FCF709FC28B9044800787E
:103CC00020F00100024908700148007810BD000092
:103CD0009E00002070B50546AC6B40F23A5021685A
:103CE00088632046FEF7BFFD0646012084F83400B5
:103CF00000202063062E01D0052E05D12068FFF795
:103D000033FDA16B0843A063A06B18B92046FEF7F2
:103D100057FC02E02046FEF7ADFC70BD70B50546CD
:103D2000AC6B40F23A50216888632046FEF79BFD59
:103D30000646012084F8340000202063062E01D0BE
:103D4000052E05D12068FFF70FFDA16B0843A06386
:103D5000A06B18B92046FEF733FC02E02046FEF7C0
:103D600089FC70BD2DE9F04389B004460F46FDF78C
:103D7000F5F881464FF000080020019002903E4681
:103D800008212068FFF7ACFB05461DB1284609B0A5
:103D9000BDE8F0835022125B11042068FFF766FB38
:103DA00005460DB12846F2E74FF0FF30039008209A
:103DB00004903020059002200690002007900120FA
:103DC000089003A92068FFF725FD2068FFF777FC1E
:103DD00005460DB12846DAE715E02068406B00F48F
:103DE000001038B12068FFF743FF01A941F828000F
:103DF00008F10108FDF7B2F8A0EB0900401C10B96A
:103E00004FF00040C3E72068406B40F22A41084071
:103E10000028E2D02068406B00F0080018B10820AC
:103E200021688863B3E72068406B00F0020018B196
:103E3000022021688863AAE72068406B00F0200018
:103E400018B1202021688863A1E740F23A50216828
:103E5000886302980006029901F47F4140EA01203C
:103E6000029901F47F0140EA1120029940EA1160B1
:103E70003060361D01980006019901F47F4140EA47
:103E80000120019901F47F0140EA1120019940EAE3
:103E90001160306000207AE730B58FB00446012011
:103EA00003902068FFF7B6FE18B94FF080600FB09E
:103EB00030BD606C03281BD02068FFF7CEFB0546A1
:103EC0000DB12846F3E700212068FFF7A8FE6067E0
:103ED00004212068FFF7A3FEA06708212068FFF7F0
:103EE0009EFEE0670C212068FFF799FE80210851B3
:103EF000606C032807D003A92068FFF718FC05466B
:103F00000DB12846D3E7606C032820D0BDF80C1013
:103F100021655022125B11042068FFF7B7FB0546AC
:103F20000DB12846C3E700212068FFF778FE6066E0
:103F300004212068FFF773FEA06608212068FFF7C0
:103F40006EFEE0660C212068FFF769FE2067042101
:103F50002068FFF764FE010DE16404A92046FEF726
:103F60008BFB10B14FF08050A1E75020005B0104A3
:103F70000A4600232068FFF753FB05460DB128468B
:103F800095E7D4E90412A069CDE90012029094E803
:103F90000F00FFF74AFE002089E70000F8B504464D
:103FA00000200090002600272068FFF7D1FA054680
:103FB0000DB12846F8BD2068FFF7E0FA054645B187
:103FC0000021A1642068FFF7C3FA05461DB1284609
:103FD000F0E70121A164A06C012808D1002120682C
:103FE000FFF744FA054615B14FF08050E2E71DE0B7
:103FF00000212068FFF73AFA05460DB12846D9E7B7
:1040000018492068FFF74EFA054615B14FF0805069
:10401000D0E700212068FFF702FE0646012080EA73
:10402000D67080F001070098401C00904FF6FF7199
:104030000098884201D2002FDAD04FF6FF71009825
:10404000884202D34FF08070B4E706F08040B0F1B0
:10405000804F02D10120606401E0002060640020F4
:10406000A8E70000000010C12DE9F0410546AC6A48
:10407000EF6AE7B14FF0000814E02868FFF7F8FD99
:1040800006462670641C7F1E300A2070641C7F1E4A
:10409000300C2070641C7F1E300E2070641C7F1E4C
:1040A00008F10108B8F1080FE7D3AC62EF62BDE890
:1040B000F08170B504460D4615B94FF0006070BD33
:1040C0005022125B11042068FFF715FB06460EB163
:1040D0003046F4E700212068FFF7A1FD28600020AA
:1040E000EDE77CB504460020009001900021206897
:1040F000FFF795FD00F00070B0F1007F02D14FF4A2
:1041000000607CBD69462046FFF72CFE05460DB1D8
:104110002846F6E7019800F4803098B15022125BEF
:1041200011042068FFF7A2F905460DB12846E8E71B
:1041300000212068FFF7F0F905460DB12846E0E7B9
:104140000020DEE74FF08060DBE77CB5044600200E
:104150000090019000212068FFF761FD00F00070E1
:10416000B0F1007F02D14FF400607CBD694620466B
:10417000FFF7F8FD05460DB12846F6E7019800F473
:10418000802098B15022125B11042068FFF76EF96D
:1041900005460DB12846E8E702212068FFF7BCF983
:1041A00005460DB12846E0E70020DEE74FF08060CD
:1041B000DBE7F8B505462C6A6E6A1EB300271DE0E2
:1041C00020780090641C761E2078009941EA002037
:1041D0000090641C761E2078009941EA004000900F
:1041E000641C761E2078009941EA00600090641CEF
:1041F000761E69462868FFF753FD7F1C082FDFD322
:104200002C626E62F8BD000010B50446012006491C
:104210000870FCF767F920B92046FFF747FD02490F
:1042200008700148007810BD9E000020F0B589B0EC
:1042300007460D46144601261648007800F0010096
:1042400010B1032009B0F0BD35B1012D06D0022D0B
:104250000BD0032D18D10FE0002617E001A8FCF7C2
:104260002BF907982060002610E001A8FCF724F93C
:1042700008982080002609E001A8FCF71DF908989D
:10428000400A2060002601E0042600BF00BF30463F
:10429000D8E700009E0000202DE9F04180460C4642
:1042A00015461E460127BB1E324629462046FCF70E
:1042B00003FA28B900BFFCF709F90028FBD1002751
:1042C0003846BDE8F08110B504462046FFF7EEFC05
:1042D00010BD2DE9F04180460C4615461E460127CB
:1042E000BB1E324629462046FCF7FCF928B900BF20
:1042F000FCF7ECF80028FBD100273846BDE8F08138
:10430000704730B501460A461378521C147843EAC8
:10431000042030BD2DE9F04106460F46002500225D
:1043200016A1174802F062FF10B10020BDE8F0812D
:1043300014A332461549164802F027FF044613E03D
:1043400084B9192D08D229466D1C57F821000F4A4F
:10435000163210A102F0E8F90C490D4802F02AFFCC
:10436000044601E0002503E00848807D0028E7D1ED
:1043700000BF074802F0F6FE2846D7E7000000001D
:104380005C2100202A2E626D700000009023002026
:10439000A82400202573000010B5FCF7E5FD10BD32
:1043A00000B5B3B0302127A8FBF774FF142122A871
:1043B000FBF770FF842101A8FBF76CFFFDF74CFDB4
:1043C00000BF2548006840F0805023490860084637
:1043D000006800F08050009000BF00BF00BF1F4881
:1043E000006840F440401D4908600846006800F439
:1043F0004040009000BF00BF01202790000428909B
:1044000002202D90410527A8C1610C210162C8211D
:104410004162022181620821C162FDF74FFE08B1AD
:10442000FCF744FAFDF7D0FC08B1FCF73FFA0F2087
:10443000229002202390002024904FF4A050259039
:104440004FF480502690062122A8FDF70FFD08B1F9
:10445000FCF72CFA33B000BD403802400070004039
:104460000548006840F47000034908604FF00060A0
:10447000014980390860704788ED00E02DE9F0417E
:1044800004460D46D4F8C472D4F8BC0210B9032017
:10449000BDE8F081D4F8BC6205EB850104F114009D
:1044A00000EB8100406808B305EB850104F11400BE
:1044B00000EB8100C5EBC502416807F13C0000EB51
:1044C00082008068B1FBF0F200FB121070B900218D
:1044D00005EB850204F1140000EB8200416000232B
:1044E0001A462946204600F0F2FE0BE00020C6F8EE
:1044F0001402D6F80802D4F8C0122A460B6906F551
:10450000047198470020C3E770B504460E46D4F8FE
:10451000BC52D4F8BC0208B9032070BD3146204615
:1045200000F077FDC5F80C02D5F80402D4F8C012EB
:10453000CA6805F5037190470020EEE770B50446A0
:104540000E4600258121204600F081FC00212187B4
:104550000121204600F07BFC0021A4F87811822183
:10456000204600F074FC0021A4F84C10A4F84E1072
:10457000D4F8BC0250B1D4F8C01248688047D4F8CF
:10458000BC0203F041F90020C4F8BC02284670BD0B
:1045900070B50546D5F8BC42D5F8C00278B194F89C
:1045A0000002FF280BD094F8012294F80002D5F8FD
:1045B000C0128B6821469847FF2084F80002002033
:1045C00070BD000001460A200880014870470000C5
:1045D000A0000020014643200880014870470000E9
:1045E0002801002001464320088001487047000050
:1045F000E400002001464320088001487047000085
:104600006C01002070B504460E464FF4077003F0AD
:1046100057FB054625B90020C4F8BC02022070BD36
:10462000C4F8BC52207CA0B94FF40073022281214F
:10463000204600F055FD012121874B020222204631
:1046400000F04EFD0121A4F878111021A4F84E10BD
:1046500012E0402302228121204600F041FD012189
:10466000218740230222204600F03AFD0121A4F8D0
:1046700078111021A4F84E1008230322822120462D
:1046800000F02EFD0121A4F84C10D4F8C0120868E7
:1046900080470020C5F81402C5F81802207C40B9F4
:1046A0004FF4007301212046D5F8042200F030FDBC
:1046B00006E0402301212046D5F8042200F028FD21
:1046C0000020ACE770B50446D4F8BC52D4F8BC0264
:1046D00008B9032070BD207C40B94FF4007301215C
:1046E0002046D5F8042200F013FD06E04023012106
:1046F0002046D5F8042200F00BFD0020EAE7024630
:1047000009B903207047C2F8C0120020FAE7024638
:10471000D2F8BC32C3F804120020704710B503462B
:10472000D3F8BC42C4F80812C4F81022002010BD0F
:104730002DE9FC4105460C46D5F8BC6200200190ED
:1047400000900027207800F0600040B3202862D15C
:10475000E088E0B1207800F0800060B1E288607805
:10476000D5F8C0128B6831469847E2883146284612
:1047700000F0CDF812E0607886F80002A07986F8A3
:104780000102E2883146284600F0A0F806E0607891
:10479000D5F8C01200228B682146984741E0607826
:1047A00030B101282ED00A2812D00B282BD11FE0BF
:1047B00095F89C02032805D102226946284600F09C
:1047C000A6F804E02146284600F074F8032720E00C
:1047D00095F89C02032805D1012201A9284600F082
:1047E00096F804E02146284600F064F8032710E01C
:1047F00095F89C02032804D02146284600F05AF878
:10480000032706E005E02146284600F053F8032779
:1048100000BF00BF05E02146284600F04BF8032703
:1048200000BF00BF3846BDE8FC8170B504460D46A8
:10483000D4F8B80228B1D4F8B80229464268204614
:104840009047002070BD70B504460D4694F89C0258
:10485000012804D0022803D003280CD101E000BFB6
:1048600000BF6888012805D10020C4F8A4022046B2
:1048700000F05EF804E02946204600F01BF800BF77
:1048800000BF70BD70B506460C4615462B46224645
:104890000021304600F03CFC002070BD70B506469B
:1048A0000C4615462B4622460021304600F00FFDEF
:1048B000002070BD70B504460D468021204600F0F2
:1048C000DAFC0021204600F0D6FC70BD70B504462D
:1048D0000E4615460320C4F894024FF4AC700551FF
:1048E000001D05512B4632460021204600F010FCE9
:1048F000002070BD10B504460520C4F894020023C2
:104900001A461946204600F003FC002010BD70B581
:1049100004460E4615460220C4F89402A561E561DE
:104920002B4632460021204600F0D1FC002070BD0D
:1049300010B504460420C4F8940200231A46194610
:10494000204600F0C4FC002010BD70B504460D46A2
:10495000E888012804D029462046FFF7ABFF1EE077
:1049600094F89C02012804D0022803D0032810D117
:1049700009E000BF0020A060012204F108012046E8
:10498000FFF7C5FF0AE00122211D2046FFF7BFFF08
:1049900004E029462046FFF78DFF00BF00BF70BD31
:1049A000F8B504460E4600200090002700257088C8
:1049B0000012062874D006DC01281BD0022821D062
:1049C00003286ED132E007286CD00F28F9D1D4F833
:1049D000B402C06938B1207CD4F8B412CA696946FF
:1049E0009047074605E031462046FFF763FF681C05
:1049F000C5B2CBE0207CD4F8B4120A68694690476F
:104A00000746C3E0207C40B9D4F8B802816A684602
:104A1000884707460220787007E0D4F8B802C16AD8
:104A200068468847074602207870AFE0B0780628CD
:104A30007AD2DFE800F00316293F5265D4F8B402B9
:104A4000406838B1207CD4F8B4124A68694690476F
:104A5000074605E031462046FFF72CFF681CC5B22B
:104A600069E0D4F8B402806838B1207CD4F8B4127C
:104A70008A6869469047074605E031462046FFF7B9
:104A800019FF681CC5B256E0D4F8B402C06850B132
:104A9000207CD4F8B412CA6869469047074608E0FB
:104AA0004BE06CE059E031462046FFF703FF681CFD
:104AB000C5B240E0D4F8B402006938B1207CD4F823
:104AC000B4120A6969469047074605E03146204618
:104AD000FFF7F0FE681CC5B22DE0D4F8B4024069BF
:104AE00038B1207CD4F8B4124A6969469047074629
:104AF00005E031462046FFF7DDFE681CC5B21AE02E
:104B0000D4F8B402806940B1207CD4F8B4128A6928
:104B100069469047074606E006E031462046FFF723
:104B2000C9FE681CC5B206E031462046FFF7C2FE4A
:104B3000681CC5B200BF00BF28E0207C30B9D4F8A3
:104B4000B802416B68468847074605E03146204673
:104B5000FFF7B0FE681CC5B218E0207C40B9D4F85D
:104B6000B802016B6846884707460720787005E061
:104B700031462046FFF79EFE681CC5B206E031466E
:104B80002046FFF797FE681CC5B200BF00BF05B105
:104B9000F8BDF088C0B1BDF8000080B1F088BDF864
:104BA0000010884202DDBDF8000000E0F0880090AF
:104BB000BDF8002039462046FFF7A9FE07E0314640
:104BC0002046FFF777FE02E02046FFF7B1FE00BF68
:104BD000DEE7014600200A4602E0431CD8B2521C20
:104BE0001378002BF9D1704770B504460D4694F840
:104BF0009C02012804D0022803D003281AD101E026
:104C000000BF00BFE888022804D029462046FFF7ED
:104C100051FE14E00120E060D4F8A40218B1E0686D
:104C200040F00200E060022204F10C012046FFF790
:104C30006EFE04E029462046FFF73CFE00BF00BFA1
:104C400070BD2DE9F04107460D46904600240FB98E
:104C5000BDE8F0813E463046FFF7BBFF022101EB85
:104C60004000A8F8000098F800002855601CC4B265
:104C700003202855601CC4B208E030782855761C03
:104C8000601CC4B200202855601CC4B230780028D3
:104C9000F3D100BFDCE70146002031B1012906D085
:104CA000022906D0032908D105E0002007E00320EF
:104CB00005E0012003E0032001E0032000BF00BF66
:104CC0007047000070B505460C462DB922460649CE
:104CD00006A0FFF7B6FF04E02246034903A0FFF752
:104CE000B0FF014870BD0000240B00204344432066
:104CF000436F6E6669670000024612200880014813
:104D0000704700003400002070B505460C462DB9F0
:104D10002246064906A0FFF794FF04E02246034915
:104D200003A0FFF78EFF014870BD0000240B002098
:104D300043444320496E74657266616365000000F8
:104D400002460420088001487047000054000020FB
:104D500070B505460C462246024903A0FFF771FFD5
:104D6000004870BD240B002053544D6963726F6579
:104D70006C656374726F6E696373000070B505468D
:104D80000C462DB92246064906A0FFF75AFF04E05B
:104D90002246034903A0FFF754FF014870BD0000FD
:104DA000240B002053544D333220566972747561C0
:104DB0006C20436F6D506F727400000070B5054633
:104DC0000C461A202080FBF7A5FD014870BD0000AD
:104DD0005800002002460C2008800148704700005F
:104DE000480000202DE9F04104460D46164614B94E
:104DF0000320BDE8F081D4F8B80210B10020C4F857
:104E0000B802D4F8CC0210B10020C4F8CC020DB125
:104E1000C4F8B452012084F89C022670204600F0A9
:104E200001F907463846E4E72DE9F04104460D460E
:104E3000002600272946D4F8C402FCF738FA0646B3
:104E40003046FFF728FF07463846BDE8F0812DE9D8
:104E5000F04104460D46002600272946D4F8C40236
:104E6000FCF7F0F906463046FFF715FF07463846CF
:104E7000BDE8F0812DE9F04104460F469046002F31
:104E800054D104F11405D4F89402022843D1D5E991
:104E9000020188420FD9D5E90201401AA8604146B3
:104EA0002046AA68FFF7FAFC00231A461946204656
:104EB00000F02EF92FE0D5E90210884217D1E968F9
:104EC0006868884213D36868D4F8981288420ED272
:104ED000002211462046FFF7E1FC0020C4F89802AA
:104EE00000231A461946204600F012F913E0D4F8C0
:104EF000B802C06840B194F89C02032804D1D4F8E9
:104F0000B802C168204688478021204600F0B3F9E6
:104F10002046FFF7EFFC94F8A00201281BD12046A1
:104F200000F01BFA002084F8A00214E0D4F8B802C4
:104F3000406970B194F89C0203280AD1D4F8B802F1
:104F40003946426920469047064626B13046BDE8BC
:104F5000F0810320FBE70020F9E72DE9F041054649
:104F60000F4690465FBB05F5AA74D5F89402032856
:104F70003AD1D4E90201884210D9D4E90201401A99
:104F8000A060D4E90201884201D2A06800E0E06894
:104F9000024641462846FFF775FC25E0D5F8B802E1
:104FA000006940B195F89C02032804D1D5F8B802F5
:104FB0000169284688472846FFF7BAFC14E0D5F86F
:104FC000B802806970B195F89C0203280AD1D5F81F
:104FD000B8023946826928469047064626B13046CF
:104FE000BDE8F0810320FBE70020F9E7014600203F
:104FF000704710B50446012084F89C02D4F8B8022A
:1050000028B12179D4F8B8024268204690470020A0
:1050100010BD70B504460D462946D4F8C402FCF70D
:1050200084F970BD10B50446207801282FD11948A5
:10503000C0F80044C4F8C4021748164908600820A4
:10504000486002211348C160002101610221816191
:105050000021C16101624162012181620021C162BE
:1050600001634163FCF732FD08B1FBF71FFC4FF40D
:1050700000710848FCF78CF8802200210548FCF7F5
:105080008CF84FF4BA7201210248FCF786F8002030
:1050900010BD0000200700200000044010B50246AB
:1050A000D2F8C43201F08000802809D101F07F00DD
:1050B000C0EBC00403F13C0000EB8400807810BD1D
:1050C00001F07F00C0EBC00403F5FE7000EB84002C
:1050D0008078F4E7024600207047024600207047BF
:1050E0002DE9F04704460F4615461E464FF00008CE
:1050F000C1462B4632463946D4F8C402FCF720F9A3
:1051000080464046FFF7C7FD81464846BDE8F08728
:105110002DE9F04704460D4616461F464FF000089D
:10512000C1463B4632462946D4F8C402FCF74EF944
:1051300080464046FFF7AFFD81464846BDE8F08710
:1051400010B50446012084F89C020020C4F89402A3
:105150006060C4F8A402D4F8BC0228B12179D4F864
:10516000B80242682046904740230022114620465C
:10517000FFF7B6FF01214FF4B27001534021001F29
:1051800001514023002280212046FFF7A9FF012181
:10519000A18440212162002010BD014691F89C02AB
:1051A000042803D191F89D0281F89C0200207047E9
:1051B00010B5044694F89C02032808D1D4F8B8022C
:1051C000C06920B1D4F8B802C169204688470020E0
:1051D00010BD02461174002070472DE9F0410446CD
:1051E0000D46002600272946D4F8C402FCF794FD9A
:1051F00006463046FFF74FFD07463846BDE8F081CA
:1052000070B504460D46294604F2AA2000F077F84E
:105210000120C4F894024FF42C70005BC4F898028B
:1052200094F8AA0200F01F0020B1012809D002283A
:1052300015D10DE004F2AA21204600F05FF90646E0
:1052400016E004F2AA21204600F0C0FA06460FE05C
:1052500004F2AA21204600F0A4F9064608E094F8DA
:10526000AA0200F08001204600F005F8064600BFC3
:1052700000BF304670BD2DE9F04104460D460026C2
:1052800000272946D4F8C402FCF7CCF8064630467D
:10529000FFF701FD07463846BDE8F08170B50446CA
:1052A00000250026D4F8C402FCF75AFD054628461E
:1052B000FFF7F1FC0646304670BD014691F89C02AE
:1052C00081F89D02042081F89C02002070472DE99E
:1052D000F04704460D4616461F464FF00008C146EB
:1052E0003B4632462946D4F8C402FCF7E0F8804633
:1052F0004046FFF7D0FC81464846BDE8F08770B5D0
:1053000005460E46344620782870641C2078687064
:10531000641C2046FEF7F5FF6880641C641C204670
:10532000FEF7EFFFA880641C641C2046FEF7E9FF2F
:10533000E88070BD38B504460D46002000900DB9D8
:10534000032038BDC4F8B852D4F8B802816A684660
:105350008847C4F8CC020020F3E7014600207047DC
:1053600070B504460D46A88810BBE88800BB688865
:1053700080281DD2A87800F07F0694F89C020328AC
:1053800004D129462046FFF795FA15E084F89E627D
:1053900031462046FFF721FF2046FFF7C9FA1EB12C
:1053A000022084F89C0207E0012084F89C0203E0BC
:1053B00029462046FFF77EFA70BD70B504460D46BB
:1053C0000326D4F8B80230B1D4F8B80229460268EE
:1053D000204690470646304670BD000070B5044632
:1053E0000E460025B0783B49087008460078012831
:1053F00005D931462046FFF75DFA032070BD94F8C9
:105400009C02022802D0032856D11CE031480078C3
:10541000A8B13048007860602E4801782046FFF738
:10542000CCFF054625B131462046FFF743FA09E097
:105430002046FFF77DFA032084F89C0202E0204614
:10544000FFF776FA43E02348007870B9022084F829
:105450009C022048007860601E4801782046FFF7D3
:10546000E4F92046FFF764FA25E01A4909786068F4
:1054700088421DD021792046FFF7D7F915480078DA
:105480006060144801782046FFF797FF05465DB13C
:1054900031462046FFF70EFA21792046FFF7C5F97D
:1054A000022084F89C0206E02046FFF741FA02E061
:1054B0002046FFF73DFA0AE031462046FFF7FAF9A9
:1054C000044801782046FFF7B0F9032500BF00BF6C
:1054D000284693E79F00002070B505460C4660887B
:1054E000012804D1C5F8A4022846FFF721FA70BDAF
:1054F00010B504462046FFF7D1FE10BD70B5054635
:105500000C460026207800F0600068B1202802D008
:1055100040283ED100E000BFD5F8B802214682689D
:1055200028469047064639E060780A282AD2DFE804
:1055300000F01A24291F290A0529150F214628469B
:10554000FFF72EFA23E021462846FFF709FF1EE069
:1055500021462846FFF742FF064618E02146284626
:10556000FFF7F3F913E021462846FFF73DFB0EE075
:1055700021462846FFF7B0FF09E021462846FFF7FD
:1055800062F904E021462846FFF794F900BF00BF06
:1055900004E021462846FFF78DF900BF00BF3046E2
:1055A00070BD2DE9F04105460E464FF000083479F4
:1055B000307800F0600068B1202802D0402870D117
:1055C00000E000BFD5F8B80231468268284690470F
:1055D0008046F7E07078002864D001282FD0032897
:1055E0006FD195F89C02022802D0032820D110E048
:1055F00054B1802C08D021462846FFF73CFE80217C
:105600002846FFF738FE03E031462846FFF752F9F7
:1056100013E0708840B93CB1802C05D0F08818B9EF
:1056200021462846FFF727FE2846FFF781F904E0C8
:1056300031462846FFF73EF900BF00BFBBE095F8B2
:105640009C02022802D0032824D110E054B1802CFF
:1056500008D021462846FFF70EFE80212846FFF796
:105660000AFE03E031462846FFF724F917E0708868
:1056700078B904F07F0018B121462846FFF7D4FB23
:105680002846FFF755F9D5F8B80231468268284612
:10569000904704E031462846FFF70CF900BF00BFF1
:1056A00089E08AE095F89C02022802D0032876D18E
:1056B00026E03CB1802C05D031462846FFF7FAF8A9
:1056C00072E073E004F08000802808D104F07F00CD
:1056D00000EB800105F1140000EB810007E004F00D
:1056E0007F0000EB800105F5AA7000EB8100074602
:1056F00000203860022239462846FFF708F953E0B7
:1057000004F0800080280ED104F00F0000EB80012F
:1057100005F1140000EB8100008A98B93146284653
:10572000FFF7C8F840E004F00F0000EB800105F53A
:10573000AA7000EB8100008A20B931462846FFF7A5
:10574000B9F831E004F08000802808D104F07F002F
:1057500000EB800105F1140000EB810007E004F08C
:105760007F0000EB800105F5AA7000EB8100074681
:105770000CB1802C02D10020386009E02146284677
:10578000FFF78CFC10B10120386001E00020386088
:10579000022239462846FFF7BAF805E0FFE731460E
:1057A0002846FFF787F800BF00BF04E031462846CF
:1057B000FFF780F800BF00BF04E031462846FFF73E
:1057C00079F800BF00BF4046BDE8F08170B50546DE
:1057D0000C460026207800F0600030B1202802D06E
:1057E00040282AD100E000BF00BF95F89C020128A4
:1057F00004D0022803D0032818D101E000BF00BF65
:10580000207901280DD8D5F8B802214682682846AB
:1058100090470646E08840B93EB92846FFF788F829
:1058200003E021462846FFF745F804E021462846D4
:10583000FFF740F800BF00BF04E021462846FFF70D
:1058400039F800BF00BF304670BD000070B5044697
:105850000B4622461978587801282CD140F61C00B6
:1058600080581D7805F00F060125B540ADB22843DC
:1058700040F61C05A85002F5106000EB41100068CE
:1058800000F40040F0BB1889C0F30A00DD7840EA5C
:10589000854040EA815040F0805040F4004002F5DD
:1058A000106505EB41152D68284302F5106505EBE1
:1058B000411528602DE040F61C0080581D7805F049
:1058C0000F060125B540144E06EA0545284340F66B
:1058D0001C05A85002F5306000EB4110006800F490
:1058E000004078B91889C0F30A00DD7840EA8540A5
:1058F00040F0805040F4004002F5306505EB411562
:105900002D6800E005E0284302F5306505EB411500
:105910002860002070BD00000000FFFF01460A461D
:105920004FF410608058C30ADB024FF410608350BC
:1059300040F60400805840F4807340F60400835021
:10594000002070470FB470B504460A98012817D19B
:10595000A06B20F48030A063E06817490840E06045
:10596000E06820F44010E0601198012803D1E0685D
:1059700040F48010E060204600F020F805460BE07F
:10598000E06840F04000E060204600F017F805466F
:10599000A06B40F48030A0630898012807D1A0686C
:1059A00040F00600A060A06840F02000A0602846FB
:1059B00070BC5DF814FB0000BFFFBDFF0146002274
:1059C00000BF501C02460F4B984201D9032070477C
:1059D000086900F000400028F3D00022086940F078
:1059E0000100086100BF501C0246064B984201D9D5
:1059F0000320ECE7086900F001000028F3D100BFA4
:105A0000E5E70000400D030070B504460B46224652
:105A100019785878012848D102F5106000EB411040
:105A2000006800F00040B0F1004F17D102F510609F
:105A300000EB4110006840F0006502F5106000EBDB
:105A40004110056002F5106000EB4110006840F065
:105A5000804502F5106000EB4110056040F63C0007
:105A600080581D7805F00F060125B540ADB2A8435A
:105A700040F63C05A85040F61C0080581D7805F003
:105A80000F060125B540ADB2A84340F61C05A8504D
:105A900002F5106000EB411000682B4D284002F524
:105AA000106505EB411528604BE002F5306000EB16
:105AB0004110006800F00040B0F1004F17D102F52E
:105AC000306000EB4110006840F0006502F5306086
:105AD00000EB4110056002F5306000EB41100068FA
