:020000040800F2
:10000000C8100020DD0100085F2400085724000804
:100010005B240008E5070008C12500080000000077
:10002000000000000000000000000000672400083D
:10003000030900080000000061240008692400088A
:10004000F7010008F7010008F7010008F7010008B0
:10005000F701000863240008F7010008F701000811
:10006000F7010008F7010008F7010008F701000890
:10007000F7010008F7010008F7010008F701000880
:10008000F7010008F7010008F7010008F701000870
:10009000F7010008F7010008F7010008F701000860
:1000A000F7010008F7010008F7010008F701000850
:1000B000F7010008F7010008F7010008F701000840
:1000C000F7010008F7010008F7010008F701000830
:1000D000F7010008F7010008F7010008F701000820
:1000E000F7010008F7010008F7010008F701000810
:1000F000F7010008F7010008F7010008F701000800
:10010000F7010008F7010008F7010008F7010008EF
:10011000F7010008F7010008F7010008F7010008DF
:10012000E9070008F7010008F7010008F7010008D7
:10013000F7010008F7010008F7010008F7010008BF
:10014000F7010008F7010008F7010008F7010008AF
:10015000F7010008F7010008F7010008F70100089F
:10016000F7010008F7010008F7010008F70100088F
:10017000F7010008F7010008F7010008F70100087F
:10018000F7010008F7010008F7010008F70100086F
:10019000F7010008F7010008F7010008F70100085F
:1001A000F7010008F7010008F7010008F70100084F
:1001B000F7010008F7010008F7010008F70100083F
:1001C000F7010008F7010008DFF80CD000F07AF81A
:1001D000004800471D260008C81000200648804738
:1001E00006480047FEE7FEE7FEE7FEE7FEE7FEE71C
:1001F000FEE7FEE7FEE7FEE75D250008C90100080F
:100200002DE9F05F0546002092469B46884606464B
:10021000814640241BE0284641464746224600F0DE
:1002200041F853465A46C01A914110D31146184618
:10023000224600F028F82D1A67EB01084F462246A7
:100240000120002100F01FF817EB00094E41201E8D
:10025000A4F10104DFDC484631462A464346BDE8A6
:10026000F09FD2B201E000F8012B491EFBD270478B
:100270000022F6E710B513460A4604461946FFF772
:10028000F0FF204610BD202A04DB203A00FA02F1DC
:10029000002070479140C2F1200320FA03F3194374
:1002A00090407047202A04DB203A21FA02F0002116
:1002B000704721FA02F3D040C2F120029140084376
:1002C00019467047064C074D06E0E06840F0010310
:1002D00094E8070098471034AC42F6D3FFF778FF54
:1002E000702600089026000870B50546AC6B206C9F
:1002F00000F0500050BB206C40F400702064206877
:10030000806800F04050E8B9A069D8B92068C06A98
:1003100000F4700020B12068806800F4806088B923
:100320002068406820F0200021684860206C20F49C
:1003300080702064206C00F4805018B9206C40F06C
:1003400001002064204600F0CBFB0BE0206C00F0A5
:10035000100018B1204600F0DEFB03E0A06BC16C7A
:100360002846884770BD70B50546AC6B40202064B8
:10037000606C40F004006064204600F0CCFB70BD6F
:1003800070B50446A56B284600F0C4FB70BD0000A4
:100390005849096821F44031574AC2F804131146FC
:1003A000D1F8041342681143524A11600168496848
:1003B00021F480710268516001684A68016942EA6B
:1003C0000121026851600168496821F040710268AA
:1003D0005160016849688268114302685160016890
:1003E000896821F400610268916001688968C268C7
:1003F000114302689160414A816A914218D00168B4
:10040000896821F070610268916001688968826A78
:100410001143026891600168896821F040510268C7
:10042000916001688968C26A1143026891600BE0BB
:100430000168896821F070610268916001688968CB
:1004400021F04051026891600168896821F0020141
:100450000268916001688A68816942EA4101026824
:1004600091602021095CA1B10168496841F40061F3
:10047000026851600168496821F460410268516076
:1004800001684A68416A491E42EA41310268516086
:1004900005E00168496821F4006102685160016863
:1004A000C96A21F470010268D1620168CA6A818B4D
:1004B000491E42EA01510268D1620168896821F44B
:1004C00000710268916001688A6890F8301042EA11
:1004D0004121026891600168896821F480610268A5
:1004E000916001688A68416942EA812102689160ED
:1004F0007047000004230140002001400100000F6C
:1005000000B58BB000200790089009900A90142144
:1005100002A8FFF7ADFE00BF4848006840F48060C5
:10052000464908600846006800F48060019000BFFA
:1005300000BF00BF41481438006840F480003F49C4
:10054000143908600846006800F48000019000BF7C
:1005500000BF00200490082002900320039002A90D
:10056000374800F019FE002003904FF4006002901D
:100570000020059002A9334800F00EFE32483349AE
:10058000086001213148C161816180F8301000218B
:1005900080F82010016181602D4981620021C160D5
:1005A0000121416108042949486000212748C162AE
:1005B00000F0B2FA27482849086081152648C16131
:1005C0008804254948600114234801610021C16065
:1005D0004FF4003101620021C16201634FF4804198
:1005E0008161891041610021416281600121816244
:1005F00000F00CFD00BF18481449886308461649EE
:10060000886300BF00221146382000F04DFF3820DB
:1006100000F03AFF0120089000200A900320079084
:100620000020099007A9094800F06EF901220B4942
:10063000064800F00FFB0BB000BD0000443802403C
:100640000000024000200240002201408000002003
:100650000100000F1064024020000020080000206C
:1006600008B500BF4748006840F0010045490860F0
:100670000846006800F00100009000BF00BF00BF06
:100680000846006840F0020008600846006800F074
:100690000200009000BF00BF00BF0846006840F0A5
:1006A000040008600846006800F00400009000BFE5
:1006B00000BF00BF0846006840F008000860084618
:1006C000006800F00800009000BF00BF00BF0846AF
:1006D000006840F0100008600846006800F0100054
:1006E000009000BF00BF00BF0846006840F0200037
:1006F00008600846006800F02000009000BF00BFBE
:1007000000BF0846006840F04000086008460068E6
:1007100000F04000009000BF00BF00BF0846006826
:1007200040F0800008600846006800F080000090FB
:1007300000BF00BF00BF0846006840F4807008603A
:100740000846006800F48070009000BF00BF00BF42
:100750000846006840F4007008600846006800F42D
:100760000070009000BF00BF00BF0846006840F462
:10077000806008600846006800F48060009000BF58
:1007800000BF08BD30380240014890ED000A7047B4
:100790000C000020064890ED000ADFED060A20EE6E
:1007A000200ABCEEC00A10EE100A80B270470000AA
:1007B0000C0000200000C84200B585B01421684636
:1007C000FFF756FD002002900120009000200190CC
:1007D00003906946024800F0DFFC05B000BD000050
:1007E0000000024000BFFEE710B50249886B00F030
:1007F000EDFA10BD8000002001460878103818235B
:10080000B0FBF3F20848805CC865032A05D9086884
:100810006FF30900001D886503E008686FF30900A5
:100820008865886D70470000682600080146002032
:100830008A6A8B69CBB932B1012A0DD0022A03D062
:10084000032A10D10EE000BFCB6A03F08073B3F12E
:10085000807F00D1012007E0CB6AB3F1C07F00D1D7
:10086000012001E000E000BF34E08B69B3F5005FD8
:100870001AD132B1012A07D0022A03D0032A11D19A
:100880000AE000BF01200EE0CB6A03F08073B3F1F1
:10089000807F00D1012006E0CB6AB3F1C07F00D198
:1008A000012000E000BF15E032B1012A05D0022A84
:1008B00004D0032A0CD103E000BF00BF012008E0F0
:1008C000CB6A03F08073B3F1807F00D1012000E098
:1008D00000BF00BF704730B50468246824F480244A
:1008E00005682C60046863608468402C04D1046847
:1008F000A2600468E16003E00468A1600468E2604B
:1009000030BD704700BE704718B502460020009009
:1009100000BF92F83C00012801D1022018BD01203F
:1009200082F83C0000BF0868092826D90868B0F1A1
:10093000004F22D01068C0680B780A3B03EB4304D9
:100940000723A34098431368D860604B0868984217
:1009500007D11068C0680B7A40EA03601368D8605A
:100960001FE00B780A3B03EB430388689840136849
:10097000DB6818431368D86013E0106800690B78CF
:1009800003EB43040723A3409843136818610B78D3
:1009900003EB43038868984013681B691843136886
:1009A00018614868072817D21068406B0B795B1EE6
:1009B00003EB83041F23A3409843136858630888FC
:1009C00080B20B795B1E03EB8303984013685B6B6B
:1009D00018431368586331E048680D2817D210682F
:1009E000006B0B79DB1F03EB83041F23A3409843A9
:1009F00013681863088880B20B79DB1F03EB83034D
:100A0000984013681B6B18431368186316E010684E
:100A1000C06A0B790D3B03EB83041F23A34098436B
:100A20001368D862088880B20B790D3B03EB83030F
:100A300098401368DB6A18431368D862244B106827
:100A4000984209D10868B0F1004F05D121480068EB
:100A500020F44000C3F804031D4B1068984208D1ED
:100A60000868122805D11B48006840F48000C3F8CC
:100A70000403174B1068984220D1144B0868984221
:100A800002D00868112819D11248006840F400000B
:100A9000104B18600D4B086898420FD10E48006843
:100AA0000E4BB0FBF3F000EB80004000009002E042
:100AB0000098401E009000980028F9D100BF002047
:100AC00082F83C0000BF00BF28E7000012000010C1
:100AD00000200140042301401000002040420F008C
:100AE0000849098800EE101AB8EE400ADFED060A40
:100AF00020EE200ADFED050A80EE201A044981ED80
:100B0000001A70470800002033335340000080452E
:100B10000C0000207047704770B5044600250CB9E2
:100B2000012070BD1549A06A884200D000BF206C2A
:100B300030B9204600F024F80020606484F83C00BE
:100B4000206C00F0100088B9206C20F4885040F030
:100B5000020020642046FFF71BFC00206064206C2C
:100B600020F0020040F00100206400E0012500BFF9
:100B7000002084F83C0000BF2846D2E70100000FA7
:100B800010B586B00446142101A8FFF771FB2D496A
:100B90002068884228D100BF2B48006840F480704C
:100BA000294908600846006800F48070009000BF82
:100BB00000BF00BF24481438006840F001002249FB
:100BC000143908600846006800F00100009000BF7A
:100BD00000BF08200190032002900020039001A98B
:100BE0001A4800F0D9FA2BE019492068884227D129
:100BF00000BF1548006840F480601349086008464B
:100C0000006800F48060009000BF00BF00BF0E4885
:100C10001438006840F001000B4914390860084698
:100C2000006800F00100009000BF00BF08200190A4
:100C3000032002900020039001A9044800F0ACFAC0
:100C400006B010BD002001404438024000000240C0
:100C500000220140F8B504460D46164600200090DB
:100C600000BF94F83C00012801D10220F8BD01200A
:100C700084F83C0000BF2068806800F00100A0B943
:100C80002068806840F0010021688860474800685B
:100C90004749B0FBF1F000EB4000009002E0009803
:100CA000401E009000980028F9D12068806800F06C
:100CB0000100002878D0206C40F20161884340F4A4
:100CC000807020642068406800F4806028B1206C47
:100CD00020F4005040F480502064206C00F48050D8
:100CE000B0F5805F04D1606C20F00600606401E024
:100CF0000020606400BF002084F83C0000BF2D4845
:100D0000A16BC8632C48A16B08642C48A16BC86414
:100D10006FF02200216808602068406840F0806021
:100D2000216848602068806840F48070216888608D
:100D3000226802F14C0133462A46A06B00F0DCF930
:100D40001F48006800F01F0058B92068806800F054
:100D5000405028B92068806840F080402168886051
:100D600022E01849206888420AD12068806800F093
:100D7000405028B92068806840F080402168886031
:100D80000F48006800F0100070B90F4920688842D1
:100D90000AD12068806800F0405028B92068806837
:100DA00040F080402168886000205FE7100000204C
:100DB00040420F00E90200088103000867030008B1
:100DC000042301400020014000220140F8B5044600
:100DD000002000908C4800684FF41651B0FBF1F7EA
:100DE000A56D2E6894F85C1008208840304098B1BA
:100DF0002068006800F0040070B12068006820F0EE
:100E000004002168086094F85C1008208840A860FD
:100E1000606D40F00100606594F85C10012088402E
:100E2000304068B12068406900F0800040B194F81B
:100E30005C1001208840A860606D40F00200606591
:100E400094F85C1004208840304068B12068006845
:100E500000F0020040B194F85C1004208840A860C3
:100E6000606D40F00400606594F85C1010208840CC
:100E7000304078B32068006800F0080050B394F860
:100E80005C1010208840A8602068006800F4802072
:100E900080B12068006800F4002028B9206CC8B137
:100EA0002046216C884715E0A06C98B12046A16CC3
:100EB00088470FE02068006800F4807028B9206837
:100EC000006820F0080021680860206C10B12046FE
:100ED000216C884794F85C1020208840304000281E
:100EE00065D02068006800F0100000285FD094F8FA
:100EF0005C1020208840A86094F83500052828D18F
:100F00002068006820F016002168086020684069A9
:100F100020F0800021684861206C08B9A06C28B1DD
:100F20002068006820F008002168086094F85C10D0
:100F30003F208840A86000BF002084F8340000BF34
:100F4000012084F83500206D10B12046216D8847BE
:100F5000F8BD2068006800F4802080B12068006837
:100F600000F4002028B9606C10B12046616C8847FD
:100F70001DE0E06BD8B12046E16B884717E02068A0
:100F8000006800F4807068B92068006820F01000E4
:100F90002168086000BF002084F8340000BF0120F1
:100FA00084F83500E06B10B12046E16B8847606D36
:100FB00038B3606D00F00100F0B1052084F8350011
:100FC0002068006820F001002168086000BF0098D8
:100FD000401C0090B84200D905E02068006800F08D
:100FE00001000028F3D100BF00BF002084F83400C6
:100FF00000BF012084F83500E06C10B12046E16CA0
:10100000884700BFA4E70000100000202DE9F04150
:101010000446002500F0CCF9074614B90120BDE8CC
:10102000F081606A00B100BF00BF002084F8340086
:1010300000BF022084F835002068006820F001001D
:10104000216808600AE000F0B3F9C01B052805D943
:1010500020206065032084F83500E0E72068006800
:1010600000F001000028EED1206805682148054005
:10107000D4E901010843E168084321690843616933
:101080000843A1690843E1690843216A084305430D
:10109000606A042803D1D4E90B01084305432068A2
:1010A00005602068456925F00705606A0543606AA8
:1010B00004280DD1A06A0543E06A48B12046FFF735
:1010C000B5FB28B140206065012084F83500A6E713
:1010D000206845612046FFF78FFB064694F85C10B8
:1010E0003F208840B06000206065012084F8350012
:1010F000002094E73F8010F02DE9F04704460D46AC
:1011000016461F464FF00008D4F8589000BF94F8D8
:101110003400012802D10220BDE8F087012084F8C4
:10112000340000BF94F8350001282BD1022084F848
:101130003500002060653B46324629462046FFF7D1
:10114000CAFB94F85C103F208840C9F8080020686A
:10115000006840F01600216808602068406940F08F
:10116000800021684861206C28B12068006840F048
:101170000800216808602068006840F001002168CC
:10118000086006E000BF002084F8340000BF4FF084
:1011900002084046C0E70000F8B502460B460021B1
:1011A00000250024002000BFE4E0012606FA01F536
:1011B0001E6806EA0504AC4271D15E68012E08D0B3
:1011C0005E68022E05D05E68112E02D05E68122E77
:1011D00013D190684F000326BE40B0434F00DE6835
:1011E000BE4030439060506801268E40B0431E7967
:1011F000C6F300168E4030435060D0684F0003267F
:10120000BE40B0434F009E68BE403043D0605E6831
:10121000022E02D05E68122E13D1CF0802F12006F2
:1012200056F827004E07F70E0F26BE40B0434F0773
:10123000FF0E1E69BE403043CF0802F1200646F87B
:10124000270010684F000326BE40B0431E7906F009
:1012500003064F00BE40304310605E6806F08056C3
:10126000B6F1805FA8D100BF444E366846F4804690
:10127000424F3E603E46366806F48046009600BF08
:1012800000BF3F4E8F0856F827008E07370F0F26F6
:10129000BE40B0433B4EB24202D100262EE068E091
:1012A000394EB24201D1012628E0384EB24201D176
:1012B000022623E0364EB24201D103261EE0354E0F
:1012C000B24201D1042619E0334EB24201D10526C3
:1012D00014E0324EB24201D106260FE0304EB24247
:1012E00001D107260AE02F4EB24201D1082605E0BF
:1012F0002D4EB24201D1092600E00A268F073F0F8A
:10130000BE4030431E4E8F0846F82700274E3068F7
:10131000A0435E6806F48036B6F5803F00D12043D6
:10132000224E3060361D3068A0435E6806F40036F9
:10133000B6F5003F00D120431C4E361D3060361DEF
:101340003068A0435E6806F48016B6F5801F00D1B1
:101350002043164E08363060361D3068A0435E6864
:1013600006F40016B6F5001F00D120430F4E0C36D0
:101370003060491C1029FFF418AFF8BD4438024012
:10138000083801400000024000040240000802400A
:10139000000C0240001002400014024000180240FD
:1013A000001C02400020024000240240003C01409A
:1013B00001480068704700001400002003480068DE
:1013C0000349097808440149086070471400002067
:1013D0001C00002010B5032000F0A4F8002000F04D
:1013E00005F800F029F8002010BD000070B5044693
:1013F0000E4800784FF47A71B1FBF0F00C4909689F
:10140000B1FBF0F5284601F008F808B1012070BDE5
:10141000102C07D200222146501E00F045F8054846
:10142000046001E00120F2E70020F0E71C0000204A
:10143000100000201800002008B500BF1148006807
:1014400040F080500F4908600846006800F0805066
:10145000009000BF00BF00BF081D006840F480403E
:10146000091D08600846006800F48040009000BF35
:1014700000BF00221146052000F016F8052000F0FC
:1014800003F808BD4038024001460846002809DB41
:1014900000F01F0301229A4043099B0003F1E0235F
:1014A000C3F8002100BF70472DE9F05F80460D466C
:1014B0001646002701F086F8074639462A46334685
:1014C00001F00700C0F1070ABAF1040F02D94FF08A
:1014D000040A01E0C0F1070AD14600F1040ABAF19A
:1014E000070F02D24FF0000A01E0A0F1030AD44630
:1014F0004FF0010A0AFA09FAAAF1010A0AEA020AF5
:101500000AFA0CFA4FF0010B0BFA0CFBABF1010BD2
:101510000BEA030B4AEA0B042146404601F05AF855
:10152000BDE8F09F00BF00F00702064B19684FF6B8
:10153000FF031940044B0B4343EA0221014B19609E
:1015400000BF70470CED00E00000FA0538B500243C
:1015500000BF2048006840F080501E4908600846DF
:10156000006800F08050009000BF00BF1A4800687B
:1015700040F4803018490860FFF71AFF044607E07E
:10158000FFF716FF001BB0F57A7F01D9032038BDA5
:101590001148406800F48030B0F5803FF0D10E482B
:1015A000006840F400300C490860FFF701FF044672
:1015B00007E0FFF7FDFE001BB0F57A7F01D903209D
:1015C000E5E70548406800F40030B0F5003FF0D191
:1015D0000020DCE74038024000700040034800680B
:1015E00040F48070014908607047000000700040BE
:1015F0002DE9F8430446002600250027A846A94601
:10160000207800F0010088B100BFFE48006820F497
:101610000000FC49086008460068616B0843F9490E
:10162000086000BF606B08B94FF00108206800F443
:101630000020B0F5002F13D1F2488430006820F468
:101640004010E16B0843EF4984310860E06BB0F56E
:10165000801F01D14FF00108E06B08B94FF001097C
:10166000206800F48010B0F5801F13D1E548843065
:10167000006820F44000216C0843E249843108608E
:10168000206CB0F5800F01D14FF00108206C08B933
:101690004FF00109206800F08070B0F1807F01D127
:1016A0004FF00108207800F02000202870D100BF02
:1016B000D4483830006840F08050D2493831086052
:1016C0000846006800F08050009000BF00BFCE4880
:1016D000006840F48070CC490860FFF769FE064658
:1016E00007E0FFF765FE801B642802D90320BDE8F0
:1016F000F883C548006800F480700028F1D0C14824
:101700006830006800F4407585B3208E00F44070A6
:10171000A8422BD0BB486830006820F44075B94817
:101720006830006840F48030B64968310860084687
:10173000006820F48030086008460560006800F00A
:10174000010098B1FFF734FE064608E0FFF730FECF
:10175000801B41F28831884201D90320C7E7A9489C
:1017600068300068C0F340000028EFD000BF208E32
:1017700000F44070B0F5407F0BD1A248006820F41F
:10178000F810A24A216B114008439E49086006E008
:1017900010E09C48006820F4F8109A4908609948C5
:1017A00068300068218EC1F30B0108439549683108
:1017B000086000BF207800F01000102810D100BF92
:1017C00090488430006820F080708E498431086031
:1017D00008460068A16B08438A498431086000BF4D
:1017E000208800F48040B0F5804F09D185488830CA
:1017F000006820F44030616E0843824988310860F7
:10180000208800F40040B0F5004F09D17D488830B1
:10181000006820F44020A16E08437A4988310860AE
:10182000206800F48030B0F5803F09D175488830D9
:10183000006820F44010E16E084372498831086066
:10184000206800F40030B0F5003F09D16D488830C1
:10185000006820F44000216F08436A49883108601D
:10186000207800F04000402809D1664888300068A0
:1018700020F00300616C08436249883108602078D9
:1018800000F08000802809D15E488830006820F090
:101890000C00A16C08435B4988310860208800F483
:1018A0008070B0F5807F09D156488830006820F0FC
:1018B0003000E16C0843534988310860208800F407
:1018C0000070B0F5007F09D14E488830006820F0E4
:1018D000C000216D08434B4988310860208800F41E
:1018E0008060B0F5806F09D146488830006820F4E8
:1018F0004070616D0843434988310860208800F4D6
:101900000060B0F5006F09D13E488830006820F4CF
:101910004060A16D08433B4988310860208800F48D
:101920008050B0F5805F09D136488830006820F4D7
:101930004050E16D0843334988310860208800F445
:101940000050B0F5005F09D12E488830006820F4BF
:101950004040216E08432B4988310860206800F41C
:101960008000B0F5800F09D126488830006820F04B
:101970008060A16F0843234988310860206800F423
:101980000010B0F5001F0FD11E488830006820F00D
:101990000060E16F08431B4988310860E06FB0F1D7
:1019A000006F01D14FF00109207800F008000828ED
:1019B00001D14FF00109206800F48020B0F5802F9C
:1019C00009D110488830006820F04070616F0843EA
:1019D0000C4988310860206800F40000B0F5000F61
:1019E0000AD108488830006820F08050D4F8801070
:1019F0000843044988310860B8F1010F0BD0206812
:101A000006E000000838024000700040FFFCFF0FB5
:101A1000B0F1007F7DD1AD48006820F08060AB4917
:101A20000860FFF7C5FC064606E0FFF7C1FC801B17
:101A3000642801D903205AE6A4480068C0F3C060B6
:101A40000028F2D1207800F00100B8B1606BA8B98D
:101A50009E4884300068C0F301459C48843000688B
:101A6000C0F303676068800140EA054040EA07610F
:101A7000207A41EA0070954984310860206800F4BA
:101A80000020B0F5002F03D1E06BB0F5801F09D026
:101A9000206800F48010B0F5801F24D1206CB0F5D0
:101AA000800F20D1894884300068C0F30145874801
:101AB00084300068C0F302776068800140EA054125
:101AC000207B41EA006040EA077080498431086069
:101AD0007E488C30006820F01F00616A491E084370
:101AE0007A498C310860206800F08070B0F1807F06
:101AF00017D1764884300068C0F30365734884309A
:101B00000068C0F3027760688101208A41EA0040E2
:101B100000E031E040EA056040EA07706B4984313B
:101B20000860206800F00070B0F1007F0DD160689F
:101B30008101208A41EA0041207B41EA0061207A4C
:101B400041EA00706149843108606048006840F0F3
:101B500080605E490860FFF72BFC064606E0FFF751
:101B600027FC801B642801D90320C0E55748006882
:101B7000C0F3C0600028F2D0B9F1010F7ED1534804
:101B8000006820F0805051490860FFF711FC0646BC
:101B900006E0FFF70DFC801B642801D90320A6E5B1
:101BA0004A480068C0F340700028F2D1206800F471
:101BB0000020B0F5002F01D1E06B38B1206800F4AF
:101BC0008010B0F5801F22D1206C00BB3F488830C8
:101BD0000068C0F301453D4888300068C0F30277D3
:101BE0006069800140EA0541207E41EA006040EAE8
:101BF0000770364988310860081D006820F4F851E4
:101C0000A06A401E41EA002030498C3108602068FB
:101C100000F40010B0F5001F19D1E06FB0F1006FB3
:101C200015D12A4888300068C0F3036527488830FA
:101C30000068C0F3027760698101208C41EA0040AE
:101C400040EA056040EA0770204988310860207842
:101C500000F00800082820D11C4888300068C0F334
:101C600003651A4888300068C0F301476069800145
:101C700040EA074040EA0561207F00E024E041EAB5
:101C80000070124988310860081D006820F4403057
:101C9000E16A08430D498C3108600C48006840F047
:101CA00080500A490860FFF783FB064606E0FFF70D
:101CB0007FFB801B642801D9032018E503480068D6
:101CC000C0F340700028F2D0002010E50038024038
:101CD00070B504460D4600260CB9012070BD5C4865
:101CE000006800F00F00A8420ED25948006820F0AA
:101CF0000F002843564908600846006800F00F00AE
:101D0000A84201D00120E9E7207800F00200022873
:101D10001DD1207800F00400042805D14D4800684A
:101D200040F4E0504B490860207800F00800082893
:101D300005D14848006840F460404649086045487D
:101D4000006820F0F000A16808434249086020784C
:101D500000F0010090B36068012807D13D480838C1
:101D60000068C0F34040A0B90120B7E760680228CE
:101D700007D1384808380068C0F3406048B90120EE
:101D8000ACE7344808380068C0F3400008B90120C7
:101D9000A4E73048006820F00300616808432D493B
:101DA0000860FFF705FB064609E0FFF701FB801B13
:101DB00041F28831884202D903208FE707E02548A5
:101DC000006800F00C006168B0EB810FEDD1204895
:101DD000006800F00F00A8420ED91D48006820F0EE
:101DE0000F0028431A4908600846006800F00F00F9
:101DF000A84201D0012071E7207800F004000428F7
:101E000007D11448006820F4E050E1680843114904
:101E10000860207800F00800082808D10D48006804
:101E200020F46040216940EAC1000A49086000F0DE
:101E300019F808490968C1F30311074A515CC84001
:101E40000649086006480068FFF7D0FA002045E719
:101E5000003C0240083802405026000810000020D4
:101E6000180000202DE9F047002400250026A14697
:101E70002548006800F00C0020B1042805D008288F
:101E80003AD105E0DFF8849039E0DFF8849036E05D
:101E90001D48001F006800F03F041B48001F006839
:101EA00000F4800078B11A481749091F0968C1F386
:101EB0008811A0FB01700146224600233846FEF738
:101EC0009FF905460EE011480F49091F0968C1F343
:101ED0008811A0FB01700146224600233846FEF718
:101EE0008FF905460848001F0068C0F30140401CF8
:101EF0004600B5FBF6F902E0DFF8109000BF00BF26
:101F00004846BDE8F0870000083802400024F4008D
:101F100000366E01F8B5044600270CB90120F8BD63
:101F2000207800F00100002871D0F948006800F026
:101F30000C0004280DD0F648006800F00C000828BA
:101F400013D1F348001F006800F48000B0F5800F43
:101F50000BD1EF4808380068C0F34040002869D032
:101F60006068002866D10120D9E700BF6068B0F53D
:101F7000803F08D1E6480838006840F48030E449E2
:101F8000083908602EE0606868B9E14808380068E0
:101F900020F48030DE49083908600846006820F4E3
:101FA000802008601EE06068B0F5A02F0DD1D848F1
:101FB0000838006840F48020D54908390860084690
:101FC000006840F4803008600CE0D14808380068B0
:101FD00020F48030CE49083908600846006820F4B3
:101FE0008020086000BF606890B1FFF7E1F9054606
:101FF00006E0FFF7DDF9401B642801D903208EE7D6
:10200000C34808380068C0F340400028F1D011E010
:10201000FFF7CEF9054606E0FFF7CAF9401B642832
:1020200001D903207BE7BA4808380068C0F3404074
:102030000028F1D1207800F00200022869D1B448CC
:10204000006800F00C0058B1B148006800F00C00C6
:1020500008281CD1AE48001F006800F48000B0B909
:10206000AB4808380068C0F3400020B1E0680128A0
:1020700001D0012053E7A6480838006820F0F80096
:10208000216940EAC100A2490839086041E0E068DE
:1020900028B39F480838006840F001009C4908397F
:1020A0000860FFF785F9054606E0FFF781F9401B58
:1020B000022801D9032032E7954808380068C0F3A8
:1020C00040000028F1D092480838006820F0F8005D
:1020D000216940EAC1008E490839086019E08C483E
:1020E0000838006820F00100894908390860FFF7C6
:1020F0005FF9054606E0FFF75BF9401B022801D9AE
:1021000003200CE7824808380068C0F3400000282C
:10211000F1D1207800F00800082836D16069D0B1EC
:102120007B486C30006840F0010079496C310860F0
:10213000FFF73EF9054606E0FFF73AF9401B022893
:1021400001D90320EBE672486C300068C0F3400010
:102150000028F1D019E06E486C30006820F00100D2
:102160006B496C310860FFF723F9054606E0FFF77D
:102170001FF9401B022801D90320D0E664486C30C7
:102180000068C0F340000028F1D1207800F004007E
:10219000042874D15E483830006800F0805080B95F
:1021A00000BF5B483830006840F0805058493831F3
:1021B00008600846006800F08050009000BF00BF33
:1021C00001275448006800F48070B0B95148006895
:1021D00040F480704F490860FFF7EAF8054606E0D2
:1021E000FFF7E6F8401B642801D9032097E6494829
:1021F000006800F480700028F2D000BFA0680128B9
:1022000008D143486830006840F001004049683117
:1022100008602DE0A06868B93D486830006820F08B
:1022200001003B49683108600846006820F004005E
:1022300008601DE0A06805280DD1354868300068A9
:1022400040F004003249683108600846006840F0F8
:10225000010008600CE02E486830006820F00100A2
:102260002B49683108600846006820F004000860C7
:1022700000BFA068A8B1FFF79BF8054609E02EE073
:10228000FFF796F8401B41F28831884201D90320BC
:1022900045E61F4868300068C0F340000028EFD0D2
:1022A00013E0FFF785F8054608E0FFF781F8401BCB
:1022B00041F28831884201D9032030E61448683061
:1022C0000068C0F340000028EFD1012F07D110486B
:1022D0003830006820F080500D4938310860A0691E
:1022E000002852D00A48006800F00C00082865D089
:1022F000A06902284AD106480838006820F080709A
:10230000034908390860FFF753F805460BE0000061
:102310000838024000700040FFF74AF8401B0228CE
:1023200001D90320FBE53B480068C0F3406000286A
:10233000F2D1E06940F00050216A0843616A40EA46
:1023400081110122A06AC2EB500041EA00412C2019
:10235000005D41EA00602F49091D0860081F006800
:1023600040F08070091F0860FFF722F8054606E07C
:10237000FFF71EF8401B022801D90320CFE52548AE
:102380000068C0F340600028F2D040E021480068B7
:1023900020F080701F490860FFF70AF8054606E044
:1023A000FFF706F8401B022801D90320B7E51948BA
:1023B0000068C0F340600028F2D128E01548001DF5
:1023C0000668A069012820D006F48001E0698142F6
:1023D0001BD106F03F01206A814216D147F6C0703A
:1023E0003040616AB0EB811F0FD106F44031012209
:1023F000A06AC2EB5000B1EB004F06D106F070614D
:102400002C20005DB1EB006F01D0012087E500209A
:1024100085E5000000380240704770B50446254647
:10242000681EB0F1807F01D301200FE0681E4FF0DD
:10243000E02148610F214FF0FF3000F0CBF8002081
:102440004FF0E021886107200861002070BD10B5C1
:10245000FFF7E2FF10BD00BFFEE700BFFEE77047D9
:10246000704700BE7047704710B5FEF7A7FFFFF733
:10247000EEFF10BD00B5B3B0302127A8FDF7F8FE80
:10248000142122A8FDF7F4FE842101A8FDF7F0FE37
:10249000FFF7A4F800BF2F48006840F080502D4996
:1024A00008600846006800F08050009000BF00BF40
:1024B00000BF2948006840F44040274908600846AA
:1024C000006800F44040009000BF00BF082127A82A
:1024D000C1620C210162D82141624FF48030289002
:1024E00002202D90022127A881624905C1610120A7
:1024F000279027A8FFF70EFD08B1FEF703FAFFF7B4
:1025000025F808B1FEF7FEF9022023900020249060
:102510004FF4A05025904FF4805026900F20229029
:10252000072122A8FFF7D4FB08B1FEF7EBF9012041
:102530000A9002210391049132200290059108062D
:10254000019001A8FFF754F808B1FEF7DBF933B0AA
:1025500000BD000040380240007000401448006890
:1025600040F47000124908601248006840F0010011
:102570001049086000200F49083108600D480068C4
:102580000D4908400B4908600C48091D0860081FE8
:10259000006820F48020091F0860002005490C31E4
:1025A00008604FF000600249803908607047000001
:1025B00088ED00E000380240FFFFF6FE10300024F6
:1025C00000BFFEE702480068C0F302207047000029
:1025D0000CED00E010B5002804DB0A07130E054AD5
:1025E000135406E00A07140E034A00F00F031B1FE2
:1025F000D45410BD00E400E018ED00E002E008C88B
:10260000121F08C1002AFAD170477047002001E06C
:1026100001C1121F002AFBD170470000FEF7DAFE4D
:10262000FFF728FFFEF7C8F8FEF71AF8FDF768FF76
:1026300008E0FEF7AFF804490880FEF7A5F8034864
:1026400080ED000AF5E700000000002004000020F3
:102650000000000000000000010203040607080952
:102660000000000001020304000610160006101608
:10267000902600080000002020000000FC25000833
:10268000B026000820000020A81000000C2600083A
:10269000000000000000000000000000000000003A
:1026A0000024F40000000000100000000100000001
:04000005080001C925
:00000001FF
