:020000040800F2
:1000000020120020DD01000807210008E920000877
:10001000032100081109000839260008000000002B
:100020000000000000000000000000004D25000856
:100030002509000800000000092100084F250008DC
:10004000F7010008F7010008F7010008F7010008B0
:10005000F7010008F5240008F7010008F70100087F
:10006000F7010008F7010008F7010008F701000890
:10007000F7010008F7010008F7010008F701000880
:10008000F7010008F7010008F7010008F701000870
:10009000F7010008F7010008F7010008F701000860
:1000A000F7010008F7010008F7010008F701000850
:1000B000F7010008F7010008F7010008F701000840
:1000C000F7010008F7010008F7010008F701000830
:1000D000F7010008F7010008F7010008F701000820
:1000E000F7010008F7010008F7010008F701000810
:1000F000F7010008F7010008F7010008F701000800
:10010000F7010008F7010008F7010008F7010008EF
:10011000F7010008F7010008F7010008F7010008DF
:1001200015090008F7010008F7010008F7010008A9
:10013000F7010008F7010008F7010008F7010008BF
:10014000F7010008F7010008F7010008F7010008AF
:10015000F7010008F7010008F7010008F70100089F
:10016000F7010008F7010008F7010008F70100088F
:10017000F7010008F7010008F7010008F70100087F
:10018000F7010008F7010008F7010008F70100086F
:10019000F7010008F7010008F7010008F70100085F
:1001A000F7010008F7010008F7010008F70100084F
:1001B000F7010008F7010008F7010008F70100083F
:1001C000F7010008F7010008DFF80CD000F07AF81A
:1001D0000048004795260008201200200648804766
:1001E00006480047FEE7FEE7FEE7FEE7FEE7FEE71C
:1001F000FEE7FEE7FEE7FEE71D260008C90100084E
:100200002DE9F05F0546002092469B46884606464B
:10021000814640241BE0284641464746224600F0DE
:1002200041F853465A46C01A914110D31146184618
:10023000224600F028F82D1A67EB01084F462246A7
:100240000120002100F01FF817EB00094E41201E8D
:10025000A4F10104DFDC484631462A464346BDE8A6
:10026000F09FD2B201E000F8012B491EFBD270478B
:100270000022F6E710B513460A4604461946FFF772
:10028000F0FF204610BD202A04DB203A00FA02F1DC
:10029000002070479140C2F1200320FA03F3194374
:1002A00090407047202A04DB203A21FA02F0002116
:1002B000704721FA02F3D040C2F120029140084376
:1002C00019467047064C074D06E0E06840F0010310
:1002D00094E8070098471034AC42F6D3FFF778FF54
:1002E000202700084027000808B500BF47480068DD
:1002F00040F00100454908600846006800F0010030
:10030000009000BF00BF00BF0846006840F0020038
:1003100008600846006800F00200009000BF00BFBF
:1003200000BF0846006840F0040008600846006806
:1003300000F00400009000BF00BF00BF0846006846
:1003400040F0080008600846006800F008000090CF
:1003500000BF00BF00BF0846006840F01000086002
:100360000846006800F01000009000BF00BF00BF0A
:100370000846006840F0200008600846006800F069
:100380002000009000BF00BF00BF0846006840F09A
:10039000400008600846006800F04000009000BF80
:1003A00000BF00BF0846006840F0800008600846B3
:1003B000006800F08000009000BF00BF00BF08464A
:1003C000006840F4807008600846006800F480709F
:1003D000009000BF00BF00BF0846006840F40070F6
:1003E00008600846006800F40070009000BF00BF7D
:1003F00000BF0846006840F4806008600846006856
:1004000000F48060009000BF00BF08BD303802409B
:1004100010B51D481D490860084601F013F808B1E1
:10042000012010BD5C2000F033FE4021184800F090
:10043000F1FB0421164800F0EDFB4FF480711548E4
:1004400000F0E8FB4FF40071124800F0E3FB0421D8
:10045000114800F0DFFB40210E4800F0DBFB0F48A5
:10046000006840F002000D4908600846006820F06E
:100470000200086009482030006820F002000749A7
:10048000203108600020CCE7001000A0D00100203F
:1004900000040240001402400010024018380240DC
:1004A00010B590B00446002C33D0382102A8FFF7D5
:1004B000DFFE00200090019000F040F810B1012014
:1004C00010B010BD04200790002004904FF0407041
:1004D0000B90801309904FF40050059000200D9070
:1004E0004FF48070089000200F90EB2002900020C5
:1004F0000E9006904FF440400A900020009001902A
:100500006A4602A90C4801F015F808B10120D7E7A6
:100510000FE0094800F092FE08B10120D0E7FFF794
:1005200077FF08B10120CBE700F0B8F808B101204F
:10053000C6E70020C4E70000D001002000B595B058
:1005400002201490382106A8FFF792FE142101A87A
:10055000FFF78EFE01F092FF10B1012015B000BD33
:1005600000200390012002900420019003200490B9
:1005700001A9324800F00EFC012204212F4800F0AE
:1005800015FD0120109000200B904FF080700F900F
:1005900000200D901190312006904FF480700C9047
:1005A0000020139012900E9041F2883206A9244840
:1005B00000F0F6FE08B10120D0E741F2883214A91C
:1005C0001F4801F009F908B10120C7E74FF448704E
:1005D00001F09CFD08B10120C0E73520069041F2F2
:1005E000883206A9164800F0DBFE08B10120B5E705
:1005F00041F2883214A9124801F076F808B10120BE
:10060000ACE78020149041F2883214A90C4801F024
:10061000E3F808B10120A1E74FF4487001F076FD3E
:1006200008B101209AE7022002900920059001A953
:10063000024800F0AFFB002090E7000000100240ED
:10064000D001002000B58FB0002006900A90C7208E
:100650000190002008900C904FF4807007900020CB
:100660000E9009900D9001F009FF10B101200FB01C
:1006700000BD41F2883201A9064800F091FE08B1A0
:100680000120F4E7044801F041FD08B10120EEE744
:100690000020ECE7D001002090D0030010B51048F6
:1006A000104908600120486004210E488160102133
:1006B000C160172101614FF4A06141610021816196
:1006C000C16100F0D7FE01F081FE08B1042010BD29
:1006D00001F040FE08B10420F9E70020F7E7000030
:1006E000001000A0D001002010B590B004463821C1
:1006F00001A8FFF7BDFD02200B90902001904FF064
:1007000080700A9080130890C000049000200C9024
:100710004FF48070079000200E900D90099041F2E8
:10072000883201A90C4800F03BFE10B1012010B046
:1007300010BD41F288320FA9074800F0D5FF08B17B
:100740000120F4E79DF83D009DF83C1040EA0120AF
:1007500020600020EBE70000D001002010B590B031
:10076000044603200B90002006904FF080700A9002
:10077000002008909F2001904FF40050049000202A
:100780000C904FF48070079000200E900D9009900F
:1007900041F2883201A90E4800F002FE10B101209A
:1007A00010B010BD41F288320FA9094800F09CFF3B
:1007B00008B10120F4E79DF83E009DF83D1040EAA5
:1007C00001209DF83C1040EA014020600020E7E74E
:1007D000D001002010B590B0044600200F903821C1
:1007E00001A8FFF745FD02200B901F2006904B202B
:1007F00001904FF080700A90002008904FF4005054
:10080000049000200C904FF48070079000200E9010
:100810000D90099041F2883201A90C4800F0C0FD0A
:1008200010B1012010B010BD41F288320FA9074865
:1008300000F05AFF08B10120F4E79DF83D009DF853
:100840003C1040EA012020600020EBE7D0010020AE
:100850002DE9F0438FB080460D4616464FF0000953
:100860000027002401E004F58074AC42FBD9671B2B
:10087000B74200D937462C4605EB06090020069002
:100880004FF080700A9080130890C0000490002000
:100890000C904FF48070079000200E900220019081
:1008A000002009900D9000BF02940B9701F0E6FD27
:1008B00018B101200FB0BDE8F08341F2883201A9E0
:1008C000124800F06DFD08B10120F3E741F28832D3
:1008D00041460E4800F080FF08B10120EAE741F2EE
:1008E000883001F013FC08B10120E3E7B8443C4430
:1008F00004F58070484502D9A9EB040001E04FF4EB
:10090000807007464C45CFD30020D3E7D0010020AC
:1009100000BFFEE710B50249886B00F05BF810BD20
:10092000880100207047704770B50446A56D00F03F
:1009300043FB064694F83500022808D08020606505
:1009400000BF002084F8340000BF012070BD206883
:10095000006820F01600216808602068406920F0D7
:10096000800021684861206C08B9A06C28B120681B
:10097000006820F00800216808602068006820F006
:100980000100216808600FE000F016FB801B0528BD
:100990000AD92020606500BF002084F8340000BF21
:1009A000032084F83500D1E72068006800F00100DA
:1009B0000028E9D194F85C103F208840A86000BF6F
:1009C000002084F8340000BF012084F835000020A6
:1009D000BCE70000F8B50446002000908C48006891
:1009E0004FF41651B0FBF1F7A56D2E6894F85C102A
:1009F00008208840304098B12068006800F004006A
:100A000070B12068006820F004002168086094F844
:100A10005C1008208840A860606D40F001006065AF
:100A200094F85C1001208840304068B1206840692B
:100A300000F0800040B194F85C1001208840A8606C
:100A4000606D40F00200606594F85C1004208840FE
:100A5000304068B12068006800F0020040B194F8AE
:100A60005C1004208840A860606D40F00400606560
:100A700094F85C1010208840304078B320680068FB
:100A800000F0080050B394F85C1010208840A86073
:100A90002068006800F4802080B12068006800F4BD
:100AA000002028B9206CC8B12046216C884715E089
:100AB000A06C98B12046A16C88470FE020680068C0
:100AC00000F4807028B92068006820F008002168D0
:100AD0000860206C10B12046216C884794F85C10A7
:100AE000202088403040002865D02068006800F051
:100AF000100000285FD094F85C1020208840A86087
:100B000094F83500052828D12068006820F01600E8
:100B1000216808602068406920F0800021684861F1
:100B2000206C08B9A06C28B12068006820F008008B
:100B30002168086094F85C103F208840A86000BFDE
:100B4000002084F8340000BF012084F83500206DB7
:100B500010B12046216D8847F8BD2068006800F478
:100B6000802080B12068006800F4002028B9606C03
:100B700010B12046616C88471DE0E06BD8B120467B
:100B8000E16B884717E02068006800F4807068B95E
:100B90002068006820F010002168086000BF002075
:100BA00084F8340000BF012084F83500E06B10B1F8
:100BB0002046E16B8847606D38B3606D00F001003E
:100BC000F0B1052084F835002068006820F00100AD
:100BD0002168086000BF0098401C0090B84200D90E
:100BE00005E02068006800F001000028F3D100BF94
:100BF00000BF002084F8340000BF012084F83500D5
:100C0000E06C10B12046E16C884700BFA4E700000B
:100C100018010020F0B50C46002500220023002119
:100C20009CE0012606FA01F504EA0502AA427CD1FD
:100C30004C4E8F0856F827308E07370F0F26BE40D0
:100C40003340494EB04201D100262DE0474EB0421C
:100C500001D1012628E0464EB04201D1022623E010
:100C6000444EB04201D103261EE0434EB04201D1B2
:100C7000042619E0414EB04201D1052614E0404E51
:100C8000B04201D106260FE03E4EB04201D1072608
:100C90000AE03D4EB04201D1082605E03B4EB0428D
:100CA00001D1092600E00A268F073F0FBE409E4271
:100CB00022D1374E36689643354F3E603E1D36682A
:100CC00096433F1D3E603E1D366896433F1D3E6085
:100CD0003E1D366896433F1D3E608E07370F0F2638
:100CE00006FA07F31F4E8F0856F827609E431D4FE4
:100CF0004FEA910C47F82C6006684FEA410C032735
:100D000007FA0CF7BE430660CF0800F1200656F83C
:100D100027604F074FEAD76C0F2707FA0CF7BE433F
:100D20004FEAD10C00F1200700E016E047F82C60F4
:100D3000C6684FEA410C032707FA0CF7BE43C660AA
:100D4000476801268E40B743476086684FEA410CEA
:100D5000032707FA0CF7BE438660491C1029FFF4ED
:100D600060AFF0BD083801400000024000040240BE
:100D700000080240000C0240001002400014024033
:100D800000180240001C02400020024000240240E3
:100D9000003C0140F8B502460B4600210025002426
:100DA000002000BFE4E0012606FA01F51E6806EA0D
:100DB0000504AC4271D15E68012E08D05E68022E37
:100DC00005D05E68112E02D05E68122E13D1906895
:100DD0004F000326BE40B0434F00DE68BE403043A4
:100DE0009060506801268E40B0431E79C6F300160D
:100DF0008E4030435060D0684F000326BE40B04361
:100E00004F009E68BE403043D0605E68022E02D024
:100E10005E68122E13D1CF0802F1200656F8270083
:100E20004E07F70E0F26BE40B0434F07FF0E1E6958
:100E3000BE403043CF0802F1200646F82700106874
:100E40004F000326BE40B0431E7906F003064F0054
:100E5000BE40304310605E6806F08056B6F1805F99
:100E6000A8D100BF444E366846F48046424F3E60EB
:100E70003E46366806F48046009600BF00BF3F4EEF
:100E80008F0856F827008E07370F0F26BE40B04355
:100E90003B4EB24202D100262EE068E0394EB2420B
:100EA00001D1012628E0384EB24201D1022623E0CA
:100EB000364EB24201D103261EE0354EB24201D178
:100EC000042619E0334EB24201D1052614E0324E19
:100ED000B24201D106260FE0304EB24201D10726C0
:100EE0000AE02F4EB24201D1082605E02D4EB24253
:100EF00001D1092600E00A268F073F0FBE4030438C
:100F00001E4E8F0846F82700274E3068A0435E68C3
:100F100006F48036B6F5803F00D12043224E306083
:100F2000361D3068A0435E6806F40036B6F5003F13
:100F300000D120431C4E361D3060361D3068A04362
:100F40005E6806F48016B6F5801F00D12043164E69
:100F500008363060361D3068A0435E6806F400161F
:100F6000B6F5001F00D120430F4E0C363060491CEF
:100F70001029FFF418AFF8BD44380240083801408A
:100F8000000002400004024000080240000C024041
:100F9000001002400014024000180240001C0240F1
:100FA0000020024000240240003C01400AB181615F
:100FB00001E00B048361704701480068704700003E
:100FC0001C010020034800680349097808440149CE
:100FD000086070471C0100202401002010B5032088
:100FE00000F0C6F8002000F005F800F029F8002015
:100FF00010BD000070B504460E4800784FF47A71B9
:10100000B1FBF0F00C490968B1FBF0F5284601F09E
:1010100051F808B1012070BD102C07D200222146E2
:10102000501E00F067F80548046001E00120F2E777
:101030000020F0E7240100201801002020010020FA
:1010400008B500BF1148006840F080500F490860A3
:101050000846006800F08050009000BF00BF00BF4D
:10106000081D006840F48040091D086008460068BB
:1010700000F48040009000BF00BF00221146052010
:1010800000F038F8052000F025F808BD403802408F
:1010900010B501460846002817DB00F01F030122A7
:1010A0009A400B4B440943F8242000BF00BF00BF07
:1010B000BFF34F8F00BF00BF00BF00BF00BF00BF26
:1010C000BFF36F8F00BF00BF00BF00BF10BD0000A7
:1010D00080E100E001460846002809DB00F01F031C
:1010E00001229A4043099B0003F1E023C3F8002149
:1010F00000BF70472DE9F05F80460D461646002779
:1011000001F09CFA074639462A46334601F00700AB
:10111000C0F1070ABAF1040F02D94FF0040A01E046
:10112000C0F1070AD14600F1040ABAF1070F02D252
:101130004FF0000A01E0A0F1030AD4464FF0010A83
:101140000AFA09FAAAF1010A0AEA020A0AFA0CFAE8
:101150004FF0010B0BFA0CFBABF1010B0BEA030B8D
:101160004AEA0B042146404601F070FABDE8F09FC0
:1011700000BF00F00702064B19684FF6FF03194045
:10118000044B0B4343EA0221014B196000BF704737
:101190000CED00E00000FA0538B5002400BF20483F
:1011A000006840F080501E4908600846006800F062
:1011B0008050009000BF00BF1A48006840F48030A3
:1011C00018490860FFF7F8FE044607E0FFF7F4FE51
:1011D000001BB0F57A7F01D9032038BD1148406863
:1011E00000F48030B0F5803FF0D10E48006840F444
:1011F00000300C490860FFF7DFFE044607E0FFF708
:10120000DBFE001BB0F57A7F01D90320E5E7054836
:10121000406800F40030B0F5003FF0D10020DCE77A
:1012200040380240007000400348006840F480707D
:10123000014908607047000000700040F8B504469E
:101240000025FFF7B9FE064694F8410000F00200C1
:1012500000283ED000BF002084F8400000BF206876
:10126000006800F0040070B12068006820F00400FD
:1012700021680860E06BFFF757FB05461DB1606C05
:1012800040F0040060642068006840F002002168BB
:101290000860A06C3346012202210090204601F034
:1012A000C7F805465DB902202168C860A06C3346C6
:1012B000002220210090204601F0BAF8054645B9E9
:1012C0002068406920F0406021684861012084F86E
:1012D00041002846F8BD2DE9F84304460E46154660
:1012E0009846FFF769FE8146B06900B100BFF0691A
:1012F00000B100BF306A00B100BF00BF94F84000E9
:10130000012802D10220BDE8F883012084F84000C2
:1013100000BF94F8410001283AD1002060644220C7
:1013200084F841004B46002220212046CDF8008061
:1013300001F07EF8074657BB286821688862686814
:1013400021684862A8682168C8622068006820F4A3
:101350004000296941F48001084321680860E86879
:10136000B0624FF000623146204600F0FFFE4B466F
:10137000012208212046CDF8008001F059F80746E7
:101380002FB908202168C860012084F8410000E0DE
:10139000022700BF002084F8400000BF3846B2E7B3
:1013A0002DE9F84304460D461746FFF705FE804633
:1013B000A86900B100BFE86900B100BF286A00B1A8
:1013C00000BF00BF94F84000012802D10220BDE810
:1013D000F883012084F8400000BF94F84100012800
:1013E00028D100206064022084F841004346002296
:1013F00020212046009701F01BF80646DEB90022A6
:101400002946204600F0B2FE686A78B943460122B8
:1014100002212046009701F00BF806465EB9022033
:101420002168C860012084F8410004E0012084F8AC
:10143000410000E0022600BF002084F8400000BF09
:101440003046C4E710B504460CB9012010BD206831
:10145000006820F0010021680860204600F0C0F814
:101460000020606484F8410000BF84F8400000BFA1
:1014700000BFEBE7F8B50446FFF79EFD06460CB942
:101480000120F8BD206A402800D000BF94F8410038
:1014900050B9002084F84000204600F0CDF841F219
:1014A0008831204600F096F92068006820F4F85151
:1014B000A068401E41EA002021680860A06C334605
:1014C000002220210090204600F0B2FF054635BBE7
:1014D0002179E06840EA0160E1690843216A084334
:1014E00021680968114A1140084321680860208A70
:1014F000616941EA0040A1690843216849680C4AD2
:1015000011400843216848602068006840F00100ED
:101510002168086000206064012084F8410000BF59
:10152000002084F8400000BF2846AAE72FFFFF00F4
:10153000FEF8E0FF2DE9F84304460D461646FFF796
:101540003BFD8046A86900B100BFE86900B100BF5B
:10155000286A00B100BF00BF94F84000012802D102
:101560000220BDE8F883012084F8400000BF94F811
:10157000410001282CD100206064822084F84100C1
:10158000A06C4346002220210090204600F050FF2E
:101590000746F7B92068006820F008007168084322
:1015A00021680860706808280BD1306821680863DA
:1015B00010202168C8602068006840F4801021680D
:1015C00008604FF040622946204600F0CFFD00E061
:1015D000022700BF002084F8400000BF3846C0E763
:1015E00010B504461048006820F002000E4908605B
:1015F00040210E48FFF70EFB04210C48FFF70AFBC1
:101600004FF480710A48FFF705FB4FF4007108485A
:10161000FFF700FB04210748FFF7FCFA40210448CC
:10162000FFF7F8FA10BD000038380240000402400D
:10163000001402400010024010B586B00446142188
:1016400001A8FEF715FE00BF2348006840F0020025
:10165000214908600846006800F00200009000BFC1
:1016600000BF002003900220029003200490042079
:1016700001900920059001A91848FFF78BFB0A206B
:1016800005904FF48070019001A91548FFF782FB87
:101690000A2005904FF40070019001A91048FFF74F
:1016A00079FB092005900420019001A90D48FFF75E
:1016B00071FB092005904020019001A90848FFF71F
:1016C00069FB402001900A20059001A90348FFF71B
:1016D00061FB06B010BD0000383802400004024033
:1016E00000140240001002402DE9F84F04460E4657
:1016F00017460025FFF760FC80462068D0F8189058
:10170000206800F1200A00BF94F84000012802D1AF
:101710000220BDE8F88F012084F8400000BF94F853
:10172000410001284ED100206064002E44D02220C8
:1017300084F8410020680069401CA06320680069AB
:10174000401C606326632068406920F0406040F0E0
:101750008060216848612068C0F8189013E0434613
:10176000012206212046009700F062FE054605B1E1
:101770000CE09AF80000216B0870206B401C20637D
:10178000A06B401EA063A06B0028E8D100BF7DB90C
:101790004346012202212046009700F049FE0546FB
:1017A00035B902202168C8602046FFF747FD05468D
:1017B000012084F8410006E0606C40F0080060649D
:1017C000012500E0022500BF002084F8400000BF92
:1017D00028469EE7816470472DE9F84304460E468B
:1017E00017460025FFF7E8FB8046206800F1200936
:1017F00000BF94F84000012802D10220BDE8F88320
:10180000012084F8400000BF94F84100012849D12C
:1018100000206064002E3FD0122084F84100206830
:101820000069401CE06220680069401CA06266629A
:101830002068406920F040602168486113E0434619
:10184000012204212046009700F0F2FD054605B173
:101850000CE0606A007889F80000606A401C6062F1
:10186000E06A401EE062E06A0028E8D100BF7DB96E
:101870004346012202212046009700F0D9FD05468B
:1018800035B902202168C8602046FFF7D7FC05461D
:10189000012084F8410006E0606C40F008006064BC
:1018A000012500E0022500BF002084F8400000BFB1
:1018B0002846A3E770B504460D4600260CB9012062
:1018C00070BD5C48006800F00F00A8420ED2594875
:1018D000006820F00F002843564908600846006859
:1018E00000F00F00A84201D00120E9E7207800F0C5
:1018F000020002281DD1207800F00400042805D140
:101900004D48006840F4E0504B490860207800F0F2
:101910000800082805D14848006840F4604046495E
:1019200008604548006820F0F000A168084342497B
:101930000860207800F0010090B36068012807D1AA
:101940003D4808380068C0F34040A0B90120B7E71F
:101950006068022807D1384808380068C0F3406042
:1019600048B90120ACE7344808380068C0F34000AB
:1019700008B90120A4E73048006820F0030061683E
:1019800008432D490860FFF717FB064609E0FFF7FB
:1019900013FB801B41F28831884202D903208FE774
:1019A00007E02548006800F00C006168B0EB810F8B
:1019B000EDD12048006800F00F00A8420ED91D4864
:1019C000006820F00F0028431A49086008460068A4
:1019D00000F00F00A84201D0012071E7207800F04C
:1019E0000400042807D11448006820F4E050E1689E
:1019F000084311490860207800F00800082808D141
:101A00000D48006820F46040216940EAC1000A499D
:101A1000086000F019F808490968C1F30311074A82
:101A2000515CC8400649086006480068FFF7E2FAC2
:101A3000002045E7003C0240083802400827000823
:101A400018010020200100202DE9F0470024002586
:101A50000026A1462548006800F00C0020B10428AB
:101A600005D008283AD105E0DFF8849039E0DFF8A6
:101A7000849036E01D48001F006800F03F041B48BA
:101A8000001F006800F4800078B11A481749091F48
:101A90000968C1F38811A0FB0170014622460023AA
:101AA0003846FEF7ADFB05460EE011480F49091F09
:101AB0000968C1F38811A0FB01700146224600238A
:101AC0003846FEF79DFB05460848001F0068C0F336
:101AD0000140401C4600B5FBF6F902E0DFF810902B
:101AE00000BF00BF4846BDE8F0870000083802404C
:101AF0000024F40000366E0170B586B006460C4630
:101B0000154636BB00BF2748006840F00100254954
:101B100008600846006800F00100009000BF00BFA8
:101B20008815019002200290032004900020039069
:101B3000059001A91C48FFF72DF91A4828380068BC
:101B400020F0EC6044EA0501084316492839086092
:101B500025E000BF1348006840F004001149086008
:101B60000846006800F00400009000BF00BF481560
:101B70000190022002900320049000200390059021
:101B800001A90A48FFF706F906482838006820F03E
:101B9000784044EAC501084302492839086006B084
:101BA00070BD0000303802400000024000080240D2
:101BB000F8B5044600270CB90120F8BD207800F0E4
:101BC0000100002871D0F948006800F00C000428DA
:101BD0000DD0F648006800F00C00082813D1F34837
:101BE000001F006800F48000B0F5800F0BD1EF48B3
:101BF00008380068C0F34040002869D060680028B9
:101C000066D10120D9E700BF6068B0F5803F08D1F8
:101C1000E6480838006840F48030E4490839086034
:101C20002EE0606868B9E1480838006820F4803028
:101C3000DE49083908600846006820F48020086002
:101C40001EE06068B0F5A02F0DD1D84808380068B4
:101C500040F48020D549083908600846006840F4FF
:101C6000803008600CE0D1480838006820F48030EB
:101C7000CE49083908600846006820F480200860D2
:101C800000BF606890B1FFF797F9054606E0FFF7DF
:101C900093F9401B642801D903208EE7C348083814
:101CA0000068C0F340400028F1D011E0FFF784F94C
:101CB000054606E0FFF780F9401B642801D90320A0
:101CC0007BE7BA4808380068C0F340400028F1D1EB
:101CD000207800F00200022869D1B448006800F0C2
:101CE0000C0058B1B148006800F00C0008281CD165
:101CF000AE48001F006800F48000B0B9AB48083857
:101D00000068C0F3400020B1E068012801D0012044
:101D100053E7A6480838006820F0F800216940EA37
:101D2000C100A2490839086041E0E06828B39F4833
:101D30000838006840F001009C4908390860FFF746
:101D40003BF9054606E0FFF737F9401B022801D9A9
:101D5000032032E7954808380068C0F340000028A7
:101D6000F1D092480838006820F0F800216940EA74
:101D7000C1008E490839086019E08C4808380068AD
:101D800020F00100894908390860FFF715F9054678
:101D900006E0FFF711F9401B022801D903200CE7E8
:101DA000824808380068C0F340000028F1D120784C
:101DB00000F00800082836D16069D0B17B486C304B
:101DC000006840F0010079496C310860FFF7F4F8D1
:101DD000054606E0FFF7F0F8401B022801D9032072
:101DE000EBE672486C300068C0F340000028F1D088
:101DF00019E06E486C30006820F001006B496C31CE
:101E00000860FFF7D9F8054606E0FFF7D5F8401B54
:101E1000022801D90320D0E664486C300068C0F382
:101E200040000028F1D1207800F00400042874D18B
:101E30005E483830006800F0805080B900BF5B48D1
:101E40003830006840F08050584938310860084602
:101E5000006800F08050009000BF00BF0127544888
:101E6000006800F48070B0B95148006840F4807098
:101E70004F490860FFF7A0F8054606E0FFF79CF819
:101E8000401B642801D9032097E64948006800F404
:101E900080700028F2D000BFA068012808D1434814
:101EA0006830006840F001004049683108602DE06A
:101EB000A06868B93D486830006820F001003B49DF
:101EC000683108600846006820F0040008601DE0E2
:101ED000A06805280DD135486830006840F004003E
:101EE0003249683108600846006840F00100086027
:101EF0000CE02E486830006820F001002B49683162
:101F000008600846006820F00400086000BFA06870
:101F1000A8B1FFF751F8054609E02EE0FFF74CF8AD
:101F2000401B41F28831884201D9032045E61F4811
:101F300068300068C0F340000028EFD013E0FFF7DE
:101F40003BF8054608E0FFF737F8401B41F28831BF
:101F5000884201D9032030E6144868300068C0F395
:101F600040000028EFD1012F07D110483830006819
:101F700020F080500D4938310860A069002852D007
:101F80000A48006800F00C00082865D0A069022803
:101F90004AD106480838006820F0807003490839A3
:101FA0000860FFF709F805460BE00000083802401A
:101FB00000700040FFF700F8401B022801D9032001
:101FC000FBE53B480068C0F340600028F2D1E069BF
:101FD00040F00050216A0843616A40EA8111012201
:101FE000A06AC2EB500041EA00412C20005D41EAAA
:101FF00000602F49091D0860081F006840F08070CC
:10200000091F0860FEF7D8FF054606E0FEF7D4FF7B
:10201000401B022801D90320CFE525480068C0F302
:1020200040600028F2D040E02148006820F0807035
:102030001F490860FEF7C0FF054606E0FEF7BCFF3B
:10204000401B022801D90320B7E519480068C0F3F6
:1020500040600028F2D128E01548001D0668A069FC
:10206000012820D006F48001E06981421BD106F0EE
:102070003F01206A814216D147F6C0703040616A44
:10208000B0EB811F0FD106F440310122A06AC2EBF0
:102090005000B1EB004F06D106F070612C20005DBE
:1020A000B1EB006F01D0012087E5002085E500003D
:1020B0000038024070B504462546681EB0F1807FA6
:1020C00001D301200FE0681E4FF0E02148610F218D
:1020D0004FF0FF3000F0BAFA00204FF0E0218861A5
:1020E00007200861002070BD0AE014F0040F00D141
:1020F00000BF00D000BF00BF00F0FEF900BE00BF6F
:10210000F3E700BFFEE770477047000010B594B0DA
:10211000044600200B904FF080700F9000200D902F
:1021200005200690002011904FF480700C90002044
:1021300013900E90129000900120039010200290B6
:1021400001200190002004904FF480000590234668
:102150006A4606A90448FFF7BEF810B1012014B082
:1021600010BD0020FBE70000D001002010B54B6A35
:1021700033B1B2F1406F03D08B6A5B1E04682361F8
:102180008B69002B76D00B6AE3B38B680468E3613C
:10219000CB69FBB1D1E90B3423434C6B23434C6A2D
:1021A00023438C8A43EA84430C6923430C6A234308
:1021B000CC682343CC6923438C6923430C682343B5
:1021C000134304686361B2F1406F02D04B68046846
:1021D000A361BEE0D1E90B3423434C6B23434C6A2B
:1021E00023438C8A43EA84430C6923430C6A2343C8
:1021F000CC6923438C6923430C682343134304684D
:102200006361A6E0FFE7CB69EBB1D1E90B3423436F
:102210004C6B23434C6A23438C8A43EA84430C6A05
:102220002343CC682343CC6923438C6923430C6844
:102230002343134304686361B2F1406FC9D04B6814
:102240000468A36185E0D1E90B3423434C6B23433D
:102250004C6A23438C8A43EA84430C6A2343CC6947
:1022600023438C6923430C6823431343046863614D
:102270006FE0FFE70B6AC3B38B680468E361CB6967
:10228000EBB1D1E90B3423434C6B23434C6A23431A
:102290008C8A43EA84430C6923430C6A2343CC6849
:1022A0002343CC6923438C6923431343046863614C
:1022B000B2F1406F4DD04B680468A36149E0D1E9A9
:1022C0000B3423434C6B23434C6A23438C8A43EAED
:1022D00084430C6923430C6A2343CC6923438C69F0
:1022E000234313430468636133E0FFE7CB69DBB149
:1022F000D1E90B3423434C6B23434C6A23438C8A30
:1023000043EA84430C6A2343CC682343CC692343C8
:102310008C692343134304686361B2F1406F18D0A2
:102320004B680468A36114E04B6A93B1D1E90B34A4
:1023300023434C6B23434C6A23438C8A43EA8443F4
:102340000C6A2343CC6923438C69234313430468F9
:10235000636110BD00B58FB030200E903821684603
:10236000FDF786FF00F08AF810B101200FB000BD24
:1023700001200A904FF040700990002007900B90C8
:10238000C02000908000069000200D900C900890D6
:1023900041F2883269460C48FFF702F808B1012083
:1023A000E4E741F288320EA90748FFF715FA08B1B1
:1023B0000120DBE741F28830FFF7A8FE08B10120D9
:1023C000D4E70020D2E70000D001002000B58FB094
:1023D000002006900A9066200190002008900C9042
:1023E0004FF48070079000200E9009900D9041F2FC
:1023F000883201A90D48FEF7D3FF10B101200FB0BC
:1024000000BD9920019041F2883201A90748FEF7EA
:10241000C7FF08B10120F2E741F28830FFF776FEEE
:1024200008B10120EBE70020E9E70000D00100201F
:102430002DE9F04104460E4617469846069D12E0E7
:10244000681C80B1FEF7B8FDA0EB0800A84200D8D8
:102450004DB9042084F84100606C40F001006064D4
:102460000120BDE8F08120688068304008B101207B
:1024700000E00020B842E3D10020F2E700B595B0BB
:1024800000200C9010900620079000200E901290D3
:102490004FF480700D90002014900F90139041F233
:1024A000883207A91248FEF77BFF10B1012015B052
:1024B00000BD0120049010200390022001900290A2
:1024C000002005904FF48000069001201190000636
:1024D00010900520079041F2883301AA07A904480B
:1024E000FEF7F9FE08B10120E1E70020DFE7000078
:1024F000D0010020704700008DB002680C92426845
:102500000B9282680A92C268099202690892426933
:10251000079282690692C26905920B4A1268049278
:10252000094A121F12680392074A0832126802927F
:10253000054A0C3212680192034A10321268009266
:1025400000BE0DB0704700002CED00E0704710B5E4
:10255000FEF738FD10BD000000B593B0302107A88C
:10256000FDF786FE142102A8FDF782FEFEF75CFE51
:1025700000BF2848006840F080502649086008469F
:10258000006800F08050019000BF00BF00BF2248EB
:10259000006840F44040204908600846006800F4A4
:1025A0004040019000BF00BF012007900004089048
:1025B00002200D9041050E910C210F91C821109120
:1025C000022111910821129107A8FFF7F1FA08B131
:1025D000FEF7A9F9FEF7E0FD08B1FEF7A4F90F2018
:1025E000029002200390002004904FF4A050059028
:1025F0004FF480500690062102A8FFF75BF908B15E
:10260000FEF791F94FF0E06200210120FFF774FA24
:1026100013B000BD4038024000700040054800681B
:1026200040F47000034908604FF0006001498039B0
:102630000860704788ED00E000BFFEE702480068D0
:10264000C0F30220704700000CED00E010B5002838
:1026500004DB0A07130E054A135406E00A07140E9A
:10266000034A00F00F031B1FD45410BD00E400E028
:1026700018ED00E002E008C8121F08C1002AFAD1D4
:1026800070477047002001E001C1121F002AFBD1F2
:1026900070470000FEF7A2FCFFF75EFFFDF724FE87
:1026A000FDF7FCFF1148FEF759F81148FEF71CF83A
:1026B0001048FEF78FF810480068012803D1FDF795
:1026C000C1FF0E4908700C480068012807D1F122AB
:1026D0000B4801680B48FEF7BBF808490870012059
:1026E000FDF7DEFE0549087000BFFEE70800002088
:1026F0000C0000201000002004000020000000203A
:102700001400002024000020000000000000000051
:102710000102030406070809000000000102030487
:10272000402700080000002028010000742600084F
:102730006828000828010020F810000084260008FE
:102740000000000000000000000000000000000089
:102750000000000000000000000000000000000079
:1027600000000000202A2A2A2A5153504920636F72
:102770006D6D756E69636174696F6E2062617365FA
:1027800064206F6E2049542A2A2A2A20202A2A2AC5
:102790002A5153504920636F6D6D756E6963617482
:1027A000696F6E206261736564206F6E2049542AE0
:1027B0002A2A2A20202A2A2A2A5153504920636F84
:1027C0006D6D756E69636174696F6E2062617365AA
:1027D00064206F6E2049542A2A2A2A20202A2A2A75
:1027E0002A5153504920636F6D6D756E6963617432
:1027F000696F6E206261736564206F6E2049542A90
:102800002A2A2A20202A2A2A2A5153504920636F33
:102810006D6D756E69636174696F6E206261736559
:1028200064206F6E2049542A2A2A2A20202A2A2A24
:102830002A5153504920636F6D6D756E69636174E1
:10284000696F6E206261736564206F6E2049542A3F
:102850002A2A2A20000000000024F40000000000C2
:0828600010000000010000005F
:04000005080001C925
:00000001FF
