:020000040800F2
:1000000020140020DD010008755100080D4B000888
:1000100071510008E10A0008415600080000000084
:100020000000000000000000000000007D510008FA
:10003000D30E000800000000775100087F5100082F
:10004000F7010008F7010008F7010008F7010008B0
:10005000F701000879510008F7010008F7010008CE
:10006000F7010008F7010008F7010008F701000890
:10007000F7010008F7010008F7010008F701000880
:10008000F7010008F7010008F7010008F701000870
:10009000F7010008F7010008F7010008F701000860
:1000A000F7010008F7010008F7010008F701000850
:1000B000F7010008F7010008F7010008F701000840
:1000C000F7010008F7010008F7010008F701000830
:1000D000F7010008F7010008F7010008F701000820
:1000E000F7010008F7010008F7010008F701000810
:1000F000F7010008F7010008F7010008F701000800
:10010000F7010008F7010008F7010008F7010008EF
:10011000F7010008F7010008F7010008F7010008DF
:10012000890D0008990D0008F7010008F701000883
:10013000F7010008F7010008F7010008F7010008BF
:10014000F7010008F7010008F7010008F7010008AF
:10015000F7010008F7010008F7010008F70100089F
:10016000F7010008F7010008F7010008F70100088F
:10017000F7010008F7010008910C0008F7010008DA
:10018000F7010008F7010008F7010008F70100086F
:10019000F7010008F7010008F7010008F70100085F
:1001A000F7010008F7010008F7010008F70100084F
:1001B000F7010008F7010008F7010008F70100083F
:1001C000F7010008F7010008DFF80CD000F08CF808
:1001D000004800479D56000820140020064880472C
:1001E00006480047FEE7FEE7FEE7FEE7FEE7FEE71C
:1001F000FEE7FEE7FEE7FEE775520008C9010008CA
:100200002DE9F05F0546002092469B46884606464B
:10021000814640241BE0284641464746224600F0DE
:1002200053F853465A46C01A914110D31146184606
:10023000224600F03AF82D1A67EB01084F46224695
:100240000120002100F031F817EB00094E41201E7B
:10025000A4F10104DFDC484631462A464346BDE8A6
:10026000F09F40EA01039B0703D009E008C9121F71
:1002700008C0042AFAD203E011F8013B00F8013B60
:10028000521EF9D27047D2B201E000F8012B491E8C
:10029000FBD270470022F6E710B513460A46044623
:1002A0001946FFF7F0FF204610BD202A04DB203A54
:1002B00000FA02F1002070479140C2F1200320FAB9
:1002C00003F3194390407047202A04DB203A21FAB7
:1002D00002F00021704721FA02F3D040C2F120025F
:1002E0009140084319467047064C074D06E0E06808
:1002F00040F0010394E8070098471034AC42F6D36D
:10030000FFF766FF249E0008449E000870B504466F
:100310000548006800F082FE05462B462246002173
:10032000024801F027F870BD380000206C0300205F
:100330007047704770B505460126114C1148206082
:10034000002161612161E160A161002060602021E4
:10035000A160204600F0E4FE602005F045FB262861
:1003600009D1094809490860084600682946026819
:1003700060209047002606480560304670BD0000AA
:100380006C030020000005503C00002034000020D9
:10039000380000207047000008B500BF1C48006806
:1003A00040F400001A4908600846006800F40000A4
:1003B000009000BF00BF0020164948600221154888
:1003C00081600021C1608162FF2141630221C1621D
:1003D0000021016310480F490860084601F0B2F897
:1003E000A0B901210B4801F047F878B90B48006823
:1003F00000900B484FF040420A490368054801F05D
:1004000085F918B90A21034801F0CDF808BD0000AC
:10041000303802405800002000B0024004000020A4
:1004200000000020008025C000B585B001200290AA
:100430000C20049002200190032003904CF20370E2
:10044000009069460C4802F041FC4FF68070009025
:1004500069460A4802F03AFC4FF23F0000906946B4
:10046000074802F033FC372000906946054802F047
:100470002DFC05B000BD0000000C02400010024041
:10048000001402400018024008B500BF4748006849
:1004900040F00100454908600846006800F001008E
:1004A000009000BF00BF00BF0846006840F0020097
:1004B00008600846006800F00200009000BF00BF1E
:1004C00000BF0846006840F0040008600846006865
:1004D00000F00400009000BF00BF00BF08460068A5
:1004E00040F0080008600846006800F0080000902E
:1004F00000BF00BF00BF0846006840F01000086061
:100500000846006800F01000009000BF00BF00BF68
:100510000846006840F0200008600846006800F0C7
:100520002000009000BF00BF00BF0846006840F0F8
:10053000400008600846006800F04000009000BFDE
:1005400000BF00BF0846006840F080000860084611
:10055000006800F08000009000BF00BF00BF0846A8
:10056000006840F4807008600846006800F48070FD
:10057000009000BF00BF00BF0846006840F4007054
:1005800008600846006800F40070009000BF00BFDB
:1005900000BF0846006840F48060086008460068B4
:1005A00000F48060009000BF00BF08BD30380240FA
:1005B0007CB5044600F066F8054600F053F80646A0
:1005C0000020CDE900040848006800EB800202EB3F
:1005D000C002064800EB82002B463246416A0248C0
:1005E000006804F079FC7CBD300000205C02002033
:1005F00010B5A2B00446C02006900521089108203D
:10060000019040030C9001A803F094F922B010BDB2
:1006100010B50021044804F035FA00224FF480712F
:10062000024802F05FFC10BDE401002000200240FF
:1006300010B509480068806940F001000649096862
:1006400088610021054804F0EBF9012211020448F9
:1006500002F048FC10BD000024020020E40100204C
:10066000002002400548006800EB800101EBC0015A
:10067000034800EB8100806A7047000030000020D2
:100680005C0200200548006800EB800101EBC0011E
:10069000034800EB8100C06A704700003000002072
:1006A0005C02002010B504F0BBFB1E481E49086028
:1006B00000211D484161022181612E21C161192162
:1006C000016240F24E31416240F2F911816240F222
:1006D0000F2101634FF48461C162FFF789FF00219C
:1006E000114880F8341080F8351080F836104FF437
:1006F000487101664FF4F071416600200A49486074
:10070000002109488160C160016102F038FF10B921
:10071000054800F053F8044802F036FF00F00CF9E9
:10072000002010BD006801402402002030B58DB0CB
:1007300004460D4600200090FFF794FF0190002032
:100740000290FFF79FFF0390099502200490FF207D
:1007500005900020069000218DF832108DF83000B1
:100760008DF831104FF4C060079007200890FFF714
:1007700079FF0A90FFF786FF0B90224669460C48E6
:1007800002F0CEFE0B4804EB44010B4A02EB810160
:1007900088604FF0FF3004EB440102EB81014860B8
:1007A000000604EB440142F821000DB030BD00000A
:1007B0002402002010000020CC01002010B586B0DB
:1007C000044600BF2848006840F080602649086061
:1007D0000846006800F08060009000BF00BF00BFC6
:1007E00021481438006840F400001F49143908609B
:1007F0000846006800F40000009000BF00BF002021
:1008000003900E20059002200290032004904020C7
:10081000019001A9154802F059FA4FF422400190C5
:1008200001A9134802F052FA4EF20340019001A9C7
:10083000104802F04BFA4FF2BB50019001A90E484C
:1008400002F044FAFC20019001A90C4802F03EFAA3
:10085000012002900002019001A9064802F036FA38
:10086000FFF7D6FE06B010BD443802400018024023
:10087000001C0240002002400024024000280240E8
:1008800001490860704700003000002010B50129C0
:100890000CD1114A12688432C301D25842F00103CC
:1008A0000D4A12688432C40113510BE00A4A1268DF
:1008B0008432C301D25822F00103074A12688432FD
:1008C000C4011351044A1268526A42F00102024BF9
:1008D0001B685A6210BD0000240200202DE9F0417F
:1008E00004460E4617461D46DDF81880234642464C
:1008F0002946054802F00BFF23463A463146024896
:1009000002F0CFFEBDE8F0812402002000B585B0E2
:1009100014216846FFF7BEFC0020029001200090E1
:100920000020019003906946024802F0CFF905B01B
:1009300000BD00000000024010B501241A481B4908
:10094000086002201A49486188610620C8600420B6
:10095000886002200860086107204860E1021348AF
:10096000016200201149486010211048016109010D
:10097000816109014162002181620821C160012178
:100980008160402141610021C16100F067F80849A0
:10099000064803F0E3FE00B100E0002440F6182012
:1009A00000F008F8204610BD400100A00C03002014
:1009B0004003002038B5044600200090012025495E
:1009C000086010204860012088600020C8604FF651
:1009D000FF72214803F0F7FE012002F0A3F8022085
:1009E0001C49086010204860012088600020C86011
:1009F0004FF6FF72184803F0E6FE03201549086021
:100A000010204860082088600020C8604FF6FF7200
:100A1000114803F0D8FE4FF40870009004200D49EF
:100A2000086010204860012088600098C8604FF678
:100A3000FF72094803F0C7FE2146074803F0AFFEE6
:100A400005480068406940F61821084302490968D2
:100A5000486138BD5C0300200C03002010B586B04F
:100A6000044600BF1948006840F0010017490860BB
:100A70000846006800F00100009000BF00BFFFF7CB
:100A8000D3FC012003900C2005900220029003204B
:100A900004900120019001A90D4802F017F94FF4CC
:100AA0000060019001A90B4802F010F94FF40140D9
:100AB000019001A9084802F009F90C20019001A950
:100AC000064802F003F906B010BD000038380240B5
:100AD000000802400014024000180240001C0240BE
:100AE00000BFFEE710B50446204602F01BF810BD1B
:100AF00010B50D4802F020FAA0B90C480A49086068
:100B00000021094881604161094807494860002186
:100B10000548816101620121C16000210161C1615B
:100B200002F00EFA10BD00008001002000540040C9
:100B3000FFEAC0007FB504460D4600260020039062
:100B40004FF47A70012103AA0B46CDE900210290EF
:100B50002A462146054802F055FA064616B12046B7
:100B600004F054F99DF80C0004B070BD8001002021
:100B700077B583B004460D4600266420012105AAFE
:100B80000B46CDE9002102902A462146044802F096
:100B900009FB064616B1204604F038F906B070BDD0
:100BA0008001002070B50546AC6BA06C406D02283A
:100BB00006D0012084F83500E06C40F04000E0648D
:100BC000204600F044FA70BD70B506460025B46BAF
:100BD000A06B68B3A06C0068006800F40025A06BEF
:100BE00000F0010078B975B1A06C0068C568E26BCF
:100BF000082303FB02510022A06C00F0AEFDA06BA5
:100C0000401EA0632FE0A06C0068006800F4002084
:100C100048BBA06C00680569E26B082303FB025126
:100C20000122A06C00F099FDA06B401EA0631AE0A9
:100C3000A06C0068006800F4002020B1D4E9110124
:100C40000968C8600FE0A06C0068006800F400202C
:100C500048B9656CE06B042101FB0050A16C096888
:100C60000861206CA063A06B216C88420ED12068C3
:100C7000C06840F001002168C8602068006800F08A
:100C80000200022802D1012084F8350070BD000066
:100C900010B5024800F0E6F910BD00006C0300201A
:100CA0002DE9F0470C4617469C46DDF82080D0F829
:100CB0000090D9F8449009F0404948EA0C4A49EAC2
:100CC0000A09D0F800A0CAF84490D0F80090C9F8FA
:100CD0003C70D0F80490B9F5403F4ED104F07F4607
:100CE00004F47F0104F47F42E3B2D0F80890B9F134
:100CF000000F06D142EA010949EA060949EA03055B
:100D000036E0D0F80890B9F1010F04D142EA0109A8
:100D100049EA03052CE0D0F80890B9F1020F09D197
:100D2000C90C920ADB084FEA421949EAC12949EA8B
:100D300003051DE0D0F80890B9F1030F0CD1F60FB0
:100D4000C90CD20ADB084FEA421949EA812949EA6B
:100D5000C63949EA03050BE0360F090D120B1B09D2
:100D60004FEA021949EA012949EA063949EA030525
:100D7000D0F80090C9F8385003E0D0F80090C9F8D6
:100D80000C40BDE8F087000010B50249886B01F007
:100D9000E3FC10BD3801002010B50249886C01F059
:100DA000DBFC10BD6C0300200146087810381823C6
:100DB000B0FBF3F20848805CC865032A05D90868CF
:100DC0006FF30900001D886503E008686FF30900F0
:100DD0008865886D704700001C9E00080146002051
:100DE0008A6A8B69CBB932B1012A0DD0022A03D0AD
:100DF000032A10D10EE000BFCB6A03F08073B3F179
:100E0000807F00D1012007E0CB6AB3F1C07F00D121
:100E1000012001E000E000BF34E08B69B3F5005F22
:100E20001AD132B1012A07D0022A03D0032A11D1E4
:100E30000AE000BF01200EE0CB6A03F08073B3F13B
:100E4000807F00D1012006E0CB6AB3F1C07F00D1E2
:100E5000012000E000BF15E032B1012A05D0022ACE
:100E600004D0032A0CD103E000BF00BF012008E03A
:100E7000CB6A03F08073B3F1807F00D1012000E0E2
:100E800000BF00BF704710B5046863608468402CE1
:100E900004D10468A2600468E16003E00468A16012
:100EA0000468E26010BD30B50468246824F480242E
:100EB00005682C60046863608468402C04D1046871
:100EC000A2600468E16003E00468A1600468E26075
:100ED00030BD704700BE704730B502460023002485
:100EE0000868012816D013686FF30E03D1E90105D5
:100EF0002843CD6828430D6928434D6928438D69EF
:100F00002843CD6928430D6A28434D6A284303438B
:100F1000136019E0136823F4F843D1E90705284367
:100F20004D6A2843034354686FF30E04D1E9010569
:100F30002843CD6828430D6928434D6928438D69AE
:100F40002843044313605460002030BD02465069BA
:100F500040EA410050610020704718B50346002068
:100F60000090D1E9000420438C68641E40EA4410DC
:100F7000CC6840EA4420009000981861002018BD19
:100F800070B50346154600220024012D1FD09A6833
:100F900002F070420868401E4E68761E40EA06164F
:100FA0008868401E46EA0026C868401E46EA0036A9
:100FB000088A401E46EA0046888A401E46EA0056D5
:100FC000087E401E46EA006002439A6022E09A686A
:100FD00011480240C868401E0603888A401E46EA3F
:100FE00000500243DC6804F070440868401E4E68FC
:100FF000761E40EA06168868401E46EA0026088AE1
:10100000401E46EA0046087E401E46EA0060044351
:101010009A60DC60002070BDFF0F0FFF01460020CA
:1010200031B1012907D0022908D003290CD108E0E9
:101030004FF4165009E04FF4164006E04FF47F409D
:1010400003E04FF4163000E000BF00BF704710B55A
:101050000446FFF76DF910BD10B50446FFF769F9B6
:1010600010BD000070B504462068056905F0040055
:1010700004280ED121684861E06C40F00200E06471
:10108000042084F835002548A16C0865A06C01F0A7
:101090004FFB05F00200022812D121684861E06C84
:1010A00040F00100E064042084F835001B48A16C86
:1010B0000865A06C01F03CFB10B1A06CFFF772FD5D
:1010C00005F01000102804D121684861204600F086
:1010D00077F805F00800082804D121684861204607
:1010E00000F0C4F905F00100B8B12068006800F014
:1010F0000200022805D12068C06820F01E00216887
:10110000C8602068C06820F001002168C860012024
:10111000216848612046FFF79FFF70BDA50B0008BE
:1011200010B504460CB9012010BD94F8350010B973
:10113000204600F04BF8022084F83500A06908B181
:1011400000216162206800681C490840216808602D
:10115000616960680843E168084321690843A16840
:101160000843A1690843216A0843616A0843A16AE8
:101170000843E16A0843216B084321680968084372
:1011800021680860606810280BD1217F607F41EAE8
:101190000021A07F41EA0041E07F41EA0060216830
:1011A00088612068C06840F01E002168C860002087
:1011B000E064012084F835000020B5E707F0E0FF87
:1011C00010B50446FFF7E6F810BD000010B586B074
:1011D0000446142101A8FFF75DF8012003900D20BB
:1011E000059002200290032004905849206888420C
:1011F0007DD100BF5648006840F0010054490860A6
:101200000846006800F00100009000BF00BF00BF6A
:10121000081F006840F48000091F08600846006845
:1012200000F48000009000BF00BF4020019001A9A1
:10123000484801F04BFD4FF48060019001A94648F9
:1012400001F044FD4FF4A840019001A9434801F08A
:101250003DFD7020019001A9414801F037FD40207B
:10126000019001A93F4801F031FD5020019001A9F2
:101270003D4801F02BFD002003900120029000204A
:1012800004904FF48450019001A9354801F01EFDEF
:1012900000228021324801F025FE642001F042FC4A
:1012A00001224FF484512E4801F01CFE642001F00D
:1012B00039FC00224FF48051294801F013FE6420CC
:1012C00001F030FC01221103254801F00BFE6420DF
:1012D00001F028FC4FF480712448C161480423497F
:1012E0004860C113214801610021C16000E02AE08B
:1012F0004FF4003101620021C16201634FF480416B
:101300008161891041610021416281600321816214
:1013100017481649086000BF0846A064846300BFF0
:1013200000220F214E2002F061FA4E2002F04EFA08
:1013300000220F21392002F059FA392002F046FA32
:10134000A06C01F029FB06B010BD000000000550A4
:10135000343802400008024000180240001C0240DD
:10136000002002400010024000000240BC030020A8
:10137000286402402DE9F84304460F4615461E46F0
:101380004FF0000800BF94F83400012802D1022079
:10139000BDE8F883012084F8340000BF022084F8FF
:1013A00035002068006840F48040216808602068AB
:1013B000006820F002002168086020680068384357
:1013C000216808602748A16CC8632748A16CC864DD
:1013D0000020A16C0865A0632064E0636064B6F53A
:1013E000803F0AD2226802F1280133462A46A06CC7
:1013F00001F048FB48B30120CAE71A48A16C4864D1
:101400000120A063E663656405E0E06B4008E063EB
:10141000A06B4000A063E06BB0F5803FF5D2A06BFD
:10142000801EA063A06B2064E06B042101FB0058C8
:10143000E06B0090226802F1280143462A46A06C26
:1014400000F094F908B10120A2E72068006840F09C
:1014500001002168086000BF002084F8340000BF4C
:1014600000BF95E7C90B0008A50B000810B504469E
:10147000FEF792FF10BD000070B502460C465068A2
:10148000B0F5403F02D0506800B100BF00BF92F8F5
:101490003800012801D1022070BD012082F83800F7
:1014A00000BF022082F8390002F1180000EB04119D
:1014B0000E89486840EA0643214D48680A2802D050
:1014C0004868092804D1C86800F07F40034302E05F
:1014D000087B43EA0063A4B91068406AA843184334
:1014E0001668706208681668B06148680A2802D0F9
:1014F0004868092819D1C86820F07F401668B06292
:1015000013E01068C069A84318431668F0610868C2
:101510001668306148680A2802D04868092804D152
:10152000C86820F07F4016683062012082F83900D8
:1015300000BF002082F8380000BF00BFACE7000009
:101540000F0003FF10B504460CB9012010BD94F83C
:10155000390028B9002084F83800204600F022F82D
:10156000022084F839002068006820F44030616867
:101570000843216808602068406B20F00700A168DC
:101580000843216848632068006C6FF30D00E16830
:101590000843216808640020E063012084F83900D2
:1015A0000020D3E77047F8B504460D4600200090B0
:1015B0002068006800F00100002843D001F098FC8A
:1015C000064639E0206840680090009800F021004D
:1015D000E0B1009800F0200018B1E06B40F002008C
:1015E000E063009800F0010018B1E06B40F00100EA
:1015F000E063212021688860042084F8390000BF5E
:10160000002084F8380000BF0120F8BD681C98B1A4
:1016100001F06EFC801BA84200D86DB9E06B40F071
:101620002000E063032084F8390000BF002084F824
:10163000380000BF0320E8E72068406800F002009F
:101640000028BFD02068C06900F020072068406AE9
:1016500000F020000743002F4BD001F049FC064664
:1016600041E0206840680090009800F0290020B315
:10167000009800F0080018B1E06B40F00400E0634F
:10168000009800F0200018B1E06B40F00200E06329
:10169000009800F0010018B1E06B40F00100E06339
:1016A000292021688860042084F8390000BF0020C8
:1016B00084F8380000BF0120A7E7681C98B101F04A
:1016C00017FC801BA84200D86DB9E06B40F02000E9
:1016D000E063032084F8390000BF002084F838005C
:1016E00000BF032091E72068406800F01000002848
:1016F000B7D0122021688860012084F8390000BF2B
:10170000002084F8380000BF00BF7EE72DE9F843D1
:1017100004460D4616461F46DDF8208000BF94F8AB
:101720003800012802D10220BDE8F883012084F8A6
:10173000380000BF022084F839003B463246294673
:101740002046CDF80080FFF7ABFA2068006840F033
:101750000100216808600020E6E7034612B9186816
:10176000C16001E018680161002070472DE9F04771
:1017700004460E4617461D46DDF820804FF000094E
:10178000A068802804D1400060650120BDE8F08792
:1017900000BF94F83400012801D10220F6E70120AF
:1017A00084F8340000BF94F83500012873D102207A
:1017B00084F83500002060652068006840F48020CF
:1017C000216808602068056143463A463146204654
:1017D000FFF759FBFA49206888425DD9F94920682A
:1017E000884201D1202052E0F549483920688842DA
:1017F00001D120204BE0F34960312068884201D1BB
:10180000202044E0EE4918312068884201D1202090
:101810003DE0EC4918312068884201D1C01436E01F
:10182000E74930392068884201D1C0142FE0E549EA
:1018300078312068884201D1C01428E0E049303175
:101840002068884201D1C01421E0DE49303120688F
:10185000884202D14FF4001019E0D94918392068A4
:10186000884202D14FF4001011E0D649903120682F
:10187000884202D14FF4001009E0D1494831206874
:10188000884202D14FF4001001E04FF00060CC49D3
:101890004C39086020E1EFE3CA49A831206888424A
:1018A0005CD9C8492068884201D1202052E0C4494F
:1018B00048392068884201D120204BE0C14960317D
:1018C0002068884201D1202044E0BD4918312068B9
:1018D000884201D120203DE0BA4918312068884271
:1018E00001D1C01436E0B64930392068884201D1B0
:1018F000C0142FE0B34978312068884201D1C01468
:1019000028E0AF4930312068884201D1C01421E07D
:10191000AC4930312068884202D14FF4001019E000
:10192000A74918392068884202D14FF4001011E00D
:10193000A44990312068884202D14FF4001009E098
:101940009F4948312068884202D14FF4001001E0DD
:101950004FF000609A4950390860BDE0994948311C
:10196000206888425CD997492068884201D12020AC
:1019700052E0934948392068884201D120204BE049
:10198000904960312068884201D1202044E08C4990
:1019900018312068884201D120203DE08949183162
:1019A0002068884201D1C01436E08549303920686A
:1019B000884201D1C0142FE08249783120688842E2
:1019C00001D1C01428E07E4930312068884201D11D
:1019D000C01421E07B4930312068884202D14FF4A5
:1019E000001019E0764918392068884202D14FF476
:1019F000001011E0734990312068884202D14FF401
:101A0000001009E06E4948312068884202D14FF445
:101A1000001001E04FF000606A491039C8605BE0D7
:101A200068492068884201D1202052E06449483941
:101A30002068884201D120204BE062496031206853
:101A4000884201D1202044E05D4918312068884255
:101A500001D120203DE05B4918312068884201D146
:101A6000C01436E0564930392068884201D1C0148C
:101A70002FE0544978312068884201D1C01428E011
:101A80004F4930312068884201D1C01421E04D49CE
:101A900030312068884202D14FF4001019E04849E3
:101AA00018392068884202D14FF4001011E04549EE
:101AB00090312068884202D14FF4001009E040497B
:101AC00048312068884202D14FF4001001E04FF005
:101AD00000603C49103988603949206888425CD9E7
:101AE00038492068884201D1102052E034494839F1
:101AF0002068884201D110204BE0324960312068D3
:101B0000884201D1102044E02D49183120688842D4
:101B100001D110203DE02B4918312068884201D1C5
:101B2000001536E0264930392068884201D1001579
:101B30002FE0244978312068884201D1001528E03F
:101B40001F4930312068884201D1001521E01D492C
:101B500030312068884202D14FF4801019E01849D2
:101B600018392068884202D14FF4801011E01549DD
:101B700090312068884202D14FF4801009E010496A
:101B800048312068884202D14FF4801001E04FF0C4
:101B900080600B494C39086020E10A49A83120686F
:101BA00088425FD907492068884201D1102055E05A
:101BB000034948392068884206D110204EE00000D1
:101BC0005864024010600240F8492068884201D100
:101BD000102043E0F6492068884201D110203DE002
:101BE000F24948392068884201D1001536E0F049B1
:101BF00048392068884201D100152FE0EB4918319F
:101C00002068884201D1001528E0E9491831206890
:101C1000884201D1001521E0E4493039206888422A
:101C200002D14FF4801019E0E14930392068884230
:101C300002D14FF4801011E0DC4930312068884235
:101C400002D14FF4801009E0D94930312068884230
:101C500002D14FF4801001E04FF08060D449683920
:101C60000860BBE0D1491839206888425BD9CF4968
:101C700060392068884201D1102050E0CC49603999
:101C80002068884201D1102049E0C8492068884274
:101C900001D1102043E0C6492068884201D11020BC
:101CA0003DE0C24948392068884201D1001536E03C
:101CB000BF4948392068884201D100152FE0BB494F
:101CC00018312068884201D1001528E0B849183140
:101CD0002068884201D1001521E0B44930392068DC
:101CE000884202D14FF4801019E0B14930392068A0
:101CF000884202D14FF4801011E0AC4930312068A5
:101D0000884202D14FF4801009E0A949303120689F
:101D1000884202D14FF4801001E04FF08060A34967
:101D20007039C8605AE0A14960392068884201D101
:101D3000102050E09E4960392068884201D110206F
:101D400049E09A492068884201D1102043E098492F
:101D50002068884201D110203DE09449483920682C
:101D6000884201D1001536E09149483920688842FF
:101D700001D100152FE08D4918312068884201D12A
:101D8000001528E08A4918312068884201D10015E1
:101D900021E0864930392068884202D14FF4801012
:101DA00019E0834930392068884202D14FF480100D
:101DB00011E07E4930312068884202D14FF4801012
:101DC00009E07B4930312068884202D14FF480100D
:101DD00001E04FF0806075497039886074491839A6
:101DE000206888425BD9714960392068884201D1F6
:101DF000082050E06E4960392068884201D10820EF
:101E000049E06A492068884201D1082043E06849D6
:101E10002068884201D108203DE0644948392068A3
:101E2000884201D1401536E061494839206888422E
:101E300001D140152FE05D4918312068884201D159
:101E4000401528E05A4918312068884201D14015D0
:101E500021E0564930392068884202D14FF40020F1
:101E600019E0534930392068884202D14FF40020EC
:101E700011E04E4930312068884202D14FF40020F1
:101E800009E04B4930312068884202D14FF40020EC
:101E900001E04FF000704649643908601FE1434992
:101EA0004831206888425BD94049603920688842BF
:101EB00001D1082050E03E4960392068884201D1B4
:101EC000082049E039492068884201D1082043E0D0
:101ED00037492068884201D108203DE0334948391C
:101EE0002068884201D1401536E0314948392068E0
:101EF000884201D140152FE02C49183120688842D2
:101F000001D1401528E02A4918312068884201D1C2
:101F1000401521E0254930392068884202D14FF42C
:101F2000002019E0224930392068884202D14FF45C
:101F3000002011E01D4930312068884202D14FF461
:101F4000002009E01A4930312068884202D14FF45C
:101F5000002001E04FF00070154968390860BEE0CC
:101F600012491839206888425DD9104960392068C3
:101F7000884201D1082052E00D496039206888422A
:101F800001D108204BE009492068884201D108208E
:101F900045E007492068884201D108203FE0034915
:101FA00048392068884205D1401538E07060024009
:101FB00070640240FA492068884201D140152EE041
:101FC000F8492068884201D1401528E0F449603181
:101FD0002068884201D1401521E0F2494839206843
:101FE000884202D14FF4002019E0ED4918312068F1
:101FF000884202D14FF4002011E0EA4918312068EC
:10200000884202D14FF4002009E0E5497831206888
:10201000884202D14FF4002001E04FF00070E14906
:102020008839C8605BE0DF4978392068884201D18F
:10203000082051E0DA4918392068884201D1082087
:102040004AE0D84918392068884201D1082043E085
:10205000D34948312068884201D108203CE0D14969
:1020600060392068884201D1401535E0CC492068AC
:10207000884202D140152FE04CE3CA4920688842CB
:1020800001D1401528E0C64960312068884201D15D
:10209000401521E0C34948392068884202D14FF4F5
:1020A000002019E0BE4918312068884202D14FF45F
:1020B000002011E0BB4918312068884202D14FF45A
:1020C000002009E0B64978312068884202D14FF4F7
:1020D000002001E04FF00070B24988398860B049B3
:1020E0003031206888425BD9AE497839206888420F
:1020F00001D1042050E0AA4918392068884201D152
:10210000042049E0A74918392068884201D10420F9
:1021100042E0A34948312068884201D104203BE0D5
:10212000A04960392068884201D1801534E09C497B
:102130002068884201D180152EE09A4920688842A3
:1021400001D1801528E0964960312068884201D18C
:10215000801521E0934948392068884202D14FF424
:10216000802019E08E4918312068884202D14FF44E
:10217000802011E08B4918312068884202D14FF449
:10218000802009E0864978312068884202D14FF4E6
:10219000802001E04FF0807081491C3908601EE109
:1021A00080493031206888425BD97E49783920687F
:1021B000884201D1042050E07949183920688842CA
:1021C00001D1042049E0774918392068884201D1BB
:1021D000042042E0724948312068884201D104203D
:1021E0003BE0704960392068884201D1801534E0B5
:1021F0006B492068884201D180152EE0694920682A
:10220000884201D1801528E0654960312068884204
:1022100001D1801521E0634948392068884202D104
:102220004FF4802019E05E4918312068884202D1BD
:102230004FF4802011E05B4918312068884202D1B8
:102240004FF4802009E0564978312068884202D155
:102250004FF4802001E04FF0807051492039086030
:10226000BDE050493039206888425BD94D49783902
:102270002068884201D1042050E04949183920687B
:10228000884201D1042049E0464918392068884233
:1022900001D1042042E0424948312068884201D1FE
:1022A00004203BE03F4960392068884201D1801515
:1022B00034E03B492068884201D180152EE039493D
:1022C0002068884201D1801528E0354960312068B6
:1022D000884201D1801521E032494839206888427E
:1022E00002D14FF4802019E02D491831206888422E
:1022F00002D14FF4802011E02A4918312068884229
:1023000002D14FF4802009E02549783120688842C5
:1023100002D14FF4802001E04FF0807021498839CC
:10232000C8605CE01F4978392068884201D10420E8
:1023300052E01B4918392068884201D104204BE043
:10234000184918392068884201D1042044E0144912
:1023500048312068884201D104203DE011496039AC
:102360002068884201D1801536E00D4920688842F6
:1023700001D1801530E00B492068884201D18015D9
:102380002AE0074960312068884201D1801523E0A6
:10239000044948392068884206D14FF480201BE068
:1023A0002864024088600240DF492068884202D1E8
:1023B0004FF4802010E0DD492068884202D14FF4BC
:1023C000802009E0D84960312068884202D14FF46A
:1023D000802001E04FF08070D449A0398860D24954
:1023E0001831206888425BD9D049903920688842EA
:1023F00001D1012050E0CC4930392068884201D118
:10240000012049E0C94930392068884201D10120C2
:1024100042E0C54930312068884201D101203BE0CB
:10242000C24978392068884201D1402034E0BE4951
:1024300018392068884201D140202DE0BB49183965
:102440002068884201D1402026E0B7494831206801
:10245000884201D140201FE0B44960392068884299
:1024600002D14FF4803017E0AF492068884202D192
:102470004FF4803010E0AD492068884202D14FF41B
:10248000803009E0A84960312068884202D14FF4C9
:10249000803001E04FF48000A349343908601CE12A
:1024A000A2491831206888425BD9A0499039206838
:1024B000884201D1012050E09B4930392068884290
:1024C00001D1012049E0994930392068884201D181
:1024D000012042E0944930312068884201D1012036
:1024E0003BE0924978392068884201D1402034E0AD
:1024F0008D4918392068884201D140202DE08B4950
:1025000018392068884201D1402026E086494831A8
:102510002068884201D140201FE08449603920684A
:10252000884202D14FF4803017E07F49206888420A
:1025300002D14FF4803010E07C492068884202D1FB
:102540004FF4803009E0784960312068884202D138
:102550004FF4803001E04FF480007349383908604F
:10256000BBE072494839206888425BD96F4990398D
:102570002068884201D1012050E06B493039206841
:10258000884201D1012049E06849303920688842F9
:1025900001D1012042E0644930312068884201D1F4
:1025A00001203BE0614978392068884201D1402010
:1025B00034E05D4918392068884201D140202DE07F
:1025C0005A4918392068884201D1402026E05649EE
:1025D00048312068884201D140201FE053496039CA
:1025E0002068884202D14FF4803017E04E492068BD
:1025F000884202D14FF4803010E04C492068884274
:1026000002D14FF4803009E04749603120688842A8
:1026100002D14FF4803001E04FF480004349A039EB
:10262000C8605AE0414990392068884201D10120B0
:1026300050E03D4930392068884201D1012049E00D
:102640003A4930392068884201D1012042E03649B8
:1026500030312068884201D101203BE0334978398C
:102660002068884201D1402034E02F491839206881
:10267000884201D140202DE02C4918392068884239
:1026800001D1402026E0284948312068884201D104
:1026900040201FE0254960392068884202D14FF46C
:1026A000803017E020492068884202D14FF4803002
:1026B00010E01E492068884202D14FF4803009E0C2
:1026C000194960312068884202D14FF4803001E01E
:1026D0004FF480001549A03988602068006840F0F8
:1026E0001600216808602068406940F08000216879
:1026F0004861206C08B9A06C28B12068006840F0DF
:102700000800216808602068006840F00100216826
:10271000086006E000BF002084F8340000BF4FF0DE
:1027200002094846FFF732B840640240A060024008
:10273000014691F83500022803D080204865012029
:102740007047052081F835000868006820F0010016
:102750000A6810600020F3E7F8B5044600200090F6
:102760008C4800684FF41651B0FBF1F7A56D2E6848
:1027700094F85C1008208840304098B120680068C8
:1027800000F0040070B12068006820F004002168A7
:10279000086094F85C1008208840A860606D40F0E4
:1027A0000100606594F85C1001208840304068B1F9
:1027B0002068406900F0800040B194F85C1001206E
:1027C0008840A860606D40F00200606594F85C107D
:1027D00004208840304068B12068006800F00200A2
:1027E00040B194F85C1004208840A860606D40F00F
:1027F0000400606594F85C1010208840304078B385
:102800002068006800F0080050B394F85C101020B5
:102810008840A8602068006800F4802080B12068AB
:10282000006800F4002028B9206CC8B12046216C53
:10283000884715E0A06C98B12046A16C88470FE04E
:102840002068006800F4807028B92068006820F0D3
:10285000080021680860206C10B12046216C884770
:1028600094F85C10202088403040002865D0206813
:10287000006800F0100000285FD094F85C10202061
:102880008840A86094F83500052828D120680068A1
:1028900020F01600216808602068406920F0800060
:1028A00021684861206C08B9A06C28B120680068D4
:1028B00020F008002168086094F85C103F208840F0
:1028C000A86000BF002084F8340000BF012084F815
:1028D0003500206D10B12046216D8847F8BD206875
:1028E000006800F4802080B12068006800F40020B7
:1028F00028B9606C10B12046616C88471DE0E06B20
:10290000D8B12046E16B884717E02068006800F4E2
:10291000807068B92068006820F0100021680860A5
:1029200000BF002084F8340000BF012084F8350087
:10293000E06B10B12046E16B8847606D38B3606D85
:1029400000F00100F0B1052084F83500206800682F
:1029500020F001002168086000BF0098401C009032
:10296000B84200D905E02068006800F001000028A6
:10297000F3D100BF00BF002084F8340000BF012065
:1029800084F83500E06C10B12046E16C884700BF48
:10299000A4E70000480000202DE9F041044600258E
:1029A00000F0A6FA074614B90120BDE8F081606A7C
:1029B00000B100BF00BF002084F8340000BF022037
:1029C00084F835002068006820F001002168086064
:1029D0000AE000F08DFAC01B052805D920206065AB
:1029E000032084F83500E0E72068006800F001006B
:1029F0000028EED12068056821480540D4E901018E
:102A00000843E16808432169084361690843A169F3
:102A10000843E1690843216A08430543606A0428C2
:102A200003D1D4E90B010843054320680560206801
:102A3000456925F00705606A0543606A04280DD1E1
:102A4000A06A0543E06A48B12046FEF7C7F928B1FD
:102A500040206065012084F83500A6E720684561C4
:102A60002046FEF7A1F9064694F85C103F20884006
:102A7000B06000206065012084F83500002094E7F4
:102A80003F8010F02DE9F04704460D4616461F46DC
:102A90004FF00008D4F8589000BF94F83400012893
:102AA00002D10220BDE8F087012084F8340000BF85
:102AB00094F8350001282BD1022084F8350000203D
:102AC00060653B46324629462046FEF7ECF994F80D
:102AD0005C103F208840C9F808002068006840F07A
:102AE0001600216808602068406940F08000216875
:102AF0004861206C28B12068006840F00800216817
:102B000008602068006840F001002168086006E065
:102B100000BF002084F8340000BF4FF00208404698
:102B2000C0E7000070B5044600F0E2F9064625460D
:102B3000681C10B104480078054400BF00F0D8F9C3
:102B4000801BA842FAD370BD54000020F0B50C469B
:102B500000250022002300219CE0012606FA01F551
:102B600004EA0502AA427CD14C4E8F0856F8273061
:102B70008E07370F0F26BE403340494EB04201D179
:102B800000262DE0474EB04201D1012628E0464EF6
:102B9000B04201D1022623E0444EB04201D10326C7
:102BA0001EE0434EB04201D1042619E0414EB0422E
:102BB00001D1052614E0404EB04201D106260FE0B7
:102BC0003E4EB04201D107260AE03D4EB04201D14F
:102BD000082605E03B4EB04201D1092600E00A2656
:102BE0008F073F0FBE409E4222D1374E3668964334
:102BF000354F3E603E1D366896433F1D3E603E1D8C
:102C0000366896433F1D3E603E1D366896433F1D25
:102C10003E608E07370F0F2606FA07F31F4E8F0808
:102C200056F827609E431D4F4FEA910C47F82C60E1
:102C300006684FEA410C032707FA0CF7BE4306600B
:102C4000CF0800F1200656F827604F074FEAD76CEF
:102C50000F2707FA0CF7BE434FEAD10C00F120070B
:102C600000E016E047F82C60C6684FEA410C0327E5
:102C700007FA0CF7BE43C660476801268E40B7438B
:102C8000476086684FEA410C032707FA0CF7BE43FA
:102C90008660491C1029FFF460AFF0BD0838014080
:102CA000000002400004024000080240000C024004
:102CB000001002400014024000180240001C0240B4
:102CC0000020024000240240003C0140F8B50246CA
:102CD0000B46002100250024002000BFE4E001266F
:102CE00006FA01F51E6806EA0504AC4271D15E6879
:102CF000012E08D05E68022E05D05E68112E02D02B
:102D00005E68122E13D190684F000326BE40B04378
:102D10004F00DE68BE4030439060506801268E4010
:102D2000B0431E79C6F300168E4030435060D06821
:102D30004F000326BE40B0434F009E68BE40304364
:102D4000D0605E68022E02D05E68122E13D1CF08CA
:102D500002F1200656F827004E07F70E0F26BE4058
:102D6000B0434F07FF0E1E69BE403043CF0802F14B
:102D7000200646F8270010684F000326BE40B043E7
:102D80001E7906F003064F00BE40304310605E68B7
:102D900006F08056B6F1805FA8D100BF444E366879
:102DA00046F48046424F3E603E46366806F4804612
:102DB000009600BF00BF3F4E8F0856F827008E07D1
:102DC000370F0F26BE40B0433B4EB24202D1002621
:102DD0002EE068E0394EB24201D1012628E0384E9B
:102DE000B24201D1022623E0364EB24201D103267F
:102DF0001EE0354EB24201D1042619E0334EB242F4
:102E000001D1052614E0324EB24201D106260FE070
:102E1000304EB24201D107260AE02F4EB24201D114
:102E2000082605E02D4EB24201D1092600E00A260F
:102E30008F073F0FBE4030431E4E8F0846F82700D5
:102E4000274E3068A0435E6806F48036B6F5803FB2
:102E500000D12043224E3060361D3068A0435E68AA
:102E600006F40036B6F5003F00D120431C4E361D57
:102E70003060361D3068A0435E6806F48016B6F5F3
:102E8000801F00D12043164E08363060361D306852
:102E9000A0435E6806F40016B6F5001F00D120437B
:102EA0000F4E0C363060491C1029FFF418AFF8BDE6
:102EB000443802400838014000000240000402404B
:102EC00000080240000C02400010024000140240C2
:102ED00000180240001C0240002002400024024072
:102EE000003C01400AB1816101E00B04836170473D
:102EF00001480068704700004C00002010B50446EF
:102F00000CB9012010BD242084F84100206800681D
:102F100020F0010021680860204600F00FFA002030
:102F2000606484F84100206384F8420000BF84F8A4
:102F3000400000BF00BFE5E7014691F8410070473F
:102F400010B504460CB9012010BD94F8410028B911
:102F5000002084F84000204600F034FA242084F851
:102F600041002068006820F0010021680860606866
:102F700020F07060216808612068806820F40040BB
:102F800021688860E068012805D1A06840F400400D
:102F90002168886004E0A06840F4044021688860EB
:102FA000E068022802D180022168486020684068F9
:102FB00013490843216848602068C06820F4004035
:102FC0002168C860D4E904010843A16940EA0120EE
:102FD0002168C860D4E907010843216808602068B7
:102FE000006840F001002168086000206064202033
:102FF00084F841000020206384F8420000BFA3E76A
:10300000008000022DE9FC5F0446894692469B46FB
:10301000DDE90C780E9E94F8410020287ED117B18E
:10302000B8F1000F05D14FF4007060640120BDE8D5
:10303000FC9F00BF94F84000012801D10220F6E770
:10304000012084F8400000BFFFF752FF0546192316
:103050000122D1032046009501F050FE08B1012065
:10306000E5E7222084F84100402084F84200002057
:1030700060646762A4F82A8060635B4652464946F2
:103080002046CDE9006501F0A3FD30B100BF00206E
:1030900084F8400000BF0120C9E7608DFF280CD9EB
:1030A000FF2020853D48009094F828204FF0807341
:1030B0004946204601F008FE0BE0608D2085374828
:1030C000009094F828204FF000734946204601F004
:1030D000FBFD00BF3346002204212046009501F08D
:1030E0000DFE08B10120A2E72068406A616A0870FD
:1030F000606A401C6062208D401E2085608D401EED
:103100006085608D48B3208D38BB33460022802116
:103110002046009501F0F2FD18B100E03CE00120EE
:1031200085E7608DFF280CD9FF20208500200090C6
:1031300094F828204FF080734946204601F0C4FDE2
:103140000BE0608D20850020009094F828204FF03F
:1031500000734946204601F0B7FD608D0028B9D1C3
:103160002A463146204601F0F8FD08B101205EE70D
:1031700020202168C861206840680949084021680A
:103180004860202084F84100002084F8420000BFFD
:1031900084F8400000BF4AE7022048E7002400808E
:1031A00000E800FE2DE9FC5F0446894692469B46F6
:1031B000DDE90C780E9E94F8410020287DD117B1EE
:1031C000B8F1000F05D14FF4007060640120BDE834
:1031D000FC9F00BF94F84000012801D10220F6E7CF
:1031E000012084F8400000BFFFF782FE0546192346
:1031F0000122D1032046009501F080FD08B1012095
:10320000E5E7212084F84100402084F842000020B6
:1032100060646762A4F82A8060635B465246494650
:103220002046CDE9006501F011FD30B100BF00205E
:1032300084F8400000BF0120C9E7608DFF280CD949
:10324000FF2020850020009094F828204FF0807304
:103250004946204601F038FD0BE0608D20850020B6
:10326000009094F828204FF000734946204601F062
:103270002BFD00BF2A463146204601F099FD08B1DA
:103280000120A4E7606A007821688862606A401CB7
:103290006062608D401E6085208D401E2085608D9F
:1032A00040B3208D30BB334600228021204600955C
:1032B00001F024FD10B1012089E73AE0608DFF287C
:1032C0000CD9FF2020850020009094F828204FF092
:1032D00080734946204601F0F7FC0BE0608D2085A5
:1032E0000020009094F828204FF0007349462046B3
:1032F00001F0EAFC608D0028BCD12A463146204608
:1033000001F02BFD08B1012061E720202168C86190
:10331000206840680849084021684860202084F8F7
:103320004100002084F8420000BF84F8400000BF44
:103330004DE702204BE7000000E800FE10B5044610
:103340001949206888420BD11848006820F4001001
:10335000164908604FF4C0711548FFF7F7FB21E0EC
:103360001449206888420AD11048006820F480007F
:103370000E49086030211048FFF7E8FB12E00F49C2
:10338000206888420ED10948006820F400000749EF
:10339000086089150A48FFF7D9FB4FF48071064889
:1033A000FFF7D4FB10BD000000540040403802403D
:1033B0000004024000580040001C0240005C004035
:1033C0000000024010B586B00446142101A8FCF7A5
:1033D00061FF0120039012200290032004902A49EB
:1033E0002068884216D1042005904FF4C0700190E7
:1033F00001A92648FFF76AFC00BF2548006840F491
:103400000010234908600846006800F4001000908E
:1034100000BF36E01F492068884213D13020019058
:1034200001A91D48FFF752FC00BF1948006840F48D
:103430008000174908600846006800F4800000908A
:1034400000BF1EE01549206888421AD180150190FE
:1034500001A91348FFF73AFC4FF48070019001A9CD
:103460000D48FFF733FC00BF0948006840F4000036
:10347000074908600846006800F40000009000BF9B
:1034800000BF06B010BD0000005400400004024020
:103490004038024000580040001C0240005C0040E0
:1034A00000000240034800680349097808440149C4
:1034B000086070474C0000205400002010B5032025
:1034C00000F0D2F9002000F005F800F057F90020D4
:1034D00010BD000070B504460E4800784FF47A71B4
:1034E000B1FBF0F00C490968B1FBF0F5284601F09A
:1034F00088F908B1012070BD102C07D200222146A6
:10350000501E00F073F90548046001E00120F2E765
:103510000020F0E754000020480000205000002068
:1035200070B504460E46154600BF94F8A000012869
:1035300001D1022070BD012084F8A00000BF02204C
:1035400084F8A10005EB850101EBC50204F1380107
:1035500001EB820034223146FCF783FE2A463146D5
:10356000204601F0FDFC01202168486284F8A1009A
:1035700000BF002084F8A00000BF00BFDAE70146CA
:1035800091F8A1007047000070B504460CB9012005
:1035900070BD94F8A10028B9002084F8A00020464E
:1035A00000F07EF8022084F8A1002068806920F0F5
:1035B000704021688861D4E901010843E16808434B
:1035C0002169084321688969084321688861206866
:1035D00080683249084021688860A08A0504206814
:1035E0008068A16929430843216888602068C06811
:1035F0002A4908402168C860A08B05042068C0687B
:10360000216A294308432168C8602068006923496A
:10361000084021680861A08C050420680069A16A3F
:103620002943084321680861206840691B49084014
:1036300021684861A08D050420684069216B2943F9
:1036400008432168486194F83500050294F8360073
:1036500006042068C06A00F07F402168C86246EA1C
:10366000050094F8341008432168C96A08432168AA
:10367000C8622068406B40F00600216848632068FB
:10368000806940F00100216888610020C4F8A4002E
:10369000012084F8A10000207AE7000000F800F083
:1036A00070472DE9F04104460E461746984600BF84
:1036B00094F8A000012802D10220BDE8F081012089
:1036C00084F8A00000BF022084F8A10008EB880065
:1036D00000EBC80104F1380000EB81052E60A86AF8
:1036E00030446860AF60E86A3844E8604246294682
:1036F000204601F035FC01202168486284F8A100D1
:1037000000BF002084F8A00000BF00BFD5E72DE96E
:10371000F04104460E461746984600BF94F8A000B4
:10372000012802D10220BDE8F081012084F8A00028
:1037300000BF022084F8A10008EB880000EBC8015C
:1037400004F1380000EB8105286830446860A868FF
:103750003844E860AE62EF6242462946204601F0F6
:10376000FFFB01202168486284F8A10000BF00200F
:1037700084F8A00000BF00BFD5E7000008B500BF77
:103780001148006840F080500F4908600846006802
:1037900000F08050009000BF00BF00BF081D00680F
:1037A00040F48040091D08600846006800F480402D
:1037B000009000BF00BF00221146052000F016F85F
:1037C000052000F003F808BD4038024001460846D5
:1037D000002809DB00F01F0301229A4043099B00E7
:1037E00003F1E023C3F8002100BF70472DE9F05F2B
:1037F00080460D461646002701F024FF074639464D
:103800002A46334601F00700C0F1070ABAF1040F57
:1038100002D94FF0040A01E0C0F1070AD14600F1D5
:10382000040ABAF1070F02D24FF0000A01E0A0F13A
:10383000030AD4464FF0010A0AFA09FAAAF1010A6A
:103840000AEA020A0AFA0CFA4FF0010B0BFA0CFB17
:10385000ABF1010B0BEA030B4AEA0B04214640468D
:1038600001F0F8FEBDE8F09F00BF00F00702064B34
:1038700019684FF6FF031940044B0B4343EA02213A
:10388000014B196000BF70470CED00E00000FA0525
:1038900038B5002400BF2048006840F080501E4921
:1038A00008600846006800F08050009000BF00BF2C
:1038B0001A48006840F4803018490860FFF718FB88
:1038C000044607E0FFF714FB001BB0F57A7F01D92F
:1038D000032038BD1148406800F48030B0F5803FC7
:1038E000F0D10E48006840F400300C490860FFF742
:1038F000FFFA044607E0FFF7FBFA001BB0F57A7FFA
:1039000001D90320E5E70548406800F40030B0F530
:10391000003FF0D10020DCE740380240007000405A
:103920000348006840F48070014908607047000057
:10393000007000402DE9F8430446002600250027CA
:10394000A846A946207800F0010088B100BFFE48D3
:10395000006820F40000FC49086008460068616BBC
:103960000843F949086000BF606B08B94FF00108CF
:10397000206800F40020B0F5002F13D1F248843005
:10398000006820F44010E16B0843EF49843108607F
:10399000E06BB0F5801F01D14FF00108E06B08B972
:1039A0004FF00109206800F48010B0F5801F13D19A
:1039B000E5488430006820F44000216C0843E24967
:1039C00084310860206CB0F5800F01D14FF0010800
:1039D000206C08B94FF00109206800F08070B0F148
:1039E000807F01D14FF00108207800F020002028CE
:1039F00070D100BFD4483830006840F08050D249C0
:103A0000383108600846006800F08050009000BF20
:103A100000BFCE48006840F48070CC490860FFF7D2
:103A200067FA064607E0FFF763FA801B642802D9AD
:103A30000320BDE8F883C548006800F480700028C2
:103A4000F1D0C1486830006800F4407585B3208E1D
:103A500000F44070A8422BD0BB486830006820F4C6
:103A60004075B9486830006840F48030B649683124
:103A700008600846006820F4803008600846056049
:103A8000006800F0010098B1FFF732FA064608E03E
:103A9000FFF72EFA801B41F28831884201D90320BA
:103AA000C7E7A94868300068C0F340000028EFD09D
:103AB00000BF208E00F44070B0F5407F0BD1A248CB
:103AC000006820F4F810A24A216B114008439E4977
:103AD000086006E010E09C48006820F4F8109A495D
:103AE0000860994868300068218EC1F30B010843D3
:103AF00095496831086000BF207800F01000102858
:103B000010D100BF90488430006820F080708E494A
:103B10008431086008460068A16B08438A498431F3
:103B2000086000BF208800F48040B0F5804F09D1C4
:103B300085488830006820F44030616E084382492F
:103B400088310860208800F40040B0F5004F09D1AA
:103B50007D488830006820F44020A16E08437A49EF
:103B600088310860206800F48030B0F5803F09D1CA
:103B700075488830006820F44010E16E08437249AF
:103B800088310860206800F40030B0F5003F09D1AA
:103B90006D488830006820F44000216F08436A496E
:103BA00088310860207800F04000402809D166483C
:103BB0008830006820F00300616C08436249883156
:103BC0000860207800F08000802809D15E488830A5
:103BD000006820F00C00A16C08435B498831086044
:103BE000208800F48070B0F5807F09D15648883075
:103BF000006820F03000E16C0843534988310860C8
:103C0000208800F40070B0F5007F09D14E4888305C
:103C1000006820F0C000216D08434B4988310860DE
:103C2000208800F48060B0F5806F09D14648883064
:103C3000006820F44070616D084343498831086092
:103C4000208800F40060B0F5006F09D13E4888304C
:103C5000006820F44060A16D08433B49883108604A
:103C6000208800F48050B0F5805F09D13648883054
:103C7000006820F44050E16D084333498831086002
:103C8000208800F40050B0F5005F09D12E4888303C
:103C9000006820F44040216E08432B4988310860B9
:103CA000206800F48000B0F5800F09D126488830E4
:103CB000006820F08060A16F0843234988310860C4
:103CC000206800F40010B0F5001F0FD11E488830A6
:103CD000006820F00060E16F08431B4988310860EC
:103CE000E06FB0F1006F01D14FF00109207800F0D2
:103CF0000800082801D14FF00109206800F4802055
:103D0000B0F5802F09D110488830006820F040704D
:103D1000616F08430C4988310860206800F4000096
:103D2000B0F5000F0AD108488830006820F08050B4
:103D3000D4F880100843044988310860B8F1010FB5
:103D40000BD0206806E000000838024000700040F8
:103D5000FFFCFF0FB0F1007F7DD1AD48006820F07F
:103D60008060AB490860FFF7C3F8064606E0FFF73E
:103D7000BFF8801B642801D903205AE6A4480068D4
:103D8000C0F3C0600028F2D1207800F00100B8B183
:103D9000606BA8B99E4884300068C0F301459C4818
:103DA00084300068C0F303676068800140EA054022
:103DB00040EA0761207A41EA007095498431086041
:103DC000206800F40020B0F5002F03D1E06BB0F5BF
:103DD000801F09D0206800F48010B0F5801F24D126
:103DE000206CB0F5800F20D1894884300068C0F382
:103DF0000145874884300068C0F30277606880011D
:103E000040EA0541207B41EA006040EA07708049B2
:103E1000843108607E488C30006820F01F00616AA1
:103E2000491E08437A498C310860206800F0807090
:103E3000B0F1807F17D1764884300068C0F3036505
:103E4000734884300068C0F3027760688101208A7B
:103E500041EA004000E031E040EA056040EA0770D6
:103E60006B4984310860206800F00070B0F1007F79
:103E70000DD160688101208A41EA0041207B41EA3E
:103E80000061207A41EA007061498431086060482D
:103E9000006840F080605E490860FFF729F8064638
:103EA00006E0FFF725F8801B642801D90320C0E550
:103EB00057480068C0F3C0600028F2D0B9F1010F84
:103EC0007ED15348006820F0805051490860FFF7C8
:103ED0000FF8064606E0FFF70BF8801B642801D9AF
:103EE0000320A6E54A480068C0F340700028F2D1DC
:103EF000206800F40020B0F5002F01D1E06B38B14C
:103F0000206800F48010B0F5801F22D1206C00BB27
:103F10003F4888300068C0F301453D48883000685C
:103F2000C0F302776069800140EA0541207E41EAE2
:103F3000006040EA0770364988310860081D006853
:103F400020F4F851A06A401E41EA002030498C312B
:103F50000860206800F40010B0F5001F19D1E06F70
:103F6000B0F1006F15D12A4888300068C0F30365AE
:103F7000274888300068C0F3027760698101208C8F
:103F800041EA004040EA056040EA07702049883174
:103F90000860207800F00800082820D11C488830EC
:103FA0000068C0F303651A4888300068C0F3014711
:103FB0006069800140EA074040EA0561207F00E037
:103FC00024E041EA0070124988310860081D006849
:103FD00020F44030E16A08430D498C3108600C48F8
:103FE000006840F080500A490860FEF781FF0646ED
:103FF00006E0FEF77DFF801B642801D9032018E549
:1040000003480068C0F340700028F2D0002010E59B
:104010000038024070B504460D4600260CB9012058
:1040200070BD5C48006800F00F00A8420ED25948ED
:10403000006820F00F0028435649086008460068D1
:1040400000F00F00A84201D00120E9E7207800F03D
:10405000020002281DD1207800F00400042805D1B8
:104060004D48006840F4E0504B490860207800F06B
:104070000800082805D14848006840F460404649D7
:1040800008604548006820F0F000A16808434249F4
:104090000860207800F0010090B36068012807D123
:1040A0003D4808380068C0F34040A0B90120B7E798
:1040B0006068022807D1384808380068C0F34060BB
:1040C00048B90120ACE7344808380068C0F3400024
:1040D00008B90120A4E73048006820F003006168B7
:1040E00008432D490860FEF703FF064609E0FEF786
:1040F000FFFE801B41F28831884202D903208FE7FE
:1041000007E02548006800F00C006168B0EB810F03
:10411000EDD12048006800F00F00A8420ED91D48DC
:10412000006820F00F0028431A490860084600681C
:1041300000F00F00A84201D0012071E7207800F0C4
:104140000400042807D11448006820F4E050E16816
:10415000084311490860207800F00800082808D1B9
:104160000D48006820F46040216940EAC1000A4916
:10417000086000F019F808490968C1F30311074AFB
:10418000515CC8400649086006480068FFF7A2F97C
:10419000002045E7003C024008380240049E000829
:1041A00048000020500000202DE9F04700240025A1
:1041B0000026A1462548006800F00C0020B1042824
:1041C00005D008283AD105E0DFF8849039E0DFF81F
:1041D000849036E01D48001F006800F03F041B4833
:1041E000001F006800F4800078B11A481749091FC1
:1041F0000968C1F38811A0FB017001462246002323
:104200003846FBF7FDFF05460EE011480F49091F30
:104210000968C1F38811A0FB017001462246002302
:104220003846FBF7EDFF05460848001F0068C0F35D
:104230000140401C4600B5FBF6F902E0DFF81090A3
:1042400000BF00BF4846BDE8F087000008380240C4
:104250000024F40000366E01F8B5044600270CB9BE
:104260000120F8BD207800F00100002871D0F94845
:10427000006800F00C0004280DD0F648006800F03B
:104280000C00082813D1F348001F006800F48000D8
:10429000B0F5800F0BD1EF4808380068C0F34040FC
:1042A000002869D06068002866D10120D9E700BFE6
:1042B0006068B0F5803F08D1E6480838006840F4EF
:1042C0008030E449083908602EE0606868B9E14848
:1042D0000838006820F48030DE4908390860084654
:1042E000006820F4802008601EE06068B0F5A02F10
:1042F0000DD1D8480838006840F48020D5490839E5
:1043000008600846006840F4803008600CE0D1483E
:104310000838006820F48030CE4908390860084623
:10432000006820F48020086000BF606890B1FEF74C
:10433000DFFD054606E0FEF7DBFD401B642801D9E2
:1043400003208EE7C34808380068C0F340400028C7
:10435000F1D011E0FEF7CCFD054606E0FEF7C8FD02
:10436000401B642801D903207BE7BA48083800685D
:10437000C0F340400028F1D1207800F0020002286C
:1043800069D1B448006800F00C0058B1B148006829
:1043900000F00C0008281CD1AE48001F006800F493
:1043A0008000B0B9AB4808380068C0F3400020B1C5
:1043B000E068012801D0012053E7A64808380068CA
:1043C00020F0F800216940EAC100A24908390860DC
:1043D00041E0E06828B39F480838006840F00100D9
:1043E0009C4908390860FEF783FD054606E0FEF7A4
:1043F0007FFD401B022801D9032032E79548083889
:104400000068C0F340000028F1D0924808380068E6
:1044100020F0F800216940EAC1008E49083908609F
:1044200019E08C480838006820F0010089490839F3
:104430000860FEF75DFD054606E0FEF759FD401BEE
:10444000022801D903200CE7824808380068C0F32D
:1044500040000028F1D1207800F00800082836D16B
:104460006069D0B17B486C30006840F00100794948
:104470006C310860FEF73CFD054606E0FEF738FDAE
:10448000401B022801D90320EBE672486C3000681B
:10449000C0F340000028F1D019E06E486C3000688D
:1044A00020F001006B496C310860FEF721FD0546E4
:1044B00006E0FEF71DFD401B022801D90320D0E6CF
:1044C00064486C300068C0F340000028F1D12078C7
:1044D00000F00400042874D15E483830006800F011
:1044E000805080B900BF5B483830006840F0805091
:1044F0005849383108600846006800F08050009044
:1045000000BF00BF01275448006800F48070B0B9B4
:104510005148006840F480704F490860FEF7E8FC9D
:10452000054606E0FEF7E4FC401B642801D90320A1
:1045300097E64948006800F480700028F2D000BF78
:10454000A068012808D143486830006840F00100A5
:104550004049683108602DE0A06868B93D4868307E
:10456000006820F001003B49683108600846006897
:1045700020F0040008601DE0A06805280DD1354832
:104580006830006840F0040032496831086008462D
:10459000006840F0010008600CE02E4868300068B8
:1045A00020F001002B49683108600846006820F0BF
:1045B0000400086000BFA068A8B1FEF799FC05469A
:1045C00009E02EE0FEF794FC401B41F2883188425E
:1045D00001D9032045E61F4868300068C0F3400059
:1045E0000028EFD013E0FEF783FC054608E0FEF755
:1045F0007FFC401B41F28831884201D9032030E61C
:10460000144868300068C0F340000028EFD1012F43
:1046100007D110483830006820F080500D493831FB
:104620000860A069002852D00A48006800F00C0019
:10463000082865D0A06902284AD1064808380068D1
:1046400020F08070034908390860FEF751FC0546E8
:104650000BE000000838024000700040FEF748FC04
:10466000401B022801D90320FBE53B480068C0F34A
:1046700040600028F2D1E06940F00050216A084310
:10468000616A40EA81110122A06AC2EB500041EA4E
:1046900000412C20005D41EA00602F49091D08609F
:1046A000081F006840F08070091F0860FEF720FCBA
:1046B000054606E0FEF71CFC401B022801D903203A
:1046C000CFE525480068C0F340600028F2D040E004
:1046D0002148006820F080701F490860FEF708FC40
:1046E000054606E0FEF704FC401B022801D9032022
:1046F000B7E519480068C0F340600028F2D128E00F
:104700001548001D0668A069012820D006F4800124
:10471000E06981421BD106F03F01206A814216D137
:1047200047F6C0703040616AB0EB811F0FD106F4CC
:1047300040310122A06AC2EB5000B1EB004F06D11C
:1047400006F070612C20005DB1EB006F01D00120FC
:1047500087E5002085E500000038024070B504467A
:104760000D460CB9012070BD94F82C0028B900202A
:1047700084F82D00204600F011F8022084F82C0067
:10478000211D2068FCF7A8FB2946D4E90002FCF7AC
:10479000F7FB012084F82C000020E4E7704770B597
:1047A00004460D4694F82C00022800D170BD02206A
:1047B00084F82C0029462068FCF7C8FB012084F807
:1047C0002C000020F2E770B504460D46164694F81A
:1047D0002C00022800D170BD022084F82C00324643
:1047E00029462068FCF7B9FB2868022803D1052078
:1047F00084F82C0002E0012084F82C000020EAE775
:10480000704770B504462546681EB0F1807F01D31D
:1048100001200FE0681E4FF0E02148610F214FF0AA
:10482000FF3000F017FF00204FF0E02188610720E3
:104830000861002070BD10B5FFF7E2FF10BD10B594
:1048400004460CB9012010BD94F83D0028B90020A1
:1048500084F83C00204600F00CF8022084F83D006B
:10486000211D206800F038FD012084F83D00002063
:10487000E9E7704770B504460D46164600BF94F848
:104880003C00012801D1022070BD012084F83C00C9
:1048900000BF022084F83D000C2E51D005DC4EB143
:1048A000042E1ED0082E7AD133E0102E60D0142EA4
:1048B000F9D175E02946206800F08CFD20688069F8
:1048C00040F00800216888612068806920F00400B9
:1048D00021688861206880692969084321688861A6
:1048E00077E02946206800F0AFFD2068806940F439
:1048F0000060216888612068806920F480602168F8
:10490000886120688069296940EA012021688861FE
:104910005FE02946206800F0D7FD2068C06940F0BC
:1049200008002168C8612068C06920F0040021687F
:10493000C8612068C069296908432168C86148E0E6
:104940002946206800F0FEFD2068C06940F4006040
:104950002168C8612068C06920F480602168C8614E
:104960002068C069296940EA01202168C86130E0F7
:104970002946206800F012FE2068406D40F00800D3
:10498000216848652068406D20F004002168486572
:104990002068406D296908432168486519E017E0DF
:1049A0002946206800F022FE2068406D40F4006037
:1049B000216848652068406D20F480602168486562
:1049C0002068406D296940EA01202168486500E0BF
:1049D00000BF00BF012084F83D0000BF002084F824
:1049E0003C0000BF00BF4FE710B504460CB90120E2
:1049F00010BD94F83D0028B9002084F83C00204602
:104A000000F00CF8022084F83D00211D206800F021
:104A100063FC012084F83D000020E9E770470000B6
:104A200070B504460E4601223146206800F0C0FCF5
:104A300011492068884203D010492068884201D17A
:104A4000012000E0002028B12068406C40F40040C4
:104A50002168486420688068094900EA0105062D3C
:104A600008D0B5F5803F05D02068006840F001000F
:104A700021680860002070BD000001400004014072
:104A80000700010030B504460D4600222946206883
:104A900000F08EFC1B492068884203D01A49206828
:104AA000884201D1012000E0002090B100BF2068C1
:104AB000006A41F21111084050B92068006A89105B
:104AC000084028B92068406C20F400402168486400
:104AD00000BF00BF2068006A41F21111084050B9C0
:104AE0002068006A8910084028B92068006820F012
:104AF00001002168086000BF012084F83D0000200B
:104B000030BD0000000001400004014000BFFEE78E
:104B100001688969C1F3400111B100210268916205
:104B20000168896901F0010129B90168896941F0C9
:104B3000010102689161704770B504460D46164642
:104B400020688069C0F3001000283DD017E0681C81
:104B5000A8B1FEF7CDF9801BA84200D87DB9606CE2
:104B600040F020006064202084F84100002084F898
:104B7000420000BF84F8400000BF012070BD2068E3
:104B80008069C0F340100028E1D010202168C8617E
:104B900020202168C8612046FFF7BAFF20684068DE
:104BA0000A49084021684860606C40F00400606475
:104BB000202084F84100002084F8420000BF84F8DF
:104BC000400000BF0120D9E70020D7E700E800FE41
:104BD0002DE9F8430446894615461E46DDE9087866
:104BE0001948F2B2002349460090204600F06CF8C4
:104BF00042463946204600F0DBF810B10120BDE8FE
:104C0000F883012E03D1E8B2216888620EE0C5F373
:104C100007202168886242463946204600F0C8F8DD
:104C200008B10120EBE7E8B2216888623B46002228
:104C300040212046CDF8008000F060F808B1012046
:104C4000DDE70020DBE70000002000802DE9F843CD
:104C50000446894615461E46DDE908781948F2B231
:104C6000C30249460090204600F02EF842463946DD
:104C7000204600F09DF810B10120BDE8F883012E18
:104C800003D1E8B2216888620EE0C5F307202168ED
:104C9000886242463946204600F08AF808B1012071
:104CA000EBE7E8B2216888623B460022802120467B
:104CB000CDF8008000F022F808B10120DDE70020E7
:104CC000DBE7000000200080F0B5059C05686D68FA
:104CD0004FF4806606EA545666F0FC2646F4C04659
:104CE000B543C1F309064FF47F0707EA02473E4385
:104CF0001E432643354306687560F0BD2DE9F0413B
:104D000004460E4617461D46DDF8188019E0681C5B
:104D1000B8B1FEF7EDF8A0EB0800A84200D885B9BD
:104D2000606C40F020006064202084F84100002086
:104D300084F8420000BF84F8400000BF0120BDE8B5
:104D4000F081206880693040B04201D1012000E04C
:104D50000020B842DBD00020F1E770B504460D46D4
:104D600016461DE0324629462046FFF7E5FE08B10B
:104D7000012070BDFEF7BCF8801BA84200D87DB9A9
:104D8000606C40F020006064202084F84100002026
:104D900084F8420000BF84F8400000BF0120E8E72B
:104DA00020688069C0F340100028DBD00020E0E7D5
:104DB00070B504460D4616461FE032462946204689
:104DC000FFF7BAFE08B1012070BD681CA8B1FEF75C
:104DD0008FF8801BA84200D87DB9606C40F020009D
:104DE0006064202084F84100002084F8420000BF65
:104DF00084F8400000BF0120E6E720688069C0F326
:104E000040000028D9D00020DEE7000010B504469D
:104E10000248FEF773F8FBF76BFE10BD800100201F
:104E200000B58DB01C2106A8FBF734FA142101A8A7
:104E3000FBF730FA00BF2448006840F48020224984
:104E400008600846006800F48020009000BF00BFA2
:104E50008020019000200390032005900220029002
:104E60000020049001A91948FDF730FF00201849DF
:104E700048604FF487511648C160164814490860CD
:104E800000211348816001618161FFF7D8FC08B1FE
:104E9000FCF720F80E48FFF7A7FD08B1FCF71AF859
:104EA00040F66F00079060200690022008900020D6
:104EB0000A90002206A90648FFF7DCFC08B1FCF7BF
:104EC00009F80DB000BD0000443802400014024053
:104ED000E4010020004801402DE9F84304460D4656
:104EE00016461F46DDE908984FF4403018494860DF
:104EF0001848006800EB800101EBC001164800EB88
:104F000081000069022803D102211148816002E07A
:104F100000210F4881600E48C0F80C900F480C49E2
:104F200008600846FCF70EFB80B921460848FCF7EC
:104F3000A3FA58B933462A46414605480097FCF77C
:104F4000E5FB18B90A210248FCF72DFBBDE8F88300
:104F5000CC020020300000205C02002000B00240A3
:104F6000F0B58E880768FF68C7F30B473E443304EB
:104F700006688436802707FB0266766806F4704769
:104F8000066884364FF0800C0CFB026677600E6872
:104F90000768FF68C7F30B473E44761C1E4307684B
:104FA00084370CFB02777E608E890768FF68C7F341
:104FB0000A073E44330406688436802707FB0266EE
:104FC000B66806F47047066884360CFB0266B76064
:104FD0008E680768FF68C7F30A073E44761C46EAF6
:104FE0000307066884360CFB0266B76006688436E1
:104FF000802707FB0266366926F0070706688436B5
:105000000CFB026637610F69066884360CFB02668A
:1050100037613126765C33023226765C34040E7EAC
:10502000350606688436802707FB0266B6690027C6
:10503000066884360CFB0266B76191F830601E4347
:10504000264346EA0507066884360CFB0266B7610C
:1050500006688436802707FB0266766926F0FF071C
:10506000066884360CFB026677614F6906688436F1
:105070000CFB0266776106688436802707FB0266B0
:10508000F66940F20777BE43076884370CFB027766
:10509000FE61D1E907763743066884360CFB026669
:1050A000F76106688436802707FB0266B66A002728
:1050B000066884360CFB0266B7624F6A066884365F
:1050C0000CFB0266B7620E690EB9042313E00E6989
:1050D000012E01D103230EE00E69042E08D00E69C3
:1050E000022E05D00E69032E02D00E69072E01D1C3
:1050F000022300E0012306688436802707FB02664E
:10510000F66A06F0E027066884364FF0800C0CFB48
:105110000266F762D1E90076F61B5E43F61C0F8D3E
:105120005F4346EA0747066884360CFB0266F7626F
:1051300006688436802707FB0266366BF70AFF0293
:10514000066884360CFB02663763CF6A06688436CD
:105150000CFB0266376306688436D701F65946F0C1
:105160000107066884364FEAC21C46F80C70F0BD91
:1051700000BFFEE77047704700BE7047704710B52C
:10518000FEF790F9FFF757FB10BD000000B5B3B074
:10519000302127A8FBF77EF8142122A8FBF77AF824
:1051A000842101A8FBF776F8FEF7BAFB00BF2F4871
:1051B000006840F080502D4908600846006800F003
:1051C0008050009000BF00BF00BF2948006840F435
:1051D0004040274908600846006800F440400090BD
:1051E00000BF00BF082127A8C1620C210162D8219D
:1051F00041624FF48030289002202D90022127A890
:1052000081624905C1610120279027A8FFF724F892
:1052100008B1FBF75FFEFEF73BFB08B1FBF75AFE58
:1052200002202390002024904FF4A05025904FF4AA
:10523000805026900F202290072122A8FEF7EAFE38
:1052400008B1FBF747FE01200A9002210391049167
:105250003220029005910806019001A8FEF76AFB32
:1052600008B1FBF737FE33B000BD00004038024004
:10527000007000401448006840F470001249086053
:105280001248006840F001001049086000200F49F2
:10529000083108600D4800680D4908400B49086056
:1052A0000C48091D0860081F006820F48020091FB1
:1052B0000860002005490C3108604FF00060024989
:1052C000803908607047000088ED00E00038024037
:1052D000FFFFF6FE1030002410B50268294B9842FB
:1052E0000ED0B0F1804F0BD0274B984208D0274BFF
:1052F000984205D0264B984202D0264B984203D1C3
:1053000022F070024B681A431E4B984220D0B0F135
:10531000804F1DD01C4B98421AD01C4B984217D07E
:105320001B4B984214D01B4B984211D01A4B9842F9
:105330000ED01A4B98420BD0194B984208D0194BFB
:10534000984205D0184B984202D0184B984203D18E
:1053500022F44072CB681A4322F080034C6943EA7E
:10536000040202608B68C3620B688362054B98423B
:1053700002D0084B984201D10B69036301234361BA
:1053800010BD000000000140000400400008004083
:10539000000C004000040140004001400044014076
:1053A0000048014000180040001C00400020004060
:1053B00030B501F01F05012404FA05F3046A9C438B
:1053C0000462046A01F01F0502FA05F52C43046229
:1053D00030BD000030B5056A25F001050562026A9E
:1053E00043688469154D2C4024F003040D682C4358
:1053F00022F002028D682A43114DA84200D103E039
:10540000104DA84206D100BF22F00802CD682A4301
:1054100022F004020A4DA84202D00A4DA84207D148
:1054200023F4807323F400734D692B438D692B4360
:10543000436084614D684563026230BD8FFFFEFFAB
:10544000000001400004014030B5056A25F0100558
:105450000562026A43688469184D2C4024F4407444
:105460000D6844EA052422F020028D6842EA051204
:10547000134DA84200D103E0124DA84207D100BF4E
:1054800022F08002CD6842EA051222F040020C4D63
:10549000A84202D00B4DA84209D123F4806323F423
:1054A00000634D6943EA85038D6943EA85034360E0
:1054B00084614D688563026230BD0000FF8FFFFE8E
:1054C000000001400004014030B5056A25F48075F4
:1054D0000562026A4368C469174D2C4024F0030436
:1054E0000D682C4322F400728D6842EA0522134DA8
:1054F000A84200D103E0124DA84207D100BF22F418
:105500000062CD6842EA052222F480620B4DA84277
:1055100002D00B4DA84209D123F4805323F4005349
:105520004D6943EA05138D6943EA05134360C4617D
:105530004D68C563026230BD8FFFFEFF0000014071
:105540000004014030B5056A25F480550562036A00
:105550004468C2690E4D2A4022F440720D6842EA46
:10556000052223F400538D6843EA0533094DA84210
:1055700002D0094DA84204D124F480444D6944EA84
:1055800085144460C2614D680564036230BD00004B
:10559000FF8FFFFE000001400004014030B5056AA6
:1055A00025F480350562026A4368446D0C4D2C4039
:1055B0000D682C4322F400320D8942EA0542094D60
:1055C000A84202D0084DA84204D123F480334D698B
:1055D00043EA0523436044654D688565026230BD3A
:1055E0008FFFFEFF000001400004014030B5056A56
:1055F00025F480150562026A4368446D0D4D2C4008
:105600000D6844EA052422F400120D8942EA05528D
:10561000094DA84202D0094DA84204D123F48023A9
:105620004D6943EA8523436044654D68C565026260
:1056300030BD0000FF8FFFFE00000140000401406C
:1056400000BFFEE702480068C0F302207047000078
:105650000CED00E010B5002804DB0A07130E054A24
:10566000135406E00A07140E034A00F00F031B1F31
:10567000D45410BD00E400E018ED00E002E008C8DA
:10568000121F08C1002AFAD170477047002001E0BC
:1056900001C1121F002AFBD17047000008B5FDF7B9
:1056A0000DFFFFF773FDFBF731F9FAF7EDFEFAF79F
:1056B000F9FF1C490120FBF739F80120FBF7E0F85E
:1056C0004FF0FF30FAF774FF00210120FBF7DEF8FE
:1056D0004FF040410020FBF729F8FAF7A9FF00201E
:1056E000FBF7CEF84FF0FF30FAF762FF4FF4F0709F
:1056F0000D4908604FF488700C490860084600881E
:1057000080B200900848008883B2642211460020CD
:10571000FBF7E4F80220FAF70DFE0548FAF7F6FD6C
:1057200000BFFEE700C012C00000002004000020FF
:10573000008025C02DE9F05F04460E4691469A464A
:105740004946304600F07EF805465146002000F0FC
:1057500079F883461EB3012E02D0032E6ED14BE0A2
:10576000E0B20022FF21FBF703FAE0B200227C2125
:10577000FBF7FEF9EAB2E0B27D21FBF7F9F9E0B2FE
:1057800005227C21FBF7F4F9E0B280227D21FBF7B2
:10579000EFF9E0B280227D21FBF7EAF94FE0EFB2AA
:1057A000C5F30728E0B20022FF21FBF7E1F9E0B2E0
:1057B00000227C21FBF7DCF9E0B204227D21FBF71B
:1057C000D7F9E0B207227C21FBF7D2F90BF0FF02F8
:1057D000E0B27D21FBF7CCF9E0B23A467D21FBF740
:1057E000C7F9E0B242467D21FBF7C2F9E0B20622DA
:1057F0007D21FBF7BDF922E0EFB2C5F30728E0B247
:105800000022FF21FBF7B4F9E0B200227C21FBF774
:10581000AFF9E0B218227D21FBF7AAF9E0B2052228
:105820007C21FBF7A5F9E0B23A467D21FBF7A0F910
:10583000E0B242467D21FBF79BF900E000BF00BFCC
:10584000BDE8F09F02460020C2B1012A02D0032A1F
:1058500054D13AE031B1012906D0022906D00329FA
:1058600008D105E0182007E0402005E0582003E0BB
:10587000002001E0002000BF00BF41E00A291FD244
:10588000DFE801F00507090B0D0F1215181B40206A
:1058900019E0302017E0202015E0102013E0002050
:1058A00011E043F218400EE042F61C200BE042F2F9
:1058B000200008E041F2246005E040F6284002E0C4
:1058C00043F2184000BF00BF1AE0012908D00229A6
:1058D00009D003290AD004290BD14AF240600BE019
:1058E00044F2A00008E044F2400005E04CF2400021
:1058F00002E04CF2400000BF00BF01E0002000BF0A
:1059000000BF704770B505460E46FBF7F1F8E8B2E8
:105910000122FF21FBF72CF9E8B280221221FBF7CC
:1059200027F9C820FBF7DEF836B1012E17D0022E7A
:1059300028D0032E4CD138E000240DE0264B03EB99
:1059400044035A78244B13F81410E8B2FBF710F90B
:105950000120FBF7C7F8641CDC2CEFD339E00024EE
:105960000DE01E4B03EB44035A781C4B13F8141044
:10597000E8B2FBF7FDF80120FBF7B4F8641CDC2C5F
:10598000EFD326E000240DE0154B03EB44035A78D7
:10599000134B13F81410E8B2FBF7EAF80220FBF7F8
:1059A000A1F8641CED2CEFD313E000240DE00D4BA7
:1059B00003EB44035A780B4B13F81410E8B2FBF7CF
:1059C000D7F80220FBF78EF8641CED2CEFD300E033
:1059D00000BF00BF70BD00004C9C0008949A0008F6
:1059E000E0960008BA98000810B50446FBF780F866
:1059F000E0B20122FF21FBF7BBF8E0B20A21FBF77E
:105A000099F810BD000000000000000020202020B8
:105A10000020000050500000000000002850F85006
:105A2000F850A00020306030106020002020186066
:105A30001010000000382060507800002020200066
:105A400000000000102020202020100040202020F6
:105A5000202040002070205000000000002020F88E
:105A60002020000000000000102020000000007036
:105A70000000000000000000002000001020202096
:105A800040408000205050505020000060202020D6
:105A900020F80000205020204070000020501020EE
:105AA0001060000010305078103800007040601016
:105AB00050200000304060505060000070501020B6
:105AC0002020000020502050502000003050503046
:105AD0001060000000002000002000000000100006
