:020000040800F2
:1000000080100020E10100082715000809150008EC
:10001000231500081D0600086116000800000000F6
:100020000000000000000000000000008115000832
:1000300021060008000000002915000883150008AB
:10004000FB010008FB010008FB010008FB010008A0
:10005000FB0100082B150008FB010008FB0100084C
:10006000FB010008FB010008FB010008FB01000880
:10007000FB010008FB010008FB010008FB01000870
:10008000FB010008FB010008FB010008FB01000860
:10009000FB010008FB010008FB010008FB01000850
:1000A000FB010008FB010008FB010008FB01000840
:1000B000FB010008FB010008FB010008FB01000830
:1000C000FB010008FB010008FB010008FB01000820
:1000D000FB010008FB010008FB010008FB01000810
:1000E000FB010008FB010008FB010008FB01000800
:1000F000FB010008FB010008FB010008FB010008F0
:10010000FB010008FB010008FB010008FB010008DF
:10011000FB010008FB010008FB010008FB010008CF
:10012000FB010008FB010008FB010008FB010008BF
:10013000FB010008FB010008FB010008FB010008AF
:10014000FB010008FB010008FB010008FB0100089F
:10015000FB010008FB010008FB010008FB0100088F
:10016000FB010008FB010008FB010008FB0100087F
:10017000FB010008FB010008FB010008FB0100086F
:10018000FB010008FB010008FB010008FB0100085F
:10019000FB010008FB010008FB010008FB0100084F
:1001A000FB010008FB010008FB010008FB0100083F
:1001B000FB010008FB010008FB010008FB0100082F
:1001C000FB010008FB010008DFF810D000F07CF80C
:1001D00000480047BD160008AFF3008080100020E3
:1001E0000648804706480047FEE7FEE7FEE7FEE7D1
:1001F000FEE7FEE7FEE7FEE7FEE7FEE7451600083E
:10020000C90100082DE9F05F0546002092469B4693
:1002100088460646814640241BE02846414647461C
:10022000224600F041F853465A46C01A914110D375
:1002300011461846224600F028F82D1A67EB0108EF
:100240004F4622460120002100F01FF817EB00095D
:100250004E41201EA4F10104DFDC484631462A4607
:100260004346BDE8F09FD2B201E000F8012B491EE1
:10027000FBD270470022F6E710B513460A46044643
:100280001946FFF7F0FF204610BD202A04DB203A74
:1002900000FA02F1002070479140C2F1200320FAD9
:1002A00003F3194390407047202A04DB203A21FAD7
:1002B00002F00021704721FA02F3D040C2F120027F
:1002C0009140084319467047064C074D06E0E06828
:1002D00040F0010394E8070098471034AC42F6D38D
:1002E000FFF776FF581800087818000800B585B0A9
:1002F000012002900C200490022001900320039022
:100300004CF20370009069460C4800F0C7FA4FF6B3
:100310008070009069460A4800F0C0FA4FF23F0032
:1003200000906946074800F0B9FA37200090694606
:10033000054800F0B3FA05B000BD0000000C024013
:1003400000100240001402400018024008B500BF2F
:100350004748006840F001004549086008460068C9
:1003600000F00100009000BF00BF00BF0846006819
:1003700040F0020008600846006800F002000090AB
:1003800000BF00BF00BF0846006840F004000860DE
:100390000846006800F00400009000BF00BF00BFE6
:1003A0000846006840F0080008600846006800F051
:1003B0000800009000BF00BF00BF0846006840F082
:1003C000100008600846006800F01000009000BFB0
:1003D00000BF00BF0846006840F0200008600846E3
:1003E000006800F02000009000BF00BF00BF08467A
:1003F000006840F0400008600846006800F04000D7
:10040000009000BF00BF00BF0846006840F08000B9
:1004100008600846006800F08000009000BF00BF40
:1004200000BF0846006840F4807008600846006815
:1004300000F48070009000BF00BF00BF0846006855
:1004400040F4007008600846006800F400700090F6
:1004500000BF00BF00BF0846006840F4806008602D
:100460000846006800F48060009000BF00BF08BD2F
:100470003038024010B501241A481B490860022098
:100480001A49486188610620C860042088600220FB
:100490000860086107204860E102134801620020FB
:1004A0001149486010211048016109018161090169
:1004B0004162002181620821C160012181604021E7
:1004C00041610021C16100F067F80849064800F069
:1004D000ABFF00B100E0002440F6182000F008F85F
:1004E000204610BD400100A0200000205400002044
:1004F00038B50446002000900120254908601020EE
:100500004860012088600020C8604FF6FF722148D3
:1005100000F0C3FF012000F027F902201C49086009
:1005200010204860012088600020C8604FF6FF72EC
:10053000184800F0B2FF03201549086010204860F9
:10054000082088600020C8604FF6FF72114800F054
:10055000A4FF4FF40870009004200D49086010209B
:100560004860012088600098C8604FF6FF72094813
:1005700000F093FF2146074800F07BFF0548006824
:10058000406940F61821084302490968486138BDAE
:10059000700000202000002010B586B0044600BF87
:1005A0001948006840F001001749086008460068D3
:1005B00000F00100009000BF00BFFFF797FE012090
:1005C00003900C200590022002900320049001204B
:1005D000019001A90D4800F061F94FF4006001900D
:1005E00001A90B4800F05AF94FF40140019001A90C
:1005F000084800F053F90C20019001A9064800F0CA
:100600004DF906B010BD0000383802400008024025
:100610000014024000180240001C024000BFFEE728
:100620007047704730B5024600230024086801284F
:1006300016D013686FF30E03D1E901052843CD6886
:1006400028430D6928434D6928438D692843CD69A6
:1006500028430D6A28434D6A28430343136019E079
:10066000136823F4F843D1E9070528434D6A28436A
:10067000034354686FF30E04D1E901052843CD68A4
:1006800028430D6928434D6928438D692843044355
:1006900013605460002030BD0246506940EA4100BA
:1006A00050610020704718B5034600200090D1E942
:1006B000000420438C68641E40EA4410CC6840EA81
:1006C0004420009000981861002018BD70B50346C2
:1006D000154600220024012D1FD09A6802F07042B6
:1006E0000868401E4E68761E40EA06168868401E5E
:1006F00046EA0026C868401E46EA0036088A401EC0
:1007000046EA0046888A401E46EA0056087E401E99
:1007100046EA006002439A6022E09A68114802406B
:10072000C868401E0603888A401E46EA00500243FD
:10073000DC6804F070440868401E4E68761E40EA8B
:1007400006168868401E46EA0026088A401E46EAC9
:100750000046087E401E46EA006004439A60DC6062
:10076000002070BDFF0F0FFF70B5044600F0A2F926
:1007700006462546681C10B104480078054400BFB1
:1007800000F098F9801BA842FAD370BD1C0000202D
:1007900000B587B0142102A8FFF76CFD3748006848
:1007A00008B107B000BD01203449086000BF3448DB
:1007B000006840F00100324908600846006800F017
:1007C0000100019000BF00BF4FF68370029002202D
:1007D000039000200490032005900C20069002A9AD
:1007E000284800F05BF848F237100290022003908E
:1007F00000200490032005900C20069002A92248B6
:1008000000F04CF84CF2037002900220039000209C
:100810000490032005900C20069002A91B4800F0CC
:100820003DF84FF63F000290022003900020049014
:10083000032005900C20069002A9154800F02EF820
:100840000C200290022003900020049003200590C9
:100850000C20069002A90F4800F020F80120029019
:100860000220039000200490032005900C200690A5
:1008700002A9094800F012F800BF92E70800002022
:10088000383802400010024000180240000C0240BC
:1008900000140240001C024000080240F8B5024665
:1008A0000B46002100250024002000BFE4E00126C3
:1008B00006FA01F51E6806EA0504AC4271D15E68CD
:1008C000012E08D05E68022E05D05E68112E02D07F
:1008D0005E68122E13D190684F000326BE40B043CD
:1008E0004F00DE68BE4030439060506801268E4065
:1008F000B0431E79C6F300168E4030435060D06876
:100900004F000326BE40B0434F009E68BE403043B8
:10091000D0605E68022E02D05E68122E13D1CF081E
:1009200002F1200656F827004E07F70E0F26BE40AC
:10093000B0434F07FF0E1E69BE403043CF0802F19F
:10094000200646F8270010684F000326BE40B0433B
:100950001E7906F003064F00BE40304310605E680B
:1009600006F08056B6F1805FA8D100BF444E3668CD
:1009700046F48046424F3E603E46366806F4804666
:10098000009600BF00BF3F4E8F0856F827008E0725
:10099000370F0F26BE40B0433B4EB24202D1002675
:1009A0002EE068E0394EB24201D1012628E0384EEF
:1009B000B24201D1022623E0364EB24201D10326D3
:1009C0001EE0354EB24201D1042619E0334EB24248
:1009D00001D1052614E0324EB24201D106260FE0C5
:1009E000304EB24201D107260AE02F4EB24201D169
:1009F000082605E02D4EB24201D1092600E00A2664
:100A00008F073F0FBE4030431E4E8F0846F8270029
:100A1000274E3068A0435E6806F48036B6F5803F06
:100A200000D12043224E3060361D3068A0435E68FE
:100A300006F40036B6F5003F00D120431C4E361DAB
:100A40003060361D3068A0435E6806F48016B6F547
:100A5000801F00D12043164E08363060361D3068A6
:100A6000A0435E6806F40016B6F5001F00D12043CF
:100A70000F4E0C363060491C1029FFF418AFF8BD3A
:100A8000443802400838014000000240000402409F
:100A900000080240000C0240001002400014024016
:100AA00000180240001C02400020024000240240C6
:100AB000003C01400148006870470000140000201D
:100AC00003480068034909780844014908607047F1
:100AD000140000201C00002010B5032000F0A4F832
:100AE000002000F005F800F029F8002010BD0000FB
:100AF00070B504460E4800784FF47A71B1FBF0F0FF
:100B00000C490968B1FBF0F5284600F0E3FC08B198
:100B1000012070BD102C07D200222146501E00F08B
:100B200045F80548046001E00120F2E70020F0E705
:100B30001C000020100000201800002008B500BF95
:100B40001148006840F080500F490860084600686E
:100B500000F08050009000BF00BF00BF081D00687B
:100B600040F48040091D08600846006800F4804099
:100B7000009000BF00BF00221146052000F016F8CB
:100B8000052000F003F808BD403802400146084641
:100B9000002809DB00F01F0301229A4043099B0053
:100BA00003F1E023C3F8002100BF70472DE9F05F97
:100BB00080460D461646002700F054FD074639468C
:100BC0002A46334601F00700C0F1070ABAF1040FC4
:100BD00002D94FF0040A01E0C0F1070AD14600F142
:100BE000040ABAF1070F02D24FF0000A01E0A0F1A7
:100BF000030AD4464FF0010A0AFA09FAAAF1010AD7
:100C00000AEA020A0AFA0CFA4FF0010B0BFA0CFB83
:100C1000ABF1010B0BEA030B4AEA0B0421464046F9
:100C200000F028FDBDE8F09F00BF00F00702064B72
:100C300019684FF6FF031940044B0B4343EA0221A6
:100C4000014B196000BF70470CED00E00000FA0591
:100C500038B5002400BF2048006840F080501E498D
:100C600008600846006800F08050009000BF00BF98
:100C70001A48006840F4803018490860FFF71AFFEE
:100C8000044607E0FFF716FF001BB0F57A7F01D995
:100C9000032038BD1148406800F48030B0F5803F33
:100CA000F0D10E48006840F400300C490860FFF7AE
:100CB00001FF044607E0FFF7FDFE001BB0F57A7F59
:100CC00001D90320E5E70548406800F40030B0F59D
:100CD000003FF0D10020DCE74038024000700040C7
:100CE00070B504460D4600260CB9012070BD5C4865
:100CF000006800F00F00A8420ED25948006820F0AA
:100D00000F002843564908600846006800F00F00AD
:100D1000A84201D00120E9E7207800F00200022873
:100D20001DD1207800F00400042805D14D4800684A
:100D300040F4E0504B490860207800F00800082893
:100D400005D14848006840F460404649086045487D
:100D5000006820F0F000A16808434249086020784C
:100D600000F0010090B36068012807D13D480838C1
:100D70000068C0F34040A0B90120B7E760680228CE
:100D800007D1384808380068C0F3406048B90120EE
:100D9000ACE7344808380068C0F3400008B90120C7
:100DA000A4E73048006820F00300616808432D493B
:100DB0000860FFF77FFE064609E0FFF77BFE801B19
:100DC00041F28831884202D903208FE707E02548A5
:100DD000006800F00C006168B0EB810FEDD1204895
:100DE000006800F00F00A8420ED91D48006820F0EE
:100DF0000F0028431A4908600846006800F00F00F9
:100E0000A84201D0012071E7207800F004000428F6
:100E100007D11448006820F4E050E1680843114904
:100E20000860207800F00800082808D10D48006804
:100E300020F46040216940EAC1000A49086000F0DE
:100E400019F808490968C1F30311074A515CC84001
:100E50000649086006480068FFF74AFE002045E79B
:100E6000003C0240083802403E18000810000020F4
:100E7000180000202DE9F047002400250026A14697
:100E80002548006800F00C0020B1042805D008288F
:100E90003AD105E0DFF8849039E0DFF8849036E05D
:100EA0001D48001F006800F03F041B48001F006839
:100EB00000F4800078B11A481749091F0968C1F386
:100EC0008811A0FB01700146224600233846FFF737
:100ED00099F905460EE011480F49091F0968C1F349
:100EE0008811A0FB01700146224600233846FFF717
:100EF00089F905460848001F0068C0F30140401CFE
:100F00004600B5FBF6F902E0DFF8109000BF00BF25
:100F10004846BDE8F0870000083802400024F4008D
:100F200000366E01F8B5044600270CB90120F8BD63
:100F3000207800F00100002871D0F948006800F026
:100F40000C0004280DD0F648006800F00C000828BA
:100F500013D1F348001F006800F48000B0F5800F43
:100F60000BD1EF4808380068C0F34040002869D032
:100F70006068002866D10120D9E700BF6068B0F53D
:100F8000803F08D1E6480838006840F48030E449E2
:100F9000083908602EE0606868B9E14808380068E0
:100FA00020F48030DE49083908600846006820F4E3
:100FB000802008601EE06068B0F5A02F0DD1D848F1
:100FC0000838006840F48020D54908390860084690
:100FD000006840F4803008600CE0D14808380068B0
:100FE00020F48030CE49083908600846006820F4B3
:100FF0008020086000BF606890B1FFF75BFD054688
:1010000006E0FFF757FD401B642801D903208EE757
:10101000C34808380068C0F340400028F1D011E010
:10102000FFF748FD054606E0FFF744FD401B642836
:1010300001D903207BE7BA4808380068C0F3404074
:101040000028F1D1207800F00200022869D1B448CC
:10105000006800F00C0058B1B148006800F00C00C6
:1010600008281CD1AE48001F006800F48000B0B909
:10107000AB4808380068C0F3400020B1E0680128A0
:1010800001D0012053E7A6480838006820F0F80096
:10109000216940EAC100A2490839086041E0E068DE
:1010A00028B39F480838006840F001009C4908397F
:1010B0000860FFF7FFFC054606E0FFF7FBFC401B5E
:1010C000022801D9032032E7954808380068C0F3A8
:1010D00040000028F1D092480838006820F0F8005D
:1010E000216940EAC1008E490839086019E08C483E
:1010F0000838006820F00100894908390860FFF7C6
:10110000D9FC054606E0FFF7D5FC401B022801D9B3
:1011100003200CE7824808380068C0F3400000282C
:10112000F1D1207800F00800082836D16069D0B1EC
:101130007B486C30006840F0010079496C310860F0
:10114000FFF7B8FC054606E0FFF7B4FC401B022899
:1011500001D90320EBE672486C300068C0F3400010
:101160000028F1D019E06E486C30006820F00100D2
:101170006B496C310860FFF79DFC054606E0FFF700
:1011800099FC401B022801D90320D0E664486C304A
:101190000068C0F340000028F1D1207800F004007E
:1011A000042874D15E483830006800F0805080B95F
:1011B00000BF5B483830006840F0805058493831F3
:1011C00008600846006800F08050009000BF00BF33
:1011D00001275448006800F48070B0B95148006895
:1011E00040F480704F490860FFF764FC054606E054
:1011F000FFF760FC401B642801D9032097E64948AB
:10120000006800F480700028F2D000BFA0680128B8
:1012100008D143486830006840F001004049683117
:1012200008602DE0A06868B93D486830006820F08B
:1012300001003B49683108600846006820F004005E
:1012400008601DE0A06805280DD1354868300068A9
:1012500040F004003249683108600846006840F0F8
:10126000010008600CE02E486830006820F00100A2
:101270002B49683108600846006820F004000860C7
:1012800000BFA068A8B1FFF715FC054609E02EE0F5
:10129000FFF710FC401B41F28831884201D903203E
:1012A00045E61F4868300068C0F340000028EFD0D2
:1012B00013E0FFF7FFFB054608E0FFF7FBFB401BD1
:1012C00041F28831884201D9032030E61448683061
:1012D0000068C0F340000028EFD1012F07D110486B
:1012E0003830006820F080500D4938310860A0691E
:1012F000002852D00A48006800F00C00082865D089
:10130000A06902284AD106480838006820F0807099
:10131000034908390860FFF7CDFB05460BE00000E4
:101320000838024000700040FFF7C4FB401B022851
:1013300001D90320FBE53B480068C0F3406000286A
:10134000F2D1E06940F00050216A0843616A40EA46
:1013500081110122A06AC2EB500041EA00412C2019
:10136000005D41EA00602F49091D0860081F006800
:1013700040F08070091F0860FFF79CFB054606E0FF
:10138000FFF798FB401B022801D90320CFE5254831
:101390000068C0F340600028F2D040E021480068B7
:1013A00020F080701F490860FFF784FB054606E0C7
:1013B000FFF780FB401B022801D90320B7E519483D
:1013C0000068C0F340600028F2D128E01548001DF5
:1013D0000668A069012820D006F48001E0698142F6
:1013E0001BD106F03F01206A814216D147F6C0703A
:1013F0003040616AB0EB811F0FD106F44031012209
:10140000A06AC2EB5000B1EB004F06D106F070614C
:101410002C20005DB1EB006F01D0012087E500209A
:1014200085E500000038024070B504460D460CB951
:10143000012070BD94F82C0028B9002084F82D00FC
:10144000204600F011F8022084F82C00211D2068AD
:10145000FFF7E8F82946D4E90002FFF737F9012041
:1014600084F82C000020E4E710B50446FFF790F95B
:1014700010BD70B504460D4694F82C00022800D12A
:1014800070BD022084F82C0029462068FFF704F97B
:10149000012084F82C000020F2E770B504460D46C8
:1014A000164694F82C00022800D170BD022084F862
:1014B0002C00324629462068FFF7F5F828680228F4
:1014C00003D1052084F82C0002E0012084F82C00D0
:1014D0000020EAE770B504462546681EB0F1807F1B
:1014E00001D301200FE0681E4FF0E02148610F2179
:1014F0004FF0FF3000F0BEF800204FF0E02188618F
:1015000007200861002070BD0AE014F0040F00D12C
:1015100000BF00D000BF00BF00F008F800BE00BF51
:10152000F3E700BFFEE77047704770478DB0026871
:101530000C9242680B9282680A92C2680992026910
:1015400008924269079282690692C26905920B4A23
:1015500012680492094A121F12680392074A08325D
:1015600012680292054A0C3212680192034A103244
:101570001268009200BE0DB0704700002CED00E034
:10158000704710B5FFF79CFA10BD000000B593B08E
:10159000302107A8FEF76EFE142102A8FEF76AFEAE
:1015A00000BF2648006840F0805024490860084683
:1015B000006800F08050019000BF00BF00BF2048CD
:1015C000006840F440401E4908600846006800F486
:1015D0004040019000BF00BF08210F9101200A90F8
:1015E00000210E910220079010200B9008211291EB
:1015F000C821109102200D900221119107A8FFF738
:1016000091FC08B1FFF70DF8FFF722FB08B1FFF7D7
:1016100008F84FF4A05005904FF480500690002039
:101620000490022003900F200290062102A8FFF7E9
:1016300057FB08B1FEF7F5FF13B000BD403802407C
:10164000007000400548006840F4700003490860DD
:101650004FF00060014980390860704788ED00E074
:1016600000BFFEE702480068C0F302207047000098
:101670000CED00E010B5002804DB0A07130E054A44
:10168000135406E00A07140E034A00F00F031B1F51
:10169000D45410BD00E400E018ED00E002E008C8FA
:1016A000121F08C1002AFAD170477047002001E0DC
:1016B00001C1121F002AFBD170470000FFF70CFA8E
:1016C000FFF764FFFEF742FEFEF7D4FE4FF0404006
:1016D000164908600DE01548006800F073F818B16D
:1016E00001201349087009E010480068001D0F49E7
:1016F00008600E480068B0F1424FECD300BF4FF0D5
:1017000000714FF0404000F015F810B10120084979
:1017100008704FF000714FF0404000F061F810B1D8
:1017200001200349087000BFFEE70000040000200C
:1017300000000020F0B502460E460120C0EB9605E1
:101740004FF0AA346708012102E042F82140490025
:1017500001EA05000028F8D1002342F82370012196
:1017600007E052F82100A04202D002EB8100F0BD58
:10177000490001EA05000028F3D142F82340012383
:101780001AE042F823701068A04202D002EB8300F6
:10179000EDE7012109E052F82100A04204D099426E
:1017A00002D002EB8300E2E7490001EA05000028CD
:1017B000F1D142F823405B0003EA05000028E0D1A4
:1017C00000BFD4E70246012106E01160106888429C
:1017D00001D00846704749000029F6D10020F9E7FA
:1017E00070B502460E46B4080123002103E042F81A
:1017F00021305B1C491CA142F9D3012300210BE0DD
:1018000052F82100984202D002EB810070BDDD4306
:1018100042F821505B1C491CA142F1D30123002155
:1018200009E0DD4352F82100A84202D002EB81001A
:10183000ECE75B1C491CA142F3D30020E6E7000063
:101840000000000000000102030406070809000070
:1018500000000102030400007818000800000020C6
:10186000200000009C1600089818000820000020A6
:1018700060100000AC16000800000000000000002E
:1018800000000000000000000024F4000000000040
:0818900010000000010000003F
:04000005080001C925
:00000001FF
