:0200000490006A
:10000000809C0020DD0100902D420090E13B00909B
:1000100029420090310C0090CD4600900000000075
:10002000000000000000000000000000EF01009050
:10003000950F009000000000F301009091420090A5
:10004000F7010090F7010090F7010090F701009090
:10005000F7010090F7010090F7010090F701009080
:10006000F7010090F7010090F7010090F701009070
:10007000F7010090F7010090F7010090F701009060
:10008000F7010090F7010090F7010090F701009050
:10009000F7010090F7010090F701009045140090DF
:1000A000F7010090F7010090F7010090F701009030
:1000B000F7010090F7010090F7010090F701009020
:1000C000F7010090F7010090F7010090F701009010
:1000D000F7010090F7010090F7010090F701009000
:1000E000F7010090F7010090F7010090F7010090F0
:1000F000F7010090F7010090F7010090F7010090E0
:10010000F7010090F7010090F7010090F7010090CF
:10011000F7010090F7010090F7010090F7010090BF
:10012000850F0090F7010090F7010090F701009013
:10013000F7010090F7010090F7010090F70100909F
:10014000F7010090F7010090F7010090F70100908F
:10015000F7010090F7010090F7010090F70100907F
:10016000F7010090F7010090F7010090F70100906F
:10017000F7010090F7010090F7010090F70100905F
:10018000F7010090F7010090F7010090F70100904F
:10019000F7010090F7010090F7010090F70100903F
:1001A000F7010090F7010090F7010090F70100902F
:1001B000F7010090F7010090F7010090F70100901F
:1001C000F7010090F7010090DFF80CD000F0D0F8B4
:1001D0000048004759900090809C002006488047C6
:1001E00006480047FEE7FEE7FEE7FEE7FEE7FEE71C
:1001F000FEE7FEE7FEE7FEE701430090C90100903D
:100200002DE9F05F0546002092469B46884606464B
:10021000814640241BE0284641464746224600F0DE
:1002200097F853465A46C01A914110D311461846C2
:10023000224600F07EF82D1A67EB01084F46224651
:100240000120002100F075F817EB00094E41201E37
:10025000A4F10104DFDC484631462A464346BDE8A6
:10026000F09F00000649074A0868504343F23902EC
:10027000104408604008704701490860704700005A
:10028000200100206D4EC64110B5431A934209D299
:100290008318881803E010F8011D03F8011D521E91
:1002A000F9D210BD40EA01039B0703D009E008C959
:1002B000121F08C0042AFAD203E011F8013B00F82B
:1002C000013B521EF9D210BDD2B201E000F8012B61
:1002D000491EFBD270470022F6E710B513460A46C6
:1002E00004461946FFF7F0FF204610BD30B504461E
:1002F0000020034600E05B1C934203D2E05CCD5C2F
:10030000401BF8D030BD30B50B46014600202022FE
:10031000012409E021FA02F59D4205D303FA02F512
:10032000491B04FA02F52844151EA2F10102F1DC72
:1003300030BD202A04DB203A00FA02F10020704789
:100340009140C2F1200320FA03F319439040704713
:10035000202A04DB203A21FA02F00021704721FA1A
:1003600002F3D040C2F12002914008431946704781
:10037000064C074D06E0E06840F0010394E80700F2
:1003800098471034AC42F6D3FFF722FFC4600190C7
:10039000E460019010B500221146501E02F0CBFA25
:1003A00000F056FA4FF04041012000F095FA01208C
:1003B00000F03CFB0A4800F04DFB03F0A1FC09A053
:1003C00003F0E4FC0DA003F0A3FC00BF4FF0FF30EE
:1003D0001049086010A004F0ABF900BF10BD000088
:1003E0002C000020544350204563686F20536572F1
:1003F00076657220526177204150490053544D3345
:1004000032373536472D4556414C20626F61726454
:100410000000000010000020202053746174653A31
:100420002045746865726E657420496E69746961EF
:100430006C697A6174696F6E202E2E2E0A0000009E
:1004400000B585B0012002900C200490022001909C
:10045000032003904CF20370009069460C4801F0B1
:10046000F3FF4FF68070009069460A4801F0ECFFF8
:100470004FF23F0000906946074801F0E5FF372042
:1004800000906946054801F0DFFF05B000BD00009F
:10049000000C02400010024000140240001802400C
:1004A0007CB5044600F0C4F9054600F0B1F90646F3
:1004B0000020CDE900040848006800EB800202EB50
:1004C000C002064800EB82002B463246416A0248D1
:1004D000006803F0F3FC7CBD4C000020744E00204B
:1004E00010B5A2B00446C02006900521089108204E
:1004F000019040030C9001A802F0B8FA22B010BDA0
:100500002DE9F04106460F461446A4F12000144997
:10051000096801EB4101134B03EB81018968C9882C
:1005200048430F49096801EB410103EB81018968E8
:100530008988CD1DE91705EB5171C910084B1B685F
:1005400003EB4303DFF81CC00CEB83039B681B68C1
:1005500000FB01323946304600F01EFDBDE8F08157
:100560004C000020E44D002010B50021044803F0A9
:10057000F3FA00224FF48071024802F071F810BDC6
:10058000FC4D0020002002402DE9FF5F0446154687
:10059000984601264FF0000900274FF0000AAB46AD
:1005A00000E07F1C1BF8011B0029FAD100F030F994
:1005B0003D49096801EB41013C4A02EB8101896830
:1005C0008988B0FBF1FAB8F1010F06D0B8F1020F3B
:1005D00015D0B8F1030F22D10FE0AAEB0700324982
:1005E000096801EB4101314A02EB81018968898880
:1005F000484304EB500086B213E0264611E0AAEB14
:1006000007012948006800EB4000284A02EB8000FF
:1006100080688088624201FB002086B201E02646A5
:1006200000BF00BF012E02DBB6F5004F00DB012644
:1006300014E02A7830460199FFF762FF1A480068F3
:1006400000EB4000194901EB80008068808830444D
:1006500086B26D1C09F101001FFA80F900F0D8F88C
:100660001149096801EB4101104A02EB81018968D7
:10067000898809FB110080B20B49096801EB41012F
:1006800002EB810189688988884201D3012000E05A
:100690000020297809B1012100E00021084000284C
:1006A000C7D1BDE8FF9F00004C000020E44D0020B2
:1006B00070B504460D4600F09DF8C088604386B2D0
:1006C00003232A4631460020FFF75EFF70BD00007D
:1006D00030B503460C461748006800EB800101EB7B
:1006E000C001154800EB81000069022810D100F01C
:1006F0008FF804FB003041000E48006800EB8005D5
:1007000005EBC0050C4800EB8500406A42520FE043
:1007100000F07EF804FB003081000648006800EB22
:10072000800505EBC005044800EB8500406A425097
:1007300030BD00004C000020744E00202DE9FC4725
:1007400004460D461746984600BF2749096801EB45
:100750004101264A52F8210000F08AF92248006837
:1007600000EB800101EBC001214800EB8100006932
:10077000022811D100F04CF800FB05411A4800682E
:1007800000EB800202EBC002194800EB8200406AD5
:10079000022202FB010610E000F03AF800FB0541DE
:1007A0001148006800EB800202EBC002104800EB29
:1007B0008200406A042202FB010600F029F8A0EB47
:1007C00007090948006800EB4000084951F820007B
:1007D00043463A463146CDE900900348006803F0AD
:1007E0006DFBBDE8FC8700004C000020E44D0020BC
:1007F000744E00200448006800EB4000034901EB00
:1008000080008068704700004C000020E44D00200C
:100810000548006800EB800101EBC001034800EBD4
:100820008100806A704700004C000020744E002058
:100830000548006800EB800101EBC001034800EBB4
:100840008100C06A704700004C000020744E0020F8
:1008500010B503F0C7F91E481E49086000211D4865
:100860004161022181612E21C1611921016240F2A1
:100870004E31416240F2F911816240F20F21016371
:100880004FF48461C162FFF72BFE0021114880F80C
:10089000341080F8351080F836104FF44871016636
:1008A0004FF4F071416600200A4948600021094870
:1008B0008160C160016101F058FF10B9054800F086
:1008C00053F8044801F056FF00F0DEF8002010BD98
:1008D000006801403C4E002030B58DB004460D4606
:1008E00000200090FFF794FF019000200290FFF796
:1008F0009FFF0390002004900995FF2005900020A1
:1009000006908DF8300000218DF831108DF83210EE
:100910004FF4C060079007200890FFF779FF0A9016
:10092000FFF786FF0B90224669460C4801F0EEFE69
:100930004FF0FF3004EB4401094A02EB81014860AB
:10094000084804EB440102EB810188604FF07F40CE
:1009500004EB440142F821000DB030BD3C4E0020B4
:10096000E44D00202C00002010B586B0044600BFE6
:100970002848006840F08060264908600846006802
:1009800000F08060009000BF00BF00BF2148143815
:10099000006840F400001F491439086008460068E8
:1009A00000F40000009000BF00BF002003900E2064
:1009B000059002200290032004904020019001A99C
:1009C000154801F041FD4FF42240019001A9134860
:1009D00001F03AFD4EF20340019001A9104801F0E8
:1009E00033FD4FF2BB50019001A90E4801F02CFDE0
:1009F000FC20019001A90C4801F026FD0120029085
:100A00000002019001A9064801F01EFDFFF7ACFDB0
:100A100006B010BD4438024000180240001C0240DD
:100A200000200240002402400028024001490860E2
:100A3000704700004C0000200449096801EB4101A7
:100A4000034A02EB81014860704700004C0000201F
:100A5000E44D00200449096801EB4101034A02EB1F
:100A600081018860704700004C000020E44D0020A8
:100A70000349096801EB4101024A42F8210070472D
:100A80004C000020E44D002010B501241A481B49F9
:100A9000086002201A49486188610620C860042065
:100AA000886002200860086107204860E10213485E
:100AB00001620020114948601021104801610901BC
:100AC000816109014162002181620821C160012127
:100AD0008160402141610021C16100F067F808494F
:100AE000064802F0DDFE00B100E0002440F61820C8
:100AF00000F008F8204610BD400100A0244F00205F
:100B0000584F002038B504460020009001202549A8
:100B1000086010204860012088600020C8604FF6FF
:100B2000FF72214802F0F1FE012000F0C5FF022013
:100B30001C49086010204860012088600020C860BF
:100B40004FF6FF72184802F0E0FE032015490860D6
:100B500010204860082088600020C8604FF6FF72AF
:100B6000114802F0D2FE4FF40870009004200D49A5
:100B7000086010204860012088600098C8604FF627
:100B8000FF72094802F0C1FE2146074802F0A9FEA3
:100B900005480068406940F6182108430249096881
:100BA000486138BD744F0020244F002010B586B036
:100BB000044600BF1948006840F00100174908606A
:100BC0000846006800F00100009000BF00BFFFF77A
:100BD00037FC012003900C20059002200290032096
:100BE00004900120019001A90D4801F02DFC4FF463
:100BF0000060019001A90B4801F026FC4FF4014070
:100C0000019001A9084801F01FFC0C20019001A9E6
:100C1000064801F019FC06B010BD0000383802404B
:100C2000000802400014024000180240001C02406C
:100C300000BFFEE710B500BF2A48006800F400308E
:100C400000B115E0BFF34F8FBFF36F8F002026492F
:100C50000860BFF34F8FBFF36F8F2248006840F4E6
:100C6000003020490860BFF34F8FBFF36F8F00BF84
:100C700000BF1C4B1B6803F4803303B130E000233A
:100C8000184C70342360BFF34F8F231F1868C0F3D4
:100C90004E3100BFC0F3C90200BF43F6E07303EA60
:100CA00041134FF0404404EA827423430E4C103445
:100CB000236000BF00BF131EA2F10102EDD10B1E85
:100CC000A1F10101E6D1BFF34F8F064B1B6843F43E
:100CD0008033044C2360BFF34F8FBFF36F8F00BF8F
:100CE00010BD000014ED00E050EF00E010B5044628
:100CF00001F0BCFC06490968401AB0F5FA7F06D33A
:100D000001F0B4FC02490860204600F003F810BD71
:100D10000000002070B588B004463B4800780128E8
:100D200004D0022816D0052869D161E00020606057
:100D3000A060E060022034490870204605F0CCF93C
:100D400000BF4FF0FF303149086031A003F0F0FCE4
:100D500000BF55E0204605F055FAA8B103202A4906
:100D60000870201D07F086FB0646324632A1684611
:100D700003F0EEFC00BF4FF0FF30244908606946E5
:100D80002EA003F0D5FC32E0656AA87904282EDD98
:100D900004201D490870204605F02EFA32480790BD
:100DA0006FF07F4006903148059005AB06AA07A971
:100DB000204608F07FFF201D07F05CFB0646324608
:100DC0001DA1684603F0C4FC00BF4FF0FF300F497F
:100DD000086027A003F0ACFC00BF00BF4FF0FF305D
:100DE0000A490860694627A003F0A2FC00BF07E09B
:100DF000204605F001FA00200349087000E000BF1A
:100E000000BF08B070BD00000400002010000020EA
:100E1000202053746174653A204C6F6F6B696E6764
:100E200020666F7220444843502073657276657265
:100E3000202E2E2E0A00000025730000495020614C
:100E40006464726573732061737369676E6564208F
:100E50006279206120444843502073657276657240
:100E60003A2025730A000000C0A8000AC0A80101AA
:100E7000444843502054696D656F757420212120CA
:100E80000A00000053746174696320495020616452
:100E900064726573733A2025730A00002DE9F047E8
:100EA0000C4617469C46DDF82080D0F80090D9F813
:100EB000449009F0404948EA0C4A49EA0A09D0F846
:100EC00000A0CAF84490D0F80090C9F83C70D0F85F
:100ED0000490B9F5403F4ED104F07F4604F47F0101
:100EE00004F47F42E3B2D0F80890B9F1000F06D1C4
:100EF00042EA010949EA060949EA030536E0D0F861
:100F00000890B9F1010F04D142EA010949EA030549
:100F10002CE0D0F80890B9F1020F09D1C90C920A5F
:100F2000DB084FEA421949EAC12949EA03051DE0F5
:100F3000D0F80890B9F1030F0CD1F60FC90CD20A02
:100F4000DB084FEA421949EA812949EAC63949EAE8
:100F500003050BE0360F090D120B1B094FEA0219AE
:100F600049EA012949EA063949EA0305D0F800901F
:100F7000C9F8385003E0D0F80090C9F80C40BDE83B
:100F8000F087000010B50249886B00F075FC10BDB9
:100F9000504D0020704700002DE9FC4F0746894660
:100FA00092464FF0000800263A48006800EB4000E7
:100FB000394901EB80008068B0F806B03548006818
:100FC00000EB400001EB800080688588E81DC117B8
:100FD00000EB5171C910C5EBC101C9B2019100BF4D
:100FE00054E0E81DC11700EB5171C91001FB08A4C2
:100FF000C11700EB5171C910012904D0022905D095
:10100000032909D109E0207800900FE06078217869
:1010100040EA0120009009E000BF207800046178D8
:1010200040EA0120A1780843009000BF00BF0026DD
:1010300024E0A91B01980844401E012101FA00F098
:101040000099084060B11349096801EB4101124B56
:1010500053F82120B91988B24946FFF739FB0CE053
:101060000C49096801EB41010B4B03EB81014A6814
:10107000B91988B24946FFF72BFB761CAE42D8D38C
:1010800009F101001FFA80F908F10108D845A8D339
:10109000BDE8FC8F4C000020E44D0020016801F504
:1010A0008051896921F00202016801F580518A614D
:1010B0007047016801F58051896941F002020168B9
:1010C00001F580518A617047016801F58051896995
:1010D00021F40052016801F580518A61704701686E
:1010E00001F58051896941F40052016801F5805190
:1010F0008A61704738B5044600200090206800F5EA
:101100008050806940F48011206800F58050816132
:10111000206800F5805080690090012000F0CCFC30
:101120000099206800F58050816138BD30B50346D4
:101130001479557944EA0520084C0C442064D4788D
:101140002406957844EA0544557844EA0524157840
:1011500044EA0500014C0C44606430BD008002404C
:1011600070B5AEB004460E46002526B14FF40061BE
:10117000E160C900A16000201190129013901490BA
:1011800015901690E06918B94FF48060179001E04F
:10119000002017904FF400701890002019901A90BA
:1011A0001B901C901D9040201E9000201F902090AE
:1011B00021902290239024902590269080202790A3
:1011C0000020289029902A902B902C902D90206818
:1011D000056871480540DDE911010843139908438A
:1011E00014990843A16808431599084316990843C0
:1011F000E168084317990843189908431999084367
:101200001A9908431B990843054320680560206824
:101210000568012000F050FC20680560DDE91C0134
:1012200008431E9908431F990843209908432199B0
:10123000084322990843239908432168486020689D
:101240004568012000F038FC20684560249821683A
:10125000886025982168C860206885694FF64170CC
:101260000540DDE9261040EA014028990843299904
:1012700008432A9908432B99084305432068856150
:1012800020688569012000F017FC20688561DDE990
:101290002C0108432168C8612068C569012000F05D
:1012A0000BFC2068C561002001904FF00070029097
:1012B000002003904FF40010049000200590069049
:1012C0000790089004200990C0050A9040120B90E6
:1012D00080010C9040120D9080200E9000200F9005
:1012E0001090206800F5805085692C480540DDE9A4
:1012F00001010843039908430499084305990843E9
:10130000069908430799084308990843099908432F
:101310000543206800F580508561206800F5805005
:101320008569012000F0C8FB206800F580508561C8
:10133000DDE90A0108430C9908430D9908430E9909
:1013400008430F9940EA81001099084340F40001D6
:10135000206800F580500160206800F58050056825
:10136000012000F0A9FB206800F580500560A0690D
:10137000012809D1206800F58050C0690849084358
:10138000216801F58051C861002120466269FFF79C
:10139000CDFE2EB070BD00000F8120FF233FDEF890
:1013A0004000010038B50446002000902068006825
:1013B00020F0040021680860206800680090012087
:1013C00000F07AFB00982168086038BD38B5044603
:1013D000002000902068006840F004002168086048
:1013E000206800680090012000F066FB00982168EA
:1013F000086038BD38B504460020009020680068B9
:1014000020F0080021680860206800680090012032
:1014100000F052FB00982168086038BD38B50446DA
:10142000002000902068006840F0080021680860F3
:10143000206800680090012000F03EFB00982168C1
:10144000086038BD704700BFFEE700BFFEE730B55B
:101450000246002300240868012816D013686FF3A1
:101460000E03D1E901052843CD6828430D692843BF
:101470004D6928438D692843CD6928430D6A284367
:101480004D6A28430343136019E0136823F4F843BB
:10149000D1E9070528434D6A2843034354686FF395
:1014A0000E04D1E901052843CD6828430D6928437E
:1014B0004D6928438D69284304431360546000201C
:1014C00030BD0246506940EA41005061002070473B
:1014D00018B5034600200090D1E9000420438C6831
:1014E000641E40EA4410CC6840EA44200090009812
:1014F0001861002018BD000070B503461546002293
:101500000024012D1FD09A6802F070420868401E26
:101510004E68761E40EA06168868401E46EA002697
:10152000C868401E46EA0036088A401E46EA004661
:10153000888A401E46EA0056087E401E46EA006041
:1015400002439A6022E09A6811480240C868401E2F
:101550000603888A401E46EA00500243DC6804F015
:1015600070440868401E4E68761E40EA0616886879
:10157000401E46EA0026088A401E46EA0046087ECB
:10158000401E46EA006004439A60DC60002070BDA3
:10159000FF0F0FFF70B502460C465068B0F5403F94
:1015A00002D0506800B100BF00BF92F83800012897
:1015B00001D1022070BD012082F8380000BF022056
:1015C00082F8390002F1180000EB04110E89486816
:1015D00040EA0643214D48680A2802D04868092895
:1015E00004D1C86800F07F40034302E0087B43EA6F
:1015F0000063A4B91068406AA84318431668706273
:1016000008681668B06148680A2802D04868092846
:1016100019D1C86820F07F401668B06213E01068E6
:10162000C069A84318431668F061086816683061FD
:1016300048680A2802D04868092804D1C86820F000
:101640007F4016683062012082F8390000BF002018
:1016500082F8380000BF00BFACE700000F0003FFB6
:1016600010B504460CB9012010BD94F8390028B912
:10167000002084F83800204600F022F8022084F888
:1016800039002068006820F4403061680843216810
:1016900008602068406B20F00700A16808432168BB
:1016A00048632068006C6FF30D00E168084321680F
:1016B00008640020E063012084F839000020D3E7AB
:1016C0007047F8B504460D46002000902068006879
:1016D00000F00100002843D000F0C8FF064639E0C2
:1016E000206840680090009800F02100E0B1009868
:1016F00000F0200018B1E06B40F00200E0630098B9
:1017000000F0010018B1E06B40F00100E06321201F
:1017100021688860042084F8390000BF002084F824
:10172000380000BF0120F8BD681C98B100F09EFF92
:10173000801BA84200D86DB9E06B40F02000E06348
:10174000032084F8390000BF002084F8380000BF6F
:101750000320E8E72068406800F002000028BFD0BE
:101760002068C06900F020072068406A00F020006F
:101770000743002F4BD000F079FF064641E0206878
:1017800040680090009800F0290020B3009800F015
:10179000080018B1E06B40F00400E063009800F02E
:1017A000200018B1E06B40F00200E063009800F008
:1017B000010018B1E06B40F00100E06329202168CE
:1017C0008860042084F8390000BF002084F83800C5
:1017D00000BF0120A7E7681C98B100F047FF801BFD
:1017E000A84200D86DB9E06B40F02000E063032010
:1017F00084F8390000BF002084F8380000BF0320BF
:1018000091E72068406800F010000028B7D012204F
:1018100021688860012084F8390000BF002084F826
:10182000380000BF00BF7EE72DE9F84304460D46AF
:1018300016461F46DDF8208000BF94F838000128C6
:1018400002D10220BDE8F883012084F8380000BFEF
:10185000022084F839003B46324629462046CDF81E
:101860000080FFF71BFB2068006840F00100216842
:1018700008600020E6E70000F8B50446002000906C
:101880008C4800684FF41651B0FBF1F7A56D2E6837
:1018900094F85C1008208840304098B120680068B7
:1018A00000F0040070B12068006820F00400216896
:1018B000086094F85C1008208840A860606D40F0D3
:1018C0000100606594F85C1001208840304068B1E8
:1018D0002068406900F0800040B194F85C1001205D
:1018E0008840A860606D40F00200606594F85C106C
:1018F00004208840304068B12068006800F0020091
:1019000040B194F85C1004208840A860606D40F0FD
:101910000400606594F85C1010208840304078B373
:101920002068006800F0080050B394F85C101020A4
:101930008840A8602068006800F4802080B120689A
:10194000006800F4002028B9206CC8B12046216C42
:10195000884715E0A06C98B12046A16C88470FE03D
:101960002068006800F4807028B92068006820F0C2
:10197000080021680860206C10B12046216C88475F
:1019800094F85C10202088403040002865D0206802
:10199000006800F0100000285FD094F85C10202050
:1019A0008840A86094F83500052828D12068006890
:1019B00020F01600216808602068406920F080004F
:1019C00021684861206C08B9A06C28B120680068C3
:1019D00020F008002168086094F85C103F208840DF
:1019E000A86000BF002084F8340000BF012084F804
:1019F0003500206D10B12046216D8847F8BD206864
:101A0000006800F4802080B12068006800F40020A5
:101A100028B9606C10B12046616C88471DE0E06B0E
:101A2000D8B12046E16B884717E02068006800F4D1
:101A3000807068B92068006820F010002168086094
:101A400000BF002084F8340000BF012084F8350076
:101A5000E06B10B12046E16B8847606D38B3606D74
:101A600000F00100F0B1052084F83500206800681E
:101A700020F001002168086000BF0098401C009021
:101A8000B84200D905E02068006800F00100002895
:101A9000F3D100BF00BF002084F8340000BF012054
:101AA00084F83500E06C10B12046E16C884700BF37
:101AB000A4E700005000002070B5044600F0D6FDF9
:101AC00006462546681C10B104480078054400BF4E
:101AD00000F0CCFD801BA842FAD370BD5C00002052
:101AE00070B505460C46002600BF95F84500012854
:101AF00001D1022070BD012085F8450000BF022001
:101B000085F84400002C6DD02868066843480640DC
:101B1000D4E900010843A1680843E1680843A968C3
:101B200008432169084361690843E9680843A169DA
:101B30000843E1690843216A0843616A0843A16ACE
:101B40000843064328680660286806680120FFF7F6
:101B5000B3FF28680660D4E90B010843616B0843B2
:101B6000A16B0843E16B0843216C0843616C084397
:101B7000A16C084329684860286846680120FFF77F
:101B80009BFF28684660E06C29688860206D2968A2
:101B9000C860286886694FF641700640B4F8541052
:101BA000A06D40EA0140E16D0843216E0843616E7B
:101BB0000843A16E08430643286886612868866941
:101BC0000120FFF779FF28688661D4E91B010843EB
:101BD0002968C8612868C6690120FFF76DFF286879
:101BE000C66110E02868066826F49046D5E902012F
:101BF0000843064328680660286806680120FFF746
:101C00005BFF28680660012085F8440000BF0020C3
:101C100085F8450000BF00BF6CE700000F8120FF82
:101C200070B504460D461646002200BF94F84500E4
:101C3000012801D1022070BD012084F8450000BFB9
:101C4000022084F84400A56200221FE005EB421147
:101C50004FF00040086044F2F4504860C2EBC210FC
:101C600000EB400006EB80008860A069012803D1EA
:101C7000486820F000404860581E904204D905EBA7
:101C800042102030C86000E0CD60521C9A42DDD383
:101C9000206800F58050C560012084F8440000BF32
:101CA000002084F8450000BF00BFC4E770B50446BB
:101CB0000D461646002200BF94F84500012801D1C8
:101CC000022070BD012084F8450000BF022084F886
:101CD0004400E56200221BE005EB42114FF4801046
:101CE0000860C2EBC21000EB400006EB8000886089
:101CF000E06918B9086840F440000860581E904236
:101D000004D905EB42102030C86000E0CD60521CC1
:101D10009A42E1D3206800F580500561012084F8E3
:101D2000440000BF002084F8450000BF00BFC8E7A2
:101D30000146002200BF91F84500012801D1022090
:101D40007047012081F8450000BF022081F844005F
:101D5000886A006800F00040002838D1886A00686E
:101D600000F48070F0B1886B401C8863886B012898
:101D700001D1886A08638B6A4B63886A0068C0F384
:101D80000D40021FCA63086B83680B64886AC068D1
:101D90008862012081F8440000BF002081F84500DE
:101DA00000BFCDE7886A006800F4007048B1886A17
:101DB000086300234B6301238B63886AC0688862D1
:101DC00005E0886B401C8863886AC06888620120CF
:101DD00081F8440000BF002081F8450000BF0120C9
:101DE000AEE700002DE9FC410446002500200190EB
:101DF0009C4E0027804614B90120BDE8FC8194F870
:101E0000440028B9002084F84500204600F038F945
:101E100000BF9548006840F4804093490860084638
:101E2000006800F48040009000BF00BF8F48006849
:101E300020F400008D49086008460068216A0843C4
:101E40008A490860206800F58050006840F0010170
:101E5000206800F58050016000F008FC07460FE0A4
:101E600000F004FCC01BB0F5FA7F09D9032084F808
:101E7000440000BF002084F8450000BF0320BCE7F9
:101E8000206800F58050006800F001000028E7D1CC
:101E90002068056925F01C0501F022FA0646744801
:101EA000864205D37348864202D245F008051AE0FF
:101EB0007048864205D36B48864202D245F00C0535
:101EC00011E06848864203D36B48864200D20AE09C
:101ED0006948864205D36948864202D245F0040526
:101EE00001E045F01005206805614FF40042002133
:101EF000204600F061FA48B14FF001084146204603
:101F0000FFF72EF9012084F8440076E7FF20FFF761
:101F1000D3FD6068002871D000F0A8FB074600BF21
:101F200001AA0121204600F00DF900F09FFBC01B23
:101F300041F2883188420FD94FF0010841462046CE
:101F4000FFF70EF9012084F8440000BF002084F858
:101F5000450000BF032050E7019800F0040004286A
:101F6000DED182020021204600F026FA48B14FF06F
:101F7000010841462046FFF7F3F8012084F84400A9
:101F80003BE700F073FB074600BF01AA0121204692
:101F900000F0D8F800F06AFBC01B41F2883188429B
:101FA0000FD94FF0010841462046FFF7D9F801202C
:101FB00084F8440000BF002084F8450000BF0320DF
:101FC0001BE7019800F020002028DED101AA102193
:101FD000204600F0B7F848B14FF0010841462046CE
:101FE000FFF7BEF8012084F8440006E7019800F0EE
:101FF000040020B14FF40061E16002E00DE0002137
:10200000E160019800F00200022802D10021A160E5
:102010001EE04FF48041A1601AE0E068C0F3CF00F9
:10202000A168C1F34F0140EA01020021204600F0FF
:10203000C3F948B14FF0010841462046FFF790F838
:10204000012084F84400D8E640F6FF70FFF734FD25
:1020500041462046FFF784F8012084F84400002020
:10206000CBE6000000879303443802400438014067
:10207000002D3101C00E160200E1F50580D1F008F7
:1020800010B586B0044600BF00BF2948006840F084
:102090000070274908600846006800F00070009052
:1020A00000BF00BF00BF0846006840F080600860C5
:1020B0000846006800F08060009000BF00BF00BFCD
:1020C0000846006840F0006008600846006800F0BC
:1020D0000060009000BF00BF00BF002003900220FE
:1020E000029003200490C81401900B20059001A9D0
:1020F000104800F0A9F94FF44050019001A90E4892
:1021000000F0A2F93220019001A90C4800F09CF9DE
:102110008620019001A90A4800F096F90420019058
:102120000020029001A9054800F08EF906B010BD0C
:10213000303802400018024000040240000802400B
:10214000000002402DE9F04104460E4617460025E6
:10215000A84694F84400822802D10220BDE8F0810C
:10216000822084F844002068056905F01C05208A57
:102170004FF4784101EAC0200543481100EA861077
:10218000054325F0020545F001052068056100F0D2
:102190006DFA804612E000F069FAA0EB0800B0F595
:1021A000803F09D3012084F8440000BF002084F858
:1021B000450000BF0320D1E72068056905F0010054
:1021C0000028E8D12068406980B23860012084F896
:1021D00044000020C2E710B5044600BF94F8450053
:1021E000012801D1022010BD012084F8450000BF64
:1021F000022084F844002046FFF710F92046FFF73C
:10220000E5F82046FEF776FF2046FEF768FF2046F9
:10221000FEF74FFF012084F8440000BF002084F83F
:10222000450000BF00BFDEE710B5044600BF94F8CC
:102230004500012801D1022010BD012084F845008D
:1022400000BF022084F844002046FEF73DFF2046F0
:10225000FEF724FF2046FFF7A5F82046FEF74AFFC9
:102260002046FFF7C7F8012084F8440000BF002093
:1022700084F8450000BF00BFDEE770B502460023CA
:102280000025002400BF92F84500012801D102205A
:1022900070BD012082F8450000BF022082F8440092
:1022A00049B9012082F8440000BF002082F84500AF
:1022B00000BF0120ECE7D06A006800F0004048B1A0
:1022C000122082F8440000BF002082F8450000BFC1
:1022D0000120DDE740F2F450814208D9B1FBF0F370
:1022E000B1FBF0F600FB161010B15B1C00E00123FF
:1022F000012B13D1D06A006840F04050D66A30609C
:10230000C1F30C00D66A7060D06A006840F00040EB
:10231000D66A3060D06AC068D06232E000242EE015
:10232000D06A006820F04050D66A30602CB9D06A7C
:10233000006840F08050D66A306040F2F450D66AAF
:102340007060581EA04210D1D06A006840F0005062
:10235000D66A3060581EC0EBC01000EB4000A1EB05
:102360008005C5F30C00D66A7060D06A006840F042
:102370000040D66A3060D06AC068D062641C9C425B
:10238000CED3106800F58050406900F0040048B1D9
:102390000426106800F5805046610026106800F59C
:1023A00080504660012082F8440000BF002082F87F
:1023B000450000BF00BF6BE72DE9F04104460E4623
:1023C00017460025A84694F84400422802D102206E
:1023D000BDE8F081422084F844002068056905F0DA
:1023E0001C05208A4FF4784101EAC02005434811BA
:1023F00000EA8610054345F0020545F00105B8B234
:10240000216848612068056100F030F9804612E0DB
:1024100000F02CF9A0EB0800B0F5803F09D30120B3
:1024200084F8440000BF002084F8450000BF03206A
:10243000CEE72068056905F001000028E8D10120F9
:1024400084F844000020C3E7F8B502460B4600219B
:1024500000250024002000BFE4E0012606FA01F573
:102460001E6806EA0504AC4271D15E68012E08D0F0
:102470005E68022E05D05E68112E02D05E68122EB4
:1024800013D190684F000326BE40B0434F00DE6872
:10249000BE4030439060506801268E40B0431E79A4
:1024A000C6F300168E4030435060D0684F000326BC
:1024B000BE40B0434F009E68BE403043D0605E686F
:1024C000022E02D05E68122E13D1CF0802F1200630
:1024D00056F827004E07F70E0F26BE40B0434F07B1
:1024E000FF0E1E69BE403043CF0802F1200646F8B9
:1024F000270010684F000326BE40B0431E7906F047
:1025000003064F00BE40304310605E6806F0805600
:10251000B6F1805FA8D100BF444E366846F48046CD
:10252000424F3E603E46366806F48046009600BF45
:1025300000BF3F4E8F0856F827008E07370F0F2633
:10254000BE40B0433B4EB24202D100262EE068E0CE
:10255000394EB24201D1012628E0384EB24201D1B3
:10256000022623E0364EB24201D103261EE0354E4C
:10257000B24201D1042619E0334EB24201D1052600
:1025800014E0324EB24201D106260FE0304EB24284
:1025900001D107260AE02F4EB24201D1082605E0FC
:1025A0002D4EB24201D1092600E00A268F073F0FC7
:1025B000BE4030431E4E8F0846F82700274E306835
:1025C000A0435E6806F48036B6F5803F00D1204314
:1025D000224E3060361D3068A0435E6806F4003637
:1025E000B6F5003F00D120431C4E361D3060361D2D
:1025F0003068A0435E6806F48016B6F5801F00D1EF
:102600002043164E08363060361D3068A0435E68A1
:1026100006F40016B6F5001F00D120430F4E0C360D
:102620003060491C1029FFF418AFF8BD443802404F
:102630000838014000000240000402400008024047
:10264000000C02400010024000140240001802403A
:10265000001C02400020024000240240003C0140D7
:102660000AB1816101E00B04836170470148006891
:1026700070470000540000200348006803490978AF
:102680000844014908607047540000205C000020A5
:1026900010B50A48006840F4007008490860084610
:1026A000006840F480700860032000F083F90F2078
:1026B00000F006F800F03EF9002010BD003C02409A
:1026C00070B504460E4800784FF47A71B1FBF0F013
:1026D0000C490968B1FBF0F5284601F033F908B15F
:1026E000012070BD102C07D200222146501E00F0A0
:1026F00022F90548046001E00120F2E70020F0E73C
:102700005C000020500000205800002070B50446F6
:102710000E46154600BF94F8A000012801D1022002
:1027200070BD012084F8A00000BF022084F8A10041
:1027300005EB850101EBC50204F1380101EB8200D4
:1027400034223146FDF7A0FD2A463146204601F0ED
:10275000F9FB01202168486284F8A10000BF002035
:1027600084F8A00000BF00BFDAE7014691F8A1009D
:102770007047000070B504460CB9012070BD94F894
:10278000A10028B9002084F8A000204600F07EF8BF
:10279000022084F8A1002068806920F07040216840
:1027A0008861D4E901010843E168084321690843CD
:1027B00021688969084321688861206880683249F6
:1027C000084021688860A08A050420688068A169A3
:1027D00029430843216888602068C0682A49084066
:1027E0002168C860A08B05042068C068216A29435D
:1027F00008432168C86020680069234908402168AF
:102800000861A08C050420680069A16A2943084377
:1028100021680861206840691B49084021684861B7
:10282000A08D050420684069216B29430843216875
:10283000486194F83500050294F8360006042068D3
:10284000C06A00F07F402168C86246EA050094F83B
:10285000341008432168C96A08432168C8622068A7
:10286000406B40F00600216848632068806940F0B2
:102870000100216888610020C4F8A400012084F8C8
:10288000A10000207AE7000000F800F07047000087
:102890004178154A11600178F9B1121D4168116043
:1028A000017B0907C27A41EA0261827A41EAC241A8
:1028B000427B41EA8241827B41EA4241C27B41EA5A
:1028C0000241427A41EA0221027A41EA4201027857
:1028D0001143054A0832116005E00021024A121D29
:1028E0001160121D1160704798ED00E0BFF35F8F1B
:1028F0000548006820F48030034908600020024940
:10290000703108607047000024ED00E040F00101E4
:10291000074A116006497039096841F48031044A58
:10292000703A1160BFF34F8FBFF36F8F7047000095
:1029300094ED00E070472DE9F05F80460D461646A5
:10294000002701F019FF074639462A46334601F0B1
:102950000700C0F1070ABAF1040F02D94FF0040AC8
:1029600001E0C0F1070AD14600F1040ABAF1070FED
:1029700002D24FF0000A01E0A0F1030AD4464FF062
:10298000010A0AFA09FAAAF1010A0AEA020A0AFA8B
:102990000CFA4FF0010B0BFA0CFBABF1010B0BEA3D
:1029A000030B4AEA0B042146404601F0EDFEBDE868
:1029B000F09F000000BF00F00702064B19684FF6B9
:1029C000FF031940044B0B4343EA0221014B1960FA
:1029D00000BF70470CED00E00000FA0538B5002498
:1029E00000BF2048006840F080501E49086008463B
:1029F000006800F08050009000BF00BF1A480068D7
:102A000040F4803018490860FFF730FE044607E0C4
:102A1000FFF72CFE001BB0F57A7F01D9032038BDEB
:102A20001148406800F48030B0F5803FF0D10E4886
:102A3000006840F400300C490860FFF717FE0446B8
:102A400007E0FFF713FE001BB0F57A7F01D90320E2
:102A5000E5E70548406800F40030B0F5003FF0D1EC
:102A60000020DCE740380240007000402DE9F843C8
:102A70000446002600250027A846A946207800F035
:102A8000010088B100BFFE48006820F40000FC4946
:102A9000086008460068616B0843F949086000BF98
:102AA000606B08B94FF00108206800F40020B0F511
:102AB000002F13D1F2488430006820F44010E16BFD
:102AC0000843EF4984310860E06BB0F5801F01D105
:102AD0004FF00108E06B08B94FF00109206800F4DD
:102AE0008010B0F5801F13D1E5488430006820F4D1
:102AF0004000216C0843E24984310860206CB0F545
:102B0000800F01D14FF00108206C08B94FF0010986
:102B1000206800F08070B0F1807F01D14FF0010893
:102B2000207800F02000202870D100BFD448383031
:102B3000006840F08050D24938310860084600688B
:102B400000F08050009000BF00BFCE48006840F405
:102B50008070CC490860FFF789FD064607E0FFF763
:102B600085FD801B642802D90320BDE8F883C54891
:102B7000006800F480700028F1D0C1486830006817
:102B800000F4407585B3208E00F44070A8422BD02D
:102B9000BB486830006820F44075B9486830006868
:102BA00040F48030B649683108600846006820F477
:102BB0008030086008460560006800F0010098B1A8
:102BC000FFF754FD064608E0FFF750FD801B41F279
:102BD0008831884201D90320C7E7A94868300068D6
:102BE000C0F340000028EFD000BF208E00F44070FA
:102BF000B0F5407F0BD1A248006820F4F810A24A3B
:102C0000216B114008439E49086006E010E09C4893
:102C1000006820F4F8109A49086099486830006804
:102C2000218EC1F30B01084395496831086000BF4C
:102C3000207800F01000102810D100BF9048843098
:102C4000006820F080708E49843108600846006872
:102C5000A16B08438A498431086000BF208800F4D2
:102C60008040B0F5804F09D185488830006820F455
:102C70004030616E0843824988310860208800F442
:102C80000040B0F5004F09D17D488830006820F43D
:102C90004020A16E08437A4988310860206800F41A
:102CA0008030B0F5803F09D175488830006820F445
:102CB0004010E16E0843724988310860206800F4D2
:102CC0000030B0F5003F09D16D488830006820F42D
:102CD0004000216F08436A4988310860207800F07D
:102CE0004000402809D166488830006820F0030081
:102CF000616C0843624988310860207800F08000E8
:102D0000802809D15E488830006820F00C00A16C52
:102D100008435B4988310860208800F48070B0F572
:102D2000807F09D156488830006820F03000E16C7F
:102D30000843534988310860208800F40070B0F5DA
:102D4000007F09D14E488830006820F0C000216D16
:102D500008434B4988310860208800F48060B0F552
:102D6000806F09D146488830006820F44070616D5A
:102D70000843434988310860208800F40060B0F5BA
:102D8000006F09D13E488830006820F44060A16D92
:102D900008433B4988310860208800F48050B0F532
:102DA000805F09D136488830006820F44050E16DDA
:102DB0000843334988310860208800F40050B0F59A
:102DC000005F09D12E488830006820F44040216E11
:102DD00008432B4988310860206800F48000B0F572
:102DE000800F09D126488830006820F08060A16FEC
:102DF0000843234988310860206800F40010B0F5CA
:102E0000001F0FD11E488830006820F00060E16F7D
:102E100008431B4988310860E06FB0F1006F01D1B1
:102E20004FF00109207800F00800082801D14FF088
:102E30000109206800F48020B0F5802F09D11048E6
:102E40008830006820F04070616F08430C49883179
:102E50000860206800F40000B0F5000F0AD10848AF
:102E60008830006820F08050D4F88010084304496E
:102E700088310860B8F1010F0BD0206806E000002F
:102E80000838024000700040FFFCFF0FB0F1007FE7
:102E90007DD1AD48006820F08060AB490860FFF745
:102EA000E5FB064606E0FFF7E1FB801B642801D93D
:102EB00003205AE6A4480068C0F3C0600028F2D19D
:102EC000207800F00100B8B1606BA8B99E4884304A
:102ED0000068C0F301459C4884300068C0F3036774
:102EE0006068800140EA054040EA0761207A41EAD3
:102EF0000070954984310860206800F40020B0F526
:102F0000002F03D1E06BB0F5801F09D0206800F4DA
:102F10008010B0F5801F24D1206CB0F5800F20D137
:102F2000894884300068C0F30145874884300068D0
:102F3000C0F302776068800140EA0541207B41EAE6
:102F4000006040EA07708049843108607E488C3018
:102F5000006820F01F00616A491E08437A498C31DD
:102F60000860206800F08070B0F1807F17D176484B
:102F700084300068C0F30365734884300068C0F390
:102F8000027760688101208A41EA004000E031E078
:102F900040EA056040EA07706B49843108602068A8
:102FA00000F00070B0F1007F0DD160688101208ACF
:102FB00041EA0041207B41EA0061207A41EA007049
:102FC0006149843108606048006840F080605E4973
:102FD0000860FFF74BFB064606E0FFF747FB801B48
:102FE000642801D90320C0E557480068C0F3C060D9
:102FF0000028F2D0B9F1010F7ED15348006820F0CB
:10300000805051490860FFF731FB064606E0FFF7A4
:103010002DFB801B642801D90320A6E54A480068DF
:10302000C0F340700028F2D1206800F40020B0F511
:10303000002F01D1E06B38B1206800F48010B0F5AA
:10304000801F22D1206C00BB3F4888300068C0F34D
:1030500001453D4888300068C0F30277606980010F
:1030600040EA0541207E41EA006040EA07703649A7
:1030700088310860081D006820F4F851A06A401EDD
:1030800041EA002030498C310860206800F40010CB
:10309000B0F5001F19D1E06FB0F1006F15D12A48CB
:1030A00088300068C0F30365274888300068C0F3A3
:1030B000027760698101208C41EA004040EA0560A6
:1030C00040EA0770204988310860207800F0080045
:1030D000082820D11C4888300068C0F303651A48CE
:1030E00088300068C0F301476069800140EA07400A
:1030F00040EA0561207F00E024E041EA00701249C7
:1031000088310860081D006820F44030E16A0843F7
:103110000D498C3108600C48006840F080500A4925
:103120000860FFF7A3FA064606E0FFF79FFA801B48
:10313000642801D9032018E503480068C0F34070F3
:103140000028F2D0002010E50038024070B5044697
:103150000D4600260CB9012070BD5C48006800F0E7
:103160000F00A8420ED25948006820F00F002843F3
:10317000564908600846006800F00F00A84201D0D8
:103180000120E9E7207800F0020002281DD1207814
:1031900000F00400042805D14D48006840F4E050D8
:1031A0004B490860207800F00800082805D14848FD
:1031B000006840F46040464908604548006820F0D7
:1031C000F000A168084342490860207800F001003F
:1031D00090B36068012807D13D4808380068C0F303
:1031E0004040A0B90120B7E76068022807D13848FD
:1031F00008380068C0F3406048B90120ACE73448A3
:1032000008380068C0F3400008B90120A4E730483E
:10321000006820F00300616808432D490860FFF74B
:1032200025FA064609E0FFF721FA801B41F28831B2
:10323000884202D903208FE707E02548006800F0A4
:103240000C006168B0EB810FEDD12048006800F000
:103250000F00A8420ED91D48006820F00F00284337
:103260001A4908600846006800F00F00A84201D023
:10327000012071E7207800F00400042807D11448E9
:10328000006820F4E050E1680843114908602078A4
:1032900000F00800082808D10D48006820F46040BC
:1032A000216940EAC1000A49086000F01FF8084996
:1032B0000968C1F30311074A515CC8400649086018
:1032C00006480068FFF7FCF9002045E7003C024093
:1032D0000838024048590190500000205800002052
:1032E0000148006870470000500000202DE9F047B9
:1032F000002400250026A1462548006800F00C00A7
:1033000020B1042805D008283AD105E0DFF88490E0
:1033100039E0DFF8849036E01D48001F006800F0B7
:103320003F041B48001F006800F4800078B11A4871
:103330001749091F0968C1F38811A0FB01700146F4
:10334000224600233846FCF75BFF05460EE0114895
:103350000F49091F0968C1F38811A0FB01700146DC
:10336000224600233846FCF74BFF05460848001F5D
:103370000068C0F30140401C4600B5FBF6F902E0CE
:10338000DFF8109000BF00BF4846BDE8F08700009E
:10339000083802400024F40040787D01F8B5044666
:1033A00000270CB90120F8BD207800F001000028AA
:1033B00071D0F948006800F00C0004280DD0F648E0
:1033C000006800F00C00082813D1F348001F0068C3
:1033D00000F48000B0F5800F0BD1EF48083800688A
:1033E000C0F34040002869D06068002866D1012001
:1033F000D9E700BF6068B0F5803F08D1E6480838DB
:10340000006840F48030E449083908602EE06068C4
:1034100068B9E1480838006820F48030DE4908398E
:1034200008600846006820F4802008601EE060689C
:10343000B0F5A02F0DD1D8480838006840F480209E
:10344000D549083908600846006840F480300860B3
:103450000CE0D1480838006820F48030CE490839A3
:1034600008600846006820F48020086000BF60689B
:1034700090B1FFF7FBF8054606E0FFF7F7F8401BB1
:10348000642801D903208EE7C34808380068C0F3D8
:1034900040400028F1D011E0FFF7E8F8054606E0CB
:1034A000FFF7E4F8401B642801D903207BE7BA4802
:1034B00008380068C0F340400028F1D1207800F0BF
:1034C0000200022869D1B448006800F00C0058B12D
:1034D000B148006800F00C0008281CD1AE48001F5D
:1034E000006800F48000B0B9AB4808380068C0F349
:1034F000400020B1E068012801D0012053E7A64830
:103500000838006820F0F800216940EAC100A249AB
:103510000839086041E0E06828B39F48083800682F
:1035200040F001009C4908390860FFF79FF8054604
:1035300006E0FFF79BF8401B022801D9032032E781
:10354000954808380068C0F340000028F1D0924840
:103550000838006820F0F800216940EAC1008E496F
:103560000839086019E08C480838006820F001002C
:10357000894908390860FFF779F8054606E0FFF742
:1035800075F8401B022801D903200CE7824808384F
:103590000068C0F340000028F1D1207800F0080056
:1035A000082836D16069D0B17B486C30006840F0A3
:1035B000010079496C310860FFF758F8054606E0CC
:1035C000FFF754F8401B022801D90320EBE67248AC
:1035D0006C300068C0F340000028F1D019E06E485C
:1035E0006C30006820F001006B496C310860FFF717
:1035F0003DF8054606E0FFF739F8401B022801D9DF
:103600000320D0E664486C300068C0F34000002816
:10361000F1D1207800F00400042874D15E483830DD
:10362000006800F0805080B900BF5B483830006807
:1036300040F080505849383108600846006800F072
:103640008050009000BF00BF01275448006800F47C
:103650008070B0B95148006840F480704F490860EC
:10366000FFF704F8054606E0FFF700F8401B642862
:1036700001D9032097E64948006800F480700028CB
:10368000F2D000BFA068012808D143486830006824
:1036900040F001004049683108602DE0A06868B939
:1036A0003D486830006820F001003B4968310860FF
:1036B0000846006820F0040008601DE0A0680528A6
:1036C0000DD135486830006840F004003249683157
:1036D00008600846006840F0010008600CE02E48D1
:1036E0006830006820F001002B4968310860084606
:1036F000006820F00400086000BFA068A8B1FEF7D1
:10370000B5FF054609E02EE0FEF7B0FF401B41F291
:103710008831884201D9032045E61F486830006897
:10372000C0F340000028EFD013E0FEF79FFF0546EE
:1037300008E0FEF79BFF401B41F28831884201D927
:10374000032030E6144868300068C0F340000028C9
:10375000EFD1012F07D110483830006820F0805099
:103760000D4938310860A069002852D00A48006825
:1037700000F00C00082865D0A06902284AD106484C
:103780000838006820F08070034908390860FEF7A7
:103790006DFF05460BE00000083802400070004055
:1037A000FEF764FF401B022801D90320FBE53B48DC
:1037B0000068C0F340600028F2D1E06940F000509A
:1037C000216A0843616A40EA81110122A06AC2EBC2
:1037D000500041EA00412C20005D41EA00602F4981
:1037E000091D0860081F006840F08070091F08600C
:1037F000FEF73CFF054606E0FEF738FF401B0228B7
:1038000001D90320CFE525480068C0F340600028B7
:10381000F2D040E02148006820F080701F49086025
:10382000FEF724FF054606E0FEF720FF401B0228B6
:1038300001D90320B7E519480068C0F340600028AB
:10384000F2D128E01548001D0668A069012820D0A3
:1038500006F48001E06981421BD106F03F01206A35
:10386000814216D147F6C0703040616AB0EB811FCB
:103870000FD106F440310122A06AC2EB5000B1EB37
:10388000004F06D106F070612C20005DB1EB006F97
:1038900001D0012087E5002085E5000000380240C6
:1038A00070B504460D460CB9012070BD94F82C008B
:1038B00028B9002084F82D00204600F011F80220DD
:1038C00084F82C00211D2068FDF7C1FD2946D4E9AC
:1038D0000002FDF711FE012084F82C000020E4E72F
:1038E000704770B504460D4694F82C00022800D1AC
:1038F00070BD022084F82C0029462068FDF7E1FD08
:10390000012084F82C000020F2E770B504460D4633
:10391000164694F82C00022800D170BD022084F8CD
:103920002C00324629462068FDF7D2FD286802287F
:1039300003D1052084F82C0002E0012084F82C003B
:103940000020EAE770B504462546681EB0F1807F86
:1039500001D301200FE0681E4FF0E02148610F21E4
:103960004FF0FF3000F010FF00204FF0E0218861A1
:1039700007200861002070BD10B504460CB9012075
:1039800010BD94F83D0028B9002084F83C00204682
:1039900000F00CF8022084F83D00211D206800F0A2
:1039A000E1FC012084F83D000020E9E7704770B594
:1039B00004460D46164600BF94F83C00012801D18C
:1039C000022070BD012084F83C0000BF022084F872
:1039D0003D000C2E51D005DC4EB1042E1ED0082E19
:1039E0007AD133E0102E60D0142EF9D175E029463B
:1039F000206800F035FD2068806940F008002168EB
:103A000088612068806920F004002168886120684E
:103A10008069296908432168886177E02946206820
:103A200000F058FD2068806940F4006021688861DA
:103A30002068806920F4806021688861206880693E
:103A4000296940EA0120216888615FE029462068F1
:103A500000F080FD2068C06940F008002168C8615E
:103A60002068C06920F004002168C8612068C0692E
:103A7000296908432168C86148E02946206800F0A8
:103A8000A7FD2068C06940F400602168C861206813
:103A9000C06920F480602168C8612068C069296914
:103AA00040EA01202168C86130E02946206800F022
:103AB000BBFD2068406D40F0080021684865206823
:103AC000406D20F00400216848652068406D296938
:103AD00008432168486519E017E02946206800F08E
:103AE000CBFD2068406D40F4006021684865206887
:103AF000406D20F48060216848652068406D296928
:103B000040EA01202168486500E000BF00BF0120B5
:103B100084F83D0000BF002084F83C0000BF00BFD7
:103B20004FE710B504460CB9012010BD94F83D00D4
:103B300028B9002084F83C00204600F00CF8022050
:103B400084F83D00211D206800F00CFC012084F861
:103B50003D000020E9E7704730B504460D460022DD
:103B60002946206800F06AFC1B492068884203D07F
:103B70001A492068884201D1012000E0002090B15C
:103B800000BF2068006A41F21111084050B9206856
:103B9000006A8910084028B92068406C20F4004071
:103BA0002168486400BF00BF2068006A41F211111B
:103BB000084050B92068006A8910084028B9206878
:103BC000006820F001002168086000BF012084F82F
:103BD0003D00002030BD0000000001400004014015
:103BE00000BFFEE700B58DB01C2106A8FCF773FBF3
:103BF000142101A8FCF76FFB00BF2448006840F4C3
:103C00008020224908600846006800F48020009067
:103C100000BF00BF8020019000200390032005908A
:103C2000022002900020049001A91948FEF70CFC24
:103C30000020184948604FF487511648C160164863
:103C40001449086000211348816001618161FFF718
:103C500093FE08B1FDF7F9FB0E48FFF762FF08B1CC
:103C6000FDF7F3FB40F66F000790602006900220FE
:103C7000089000200A90002206A90648FFF797FE48
:103C800008B1FDF7E2FB0DB000BD00004438024072
:103C900000140240FC4D00200048014000200D4966
:103CA00008800D4908800D490880401E0C490860B5
:103CB00000200C4908800C49088001200B4908703D
:103CC00000200B4908800B4908700B4908700B490C
:103CD0000870704718000020160000201400002013
:103CE000100000201C0000201A00002021000020ED
:103CF0000C000020200000201F0000201E000020DB
:103D000010B5FFF7CBFF4FF07F40FCF7C9FB10BDAC
:103D100070B504461C48FCF79DFE4FF07F40FCF751
:103D2000A7FEFCF775FD85B2FCF782FD1649C98830
:103D3000401A001F86B21448C088001D83B22A466C
:103D400031460020FCF7FAFC4FF0FF30FCF790FE04
:103D50004FF07F40FCF770FEFCF76AFD0A49C98806
:103D6000401A85B20123224629460020FCF70CFCAC
:103D70004FF07F40FCF760FE4FF0FF30FCF778FE1D
:103D80000148FCF767FE70BD4400002070B5044692
:103D90001748FCF75FFE4FF07F40FCF769FEFCF729
:103DA00037FD85B21248C08800EB400083B22A4636
:103DB00000210846FCF7C2FC4FF0FF30FCF758FE2C
:103DC0004FF07F40FCF738FE0948C18801232246A6
:103DD0000020FCF7D9FB4FF07F40FCF72DFE4FF0A1
:103DE000FF30FCF745FE0348FCF734FE70BD0000D1
:103DF0003C000020440000202DE9F0410024002672
:103E0000002700252A4800882D2820DA2848008825
:103E10002849098888421ADB25490988214401EB91
:103E20004111254A02EB8101D1F88000FCF720FE08
:103E30001F4A1288224402EB42121F4B03EB8201FD
:103E40001B4A1288121D90B2FCF732FC2DE0184874
:103E5000008818490988884204DA15480088923099
:103E600086B201E012480688A6F12D0087B2002430
:103E700019E0E019922190FBF1F201FB120085B2EA
:103E800005EB45110C4A02EB8101D1F88000FCF7EB
:103E9000EFFD05EB4510084A02EB8001201DFCF701
:103EA00007FC601CC4B22E2CE3DBBDE8F0810000EF
:103EB0001800002016000020A80100202DE9F8437A
:103EC00004460D4616461F46DDE908984FF440307B
:103ED000184948601848006800EB800101EBC001F8
:103EE000164800EB81000069022803D10221114825
:103EF000816002E000210F4881600E48C0F80C90FC
:103F00000F480C4908600846FDF7AAFB80B9214616
:103F10000848FDF73FFB58B933462A464146054855
:103F20000097FDF781FC18B90A210248FDF7C9FB8B
:103F3000BDE8F883E44E00204C000020744E0020C1
:103F400000B00240F0B58E880768FF68C7F30B47E2
:103F50003E44330406688436802707FB0266766891
:103F600006F47047066884364FF0800C0CFB02663E
:103F700077600E680768FF68C7F30B473E44761CFE
:103F80001E43076884370CFB02777E608E890768C2
:103F9000FF68C7F30A073E44330406688436802767
:103FA00007FB0266B66806F47047066884360CFBA9
:103FB0000266B7608E680768FF68C7F30A073E4469
:103FC000761C46EA0307066884360CFB0266B76077
:103FD00006688436802707FB0266366926F00707E5
:103FE000066884360CFB026637610F690668843602
:103FF0000CFB026637613126765C33023226765C32
:1040000034040E7E350606688436802707FB026678
:10401000B6690027066884360CFB0266B76191F822
:1040200030601E43264346EA0507066884360CFBCB
:104030000266B76106688436802707FB02667669E8
:1040400026F0FF07066884360CFB026677614F692D
:10405000066884360CFB0266776106688436802722
:1040600007FB0266F66940F20777BE4307688437AC
:104070000CFB0277FE61D1E9077637430668843688
:104080000CFB0266F76106688436802707FB026630
:10409000B66A0027066884360CFB0266B7624F6A70
:1040A000066884360CFB0266B7620E690EB90423FB
:1040B00013E00E69012E01D103230EE00E69042ED8
:1040C00008D00E69022E05D00E69032E02D00E69AB
:1040D000072E01D1022300E00123066884368027E1
:1040E00007FB0266F66A06F0E027066884364FF0A2
:1040F000800C0CFB0266F762D1E90076F61B5E438A
:10410000F61C0F8D5F4346EA0747066884360CFBB2
:104110000266F76206688436802707FB0266366B04
:10412000F70AFF02066884360CFB02663763CF6A23
:10413000066884360CFB0266376306688436D7014E
:10414000F65946F00107066884364FEAC21C46F865
:104150000C70F0BD1FB5FEF7C9FB01208DF8000003
:10416000304801900D208DF8080003208DF80B00D9
:1041700000208DF80F008DF80E0001208DF80D0045
:1041800000208DF8010001208DF80A0000208DF834
:1041900009008DF80C006846FEF77AFB01208DF8C7
:1041A00000002048019007208DF8080003208DF8BA
:1041B0000B0001208DF80F0000208DF80E0001206B
:1041C0008DF80D008DF8010000208DF80A008DF8A3
:1041D00009008DF80C006846FEF75AFB01208DF8A7
:1041E00000004FF04040019016208DF80800032099
:1041F0008DF80B0000208DF80F0001208DF80E00C7
:1042000000208DF80D0002208DF8010000208DF8AF
:104210000A008DF809008DF80C000420FEF776FBEB
:104220001FBD000000C0042000BFFEE77047000073
:1042300000B587B000200690059004901048114901
:10424000002204ABCDE90021029005AA06A90E4880
:1042500005F038FB0C4805F05DFD0B4890F8310087
:10426000C0F3800018B1084805F0AAFD02E0064836
:1042700005F056FD0549044805F09EFD07B000BD58
:10428000A97100903D730090280100209D7400905A
:1042900010B5FEF7F1F910BD00B591B00120009006
:1042A0000004019000200390022006904105079130
:1042B000192108910901099102210A9109210B9103
:1042C0006846FFF76BF808B1FDF7BDF8FEF786FB0F
:1042D00008B1FDF7B8F80F200C9002200D900020D7
:1042E0000E904FF4A0500F904FF480501090072183
:1042F0000CA8FEF72BFF08B1FDF7A5F811B000BD23
:104300001448006840F470001249086012480068C0
:1043100040F001001049086000200F490831086092
:104320000D4800680D4908400B4908600C48091DFC
:104330000860081F006820F48020091F0860002022
:1043400005490C3108604FF000600249803908606F
:104350007047000088ED00E000380240FFFFF6FEE5
:104360001030002410B50268294B98420ED0B0F1ED
:10437000804F0BD0274B984208D0274B984205D04E
:10438000264B984202D0264B984203D122F070026D
:104390004B681A431E4B984220D0B0F1804F1DD07D
:1043A0001C4B98421AD01C4B984217D01B4B98427A
:1043B00014D01B4B984211D01A4B98420ED01A4B76
:1043C00098420BD0194B984208D0194B984205D00F
:1043D000184B984202D0184B984203D122F44072F5
:1043E000CB681A4322F080034C6943EA040202605E
:1043F0008B68C3620B688362054B984202D0084BFE
:10440000984201D10B6903630123436110BD000091
:10441000000001400004004000080040000C004083
:1044200000040140004001400044014000480140B8
:1044300000180040001C00400020004030B501F092
:104440001F05012404FA05F3046A9C430462046A0C
:1044500001F01F0502FA05F52C43046230BD00008F
:1044600030B5056A25F001050562026A4368846972
:10447000154D2C4024F003040D682C4322F0020259
:104480008D682A43114DA84200D103E0104DA84287
:1044900006D100BF22F00802CD682A4322F00402B0
:1044A0000A4DA84202D00A4DA84207D123F48073D6
:1044B00023F400734D692B438D692B434360846162
:1044C0004D684563026230BD8FFFFEFF0000014072
:1044D0000004014030B5056A25F010050562026A46
:1044E00043688469184D2C4024F440740D6844EAF4
:1044F000052422F020028D6842EA0512134DA842DD
:1045000000D103E0124DA84207D100BF22F0800283
:10451000CD6842EA051222F040020C4DA84202D0BA
:104520000B4DA84209D123F4806323F400634D6945
:1045300043EA85038D6943EA8503436084614D68DE
:104540008563026230BD0000FF8FFFFE0000014066
:104550000004014030B5056A25F480750562026AE1
:104560004368C469174D2C4024F003040D682C43A4
:1045700022F400728D6842EA0522134DA84200D150
:1045800003E0124DA84207D100BF22F40062CD68BB
:1045900042EA052222F480620B4DA84202D00B4D64
:1045A000A84209D123F4805323F400534D6943EA10
:1045B00005138D6943EA05134360C4614D68C56303
:1045C000026230BD8FFFFEFF000001400004014089
:1045D00030B5056A25F480550562036A4468C269EE
:1045E0000E4D2A4022F440720D6842EA052223F45F
:1045F00000538D6843EA0533094DA84202D0094DA6
:10460000A84204D124F480444D6944EA85144460EE
:10461000C2614D680564036230BD0000FF8FFFFE7C
:10462000000001400004014030B5056A25F48035E2
:104630000562026A4368446D0C4D2C400D682C43A2
:1046400022F400320D8942EA0542094DA84202D007
:10465000084DA84204D123F480334D6943EA052371
:10466000436044654D688565026230BD8FFFFEFF83
:10467000000001400004014030B5056A25F48015B2
:104680000562026A4368446D0D4D2C400D6844EA92
:10469000052422F400120D8942EA0552094DA84270
:1046A00002D0094DA84204D123F480234D6943EA86
:1046B0008523436044654D68C565026230BD0000D6
:1046C000FF8FFFFE000001400004014000BFFEE735
:1046D00010B5044694F8310000F0010018B1012033
:1046E000074908700AE005200549087000BF801FCF
:1046F0000449086004A000F01BF800BF10BD0000D2
:104700000400002010000020546865206E65747756
:104710006F726B206361626C65206973206E6F74C9
:1047200020636F6E6E6563746564200A000000008C
:104730000FB4054B10B503A9044A029800F048F8DD
:1047400010BC5DF814FB000071750090240100207E
:104750000FB4084B10B504A902AA039800F038F86A
:10476000044602A9002000F00FF9204610BC5DF8B5
:1047700014FB00008949009002480068C0F3022041
:10478000704700000CED00E010B5002804DB0A07BC
:10479000130E054A135406E00A07140E034A00F0EC
:1047A0000F031B1FD45410BD00E400E018ED00E01F
:1047B00002E008C8121F08C1002AFAD170477047EA
:1047C000002001E001C1121F002AFBD17047000048
:1047D0002DE9FF4F8BB09A460F460546002606E0AE
:1047E00025280BD052460D9990476D1C761C2878D1
:1047F0000028F5D10FB03046BDE8F08F0024A04668
:104800000122604900E0044315F8013F203B02FA11
:1048100003F00842F7D128782E2817D115F8010F98
:1048200044F004042A280ED06FF02F022878A0F15B
:10483000300109290AD808EB880102EB410100EB9D
:1048400001086D1CF2E757F8048B6D1C2878692865
:104850003ED006DC0028CDD063280BD0642804D1DC
:1048600036E0732810D075284BD052460D999047EA
:10487000761C85E017F8040B8DF8000000208DF8F9
:104880000100E946012003E057F8049B4FF0FF3098
:1048900061074FF0000401D40AE0641C44450DDABE
:1048A0008442FADB19F804100029F6D106E0641CF2
:1048B0008442FCDB19F804100029F8D1264404E0F6
:1048C00019F8010B52460D999047641EF8D257E033
:1048D00001CF4FF00A0B002802DA40422D2102E0FE
:1048E000210504D52B218DF82410012103E0E107D7
:1048F00005D02021F7E70DF1200908910CE00021F7
:10490000F9E701CF4FF00A0BF9E75946FBF7FBFC3B
:1049100001F1300209F8012D0028F6D1ADEB0900B4
:1049200000F1200B600701D44FF00108D84502DDEB
:10493000A8EB0B0000E000208046002406E009A858
:104940005246005D0D999047641C761C089884427D
:10495000F5DB04E0302052460D999047761CB8F103
:104960000001A8F10108F5DC05E019F8010B524639
:104970000D999047761CBBF10001ABF1010BF4DC03
:104980006D1C34E7092801000A68531C0B60107085
:104990007047000070B505460E4600BF4DB900BF18
:1049A0000B4B40F28B320BA10EA0FFF7C1FE00BFF4
:1049B00070BD00BF6C6A4CB16079082806D13068C0
:1049C000E169884202D1284600F076FA00BFEFE79D
:1049D000945F01906E6574696620213D204E554CB0
:1049E0004C000000417373657274696F6E2022255C
:1049F0007322206661696C6564206174206C696E45
:104A00006520256420696E2025730A007CB5064662
:104A100000BF4EB900BF464B40F2154245A14CA025
:104A2000FFF786FE00BF7CBD00BF746A00BF4CB9B3
:104A300000BF3F4B40F217424FA145A0FFF778FE61
:104A400000BFF0E700BF00206082A06A401C70B188
:104A5000A06A1E303C21B0FBF1F5B5F5803F01D3D3
:104A60004FF6FF75A582A08A08B90120A082E06AEE
:104A7000401C80B1E06A1E303C21B0FBF1F5B5F579
:104A8000803F01D34FF6FF756581608908B9012029
:104A900060816089E081206B401C80B1206B1E30FA
:104AA0003C21B0FBF1F5B5F5803F01D34FF6FF7522
:104AB000A581A08908B90120A081A08920826089F0
:104AC000A189884204DBA089002801DD00206081E3
:104AD000E07910B1206A01900FE0207F7F2802DC8E
:104AE000FF21019108E0C02803DB6FF07F410191B5
:104AF00002E04FF6FF71019100BF606A00900098DC
:104B000048B900BFE06901990840009000BF0098D3
:104B100040F0807000900A21204601F0D5FA6B46E3
:104B200001AA04F11C01304605F0C4F800BF7AE781
:104B3000945F0190646863705F62696E643A206E8E
:104B40006574696620213D204E554C4C00000000E4
:104B5000417373657274696F6E202225732220661B
:104B600061696C6564206174206C696E65202564E0
:104B700020696E2025730A00646863705F62696E45
:104B8000643A206468637020213D204E554C4C00EF
:104B90002DE9F04105466C6A0821204601F094FA9F
:104BA000002204F11C01284601F0F8FF0746A07915
:104BB000FF2802DAA079401CA0714FF4FA7606F2C1
:104BC000F310314690FBF1F02081BDE8F081000048
:104BD00070B51848056829E06C6A34B3607920B371
:104BE000A08A68B1608A401C80B26082A18A884233
:104BF00006D1284601F090F8284601F06DFA14E03D
:104C0000208A40B1218A481E2082012903D12846EA
:104C100001F02DFB09E0E08938B1E189481EE0810F
:104C2000012902D1284601F001FB2D68002DD3D1C6
:104C300070BD0000880000202DE9F05F07460D469A
:104C400016469A4600BF5FB900BF484B40F26972F2
:104C500047A14FA0FFF76CFD00BF0020BDE8F09F0B
:104C600000BF00BF55B900BF404B40F26A7252A16D
:104C700047A0FFF75DFD00BF0020EFE700BF4FF446
:104C800020724FF49A71362005F048F98146B9F147
:104C9000000F01D10020E1E700BFB9F80A00B0F52C
:104CA0009A7F08D200BF314B40F271724AA138A0FE
:104CB000FFF73EFD00BF00BF032E02D16879032835
:104CC00008D1A87918B9FBF7CDFA534908605248C2
:104CD00000682860D9F804404FF49A712046FBF729
:104CE000FAFA01202070607097F83000A0702868F0
:104CF00004F036F96060082E0BD0042E09D0072E80
:104D000007D0032E07D16879052802D068790428D6
:104D100001D17868E0604FF000080BE007F12A004D
:104D200010F8081004F11C0000F8081008F1010048
:104D30001FFA80F8B8F1060FF0D33848C4F8EC0039
:104D40000123352204F1F001002000F085FA8346AA
:104D5000324604F1F001584600F0B6FA8346BAF143
:104D6000000F01D0AAF800B0484677E7945F0190A1
:104D7000646863705F6372656174655F6D73673AE1
:104D8000206E6574696620213D204E554C4C000014
:104D9000417373657274696F6E20222573222066D9
:104DA00061696C6564206174206C696E652025649E
:104DB00020696E2025730A00646863705F63726502
:104DC0006174655F6D73673A206468637020213D8C
:104DD000204E554C4C000000646863705F63726540
:104DE0006174655F6D73673A20636865636B2074F7
:104DF00068617420666972737420706275662063DE
:104E0000616E20686F6C64207374727563742064C3
:104E10006863705F6D7367001001002063825363E5
:104E200010B500BF0E480078002807DC00BF0D4B0E
:104E3000FF220DA115A0FFF77BFC00BF00BF0848B3
:104E40000078401E064908700846007830B91948B5
:104E500000680CF0C3FC00201649086010BD00007B
:104E60000C010020945F0190646863705F7063625E
:104E70005F726566636F756E7428293A2072656685
:104E8000636F756E74206572726F72004173736523
:104E90007274696F6E2022257322206661696C65C9
:104EA00064206174206C696E6520256420696E2021
:104EB00025730A00080100202DE9FE4F0646746A9A
:104EC0000C21204601F000F902AB042221463046B5
:104ED000FFF7B2FE054665B3D5F8048004233222FD
:104EE00008F1F001BDF8080000F0B6F90290E069A1
:104EF00004F036F88246524608F1F001BDF8080089
:104F000000F02CFA02902A4608F1F001BDF80800E2
:104F100000F0D4FA11484323114A2946CDE9006034
:104F2000104800680CF060FD0746284605F00AFCB2
:104F300001E04FF0FF37A079FF2802DAA079401C8A
:104F4000A07142F2107909F2F3104FF4FA7190FB5C
:104F5000F1F020813846BDE8FE8F0000785A0190BC
:104F60007C5A0190080100202DE9FE4F07467C6A1B
:104F70004FF0000A0020E0610621204601F0A4F86D
:104F800002AB012221463846FFF756FE0546002DAA
:104F900042D06E680223392206F1F001BDF8080004
:104FA00000F05AF902903A8D06F1F001BDF80800C0
:104FB00000F032FA02900323372206F1F001BDF827
:104FC000080000F049F90290D0460DE0224810F8A0
:104FD000082006F1F001BDF8080000F075F9029014
:104FE00008F1010000F0FF08B8F1030FEED32A46E4
:104FF00006F1F001BDF8080000F060FA17484323FD
:10500000174A2946CDE90070164800680CF0ECFC00
:10501000284605F097FB00BFA079FF2802DAA079A7
:10502000401CA071A079062803DAA17901208840EC
:1050300000E03C2000EB4001C1EBC0104FF6FF71D7
:1050400001EAC00909F2F3104FF4FA7190FBF1F094
:1050500020815046BDE8FE8F04010020785A01905F
:105060007C5A01900801002070B50C48056812E0D8
:105070006C6A7CB12089012803DD2089401E2081D3
:1050800008E02089012805D12089401E208128467A
:1050900001F011F92D68002DEAD170BD88000020C3
:1050A00070B505460E466C6A0020206260621A48A0
:1050B000C07810B11948C068A0621748007918B1CB
:1050C00016480069E06202E0A06A4008E062124807
:1050D000407918B111484069206304E0A06AC0EB30
:1050E000C000C00820633069E0610B48807938B1A6
:1050F0000A49886903F034FF20620120E07101E071
:105100000020E0710448C07920B10449C86903F067
:1051100027FF606270BD0000FC000020609300204B
:1051200070B50446656A0C21284600F0CDFF054B9A
:105130001A461146204604F0BDFD2046FFF714FF35
:1051400070BD0000785A019070B505460E466C6A35
:105150000748807858B1002020810649886803F00C
:10516000FFFEA0613069E061284600F0B1FE70BD2D
:10517000FC0000206093002010B51E480078002835
:1051800030D100BF1C48006838B100BF1B4BE5227E
:105190001BA125A0FFF7CCFA00BF00BF0CF0ACFAB2
:1051A000154908600846006810B94FF0FF3010BD7F
:1051B00011480068407A40F020000F4909684872A1
:1051C000442223490C4800680BF0E2FF43222049A7
:1051D000094800680CF058F800221E49064800688B
:1051E0000CF0C4FA03480078401C02490870002003
:1051F000DDE700000C01002008010020945F019011
:10520000646863705F696E635F7063625F72656636
:10521000636F756E7428293A206D656D6F72792001
:105220006C65616B00000000417373657274696F97
:105230006E2022257322206661696C65642061748A
:10524000206C696E6520256420696E2025730A0034
:10525000785A0190F15B00902DE9F04104460D462B
:1052600017461E4600BFA01C3044442808D900BF82
:10527000094B40F29A52094909A0FFF759FA00BFB9
:1052800000BF2046611C8CB22F542046611C8CB29A
:105290002E542046BDE8F081945F0190505F01904C
:1052A000417373657274696F6E20222573222066C4
:1052B00061696C6564206174206C696E6520256489
:1052C00020696E2025730A0070B504460D46164607
:1052D00000BF442C08D300BF074B40F2A65207A1E1
:1052E00014A0FFF725FA00BF00BF2046611C8CB256
:1052F0002E54204670BD0000945F01906468637076
:105300005F6F7074696F6E5F627974653A206F7059
:1053100074696F6E735F6F75745F6C656E203C208F
:10532000444843505F4F5054494F4E535F4C454E95
:1053300000000000417373657274696F6E2022254E
:105340007322206661696C6564206174206C696EEB
:105350006520256420696E2025730A0070B5044617
:105360000D46164600BF201D442808D900BF104B2B
:1053700040F2B7520FA11EA0FFF7DAF900BF00BF3D
:10538000320E2046611C8CB22A54C6F307422046D6
:10539000611C8CB22A54C6F307222046611C8CB2D1
:1053A0002A542046611C8CB22E54204670BD000049
:1053B000945F0190646863705F6F7074696F6E5F73
:1053C0006C6F6E673A206F7074696F6E735F6F7584
:1053D000745F6C656E202B2034203C3D2044484394
:1053E000505F4F5054494F4E535F4C454E000000A4
:1053F000417373657274696F6E2022257322206673
:1054000061696C6564206174206C696E6520256437
:1054100020696E2025730A0070B504460D461646B5
:1054200000BFA01C442808D900BF0A4B40F2AE526E
:1054300009A118A0FFF77CF900BF00BF320A20467F
:10544000611C8CB22A542046611C8CB22E5420461A
:1054500070BD0000945F0190646863705F6F70744A
:10546000696F6E5F73686F72743A206F7074696FE2
:105470006E735F6F75745F6C656E202B2032203CFD
:105480003D20444843505F4F5054494F4E535F4C6A
:10549000454E0000417373657274696F6E2022255A
:1054A0007322206661696C6564206174206C696E8A
:1054B0006520256420696E2025730A0070B50446B6
:1054C0000D461646FF222046611C8CB22A5404E089
:1054D00000222046611C8CB22A54442C02D304F0D2
:1054E000030008B1442CF3D304F1F00081B230463C
:1054F00005F006FA70BD00002DE9F04F8BB0814633
:10550000002007900690F648002101604160B9F83C
:105510000A002C2803D2881E0BB0BDE8F08FD9F802
:10552000040005904FF0F00AB9F80800089000BF99
:105530004C460AE06089AAEB00001FFA80FA6189F4
:105540000898401A80B20890246814B160895045C8
:10555000F0DD14B96FF00100DEE7554608980990B8
:1055600060680A90A0E10A98405D049000274FF01F
:10557000FF38A81C1FFA80FBAB4501DAB81ECBE749
:105580006189681C814203DD691C0A98465C07E05A
:10559000206818B120684068007800E000200646C6
:1055A0003746049834284FD007DC78B1012811D051
:1055B000032822D033287AD133E0352868D0362822
:1055C0007CD03A2875D03B28F5D19DE000200646D6
:1055D0000746B0E000BF042E0BD000BFC14B40F225
:1055E0002E62C1A1C3A0FFF7A3F800BF6FF00500B2
:1055F00092E700BF4FF006089DE0042700BFBE42BF
:105600000BDA00BFB74B40F23362C4A1B9A0FFF779
:105610008FF800BF6FF005007EE700BF4FF007086E
:1056200089E000BF042E0BD000BFAE4B40F24162B8
:10563000ADA1B0A0FFF77CF800BF6FF005006BE7ED
:1056400000BF4FF0030876E000BF012E0BD000BF73
:10565000A44B40F24F62B6A1A6A0FFF769F800BFC5
:105660006FF0050058E700BF00BFBAF1F00F0BD094
:1056700000BF9C4B40F25162B0A19EA0FFF758F8CA
:1056800000BF6FF0050047E700BF4FF0000852E091
:1056900000BF012E0ED000BF924B40F25562A4A174
:1056A00094A0FFF745F800BF6FF0050034E73EE037
:1056B00004E016E000BF4FF001083CE000BF042EFC
:1056C0000BD000BF874B40F2596287A189A0FFF73A
:1056D0002FF800BF6FF005001EE700BF4FF0020873
:1056E00029E000BF042E0BD000BF7E4B40F25D626C
:1056F0007DA180A0FFF71CF800BF6FF005000BE74D
:1057000000BF4FF0040816E000BF042E0BD000BF0E
:10571000744B40F2616274A176A0FFF709F800BFF4
:105720006FF00500F8E600BF4FF0050803E0002722
:1057300000BF00BF00BF00BF049810B9681C85B24D
:105740008DE0A819801CB0F5803F02DB6FF00100EE
:10575000E2E6A819801C85B2002FF1DD002003903D
:1057600000BF00BFB8F1000F02DBB8F1080F08DB83
:1057700000BF5C4B4FF4CF6276A15EA0FEF7D8FF6E
:1057800000BF00BF564810F80800002866D1042F5B
:1057900001DA384600E0042002905B4603A9204667
:1057A000029A04F045FF01460298814202D06FF050
:1057B0000100B1E6042F2FDD00BFF91707EB91714F
:1057C0008910A7EB810159B100BF464B40F28162BD
:1057D00065A148A0FEF7ACFF00BF6FF005009BE697
:1057E00000BF01203E4901F80800039803F0B8FB10
:1057F000634941F82800381FC7B20BF1040080B29A
:1058000001900198584502DA6FF0010084E6DDF856
:1058100004B008F10108A4E7042F04D1039803F0B1
:105820009FFB039012E000BF012F0BD000BF2D4B58
:105830004FF4D26253A12FA0FEF77AFF00BF6FF0A2
:10584000050069E600BF9DF80C0003900120244983
:1058500001F808004A49039841F8280000BF608910
:10586000A84220DC6089281A85B261890998401A0B
:1058700080B209900998854212DA246800BF5CB9A9
:1058800000BF184B40F29D6243A11AA0FEF750FFE3
:1058900000BF6FF005003FE600BF60680A9002E0BD
:1058A0006FF0010038E600BF3CB10998854204DA88
:1058B0000A98405DFF287FF456AE0948007870B121
:1058C0002F4908680021064A1170012802D10121E0
:1058D000079171E002286AD1012106916CE06CE029
:1058E000FC000020945F01906C656E203D3D2034EB
:1058F00000000000417373657274696F6E20222589
:105900007322206661696C6564206174206C696E25
:105910006520256420696E2025730A006C656E2061
:105920003E3D206465636F64655F6C656E000000DA
:105930006C656E203D3D2031000000006F76657281
:105940006C6F616420696E2066696C652F736E618F
:105950006D650000636865636B206465636F6465F3
:105960005F696478000000006465636F64655F6C64
:10597000656E2025252034203D3D203000000000AC
:1059800060930020696E76616C6964206465636F62
:1059900064655F6C656E00006E657874207062757A
:1059A0006620776173206E756C6C0000FFE703283A
:1059B00002D101210691079100BF079830B1002064
:1059C00007904FF06C0AEC200890B1E5069830B1D2
:1059D000002006904FF02C0A6C200890A8E50020CB
:1059E0009AE500002DE9FC4707467C6A0421204621
:1059F00000F06AFB01AB032221463846FFF71CF991
:105A00000546002D42D06E680223392206F1F001CE
:105A1000BDF80400FFF720FC01903A8D06F1F0017B
:105A2000BDF80400FFF7F8FC01900323372206F1CC
:105A3000F001BDF80400FFF70FFC01904FF00008E3
:105A40000DE0224810F8082006F1F001BDF804002E
:105A5000FFF73AFC019008F1010000F0FF08B8F1EF
:105A6000030FEED32A4606F1F001BDF80400FFF75C
:105A700025FD4323164A29461648009700680BF077
:105A8000FFFE8146284604F05DFE01E04FF0FF393D
:105A9000A079FF2802DAA079401CA071A0790A2819
:105AA00005DAA0794FF47A7110FB01F001E042F2BF
:105AB00010701FFA80FA0AF2F3104FF4FA7190FB9B
:105AC000F1F020814846BDE8FC8700000401002079
:105AD0007C5A0190080100202DE9FC5F8046D8F82F
