:020000040800F2
:10000000103A0120A50200080948000875460008BA
:1000100005480008791000087D7B000800000000FA
:10002000000000000000000000000000E1010008E6
:1000300039130008000000003D0200088B5700083B
:10004000BF020008BF020008BF020008BF0200088C
:10005000BF02000821570008BF020008BF020008C5
:10006000BF020008BF020008BF020008BF0200086C
:10007000BF020008BF020008BF020008BF0200085C
:10008000BF020008BF020008BF020008BF0200084C
:10009000BF020008BF020008BF020008BF0200083C
:1000A000BF020008BF020008BF020008BF0200082C
:1000B000BF020008BF020008BF020008BF0200081C
:1000C000BF020008BF020008BF020008BF0200080C
:1000D000BF020008BF020008BF020008BF020008FC
:1000E000BF020008BF020008BF020008BF020008EC
:1000F000BF020008BF020008BF020008BF020008DC
:10010000BF020008BF020008BF020008BF020008CB
:10011000BF020008BF020008BF020008BD58000867
:10012000BF020008BF020008BF020008BF020008AB
:10013000BF020008BF020008BF020008BF0200089B
:10014000BF020008BF020008BF020008BF0200088B
:10015000BF020008BF020008BF020008BF0200087B
:10016000BF020008BF020008BF020008BF0200086B
:10017000BF02000891500008BF020008BF0200083B
:10018000BF020008BF020008BF020008BF0200084B
:10019000BF020008BF020008BF020008BF0200083B
:1001A000BF020008BF020008BF020008BF0200082B
:1001B000BF020008BF020008BF020008BF0200081B
:1001C000BF020008BF020008DFF810D000F0F0F80E
:1001D00000480047857D0008AFF30080103A0120F9
:1001E0002D4B19680868B0E8F04F80F30988BFF319
:1001F0006F8F4FF0000080F31188704700000000FF
:1002000008480068006880F308884FF0000080F319
:10021000148862B661B6BFF34F8FBFF36F8F00DFF4
:1002200000BF00BF08ED00E0DFF80C00016841F4FA
:1002300070010160704700BF88ED00E0EFF30980B6
:10024000BFF36F8F144B1A681EF0100F08BF20ED1C
:10025000108A20E9F04F106009B44FF0500072B6D8
:1002600080F31188BFF34F8FBFF36F8F62B608F032
:1002700037FD4FF0000080F3118809BC1968086849
:10028000B0E8F04F1EF0100F08BFB0EC108A80F3FA
:100290000988BFF36F8F7047D4000020EFF305800B
:1002A000704700000648804706480047FEE7FEE723
:1002B000FEE7FEE7FEE7FEE7FEE7FEE7FEE7FEE716
:1002C000A1580008C90100082DE9F05F054600208B
:1002D00092469B4688460646814640241BE02846B7
:1002E00041464746224600F053F853465A46C01A44
:1002F000914110D311461846224600F03AF82D1AC3
:1003000067EB01084F4622460120002100F031F83A
:1003100017EB00094E41201EA4F10104DFDC484622
:1003200031462A464346BDE8F09F40EA01039B0759
:1003300003D009E008C9121F08C0042AFAD203E05A
:1003400011F8013B00F8013B521EF9D27047D2B2BE
:1003500001E000F8012B491EFBD270470022F6E7AE
:1003600010B513460A4604461946FFF7F0FF20462B
:1003700010BD202A04DB203A00FA02F10020704769
:100380009140C2F1200320FA03F3194390407047D3
:10039000202A04DB203A21FA02F00021704721FADA
:1003A00002F3D040C2F12002914008431946704741
:1003B000064C074D06E0E06840F0010394E80700B2
:1003C00098471034AC42F6D3FFF702FFEC9C0008CC
:1003D0000C9D000870B58C1810F8015B15F0070330
:1003E00001D110F8013B2A1106D110F8012B03E0CE
:1003F00010F8016B01F8016B5B1EF9D12B0705D4D6
:100400000023521E0DD401F8013BFAE710F8013B1E
:10041000CB1A921C03E013F8015B01F8015B521E3A
:10042000F9D5A142D8D3002070BD000000B585B039
:10043000012002900C2004900220019003200390E0
:100440004CF20370009069460C4801F0C3FA4FF675
:100450008070009069460A4801F0BCFA4FF23F00F4
:1004600000906946074801F0B5FA372000906946C8
:10047000054801F0AFFA05B000BD0000000C0240D5
:1004800000100240001402400018024008B500BFEE
:100490004748006840F00100454908600846006888
:1004A00000F00100009000BF00BF00BF08460068D8
:1004B00040F0020008600846006800F0020000906A
:1004C00000BF00BF00BF0846006840F0040008609D
:1004D0000846006800F00400009000BF00BF00BFA5
:1004E0000846006840F0080008600846006800F010
:1004F0000800009000BF00BF00BF0846006840F041
:10050000100008600846006800F01000009000BF6E
:1005100000BF00BF0846006840F0200008600846A1
:10052000006800F02000009000BF00BF00BF084638
:10053000006840F0400008600846006800F0400095
:10054000009000BF00BF00BF0846006840F0800078
:1005500008600846006800F08000009000BF00BFFF
:1005600000BF0846006840F48070086008460068D4
:1005700000F48070009000BF00BF00BF0846006814
:1005800040F4007008600846006800F400700090B5
:1005900000BF00BF00BF0846006840F480600860EC
:1005A0000846006800F48060009000BF00BF08BDEE
:1005B0003038024010B504464FF0C042214607488B
:1005C00001F09EFB4FF420024FF0C041034801F0C0
:1005D00043FC08B1012010BD0020FCE70C0B0020FB
:1005E00038B5012400BF2348006840F001002149CC
:1005F00008600846006800F00100009000BF00BFDE
:100600004FF020401C4908601C48486002201C49EB
:100610000861486107208860012048600420086064
:100620000120C860002088611349886000211248B9
:100630000164082101618904C16300218162416371
:10064000C1620162210341620021C1601021416148
:1006500000210163C1618161816300F013F8084AE0
:100660001146054801F03AFC00B100E000242046A4
:1006700038BD0000383802400C0B0020040100A0F7
:10068000F00A002030B585B004460D46FFF7CEFED7
:10069000012002900C20049002200190032003907E
:1006A00043F6F00000906946084801F093F93820BD
:1006B00000906946064801F08DF9082000906946CF
:1006C000044801F087F905B030BD0000000C02407D
:1006D000001002400018024070B50446002304F1E7
:1006E000C04500BF324890F84400012801D10220E3
:1006F00070BD01202E4E86F8440000BF304690F8B1
:100700004500022800D1F3E72948806810B94FF06E
:10071000C0430FE026488068022802D14FF0C8434A
:1007200008E023488068042802D14FF0D04301E05C
:100730004FF0D84302201E4E86F8450000BFAA2085
:10074000A3F8AA0A00BF00BF00BFBFF34F8F00BFCE
:1007500000BF00BF00BF00BF5520A3F8540500BF75
:1007600000BF00BFBFF34F8F00BF00BF00BF00BF7F
:1007700000BFF020A3F8AA0A00BF00BF00BFBFF36C
:100780004F8F00BF00BF00BF00BF04E0288821F8E2
:10079000020BAD1C521E002AF8D10120044E86F82F
:1007A000450000BF002086F8440000BF00BF9FE75F
:1007B0000C0B002010B504462146044801F068FCEB
:1007C00008B1012010BD0020FCE700000C0B002048
:1007D00010B5194801F0F8FC0024174890F84500BE
:1007E000022800D110BD1448806810B94FF0C044F1
:1007F0000FE011488068022802D14FF0C84408E099
:100800000D488068042802D14FF0D04401E04FF039
:10081000D84400BFF020208000BF00BF00BFBFF35E
:100820004F8F00BF00BF00BF00BF0120024981F809
:10083000450000BFD6E700000C0B00202DE9F04179
:1008400004460D461646374613E004F1C0412A46D9
:100850000A4801F09BFB4FF488424FF0C041074823
:1008600001F0FAFA10B10120BDE8F0817F1EAD1C45
:10087000A41C002FE9D10020F6E700000C0B00209B
:1008800010B51D481D490860084602F02BFD08B14F
:10089000012010BD5C2001F0D3FC4021184800F07D
:1008A000D9FF0421164800F0D5FF4FF48071154898
:1008B00000F0D0FF4FF40071124800F0CBFF04218C
:1008C000114800F0C7FF40210E4800F0C3FF0F4859
:1008D000006840F002000D4908600846006820F0FA
:1008E0000200086009482030006820F00200074933
:1008F000203108600020CCE7001000A0540B00203D
:100900000004024000140240001002401838024067
:1009100010B590B0044674B3382102A8FFF71EFD4D
:1009200000200090019004200790002004904FF0D8
:1009300040700B90801309904FF4005005900020F8
:100940000D904FF48070089000200F90EB200290E3
:1009500000200E9006904FF440400A900020009036
:1009600001906A4602A90D4802F034FD10B1012041
:1009700010B010BD10E0FFE7084802F0AFFB08B16F
:100980000120F5E7FFF77CFF08B10120F0E700F058
:10099000C3F808B10120EBE70020E9E7540B002081
:1009A00000B595B002201490382106A8FFF7D6FCB8
:1009B000142101A8FFF7D2FC04F076FE10B101204B
:1009C00015B000BD0020039001200290042001908A
:1009D0000320049001A9324800F0FCFF0122042109
:1009E0002F4801F00BF90120109000200B904FF0E0
:1009F00080700F9000200D901190312006904FF4E0
:100A000080700C900020139012900E9041F288326A
:100A100006A9244802F014FC08B10120D0E741F2F5
:100A2000883214A91F4802F027FE08B10120C7E749
:100A30004FF4487004F080FC08B10120C0E7352075
:100A4000069041F2883206A9164802F0F9FB08B177
:100A50000120B5E741F2883214A9124802F094FD52
:100A600008B10120ACE78020149041F2883214A92B
:100A70000C4802F001FE08B10120A1E74FF44870D4
:100A800004F05AFC08B101209AE7022002900920E4
:100A9000059001A9024800F09DFF002090E70000AA
:100AA00000100240540B002030B58FB005460C46B4
:100AB000522C04D0D82C02D004200FB030BD04F04A
:100AC000F3FD08B10120F8E700200690019402959B
:100AD0000A904FF480600890C000049000200C90B1
:100AE0004FF48070079000200E9009900D9041F215
:100AF000883201A9074802F0A3FB08B10120DCE716
:100B00004FF4487004F018FC08B10120D5E700202C
:100B1000D3E70000540B002010B5104810490860BE
:100B20000120486004210E4881601021C160172116
:100B300001614FF4A061416100218161C16102F056
:100B4000E9FB04F059FD08B1042010BD04F018FDC4
:100B500008B10420F9E70020F7E70000001000A02A
:100B6000540B0020F0B58FB005460E4617461C46C4
:100B7000382101A8FFF7F2FB0B9702964FF40050C3
:100B8000049000200C900E900D900990062C70D2CD
:100B9000DFE804F0030F2733475A002006900320B4
:100BA00001904FF080700A90801308908010079099
:100BB00061E0082006900B20019039480078012858
:100BC00007D14FF040700A90801308908010079072
:100BD00006E04FF080700A90801308908010079014
:100BE00049E00820069080050A90C01308903B2039
:100BF00001904FF4807007903DE0FFF7D1FE10B1F7
:100C000001200FB0F0BD082006904FF040700A9010
:100C10004FF4806008906B2001904FF48070079033
:100C200029E008200690002003904FF000700A9001
:100C300080130890C0100790BB2001900020059001
:100C40004FF40040099016E0082006900020039021
:100C50004FF040700A90801308904FF48070079016
:100C6000EB200190002005904FF44040099002E0F5
:100C7000FFE70120C5E700BF41F2883201A909481A
:100C800002F0DEFA08B10120BBE741F288322946C2
:100C9000044802F079FC08B10120B2E70020B0E777
:100CA000B0000020540B002010B590B0044638214D
:100CB00001A8FFF753FB02200B90902001904FF00A
:100CC00080700A9080130890C000049000200C905F
:100CD0004FF48070079000200E900D90099041F223
:100CE000883201A90C4802F0ABFA10B1012010B013
:100CF00010BD41F288320FA9074802F045FC08B147
:100D00000120F4E79DF83D009DF83C1040EA0120E9
:100D100020600020EBE70000540B002010B590B0DD
:100D2000044603200B90002006904FF080700A903C
:100D3000002008909F2001904FF400500490002064
:100D40000C904FF48070079000200E900D90099049
:100D500041F2883201A90E4802F072FA10B1012066
:100D600010B010BD41F288320FA9094802F00CFC06
:100D700008B10120F4E79DF83E009DF83D1040EADF
:100D800001209DF83C1040EA014020600020E7E788
:100D9000540B002010B590B0044600200F9038216D
:100DA00001A8FFF7DBFA02200B901F2006904B20D2
:100DB00001904FF080700A90002008904FF400508E
:100DC000049000200C904FF48070079000200E904B
:100DD0000D90099041F2883201A90C4802F030FAD6
:100DE00010B1012010B010BD41F288320FA90748A0
:100DF00002F0CAFB08B10120F4E79DF83D009DF820
:100E00003C1040EA012020600020EBE7540B00205A
:100E10002DE9F0438FB080460D4616464FF000098D
:100E20000027002401E004F58074AC42FBD9671B65
:100E3000B74200D937462C4605EB0609002006903C
:100E40004FF080700A9080130890C000049000203A
:100E50000C904FF48070079000200E9002200190BB
:100E6000002009900D9000BF02940B9704F01CFC29
:100E700018B101200FB0BDE8F08341F2883201A91A
:100E8000124802F0DDF908B10120F3E741F288329F
:100E900041460E4802F0F0FB08B10120EAE741F2BA
:100EA000883004F049FA08B10120E3E7B8443C4433
:100EB00004F58070484502D9A9EB040001E04FF425
:100EC000807007464C45CFD30020D3E7540B002059
:100ED00010B501241A481B49086002201A494861CC
:100EE00088610620C86004208860022008600861CC
:100EF00007204860E1021348016200201149486060
:100F0000102110480161090181610901416200213C
:100F100081620821C160012181604021416100217D
:100F2000C16100F067F80849064803F037FB00B1DB
:100F300000E0002440F6182000F008F8204610BD1C
:100F4000400100A0A00B0020D40B002038B50446BF
:100F500000200090012025490860102048600120F1
:100F600088600020C8604FF6FF72214803F04BFBF9
:100F7000012000F05BFC02201C4908601020486042
:100F8000012088600020C8604FF6FF72184803F007
:100F90003AFB03201549086010204860082088604B
:100FA0000020C8604FF6FF72114803F02CFB4FF48D
:100FB0000870009004200D4908601020486001204E
:100FC00088600098C8604FF6FF72094803F01BFB69
:100FD0002146074803F003FB05480068406940F6D6
:100FE0001821084302490968486138BDF00B002008
:100FF000A00B002010B586B0044600BF1948006859
:1010000040F00100174908600846006800F0010040
:10101000009000BF00BFFFF709FA012003900C20E9
:10102000059002200290032004900120019001A964
:101030000D4800F0CFFC4FF40060019001A90B486F
:1010400000F0C8FC4FF40140019001A9084800F0ED
:10105000C1FC0C20019001A9064800F0BBFC06B0C1
:1010600010BD000038380240000802400014024061
:1010700000180240001C024000BFFEE770B50346A6
:101080000C4600210BE04800401C34F810004E00D4
:1010900034F8166040EA06401E683060491CB1EB27
:1010A000520FF0D302F0010020B11D68480034F85F
:1010B000100028801868006870BDF0B504460B4623
:1010C000002113E013F8210007068800401C185C7B
:1010D00047EA00478800801C185C47EA00208F0020
:1010E000FF1CDF5D384327683860491CB1EB920F65
:1010F000E8D302F0030030B302F00300012803D16B
:1011000013F821002768387002F00300022808D184
:101110008800401C185C13F8217040EA07252668F7
:10112000358002F0030003280DD18800401C185CB4
:1011300013F8217040EA0725266835808800801C56
:10114000185C2768387020680068F0BD0020704780
:101150000020704710B50446204603F05DFF0248AA
:1011600004F056FC002010BDBC16012000BF6B48E7
:10117000007807286FD2DFE800F00405082627284A
:101180006F00C2E003F0BCFABFE000BF00BF00BFC9
:1011900000BF00BFBFF34F8F00BF00BF00BF60485C
:1011A000006800F4E0605F490843001D5C49086086
:1011B00000BF00BF00BFBFF34F8F00BF00BF00BF25
:1011C00000BF00BFFDE700BF9FE002205649487105
:1011D00008460079A8B90DE053490888FFF7EAF9F5
:1011E00018B10420504948710AE04F480088401C5B
:1011F0004D4908804C4800884B4949888842EBDBC0
:1012000021E04948007901281DD115E046490888A8
:10121000D821FFF749FC50B143490988481CD8211F
:10122000FFF742FC18B104203F4948710AE03E48EC
:101230000088401C3C4908803B4800883A4949885E
:101240008842E3DB00BF38484079022802D10320FE
:101250003549487159E057E002203449487100206F
:10126000FFF756FB10B104203049487100202F4988
:10127000088025E02D48407902281BD12B49088899
:10128000FFF798F910B104202849487127490888C8
:10129000D821FFF709FC10B10420244948712349E3
:1012A0000988481CD821FFF7FFFB20B104201F4903
:1012B000487100E00AE01D480088401C1B49088076
:1012C0001A480088194949888842D3DB00BF17486B
:1012D0004079022817D103F02DFA4A221449002040
:1012E000FFF7ACFAFFF774FA942200211148FFF7D8
:1012F0008FFD03200D4948710120FFF709FB10B154
:1013000004200A49487100E000BF00BF00200349E3
:1013100008704FF4FA7006F0B3FD28E704000020CF
:101320000CED00E00000FA05140000200E00002083
:1013300028160120001501207047704770B504463B
:101340001D460023B5F5804F13D154F822300C48C8
:101350000340D1E9000640EA06108E6840EA062004
:101360008E8940EA06408E693043034344F82230B8
:1013700003E06FF0704044F82200002070BD0000D0
:101380000000F0CF10B502460023086852F8203064
:101390001B480340D1E901042043CC6820430C6979
:1013A00020434C6920438C692043CC6920430C6A5C
:1013B00020434C6A20438C6A2043CC6A20430C6B48
:1013C00020438C6B20434C6B2043034388680828E0
:1013D00001D143F04003086842F82030086BB0F5B3
:1013E000801F05D1086818B110680C6B204310608D
:1013F000086818B110684C6B20431060002010BDC5
:101400008004C0FF30B5034614460022601C53F828
:10141000202002F04042D1E9000540EA05108D6825
:1014200040EA05208D8940EA0545088A401E45EAC4
:101430000055087D801E45EA00608D6928430243FF
:10144000601C43F82020186800F48010B0F5801F5D
:1014500007D1586820F47002088A401E42EA005200
:101460005A60002030BD30B50246002300240868D1
:10147000012816D013686FF30E03D1E90105284344
:10148000CD6828430D6928434D6928438D69284359
:10149000CD6928430D6A28434D6A284303431360EE
:1014A00019E0136823F4F843D1E9070528434D6A8E
:1014B0002843034354686FF30E04D1E90105284320
:1014C000CD6828430D6928434D6928438D69284319
:1014D000044313605460002030BD0246506940EA66
:1014E000410050610020704718B50346002000906D
:1014F000D1E9000420438C68641E40EA4410CC68A3
:1015000040EA4420009000981861002018BD0000B7
:1015100070B50346154600220024012D1FD09A689D
:1015200002F070420868401E4E68761E40EA0616B9
:101530008868401E46EA0026C868401E46EA003613
:10154000088A401E46EA0046888A401E46EA00563F
:10155000087E401E46EA006002439A6022E09A68D4
:1015600011480240C868401E0603888A401E46EAA9
:1015700000500243DC6804F070440868401E4E6866
:10158000761E40EA06168868401E46EA0026088A4B
:10159000401E46EA0046087E401E46EA00600443BC
:1015A0009A60DC60002070BDFF0F0FFF70B50A4825
:1015B0000468001D0568001D0668344454B1082203
:1015C0000649204603F07CF80422044910312846DD
:1015D00003F076F870BD000020F4F01F62000020D8
:1015E00070B503460C4600201F2100BF0D1EA1F15F
:1015F000010106D001F01F060125B5402540002D50
:10160000F4D08AB1082A0BD0102A05D0182A0CD1A0
:10161000072900D301200AE0082900D3012006E0B1
:10162000102900D3012002E001E0012000BF00BF2B
:1016300040B91D686C611D68AD6825F0180515433B
:101640001E68B56070BD2DE9F04104460E46174690
:101650004FF00008022060772068806840F00100A9
:1016600021688860206A012810D0022815D003283C
:101670001AD1002504E056F82500216808606D1C89
:10168000BD42F8D32068D0F800800EE03A463146DB
:101690002046FFF712FD804607E03A4631462046D5
:1016A000FFF7ECFC804600E000BF00BF0120607740
:1016B0004046BDE8F08110B504460CB9012010BDCC
:1016C000607F022800D1FAE70220607720688068F6
:1016D00040F00100216888602068007900202168BE
:1016E0000871204600F04AF80020607700BF20779C
:1016F00000BF00BFE3E7000010B504460CB90120AD
:1017000010BD607F20B900202077204600F037F818
:1017100002206077207948B917482168486120681D
:10172000806820F018002168886007E02046D4E92E
:101730000212FFF755FF08B10120E1E7607920B9F7
:101740004FF0FF302168086102E0216820690861DC
:101750002068806820F06000616908432168886023
:101760002068806820F08000A169084321688860B3
:10177000012060770020C3E7B71DC10470477047A0
:1017800070B50446A56D00F03FFA064694F83500A2
:10179000022808D08020606500BF002084F8340053
:1017A00000BF012070BD2068006820F0160021688D
:1017B00008602068406920F0800021684861206C42
:1017C00008B9A06C28B12068006820F008002168E2
:1017D00008602068006820F00100216808600FE0C0
:1017E00000F012FA801B05280AD92020606500BF8E
:1017F000002084F8340000BF032084F83500D1E7CE
:101800002068006800F001000028E9D194F85C101D
:101810003F208840A86000BF002084F8340000BF4B
:10182000012084F835000020BCE7000070B50446B4
:1018300000F0EAF906462546681C10B10448007815
:10184000054400BF00F0E0F9801BA842FAD370BD48
:10185000C0000020F0B50C46002500220023002126
:101860009CE0012606FA01F504EA0502AA427CD1B1
:101870004C4E8F0856F827308E07370F0F26BE4084
:101880003340494EB04201D100262DE0474EB042D0
:1018900001D1012628E0464EB04201D1022623E0C4
:1018A000444EB04201D103261EE0434EB04201D166
:1018B000042619E0414EB04201D1052614E0404E05
:1018C000B04201D106260FE03E4EB04201D10726BC
:1018D0000AE03D4EB04201D1082605E03B4EB04241
:1018E00001D1092600E00A268F073F0FBE409E4225
:1018F00022D1374E36689643354F3E603E1D3668DE
:1019000096433F1D3E603E1D366896433F1D3E6038
:101910003E1D366896433F1D3E608E07370F0F26EB
:1019200006FA07F31F4E8F0856F827609E431D4F97
:101930004FEA910C47F82C6006684FEA410C0327E8
:1019400007FA0CF7BE430660CF0800F1200656F8F0
:1019500027604F074FEAD76C0F2707FA0CF7BE43F3
:101960004FEAD10C00F1200700E016E047F82C60A8
:10197000C6684FEA410C032707FA0CF7BE43C6605E
:10198000476801268E40B743476086684FEA410C9E
:10199000032707FA0CF7BE438660491C1029FFF4A1
:1019A00060AFF0BD08380140000002400004024072
:1019B00000080240000C02400010024000140240E7
:1019C00000180240001C0240002002400024024097
:1019D000003C0140F8B502460B46002100250024DA
:1019E000002000BFE4E0012606FA01F51E6806EAC1
:1019F0000504AC4271D15E68012E08D05E68022EEB
:101A000005D05E68112E02D05E68122E13D1906848
:101A10004F000326BE40B0434F00DE68BE40304357
:101A20009060506801268E40B0431E79C6F30016C0
:101A30008E4030435060D0684F000326BE40B04314
:101A40004F009E68BE403043D0605E68022E02D0D8
:101A50005E68122E13D1CF0802F1200656F8270037
:101A60004E07F70E0F26BE40B0434F07FF0E1E690C
:101A7000BE403043CF0802F1200646F82700106828
:101A80004F000326BE40B0431E7906F003064F0008
:101A9000BE40304310605E6806F08056B6F1805F4D
:101AA000A8D100BF444E366846F48046424F3E609F
:101AB0003E46366806F48046009600BF00BF3F4EA3
:101AC0008F0856F827008E07370F0F26BE40B04309
:101AD0003B4EB24202D100262EE068E0394EB242BF
:101AE00001D1012628E0384EB24201D1022623E07E
:101AF000364EB24201D103261EE0354EB24201D12C
:101B0000042619E0334EB24201D1052614E0324ECC
:101B1000B24201D106260FE0304EB24201D1072673
:101B20000AE02F4EB24201D1082605E02D4EB24206
:101B300001D1092600E00A268F073F0FBE4030433F
:101B40001E4E8F0846F82700274E3068A0435E6877
:101B500006F48036B6F5803F00D12043224E306037
:101B6000361D3068A0435E6806F40036B6F5003FC7
:101B700000D120431C4E361D3060361D3068A04316
:101B80005E6806F48016B6F5801F00D12043164E1D
:101B900008363060361D3068A0435E6806F40016D3
:101BA000B6F5001F00D120430F4E0C363060491CA3
:101BB0001029FFF418AFF8BD44380240083801403E
:101BC000000002400004024000080240000C0240F5
:101BD000001002400014024000180240001C0240A5
:101BE0000020024000240240003C014002461369EC
:101BF0000B400BB1012000E0002070470AB1816169
:101C000001E00B04836170470148006870470000E1
:101C1000B8000020014800687047000020F4F01F61
:101C2000014800687047000024F4F01F0148006874
:101C30007047000028F4F01F034800680349097842
:101C40000844014908607047B8000020C000002027
:101C500010B5032000F064FB0F2000F005F800F041
:101C600029F8002010BD000070B504460E48007829
:101C70004FF47A71B1FBF0F00C490968B1FBF0F553
:101C8000284602F0DDFC08B1012070BD102C07D2FF
:101C900000222146501E00F005FB0548046001E0CB
:101CA0000120F2E70020F0E7C0000020B40000208F
:101CB000BC00002008B500BF1048006840F080500C
:101CC0000E4908600846006800F08050009000BF90
:101CD00000BF00BF081D006840F48040091D086077
:101CE0000846006800F48040009000BF00BF00225A
:101CF0000F21901E00F0D6FA08BD000040380240C7
:101D000030B503460C46002100BF93F8440001287B
:101D100001D1022030BD012083F8440000BF93F8B8
:101D20004500022800D1F5E7986810B94FF0C0418E
:101D30000DE09868022802D14FF0C84107E098688A
:101D4000042802D14FF0D04101E04FF0D8410220E9
:101D500083F8450000BFAA253E480068012802D14B
:101D600001F6AA2001E001F25550058000BF00BF36
:101D700000BFBFF34F8F00BF00BF00BF00BF00BF59
:101D8000552534480068012802D101F2545001E081
:101D900001F2AA20058000BF00BF00BFBFF34F8F34
:101DA00000BF00BF00BF00BF00BF802529480068FA
:101DB000012802D101F6AA2001E001F25550058068
:101DC00000BF00BF00BFBFF34F8F00BF00BF00BF09
:101DD00000BF00BFAA251F480068012802D101F6F4
:101DE000AA2001E001F25550058000BF00BF00BFEE
:101DF000BFF34F8F00BF00BF00BF00BF00BF55251E
:101E000014480068012802D101F2545001E001F2A7
:101E1000AA20058000BF00BF00BFBFF34F8F00BFE7
:101E200000BF00BF00BF00BF3020A05200BF00BFF6
:101E300000BFBFF34F8F00BF00BF00BF00BF012036
:101E400083F8450000BF002083F8440000BF00BFB6
:101E500060E70000C40000202DE9F04781460C46F1
:101E6000154601270026B046B2462946484600F0EE
:101E700071F8FFF7C9FE82462BE0681C38B12DB11E
:101E8000FFF7C2FEA0EB0A00A84200D9032726886C
:101E9000B4F8008006F0400008F04001884202D10A
:101EA0000020BDE8F08706F02000202800D101279F
:101EB0002688B4F8008006F0400008F0400188420F
:101EC00001D10020EDE706F02000202801D10220FA
:101ED000E7E70FB1032FD0D13846E2E770B50446EB
:101EE0000E4615460CB9012070BD94F8450028B97E
:101EF000002084F84400204600F02AF804F108018C
:101F00002068FFF73FFA3146A2682068FFF77AFAA7
:101F10002946E36AD4E90102FFF710FAA1682068B4
:101F200050F8210040F00100A268216841F8220029
:101F3000606918B900200549086002E001200349E2
:101F40000860012084F845000020CDE7C40000208F
:101F50007047000070B506460D462C4600E0641E32
:101F600040210948FFF742FE08B1002CF7D12C466A
:101F700000E0641E40210448FFF738FE012801D02C
:101F8000002CF6D170BD0000000C024030B50346B5
:101F90000C46002100BF93F84400012801D1022023
:101FA00030BD012083F8440000BF93F845000228AB
:101FB00000D1F5E7986810B94FF0C0410DE098687E
:101FC000022802D14FF0C84107E09868042802D1E6
:101FD0004FF0D04101E04FF0D841022083F8450096
:101FE00000BFAA2529480068012802D101F6AA20CD
:101FF00001E001F25550058000BF00BF00BFBFF3F4
:102000004F8F00BF00BF00BF00BF00BF55251F4856
:102010000068012802D101F2545001E001F2AA2027
:10202000058000BF00BF00BFBFF34F8F00BF00BFE0
:1020300000BF00BF00BFA02514480068012802D1DE
:1020400001F6AA2001E001F25550058000BF00BF53
:1020500000BFBFF34F8F00BF00BF00BF00BF00BF76
:102060001088208000BF00BF00BFBFF34F8F00BFAC
:1020700000BF00BF00BF012083F8450000BF002063
:1020800083F8440000BF00BF8AE70000C4000020BE
:1020900010B502460B46002100BF92F8440001280B
:1020A00001D1022010BD012082F8440000BF92F847
:1020B0004500022800D1F5E7906810B94FF0C04103
:1020C0000DE09068022802D14FF0C84107E0906807
:1020D000042802D14FF0D04101E04FF0D841022056
:1020E00082F8450000BFAA2436480068012802D1C2
:1020F00001F6AA2001E001F25550048000BF00BFA4
:1021000000BFBFF34F8F00BF00BF00BF00BF00BFC5
:1021100055242C480068012802D101F2545001E0F6
:1021200001F2AA20048000BF00BF00BFBFF34F8FA1
:1021300000BF00BF00BF00BF00BF9024214800685F
:10214000012802D101F6AA2001E001F255500480D5
:1021500000BF00BF00BFBFF34F8F00BF00BF00BF75
:1021600000BF18480068012800D100E000BF0888BF
:10217000188014480068012801D1881C00E0481C20
:10218000008858800F480068012802D101F11C0026
:1021900001E001F10E00008898800A4800680128DB
:1021A00002D101F11E0001E001F10F000088D8808A
:1021B000012082F8450000BF002082F8440000BFE3
:1021C00000BF6FE7C40000200146002200BF91F865
:1021D0004400012801D102207047012081F8440009
:1021E00000BF91F84500022800D1F5E7886810B9D2
:1021F0004FF0C0420DE08868022802D14FF0C8427B
:1022000007E08868042802D14FF0D04201E04FF087
:10221000D84200BFF020108000BF00BF00BFBFF356
:102220004F8F00BF00BF00BF00BF012081F84500F5
:1022300000BF002081F8440000BF00BFCCE70000D1
:1022400010B501460846002817DB00F01F030122E5
:102250009A400B4B440943F8242000BF00BF00BF45
:10226000BFF34F8F00BF00BF00BF00BF00BF00BF64
:10227000BFF36F8F00BF00BF00BF00BF10BD0000E5
:1022800080E100E001460846002809DB00F01F035A
:1022900001229A4043099B0003F1E023C3F8002187
:1022A00000BF70472DE9F05F80460D4616460027B7
:1022B00005F0A0FC074639462A46334601F00700E0
:1022C000C0F1070ABAF1040F02D94FF0040A01E085
:1022D000C0F1070AD14600F1040ABAF1070F02D291
:1022E0004FF0000A01E0A0F1030AD4464FF0010AC2
:1022F0000AFA09FAAAF1010A0AEA020A0AFA0CFA27
:102300004FF0010B0BFA0CFBABF1010B0BEA030BCB
:102310004AEA0B042146404605F074FCBDE8F09FF4
:1023200000BF00F00702064B19684FF6FF03194083
:10233000044B0B4343EA0221014B196000BF704775
:102340000CED00E00000FA0501460A680120C1F822
:10235000FC03002081F8F403906940F00060906174
:10236000506D024B18435065002070470300001069
:1023700070B504460D4615B1012D2CD116E0206A2A
:1023800038B103F00CFA1548006820F00600134934
:1023900008602068D0F8000E20F001002168C1F824
:1023A000000ED4F8000404F0D2F814E02068D0F84D
:1023B000000E40F001002168C1F8000ED4F80004BE
:1023C00004F064F9206A28B10448006840F006006F
:1023D0000249086000BF00BF70BD000010ED00E0C2
:1023E00002461068416200207047F0B5034615466A
:1023F0001868446A21B944EA05401E68B06219E0D1
:102400001868806A04EB1044002208E0186800F5A0
:10241000827050F8220004EB1044501CC2B2481ED7
:102420009042F3D844EA0547186800F582704E1EC2
:1024300040F826700020F0BD10B50446D4F8000422
:1024400003F0B6FF10BD70B504460D46C5EBC503DD
:1024500004F13C0101EB8301CA682946D4F8000469
:1024600003F0EAFE70BD70B504460D46C5EBC5032A
:1024700004F5FE7101EB8301CA682946D4F8000413
:1024800003F04DFF70BD10B50446D4F8000403F00E
:1024900092FF10BD70B504460E4606F080008028FD
:1024A0000AD106F00F00C0EBC00104F13C0000EBC4
:1024B00081050120687009E006F00F00C0EBC00143
:1024C00004F5FE7000EB81050020687006F00F0037
:1024D000287000BF94F8BC03012801D1022070BD10
:1024E000012084F8BC0300BF2946206804F08AFC60
:1024F00000BF002084F8BC0300BF00BFEFE770B549
:1025000004460E4606F00F006168884201D901209A
:1025100070BD06F0800080280AD106F00F00C0EBE5
:10252000C00104F13C0000EB81050120687009E066
:1025300006F00F00C0EBC00104F5FE7000EB810552
:10254000002068700020A87006F00F00287000BFFF
:1025500094F8BC03012801D10220D9E7012084F8B6
:10256000BC0300BF2946206804F03AFF00BF0020EA
:1025700084F8BC0300BF00BFCAE72DE9F047054659
:102580000E4690461F464FF0000906F08000802856
:102590000AD106F00F00C0EBC00105F13C0000EBD2
:1025A00081040120607009E006F00F00C0EBC0015B
:1025B00005F5FE7000EB81040020607006F00F004E
:1025C0002070C4F80880E770607808B12078E08057
:1025D000022F01D10020207100BF95F8BC03012813
:1025E00002D10220BDE8F087012085F8BC0300BFBE
:1025F0002146286804F028FB00BF002085F8BC03B2
:1026000000BF4846EEE72DE9F04104460E46174666
:10261000984606F00F00C0EBC00104F5FE7000EB19
:102620008105EF60C5F814800020A861687006F08D
:102630000F0028702069012800D12F6106F00F00DB
:1026400028B9227C2946206804F0A6FD04E0227CFB
:102650002946206804F058FF0020BDE8F08170B5DD
:1026600004460D4605F00F006168884201D901203B
:1026700070BD05F0800080280AD105F00F00C0EB86
:10268000C00104F13C0000EB81060120707007E0FE
:10269000C5EBC50104F5FE7000EB810600207070EB
:1026A0000120B07005F00F00307000BF94F8BC033B
:1026B000012801D10220DBE7012084F8BC0300BF20
:1026C0003146206804F0D3FE05F00F0028B9217CC4
:1026D00004F57172206804F04BFE00BF002084F8FE
:1026E000BC0300BF00BFC3E72DE9F04104460E461E
:1026F0001746984606F00F00C0EBC00104F13C00FD
:1027000000EB8105EF60C5F814800020A86101206E
:10271000687006F00F0028702069012800D12F6131
:1027200006F00F0028B9227C2946206804F034FD09
:1027300004E0227C2946206804F0E6FE0020BDE883
:10274000F0812DE9FE4F044620680290029D20682A
:1027500005F0C5F800287DD1206805F0FFF808B91C
:10276000BDE8FE8F206805F0F9F800F002000228AD
:1027700005D12068406900F00200216848612068A6
:1027800005F0ECF800F01000102846D120688069B0
:1027900020F01000216888610298D0F8209009F09C
:1027A0000F00C0EBC00104F5FE7000EB810BC9F314
:1027B000434002281AD147F6F07009EA000030B30E
:1027C000C9F30A12DBF80C10029805F0CCF8C9F333
:1027D0000A11DBF80C000844CBF80C00C9F30A110D
:1027E000DBF818000844CBF8180010E0C9F34340A8
:1027F00006280CD1082204F57171029805F0B3F88F
:10280000C9F30A11DBF818000844CBF81800206857
:10281000806940F0100021688861206805F09EF80A
:1028200000F40020B0F5002F52D10026206805F0FA
:1028300065F8824649E00AF00100E8B3F1B2206889
:1028400005F07FF8804608F0010058B1012105F538
:10285000306000E043E200EB4610816031462046E4
:1028600002F050FC08F00800082809D1082105F5FD
:10287000306000EB461081603146204602F010FCCB
:1028800008F01000102805D1102105F5306000EB8C
:102890004610816008F02000202805D1202105F590
:1028A000306000EB4610816008F40050B0F5005F26
:1028B00008D14FF4005100E004E005F5306000EB72
:1028C00046108160761C4FEA5A0ABAF1000FB2D165
:1028D000206805F043F800F48020B0F5802F7ED109
:1028E000206805F001F88246002683E00AF0010026
:1028F00000287CD0F1B2206805F00AF8804608F084
:102900000100F0B306F00F0101208840019040F66D
:1029100034004159019821EA000040F63401485141
:10292000012105F5106000EB461081602069012847
:1029300024D1C6EBC60104F13C0000EB8100C6EBDC
:10294000C602C16804F13C0000EB820080680144CB
:10295000C6EBC60204F13C0000EB8200C1606EB918
:10296000C6EBC60104F13C0000EB8100406928B9C8
:1029700004F571720121206804F0FAFCF1B22046DE
:1029800000E001E0FFF75FFD08F00800082805D12E
:10299000082105F5106000EB4610816008F010007A
:1029A000102805D1102105F5106000EB461081605C
:1029B00008F04000402805D1402105F5106000EBEB
:1029C0004610816008F00200022805D1022105F5B9
:1029D000106000EB4610816008F0800001E00DE01F
:1029E00005E0802803D13146204602F049FC761CE0
:1029F0004FEA5A0ABAF1000F7FF478AF206804F06A
:102A0000ADFF00F00040B0F1004F1CD140F60400D3
:102A1000405920F0010140F60400415194F8F403BC
:102A2000012807D1002084F8F40300212046FFF795
:102A30009FFC02E0204600F07DFA2068406900F02B
:102A4000004021684861206804F088FF00F40060BD
:102A5000B0F5006F0ED140F60800405900F00100BB
:102A600010B1204600F0D8FA2068406900F40060F8
:102A700021684861206804F071FF00F00060B0F147
:102A8000006F19D12068406900F00060216848613A
:102A900094F8F40368B9012084F8F4032068406DC9
:102AA000C0F38300C4F8F80301212046FFF760FC5F
:102AB00002E0204600F0B0FA206804F04FFF00F476
:102AC0008050B0F5805F7DD140F60400405920F081
:102AD000010140F6040041511021206804F0D4FEA9
:102AE00000273EE04FF67F3105F5106000EB471000
:102AF000816005F5106000EB4710006820F40011BC
:102B000005F5106000EB4710016005F5106000EB63
:102B10004710006840F0006105F5106000EB4710B9
:102B200001604FF67F3105F5306000EB47108160A2
:102B300005F5306000EB4710006820F4001105F542
:102B4000306000EB4710016005F5306000EB471086
:102B5000006840F0006105F5306000EB471001604F
:102B60007F1C6068B842BDD840F61C00405940F058
:102B7000011140F61C004151206B70B1D5F884085A
:102B800040F00B01C5F8841840F64400405940F06D
:102B90000B0140F6440041510FE040F6140040594B
:102BA00042F22B01084340F614014851081F4059D6
:102BB00040F00B014FF401604151D5F8000820F4BA
:102BC000FE6000E00DE0C5F80008217C04F571729C
:102BD000206804F0CDFB2068406900F48050216833
:102BE0004861206804F0BAFE00F40050B0F5005FC0
:102BF00017D1206804F090F8206804F05DFEE060D2
:102C000001F0ECF90090227B2068009904F0F6FEB8
:102C1000204600F077F92068406900F400502168F0
:102C20004861206804F09AFE00F00800082808D1E6
:102C3000204600F086F92068406900F0080021680D
:102C40004861206804F08AFE00F48010B0F5801F0F
:102C50000AD100263146204600F043F8206840693A
:102C600000F4801021684861206804F077FE00F4C9
:102C70000010B0F5001F0AD100263146204600F0B2
:102C800039F82068406900F4001021684861206824
:102C900004F064FE00F08040B0F1804F08D120467F
:102CA000FFF7CAFB2068406900F080402168486156
:102CB000206804F053FE00F0040004280FD12068BF
:102CC000D0F8049009F00400042802D12046FFF750
:102CD000DAFB2068406840EA09002168486000BFCC
:102CE0003EE570B504460D462946D4F8000403F0CD
:102CF000CBFB70BD70B504460D462946D4F80004E0
:102D000003F0C5FB70BD70B58AB0044614B901204C
:102D10000AB070BD266894F8BD0328B9002084F875
:102D2000BC03204600F0A8F8032084F8BD03F06B34
:102D300000F4807008B900212161206804F024FAB1
:102D4000282204F110016846FDF7EFFA94E80F001D
:102D500003F0F6FF20B1022084F8BD030120D7E77D
:102D60000021206804F010FE002531E00121C5EBB0
:102D7000C50204F13C0000EB82004170C5EBC501C7
:102D800004F13C0000F82150C5EBC50100EB8100C7
:102D9000C5800021C5EBC50204F13C0000EB8200B8
:102DA000C170C5EBC50204F13C0000EB82008160FC
:102DB000C5EBC50204F13C0000EB8200C160C5EB2D
:102DC000C50204F13C0000EB82004161681CC5B201
:102DD0006068A842CAD800252AE00021C5EBC502D8
:102DE00004F5FE7000EB82004170C5EBC50104F5EF
:102DF000FE7000F821500021C5EBC50200EB8200F7
:102E0000C170C5EBC50204F5FE7000EB8200816065
:102E1000C5EBC50204F5FE7000EB8200C160C5EB96
:102E2000C50204F5FE7000EB82004161681CC5B26A
:102E30006068A842D1D8282204F110016846FDF745
:102E400074FA94E80F0004F0A3F820B1022084F88B
:102E5000BD0301205CE7002084F83800012084F8DD
:102E6000BD03606A012802D12046FFF76DFA206891
:102E700004F07EF800204BE710B586B0044614211C
:102E800001A8FDF76BFA1C492068884232D100BFC7
:102E90001A48006840F002001849086008460068B7
:102EA00000F00200009000BF00BF4FF440400190CE
:102EB0000220029000200390032004900C20059033
:102EC00001A90F48FEF786FD00BF0C48006840F0DE
:102ED00000500A4908600846006800F00050009061
:102EE00000BF00BF002205214D20FFF7DBF94D2078
:102EF000FFF7C8F906B010BD0000044030380240AA
:102F00000004024070B504460125E06808B90025B8
:102F100006E0E068022801D1012501E0FEF70DFA84
:102F20002946D4F8000403F02EFBD4F8000403F083
:102F3000E1FA70BD10B50446D4F8000403F007FBB5
:102F400010BD10B50446D4F8000403F00BFB10BD0F
:102F500070B504460D4600BF94F8BC03012801D1AA
:102F6000022070BD012084F8BC0300BF84F83850F3
:102F70002946206804F023FD00BF002084F8BC032C
:102F800000BF00BFEDE710B5044604F57171D4F839
:102F9000000403F00FFB10BD10B5044600BF94F809
:102FA000BC03012801D1022010BD012084F8BC031C
:102FB00000BF206803F0CCFF206804F047FC00BF8E
:102FC000002084F8BC0300BF00BFEDE710B5044645
:102FD00000BF94F8BC03012801D1022010BD0120DC
:102FE00084F8BC0300BF206804F0CEF8206804F029
:102FF00079FD30B100BF002084F8BC0300BF012080
:10300000ECE7206803F0B4FF00BF002084F8BC03A5
:1030100000BF00BFE2E7000010B50446D4F800048A
:1030200003F034FB2068D0F8000E40F00100216866
:10303000C1F8000E206A28B10348006840F006007D
:103040000149086010BD000010ED00E038B5002413
:1030500000BF2048006840F080501E4908600846C4
:10306000006800F08050009000BF00BF1A48006860
:1030700040F4803018490860FEF7C6FD044607E0BA
:10308000FEF7C2FD001BB0F57A7F01D9032038BDE1
:103090001148406800F48030B0F5803FF0D10E4810
:1030A000006840F400300C490860FEF7ADFD0446AE
:1030B00007E0FEF7A9FD001BB0F57A7F01D90320D8
:1030C000E5E70548406800F40030B0F5003FF0D176
:1030D0000020DCE74038024000700040F8B50446AC
:1030E0000025FEF791FD064694F8410000F002002D
:1030F00000283ED000BF002084F8400000BF2068B8
:10310000006800F0040070B12068006820F004003E
:1031100021680860E06BFEF733FB05461DB1606C6B
:1031200040F0040060642068006840F002002168FC
:103130000860A06C3346012202210090204602F074
:103140008DFA05465DB902202168C860A06C33463F
:10315000002220210090204602F080FA054645B961
:103160002068406920F0406021684861012084F8AF
:1031700041002846F8BD2DE9F84304460E461546A1
:103180009846FEF741FD8146B06900B100BFF06985
:1031900000B100BF306A00B100BF00BF94F840002A
:1031A000012802D10220BDE8F883012084F8400004
:1031B00000BF94F8410001283AD100206064422009
:1031C00084F841004B46002220212046CDF80080A3
:1031D00002F044FA074657BB28682168886268688D
:1031E00021684862A8682168C8622068006820F4E5
:1031F0004000296941F48001084321680860E868BB
:10320000B0624FF000623146204602F0C5F84B46EE
:10321000012208212046CDF8008002F01FFA07465F
:103220002FB908202168C860012084F8410000E01F
:10323000022700BF002084F8400000BF3846B2E7F4
:103240002DE9F84304460D461746FEF7DDFC80469F
:10325000A86900B100BFE86900B100BF286A00B1E9
:1032600000BF00BF94F84000012802D10220BDE851
:10327000F883012084F8400000BF94F84100012841
:1032800028D100206064022084F8410043460022D7
:1032900020212046009702F0E1F90646DEB900221F
:1032A0002946204602F078F8686A78B94346012238
:1032B00002212046009702F0D1F906465EB90220AD
:1032C0002168C860012084F8410004E0012084F8EE
:1032D000410000E0022600BF002084F8400000BF4B
:1032E0003046C4E710B504460CB9012010BD206873
:1032F000006820F0010021680860204600F0C0F856
:103300000020606484F8410000BF84F8400000BFE2
:1033100000BFEBE7F8B50446FEF776FC06460CB9AD
:103320000120F8BD206A402800D000BF94F8410079
:1033300050B9002084F84000204600F0CDF841F25A
:103340008831204600F096F92068006820F4F85192
:10335000A068401E41EA002021680860A06C334646
:10336000002220210090204602F078F9054635BB66
:103370002179E06840EA0160E1690843216A084375
:1033800021680968114A1140084321680860208AB1
:10339000616941EA0040A1690843216849680C4A13
:1033A00011400843216848602068006840F001002F
:1033B0002168086000206064012084F8410000BF9B
:1033C000002084F8400000BF2846AAE72FFFFF0036
:1033D000FEF8E0FF2DE9F84304460D461646FEF7D9
:1033E00013FC8046A86900B100BFE86900B100BFC6
:1033F000286A00B100BF00BF94F84000012802D144
:103400000220BDE8F883012084F8400000BF94F852
:10341000410001282CD100206064822084F8410002
:10342000A06C4346002220210090204602F016F9AD
:103430000746F7B92068006820F008007168084363
:1034400021680860706808280BD13068216808631B
:1034500010202168C8602068006840F4801021684E
:1034600008604FF040622946204601F095FF00E0D9
:10347000022700BF002084F8400000BF3846C0E7A4
:1034800010B504461048006820F002000E4908609C
:1034900040210E48FEF7DEF904210C48FEF7DAF968
:1034A0004FF480710A48FEF7D5F94FF400710848CF
:1034B000FEF7D0F904210748FEF7CCF94021044873
:1034C000FEF7C8F910BD0000383802400004024081
:1034D000001402400010024010B586B004461421CA
:1034E00001A8FCF73BFF00BF2348006840F0020042
:1034F000214908600846006800F00200009000BF03
:1035000000BF0020039002200290032004900420BA
:1035100001900920059001A91848FEF75BFA0A20DE
:1035200005904FF48070019001A91548FEF752FAFA
:103530000A2005904FF40070019001A91048FEF791
:1035400049FA092005900420019001A90D48FEF7D1
:1035500041FA092005904020019001A90848FEF792
:1035600039FA402001900A20059001A90348FEF78E
:1035700031FA06B010BD00003838024000040240A5
:1035800000140240001002402DE9F84F04460E4698
:1035900017460025FEF738FB80462068D0F81890C3
:1035A000206800F1200A00BF94F84000012802D1F1
:1035B0000220BDE8F88F012084F8400000BF94F895
:1035C000410001284ED100206064002E44D022200A
:1035D00084F8410020680069401CA06320680069ED
:1035E000401C606326632068406920F0406040F022
:1035F0008060216848612068C0F8189013E0434655
:10360000012206212046009702F028F8054605B160
:103610000CE09AF80000216B0870206B401C2063BE
:10362000A06B401EA063A06B0028E8D100BF7DB94D
:103630004346012202212046009702F00FF805467A
:1036400035B902202168C8602046FFF747FD0546CE
:10365000012084F8410006E0606C40F008006064DE
:10366000012500E0022500BF002084F8400000BFD3
:1036700028469EE7816470472DE9F84304460E46CC
:1036800017460025FEF7C0FA8046206800F12009A1
:1036900000BF94F84000012802D10220BDE8F88361
:1036A000012084F8400000BF94F84100012849D16E
:1036B00000206064002E3FD0122084F84100206872
:1036C0000069401CE06220680069401CA0626662DC
:1036D0002068406920F040602168486113E043465B
:1036E000012204212046009701F0B8FF054605B1EC
:1036F0000CE0606A007889F80000606A401C606233
:10370000E06A401EE062E06A0028E8D100BF7DB9AF
:103710004346012202212046009701F09FFF054603
:1037200035B902202168C8602046FFF7D7FC05465E
:10373000012084F8410006E0606C40F008006064FD
:10374000012500E0022500BF002084F8400000BFF2
:103750002846A3E72DE9F843044600260025002764
:10376000A846A946207800F0010088B100BFFE48B5
:10377000006820F40000FC49086008460068616B9E
:103780000843F949086000BF606B08B94FF00108B1
:10379000206800F40020B0F5002F13D1F2488430E7
:1037A000006820F44010E16B0843EF498431086061
:1037B000E06BB0F5801F01D14FF00108E06B08B954
:1037C0004FF00109206800F48010B0F5801F13D17C
:1037D000E5488430006820F44000216C0843E24949
:1037E00084310860206CB0F5800F01D14FF00108E2
:1037F000206C08B94FF00109206800F08070B0F12A
:10380000807F01D14FF00108207800F020002028AF
:1038100070D100BFD4483830006840F08050D249A1
:10382000383108600846006800F08050009000BF02
:1038300000BFCE48006840F48070CC490860FEF7B5
:10384000E3F9064607E0FEF7DFF9801B642802D99A
:103850000320BDE8F883C548006800F480700028A4
:10386000F1D0C1486830006800F4407585B3208EFF
:1038700000F44070A8422BD0BB486830006820F4A8
:103880004075B9486830006840F48030B649683106
:1038900008600846006820F480300860084605602B
:1038A000006800F0010098B1FEF7AEF9064608E0A6
:1038B000FEF7AAF9801B41F28831884201D9032022
:1038C000C7E7A94868300068C0F340000028EFD07F
:1038D00000BF208E00F44070B0F5407F0BD1A248AD
:1038E000006820F4F810A24A216B114008439E4959
:1038F000086006E010E09C48006820F4F8109A493F
:103900000860994868300068218EC1F30B010843B4
:1039100095496831086000BF207800F01000102839
:1039200010D100BF90488430006820F080708E492C
:103930008431086008460068A16B08438A498431D5
:10394000086000BF208800F48040B0F5804F09D1A6
:1039500085488830006820F44030616E0843824911
:1039600088310860208800F40040B0F5004F09D18C
:103970007D488830006820F44020A16E08437A49D1
:1039800088310860206800F48030B0F5803F09D1AC
:1039900075488830006820F44010E16E0843724991
:1039A00088310860206800F40030B0F5003F09D18C
:1039B0006D488830006820F44000216F08436A4950
:1039C00088310860207800F04000402809D166481E
:1039D0008830006820F00300616C08436249883138
:1039E0000860207800F08000802809D15E48883087
:1039F000006820F00C00A16C08435B498831086026
:103A0000208800F48070B0F5807F09D15648883056
:103A1000006820F03000E16C0843534988310860A9
:103A2000208800F40070B0F5007F09D14E4888303E
:103A3000006820F0C000216D08434B4988310860C0
:103A4000208800F48060B0F5806F09D14648883046
:103A5000006820F44070616D084343498831086074
:103A6000208800F40060B0F5006F09D13E4888302E
:103A7000006820F44060A16D08433B49883108602C
:103A8000208800F48050B0F5805F09D13648883036
:103A9000006820F44050E16D0843334988310860E4
:103AA000208800F40050B0F5005F09D12E4888301E
:103AB000006820F44040216E08432B49883108609B
:103AC000206800F48000B0F5800F09D126488830C6
:103AD000006820F08060A16F0843234988310860A6
:103AE000206800F40010B0F5001F0FD11E48883088
:103AF000006820F00060E16F08431B4988310860CE
:103B0000E06FB0F1006F01D14FF00109207800F0B3
:103B10000800082801D14FF00109206800F4802036
:103B2000B0F5802F09D110488830006820F040702F
:103B3000616F08430C4988310860206800F4000078
:103B4000B0F5000F0AD108488830006820F0805096
:103B5000D4F880100843044988310860B8F1010F97
:103B60000BD0206806E000000838024000700040DA
:103B7000FFFCFF0FB0F1007F7DD1AD48006820F061
:103B80008060AB490860FEF73FF8064606E0FEF7A6
:103B90003BF8801B642801D903205AE6A44800683A
:103BA000C0F3C0600028F2D1207800F00100B8B165
:103BB000606BA8B99E4884300068C0F301459C48FA
:103BC00084300068C0F303676068800140EA054004
:103BD00040EA0761207A41EA007095498431086023
:103BE000206800F40020B0F5002F03D1E06BB0F5A1
:103BF000801F09D0206800F48010B0F5801F24D108
:103C0000206CB0F5800F20D1894884300068C0F363
:103C10000145874884300068C0F3027760688001FE
:103C200040EA0541207B41EA006040EA0770804994
:103C3000843108607E488C30006820F01F00616A83
:103C4000491E08437A498C310860206800F0807072
:103C5000B0F1807F17D1764884300068C0F30365E7
:103C6000734884300068C0F3027760688101208A5D
:103C700041EA004000E031E040EA056040EA0770B8
:103C80006B4984310860206800F00070B0F1007F5B
:103C90000DD160688101208A41EA0041207B41EA20
:103CA0000061207A41EA007061498431086060480F
:103CB000006840F080605E490860FDF7A5FF064699
:103CC00006E0FDF7A1FF801B642801D90320C0E5B1
:103CD00057480068C0F3C0600028F2D0B9F1010F66
:103CE0007ED15348006820F0805051490860FDF7AC
:103CF0008BFF064606E0FDF787FF801B642801D98D
:103D00000320A6E54A480068C0F340700028F2D1BD
:103D1000206800F40020B0F5002F01D1E06B38B12D
:103D2000206800F48010B0F5801F22D1206C00BB09
:103D30003F4888300068C0F301453D48883000683E
:103D4000C0F302776069800140EA0541207E41EAC4
:103D5000006040EA0770364988310860081D006835
:103D600020F4F851A06A401E41EA002030498C310D
:103D70000860206800F40010B0F5001F19D1E06F52
:103D8000B0F1006F15D12A4888300068C0F3036590
:103D9000274888300068C0F3027760698101208C71
:103DA00041EA004040EA056040EA07702049883156
:103DB0000860207800F00800082820D11C488830CE
:103DC0000068C0F303651A4888300068C0F30147F3
:103DD0006069800140EA074040EA0561207F00E019
:103DE00024E041EA0070124988310860081D00682B
:103DF00020F44030E16A08430D498C3108600C48DA
:103E0000006840F080500A490860FDF7FDFE064654
:103E100006E0FDF7F9FE801B642801D9032018E5B0
:103E200003480068C0F340700028F2D0002010E57D
:103E30000038024070B504460D4600260CB901203A
:103E400070BD5C48006800F00F00A8420ED25948CF
:103E5000006820F00F0028435649086008460068B3
:103E600000F00F00A84201D00120E9E7207800F01F
:103E7000020002281DD1207800F00400042805D19A
:103E80004D48006840F4E0504B490860207800F04D
:103E90000800082805D14848006840F460404649B9
:103EA00008604548006820F0F000A16808434249D6
:103EB0000860207800F0010090B36068012807D105
:103EC0003D4808380068C0F34040A0B90120B7E77A
:103ED0006068022807D1384808380068C0F340609D
:103EE00048B90120ACE7344808380068C0F3400006
:103EF00008B90120A4E73048006820F00300616899
:103F000008432D490860FDF77FFE064609E0FDF7EE
:103F10007BFE801B41F28831884202D903208FE763
:103F200007E02548006800F00C006168B0EB810FE5
:103F3000EDD12048006800F00F00A8420ED91D48BE
:103F4000006820F00F0028431A49086008460068FE
:103F500000F00F00A84201D0012071E7207800F0A6
:103F60000400042807D11448006820F4E050E168F8
:103F7000084311490860207800F00800082808D19B
:103F80000D48006820F46040216940EAC1000A49F8
:103F9000086000F029F808490968C1F30311074ACD
:103FA000515CC8400649086006480068FDF75CFEA1
:103FB000002045E7003C024008380240A49C00086D
:103FC000B4000020BC0000200348006840F400203A
:103FD000014908607047000000380240014800684D
:103FE00070470000B40000202DE9F04700240025B0
:103FF0000026A1462548006800F00C0020B10428E6
:1040000005D008283AD105E0DFF8849039E0DFF8E0
:10401000849036E01D48001F006800F03F041B48F4
:10402000001F006800F4800078B11A481749091F82
:104030000968C1F38811A0FB0170014622460023E4
:104040003846FCF741F905460EE011480F49091FB3
:104050000968C1F38811A0FB0170014622460023C4
:104060003846FCF731F905460848001F0068C0F3E0
:104070000140401C4600B5FBF6F902E0DFF8109065
:1040800000BF00BF4846BDE8F08700000838024086
:104090000024F40000366E01F8B5044600270CB980
:1040A0000120F8BD207800F00100002871D0F94807
:1040B000006800F00C0004280DD0F648006800F0FD
:1040C0000C00082813D1F348001F006800F480009A
:1040D000B0F5800F0BD1EF4808380068C0F34040BE
:1040E000002869D06068002866D10120D9E700BFA8
:1040F0006068B0F5803F08D1E6480838006840F4B1
:104100008030E449083908602EE0606868B9E14809
:104110000838006820F48030DE4908390860084615
:10412000006820F4802008601EE06068B0F5A02FD1
:104130000DD1D8480838006840F48020D5490839A6
:1041400008600846006840F4803008600CE0D14800
:104150000838006820F48030CE49083908600846E5
:10416000006820F48020086000BF606890B1FDF70F
:104170004BFD054606E0FDF747FD401B642801D9CD
:1041800003208EE7C34808380068C0F34040002889
:10419000F1D011E0FDF738FD054606E0FDF734FDEE
:1041A000401B642801D903207BE7BA48083800681F
:1041B000C0F340400028F1D1207800F0020002282E
:1041C00069D1B448006800F00C0058B1B1480068EB
:1041D00000F00C0008281CD1AE48001F006800F455
:1041E0008000B0B9AB4808380068C0F3400020B187
:1041F000E068012801D0012053E7A648083800688C
:1042000020F0F800216940EAC100A249083908609D
:1042100041E0E06828B39F480838006840F001009A
:104220009C4908390860FDF7EFFC054606E0FDF7FC
:10423000EBFC401B022801D9032032E795480838DF
:104240000068C0F340000028F1D0924808380068A8
:1042500020F0F800216940EAC1008E490839086061
:1042600019E08C480838006820F0010089490839B5
:104270000860FDF7C9FC054606E0FDF7C5FC401BDC
:10428000022801D903200CE7824808380068C0F3EF
:1042900040000028F1D1207800F00800082836D12D
:1042A0006069D0B17B486C30006840F0010079490A
:1042B0006C310860FDF7A8FC054606E0FDF7A4FC9C
:1042C000401B022801D90320EBE672486C300068DD
:1042D000C0F340000028F1D019E06E486C3000684F
:1042E00020F001006B496C310860FDF78DFC05463C
:1042F00006E0FDF789FC401B022801D90320D0E627
:1043000064486C300068C0F340000028F1D1207888
:1043100000F00400042874D15E483830006800F0D2
:10432000805080B900BF5B483830006840F0805052
:104330005849383108600846006800F08050009005
:1043400000BF00BF01275448006800F48070B0B976
:104350005148006840F480704F490860FDF754FCF4
:10436000054606E0FDF750FC401B642801D90320F8
:1043700097E64948006800F480700028F2D000BF3A
:10438000A068012808D143486830006840F0010067
:104390004049683108602DE0A06868B93D48683040
:1043A000006820F001003B49683108600846006859
:1043B00020F0040008601DE0A06805280DD13548F4
:1043C0006830006840F004003249683108600846EF
:1043D000006840F0010008600CE02E48683000687A
:1043E00020F001002B49683108600846006820F081
:1043F0000400086000BFA068A8B1FDF705FC0546F1
:1044000009E02EE0FDF700FC401B41F288318842B4
:1044100001D9032045E61F4868300068C0F340001A
:104420000028EFD013E0FDF7EFFB054608E0FDF7AD
:10443000EBFB401B41F28831884201D9032030E672
:10444000144868300068C0F340000028EFD1012F05
:1044500007D110483830006820F080500D493831BD
:104460000860A069002852D00A48006800F00C00DB
:10447000082865D0A06902284AD106480838006893
:1044800020F08070034908390860FDF7BDFB054640
:104490000BE000000838024000700040FDF7B4FB5C
:1044A000401B022801D90320FBE53B480068C0F30C
:1044B00040600028F2D1E06940F00050216A0843D2
:1044C000616A40EA81110122A06AC2EB500041EA10
:1044D00000412C20005D41EA00602F49091D086061
:1044E000081F006840F08070091F0860FDF78CFB12
:1044F000054606E0FDF788FB401B022801D9032092
:10450000CFE525480068C0F340600028F2D040E0C5
:104510002148006820F080701F490860FDF774FB97
:10452000054606E0FDF770FB401B022801D9032079
:10453000B7E519480068C0F340600028F2D128E0D0
:104540001548001D0668A069012820D006F48001E6
:10455000E06981421BD106F03F01206A814216D1F9
:1045600047F6C0703040616AB0EB811F0FD106F48E
:1045700040310122A06AC2EB5000B1EB004F06D1DE
:1045800006F070612C20005DB1EB006F01D00120BE
:1045900087E5002085E500000038024070B504463C
:1045A0000D460CB9012070BD94F82C0028B90020EC
:1045B00084F82D00204600F011F8022084F82C0029
:1045C000211D2068FCF74FFF2946D4E90002FCF7C3
:1045D0009FFF012084F82C000020E4E7704770B5AD
:1045E00004460D4694F82C00022800D170BD02202C
:1045F00084F82C0029462068FCF76FFF012084F81E
:104600002C000020F2E770B504460D46164694F8DB
:104610002C00022800D170BD022084F82C00324604
:1046200029462068FCF760FF2868022803D105208E
:1046300084F82C0002E0012084F82C000020EAE736
:1046400070B504462546681EB0F1807F01D3012075
:104650000FE0681E4FF0E02148610F214FF0FF305E
:1046600003F0D0FA00204FF0E021886107200861B4
:10467000002070BD60B514F0040F01D1EFF308867F
:1046800001D0EFF30986254601F04CF800BE60BD6D
:104690000A49096801F0010171B1084980390968C6
:1046A00001F0010141B100BF4FF0604109680029EC
:1046B000FAD04FF06042107070470000800E00E0AA
:1046C00030B50B46002100BF16E00A24B4EB107F82
:1046D00005D9302404EB107403F8114005E041249F
:1046E00004EB10740A3C03F81140000100254C0053
:1046F000641C1D554C1CE1B29142E6DB30BD00004C
:1047000070B50A48006844680848056800204FF002
:10471000E021086148618861044800680449086034
:10472000206880F3088800BFA84770BD0000002003
:1047300008ED00E000202F4908704FF480304860F9
:1047400001208860084640688968B0FBF1F029497B
:10475000C8604FF400400861084640680969B0FB32
:10476000F1F0244948614FF00050C86122480862C6
:10477000012022490870C005486020208860084652
:1047800040688968B0FBF1F01C49C8604FF4003004
:104790000861084640680969B0FBF1F017494861B3
:1047A0004FF0C04088614FF00050C8611248086265
:1047B00001201349087000064860001488600F4803
:1047C00040680E498968B0FBF1F00D49C8604FF4AC
:1047D000803008610948406808490969B0FBF1F078
:1047E000074948614FF0104088614000C8610248A5
:1047F000086270479415012000C00420281601208B
:104800000015012000BFFEE77047012000F056FAB6
:1048100008B900F01FFA00BF00F078FAFCE710B505
:104820000446062010BD10B50446062010BD2DE933
:10483000F0410746884614461D4601202880002086
:104840002070204600F006F80646304600F01AFABE
:10485000BDE8F08101461048007820B10F4840794A
:1048600008B9062070470C48007828B90B484079F1
:1048700010B90620084A10700848407908700748A7
:104880004079032803D005484079042802D100204C
:10489000024A50710020E5E7040000200E000020CD
:1048A0002DE9F04106460F4690461C460120208027
:1048B00000F006F80546284600F0E4F9BDE8F0816E
:1048C00070B50025FBF784FF2B4890F86C0018BBEF
:1048D00029488169806E0C582748C069A04219D8C0
:1048E0002548006AA04215D923488169806E0E18B8
:1048F0002148016F304603F043F901461E48406FDE
:10490000814205D11D48046001201D49087000E066
:1049100009252EE008252CE0174890F8840038BBC4
:1049200015488169D0F880000C581348C069A0422E
:104930001CD81148006AA04218D90F488169D0F8E4
:1049400080000E180C48D0F88810304603F018F993
:1049500001460948D0F88C00814205D1074804601F
:1049600001200749087000E0092502E0082500E061
:104970000825284670BD00002816012000000020F0
:10498000040000202DE9F0410746884614461D46E4
:1049900003222946204600F007F80646304600F07C
:1049A00071F9BDE8F08100002DE9F04706460C469C
:1049B00015460027032D15D10C202080FDF72AF97C
:1049C0008146FDF72DF98246FDF730F9804600203B
:1049D00005E01C49014491F820143154401C0C2876
:1049E000F7DB2CE06DB91848FBF7E4FE08B10527AA
:1049F00025E008202080228813493046FBF795FCEB
:104A00001DE0012D18D11148FCF788F990B90F4825
:104A1000001DFCF749F968B90C48001FFCF7BAF90A
:104A200040B90C20208022880849091F3046FBF736
:104A30007CFC04E0052702E0022D00D10527384662
:104A4000BDE8F08700F0F01F060000209002002073
:104A50002DE9F0410746884614461D462946204662
:104A600000F006F80646304600F00CF9BDE8F0818B
:104A70002DE9F04705460F4600244FF09408942690
:104A8000B1464FF4DE703880FFF754FE72081249C9
:104A90000020FBF721FE10B10520BDE8F0870023C0
:104AA0004A4619460D48FCF75DF808B10520F4E7C1
:104AB000281942460A49FBF738FC44442819324673
:104AC0000549FBF732FC344428194A460349FBF7F1
:104AD0002CFC4C440020E0E72816012000150120A2
:104AE000941501202DE9F0410746884614461D46DD
:104AF000002229462046FFF757FF0646304600F0C1
:104B0000C1F8BDE8F0812DE9F0410746884614461A
:104B10001D46012229462046FFF746FF064630463D
:104B200000F0B0F8BDE8F0812DE9F04105460E46F1
:104B30001746984600F006F80446204600F0A2F812
:104B4000BDE8F08102200249087000207047000093
:104B5000040000202DE9FF410546884614461E4604
:104B600000200290039006203080A878697840EAFF
:104B70000120ADF808002879E97840EA0120ADF875
:104B80000A0028788DF80C000020009001906A46F9
:104B9000DDE9020100F01CF807469DF804002070D2
:104BA000BDF8000000126070BDF80000A070BDF8F4
:104BB00002000012E070BDF8020020719DF80500AF
:104BC0006071384600F05EF804B0BDE8F081000086
:104BD00007B51A484079B8B99DF8040028B19DF886
:104BE0000400012801D004200EBD052014490870DE
:104BF000BDF8000011490880BDF8020048809DF80A
:104C000004000871012048710C48008810800B488E
:104C100040885080094800791071084840795071E7
:104C200006484079022806D004484079012802D07D
:104C30000020024948710020D6E70000140000203F
:104C40000400002010B50446062010BD10B504462F
:104C5000062010BD10B500240848007801280AD1AC
:104C60000748007800F0010008B100F0E3F90020E7
:104C70000249087000E00624204610BD0002002012
:104C800071020020014600200B2913D2DFE801F059
:104C9000060812121212120A0C0E100000200BE06D
:104CA000022009E0062007E0092005E00A2003E0D1
:104CB0000B2001E0042000BF00BF704770B5044620
:104CC000002504F0010048B10C4800F045F9054604
:104CD0000B48007840F001000949087065B900F000
:104CE000CBF808B9032507E00120064908700648FB
:104CF0000078204304490870284670BDF014012054
:104D0000700200200002002071020020F8B501208E
:104D100000902026002700253C48007808B1062096
:104D2000F8BD684600F080F800286CD09DF80000BF
:104D300000F0F0069DF8000000F00F0000909DF8D4
:104D40000000012806D0022805D004281DD008281C
:104D500056D14CE056E0102E06D0202E07D0402E23
:104D600004D0802E0DD100E00DE00CE00BE0284ACD
:104D70002849294800F030F910B9242000F08EF8B5
:104D800001E00420CCE700BF3CE0012500241BE04B
:104D9000224810F8340020490978884213D10020B5
:104DA0001B4908801E4908801C481B49097800EBF4
:104DB000C1001B4B1B4AD0F804C015480188154898
:104DC000E047054602E0641C0D2CE1D300BF55B15D
:104DD0001148007840F080000F4908700120104908
:104DE000088010480570282000F058F80AE00C48A8
:104DF00002880C490848007800F026F9074601E0CF
:104E000002208DE700BF38468AE70000000200203C
:104E100002020020F00C0120010200200802002004
:104E200004020020F010012010B504464FF0FF31BD
:104E30000F48006803F082F808B1002010BD0D484B
:104E4000007800F00F00012806D0022805D00428C1
:104E500004D0082807D102E000BF00BF00BF05480A
:104E60000078207001E00020E8E700BF0120E5E7BE
:104E70007C0200207802002010B50121054803F0D3
:104E800010F8054908600846006808B9002010BD00
:104E90000120FCE7BC9C00087C02002010B5044601
:104EA000034804700348006803F020F8012010BD97
:104EB000780200207C02002002464FF47A704843BA
:104EC000014B1860012070477402002070B5054640
:104ED00025B1074801F0F4FC044603E0044801F062
:104EE0009CFE04460CB9012070BD0020FCE70000C8
:104EF000BC16012010B501220B490C4801F054F9F1
:104F000008B1012010BD0A49084801F0FCFB08B1B6
:104F10000120F7E70749054800F08BFD08B10120A3
:104F2000F0E70120EEE700001C000020BC16012085
:104F30002C010020A000002070B504460E4640223F
:104F40002146044800F07DFD05460DB9012070BDE5
:104F50000020FCE7BC16012070B50446002504B112
:104F600004E03F220AA116A002F060FEFFF7C2FF94
:104F700008B9032505E001210846FFF79DFF00B9A8
:104F80000325134860601348A060284670BD0000E8
:104F90002E2E5C2E2E5C2E2E5C2E2E5C2E2E5C4F2A
:104FA0005441415C456D6265646465645C6F746125
:104FB000615C7573625C6F7461617573622E63000E
:104FC00070617273657220213D204E554C4C00007B
:104FD0008C190120CC1901202DE9F04105460E461F
:104FE000144600270B4880780A49497840EA012096
:104FF000208003F043FC0748007828702288054988
:10500000C91C3046FBF791F903F066FC3846BDE851
:10501000F08100008C19012010B504464022214681
:105020000348FBF782F92220FFF738FF10BD00008C
:105030008C19012010B50120FFF748FF08B90420A2
:1050400010BD0020FCE700002DE9F04105460E46AA
:105050001446002703F012FC0C480570200A0B4987
:1050600048708C70224631460848C01CFBF75DF939
:1050700003F032FCE01D81B20448FFF75DFF4021E0
:105080000248FBF76BF93846BDE8F081CC190120E6
:1050900010B50248FDF755FB10BD0000EC040020E0
:1050A0002DE9F04704460D4626683746D6F840807D
:1050B00007F5306000EB4510D0F8089010488045A7
:1050C0000BD909F40040B0F5004F06D14FF4004170
:1050D00007F5306000EB451081602046FDF753FF77
:1050E0000748804508D92069012805D104F5717267
:1050F0000121206802F03CF90020BDE8F0870000A3
:105100000A30544F2DE9F04705460C46D5F800808B
:105110004646D8F8409006F5306000EB44108768AA
:105120002869012873D107F0080008280FD15248D8
:1051300081450BD907F40040B0F5004F06D14FF47C
:10514000004106F5306000EB4410816091E007F00B
:105150002000202806D1202106F5306000EB441005
:10516000816086E007F0280000280ED14248814582
:105170000CD907F40040B0F5004F07D14FF40041BF
:1051800006F5306000EB4410816072E0C4EBC401AE
:1051900005F5FE7000EB8100816806F5306000EBDC
:1051A00044100069C0F31200091AC4EBC40205F5EB
:1051B000FE7000EB82008161C4EBC40105F5FE7056
:1051C00000EB8100C4EBC402C16805F5FE7000EB82
:1051D000820080680144C4EBC40205F5FE7000EB58
:1051E0008200C1606CB9C4EBC40105F5FE7000EB30
:1051F0008100406928B905F571720121286802F023
:10520000B7F8E1B22846FDF72EF932E0FFE71B4878
:1052100081451BD107F40040B0F5004F07D14FF492
:10522000004106F5306000EB4410816021E007F09A
:105230002000202805D1202106F5306000EB441025
:105240008160E1B22846FDF70EF912E06CB9C4EBBB
:10525000C40105F5FE7000EB8100406928B905F531
:1052600071720021286802F083F8E1B22846FDF748
:10527000FAF80020BDE8F0870A30544F0A31544F45
:105280002DE9F84F07460E46D7F80090C846C6EB02
:10529000C60107F13C0000EB8104D4E90510884207
:1052A00002D90120BDE8F88FD4E90501451AA068AC
:1052B000A84200D2A568E81C4FEA900A17E0D4E99A
:1052C0000501451AA068A84200D2A568E81C4FEA6B
:1052D000900A387CABB2F2B200904846E16802F026
:1052E0002FFCE0682844E060A0692844A06108F52C
:1052F000106000EB4610806980B2504506D3D4E9B7
:105300000510884202D260690028D8D1D4E905018D
:1053100088420ED806F00F01012000FA01FB40F68A
:10532000340050F8080020EA0B0040F6340141F840
:1053300008000020B6E7000010B594B00446002035
:105340000B904FF080700F9000200D90052006907C
:10535000002011904FF480700C90002013900E905C
:1053600012900090012003901020029001200190E3
:10537000002004904FF48000059023466A4606A959
:105380000448FDF7F8FE10B1012014B010BD002054
:10539000FBE70000540B002010B54B6A33B1B2F1AB
:1053A000406F03D08B6A5B1E046823618B69002BFE
:1053B00076D00B6AE3B38B680468E361CB69FBB119
:1053C000D1E90B3423434C6B23434C6A23438C8A2F
:1053D00043EA84430C6923430C6A2343CC68234388
:1053E000CC6923438C6923430C682343134304682B
:1053F0006361B2F1406F02D04B680468A361BEE004
:10540000D1E90B3423434C6B23434C6A23438C8AEE
:1054100043EA84430C6923430C6A2343CC69234346
:105420008C6923430C682343134304686361A6E03B
:10543000FFE7CB69EBB1D1E90B3423434C6B23433A
:105440004C6A23438C8A43EA84430C6A2343CC6826
:105450002343CC6923438C6923430C6823431343C0
:1054600004686361B2F1406FC9D04B680468A361FE
:1054700085E0D1E90B3423434C6B23434C6A23432F
:105480008C8A43EA84430C6A2343CC6923438C69A6
:1054900023430C6823431343046863616FE0FFE711
:1054A0000B6AC3B38B680468E361CB69EBB1D1E9E4
:1054B0000B3423434C6B23434C6A23438C8A43EACB
:1054C00084430C6923430C6A2343CC682343CC698F
:1054D00023438C692343134304686361B2F1406F33
:1054E0004DD04B680468A36149E0D1E90B342343F4
:1054F0004C6B23434C6A23438C8A43EA84430C69F4
:1055000023430C6A2343CC6923438C69234313430D
:105510000468636133E0FFE7CB69DBB1D1E90B34A9
:1055200023434C6B23434C6A23438C8A43EA8443D2
:105530000C6A2343CC682343CC6923438C692343FF
:10554000134304686361B2F1406F18D04B6804687C
:10555000A36114E04B6A93B1D1E90B3423434C6B44
:1055600023434C6A23438C8A43EA84430C6A2343D3
:10557000CC6923438C69234313430468636110BDE2
:1055800000B58FB030200E9038216846FAF7E6FE5D
:1055900000F08AF810B101200FB000BD01200A9080
:1055A0004FF040700990002007900B90C0200090B1
:1055B0008000069000200D900C90089041F28832F7
:1055C00069460C48FDF73CFE08B10120E4E741F2D2
:1055D00088320EA90748FEF74FF808B10120DBE733
:1055E00041F28830FFF7A8FE08B10120D4E700207F
:1055F000D2E70000540B002000B58FB000200690C9
:105600000A9066200190002008900C904FF4807062
:10561000079000200E9009900D9041F2883201A968
:105620000D48FDF70DFE10B101200FB000BD99200F
:10563000019041F2883201A90748FDF701FE08B147
:105640000120F2E741F28830FFF776FE08B1012031
:10565000EBE70020E9E70000540B00202DE9F041C2
:1056600004460E4617469846069D12E0681C80B117
:10567000FCF7CAFAA0EB0800A84200D84DB90420F4
:1056800084F84100606C40F0010060640120BDE8D6
:10569000F08120688068304008B1012000E00020DF
:1056A000B842E3D10020F2E700B595B000200C909D
:1056B00010900620079000200E9012904FF48070FA
:1056C0000D90002014900F90139041F2883207A99A
:1056D0001248FDF7B5FD10B1012015B000BD012045
:1056E0000490102003900220019002900020059069
:1056F0004FF48000069001201190000610900520C4
:10570000079041F2883301AA07A90448FDF733FD49
:1057100008B10120E1E70020DFE70000540B002082
:10572000704700008DB002680C9242680B9282684C
:105730000A92C268099202690892426907928269D4
:105740000692C26905920B4A12680492094A121F16
:1057500012680392074A083212680292054A0C3214
:1057600012680192034A10321268009200BE0DB016
:10577000704700002CED00E030B501460A46137872
:10578000521C147843EA042030BD10B5FCF754FADB
:1057900004F012F8012801D003F074FB10BD10B51D
:1057A00000F002F810BD000000B5B3B0302127A80A
:1057B000FAF7D4FD142122A8FAF7D0FD842101A81C
:1057C000FAF7CCFD00BF3448006840F08050324901
:1057D00008600846006800F08050009000BF00BFDD
:1057E00000BF2E48006840F440402C49086008463D
:1057F000006800F44040009000BF00BF082127A8C7
:10580000C1620C210162C82141624FF480302890AE
:1058100002202D90022127A881624905C161012043
:10582000279027A8FEF738FC08B1FBF786FDFDF7A7
:105830000DFC08B1FBF781FD4FF4A05025904FF40B
:105840008050269000202490022023900F20229048
:10585000062122A8FEF7EEFA08B1FBF76EFD012043
:105860000B90022108910791C020069000200C9017
:10587000032109914FF000602090002021904FF00B
:105880000860019001A8FDF765FF08B1FBF755FD21
:10589000FEF79AFB33B000BD403802400070004074
:1058A0000548006840F47000034908604FF000604C
:1058B000014980390860704788ED00E07047024672
:1058C0000020D2F8BC321875704770B504460E46F9
:1058D000D4F8BC0208B9032070BDD4F8BC52D4F887
:1058E000C002C1682846884702232A460121204673
:1058F00000F0E8FD0020EFE770B504460D46812179
:10590000204600F086FC0021218761870121204686
:1059100000F07FFC0021A4F87811A4F87A11D4F8E3
:10592000BC0250B1D4F8C01288688047D4F8BC02D9
:1059300002F0F8F90020C4F8BC02002070BD70B578
:105940000446D4F8BC522869012806D1D4F8C00214
:10595000C1682846884700202861002070BD0000EB
:1059600001460A200880014870470000F401002029
:10597000014629200880014870470000640100208A
:10598000014629200880014870470000900100204E
:10599000014629200880014870470000BC01002012
:1059A00070B504460E46182002F034FA054625B9B3
:1059B0000020C4F8BC02022070BDC4F8BC52207C98
:1059C00020B905216187A4F87A1103E00A216187D3
:1059D000A4F87A11402303228121204600F05AFDC9
:1059E0000121218740230322204600F053FD01219D
:1059F000A4F8781100202875D4F8C01248688047B0
:105A000002232A460121204600F05CFD0020D3E756
:105A100070B50446D4F8BC0208B9032070BDD4F8B0
:105A2000BC5202232A460121204600F04BFD0020F3
:105A3000F4E7024609B903207047C2F8C0120020FB
:105A4000FAE72DE9F04104460E461746D4F8BC02A9
:105A500010B90320BDE8F081D4F8BC5294F89C0240
:105A600003280CD1287D40B9012028753B463246D9
:105A70008121204600F014FE01E00120EAE7002029
:105A8000E8E700002DE9F84306460C46D6F8BC527C
:105A90000027B846002000908146207800F0600082
:105AA00088B3202873D16078801E0A2822D2DFE8CC
:105AB00000F012082121212121190E05A07868602B
:105AC0001FE00122291D304600F00CF919E0608822
:105AD0000012A86015E0012205F10801304600F02F
