:020000040800F2
:10000000E0120020E1010008892E0008192B0008E9
:10001000852E000839090008A533000800000000FB
:10002000000000000000000000000000E52E0008B5
:10003000650A0008000000008B2E0008E72E00086B
:10004000FB010008FB010008FB010008FB010008A0
:10005000FB0100088D2E0008FB010008FB010008D1
:10006000FB010008FB010008FB010008FB01000880
:10007000FB010008FB010008FB010008FB01000870
:10008000FB010008FB010008FB0100085D090008F6
:100090003D0900084D090008FB010008FB010008AC
:1000A000FB010008FB010008FB010008FB01000840
:1000B000FB010008FB010008FB010008FB01000830
:1000C000FB010008FB010008FB010008FB01000820
:1000D000FB010008FB010008FB010008FB01000810
:1000E000FB010008FB010008FB010008FB01000800
:1000F000FB010008FB010008FB010008FB010008F0
:10010000FB010008FB010008FB010008FB010008DF
:10011000FB010008FB010008FB010008FB010008CF
:10012000550A0008FB010008FB010008FB0100085C
:10013000FB010008FB010008FB010008FB010008AF
:10014000FB010008FB010008FB010008FB0100089F
:10015000FB010008FB010008FB010008FB0100088F
:10016000FB010008FB010008FB010008FB0100087F
:10017000FB010008FB010008FB010008FB0100086F
:10018000FB010008FB010008FB010008FB0100085F
:10019000FB010008FB010008FB010008FB0100084F
:1001A000FB010008FB010008FB010008FB0100083F
:1001B000FB010008FB010008FB010008FB0100082F
:1001C000FB010008FB010008DFF810D000F08EF8FA
:1001D0000048004701340008AFF30080E01200201F
:1001E0000648804706480047FEE7FEE7FEE7FEE7D1
:1001F000FEE7FEE7FEE7FEE7FEE7FEE7D92F000891
:10020000C90100082DE9F05F0546002092469B4693
:1002100088460646814640241BE02846414647461C
:10022000224600F053F853465A46C01A914110D363
:1002300011461846224600F03AF82D1A67EB0108DD
:100240004F4622460120002100F031F817EB00094B
:100250004E41201EA4F10104DFDC484631462A4607
:100260004346BDE8F09F40EA01039B0703D009E045
:1002700008C9121F08C0042AFAD203E011F8013B92
:1002800000F8013B521EF9D27047D2B201E000F8EB
:10029000012B491EFBD270470022F6E710B513462A
:1002A0000A4604461946FFF7F0FF204610BD202AF3
:1002B00004DB203A00FA02F1002070479140C2F1BD
:1002C000200320FA03F3194390407047202A04DBEF
:1002D000203A21FA02F00021704721FA02F3D040BF
:1002E000C2F120029140084319467047064C074D61
:1002F00006E0E06840F0010394E8070098471034F6
:10030000AC42F6D3FFF764FF247100084471000883
:1003100000B585B0012002900C20049002200190CD
:10032000032003904CF20370009069460C4801F0E2
:1003300019F84FF68070009069460A4801F012F8EB
:100340004FF23F0000906946074801F00BF8372054
:1003500000906946054801F005F805B000BD0000B1
:10036000000C02400010024000140240001802403D
:1003700008B500BF4748006840F0010045490860E3
:100380000846006800F00100009000BF00BF00BFF9
:100390000846006840F0020008600846006800F067
:1003A0000200009000BF00BF00BF0846006840F098
:1003B000040008600846006800F00400009000BFD8
:1003C00000BF00BF0846006840F00800086008460B
:1003D000006800F00800009000BF00BF00BF0846A2
:1003E000006840F0100008600846006800F0100047
:1003F000009000BF00BF00BF0846006840F020002A
:1004000008600846006800F02000009000BF00BFB0
:1004100000BF0846006840F04000086008460068D9
:1004200000F04000009000BF00BF00BF0846006819
:1004300040F0800008600846006800F080000090EE
:1004400000BF00BF00BF0846006840F4807008602D
:100450000846006800F48070009000BF00BF00BF35
:100460000846006840F4007008600846006800F420
:100470000070009000BF00BF00BF0846006840F455
:10048000806008600846006800F48060009000BF4B
:1004900000BF08BD303802407CB5044600F066F865
:1004A000054600F053F806460020CDE90004084850
:1004B000006800EB800202EBC002064800EB8200FD
:1004C0002B463246416A0248006802F08FFB7CBD31
:1004D00028000020D001002010B5A2B0044634202E
:1004E0000690022108910820019080030C9001A839
:1004F00001F02CFA22B010BD10B50021044802F022
:10050000C7FA00224FF48071024801F037F810BD9D
:10051000580100200020024010B509480068806999
:1005200040F001000649096888610021054802F091
:100530007DFA01221102044801F020F810BD0000EC
:100540009801002058010020002002400548006862
:1005500000EB800101EBC001034800EB8100806AE1
:100560007047000028000020D001002005480068E6
:1005700000EB800101EBC001034800EB8100C06A81
:100580007047000028000020D001002010B502F0C4
:10059000D1FA1D481D49086005211C484161002110
:1005A00081614921C1611221016240F289114162D8
:1005B0004FF481718162091D016340F29D11C16296
:1005C000FFF78AFF0021114880F8341080F83510B9
:1005D00080F836104FF4A0710166F02141660020CA
:1005E0000A494860002109488160C160016101F049
:1005F0003EF810B9054800F053F8044801F03CF803
:1006000000F0C6F8002010BD0068014098010020ED
:1006100030B58DB004460D4600200090FFF796FFE0
:10062000019000200290FFF7A1FF039002200490A8
:100630000995FF200590002006908DF830000021DC
:100640008DF831108DF832104FF4C06007900720FC
:100650000890FFF77BFF0A90FFF788FF0B90224678
:1006600069460C4800F0D4FF4FF0FF3004EB440122
:10067000094A02EB81014860084804EB440102EB9F
:10068000810188604FF07F4004EB440142F8210073
:100690000DB030BD9801002040010020080000206E
:1006A00010B586B0044600BF2848006840F080605E
:1006B000264908600846006800F08060009000BF8E
:1006C00000BF00BF21481438006840F400001F49F3
:1006D000143908600846006800F40000009000BF6C
:1006E00000BF002003900E200590022002900320FE
:1006F00004904020019001A9154800F033FE4FF40A
:100700002240019001A9134800F02CFE4EF2034054
:10071000019001A9104800F025FE4FF2BB50019056
:1007200001A90E4800F01EFEFC20019001A90C4812
:1007300000F018FE012002900002019001A9064875
:1007400000F010FEFFF7D8FE06B010BD443802409E
:1007500000180240001C0240002002400024024019
:100760000028024000B585B014216846FFF794FDCB
:100770000020029001200090002001900390694623
:10078000024800F0EFFD05B000BD0000000002408F
:1007900010B501241A481B49086002201A49486113
:1007A00088610620C8600420886002200860086113
:1007B00007204860E10213480162002011494860A7
:1007C0001021104801610901816109014162002184
:1007D00081620821C16001218160402141610021C5
:1007E000C16100F067F80849064801F0C3FF00B195
:1007F00000E0002440F6182000F008F8204610BD64
:10080000400100A080020020B402002038B5044658
:100810000020009001202549086010204860012038
:1008200088600020C8604FF6FF72214801F0D7FFB2
:10083000012000F083FD02201C4908601020486060
:10084000012088600020C8604FF6FF72184801F050
:10085000C6FF032015490860102048600820886002
:100860000020C8604FF6FF72114801F0B8FF4FF446
:100870000870009004200D49086010204860012095
:1008800088600098C8604FF6FF72094801F0A7FF22
:100890002146074801F08FFF05480068406940F68F
:1008A0001821084302490968486138BDD002002078
:1008B0008002002010B586B0044600BF19480068C9
:1008C00040F00100174908600846006800F0010088
:1008D000009000BF00BFFFF71BFD012003900C201C
:1008E000059002200290032004900120019001A9AC
:1008F0000D4800F037FD4FF40060019001A90B484E
:1009000000F030FD4FF40140019001A9084800F0CB
:1009100029FD0C20019001A9064800F023FD06B036
:1009200010BD0000383802400008024000140240A8
:1009300000180240001C024000BFFEE710B502484C
:1009400000F037F910BD00007000002010B502481B
:1009500000F02FF910BD00007000002010B5024813
:1009600000F027F910BD0000700000202DE9F047CD
:100970000C4617469C46DDF82080D0F80090D9F848
:10098000449009F0404948EA0C4A49EA0A09D0F87B
:1009900000A0CAF84490D0F80090C9F83C70D0F894
:1009A0000490B9F5403F4ED104F07F4604F47F0136
:1009B00004F47F42E3B2D0F80890B9F1000F06D1F9
:1009C00042EA010949EA060949EA030536E0D0F896
:1009D0000890B9F1010F04D142EA010949EA03057F
:1009E0002CE0D0F80890B9F1020F09D1C90C920A95
:1009F000DB084FEA421949EAC12949EA03051DE02B
:100A0000D0F80890B9F1030F0CD1F60FC90CD20A37
:100A1000DB084FEA421949EA812949EAC63949EA1D
:100A200003050BE0360F090D120B1B094FEA0219E3
:100A300049EA012949EA063949EA0305D0F8009054
:100A4000C9F8385003E0D0F80090C9F80C40BDE870
:100A5000F087000010B50249886B00F04FFB10BD15
:100A6000F80000207047704700BFFEE730B502462F
:100A7000002300240868012816D013686FF30E03C2
:100A8000D1E901052843CD6828430D6928434D6904
:100A900028438D692843CD6928430D6A28434D6A50
:100AA00028430343136019E0136823F4F843D1E9A2
:100AB000070528434D6A2843034354686FF30E0427
:100AC000D1E901052843CD6828430D6928434D69C4
:100AD00028438D692843044313605460002030BDCF
:100AE0000246506940EA410050610020704718B545
:100AF000034600200090D1E9000420438C68641E66
:100B000040EA4410CC6840EA442000900098186104
:100B1000002018BD70B50346154600220024012DA3
:100B20001FD09A6802F070420868401E4E68761E18
:100B300040EA06168868401E46EA0026C868401E3D
:100B400046EA0036088A401E46EA0046888A401E69
:100B500046EA0056087E401E46EA006002439A605C
:100B600022E09A6811480240C868401E0603888A3D
:100B7000401E46EA00500243DC6804F070440868F6
:100B8000401E4E68761E40EA06168868401E46EAF9
:100B90000026088A401E46EA0046087E401E46EAB5
:100BA000006004439A60DC60002070BDFF0F0FFFFF
:100BB00070472DE9F05F04460025206846692068EB
:100BC000D0F80490206887682068D0F80CA02068CE
:100BD000D0F810B02068D0F8188006F00100002886
:100BE00055D007F00100C0B101202168886007F0EE
:100BF000020018B1204600F009F90EE007F00400E9
:100C000010B145F4006508E007F0080010B145F4A4
:100C1000805502E0204600F0F8F807F48070C8B173
:100C20004FF480702168886007F4007018B1204686
:100C300000F0EEF80EE007F4806010B145F40055C6
:100C400008E007F4006010B145F4804502E020465A
:100C500000F0DDF807F48030C8B14FF4803021682F
:100C6000886007F4003018B1204600F0D3F80EE099
:100C700007F4802010B145F4004508E007F4002097
:100C800010B145F4803502E0204600F0C2F806F0CD
:100C9000080038B10AF0100020B145F400751020AA
:100CA0002168C86006F0040040B10AF0080028B1CD
:100CB00008202168C860204600F0A2F806F0020073
:100CC00038B12068C06800F0030010B1204600F081
:100CD00098F806F0400038B10BF0100020B145F450
:100CE000806510202168086106F0200040B10BF0FB
:100CF000080028B1082021680861204600F082F829
:100D000006F0100038B12068006900F0030010B14F
:100D1000204600F078F806F4003040B109F01000E9
:100D200028B1102021684860204600F06DF806F4D4
:100D3000803040B109F0080028B1082021684860DF
:100D4000204600F068F806F4004088B309F004007B
:100D500078B306F4807020B108F0010008B145F0C6
:100D6000010506F4007020B108F0020008B145F05A
:100D7000020506F4806020B108F0040008B145F0D7
:100D8000040506F40060A0B108F0700088B108F016
:100D90007000402817D006DC10280BD020280CD07B
:100DA000302819D10CE0502810D0602814D110E060
:100DB0001DE019E045F008050FE045F010050CE0D6
:100DC00045F0200509E045F0400506E045F08005C6
:100DD00003E045F4807500E000BF00BF2068806933
:100DE00020F07000216888610420216848602DB1DE
:100DF000606A284360622046FFF7DAFEBDE8F09F94
:100E0000704770477047704770477047704770472A
:100E1000704770477047704770B502460C4650687F
:100E2000B0F5403F02D0506800B100BF00BF92F85B
:100E30003800012801D1022070BD012082F838005D
:100E400000BF022082F8390002F1180000EB041103
:100E50000E89486840EA0643214D48680A2802D0B6
:100E60004868092804D1C86800F07F40034302E0C5
:100E7000087B43EA0063A4B91068406AA84318439A
:100E80001668706208681668B06148680A2802D05F
:100E90004868092819D1C86820F07F401668B062F8
:100EA00013E01068C069A84318431668F061086829
:100EB0001668306148680A2802D04868092804D1B9
:100EC000C86820F07F4016683062012082F839003F
:100ED00000BF002082F8380000BF00BFACE7000070
:100EE0000F0003FF10B504460CB9012010BD94F8A3
:100EF000390028B9002084F83800204600F022F894
:100F0000022084F839002068006820F440306168CD
:100F10000843216808602068406B20F00700A16842
:100F20000843216848632068006C6FF30D00E16896
:100F30000843216808640020E063012084F8390038
:100F40000020D3E77047F8B504460D460020009016
:100F50002068006800F00100002843D000F014FB76
:100F6000064639E0206840680090009800F02100B3
:100F7000E0B1009800F0200018B1E06B40F00200F2
:100F8000E063009800F0010018B1E06B40F0010050
:100F9000E063212021688860042084F8390000BFC4
:100FA000002084F8380000BF0120F8BD681C98B10B
:100FB00000F0EAFA801BA84200D86DB9E06B40F05F
:100FC0002000E063032084F8390000BF002084F88B
:100FD000380000BF0320E8E72068406800F0020006
:100FE0000028BFD02068C06900F020072068406A50
:100FF00000F020000743002F4BD000F0C5FA064652
:1010000041E0206840680090009800F0290020B37B
:10101000009800F0080018B1E06B40F00400E063B5
:10102000009800F0200018B1E06B40F00200E0638F
:10103000009800F0010018B1E06B40F00100E0639F
:10104000292021688860042084F8390000BF00202E
:1010500084F8380000BF0120A7E7681C98B100F0B1
:1010600093FA801BA84200D86DB9E06B40F02000D5
:10107000E063032084F8390000BF002084F83800C2
:1010800000BF032091E72068406800F010000028AE
:10109000B7D0122021688860012084F8390000BF91
:1010A000002084F8380000BF00BF7EE72DE9F84338
:1010B00004460D4616461F46DDF8208000BF94F812
:1010C0003800012802D10220BDE8F883012084F80D
:1010D000380000BF022084F839003B4632462946DA
:1010E0002046CDF80080FFF741FC2068006840F002
:1010F0000100216808600020E6E70000F8B504461A
:10110000002000908C4800684FF41651B0FBF1F7B6
:10111000A56D2E6894F85C1008208840304098B186
:101120002068006800F0040070B12068006820F0BA
:1011300004002168086094F85C1008208840A860CA
:10114000606D40F00100606594F85C1001208840FB
:10115000304068B12068406900F0800040B194F8E8
:101160005C1001208840A860606D40F0020060655E
:1011700094F85C1004208840304068B12068006812
:1011800000F0020040B194F85C1004208840A86090
:10119000606D40F00400606594F85C101020884099
:1011A000304078B32068006800F0080050B394F82D
:1011B0005C1010208840A8602068006800F480203F
:1011C00080B12068006800F4002028B9206CC8B104
:1011D0002046216C884715E0A06C98B12046A16C90
:1011E00088470FE02068006800F4807028B9206804
:1011F000006820F0080021680860206C10B12046CB
:10120000216C884794F85C102020884030400028EA
:1012100065D02068006800F0100000285FD094F8C6
:101220005C1020208840A86094F83500052828D15B
:101230002068006820F01600216808602068406976
:1012400020F0800021684861206C08B9A06C28B1AA
:101250002068006820F008002168086094F85C109D
:101260003F208840A86000BF002084F8340000BF01
:10127000012084F83500206D10B12046216D88478B
:10128000F8BD2068006800F4802080B12068006804
:1012900000F4002028B9606C10B12046616C8847CA
:1012A0001DE0E06BD8B12046E16B884717E020686D
:1012B000006800F4807068B92068006820F01000B1
:1012C0002168086000BF002084F8340000BF0120BE
:1012D00084F83500E06B10B12046E16B8847606D03
:1012E00038B3606D00F00100F0B1052084F83500DE
:1012F0002068006820F001002168086000BF0098A5
:10130000401C0090B84200D905E02068006800F059
:1013100001000028F3D100BF00BF002084F8340092
:1013200000BF012084F83500E06C10B12046E16C6C
:10133000884700BFA4E700002C00002070B50446D9
:1013400000F022F906462546681C10B104480078D2
:10135000054400BF00F018F9801BA842FAD370BD05
:1013600038000020F8B502460B4600210025002475
:10137000002000BFE4E0012606FA01F51E6806EA37
:101380000504AC4271D15E68012E08D05E68022E61
:1013900005D05E68112E02D05E68122E13D19068BF
:1013A0004F000326BE40B0434F00DE68BE403043CE
:1013B0009060506801268E40B0431E79C6F3001637
:1013C0008E4030435060D0684F000326BE40B0438B
:1013D0004F009E68BE403043D0605E68022E02D04F
:1013E0005E68122E13D1CF0802F1200656F82700AE
:1013F0004E07F70E0F26BE40B0434F07FF0E1E6983
:10140000BE403043CF0802F1200646F8270010689E
:101410004F000326BE40B0431E7906F003064F007E
:10142000BE40304310605E6806F08056B6F1805FC3
:10143000A8D100BF444E366846F48046424F3E6015
:101440003E46366806F48046009600BF00BF3F4E19
:101450008F0856F827008E07370F0F26BE40B0437F
:101460003B4EB24202D100262EE068E0394EB24235
:1014700001D1012628E0384EB24201D1022623E0F4
:10148000364EB24201D103261EE0354EB24201D1A2
:10149000042619E0334EB24201D1052614E0324E43
:1014A000B24201D106260FE0304EB24201D10726EA
:1014B0000AE02F4EB24201D1082605E02D4EB2427D
:1014C00001D1092600E00A268F073F0FBE403043B6
:1014D0001E4E8F0846F82700274E3068A0435E68EE
:1014E00006F48036B6F5803F00D12043224E3060AE
:1014F000361D3068A0435E6806F40036B6F5003F3E
:1015000000D120431C4E361D3060361D3068A0438C
:101510005E6806F48016B6F5801F00D12043164E93
:1015200008363060361D3068A0435E6806F4001649
:10153000B6F5001F00D120430F4E0C363060491C19
:101540001029FFF418AFF8BD4438024008380140B4
:10155000000002400004024000080240000C02406B
:10156000001002400014024000180240001C02401B
:101570000020024000240240003C01400AB1816189
:1015800001E00B0483617047014800687047000068
:1015900030000020034800680349097808440149E5
:1015A00008607047300000203800002010B503208C
:1015B00000F066F9002000F005F800F0EBF80020DC
:1015C00010BD000070B504460E4800784FF47A71E3
:1015D000B1FBF0F00C490968B1FBF0F5284601F0C9
:1015E0001BF908B1012070BD102C07D20022214642
:1015F000501E00F007F90548046001E00120F2E701
:101600000020F0E7380000202C00002034000020EB
:1016100070B504460E46154600BF94F8A000012898
:1016200001D1022070BD012084F8A00000BF02207B
:1016300084F8A10005EB850101EBC50204F1380136
:1016400001EB820034223146FEF70DFE2A46314678
:10165000204601F00FFB01202168486284F8A100B8
:1016600000BF002084F8A00000BF00BFDAE70146F9
:1016700091F8A1007047000070B504460CB9012034
:1016800070BD94F8A10028B9002084F8A00020467D
:1016900000F07EF8022084F8A1002068806920F024
:1016A000704021688861D4E901010843E16808437A
:1016B0002169084321688969084321688861206895
:1016C00080683249084021688860A08A0504206843
:1016D0008068A16929430843216888602068C06840
:1016E0002A4908402168C860A08B05042068C068AA
:1016F000216A294308432168C8602068006923499A
:10170000084021680861A08C050420680069A16A6E
:101710002943084321680861206840691B49084043
:1017200021684861A08D050420684069216B294328
:1017300008432168486194F83500050294F83600A2
:1017400006042068C06A00F07F402168C86246EA4B
:10175000050094F8341008432168C96A08432168D9
:10176000C8622068406B40F006002168486320682A
:10177000806940F00100216888610020C4F8A4005D
:10178000012084F8A10000207AE7000000F800F0B2
:101790007047000008B500BF1148006840F0805055
:1017A0000F4908600846006800F08050009000BFB4
:1017B00000BF00BF081D006840F48040091D08609C
:1017C0000846006800F48040009000BF00BF00227F
:1017D0001146052000F016F8052000F003F808BDBA
:1017E0004038024001460846002809DB00F01F038C
:1017F00001229A4043099B0003F1E023C3F8002132
:1018000000BF70472DE9F05F80460D461646002761
:1018100001F0CAFD074639462A46334601F0070063
:10182000C0F1070ABAF1040F02D94FF0040A01E02F
:10183000C0F1070AD14600F1040ABAF1070F02D23B
:101840004FF0000A01E0A0F1030AD4464FF0010A6C
:101850000AFA09FAAAF1010A0AEA020A0AFA0CFAD1
:101860004FF0010B0BFA0CFBABF1010B0BEA030B76
:101870004AEA0B042146404601F09EFDBDE8F09F78
:1018800000BF00F00702064B19684FF6FF0319402E
:10189000044B0B4343EA0221014B196000BF704720
:1018A0000CED00E00000FA0538B5002400BF204828
:1018B000006840F080501E4908600846006800F04B
:1018C0008050009000BF00BF1A48006840F480308C
:1018D00018490860FFF758FE044607E0FFF754FE7A
:1018E000001BB0F57A7F01D9032038BD114840684C
:1018F00000F48030B0F5803FF0D10E48006840F42D
:1019000000300C490860FFF73FFE044607E0FFF790
:101910003BFE001BB0F57A7F01D90320E5E70548BF
:10192000406800F40030B0F5003FF0D10020DCE763
:1019300040380240007000400348006840F4807066
:101940000149086070470000007000402DE9F8432D
:101950000446002600250027A846A946207800F066
:10196000010088B100BFFE48006820F40000FC4977
:10197000086008460068616B0843F949086000BFC9
:10198000606B08B94FF00108206800F40020B0F542
:10199000002F13D1F2488430006820F44010E16B2E
:1019A0000843EF4984310860E06BB0F5801F01D136
:1019B0004FF00108E06B08B94FF00109206800F40E
:1019C0008010B0F5801F13D1E5488430006820F402
:1019D0004000216C0843E24984310860206CB0F576
:1019E000800F01D14FF00108206C08B94FF00109B8
:1019F000206800F08070B0F1807F01D14FF00108C5
:101A0000207800F02000202870D100BFD448383062
:101A1000006840F08050D2493831086008460068BC
:101A200000F08050009000BF00BFCE48006840F436
:101A30008070CC490860FFF7A7FD064607E0FFF776
:101A4000A3FD801B642802D90320BDE8F883C548A4
:101A5000006800F480700028F1D0C1486830006848
:101A600000F4407585B3208E00F44070A8422BD05E
:101A7000BB486830006820F44075B9486830006899
:101A800040F48030B649683108600846006820F4A8
:101A90008030086008460560006800F0010098B1D9
:101AA000FFF772FD064608E0FFF76EFD801B41F26E
:101AB0008831884201D90320C7E7A9486830006807
:101AC000C0F340000028EFD000BF208E00F440702B
:101AD000B0F5407F0BD1A248006820F4F810A24A6C
:101AE000216B114008439E49086006E010E09C48C5
:101AF000006820F4F8109A49086099486830006836
:101B0000218EC1F30B01084395496831086000BF7D
:101B1000207800F01000102810D100BF90488430C9
:101B2000006820F080708E498431086008460068A3
:101B3000A16B08438A498431086000BF208800F403
:101B40008040B0F5804F09D185488830006820F486
:101B50004030616E0843824988310860208800F473
:101B60000040B0F5004F09D17D488830006820F46E
:101B70004020A16E08437A4988310860206800F44B
:101B80008030B0F5803F09D175488830006820F476
:101B90004010E16E0843724988310860206800F403
:101BA0000030B0F5003F09D16D488830006820F45E
:101BB0004000216F08436A4988310860207800F0AE
:101BC0004000402809D166488830006820F00300B2
:101BD000616C0843624988310860207800F0800019
:101BE000802809D15E488830006820F00C00A16C84
:101BF00008435B4988310860208800F48070B0F5A4
:101C0000807F09D156488830006820F03000E16CB0
:101C10000843534988310860208800F40070B0F50B
:101C2000007F09D14E488830006820F0C000216D47
:101C300008434B4988310860208800F48060B0F583
:101C4000806F09D146488830006820F44070616D8B
:101C50000843434988310860208800F40060B0F5EB
:101C6000006F09D13E488830006820F44060A16DC3
:101C700008433B4988310860208800F48050B0F563
:101C8000805F09D136488830006820F44050E16D0B
:101C90000843334988310860208800F40050B0F5CB
:101CA000005F09D12E488830006820F44040216E42
:101CB00008432B4988310860206800F48000B0F5A3
:101CC000800F09D126488830006820F08060A16F1D
:101CD0000843234988310860206800F40010B0F5FB
:101CE000001F0FD11E488830006820F00060E16FAF
:101CF00008431B4988310860E06FB0F1006F01D1E3
:101D00004FF00109207800F00800082801D14FF0B9
:101D10000109206800F48020B0F5802F09D1104817
:101D20008830006820F04070616F08430C498831AA
:101D30000860206800F40000B0F5000F0AD10848E0
:101D40008830006820F08050D4F88010084304499F
:101D500088310860B8F1010F0BD0206806E0000060
:101D60000838024000700040FFFCFF0FB0F1007F18
:101D70007DD1AD48006820F08060AB490860FFF776
:101D800003FC064606E0FFF7FFFB801B642801D931
:101D900003205AE6A4480068C0F3C0600028F2D1CE
:101DA000207800F00100B8B1606BA8B99E4884307B
:101DB0000068C0F301459C4884300068C0F30367A5
:101DC0006068800140EA054040EA0761207A41EA04
:101DD0000070954984310860206800F40020B0F557
:101DE000002F03D1E06BB0F5801F09D0206800F40C
:101DF0008010B0F5801F24D1206CB0F5800F20D169
:101E0000894884300068C0F3014587488430006801
:101E1000C0F302776068800140EA0541207B41EA17
:101E2000006040EA07708049843108607E488C3049
:101E3000006820F01F00616A491E08437A498C310E
:101E40000860206800F08070B0F1807F17D176487C
:101E500084300068C0F30365734884300068C0F3C1
:101E6000027760688101208A41EA004000E031E0A9
:101E700040EA056040EA07706B49843108602068D9
:101E800000F00070B0F1007F0DD160688101208A00
:101E900041EA0041207B41EA0061207A41EA00707A
:101EA0006149843108606048006840F080605E49A4
:101EB0000860FFF769FB064606E0FFF765FB801B3D
:101EC000642801D90320C0E557480068C0F3C0600A
:101ED0000028F2D0B9F1010F7ED15348006820F0FC
:101EE000805051490860FFF74FFB064606E0FFF7B8
:101EF0004BFB801B642801D90320A6E54A480068F3
:101F0000C0F340700028F2D1206800F40020B0F542
:101F1000002F01D1E06B38B1206800F48010B0F5DB
:101F2000801F22D1206C00BB3F4888300068C0F37E
:101F300001453D4888300068C0F302776069800140
:101F400040EA0541207E41EA006040EA07703649D8
:101F500088310860081D006820F4F851A06A401E0E
:101F600041EA002030498C310860206800F40010FC
:101F7000B0F5001F19D1E06FB0F1006F15D12A48FC
:101F800088300068C0F30365274888300068C0F3D4
:101F9000027760698101208C41EA004040EA0560D7
:101FA00040EA0770204988310860207800F0080076
:101FB000082820D11C4888300068C0F303651A48FF
:101FC00088300068C0F301476069800140EA07403B
:101FD00040EA0561207F00E024E041EA00701249F8
:101FE00088310860081D006820F44030E16A084329
:101FF0000D498C3108600C48006840F080500A4957
:102000000860FFF7C1FA064606E0FFF7BDFA801B3D
:10201000642801D9032018E503480068C0F3407024
:102020000028F2D0002010E50038024070B50446C8
:102030000D4600260CB9012070BD5C48006800F018
:102040000F00A8420ED25948006820F00F00284324
:10205000564908600846006800F00F00A84201D009
:102060000120E9E7207800F0020002281DD1207845
:1020700000F00400042805D14D48006840F4E05009
:102080004B490860207800F00800082805D148482E
:10209000006840F46040464908604548006820F008
:1020A000F000A168084342490860207800F0010070
:1020B00090B36068012807D13D4808380068C0F334
:1020C0004040A0B90120B7E76068022807D138482E
:1020D00008380068C0F3406048B90120ACE73448D4
:1020E00008380068C0F3400008B90120A4E7304870
:1020F000006820F00300616808432D490860FFF77D
:1021000043FA064609E0FFF73FFA801B41F28831A7
:10211000884202D903208FE707E02548006800F0D5
:102120000C006168B0EB810FEDD12048006800F031
:102130000F00A8420ED91D48006820F00F00284368
:102140001A4908600846006800F00F00A84201D054
:10215000012071E7207800F00400042807D114481A
:10216000006820F4E050E1680843114908602078D5
:1021700000F00800082808D10D48006820F46040ED
:10218000216940EAC1000A49086000F019F80849CD
:102190000968C1F30311074A515CC8400649086049
:1021A00006480068FFF70EFA002045E7003C0240B1
:1021B000083802400C7100082C0000203400002078
:1021C0002DE9F047002400250026A1462548006897
:1021D00000F00C0020B1042805D008283AD105E011
:1021E000DFF8849039E0DFF8849036E01D48001F66
:1021F000006800F03F041B48001F006800F48000E6
:1022000078B11A481749091F0968C1F38811A0FB62
:1022100001700146224600233846FDF7F3FF0546CC
:102220000EE011480F49091F0968C1F38811A0FB8E
:1022300001700146224600233846FDF7E3FF0546BC
:102240000848001F0068C0F30140401C4600B5FB71
:10225000F6F902E0DFF8109000BF00BF4846BDE885
:10226000F0870000083802400024F40000366E01B8
:10227000F8B5044600270CB90120F8BD207800F01D
:102280000100002871D0F948006800F00C00042813
:102290000DD0F648006800F00C00082813D1F34870
:1022A000001F006800F48000B0F5800F0BD1EF48EC
:1022B00008380068C0F34040002869D060680028F2
:1022C00066D10120D9E700BF6068B0F5803F08D132
:1022D000E6480838006840F48030E449083908606E
:1022E0002EE0606868B9E1480838006820F4803062
:1022F000DE49083908600846006820F4802008603C
:102300001EE06068B0F5A02F0DD1D84808380068ED
:1023100040F48020D549083908600846006840F438
:10232000803008600CE0D1480838006820F4803024
:10233000CE49083908600846006820F4802008600B
:1023400000BF606890B1FFF71FF9054606E0FFF790
:102350001BF9401B642801D903208EE7C3480838C5
:102360000068C0F340400028F1D011E0FFF70CF9FD
:10237000054606E0FFF708F9401B642801D9032051
:102380007BE7BA4808380068C0F340400028F1D124
:10239000207800F00200022869D1B448006800F0FB
:1023A0000C0058B1B148006800F00C0008281CD19E
:1023B000AE48001F006800F48000B0B9AB48083890
:1023C0000068C0F3400020B1E068012801D001207E
:1023D00053E7A6480838006820F0F800216940EA71
:1023E000C100A2490839086041E0E06828B39F486D
:1023F0000838006840F001009C4908390860FFF780
:10240000C3F8054606E0FFF7BFF8401B022801D9D4
:10241000032032E7954808380068C0F340000028E0
:10242000F1D092480838006820F0F800216940EAAD
:10243000C1008E490839086019E08C4808380068E6
:1024400020F00100894908390860FFF79DF805462A
:1024500006E0FFF799F8401B022801D903200CE79A
:10246000824808380068C0F340000028F1D1207885
:1024700000F00800082836D16069D0B17B486C3084
:10248000006840F0010079496C310860FFF77CF882
:10249000054606E0FFF778F8401B022801D9032023
:1024A000EBE672486C300068C0F340000028F1D0C1
:1024B00019E06E486C30006820F001006B496C3107
:1024C0000860FFF761F8054606E0FFF75DF8401B7E
:1024D000022801D90320D0E664486C300068C0F3BC
:1024E00040000028F1D1207800F00400042874D1C5
:1024F0005E483830006800F0805080B900BF5B480B
:102500003830006840F0805058493831086008463B
:10251000006800F08050009000BF00BF01275448C1
:10252000006800F48070B0B95148006840F48070D1
:102530004F490860FFF728F8054606E0FFF724F842
:10254000401B642801D9032097E64948006800F43D
:1025500080700028F2D000BFA068012808D143484D
:102560006830006840F001004049683108602DE0A3
:10257000A06868B93D486830006820F001003B4918
:10258000683108600846006820F0040008601DE01B
:10259000A06805280DD135486830006840F0040077
:1025A0003249683108600846006840F00100086060
:1025B0000CE02E486830006820F001002B4968319B
:1025C00008600846006820F00400086000BFA068AA
:1025D000A8B1FEF7D9FF054609E02EE0FEF7D4FFCB
:1025E000401B41F28831884201D9032045E61F484B
:1025F00068300068C0F340000028EFD013E0FEF719
:10260000C3FF054608E0FEF7BFFF401B41F28831DB
:10261000884201D9032030E6144868300068C0F3CE
:1026200040000028EFD1012F07D110483830006852
:1026300020F080500D4938310860A069002852D040
:102640000A48006800F00C00082865D0A06902283C
:102650004AD106480838006820F0807003490839DC
:102660000860FEF791FF05460BE0000008380240C5
:1026700000700040FEF788FF401B022801D90320AC
:10268000FBE53B480068C0F340600028F2D1E069F8
:1026900040F00050216A0843616A40EA811101223A
:1026A000A06AC2EB500041EA00412C20005D41EAE3
:1026B00000602F49091D0860081F006840F0807005
:1026C000091F0860FEF760FF054606E0FEF75CFFA5
:1026D000401B022801D90320CFE525480068C0F33C
:1026E00040600028F2D040E02148006820F080706F
:1026F0001F490860FEF748FF054606E0FEF744FF65
:10270000401B022801D90320B7E519480068C0F32F
:1027100040600028F2D128E01548001D0668A06935
:10272000012820D006F48001E06981421BD106F027
:102730003F01206A814216D147F6C0703040616A7D
:10274000B0EB811F0FD106F440310122A06AC2EB29
:102750005000B1EB004F06D106F070612C20005DF7
:10276000B1EB006F01D0012087E5002085E5000076
:102770000038024070B504460D460CB9012070BD0A
:1027800094F82C0028B9002084F82D00204600F091
:1027900011F8022084F82C00211D2068FEF766F94C
:1027A0002946D4E90002FEF7B5F9012084F82C008F
:1027B0000020E4E7704770B504460D4694F82C00FD
:1027C000022800D170BD022084F82C002946206820
:1027D000FEF786F9012084F82C000020F2E770B59E
:1027E00004460D46164694F82C00022800D170BD10
:1027F000022084F82C00324629462068FEF777F93B
:102800002868022803D1052084F82C0002E001206A
:1028100084F82C000020EAE770B504462546681EBF
:10282000B0F1807F01D301200FE0681E4FF0E0215E
:1028300048610F214FF0FF3000F0BEFD00204FF047
:10284000E021886107200861002070BD10B50446B2
:102850000CB9012010BD94F83D0028B9002084F87F
:102860003C00204600F00CF8022084F83D00211DB9
:10287000206800F0E3FB012084F83D000020E9E738
:10288000704770B504460D46164600BF94F83C00EC
:10289000012801D1022070BD012084F83C0000BF56
:1028A000022084F83D000C2E51D005DC4EB1042EE0
:1028B0001ED0082E7AD133E0102E60D0142EF9D11C
:1028C00075E02946206800F037FC2068806940F0F8
:1028D0000800216888612068806920F00400216870
:1028E000886120688069296908432168886177E0E8
:1028F0002946206800F05AFC2068806940F4006096
:10290000216888612068806920F48060216888617E
:1029100020688069296940EA0120216888615FE0B8
:102920002946206800F082FC2068C06940F0080059
:102930002168C8612068C06920F004002168C8616E
:102940002068C069296908432168C86148E02946B0
:10295000206800F0A9FC2068C06940F4006021688C
:10296000C8612068C06920F480602168C86120685F
:10297000C069296940EA01202168C86130E0294620
:10298000206800F0BDFC2068406D40F00800216820
:1029900048652068406D20F0040021684865206883
:1029A000406D296908432168486519E017E0294608
:1029B000206800F0CDFC2068406D40F40060216884
:1029C00048652068406D20F4806021684865206873
:1029D000406D296940EA01202168486500E000BF98
:1029E00000BF012084F83D0000BF002084F83C00B7
:1029F00000BF00BF4FE710B504460CB9012010BD61
:102A000094F83D0028B9002084F83C00204600F0EE
:102A10000CF8022084F83D00211D206800F00EFB18
:102A2000012084F83D000020E9E7704770B50446B6
:102A30000E4601223146206800F06CFB11492068E7
:102A4000884203D010492068884201D1012000E06B
:102A5000002028B12068406C40F4004021684864A0
:102A600020688068094900EA0105062D08D0B5F5FF
:102A7000803F05D02068006840F0010021680860B0
:102A8000002070BD0000014000040140070001006B
:102A900030B504460D4600222946206800F03AFB76
:102AA0001B492068884203D01A492068884201D116
:102AB000012000E0002090B100BF2068006A41F2D0
:102AC0001111084050B92068006A8910084028B9DF
:102AD0002068406C20F400402168486400BF00BFBB
:102AE0002068006A41F21111084050B92068006A5C
:102AF0008910084028B92068006820F0010021688A
:102B0000086000BF012084F83D00002030BD0000B7
:102B100000000140000401400AE014F0040F00D15D
:102B200000BF00D000BF00BF00F0B2F900BE00BF80
:102B3000F3E7000000B58DB01C2106A8FDF7ACFB43
:102B4000142101A8FDF7A8FB00BF2448006840F449
:102B50008020224908600846006800F48020009028
:102B600000BF00BF8020019000200390032005904B
:102B7000022002900020049001A91948FEF7F2FB00
:102B80000020184948604FF487511648C160164824
:102B90001449086000211348816001618161FFF7D9
:102BA00055FE08B1FDF760FF0E48FFF724FF08B19E
:102BB000FDF75AFF40F66F00079060200690022054
:102BC000089000200A90002206A90648FFF759FE47
:102BD00008B1FDF749FF0DB000BD000044380240C8
:102BE0000014024058010020004801402DE9F8433C
:102BF00004460D4616461F46DDE908984FF440305E
:102C0000184948601848006800EB800101EBC001DA
:102C1000164800EB81000069022803D10221114807
:102C2000816002E000210F4881600E48C0F80C90DE
:102C30000F480C4908600846FEF754F980B9214650
:102C40000848FEF7E9F858B933462A464146054890
:102C50000097FEF72BFA18B90A210248FEF773F91C
:102C6000BDE8F8834002002028000020D0010020A9
:102C700000B00240F0B58E880768FF68C7F30B47C5
:102C80003E44330406688436802707FB0266766874
:102C900006F47047066884364FF0800C0CFB026621
:102CA00077600E680768FF68C7F30B473E44761CE1
:102CB0001E43076884370CFB02777E608E890768A5
:102CC000FF68C7F30A073E4433040668843680274A
:102CD00007FB0266B66806F47047066884360CFB8C
:102CE0000266B7608E680768FF68C7F30A073E444C
:102CF000761C46EA0307066884360CFB0266B7605A
:102D000006688436802707FB0266366926F00707C7
:102D1000066884360CFB026637610F6906688436E4
:102D20000CFB026637613126765C33023226765C14
:102D300034040E7E350606688436802707FB02665B
:102D4000B6690027066884360CFB0266B76191F805
:102D500030601E43264346EA0507066884360CFBAE
:102D60000266B76106688436802707FB02667669CB
:102D700026F0FF07066884360CFB026677614F6910
:102D8000066884360CFB0266776106688436802705
:102D900007FB0266F66940F20777BE43076884378F
:102DA0000CFB0277FE61D1E907763743066884366B
:102DB0000CFB0266F76106688436802707FB026613
:102DC000B66A0027066884360CFB0266B7624F6A53
:102DD000066884360CFB0266B7620E690EB90423DE
:102DE00013E00E69012E01D103230EE00E69042EBB
:102DF00008D00E69022E05D00E69032E02D00E698E
:102E0000072E01D1022300E00123066884368027C3
:102E100007FB0266F66A06F0E027066884364FF084
:102E2000800C0CFB0266F762D1E90076F61B5E436C
:102E3000F61C0F8D5F4346EA0747066884360CFB95
:102E40000266F76206688436802707FB0266366BE7
:102E5000F70AFF02066884360CFB02663763CF6A06
:102E6000066884360CFB0266376306688436D70131
:102E7000F65946F00107066884364FEAC21C46F848
:102E80000C70F0BD00BFFEE77047704700BE704792
:102E90008DB002680C9242680B9282680A92C268F6
:102EA0000992026908924269079282690692C26990
:102EB00005920B4A12680492094A121F1268039283
:102EC000074A083212680292054A0C3212680192CF
:102ED000034A10321268009200BE0DB07047000025
:102EE0002CED00E0704710B5FEF754FB10BD00005C
:102EF00000B5B3B0302127A8FDF7CEF9142122A8E0
:102F0000FDF7CAF9842101A8FDF7C6F9FEF714FD03
:102F100000BF2F48006840F080502D4908600846E7
:102F2000006800F08050009000BF00BF00BF29483B
:102F3000006840F44040274908600846006800F4F3
:102F40004040009000BF00BF082127A8C1620C21AB
:102F50000162C02141624FF48030289002202D9000
:102F6000022127A881624905C1610120279027A875
:102F7000FFF77EF908B1FDF776FDFEF795FC08B185
:102F8000FDF771FD02202390002024904FF4A05003
:102F900025904FF4805026900F202290072122A8E0
:102FA000FFF744F808B1FDF75EFD01200A90022109
:102FB000039104913220029005910806019001A826
:102FC000FEF7C4FC08B1FDF74EFD33B000BD0000B4
:102FD00040380240007000401448006840F470001F
:102FE000124908601248006840F00100104908606A
:102FF00000200F49083108600D4800680D4908405D
:103000000B4908600C48091D0860081F006820F47F
:103010008020091F0860002005490C3108604FF02E
:1030200000600249803908607047000088ED00E0C8
:1030300000380240FFFFF6FE1030002410B5026891
:10304000294B98420ED0B0F1804F0BD0274B9842BD
:1030500008D0274B984205D0264B984202D0264BE9
:10306000984203D122F070024B681A431E4B9842DB
:1030700020D0B0F1804F1DD01C4B98421AD01C4B71
:10308000984217D01B4B984214D01B4B984211D03A
:103090001A4B98420ED01A4B98420BD0194B9842BB
:1030A00008D0194B984205D0184B984202D0184BC3
:1030B000984203D122F44072CB681A4322F0800375
:1030C0004C6943EA040202608B68C3620B68836246
:1030D000054B984202D0084B984201D10B6903631B
:1030E0000123436110BD00000000014000040040C6
:1030F00000080040000C0040000401400040014076
:10310000004401400048014000180040001C0040FD
:103110000020004030B501F01F05012404FA05F33A
:10312000046A9C430462046A01F01F0502FA05F573
:103130002C43046230BD000030B5056A25F001055E
:103140000562026A43688469154D2C4024F003042B
:103150000D682C4322F002028D682A43114DA842CB
:1031600000D103E0104DA84206D100BF22F00802B2
:10317000CD682A4322F004020A4DA84202D00A4D2B
:10318000A84207D123F4807323F400734D692B43C5
:103190008D692B43436084614D684563026230BD95
:1031A0008FFFFEFF000001400004014030B5056ABA
:1031B00025F010050562026A43688469184D2C40A9
:1031C00024F440740D6844EA052422F020028D683E
:1031D00042EA0512134DA84200D103E0124DA84265
:1031E00007D100BF22F08002CD6842EA051222F02A
:1031F00040020C4DA84202D00B4DA84209D123F445
:10320000806323F400634D6943EA85038D6943EAD3
:103210008503436084614D688563026230BD0000B0
:10322000FF8FFFFE000001400004014030B5056A39
:1032300025F480750562026A4368C469174D2C4005
:1032400024F003040D682C4322F400728D6842EAD6
:103250000522134DA84200D103E0124DA84207D128
:1032600000BF22F40062CD6842EA052222F48062A7
:103270000B4DA84202D00B4DA84209D123F4805334
:1032800023F400534D6943EA05138D6943EA05139E
:103290004360C4614D68C563026230BD8FFFFEFFAD
:1032A000000001400004014030B5056A25F4805556
:1032B0000562036A4468C2690E4D2A4022F44072D6
:1032C0000D6842EA052223F400538D6843EA053372
:1032D000094DA84202D0094DA84204D124F48044EB
:1032E0004D6944EA85144460C2614D680564036217
:1032F00030BD0000FF8FFFFE0000014000040140D0
:1033000030B5056A25F480350562026A4368446D6C
:103310000C4D2C400D682C4322F400320D8942EAFA
:103320000542094DA84202D0084DA84204D123F419
:1033300080334D6943EA0523436044654D688565E4
:10334000026230BD8FFFFEFF00000140000401401B
:1033500030B5056A25F480150562026A4368446D3C
:103360000D4D2C400D6844EA052422F400120D890D
:1033700042EA0552094DA84202D0094DA84204D1A3
:1033800023F480234D6943EA8523436044654D68F7
:10339000C565026230BD0000FF8FFFFE00000140E6
:1033A0000004014000BFFEE702480068C0F30220AD
:1033B000704700000CED00E010B5002804DB0A07A0
:1033C000130E054A135406E00A07140E034A00F0D0
:1033D0000F031B1FD45410BD00E400E018ED00E003
:1033E00002E008C8121F08C1002AFAD170477047CE
:1033F000002001E001C1121F002AFBD1704700002C
:10340000FEF7D4F8FFF774FDFDF7ACF9FCF7B0FF59
:10341000FDF7BCF84FF040410020FDF7F9F8FDF74B
:103420007BF80248FDF738F800BFFEE7FF0000FF19
:1034300000000000000000002020202000200000EC
:1034400050500000000000002850F850F850A00034
:103450002030603010602000202018601010000024
:10346000003820605078000020202000000000007C
:10347000102020202020100040202020202040006C
:103480002070205000000000002020F820200000C4
:10349000000000001020200000000070000000006C
:1034A000000000000020000010202020404080008C
:1034B00020505050502000006020202020F80000B4
:1034C000205020204070000020501020106000008C
:1034D000103050781038000070406010502000000C
:1034E00030406050506000007050102020200000DC
:1034F000205020505020000030505030106000000C
:10350000000020000020000000001000102000003B
:10351000001020C0201000000070007000000000AB
:103520000040201820400000205010200020000003
:1035300030484858484038006020507088D8000013
:10354000F048704848F000007050404040300000A3
:10355000F048484848F00000F848604048F800004B
:10356000F848604040E00000704040585030000093
:10357000E848784848E800007020202020700000CB
:103580003810105050200000D850607050D8000003
:10359000E040404048F80000D8D8D8A888D80000BB
:1035A000D868685858E8000030484848483000005B
:1035B000F048487040E00000304848484830180063
:1035C000F048487048E8000070502010507000002B
:1035D000F8A8202020700000D84848484830000053
:1035E000D888485050300000D888A8A8A8500000BB
:1035F000D850202050D80000D888502020700000DB
:10360000784810204878000030202020202030000A
:1036100080404020202010006020202020206000DA
:10362000202050000000000000000000000000F812
:103630002010000000000000000030107078000032
:10364000C040704848F0000000007040407000002A
:1036500018083848483800000000707040300000FA
:1036600010207020207000000000384848380830D2
:10367000C040704848E80000200060202070000032
:103680002000701010101070C040587050D800000A
:1036900060202020207000000000D0A8A8A8000012
:1036A0000000F04848C800000000304848300000E2
:1036B0000000F048487040E00000384848380818DA
:1036C0000000782020700000000030201060000012
:1036D0000040F040483000000000D8484838000062
:1036E0000000C848303000000000D8A8A8500000F2
:1036F00000004830304800000000D85050202060C2
:103700000000785028780000102020602020100051
:103710002020202020202000402020302020400099
:103720000000002850000000000000000000000021
:103730000000000000000000000000000000000089
:103740000000000000000000000000000000000079
:103750000000000000000000000000000000000069
:103760000000000000000000000000000000000059
:1037700000000000000003800003800003800003BD
:10378000800003800003800003800003800003802A
:1037900000010000010000000000000000038000A4
:1037A0000380000000000000000000000000000096
:1037B0000000000000000000000000000000000009
:1037C000000E70000E70000E700004200004200037
:1037D00004200004200000000000000000000000A1
:1037E00000000000000000000000000000000000D9
:1037F00000000000000000000000000000000000C9
:103800000000000000000660000660000660000680
:1038100060000660003FF8003FF8000660000CC042
:10382000003FF8003FF8000CC0000CC0000CC000C6
:103830000CC0000CC00000000000000000000000F0
:103840000000000000000000000000018000018076
:103850000007B0000FF0001870001870001C000086
:103860000F800007E00000F0001830001C30001C42
:1038700070001FE0001BC00001800001800001807B
:1038800000018000000000000000000000000000B7
:103890000000000000000780000FC0001CE00018BE
:1038A00060001860001CE0000FF80007E0001FF047
:1038B0000007380006180006180007380003F0005B
:1038C00001E0000000000000000000000000000017
:1038D00000000000000000000000000000000000E8
:1038E0000000000003F00007F0000C60000C000076
:1038F0000C00000600000700000F9C001DFC0018D3
:10390000F0001870000FFC0007DC00000000000051
:1039100000000000000000000000000000000000A7
:10392000000000000000000000038000038000038E
:103930008000010000010000010000010000000003
:103940000000000000000000000000000000000077
:103950000000000000000000000000000000000067
:10396000000000000000000000000000000000183F
:103970000000380000700000F00000E00000E000EF
:1039800001C00001C00001C00001C00001C0000171
:10399000C00000E00000E00000700000700000388F
:1039A00000001800000000000000000000000000FF
:1039B0000000000000001800001C00000E00000EB7
:1039C0000000070000070000038000038000038060
:1039D0000003800003800003800007000007000050
:1039E0000F00000E00001C00001800000000000086
:1039F0000000000000000000000000000000018046
:103A0000000180000180001DB8001FF80007E000E1
:103A100003C00003C0000660000660000000000054
:103A20000000000000000000000000000000000096
:103A30000000000000000000000000000000000086
:103A400000000000000000000000000001800001F4
:103A500080000180000180000180003FFC003FFCED
:103A600000018000018000018000018000018000D1
:103A70000000000000000000000000000000000046
:103A80000000000000000000000000000000000036
:103A90000000000000000000000000000000000026
:103AA0000000000000000000000000000000000016
:103AB000000000E00000C00001C0000180000180A3
:103AC00000030000030000000000000000000000F0
:103AD00000000000000000000000000000000000E6
:103AE00000000000000000000000001FF8001FF8A8
:103AF00000000000000000000000000000000000C6
:103B000000000000000000000000000000000000B5
:103B100000000000000000000000000000000000A5
:103B20000000000000000000000000000000000095
:103B30000000000000000000000000000000000085
:103B4000000003C00003C00003C00000000000002C
:103B50000000000000000000000000000000000065
:103B6000001800001800003800003000007000004D
:103B7000600000600000C00000C000018000018003
:103B8000000300000300000600000600000E000015
:103B90000C00001C000018000018000000000000CD
:103BA000000000000000000000000000000003C052
:103BB0000007E0000C30000C300018180018180046
:103BC0001818001818001818001818001818000CF9
:103BD00030000C300007E00003C0000000000000CF
:103BE00000000000000000000000000000000000D5
:103BF0000000000000000080000780001F80001D02
:103C000080000180000180000180000180000180AF
:103C1000000180000180000180000180001FF80089
:103C20001FF800000000000000000000000000007D
:103C3000000000000000000000000000000007C0BD
:103C4000001FF00038300030180030180000180055
:103C500000300000600001C0000380000600000C7E
:103C600000001800003FF8003FF8000000000000CE
:103C70000000000000000000000000000000000044
:103C800000000000000003C0000FE0000C70000006
:103C9000300000300000600003C00003E00000704E
:103CA000000018000018000018001838001FF0006D
:103CB0000FC0000000000000000000000000000035
:103CC000000000000000000000000000000000E014
:103CD0000001E00001E000036000066000066000F3
:103CE0000C60000C60001860003060003FF8003F7E
:103CF000F80000600003F80003F800000000000076
:103D000000000000000000000000000000000000B3
:103D10000000000000001FF0001FF0001800001855
:103D200000001800001BC0001FF0001C300000182D
:103D3000000018000018000018003030003FF000AC
:103D40000FC00000000000000000000000000000A4
:103D5000000000000000000000000000000000F86B
:103D60000003F8000700000E00000C00001800001F
:103D70001BC0001FF0001C30001818001818001895
:103D800018000C38000FF00003E0000000000000F5
:103D90000000000000000000000000000000000023
:103DA0000000000000001FF8001FF800181800189D
:103DB000380000300000300000700000600000603B
:103DC0000000E00000C00000C00001C00001800051
:103DD0000180000000000000000000000000000062
:103DE000000000000000000000000000000007E0EC
:103DF000000FF0001C38001818001818000C3000D4
:103E000007E00007E0000C30001818001818001830
:103E100018001C38000FF00007E000000000000050
:103E20000000000000000000000000000000000092
:103E300000000000000007C0000FF0001C30001858
:103E400018001818001818000C38000FF80003D8D4
:103E50000000180000300000700000E0001FC000EB
:103E60001F00000000000000000000000000000033
:103E70000000000000000000000000000000000042
:103E80000000000000000000000003C00003C000AC
:103E900003C000000000000000000000000000005F
:103EA000000003C00003C00003C0000000000000C9
:103EB0000000000000000000000000000000000002
:103EC00000000000000000000000000000000000F2
:103ED000000000F00000F00000F000000000000012
:103EE0000000000000000000E00001C000018000B0
:103EF000018000030000020000000000000000003C
:103F000000000000000000000000000000000000B1
:103F100000000000001C00003C0000F00003C00096
:103F20000F00003C0000F000003C00000F00000308
:103F3000C00000F000003C00001C00000000000079
:103F40000000000000000000000000000000000071
:103F50000000000000000000000000000000000061
:103F600000000000007FFC007FFC0000000000005B
:103F7000007FFC007FFC000000000000000000004B
:103F80000000000000000000000000000000000031
:103F90000000000000000000000000000000000021
:103FA000000000007000007800001E000007800084
:103FB00001E000007800001E0000780001E000072A
:103FC00080001E000078000070000000000000006B
:103FD00000000000000000000000000000000000E1
:103FE00000000000000000000007C0000FE0001803
:103FF000700018300018300000700000E00003C0AE
:104000000003800003000000000000000007000023
:104010000700000000000000000000000000000099
:10402000000000000000000000000000000003E0AD
:104030000007F0000E38000C180018780018F8007F
:1040400019D80019980019980019980018F8001844
:1040500078001800000C00000E180007F80003E0BC
:104060000000000000000000000000000000000050
:104070000000000000000000001F80001FC00001C1
:10408000C0000360000360000630000630000C3002
:10409000000FF8001FF800180C00300C00FC7F0027
:1040A000FC7F000000000000000000000000000095
:1040B0000000000000000000000000000000000000
:1040C000007FE0007FF00018380018180018180072
:1040D0001838001FF0001FF800181C00180C0018FA
:1040E0000C00180C007FF8007FF0000000000000BA
:1040F00000000000000000000000000000000000C0
:1041000000000000000000000003EC000FFC001C99
:104110001C00180C00300C00300000300000300093
:1041200000300000300000180C001C1C000FF800CC
:1041300003F000000000000000000000000000008C
:10414000000000000000000000000000000000006F
:10415000007FC0007FF000183800181800180C000D
:10416000180C00180C00180C00180C00180C001883
:1041700018001838007FF0007FE000000000000009
:10418000000000000000000000000000000000002F
:104190000000000000000000007FF8007FF8001819
:1041A00018001818001998001980001F80001F803F
:1041B000001980001998001818001818007FF800DE
:1041C0007FF8000000000000000000000000000078
:1041D00000000000000000000000000000000000DF
:1041E000003FFC003FFC000C0C000C0C000CCC0051
:1041F0000CC0000FC0000FC0000CC0000CC0000CB1
:1042000000000C00003FC0003FC0000000000000A4
:10421000000000000000000000000000000000009E
:1042200000000000000000000003EC000FFC001C78
:104230001C00180C00300C0030000030000030FE74
:104240000030FE00300C00380C001C1C000FFC007D
:1042500003F000000000000000000000000000006B
:10426000000000000000000000000000000000004E
:10427000007E7E007E7E00181800181800181800B6
:104280001818001FF8001FF8001818001818001858
:1042900018001818007E7E007E7E000000000000DE
:1042A000000000000000000000000000000000000E
:1042B0000000000000000000001FF8001FF80001CF
:1042C00080000180000180000180000180000180E9
:1042D000000180000180000180000180001FF800C3
:1042E0001FF80000000000000000000000000000B7
:1042F00000000000000000000000000000000000BE
:104300000007FE0007FE0000300000300000300013
:1043100000300000300030300030300030300030ED
:1043200030003060003FE0000F800000000000001F
:10433000000000000000000000000000000000007D
:104340000000000000000000007F3E007F3E0018DB
:10435000300018600018C0001980001B80001FC0CA
:10436000001CE0001870001830001838007F1F0093
:104370007F1F00000000000000000000000000009F
:10438000000000000000000000000000000000002D
:10439000007F80007F80000C00000C00000C0000FB
:1043A0000C00000C00000C00000C0C000C0C000CAD
:1043B0000C000C0C007FFC007FFC000000000000E3
:1043C00000000000000000000000000000000000ED
:1043D000000000000000000000F00F00F81F00388F
:1043E0001C003C3C003C3C00366C00366C0033CC7E
:1043F0000033CC00318C00300C00300C00FE7F000C
:10440000FE7F00000000000000000000000000002F
:10441000000000000000000000000000000000009C
:104420000078FE0078FE001C18001E18001F1800FF
:104430001B18001B980019D80018D80018F800188D
:1044400078001838007F18007F1800000000000076
:10445000000000000000000000000000000000005C
:1044600000000000000000000003C0000FF0001C6E
:104470003800181800381C00300C00300C00300CCC
:1044800000300C00381C001818001C38000FF00019
:1044900003C0000000000000000000000000000059
:1044A000000000000000000000000000000000000C
:1044B000003FF0003FF8000C1C000C0C000C0C003E
:1044C0000C0C000C18000FF8000FE0000C00000CA2
:1044D00000000C00003FC0003FC0000000000000D2
:1044E00000000000000000000000000000000000CC
:1044F00000000000000000000003C0000FF0001CDE
:104500003800181800381C00300C00300C00300C3B
:1045100000300C00381C001818001C38000FF00088
:1045200007C00007CC000FFC000C380000000000A2
:10453000000000000000000000000000000000007B
:10454000007FE0007FF000183800181800181800ED
:104550001838001FF0001FC00018E0001870001885
:1045600030001838007F1E007F0E000000000000A1
:10457000000000000000000000000000000000003B
:1045800000000000000000000007D8000FF8001C29
:1045900038001818001818001E00000FC00003F0A3
:1045A000000078001818001818001C38001FF000D0
:1045B0001BE0000000000000000000000000000000
:1045C00000000000000000000000000000000000EB
:1045D000003FFC003FFC00318C00318C00318C002E
:1045E000318C000180000180000180000180000109
:1045F00080000180000FF0000FF0000000000000BC
:1046000000000000000000000000000000000000AA
:104610000000000000000000007E7E007E7E00188A
:104620001800181800181800181800181800181882
:10463000001818001818001818000C30000FF000AF
:1046400003C00000000000000000000000000000A7
:10465000000000000000000000000000000000005A
:10466000007F7F007F7F00180C000C18000C1800E2
:104670000C180006300006300003600003600003E1
:10468000600001C00001C0000080000000000000C8
:10469000000000000000000000000000000000001A
:1046A000000000000000000000FE3F80FE3F803060
:1046B000060030060030860019CC0019CC001B6CB7
:1046C000001B6C001E7C000E38000E38000C180019
:1046D0000C180000000000000000000000000000B6
:1046E00000000000000000000000000000000000CA
:1046F000007E7E007E7E001818000C3000066000F0
:1047000003C00001800001800003C0000660000CAF
:1047100030001818007E7E007E7E00000000000041
:104720000000000000000000000000000000000089
:104730000000000000000000007C7E007C7E00186D
:1047400018000C300006600006600003C000018005
:10475000000180000180000180000180000FF00056
:104760000FF000000000000000000000000000004A
:104770000000000000000000000000000000000039
:10478000001FF8001FF8001818001830001860000B
:1047900018C0000180000300000618000C18001863
:1047A00018003018003FF8003FF80000000000003B
:1047B00000000000000000000000000000000000F9
:1047C00000000000000001F00001F0000180000185
:1047D00080000180000180000180000180000180D4
:1047E0000001800001800001800001800001800044
:1047F00001800001800001F00001F00000000000D5
:1048000000000000000000001800001800001C005C
:10481000000C00000E00000600000600000300006F
:1048200003000001800001800000C00000C0000003
:1048300060000060000070000030000038000018C8
:104840000000180000000000000000000000000050
:104850000000000000000F80000F800001800001B8
:104860008000018000018000018000018000018043
:1048700000018000018000018000018000018000B3
:104880000180000180000F80000F80000000000008
:10489000000000000000000000000000800001C0D7
:1048A0000003E0000770000630000C1800180C0030
:1048B00010040000000000000000000000000000E4
:1048C00000000000000000000000000000000000E8
:1048D00000000000000000000000000000000000D8
:1048E00000000000000000000000000000000000C8
:1048F00000000000000000000000000000000000B8
:1049000000000000000000000000000000000000A7
:104910000000000000000000000000000000000097
:104920000000FFFF00FFFF00000000030000038005
:104930000000E00000600000000000000000000037
:104940000000000000000000000000000000000067
:104950000000000000000000000000000000000057
:104960000000000000000000000000000000000047
:104970000000000000000000000000000000000037
:1049800000000FC0001FE00000300000300007F002
:10499000001FF0003830003030003070001FFC0085
:1049A0000FBC00000000000000000000000000003C
:1049B000000000000000000000000000000078007F
:1049C000007800001800001800001BE0001FF8002D
:1049D0001C1800180C00180C00180C00180C0018FB
:1049E0000C001C18007FF8007BE0000000000000B5
:1049F00000000000000000000000000000000000B7
:104A000000000000000000000000000000000000A6
:104A1000000003EC000FFC001C1C00380C00300CE4
:104A200000300000300000380C001C1C000FF800A3
:104A300003F0000000000000000000000000000083
:104A400000000000000000000000000000000078EE
:104A50000000780000180000180007D8001FF800B8
:104A600018380030180030180030180030180030A6
:104A700018001838001FFE0007DE000000000000CC
:104A80000000000000000000000000000000000026
:104A90000000000000000000000000000000000016
:104AA000000007E0001FF800181800300C003FFC61
:104AB000003FFC00300000300000180C001FFC001C
:104AC00007F00000000000000000000000000000EF
:104AD000000000000000000000000000000001FCD9
:104AE0000003FC000600000600003FF8003FF8004D
:104AF0000600000600000600000600000600000692
:104B000000000600003FF0003FF000000000000041
:104B10000000000000000000000000000000000095
:104B20000000000000000000000000000000000085
:104B3000000007DE001FFE00183800301800301893
:104B4000003018003018003018001838001FF80026
:104B500007D8000018000018000038000FF0000F00
:104B6000C00000000000000000000000000078000D
:104B7000007800001800001800001BE0001FF00083
:104B80001C380018180018180018180018180018F9
:104B900018001818007E7E007E7E000000000000D5
:104BA0000000000000000000000000000000000005
:104BB00000000000000001800001800000000000F3
:104BC00000001F80001F8000018000018000018024
:104BD000000180000180000180000180003FFC0096
:104BE0003FFC00000000000000000000000000008A
:104BF000000000000000000000000000000000C0F5
:104C00000000C0000000000000001FF0001FF000C6
:104C100000300000300000300000300000300000A4
:104C20003000003000003000003000003000003064
:104C3000000070001FE0001F800000000000000066
:104C40000000000000003C00003C00000C00000CD4
:104C500000000CF8000CF8000CC0000D80000F8064
:104C6000000F00000F80000DC0000CE0003C7C0035
:104C70003C7C00000000000000000000000000007C
:104C800000000000000000000000000000001F8085
:104C9000001F800001800001800001800001800071
:104CA000018000018000018000018000018000017E
:104CB00080000180003FFC003FFC0000000000007D
:104CC00000000000000000000000000000000000E4
:104CD00000000000000000000000000000000000D4
:104CE0000000F77800FFFC0039CC00318C00318CDB
:104CF00000318C00318C00318C00318C00FDEF00D4
:104D0000FDEF0000000000000000000000000000B7
:104D10000000000000000000000000000000000093
:104D2000000000000000000000007BE0007FF000B9
:104D30001C38001818001818001818001818001847
:104D400018001818007E7E007E7E00000000000023
:104D50000000000000000000000000000000000053
:104D60000000000000000000000000000000000043
:104D7000000003C0000FF0001C3800381C00300C8D
:104D800000300C00300C00381C001C38000FF00004
:104D900003C0000000000000000000000000000050
:104DA0000000000000000000000000000000000003
:104DB000000000000000000000007BE0007FF80021
:104DC0001C1800180C00180C00180C00180C001807
:104DD0000C001C18001FF8001BE000180000180051
:104DE000001800007F00007F0000000000000000AD
:104DF00000000000000000000000000000000000B3
:104E0000000007DE001FFE001838003018003018C0
:104E1000003018003018003018001838001FF80053
:104E200007D80000180000180000180000FE00005D
:104E3000FE00000000000000000000000000000074
:104E4000000000000000000000003E78003EFC0072
:104E500007CC000700000600000600000600000660
:104E600000000600003FF0003FF0000000000000DE
:104E70000000000000000000000000000000000032
:104E80000000000000000000000000000000000022
:104E9000000007F8000FF8001818001818001F800D
:104EA000000FF00000F8001818001838001FF0007C
:104EB0001FE00000000000000000000000000000F3
:104EC00000000000000000000000000000000C00D6
:104ED000000C00000C00000C00003FF0003FF00050
:104EE0000C00000C00000C00000C00000C00000C7A
:104EF00000000C1C0007FC0003F000000000000094
:104F000000000000000000000000000000000000A1
:104F10000000000000000000000000000000000091
:104F20000000787800787800181800181800181811
:104F3000001818001818001818001838000FFE0084
:104F400007DE00000000000000000000000000007C
:104F50000000000000000000000000000000000051
:104F6000000000000000000000007C3E007C3E00CD
:104F70001818001818000C30000C300006600006ED
:104F8000600007E00003C00003C000000000000054
:104F90000000000000000000000000000000000011
:104FA0000000000000000000000000000000000001
:104FB0000000783C00783C003118003398003398AA
:104FC000001AB0001EF0001EF0001C60000C600013
:104FD0000C60000000000000000000000000000065
:104FE00000000000000000000000000000000000C1
:104FF000000000000000000000003E7C003E7C003D
:105000000C300006600003C00001800003C00006F1
:1050100060000C30003E7C003E7C00000000000080
:105020000000000000000000000000000000000080
:105030000000000000000000000000000000000070
:1050400000007E1F007E1F00180C000C18000C18BA
:105050000006300006300003600003E00001C000DD
:1050600000C0000180000180000300003FC0003F3D
:10507000C000000000000000000000000000000070
:10508000000000000000000000001FF8001FF800F2
:1050900018300018600000C0000180000300000606
:1050A00018000C18001FF8001FF800000000000096
:1050B00000000000000000000000000000000000F0
:1050C00000000000000000E00001E000018000019D
:1050D00080000180000180000180000180000380C9
:1050E00000070000038000018000018000018000B3
:1050F00001800001800001E00000E00000000000ED
:10510000000000000000000000000000000001801E
:10511000000180000180000180000180000180000A
:1051200001800001800001800001800001800001F9
:10513000800001800001800001800001800001806A
:1051400000018000000000000000000000000000DE
:10515000000000000000070000078000018000013F
:10516000800001800001800001800001800001C0FA
:105170000000E00001C0000180000180000180000B
:10518000018000018000078000070000000000008F
:10519000000000000000000000000000000000000F
:1051A00000000000000000000000000000000000FF
:1051B0000E00001F18003BB80031F00000E00000B6
:1051C00000000000000000000000000000000000DF
:1051D00000000000000000000000000000000000CF
:1051E00000000000000000000000000000000000BF
:1051F00000000000000000000000000000000000AF
:105200000000000000000000000007000700070089
:10521000070007000700070002000200000000006E
:105220000700070000000000000000000000000070
:10523000000000001CE01CE01CE0084008400840A2
:10524000000000000000000000000000000000005E
:1052500000000000000000000CC00CC00CC00CC01E
:105260000CC03FF03FF00CC00CC03FF03FF00CC052
:105270000CC00CC00CC00CC00000000000000000FE
:105280000300030007E00FE0186018001F000FC0C4
:1052900000E0186018601FC01F80030003000300B7
:1052A000000000000000000000001C00220022009E
:1052B00022001C6001E00F803C0031C0022002206F
:1052C000022001C0000000000000000000000000FB
:1052D00000000000000003E00FE00C000C000600DE
:1052E0000F301FF019E018C01FF007B000000000D9
:1052F00000000000000000000000000003800380A8
:105300000380010001000100000000000000000017
:10531000000000000000000000000000000000008D
:10532000000000C000C00180018001800300030074
:10533000030003000300030001800180018000C01E
:1053400000C000000000000000000C000C0006007F
:10535000060006000300030003000300030003002F
:105360000600060006000C000C0000000000000013
:1053700000000300030003001B601FE0078007809C
:105380000FC00CC000000000000000000000000082
:10539000000000000000000000000000000003000A
:1053A0000300030003003FF03FF00300030003008D
:1053B00003000000000000000000000000000000EA
:1053C00000000000000000000000000000000000DD
:1053D0000000000000000380030003000600060038
:1053E00004000000000000000000000000000000B9
:1053F0000000000000003FE03FE00000000000006F
:10540000000000000000000000000000000000009C
:10541000000000000000000000000000000000008C
:1054200000000000000003800380038000000000F3
:1054300000000000000000000060006000C000C02C
:1054400000C00180018003000300060006000C007C
:105450000C000C0018001800000000000000000004
:1054600000000F801FC018C03060306030603060B6
:1054700030603060306018C01FC00F800000000036
:105480000000000000000000000003001F001F00DB
:1054900003000300030003000300030003000300F4
:1054A0001FE01FE0000000000000000000000000FE
:1054B00000000F801FC038E03060006000C0018035
:1054C000030006000C0018003FE03FE00000000071
:1054D000000000000000000000000F803FC030E02E
:1054E000006000E007C007C000E00060006060E00E
:1054F0007FC03F80000000000000000000000000AE
:10550000000001C003C003C006C00CC00CC018C01E
:1055100030C03FE03FE000C003E003E000000000D7
:10552000000000000000000000001FC01FC01800A5
:1055300018001F801FC018E000600060006030E0AD
:105540003FC01F80000000000000000000000000BD
:10555000000003E00FE01E001800380037803FC055
:1055600038E03060306018E01FC0078000000000A5
:10557000000000000000000000003FE03FE030605D
:10558000006000C000C000C00180018001800300F5
:105590000300030000000000000000000000000005
:1055A00000000F801FC038E0306038E01FC01FC00F
:1055B00038E03060306038E01FC00F80000000002D
:1055C000000000000000000000000F001FC038C0F5
:1055D0003060306038E01FE00F6000E000C003C0C2
:1055E0003F803E00000000000000000000000000BE
:1055F0000000000000000000000003800380038022
:105600000000000000000380038003800000000011
:10561000000000000000000000000000000000008A
:10562000000001C001C001C00000000000000380B4
:105630000300060006000400000000000000000057
:10564000000000000000003000F003C007001C0054
:1056500078001C00070003C000F0003000000000CC
:10566000000000000000000000000000000000003A
:1056700000007FF07FF0000000007FF07FF000006E
:10568000000000000000000000000000000000001A
:1056900000000000000030003C000F00038000E02C
:1056A000007800E003800F003C00300000000000A4
:1056B0000000000000000000000000000F801FC07C
:1056C00018601860006001C0038003000000000043
:1056D00007000700000000000000000000000000BC
:1056E000000003800C8008401040104011C01240A0
:1056F0001240124011C0100008000840078000004E
:105700000000000000000000000000001F801F805B
:10571000038006C006C00CC00C601FE01FE03030E4
:105720007878787800000000000000000000000099
:10573000000000003F803FC01860186018E01FC0E4
:105740001FE01870183018303FF03FE000000000F4
:1057500000000000000000000000000007B00FF093
:105760001C703830300030003000300038301C7091
:105770000FE007C000000000000000000000000073
:10578000000000007F807FC030E03070303030306B
:1057900030303030307030E07FC07F80000000005B
:1057A0000000000000000000000000003FF03FF09B
:1057B0001830183019801F801F8019801830183059
:1057C0003FF03FF00000000000000000000000007B
:1057D000000000003FF03FF01830183019801F80A3
:1057E0001F801980180018003F003F0000000000D3
:1057F00000000000000000000000000007B01FF0E3
:10580000187030303000300031F831F83030183056
:105810001FF007C0000000000000000000000000B2
:10582000000000003CF03CF01860186018601FE0B9
:105830001FE01860186018603CF03CF000000000A9
:105840000000000000000000000000001FE01FE05A
:105850000300030003000300030003000300030030
:105860001FE01FE00000000000000000000000003A
:105870000000000003F803F80060006000600060B2
:1058800030603060306030E03FC00F8000000000CA
:105890000000000000000000000000003EF83EF89C
:1058A00018E019801B001F001D8018C018C0186068
:1058B0003E783E38000000000000000000000000BC
:1058C000000000003F003F000C000C000C000C002A
:1058D0000C000C300C300C303FF03FF000000000AA
:1058E00000000000000000000000000078787878D8
:1058F00038703CF034B037B037B0333033303030FC
:105900007CF87CF8000000000000000000000000AF
:105910000000000039F03DF01C601E601E601B603E
:105920001B6019E019E018E03EE03E600000000056
:1059300000000000000000000000000007800FC011
:105940001CE03870303030303030303038701CE08F
:105950000FC00780000000000000000000000000F1
:10596000000000003FC03FE0187018301830187079
:105970001FE01FC0180018003F003F00000000009B
:1059800000000000000000000000000007800FC0C1
:105990001CE03870303030303030303038701CE03F
:1059A0000FC0078007B00FF00CE0000000000000FF
:1059B000000000003FC03FE01870183018701FE072
:1059C0001FC018E0186018703E383E180000000034
:1059D0000000000000000000000000000FB01FF0F9
:1059E0003870303038001F8007E000703030387079
:1059F0003FE037C000000000000000000000000091
:105A0000000000003FF03FF033303330333003000C
:105A100003000300030003000FC00FC000000000DC
:105A20000000000000000000000000003CF03CF01E
:105A300018601860186018601860186018601CE022
:105A40000FC0078000000000000000000000000000
:105A50000000000078F078F03060306018C018C0A6
:105A60000D800D800D80070007000700000000007A
:105A70000000000000000000000000007C7C7C7C36
:105A8000301833983398339836D816D01C701C7061
:105A90001C70183000000000000000000000000032
:105AA0000000000078F078F0306018C00D8007002A
:105AB00007000D8018C0306078F078F0000000001A
:105AC0000000000000000000000000003CF03CF07E
:105AD00018600CC007800780030003000300030068
